:1006F80048554220302064657620696E0A004855C6
:1007080042203020646576206F75740A004855428F
:1007180020312064657620696E0A004855422031F0
:1007280020646576206F75740A00526573657420BD
:10073800726F6F7420687562202531642320706F92
:1007480072740A0044697361626C6520726F6F7419
:1007580020687562202531642320706F72742062CE
:10076800656361757365206F6620646973636F6E76
:100778006E6563740A0047657444657644657363FF
:10078800723A2000782530325820000A00476574F4
:1007980043666744657363723A20005553422D449B
:1007A80069736B2052656164790A004849443A20AC
:1007B80025303278004765744849445265706F7235
:1007C800743A20005553422D4B6579626F6172640B
:1007D8002052656164790A005553422D4D6F757337
:1007E800652052656164790A0047657448756244FA
:1007F800657363723A20004578742D48554220503D
:100808006F72745F2531642320706F776572206F73
:100818006E206572726F720A004578742D485542D1
:1008280020506F72745F2531642309636C656172AF
:1008380020636F6E6E656374696F6E206572726F88
:10084800720A0064765F636C733D253032782C69D8
:10085800665F636C73203D253032780A002530329C
:10086800782000766964207069643A2530327820EF
:10087800253032780A00414F41204D6F64650A00E7
:10088800496E6974526F6F744465762045727220A0
:100898003D20253032580A00456E756D416C6C520A
:1008A8006F6F744465760A00526F6F7448756249B9
:1008B8006E64657820253032780A00496E697420A4
:1008C80064657620404578744875622D706F72743F
:1008D8005F253164200040526F6F745F2531640AD0
:1008E8000055485F5345545550203D204765744492
:1008F800657644657363723A20253032780054680F
:1009080069732070726F6772616D20646F6E2774EF
:1009180020737570706F7274204C6576656C203228
:10092800204855420A00496E69744465764F6E48FE
:10093800756220457272203D20253032580A0045E4
:100948006E756D487562506F72740A00466F756EE9
:10095800642066756C6C20737065656420646576C8
:10096800696365206F6E20706F7274202531640A88
:1009780000466F756E64206C6F77207370656564D0
:1009880020646576696365206F6E20706F727420CD
:100998002531640A00526573657420706F72742083
:1009A800616E64207468656E207761697420696E71
:1009B8000A00446576696365206F6E20706F7274F3
:1009C800206572726F720A00446576696365206FEC
:1009D8006E20706F7274202531642072656D6F7699
:1009E80065640A00456E756D416C6C487562506FA0
:1009F80072740A00456E756D416C6C487562506F73
:100A0800727420657272203D20253032580A0053D6
:100A18007461727420404368697049443D253032DE
:100A2800580A0057616974204465766963652049EE
:100A38006E0A00456E756D416C6C526F6F7444653B
:100A48007620657272203D20253032580A00726582
:100A5800637620646174613A200073656E64206275
:100A680061636B0A007472616E736D6974206572DC
:100A7800726F7220253032780A006E6F20696E74AA
:100A880065727275707420656E64706F696E740A31
:100A98000080060001000012008006000200000429
:100AA800000005020000000000000900000000002E
:100AB80000210A000000000000010B0000000000F7
:100AC800000201000000000000A006002900000943
:100AD800008106002200004100C03300000000022F
:100AE80000403500000000000000041023273543B3
:100AF800574348005743485541525444656D6F0069
:100B0800574348204163636573736F727920546556
:100B1800737400312E3000687474703A2F2F776325
:100B2800682E636E005743484163636573736F7241
:100B38007931004034000000000400403400000116
:100B4800000C004034000002001300403400000391
:100B58000004004034000004000E0040340000058A
:0B0B6800000E00210A00000000000049
:0426C0007FC87E0051
:0E26C400EF4E600905A1EF1F70F61E80F32295
:10268E00CDEFCDCCEECCED4C600E7FE87E03122666
:09269E00C4ED1D70F11C80EE2258
:10257100EF75F00CA42471F582E43401F583E4F0E5
:10258100EF75F00CA42472F582E43401F583E4F0D4
:0C259100EF64017003F5E522E4F5E4229C
:101E5E00E490018FF0E5DB30E328900171E060063D
:101E6E00E5E454017040E4FF122571900171740194
:101E7E00F07BFF7A0679F8120F5090018F7415F0EF
:101E8E008024900171E0C39401748094804017E423
:101E9E00FF1225717BFF7A077906120F5090018F82
:101EAE00E070037416F0E5DB30E72890017DE0600A
:101EBE0006E5E5540170407F0112257190017D7495
:101ECE0001F07BFF7A077915120F5090018F741570
:101EDE00F0802490017DE0C39401748094804017BB
:101EEE007F011225717BFF7A077923120F50900123
:0C1EFE008FE070037416F090018FE0FF7D
:011F0A0022B4
:0C26E000EF547FFFE5E354804FF5E32248
:0E26D200EF600753E2BF53D27F2243E2402263
:031F0B00CEEFCE48
:101F0E007D307C759001487408F0E4FF1226E0EEF7
:101F1E0075F00CA42472F582E43401F583E4F0EE3E
:101F2E0064017004F5E58003E4F5E47F011226D226
:101F3E00CFEECFEF64017036E5E554FB4402F5E5D4
:101F4E00ED4C602505A105A105A105A105A105A1E1
:101F5E0005A105A105A1E5DB5430600653E5FD7F23
:101F6E000122ED1D70DA1C80D753E5FD8034E5E4C7
:101F7E0054FB4402F5E4ED4C602505A105A105A135
:101F8E0005A105A105A105A105A105A1E5DB540348
:101F9E00600653E4FD7F0122ED1D70DA1C80D753DD
:091FAE00E4FD1226C0C2D87F0038
:011FB7002207
:1021FB00EF75F00CA42471F582E43401F583E0C390
:10220B009401748094805011EF75F00CA42471F537
:10221B0082E43401F5837401F0EF64017026E5DB91
:10222B0030E747E5E554017015E5DB30E6047F0048
:10223B0080027F0190017FEFF0700343E50443E5DB
:10224B00017F0022E5DB30E321E5E454017015E565
:10225B00DB30E2047F0080027F01900173EFF070AE
:0D226B000343E40443E4017F00227F1622B8
:10205500CCEFCCED605AEC75F014A42445F582E480
:102065003401F58375F005ED121655E0FF1226E0F3
:10207500EC75F014A42446F582E43401F58375F07B
:1020850005ED121655E0FF1226D2EC75F014A424C6
:1020950046F582E43401F583CFEDCF75F005EF12F7
:1020A5001655E0703143D2807F64FE1226C4802627
:1020B500EC75F00CA42472F582E43401F583E0FF9D
:1020C5001226E0EC75F00CA42473F582E43401F5D6
:1020D50083E0FF1226D2CFECCFEF6003D38001C39C
:0320E500920A223A
:1026A7007FC87E0020D909EF1F70011EEF4E70F41E
:0826B70030D9037F00227FFEF1
:0126BF0022F8
:081B61009001ACEFF0C9EDC9E1
:101B690089D489D6E4A3F09001ACE0F5D5C2D97F38
:101B7900C87E0020D909EF1F70011EEF4E70F4E4F2
:101B8900F5D520D9037FFE2220D903021C4730DE78
:101B9900037F0022E5D9540FFF640E7003021C2F46
:101BA900EF640A701DEB4A7002807BC3EB94FFEA75
:101BB90094FF5005EB1B70011A9001ADE014F0027F
:101BC9001C4A9001ACE0C4540F24F7602724FC6040
:101BD90004240C706630DE037F0022EF6402700279
:101BE900FF22EFFD640E6005ED640A70028037EF95
:101BF900604F804330DE037F0022E9600DEF640B04
:101C090070047E01800F7E00800BEF640370047EF8
:101C19000180027E00EE60037F0022EFFD640E600A
:101C290005ED640A7003EF800EEFFD64037005EDA6
:101C3900640B600DEF600A4420FF227FFE2275D8F5
:101C4900FF7F0F7E001226C49001ADE004F0C3941B
:0C1C590003748094805003021B707F20F5
:011C6500225C
:101931001225EA9001A47401F0A37401F07498A334
:07194100F07B017A007980C0
:0B1948009001A1EBF0A3EAF0A3E9F08E
:101953001226C0A3E0FBA3E0FAA3E0F9EA494B6037
:1019630006E4F5F012163675D7087B107A27E4FDE6
:101973007FD0121B619001A7EFF06003E0FF227597
:10198300D6D075D4D075D701900047E0FE900046BD
:10199300E0FDEDFF9001A8EEF0A3EFF04E7003021F
:1019A3001B309001A1E0FBA3E0FAA3E0F9EA494B65
:1019B3007003021B30900040E020E703021A899075
:1019C30001A8E07002A3E07003021A831226C07B11
:1019D300107A27ADD47F90121B619001A7EFF0E03E
:1019E300FF600122AFD19001A8E0FCA3E0FDD39FEB
:1019F300EC94004006AFD17E008006CEECCECFED56
:101A0300CF9001AAEEF0A3EFF09001AAE0FEA3E0CD
:101A1300FFC39001A9E09FF09001A8E09EF0900120
:101A2300A4E0FBA3E0FAA3E0F9EA494B6006EE8FDA
:101A3300F01215FEE4FFFE9001AAE06E7003A3E02E
:101A43006F602C74002FF58274003EF583E0FD90E7
:101A530001A1E0FBA3E0FAA3E0F9ED1215D6900192
:101A6300A2E475F0011215E80FBF00010E80C8AFA4
:101A7300D1EF600C900148E01455D170030219C2F4
:101A8300E4F5D7021B309001A8E07002A3E07003D5
:101A9300021B301226C0900148E0FFFD9001A8E030
:101AA300FAA3E0FBC39DEA940040028003CFEBCF8F
:101AB3008FD7E4FFFEADD7ED6F7001EE602C900180
:101AC300A1E0FBA3E0FAA3E0F91215BDFD74402FDA
:101AD300F58274003EF583EDF09001A2E475F00108
:101AE3001215E80FBF00010E80CB7B107A27ADD60D
:101AF3007F10121B619001A7EFF0E0FF600122AF9E
:101B0300D7C39001A9E09FF09001A8E09400F09062
:101B130001A4E0FBA3E0FAA3E0F9EA494B70030256
:101B23001A89AFD7E48FF01215FE021A891226C064
:101B3300E5D760047F9080027F107B107A277DC0F9
:101B4300121B619001A7EFF06003E0FF22AFD7EF14
:0D1B53007002FF22AFD1EF7002FF227F175A
:011B60002262
:1025EA00E4FDED6408601B8F828E83E493FC7440E3
:1025FA002DF582E43400F583ECF00FBF00010E0DD7
:02260A0080E06E
:01260C0022AB
:10244C009001487408F07E0A7F991225EA9001A445
:10245C007401F0A37401F07497121940EF6001221B
:10246C00900087E0900148F0900A9FE493FFC3909E
:10247C000198E09F900197E0940050037F17227F12
:01248C00004F
:01248D00222C
:101FB8007E0A7FA11225EA9001A47401F0A374019E
:101FC800F0A37497121941EF600122900AA7E493D5
:101FD800FDC3900198E09D900197E0940050037F25
:101FE8001722900083E0FE900082E0FDEDFF900153
:101FF80097EEF0A3EFF07E0A7FA11225EA900197F1
:10200800E0FCA3E0FDEC900047F0CFEDCF90004658
:10201800EFF09001A47401F0A37401F0A374971277
:102028001941EF600122900AA7E493FF900197E01D
:10203800FCA3E0FDC39FEC9400400C900082E0FFFD
:0C204800ED9FEC940050037F17227F00F6
:012054002269
:0524CA00900197EFF006
:1024CF007E0A7FA91225EA900197E0900042F090D2
:1024DF0001A4E4F0A3F0A3F0FBFAF9121948EF609E
:1024EF000122900197E0FF1226E07F0A7E0012265C
:0324FF008E7F00CD
:0125020022B6
:0525C400900192E0FF10
:1025C900CBEFCB7E0A7FB11225EACFEBCF90004249
:1025D900EFF09001A4E4F0A3F0A3F0FBFAF90219DB
:0125E90048A9
:10260D00CBEFCB7E0A7FB91225EACFEBCF900044FA
:10261D00EFF09001A4E4F0A3F0A3F0FBFAF9021996
:01262D004864
:10262E00CBEFCB7E0A7FC11225EACFEBCF900042D3
:10263E00EFF09001A4E4F0A3F0A3F0FBFAF9021975
:01264E004843
:10264F00CBEFCB7E0A7FC91225EACFEBCF900044A8
:10265F00EFF09001A4E4F0A3F0A3F0FBFAF9021954
:01266F004822
:10217B00C87499C8CC7401CCCD7401CD7BFF7A0B9C
:10218B00796B7E007F08121597E4FFEF6408601BE4
:10219B0074992FF582E43401F583E0FE74402FF53A
:1021AB0082E43400F583EEF00F80E09001A474011B
:1021BB00F0A37401F0A374971219417E0A7FD91210
:1021CB0025EA9001A47401F0A37401F0A374971293
:1021DB001941EF600122900A9FE493FFC39001988D
:0F21EB00E09F900197E0940050037F17227F0040
:0121FA0022C2
:10248E007E0A7FD11225EA9001A47401F0A3740193
:10249E00F0A37497F07B017A007940121948EF602F
:1024AE000122900AD7E493FFC3900198E09F900118
:0B24BE0097E0940050037F17227F007E
:0124C90022F0
:0C2353007F017E0012268E9001C7E0FF83
:10235F0090004074A3F0A3E4F0A3F0A3F0A3EFF078
:10236F00A3E4F0A37404F0A3E4F07B019001A404B0
:10237F00F0A37401F0A37497F07A00794012194812
:10238F00EF600122C3900198E09404900197E094CC
:08239F000050037F17227F00AC
:0123A7002213
:072503009001C7E0FF7D0419
:10250A009000407423F0A37403F0CEEDCEA3EEF056
:10251A00A3E4F0A3EFF0A3E4F0A3F0A3F0F9900191
:10252A00A4C9F0A3F0A3E9F07B007A0079000219AC
:01253A004858
:05253B009001C7E0FF64
:102540009000407423F0A37401F0CEEDCEA3EEF022
:10255000A3E4F0A3EFF0A3E4F0A3F0A3F0F990015B
:10256000A4C9F0A3F0A3E9F07B007A007900021976
:012570004822
:0422ED007E007F8070
:1022F100E4F9FC8F828E83A3A3E0FBECC39B504ED9
:10230100EF2CF582E43EF583A3E064057025EF2C04
:10231100F582E43EF583A3A3A3E0540364037013A1
:10232100EF2CF582E43EF583A3A3E030E705540FDB
:10233100F9801BEF2CF582E43EF583E0FBCDEBCD7C
:10234100D39410748094805005ED2CFC80A5CFE9C6
:01235100CFBC
:012352002268
:0B1C6600900197EEF0A3EFF0A3EDF06B
:101C7100E4A3F0A37402F07E007F04EEC0E0EFC0A5
:101C8100E07D00900199E075F00CA42479F97401CC
:101C910035F0FA7B01D0E0FFD0E0FE121661E4FFDF
:101CA100900197E0FCA3E0FDF5828C83A3A3E0FE05
:101CB100EFC39E4003021D62ED2FF582E43CF583E4
:101CC100A3E064057079900197A3E02FF582E43CCD
:101CD100F583A3A3A3E0540364027063ED2FF5829F
:101CE100E43CF583A3A3E030E708540FFE90019A8A
:101CF1008017900197E0FCA3E02FF582E43CF58387
:101D0100A3A3E0540FFE90019BE0FD04F090019924
:101D1100E075F00CA42479F582E43401F583E582C1
:101D21002DF582E43583F583EEF090019AE06402AB
:101D3100700204F090019BE0640470037403F0905E
:101D41000197E0FCA3E02FF582E43CF583E09001EC
:101D51009CF0D39410748094805006E02FFF021CF5
:031D6100A17F005F
:011D6400225C
:1020E8007E0A7FE1121931EF600122900080E0C37F
:1020F80094027480948050037F4122E4900197F009
:10210800900197E0C39406748094805058E0FF9043
:102118000AF193FECBEECBEF75F008A4243BF582D1
:10212800E4340BAF82FE1225EACFEBCF74F82FF917
:10213800E4340AFA7BFFEBC0E0EAC0E0E9C0E090D3
:1021480001A47401F0A37401F0A37498F0D0E0F92D
:10215800D0E0FAD0E0FB121948EF60012290019715
:10216800E004F0809B7E0A7FE9121931EF600122BA
:022178007F00E6
:01217A002242
:0500030090018FEFF0F9
:10000800E4900195F0A3F07BFF7A07793290019A8A
:100018000200AE900196E0FFC3940A748094804079
:10002800030206F2EF75F064A4FFAEF012268EE02C
:1000380004F090018FE0FF121F0BE4900190F0A3F1
:10004800F0900190E0C3946474809480503B7F01E9
:100058007E0012268E90018FE0FF1221FBEF7021A7
:10006800900190F0A3E004F0900196E075F00AA4E6
:10007800FF900191E0D39FE5F06480F87480985078
:1000880008900190E004F080B8900190E060219021
:10009800018FE0FF1225717BFF7A07794C90018F61
:1000A800E0FF90019AE4F0A3EFF0120F5002001B5A
:1000B80090018FE0FFE4FD1220557BFF7A07797EDF
:1000C800120F5012244C900191EFF060030206C009
:1000D800900190F0900A9FE493FF900190E0FEC396
:1000E8009F50257BFF7A07798C74802EF582E43443
:1000F80000F583E0FF90019AE4F0A3EFF0120F50AF
:10010800900190E004F080CC7BFF7A077993120F7E
:1001180050900089E0FE900088E07C002400FFEC0D
:100128003EFE90018FE0FD75F00CA42475F582E485
:100138003401F583EEF0A3EFF090008BE0FE900021
:100148008AE07A002400FFEA3EFEED75F00CA42454
:1001580077F582E43401F583EEF0A3EFF0900084A4
:10016800E0900193F0900AABE493FF90018FE02FA9
:10017800FF1224CA900191EFF060030206C0900AB2
:10018800AB93FF90018FE0FE2FFFEE75F00CA424D7
:1001980072F582E43401F583EFF07BFF7A077995F5
:1001A800120F50121FB8900191EFF060030206C0C1
:1001B800900085E0900192F0E4900190F090008228
:1001C800E0FF900190E0FEC39F50257BFF7A0779FE
:1001D8008C74802EF582E43400F583E0FF90019A58
:1001E800E4F0A3EFF0120F50900190E004F080CDFE
:1001F8007BFF7A077993120F5090008EE09001945C
:10020800F0900193E07042A3E06408703C1225C4AA
:10021800900191EFF060030206C090018FE0FF7536
:10022800F00CA42471F582E43401F5837403F0EF33
:1002380075F00CA42474F582E43401F5837408F095
:100248007BFF7A0779A302036D900193E0600302B4
:10025800037CA3E06403600302037C90008FE0D377
:10026800940174809480400302037C1222ED900173
:1002780091EFF0540FFF90018FE075F00CA42479F2
:10028800F582E43401F583EFF0900090E09001945A
:10029800F01225C4900191EFF07BFF7A0779B390B3
:1002A800019AE4F0A3EFF0120F50900191E060037F
:1002B8000206C07BFF7A0779BD120F5012217B908E
:1002C8000191EFF07040900190F0900190E0FFC331
:1002D80094407480948050257BFF7A07798C7480D1
:1002E8002FF582E43400F583E0FF90019AE4F0A34F
:1002F800EFF0120F50900190E004F080CD7BFF7A70
:10030800077993120F5090018FE075F00CA42471B7
:10031800F582E43401F5837403F07F0A12260D9008
:100328000194E06401701C90018FE075F00CA42426
:1003380074F582E43401F5837423F07BFF7A07793E
:10034800CC8022900194E06402702090018FE075C7
:10035800F00CA42474F582E43401F5837433F07B43
:10036800FF7A0779E0120F500206B990019174FBE9
:10037800F00206C0900193E06409600302052F12A1
:1003880022ED900191EFF0540FFF90018FE075F08E
:100398000CA4247AF582E43401F583EFF07BFF7A2C
:1003A8000779F1120F5012248E900191EFF060033B
:1003B8000206C0900190F0900040E0FF900190E0AC
:1003C800FEC39F50257BFF7A07798C74402EF582F7
:1003D800E43400F583E0FF90019AE4F0A3EFF01213
:1003E8000F50900190E004F080CD7BFF7A0779935D
:1003F800120F50900042E0FF90018FE0FE75F00C64
:10040800A42479F582E43401F583EFF0EE75F00C5D
:10041800A42479F582E43401F583E0D3940474804C
:100428009480401490018FE075F00CA42479F58233
:10043800E43401F5837404F01225C4900191EFF0BF
:1004480060030206C090018FE0FF75F00CA42471D0
:10045800F582E43401F5837403F0EF75F00CA424FD
:1004680074F582E43401F5837409F0900190740105
:10047800F090018FE0FF75F00CA42479F582E43444
:1004880001F583E0FE900190E0D39E504DEF75F0AA
:1004980014A42444F582E43401F583C083C0829017
:1004A8000190E0FFD082D08375F005121655E4F074
:1004B8007D0812250A900191EFF060167BFF7A07FC
:1004C80079FF900190E0FF90019AE4F0A3EFF01219
:1004D8000F50900190E004F080979001907401F023
:1004E80090018FE075F00CA42479F582E43401F5CD
:1004F80083E0FE900190E0FFD39E502812235F9086
:100508000191EFF060167BFF7A087921900190E065
:10051800FF90019AE4F0A3EFF0120F50900190E0E1
:1005280004F080BC0206B97BFF7A08794B900193EE
:10053800E0FF90019AE4F0A3EFF0900194E0FF90BF
:10054800019CE4F0A3EFF0120F507E007F80900131
:100558008FE0FD121C66E4900190F0900190E0FF9E
:10056800640460367BFF7A08796590018FE075F046
:100578000CA42479F582E43401F583E5822FF58211
:10058800E43583F583E0FF90019AE4F0A3EFF012DD
:100598000F50900190E004F080C17BFF7A077993B7
:1005A800120F501225C4900191EFF060030206C0AB
:1005B8007BFF7A08796B90018FE0FF75F00CA4241B
:1005C80075F582E43401F583E0FDA3E090019ACD4E
:1005D800F0A3EDF0EF75F00CA42477F582E4340174
:1005E800F583E0FFA3E090019CCFF0A3EFF0120F9A
:1005F8005090018FE0FF75F00CA42475F582E43467
:1006080001F583E0FCA3E064D17003EC6418704A40
:10061800EF75F00CA42477F582E43401F583E0FE4D
:10062800A3E47003EE642D70317BFF7A08797E12A3
:100638000F5090018FE0FF75F00CA42471F582E44F
:100648003401F5837403F0EF75F00CA42474F5827B
:10065800E43401F58374F0F080571220E89001919A
:10066800EFF07054900195E0C39403748094805027
:100678000DE004F07FF47E0112268E02001B90012B
:1006880093E0FF60028005900194E0FF90018FE005
:10069800FE75F00CA42474F582E43401F583EFF0C0
:1006A800EE75F00CA42471F582E43401F58374032B
:1006B800F07F011226D21F227BFF7A0879889001E9
:1006C80091E0FF90019AE4F0A3EFF0120F5090012F
:1006D8008FE075F00CA42471F582E43401F583747D
:0F06E80002F07F011226D202001B900191E0FF69
:0106F70022E0
:1023A8007BFF7A0879A0120F50E4780EF6780EE6D3
:1023B800FFC394027480948050387BFF7A0879B008
:1023C80090019AE4F0A3EFF0120F50780EE6FF7533
:1023D800F00CA42471F582E43401F583E064017003
:1023E8000C120003780DEFF66003E6FF22780E0664
:0423F80080BB7F0027
:0123FC0022BE
:080B73009001BFEFF0A3EDF0CB
:100B7B007BFF7A0879C3FF90019AE4F0A3EFF012A0
:100B8B000F507BFF7A0879DE9001BFE0FF90019A4E
:100B9B00E4F0A3EFF0120F509001C0E0FD70037F63
:100BAB00FE229001BFE0FF1220557BFF7A0879E906
:100BBB00AFD290019AE4F0A3EFF0120F5012244C35
:100BCB009001C2EFF06003E0FF22900084E09001FF
:100BDB00C4F09001BFE004C454F0FFA3E02FFF90DA
:100BEB0001C3F01224CA9001C2EFF06003E0FF22B0
:100BFB009001C3E0FF9001BFE075F014A42445F50C
:100C0B0082E43401F583C083C0829001C0E0D082BE
:100C1B00D08375F005121655EFF07BFF7A077995A7
:100C2B00120F50121FB89001C2EFF06003E0FF22C9
:100C3B00900085E09001C3F0E49001C1F090008238
:100C4B00E0FF9001C1E0FEC39F50257BFF7A07793F
:100C5B008C74802EF582E43400F583E0FF90019ACA
:100C6B00E4F0A3EFF0120F509001C1E004F080CD3F
:100C7B007BFF7A077993120F5090008EE09001C59D
:100C8B00F09001C4E07061A3E06408705B9001C355
:100C9B00E0FF1225C99001C2EFF06003020E9E9097
:100CAB0001BFE0FF75F014A42444F582E43401F590
:100CBB0083C083C0829001C0E0FED082D08375F0E8
:100CCB00051216557403F0EF75F014A42447F58242
:100CDB00E43401F58375F005EE1216557408F07BBC
:100CEB00FF7A0779A3020DE09001C4E06003020DC7
:100CFB00E8A3E064036003020DE890008FE0D39457
:100D0B0001748094804003020DE81222ED9001C221
:100D1B00EFF09001BFE075F014A42448F582E434A1
:100D2B0001F583C083C0829001C0E0D082D083756F
:100D3B00F005121655EFF0900090E09001C5F09081
:100D4B0001C3E0FF1225C99001C2EFF06003020E50
:100D5B009E9001BFE0FF75F014A42444F582E434A7
:100D6B0001F583C083C0829001C0E0FED082D083A6
:100D7B0075F0051216557403F09001C5E06401700F
:100D8B0020EF75F014A42447F582E43401F5837544
:100D9B00F005EE1216557423F07BFF7A0779CC80A1
:100DAB00349001C5E0640270329001BFE075F0141D
:100DBB00A42447F582E43401F583C083C0829001FB
:100DCB00C0E0D082D08375F0051216557433F07BDA
:100DDB00FF7A0779E0120F50020E97804B9001C4F7
:100DEB00E06409704B9001BFE075F014A42447F543
:100DFB0082E43401F583C083C0829001C0E0D082CD
:100E0B00D08375F0051216557409F07BFF7A0979BA
:100E1B0006120F509001C1E0FF7D01122540900199
:100E2B00C2EFF06003E0FF229001C274FBF080631D
:100E3B009001C3E0FF1225C99001C2EFF0705490EE
:100E4B0001BFE0FF75F014A42444F582E43401F5EE
:100E5B0083C083C0829001C0E0FED082D08375F046
:100E6B00051216557403F09001C4E0FD6002800575
:100E7B009001C5E0FDEF75F014A42447F582E4342E
:100E8B0001F58375F005EE121655EDF07F01122674
:100E9B00D21F227BFF7A09792E9001C2E0FF9001CD
:100EAB009AE4F0A3EFF0120F509001BFE075F0142D
:100EBB00A42444F582E43401F583C083C0829001FD
:100ECB00C0E0D082D08375F0051216557402F07F06
:090EDB00011226D29001C2E0FFD1
:010EE40022EB
:05124A009001C6EFF069
:10124F007BFF7A097947120F509001C77401F09014
:10125F0001C6E0FF75F00CA42479F582E43401F5A2
:10126F0083E0FE9001C7E0D39E40030214C4E4FD67
:10127F0012205512235A9001C8EFF06003E0FF22AD
:10128F00900040E030E007900042E020E00B90003B
:10129F0042E0641060030214059001C6E0FE75F091
:1012AF0014A42444F582E43401F583C083C08290F2
:1012BF0001C7E0FFD082D08375F005121655740177
:1012CF00F0EE75F014A42445F582E43401F583752E
:1012DF00F005EF121655E4F012235F9001C8EFF0FE
:1012EF006003E0FF22900041E030E1047F008002C4
:1012FF007F019001C6E0FE75F014A42446F582E448
:10130F003401F583C083C0829001C7E0FDD082D045
:10131F008375F005121655EFF0EE75F014A4244600
:10132F00F582E43401F58375F005ED121655E07B77
:10133F00FF60077A097954ED80087A09797990016D
:10134F00C7E0FF90019AE4F0A3EFF0120F507FC8AF
:10135F007E0012268E1225039001C8EFF06003E085
:10136F00FF227BFF7A09799D120F501223539001B0
:10137F00C8EFF06003E0FF22900040E020E4EC7F34
:10138F00647E0012268E7D1412253B9001C8EFF06B
:10139F007D1012253B9001C8EFF06003E0FF221291
:1013AF00235A9001C8EFF06003E0FF22900040E065
:1013BF00540170259001C6E075F014A42444F58201
:1013CF00E43401F583C083C0829001C7E0D082D09E
:1013DF008375F005121655E4F09001C6E0FFA3E007
:1013EF00FD120B739001C8EFF06003E0FF227F0145
:1013FF001226D20214BB900042E030E1369001C7B2
:10140F00E0FF7D111225407BFF7A0979BA120F5048
:10141F001225039001C8EFF06003E0FF221223535F
:10142F009001C8EFF06003E0FF22900040E020E45D
:10143F00EC8079900040E0540170719001C6E07526
:10144F00F014A42444F582E43401F583C083C082F0
:10145F009001C7E0FFD082D08375F005121655E0DA
:10146F00C394017480948040117BFF7A0979D090E6
:10147F00019AE4F0A3EFF0120F509001C6E075F05F
:10148F0014A42444F582E43401F583C083C0829010
:10149F0001C7E0FFD082D08375F005121655E4F036
:1014AF00900042E030E0057D101225409001C7E02A
:0714BF0004F002125E7F0041
:0114C6002203
:102278007BFF7A0979EC120F50E49001C9F09001C4
:10228800C9E0FF6402605BEF75F00CA42471F5826D
:10229800E43401F583E0C3940374809480403B9058
:1022A80001C9E075F00CA42474F582E43401F583C7
:1022B800E064097025FD1220559001C9E0FF121253
:1022C8004AEF60117BFF7A0979FC90019AE4F0A348
:1022D800EFF0120F507F011226D29001C9E004F0EE
:0422E800809C7F0057
:0122EC0022CF
:051D650090018FEFF07A
:101D6A00E4A3F0900190E0FF64027003021E59EFB1
:101D7A0075F00CA42474F582E43401F583E0FD9037
:101D8A00018FE0FFED6F701FA3E0FF75F00CA42434
:101D9A0071F582E43401F583E0C39403748094807E
:101DAA004005EF7F00FE22ED64096003021E509099
:101DBA000190E075F00CA42471F582E43401F583F6
:101DCA00E0C3940374809480407C9001917401F084
:101DDA00900190E0FF75F00CA42479F582E43401B7
:101DEA00F583E0FE900191E0FDD39E5059EF75F026
:101DFA0014A42447F582E43401F58375F005ED1245
:101E0A001655E0FF90018FE0FEEF6E7031A3E0FF00
:101E1A0075F014A42444F582E43401F583C083C028
:101E2A0082900191E0D082D08375F005121655E0B8
:101E3A00C39403748094804005EFFEEDFF22900165
:101E4A0091E004F0808A900190E004F0021D6D7E1A
:031E5A00FF7FFF08
:011E5D002262
:10267000C29FD29EC29DD29C438780E589540F445D
:0E26800020F58943C9A0758DF3D28ED2992220
:1023FD00C2EA75E280E4F5E39024477448F0CE74A8
:10240D0000CECF7400CF90244CEEF0A3EFF0CE743D
:10241D0000CECF7440CF90244EEEF0A3EFF0E4F554
:10242D00D4F5D675E28975D24075D8FFFEEE6402FB
:0E243D006009CFEECF1225710E80F275E1031B
:01244B00226E
:10170000E490018EF01226707BFF7A0A7917AFA160
:1017100090019AE4F0A3EFF0120F501223FDC209DA
:101720007BFF7A0A792B120F50E490018BF030D8AE
:1017300010C2D8121E5E90018BEFF064157002D2B9
:101740000930092D90018BE064157025C2097FC80E
:10175000FE12268E1223A890018BEFF060137BFF00
:101760007A0A793BE0FF90019AE4F0A3EFF0120FC0
:10177000507FF0121D65CDEFCDCCEECCEDF47002B4
:10178000ECF460A5ECFF900189F0CEEDCE90018CD9
:10179000EEF012205590018CE0FF9001896019E075
:1017A00075F014A42448F582E43401F58375F0053E
:1017B000EF121655E0FF8010E075F00CA42479F5C7
:1017C00082E43401F583E0FF90018DEFF0540F7057
:1017D00003021920E0FE547F4490FFEE30E7047DC1
:1017E000C080027D00E4FBFA121B6190018BEFF0D8
:1017F000600302190790018DE06480F090018CE095
:10180000FF601FA3E0FE900189E075F014A4244856
:10181000F582E43401F58375F005EF121655EEF00C
:10182000801890018DE0FF900189E075F00CA424F0
:1018300079F582E43401F583EFF090018CE5D1F085
:10184000E0604A7BFF7A0A7956120F50E490018AD1
:10185000F090018CE0FF90018AE0FEC39F50257B51
:10186000FF7A07798C74002EF582E43400F583E06A
:10187000FF90019AE4F0A3EFF0120F5090018AE07C
:1018800004F080CD7BFF7A077993120F5090018C82
:10189000E0FF7E00C87440C8CC7400CCCD7401CD8C
:1018A0007B017A007900121597900189E075F00CA0
:1018B000A4247BF582E43401F583E090018DF0FEF1
:1018C00090018CE0F5D7EE547F4410FFEE30E70432
:1018D0007DC080027D0074FFFBFA121B6190018BBA
:1018E000EFF0704590018DE06480FFF0900189E099
:1018F00075F00CA4247BF582E43401F583EFF07BD2
:10190000FF7A0A7962801F90018BE0FF642A6019D8
:101910007BFF7A0A796D90019AE4F0A3EFF08006DC
:101920007BFF7A0A7982120F507F011226D20217AA
:01193000298D
:030000000226ECE9
:0C26EC00787FE4F6D8FD7581210217000C
:1014C700E709F608DFFA8046E709F208DFFA803E07
:1014D70088828C83E709F0A3DFFA8032E309F608F4
:1014E700DFFA8078E309F208DFFA807088828C835C
:1014F700E309F0A3DFFA806489828A83E0A3F60810
:10150700DFFA805889828A83E0A3F208DFFA804CE9
:1015170080D280FA80C680D4806980F280338010C0
:1015270080A680EA809A80A880DA80E280CA803329
:1015370089828A83ECFAE493A3C8C582C8CCC583A1
:10154700CCF0A3C8C582C8CCC583CCDFE9DEE78071
:101557000D89828A83E493A3F608DFF9ECFAA9F0F0
:10156700EDFB2289828A83ECFAE0A3C8C582C8CC46
:10157700C583CCF0A3C8C582C8CCC583CCDFEADE5F
:10158700E880DB89828A83E493A3F208DFF980CCC1
:1015970088F0EF60010E4E60C388F0ED2402B404BA
:1015A7000050B9F582EB2402B4040050AF23234561
:0615B7008223901517735A
:1015BD00BB010689828A83E0225002E722BBFE022C
:0915CD00E32289828A83E493225F
:1015D600BB010689828A83F0225002F722BBFE01F4
:0215E600F322EE
:1015E800C5F0F8A3E028F0C5F0F8E582158270028E
:0615F8001583E038F0222B
:1015FE00BB010789828A830215E8500B09C5F027C3
:10160E00F7C5F01937F722BBFE0D09F8E325F0F305
:10161E00C5F019E338F322F889828A837401932581
:08162E00F0C5F0F8E493382246
:10163600BB010A89828A83F0E5F0A3F0225006F7FF
:0F16460009A7F01922BBFE06F3E5F009F31922FC
:0C165500A42582F582E5F03583F58322A0
:100EE500E508249AF582E43401F583E005082290AB
:100EF500019730070390019AE475F0011216BA02C2
:100F050015BD2000E97F2ED2008018EF540F2490E4
:100F1500D43440D4FF30040BEF24BFB41A0050037F
:100F25002461FFE50960021509050CE50C70020551
:100F35000B30070E900197E475F0011216BAEF0217
:100F450015D602259D7403D2078003E4C207F50870
:100F55009001971216D1E4F509F50BF50CE509603A
:100F6500077F20120F2880F5750AFFC201C200C253
:100F750002C203C205C206C208120EF4FF700D308C
:100F850007057F00120F39AF0CAE0B22B4255FC2E7
:100F9500D5C204120EF4FF24D0B40A00501A75F01D
:100FA5000A780930D50508B6FF0106C6A426F6203D
:100FB500D5047002D20380D924CFB41A00EF5004AF
:100FC500C2E5D20402113AD20180C6D20080C0D255
:100FD5000280BCD2D580BAD20580B47F20120F28FA
:100FE5002002077401B5090040F1120EE5FF120F4A
:100FF50028020F62D208D2068095120EE5FB120E6A
:10100500E5FA120EE5F94A4B7006790B7A127BFF69
:1010150020022EE509602A7E008E82758300121655
:101025008D60060EEE650A70F0C2D5EBC0E0EAC031
:10103500E0E9C0E0EE121181D0E0F9D0E0FAD0E0AD
:10104500FB1215BDFF60AAEBC0E0EAC0E0E9C0E015
:10105500120F28D0E02401F9D0E03400FAD0E0FBEB
:10106500E50A0460DCD50AD980877BFF7A11797D92
:10107500D202809C791080027908C206C2088008D5
:10108500D2D5790A8004790AC2D5E50A047002F539
:101095000AE4FAFDFEFF120EE5FC7B08200113129F
:1010A5000EE5FD7B1030000A120EE5FE120EE5FF7F
:1010B5007B20EC3382D592D55013C3E43000069FD4
:1010C500FFE49EFEE42001039DFDE49CFCE4CBF8D7
:1010D500C201EC700CCFCECDCCE824F8F870F380CB
:1010E50017C3EF33FFEE33FEED33FDEC33FCEB338B
:1010F500FB994002FB0FD8E9EB300105F8D0E0C4BD
:1011050048B201C0E00AEC4D4E4F78207B0070C21A
:10111500EAB50A0040BCC0E0121183D0F0D0E0204F
:101125000104C4C0E0C4B201C0F0120F11D0F0D563
:10113500F0EB020F621216DA0FFF531079580FD039
:101145004C0FCC42107D4F1085441085490FE54367
:08115500108B55106F46106F5E
:10115D0045106F47122B500FD42D0FD82E0FFB2B90
:10116D000FDC230FF92012142A0F944800000FF3FF
:10117D003F3F3F00790AA2D5200314300509B9106D
:10118D00020404B9080104A2D5200602500104206E
:10119D0002689202B509005034C0E07F2030031977
:1011AD007F30A20272067205500F1211DAC202C20E
:1011BD0006C205C2087F30800F300503E9C0E0127A
:1011CD000F28300503D0E0F9D0E0B509CC30051774
:1011DD007F30B9100C120F287F583004077F7880AC
:1011ED0003B90803120F283002057F2D020F287F47
:1011FD00202008F87F2B2006F322920280CF286E44
:10120D00756C6C2900D201120EE53001F8C201781F
:10121D000930D50108F6020F942D50434958120E8E
:10122D00E52403B405004001E490122693120F1932
:0D123D00743A120F19D203750904021079DA
:10166100EF4E6012EF60010EEDBB010B89828A83A0
:10167100F0A3DFFCDEFA2289F05007F709DFFCA9AD
:0C168100F022BBFEFCF309DFFCA9F02204
:10168D00BB010CE58229F582E5833AF583E0225012
:10169D0006E92582F8E622BBFE06E92582F8E2225C
:0D16AD00E58229F582E5833AF583E4932276
:1016BA00F8E0FBA3A3E0F925F0F0E58215827002B9
:0716CA001583E0FA38F0225D
:0916D100EBF0A3EAF0A3E9F0221A
:1016DA00D083D082F8E4937012740193700DA3A39F
:1016EA0093F8740193F5828883E4737402936860B3
:0616FA00EFA3A3A380DFB3
:10259D00EFB40A07740D1225A8740A309811A89982
:1025AD00B8130CC2983098FDA899C298B811F6309E
:0725BD0099FDC299F5992276
:00000001FF
