:040000006F005043FA
:10000400372700407C23858B81CF85477CA32383BE
:10001400F18483C7118389C7971000E0E780401AF1
:1000240073002030B7170040FA2B411133470708FB
:100034001377F7EF33470708FAAB130780087337D2
:100044000780137787083AC60F100000130770055E
:100054002380E704130780FA2380E7040F100000CD
:100064001307000C6313E5049A271367070C9AA778
:10007400B717004003C7E7021367C7002387E702E7
:1000840003C7E7041377C70F136717002387E70431
:10009400FA2B13670710FAAB23800704B247F3A7C0
:1000A40007800F10000041018280B8279375052056
:1000B400B9C9118B1DEB03C7E704B4271377F70FF6
:1000C40093E64600B4A796279227B3C6060813669C
:1000D400060C92A7A5470100FD1793F7F70FE5FF5C
:1000E400B717004096A72387E704371700403C273B
:1000F40093E707013CA79377F50191EBB7270040FD
:100104001307500421A813672700B8A7F9BF9377F2
:100114008501EDF7B7270040130790042382E78099
:1001240093070028631CF502B7170040130720202B
:100134009AA701000100010001003717004093163F
:10014400B0281E27F58FF5DF930700281EA7371761
:1001540000403C2793F7D70F3CA719BF930700082B
:10016400631AF502B717004009479AA70100010076
:1001740001000100371700409316B0281E27F58FA1
:10018400F5DF930700081EA7371700403C2793F7B5
:10019400B70FD9B7B7170040334505088AA7EDD57F
:1001A4007DB7D1473305F50201007D1575FD8280C9
:1001B400411122C426C206C6AA84014463179400CE
:1001C400B24022449244410182801305803E0504DA
:1001D400C93F33440408DDB737170040344FB7072D
:1001E4007FFFFD17FD8E938701ABD4C7345394CBA7
:1001F4007453D4CB345794CF7457D4CF345B94D343
:10020400745BD4D3745F94C7744B94C3385FD8C3FE
:100214008280138781AD5C57163737068100B3F7A8
:10022400F640B71600401EB7BC4EF18F03A6818678
:10023400D18FBCCEBC5E93F7F7F7BCDEA3030700F7
:100244008280B7170040B44FB84F37067FFF7D1642
:10025400718F23A4E18637078100F98E138701ABE0
:100264005047D18EB4CF144BB4D3544BF4D3144F62
:10027400B4D7544FF4D71453B4DB5453F4DB1447BA
:10028400F4DF1443F4CB5843B8DFB85F13670708AF
:10029400B8DF8547A38FF1AC828003C7D1AD854613
:1002A400938781AD630ED70409486305070F631B69
:1002B4000718231006001308C002B4376366D7007A
:1002C4008A373335A0008280B3060703AA96AE2E80
:1002D40083A8C60163FFB8001622850616A29637C6
:1002E400B396E628B3C6060896B705071377F70F43
:1002F400E9B79452E3FBD5FE9637B396E648EDB7DB
:1003040016226394E6008EB765BF2310060081466B
:100314009308C002B837E3F5E6FA338716032A9741
:100324000358A7014C4F63FF05051A22B315D028C3
:1003340005071AA29A3709E7B3C505088EB73DA881
:100344009A37630DB702014711A803DE87023313FE
:10035400E02863096E0005071377F70F03C3B7009E
:10036400E36567FE03C3B700637A67001303C00243
:10037400330767022A973A2FE36007FD850693F651
:10038400F60F49BF1853E37BE8FE9A373317D74873
:100394009AB7EDB71A22E308D7F6138301860357F9
:1003A400030023100600014E9305F00F8146814E91
:1003B400130FC00203C8B70063EA060363040E0008
:1003C4002310E3008356030013864181B5CA182223
:1003D4001305F00F6306A700B3D6E640858AB9EA91
:1003E4000CA2B315B028B3C5050831BF3388E603A2
:1003F4002A988358A801832FC80163F41F03035864
:10040400060005082310060163F91E01B685C68E91
:100414003317D72833470708054E850693F6F60F9A
:1004240051BF03280802E3FA08FF3317D7483347BC
:100434000708DDB73317E028334707089AB749B5EB
:100444007D5718A2239001B0A5BD03C791AD938732
:1004540081AD11E3C9E9EC23F0239306C002B3850F
:10046400D50203A7C1863306D602BA958E2D3A96D5
:10047400722A63FDC504902739C28827EC23F02330
:10048400B385D5023306D602BA95EE293A96122ED2
:100494003386C540635BC5009027FC23B387D7022E
:1004A400BA97FA2B118FFAAB8280F023FC23B3871F
:1004B400D702B306D602BA9736971A2FEDB7FC23A4
:1004C400B387D702BA97FA2B7D17F1BFF23309EE3F
:1004D400F023B306D6023697762B850676AB98378B
:1004E4001377F70FFAB38280FA337D17334707087F
:1004F400D5BF9307F03F2A8863E8B70C054571C759
:10050400B7170040E85FF1784A0833751501E8DF52
:10051400E85F13582801C2053368A80023AE070713
:10052400A85F370801FC011833750501A8DFA85F2F
:100534007D8AC98DACDFAC5F4D8EB0DF03C6A705E5
:10054400B715004013661600238DC704B05F136609
:100554000610B0DFC167FD1703C6A505137616089C
:1005640031EE41680565B71700407D187D1583C5D8
:10057400A70593E51500238DB704AC5F93E505103B
:10058400ACDFC28583C8A70593F818086386080002
:10059400FD15B3C50508FDF583D5C705B328D620D9
:1005A4000506E98D2390B800B3450608E3E1E5FCB0
:1005B400F85FF1760145758FF8DF8280FD17B3C7C8
:1005C4000708D9FB014671BF094582805D71CAC025
:1005D400239001B02169A2C4A6C24EDE52DC56DAD1
:1005E40086C62312010023130100238F01AC814925
:1005F400138481AD138AC1869304C002938AF18562
:100604007D1978203C34636DF702A38F01848347FE
:10061400240338831389F18563F9E7185C34416551
:100624007D1585078D8B5CB485472300F900B640A2
:10063400264496440649F259625AD25A616182802C
:100644006C205434782050340348640028348327C1
:100654000A0093F5F50F93F6F60F1377F70F137659
:10066400F60F6372A8020328C40268203315A02879
:100674003375050149ED6820330595023E95031550
:100684004501635605080348640028346377A808C5
:100694006820330595023E954A29337525013315A3
:1006A400A0283345050833079702B38595023E9782
:1006B4003326E6205226294729827D8AAE97B3A69F
:1006C400F620CE26340093F5F53F25357C2083268D
:1006D4000A005000B3879702A9452800BE96E10698
:1006E4009D2103C70A00348383270A001DCF742089
:1006F4007820B386960233079702BE96962E3E97CD
:1007040076AB782033079702BA97239D07007C20A5
:10071400850793F7F70F7CA0EDB5682033059502A4
:100724003E954A2933752501BDBF782030823307B1
:1007340097023E97584F0583637AC7007820339712
:10074400E928B349070813871600788374207820B2
:100754000146B386960233079702BE96F62A3E9761
:100764001A2F63FDE60074207820B38696023307BF
:100774009702BE96922E3E977A2B198E74202830BB
:100784007820B386960233079702BE96AE2EB3D571
:10079400A5403E97362F8D8E36AF782033079702CB
:1007A400BA97BA2F3297BAAF9DB713066100CE85B8
:1007B40003A5C186DD34834724033883AA8463FBFD
:1007C400E7005C34014585078D8B5CB485472300C5
:1007D400F900B1BD5C4891CF5C4885075CC85848B6
:1007E4001C486379F702238F01AC0A3433450508AA
:1007F4003DBD1C48F5D3238F01AC78203C34E37D08
:10080400F7FC4834A68591317C20850793F7F70FD0
:100814007CA0E5B723A601AEF9B75D71239001B0C2
:100824002392018623910186A2C4A6C2CAC04EDEC9
:1008340052DC56DA86C6138481AD83C731AEA16912
:10084400231301007CA01389C1869304C002FD19FF
:10085400938AE185138A418674201C2003270900AA
:1008640063E6F6063C341306C00293F7F70F7CA048
:1008740081476C20142063ECD5143C341386218604
:10088400814593F7F70F7CA01E22014768201420AE
:100894006365D51891C11EA2238F01848347240365
:1008A40083D641861387E18563FBD7185C348507BB
:1008B4008D8B5CB485471CA30145B6402644964401
:1008C4000649F259625AD25A616182807C207420AE
:1008D4004C347020B3869602483433069602BA9696
:1008E400B3A6D520CE26340093F5F53FB3879702FF
:1008F4003A963326C520522629827D8ABA97CA2B76
:10090400294733753501F5367C2083260900130603
:100914006100B3879702A9452800BE96E106252405
:1009240003C70A00832709001DC774207820B386F3
:10093400960233079702BE96962E3E9776AB7820A2
:1009440033079702BA97239D07007C20850793F706
:10095400F70F7CA011B778203483330797023E97B2
:10096400584F6377D70003570A0005072310EA009E
:10097400742078200146B386960233079702BE9608
:10098400F62A3E971A2F63FDE60074207820B3867A
:10099400960233079702BE96922E3E977A2B198EB3
:1009A400742028307820B386960233079702BE96C7
:1009B400AE2EB3D5A5403E97362F8D8E36AF782018
:1009C40033079702BA97BA2F3297BAAFBDBF7420D4
:1009D400B386C602BA96AE2E7420B386C602BA9601
:1009E400D44E63F1B6021634B396F628B3C606089D
:1009F40016B47420850793F7F70F850693F6F60F60
:100A040074A085BD7420B386C602BA969452E3F2EC
:100A1400D5FE1634B396F648E1BF1634B3D6E64095
:100A2400858A89C685078545B3C7070874200507E5
:100A34001377F70F850693F6F60F74A081BD8347ED
:100A44002403162263FBD7005C3485078D8B5CB4CA
:100A540085471CA3239001B085B50A3433450508A6
:100A6400A9BD5D71A2C452DC03C481AD86C6A6C211
:100A7400CAC04EDE56DA5AD883C7B1B0094A8DCF00
:100A84007D149307C002334404083304F402A16ABA
:100A9400938481AD0149014A138BC186FD1AA28951
:100AA40003C7340383270B006363E902A2978146DB
:100AB40003C7340363E8E606B64026449644064971
:100AC400F259D25A425B5285625A61618280D834AB
:100AD400D434CE973327F720B3A6F620D2264E2758
:100AE400CA2B2982054734007D8A93F5F53F337577
:100AF4005501013403270B003C844E97762B1EAF1F
:100B040063E9F600BC300509938949FD33490908B6
:100B140041BFB030584F958F3357C700E375F7FE88
:100B2400054AD5B7FA2B922F637DC70005078506C2
:100B340033470708938747FD2391E704B3C60608A4
:100B440085BF7D17EDB7797122D426D24AD04ECE17
:100B540052CC56CA5EC606D65AC82E89328AB68B7D
:100B64000147814A81440144814963162705054BA5
:100B740063830B0293978900935584014A868146C7
:100B840013158400DD8D972000E0E78040F6218175
:100B94002390AB00014B63160A04136B2B00B25075
:100BA400225492540259F249624AD24AB24B5A85AB
:100BB400424B45618280B327A7209E230507B306D5
:100BC400F400B387F70233B686003684B29993D61D
:100BD400F741D69733B65701A696BE8AB304D6001A
:100BE40069B7B3055903814633058402B3842403EA
:100BF4003385A540B3B5A500B33A5903B389890237
:100C0400D6943334840233062903B3A98920B384E8
:100C14003441B385B440972000E0E78040ED97204D
:100C240000E0E780C0CA05052310AA008DBF0000BC
:100C34009711002093814189177100201301413CD1
:100C44001305400097F5FF1F9385853B1706002089
:100C5400130606FE63FAC5008322050023A055008F
:100C640011059105E3EAC5FE17450000130545B9D2
:100C7400970500209385C5FB1386018363FAC5009D
:100C84008322050023A0550011059105E3EAC5FE62
:100C9400138501839385C1B06377B50023200500D4
:100CA4001105E36DB5FE93025002739002BC8D42B0
:100CB400739042808542739012BC930280087390B3
:100CC4000230970200009382A23393E232007390C1
:100CD4005230971200009382A282739012347300F0
:100CE40020300000000000000000000000000000B0
:100CF40000000000000000000000000000000000F0
:100D040000000000000000000000000000000000DF
:100D140000000000000000000000000000000000CF
:100D240000000000000000000000000000000000BF
:10100400000000009C10000078240000A9BDF9F342
:101014009C10000000000000000000009C10000074
:101024009C10000000000000000000009C10000064
:10103400000000009C1000000000000000000020E0
:101044009C1000009C1000009C1000009C100000EC
:101054009C1000009C100000000000009C10000088
:101064009C1000009C1000009C1000009C100000CC
:101074009C1000009C1000009C1000009C100000BC
:101084009C1000009C1000009C1000009C100000AC
:101094009C1000009C10000001A02A8309CA8383CD
:1010A4000500230073007D16050385056DFA828013
:1010B4002A8311C62300B3007D16050365FE8280D2
:1010C400B71700401387870D9316B02814C3896699
:1010D40014C3A16614C31387870B9306000414C3B7
:1010E4001387C70A9306000814C39306001014C399
:1010F4009387C70C116798C3056798C3130700400B
:1011040098C38280411106C6653FB2408547A388D3
:10111400F18241018280411106C693878188138739
:10112400818D23900700238107009107E39BE7FE4D
:1011340041658D45130505C0EF1000268D45130547
:10114400001CEF10401DB24041016DBF93878188A0
:10115400B335B0003345F5202CA182809387818874
:101164003345F5202821828089476305F50263EB26
:10117400A70009EDB71700401317B02885C123ACA9
:10118400E70C82808D47630EF5008280B71700401C
:101194000967EDB7B71700402167CDB723A6E70C61
:1011A4008280B71700401307000481C523ACE70A07
:1011B400828023A6E70A8280138701831C2395EB90
:1011C400B71700409386870B1306000890C21306D6
:1011D400001090C29387870D916694C3856694C36B
:1011E4009306004094C39707002083C7E7AD1CA370
:1011F4008280011122CC1384F7FF4AC813192400FA
:1012040026CA4EC652C406CE1379F90F939427000A
:101214008149138A818813F5F90FB307250193F7E0
:10122400F70F63C497021374F40F914763EF8702B7
:1012340097370000938707FE3344F42018403E9705
:1012440097070020938747A80287B3C74721AC2399
:101254008509193FC9B737170040930600082326AC
:10126400D70A23880182094798A3F2406244D244F2
:101274004249B249224A05618280371700409306E9
:1012840000102326D70A238801820D47F1BF3717A0
:10129400004091662326D70C238801821147E9B7C1
:1012A4003717004085662326D70C2388018215470B
:1012B40065BF37170040930600402326D70C2388C8
:1012C4000182054755B7411106C6B13517050020FF
:1012D40013050596EF00B03703D5218585471345DF
:1012E400F5FF238AF184EF10005351651305058837
:1012F400EF10E023372700403C2317350000130587
:10130400A5F293E717003CA3B240B7E700E04167BA
:1013140023A0E71041016F10905A4111C16706C61E
:1013240022C426C24AC0FD176305F504D14713043D
:10133400C5FE63E6A700130445063344040833449A
:10134400F40285441D4905041374F40F63109402D8
:1013540085452285850493F4F40FCD3BE39824FF5F
:10136400B24022449244024941018280814526854B
:10137400D5B705449D442285050481451374F40FB3
:10138400F133E31A94FEE9BF4111C16706C622C4D2
:1013940026C24AC0FD176305F504A947130465FF77
:1013A40063E6A7001304E506334404083344F40257
:1013B400A144514921041374F40F63109402854528
:1013C4002285850493F4F40F5133E39824FFB2404B
:1013D4002244924402494101828081452685D5B741
:1013E4002144D1442285050481451374F40FB93B8B
:1013F400E31A94FEE9BF411106C622C483C761847F
:101404008DC32383018413844183F92B1E20130786
:10141400401FB3F7E70299E3EF0050411E20850710
:101424001EA0612B7D151375F50F95471384218339
:1014340063E5A70217370000130787E03345E5206B
:101444001C41BA9782871C20014593E717001CA012
:101454003133933515000145D5391C20A98B91EF03
:10146400EF00F0631420C167FD1713F7B60F630490
:10147400F50013E7460018A0013F1C20998BA1EB4F
:10148400EF0090611420C167FD1713F7760F630412
:10149400F50013E7860018A02244B2404101B5BD0F
:1014A4001C2013F7C70055FB93E727001D451CA01C
:1014B4007531933515001D4545B71C208145F99BB1
:1014C4001CA051BF1C208145F59B1CA0EDB7B24068
:1014D400224441018280B71700409387870C9843C8
:1014E400411106C61367070898C38D451305000804
:1014F400EF00906AB24041016F10400701111D4591
:1015040006CEEF00305C1305602497F0FF1FE780E0
:1015140060B1D13717350000130505D4EF10303A08
:1015240093078008F3B7078093F787083EC60F1028
:101534000000B7170040130770052380E704130762
:1015440080FA2380E7040F100000FA2BFD76FD16C5
:10155400758FFAAB23800704B247F3A707800F10F7
:1015640000009533493DFDBF1387C190834717049D
:10157400B306F700850788A293F7F70F9306F003E5
:1015840063F3F6008147A300F70482800571130614
:10159400000481458810232C811C232A911C2328B4
:1015A400211D2326311D232E111C2324411D2322FA
:1015B400511D2320611D232E711B232C811B232AE3
:1015C400911B2328A11B2326B11B2314010202D83B
:1015D40002DA02DC02DE0144E13C1739000013099F
:1015E400E9EBA949A144B3053403294608080504D5
:1015F400CA9565340808EF10A00DE31694FE8566BD
:10160400938636B31316B02883D5018517350000A9
:10161400130585C584008008EF10D008A289268AA6
:101624000149A14A4A8505094E86D2851379F90FE5
:10163400EF104021090A8909E31659FF13890401AF
:1016440097390000938949C58E204E858904EF108F
:101654007005E39B24FF2945EF10700893040401EF
:1016640017390000130949C30E204A850904EF10F5
:101674007003E31B94FE2945EF10700697F0FF1FDB
:10168400E78020BCC16717F9FF1F13092964FD1700
:10169400CA8B8144054C3EC6856C93F7F40F173A08
:1016A4000000130AAADF3EC29309010397F7FF1F44
:1016B4009387C761528B0144B3AAF42003562B00CD
:1016C4009377F40F3EC03316C028B34706083EC4D0
:1016D400B247A28517350000130585BC7D8E2315FE
:1016E400810323140102014DEF10C07B938D3CB3A1
:1016F40003D60B008355A10222451547141197F018
:10170400FF1FE78000DF341001468D45481197F034
:10171400FF1FE78040430356A102835681026314EE
:10172400860563F7DD022286B685173500001305AA
:10173400E5B8EF102077A28517350000130545CDD5
:10174400EF1040768DAA2D462315C102014D4DB7E9
:101754001317B0286373D706638AB60363150D0A9B
:101764002315810315A01317B028637CD70485675C
:10177400938727B363ECD70063170D08A947E3F1F8
:10178400C7FE59162315C102054D9DB77D16A285C6
:1017940017350000130585B6334606082315C10224
:1017A400EF10407063110D068357A1022947E379B6
:1017B400F7FAD9172315F102C1BFE3060DF88947DB
:1017C400D5BF63110D0229069307F03F334606087F
:1017D400E3FCC7F6A28517350000130525B6EF1004
:1017E400606C5DB70506334606089307F03F231582
:1017F400C102E3FBC7F8A28517350000130505B441
:10180400EF10406A0DBF03D60A008355A10222459A
:101814001307000814112317010297F0FF1FE78034
:1018240040CD34104E8693050008081197F0FF1F31
:10183400E780603183D70900035781028356A102F0
:1018440003D60A00A285173500001305A5B3EF10CF
:101854006065181383D60A000356A1029245024517
:10186400B3479420B3A7E720035781022390E7EC02
:10187400EF0070529245024534101306A102EF00A6
:10188400305A0357A102835681022686A285173552
:101894000000130525B3EF10E06002459305E10253
:1018A400EF1060130356E102A285173500001305FB
:1018B400A5B4EF10205F0504A147290B8909E31F94
:1018C400F4DE124521460C18EF108006850491477A
:1018D400890BE394F4DC70108145014523169102D1
:1018E400EF0030508356C102814711470356090067
:1018F400631ED60A2316F102014421498357C1020B
:1019040018139374F40FB347F420B3A7E72083D5D7
:1019140007EC26850504EF00F06B83458A002685D5
:10192400290AEF10E00DE31B24FD01449739000060
:10193400938949AF21499374F40F9305E1022685F5
:10194400A303010223170102EF00D06A9305710279
:101954002685EF10C0148356E10203467102A28566
:101964004E850504EF100054E31724FD97F0FF1F84
:10197400E780208A8320C11D0324811D8324411D07
:101984000329011D8329C11C032A811C832A411CAC
:10199400032B011C832BC11B032C811B832C411B98
:1019A400032D011B832DC11A3D618280850793F7A6
:1019B400F70F0909E39CE7F281B71387C1908347C6
:1019C4000704834617040145638FF600B306F70046
:1019D4008507882293F7F70F9306F00363F3F60065
:1019E40081472300F7048280397106DE22DC26DA7F
:1019F4004AD84ED652D456D25AD05ECE62CC66CA9B
:101A04006AC897F0FF1FE780C08397F0FF1FE78045
:101A1400E0BB138BC1859389C18E2310AB00938ADD
:101A2400C18F97E0FF1FE780C07E4E8A2316010016
:101A340023170100014481440149A14B1306E1002D
:101A44006C002285EF001060D6852285EF00905A45
:101A5400D2852285EF00106583D70A0003570A0058
:101A6400348663F2E70A1D8F85823347070863F5DE
:101A7400E60005093349090805041374F40F890ABB
:101A8400090AE31D74FB8D4763F5270183570B0097
:101A940091C39DC00144A14483D509002285050456
:101AA4001374F40FEF0010538909E31794FE0D45E6
:101AB400239E0184EF00504F9384818503AA040080
:101AC400832A0A00639C0A10032A8A00631F0A10EF
:101AD400C166FD162397D1809C4003A94700631873
:101AE4000920C165FD15F25062542396B180D25489
:101AF4004259B259225A925A025BF24B624CD24C6E
:101B0400424D21618280998FB3C70708E3F6F6F648
:101B14008504B3C404088DB76365FD0085071CA064
:101B240085A07C20B1EF230384014A85353C89A834
:101B3400783001CB1C24850793F7F70F63F5E7068C
:101B44001CA485090D0993F9F90F1379F90F83C7BB
:101B54008A00E3FBF9F6B387990383A60A000327F7
:101B64000A00CE964043942203570B003357D740C4
:101B74003E94058B1C2005CFE360FCFA230074011E
:101B84005A2061D33E20E3F5E7FA8507B3C7070877
:101B94003EA0E318F7FA8947130529007CA01375C2
:101BA400F50FD93279BF230404004A85DDBF63F9F8
:101BB400FB0023007401231104002304040051B723
:101BC40081C7FD171CA0C5BF7C20F5D713051900DC
:101BD400230304001375F50F413AF1BF0549814908
:101BE400A94C894B054C0D4D9DB783494A00894743
:101BF400835A6A000324CA000149E3FB37ED834793
:101C04004A00636DF9089386F9FF81470148850707
:101C140013F7F70FB3278720B325882092238E214B
:101C2400BA8763F3C5003A88E343D7FE6314080810
:101C340016203220B3A7892083D7E7FF3387C64015
:101C44003385F64033450508B296B69733470708FF
:101C5400B3C70708E3FEFAE683558A008356AA0051
:101C640085483307B7023375150B33C6360333473C
:101C7400A702B387C502BA95B3C50508B3C7B702AF
:101C84003307C802BA97B3C70708E38507E4138785
:101C940016008546E340F7E4BE862DBD83270A007F
:101CA400B3258920CA97882305091379F90FEF0012
:101CB400D03CB1B763900603B3A7892083D6E7FF6E
:101CC40003D6C7FF1E203385C6403387F64033450D
:101CD40005089DBF332488201E208356E4FF32204C
:101CE4003385D7403387C74033450508B1BF8344A4
:101CF40049008947035A69000324C900E3F397DEC6
:101D0400814983270900B3A58920CE9788238509B3
:101D1400EF00B03693F7F90FE3E597FE9386F4FFEF
:101D240081470148850713F7F70FB3278720B325A9
:101D3400882092238E21BA8763F3C5003A88E3434F
:101D4400D7FE6318080612202E20B3A7842083D759
:101D5400E7FF3307B640B306F640B3C606082E962F
:101D6400B29733470708B3C70708E37CFAD603558D
:101D740089008355A90085483307A702B3F6160BDB
:101D840033C695023347D702B307C5023A953345A4
:101D94000508B3C7A7023307C802BA97B3C7070831
:101DA400E38307D4138715008545E34EF7D2BE8538
:101DB4001DBB6310D802B3A7842003D6E7FF83D5E5
:101DC400C7FF1E20B306B6403307F640B3C6060865
:101DD40079B7332488201E200356E4FF2E20B386CF
:101DE400C7403387B740B3C6060895BFB71700404E
:101DF4001386470B1387C1840C421443B3F6D540B2
:101E040014C21386070B0C421443B3F6D54014C214
:101E14009386070A904218433377E6401386470DAA
:101E240098C2138781840C421443B3F6D54014C27C
:101E34001386070D0C4214439387070CB3F6D54061
:101E440014C29443184333F7E64098C382801D714B
:101E5400CAC859462A89972500009385A55E172587
:101E640000001305257986CEA2CCA6CACEC6D2C45C
:101E740002D802DAEF10C00001C9172500001305CB
:101E8400E55DEF10C02301A0138E218593890185A0
:101E9400138A81849384C18483550E0083D70900F7
:101EA40003250A009040172800001308285F814684
:101EB40001438148972F0000938F4F63214F0357AD
:101EC4002800B395D528B3C50508B397E728336729
:101ED400F721832E47001843B3C707086317071277
:101EE4003366D601854885062908E39AE6FD2390E2
:101EF400F9002310BE00630403002320AA006383B7
:101F0400080090C09C40172500001305655637143F
:101F1400004093E707209CC0EF00D078B707010387
:101F2400938787203ED689472308F1029D47230BD8
:101F3400F1029307401F3EDCD14751466C10230A3F
:101F4400F1020A8597F7FF1F938707ED3EDEEFF056
:101F5400CF940A85EF008070AA8517250000130529
:101F6400E551EF003074894505452D2E8347A405BE
:101F7400B706410093E78700230DF4048347A405C3
:101F840093F7F70C230DF4048347A40593E70703A1
:101F9400230DF4045C4C9840D98F5CCC83270A0051
:101FA400584CC207F58FD98F5CCC8935B547230CC3
:101FB400F4043C5C370701C07D1793E747003CDC21
:101FC4007C5CF98F7CDC83D70900785CC207D98FED
:101FD4007CDC97E0FF1FE7802020EFF02FDB8326D7
:101FE400090023AC21852396019490260147A94535
:101FF40005459377F70F63EEC700F6406644D64471
:102004004649B649264A256182803365D501054390
:10201400D9BD3308B702DC420507C29788A32392CF
:1020240007002393070023840700E1B77571172580
:1020340000001305E54506C722C526C34AC1CEDE06
:10204400D2DCD6DADAD8DED602C802CA02CC02CE94
:10205400EF10E00683C741856387072000082289C3
:102064008144A14926858504CA8593F4F40FEF00C1
:10207400D0000909E39834FF130A0401A284172944
:102084000000130969218E204A858904EF009061BC
:10209400E39B44FF2945EF00906422898144A149D0
:1020A40026858504CA8593F4F40FEF00A07409090A
:1020B400E39834FFA284172900001309E91D8E2038
:1020C4004A858904EF00105EE39B44FF2945EF0035
:1020D400106122898144A14926858504CA8593F427
:1020E400F40FEF00207C0909E39834FFA284172938
:1020F40000001309691A8E204A858904EF00905A5A
:10210400E39B44FF2945130901020418EF00305DE5
:10211400A68A4A8B8149A14B4E8585095686DA8564
:1021240093F9F90F7D29090B890AE39779FF93093C
:102134000901972A0000938A2A16835509005685B7
:102144000909EF003056E31A39FF2945EF003059E9
:102154001389040197290000938909148E204E8560
:102164008904EF003054E39B24FF2945EF003057E6
:1021740022898144A14926858504CA8593F4F40FF4
:10218400EF0070050909E39834FF97240000938455
:10219400A4100E2026850904EF00D050E31B44FF51
:1021A4002945EF00D0530144A1443C00B385870086
:1021B4001375F40F0504EF00900EE31894FE014428
:1021C400172900001309092DA1443C00A2978C2370
:1021D4004A850504EF00104DE31994FE2945840057
:1021E4008008EF00D04FA289268A0149A14A4A8576
:1021F40005094E86D2851379F90FA925090A89099B
:10220400E31759FF13890401972900009389C9082A
:102214008E204E858904EF00F048E31B99FE294582
:10222400EF00F04B93040401172900001309C906B9
:102234000E204A850904EF00F046E39B84FE2945FD
:10224400EF00F0491725000013058524EF003067DF
:10225400BA402A449A440A49F659665AD65A465B01
:10226400B65B496182802945EF0070472945EF003C
:1022740010472945EF00B0462945EF00504629454F
:10228400EF00F0452945EF0090452945EF00304522
:102294002945EF00D04465B703D5C180828003D5BA
:1022A400E1808280B7170040B85F1A0592054D8D12
:1022B4001377F7F713653500B8DF1375F50FA38CA3
:1022C400A7048280371700408347E70412054111B1
:1022D40093F7F708C98F93F7F70F93068008F3B6BF
:1022E400068093F6860836C60F1000009306700524
:1022F4002300D704930680FA2300D7040F100000AC
:102304002307F70423000704B247F3A707800F103D
:10231400000041018280914763ECB70497270000D5
:102324009387C723B3C5F52098413E97B71700405C
:102334009387470B0287944337170040B3F6A640B0
:1023440094C39306070B9C42B3F7A74019A8944380
:1023540037170040B3F6A64094C39306070B9C427C
:10236400C98F9CC29307070A98433377A74098C341
:102374008280944337170040C98ED9B79843337786
:10238400A74098C3B71700409387070A9843498F1B
:10239400F9BF9843498FF5B7914763ECB704972782
:1023A40000009387E71CB3C5F52098413E97B71703
:1023B40000409387470D0287944337170040B3F6D4
:1023C400A64094C39306070D9C42B3F7A74019A8EF
:1023D400944337170040B3F6A64094C39306070D01
:1023E4009C42C98F9CC29307070C98433377A7403C
:1023F40098C38280944337170040C98ED9B7984355
:102404003377A74098C3B71700409387070C9843C6
:10241400498FF9BF9843498FF5B7B71600409A26FC
:10242400B3470708137707041DE3FD8B91EB9E2642
:1024340093F707209DC73755E8011305058082806F
:102444003755E801130505803345F502828013F7FB
:10245400070C93060004631BD700FD8B37459C1CB7
:10246400D5B73725F400130505408280216513058F
:1024740005D08280411113078008F337078093F752
:1024840087083EC40F100000B717004013067005FC
:102494002380C704930680FA2380D7040F1000001A
:1024A400FD55CEB723800704A245F3A505800F1080
:1024B400000073370780137787083AC60F100000AF
:1024C4002380C7042380D7040F10000003C76704C8
:1024D400136717002383E70423800704B247F3A795
:1024E40007800F10000001A0328581473737004074
:1024F400A14663C3A70082803037E30FD6FE33863C
:10250400F5001022850710A7EDB793860181AA87ED
:1025140088421387C1B0AA9763E9E7000A871307C3
:1025240007FC6364F7009CC282807D558280B727D4
:102534000040C8C7094798A3114798A38280411156
:1025440022C406C62A84D13D2947B307E502B24016
:102554008D83B3D7870222449507B3D7E702373771
:102564000040B3C707085EA741018280716541112D
:102574001305052006C6E137B7370040130770F886
:10258400B8A30D47B8B31307000498B30547F8A7D9
:10259400B240410182800D47AA876362B7041307E2
:1025A400F6FF1308E03F094533470708636AE8026A
:1025B40003C781AD054563F5E7021305C002B38780
:1025C400A70203A7C186AA060145BA97B3A5F520B9
:1025D400A167938707C0FD8E558ED2A582800D45D5
:1025E400828083C781AD938681AD6379F5029307B9
:1025F400C0023305F502D83683A7C186AA973327CC
:10260400F7205A2701451377F73F9AA1D836B32705
:10261400F720DE27A983FD8B1EA2828005458280D8
:102624000D47AA87636AB70203C781AD054563F600
:10263400E7021307C002B387E7020145B3A5F520FB
:1026440083A7C186AE97DA271377F73F1AA2DE274E
:10265400A983FD8B9EA282800D45828030310C318E
:10266400938781ADB0A3CCB34C4554212A878CCB3E
:102674006C318CB30C258CA70C358CB76C21CCA792
:102684002C210945CCA3A38201AEC14563E4D50046
:10269400B4B30145142394A334272389D7023437D0
:1026A400184BA389D702942383C537038D8E93F6E1
:1026B400F60FB4B7238F01AC239001B023A601AE6B
:1026C400239F01AEA38F01AC23A6E186B0A3828031
:1026D4001621411126C2056606C622C44AC083C516
:1026E40081AD46217E21791663F8B60063639602B4
:1026F40063E59702014531A00945636D960063E4E3
:10270400970013658500B240224492440249410176
:102714008280014513654500DDB79305C002B38689
:10272400B602322103A4C1862A89138781AD369467
:10273400E176D18E56A8972600009386A6E4B36668
:10274400D6208C42A9E90C4FD442CD8E14CF7627E3
:10275400B396C628B3C6060876A761671307076A47
:102764003385E70223010400268681469355F5410B
:102774009D2E8347990048D066A83CB0B7070A004D
:10278400A907231D04005CC01CC4232604002328BD
:10279400040001458DBF13050002E39AA5FA4C4FCE
:1027A400D442CD8E54CF65B703A6C18681479386A4
:1027B40081AD9305C002982263E5E700238F01AC45
:1027C40082803387B702850793F7F70F3297231D6B
:1027D4000700D5B783C781AD637CF5001307C0023A
:1027E4003305E50283A7C186AA97EEAB0145828033
:1027F4000545828083C781AD637DF5001307C00260
:102804003305E50283A7C186AA97FE2B01459EA145
:102814008280054582802A8781470146930500020C
:10282400B316F028F98E99C213F6F70F8507E399CA
:10283400B7FE83C781AD05456375F60023A2E1B0F9
:102844000145828083C781AD938681AD6375F502AE
:102854009307C0023305F50283A7C186AA97D84F10
:10286400A8329C533357A7009AA1B8320145B3D775
:10287400E7001EA282800545828083C781AD637113
:10288400F5029306C0023305D50283A7C18603C7A8
:10289400B1ADAA97BE2F0145B3D7E7409EA1828070
:1028A4000545828083C781AD637DF5001307C002AF
:1028B4003305E50283A7C186AA979E2F01459EA1F1
:1028C4008280054582802A8889E5C167116763642F
:1028D400F50037070040814601450146B308E5008D
:1028E400B3B7A8003303D6009A9763E3F502639461
:1028F400B700636F1801330618413335C8009D8D46
:10290400898D330517013288B6973336E5003E9634
:102914009318F6019357150033E5F800098393974C
:10292400E6015D8F8982B367D7000582C5FB82808B
:10293400411102C402C683C781AD639BC70803A3C8
:10294400C186138781AD81470D4833256520130562
:10295400C50263EBC700C16530008146FD15114E09
:10296400014533A8662015A0B3A6B7209622850793
:10297400B3860603231CD5FCD9BF8358480005053C
:102984001308C802B3F7F80A1EA2834807001E22E0
:10299400E36515FF08536373F5001CD38506B387FD
:1029A400D7020853034837003315050108D3B3C7CA
:1029B40007081EA263F9B70099C79385F6FF93F53C
:1029C400F50F4CB7BE850906E39CC6F9014511A075
:1029D40005454101828083C781AD6371F502930689
:1029E400C0023305D50203A7C18683C751AE2A9717
:1029F400B3A7E720DE2301459EA18280054582809E
:102A040083C751AE03C781AD6379E5081307C002DC
:102A14003305E502011126CA83A4C18652C406CE39
:102A240022CC4AC84EC6138A81ADAA9403C9340085
:102A3400B3A79720DE236314090013F9F70FC050DE
:102A4400FA288DED1394170081498CA003463A00AF
:102A54002285CE85B52003463A0088D03305890007
:102A6400B3352501CE95A928F2406244C8CC424929
:102A7400D244B249224A01450561828033440408A4
:102A84003304E402B7470F00938707243304B402E6
:102A94003344F4029359F4414DBF0545828083C702
:102AA40081AD637DF5001307C0023305E50283A7FA
:102AB400C186AA979C2301459CA1828005458280FA
:102AC40009CE93070002918F635AF000B357F500C3
:102AD400B395C5003315C500DD8D82800116B3158D
:102AE400C500014582803288AA882E87CDEA63FF1B
:102AF400C50EC167636AF618B7070001B337F6005D
:102B0400B307F040E19BE1073353F600972600003A
:102B14009386C6AF9A96942213030002B697B3061F
:102B2400F340630BF3003397D500B357F500331824
:102B3400D6005D8FB318D500135608013355C7026C
:102B4400B346080893D708013377C702B385A602B2
:102B54004207D98F63FAB700C2971307F5FF63E4FE
:102B6400070163E8B7303A858D8F33D7C702B3C8FE
:102B74000808B3F7C702B386E602C207B3E8F80051
:102B840063FBD800C2989307F7FF63E50801791740
:102B940063E3D8003E874205598D8145828063F501
:102BA400D500814501458280C16763E5F618B70702
:102BB4000001B3B7F600B307F040E19BE10733D857
:102BC400F60017270000130767A4429718239308F9
:102BD40000023E973388E8406392E81863EDB62616
:102BE4003335C500134515008145828045C6C1674C
:102BF400637BF62413370610134717000E07B356EA
:102C0400E60097270000938767A0B6979C23930656
:102C14000002BA97B38EF640639DF608B387C540A9
:102C24008545935606013346060833D5D70213D794
:102C34000801B3F7D7023303C502C207D98F63FA79
:102C44006700C2971307F5FF63E4070163E0672297
:102C54003A85B387674033D7D702B3C80808B3F7B8
:102C6400D7023306C702C207B3E8F80063FBC80003
:102C7400C2989307F7FF63E50801791763E3C80077
:102C84003E874205598D82809337061093C71700FB
:102C94008E079DBD81469727000093872797B69797
:102CA4009C23014793060002BA97B38EF640E3874C
:102CB400F6F63318D60133D3F50093560801335E84
:102CC400D302B395D501B357F500CD8F3346080829
:102CD40013D70701B318D5013373D302B305C60361
:102CE400420333676700637BB70042971305FEFF17
:102CF400636A07176378B716791E42970D8F3355A9
:102D0400D702B3C707083377D7023303A6024207B3
:102D1400D98F63FB6700C2971307F5FF63E00715BC
:102D240063FE67127915C29793150E01B387674046
:102D3400C98DE5BD93B7061093C717008E0733D826
:102D4400F600172700001307678C4297182393088F
:102D540000023E973388E840E382E8E8335EE60009
:102D6400B3960601336EDE00B3D8E500935E0E0120
:102D7400B3D7D803B39505013357E5004D8F3343DB
:102D84000E089356070133160601B3F8D803B305AA
:102D9400F302C208B3E6160163FBB600F296938809
:102DA400F7FF63E3C60D63F1B60CF917F2968D8E47
:102DB400B3D5D60333470708B3F6D603B308B30233
:102DC400C206558F637B170172979386F5FF63697B
:102DD400C70963771709F9157297C207C16ECD8FBA
:102DE4009386FEFFB3F5D70013D30701F18E41821A
:102DF400338ED50233071741B306D30293580E011D
:102E0400B385C502B695C6953303C30263F3D500F3
:102E1400769393D605019A966363D7026305D70028
:102E24003E8581458280C166FD1633F7D500420791
:102E3400337EDE00331505017297E373E5FE1385D7
:102E4400F7FF81458280B70700016377F602935646
:102E5400060141477DB38145054582803A85E9B540
:102E6400B685A5BF2A8E59BDC68791B77915C29775
:102E7400CDB37915C297CDB993568601614751B345
:102E840001476314E60001458280B307E5000507A6
:102E9400B386E5009C2383C6F6FFE384D7FE33851F
:102EA400D74082805D7122D406D62A842EDA32DCA1
:102EB40036DEBAC0BEC2C2C4C6C603A5818111C56E
:102EC4001C4D81E72AC6052D32450C45541822862F
:102ED40036CEEF00702EB250225461618280AA85F2
:102EE40003A5818111CD1C4D81EF011106CE2EC6A3
:102EF4002AC411252245B245F2401045056119A0A6
:102F04001045F5BF411122C426C24AC006C62A890B
:102F1400AE84328401C51C4D91E3F12B9727000048
:102F24009387C7826313F406032449007C50858B7E
:102F340081EB5E2493F7072081E7284CEF00207390
:102F44001C44FD171CC463DA0700184C63C1E70670
:102F540093F7F40F2947638CE7041C401387170089
:102F640018C084A393F4F40F7C50858B81EB5E240A
:102F740093F7072081E7284CEF00806FB24022448A
:102F84000249268592444101828097170000938765
:102F9400E7796315F4000324890049BF97170000FB
:102FA4009387C776E314F4F80324C90041B7A685D0
:102FB40022864A85092AAA8445BF011126CA06CE5B
:102FC40022CC4AC84EC652C4AA8419E11C450290B8
:102FD4001C4D2E89ADE305239C4C8044B9CF971733
:102FE40000009387A776631DF404C0407C50858B52
:102FF40099E75E2493F7072099E3284C8D2D5E24EE
:10300400A18B99C31C48D5E3A28526859D2A51CD61
:10301400FD547C50858B99E75E2493F7072099E350
:10302400284CB925F24062444249B249224A2685D5
:10303400D2440561828000455DB726856D2945B778
:10304400971700009387876E6314F400804479BF58
:10305400971700009387876BE31AF4F8C04479B795
:103064001CC4050963C807021C401387170018C055
:103074008CA31C4483450900FD17FDF11CC463D9CE
:1030840007022286A94526853D28FD57E302F5F867
:10309400A94441B7184C63C4E700E39745FD228671
:1030A40026851520E31735FDA5B7FD59294AD1B763
:1030B4001C401387170018C0294798A3D1BFAA85BD
:1030C40003A58181DDBD011122CC26CA4AC806CEE2
:1030D4004EC6AA842E89328401C51C4D91E3212950
:1030E40097170000938787666317F402C0401C4C4F
:1030F4001CC45E24A18B99C31C4895EFA285268528
:10310400492015C97D59F2406244D244B2494A85E6
:1031140042490561828097170000938727616314F1
:10312400F4008044E9B7971700009387275EE31003
:10313400F4FCC0446DBF1C4808409379F90F13791F
:10314400F90F1D8D5C486346F500A2852685912CF8
:1031540055F91C440505FD171CC41C4013871700B2
:1031640018C0238037015C486388A7005E24858BE0
:10317400D9DBA947E319F9F8A28526851D2441D591
:1031840051B7411122C426C24AC006C683A4818114
:103194002A892E8489C49C4C99E32685A92E9717E5
:1031A40000009387A75A6313F402C0408317C40036
:1031B40013F7870025E713F707010DEB25472320B5
:1031C400E90093E707045EA47D5571A097170000FA
:1031D4009387C7556314F4008044C9BF9717000050
:1031E4009387C752E314F4FCC044C9B7918B9DC3C1
:1031F4004C5889C9930744046384F5004A85B92B64
:10320400232A04025E242322040093F7B7FD5EA45C
:103214001C481CC05E2493E787005EA41C4899EBFD
:103224005E241307002093F707286385E700A2852F
:103234004A8561298317C40013F717001DC3584832
:10324400232404003307E04018CC1848014501E763
:1032540013F707083DF7B240224492440249410162
:10326400828013F72700814611E3544814C4F1BF48
:103274008397C500011122CC26CA06CE4AC84EC681
:1032840013F78700AA842E8479E3D8416345E000CC
:10329400B8416356E008585459C303A9040023A055
:1032A40004000C5093D7C748A9CB70485E24918B77
:1032B40099C75C401D8E5C5899C33C401D8E5C547C
:1032C4000C50814626858297FD57630CF5041C48F3
:1032D4000567232204001CC05E24F98F91C368C8CB
:1032E4004C5823A0240185CD930744046384F5003E
:1032F4002685AD21232A04021DA001468546268584
:103304000297FD572A86E313F5FA9C40C5D3754707
:103314006385E70059476395E70623A02401014527
:10332400B5A098408317C40001CFF5466305D700C4
:10333400D9466319D7041C48232204001CC04DB786
:1033440018482322040093D7C74818C041BF83A953
:103354000501E38609FC03A905008D8B23A0350133
:1033640033093941014791E3D84918C4E35920FB93
:103374001C540C50CA864E8626858297634FA00043
:103384008317C40093E707045EA47D55F2406244AA
:10339400D2444249B24905618280AA993309A940BD
:1033A400F1B79C49411106C622C426C281EB81446F
:1033B400B24022442685924441018280AA842E840C
:1033C40001C51C4D91E3052A971700009387073820
:1033D400631CF402C0408317C400F1DB7850058BF2
:1033E40011E793F7072099E3284C51242685A285F9
:1033F40041357C50AA84858BC5FF5E2493F7072052
:10340400C5FB284CB5246DB7971700009387073286
:103414006314F4008044C1B7971700009387072F03
:10342400E31BF4FAC04445BF411122C406C62A84F2
:103434004EA572A5232005002322050023240500A0
:103444002322050623280500232A0500232C050032
:10345400214681451305C505EFD09FC59717000088
:10346400938767835CD097170000938767851CD484
:1034740097170000938727895CD4971700009387D8
:10348400678BB24000D01CD822444101828097054A
:103494000000938545F1BDA2411126C29307800621
:1034A4009384F5FFB384F4024AC02E8922C406C66D
:1034B40093854407692E2A8401CD23200500232205
:1034C4002501310508C4138684068145EFD05FBE0B
:1034D400B2402285224492440249410182801385EC
:1034E400418771A21385418761A21385818741A217
:1034F40013858187B5AA411122C406C62A84F537EB
:103504001C4C89C72244B2404101DDB79707000033
:10351400938727F81CD42324040423260404232893
:10352400040483A7C1826394870085471CCC228549
:103534003D2048C02285252008C422850D2048C48A
:10354400484001469145CD3508440546A545E93D29
:1035540048440946C945C93D85471CCC65B7411156
:1035640026C24AC006C622C42A89953F83A4C182C2
:103574009C4C99E326854137938484048044DC4041
:10358400FD1763D607009C40BDC38440C5BF031725
:10359400C40039EBC17785075CC413058405232275
:1035A4000406E92081372146232004002324040053
:1035B4002322040023280400232A0400232C0400CB
:1035C40081451305C405EFD0BFAE232A0402232C82
:1035D40004022324040423260404B2402285224442
:1035E40092440249410182801304840651BF9145EB
:1035F4004A855D3588C02A8449F9ED35B1472320D1
:10360400F900E1BF797122D44AD04ECE52CC5AC8C7
:103614005EC606D626D256CA2A892E8A1304850483
:103624008149054BFD5B0444832A4400FD1A63D0A1
:103634000A0200406DF8B250225492540259624A70
:10364400D24A424BB24B4E85F24945618280DE2418
:10365400637BFB008397E40063877701A6854A8533
:10366400029AB3E9A90093848406C9B78280828050
:1036740082805971A2D42E848395E500A6D2CAD043
:1036840086D6B284368963D205025E2493F707088E
:103694008DEB13070040B65026542320F90098C040
:1036A400065996540145656182803000F12DE34E40
:1036B40005FC3247BD67F98F7977BA9793B717003E
:1036C400C9BF814713070004F9B7DE25797122D4F5
:1036D40006D626D24AD04ECE898B2E8491CF93071C
:1036E40074041CC01CC885475CC8B2502254925450
:1036F4000259F2494561828074003000AA84953FE2
:10370400A2492A892685CE85992219E98317C400FE
:1037140013F7072079FBF19B93E727005EA4C1B759
:10372400970700009387E7D69CD45E2408C008C896
:1037340093E707085EA4B247232A340199CB831583
:10374400E4002685B52511C55E24F19B93E7170097
:103754005EA45E2433E527014AA441BFD1CD83A7EB
:10376400C5FF011122CC06CE1384C5FF63D3070025
:103774003E942AC65525138701881C43324581EBA4
:103784002322040000C36244F240056151AD637D0D
:10379400F4001040B306C4006396D7009443DC439E
:1037A400B29614C05CC0F9BF3E87DC4399C3E37D85
:1037B400F4FE14433306D700631F86001040B2960C
:1037C40014C33306D700E390C7FC9043DC43B2969E
:1037D40014C35CC34DBF6375C400B1471CC165B756
:1037E4001040B306C4006396D7009443DC43B296FA
:1037F40014C05CC040C341BF828041114AC01389D8
:10380400C1878327090022C426C206C6AA842E843F
:1038140089E7814599292320A900A2852685B1211C
:103824007D59631A25017D54B24022852244924475
:10383400024941018280130435007198E30685FE34
:10384400B305A44026851521E31025FFE9BF011126
:1038540026CA93843500F1984AC8A104B14706CE1C
:1038640022CC4EC62A89B3F4F40A63C4040063FD6F
:10387400B400B1472320F9000145F2406244D24428
:103884004249B24905618280412B9389018883A70B
:1038940009003E8431E4A6854A858537FD572A848C
:1038A4006316F50A03A40900A287C1EB8329040067
:1038B40081454A85A299552E6394A9081C408D041C
:1038C4004A859D8CF198B147A104B3F4F40AA68506
:1038D4002D37FD576306F5061C40A6971CC015A09E
:1038E4001440858E63C806042D47637DD70204C047
:1038F400330794006396870223A0E9005C4014C355
:103904005CC34A85312B1305B400930744006199C5
:103914003307F540E303F5F63A94898F1CC0B1BF31
:10392400D8C3E9BF58406395870023A0E900D1BFFD
:10393400D8C3C1BFA2874040B1BF3E84DC43B5B702
:10394400B1472320F9004A85E1293DB704C155BF99
:103954001C46FD171CC663DA0700184E63C5E70052
:10396400A9476394F5006FF00FF61C422E85138768
:10397400170018C28CA38280011122CC26CA4AC81F
:103984004EC652C406CE2A89AE893284B304D60008
:103994007D5A63149400014501A80C204E864A8583
:1039A400453F0504E31745FFF2406244D2444249CF
:1039B400B249224A05618280357122CD26CB4AC99B
:1039C4004EC706CF52C556C35AC1DEDEE2DCAA8911
:1039D4002E843289B68409C51C4D99E3EFF0BFB13A
:1039E40097170000938787D66317F40403A449004C
:1039F4007C50858B99E75E2493F7072099E3284C44
:103A0400BD315E24A18B99C31C48B9EFA2854E85B4
:103A1400EFF02FF731C97C50858BA1C37D55FA4057
:103A24006A44DA444A49BA492A4A9A4A0A4BF65B32
:103A3400665C0D61828097170000938727CF63151A
:103A4400F40003A489006DB797170000938707CC8F
:103A5400E310F4FA03A4C90061BF5E2493F70720BE
:103A6400D5FF284C31315DBF93070002A304F10256
:103A74009307000302D22305F10226C6930B5002DA
:103A8400971A0000938A8ACE294BCA849C2099C332
:103A940063997709338C2441638D2401E2864A8635
:103AA400A2854E85D13DFD576306F5189257E297DE
:103AB4003ED29C2063800718FD571389140002C866
:103AC40002CE3ECA02CCA309010482D48345090074
:103AD400154656853526C2479304190029E513F780
:103AE400070109C713070002A309E10413F78700BC
:103AF40009C71307B002A309E104834609001307A9
:103B0400A0026389E602F247CA84814625469820CA
:103B140093851400130707FD6372E60685C63ECE3F
:103B240015A08504A5B733055541B397A728268961
:103B34003EC869BF324793064700184336C66348F8
:103B440007023ACE98209307E002631CF7049830EA
:103B54009307A002631AF702B24789041387470048
:103B64009C433AC67D57B3E7E70A3ECA1DA833070C
:103B7400E04093E727003ACE3EC8E9B7B38767032E
:103B8400AE848546BA9761B7850402CA81468147E7
:103B94002546982093851400130707FD6372E606F3
:103BA400E9F68C200D46171500001305A5BC892CD9
:103BB40011CD971700009387E7BB1D8DC2471307EC
:103BC40000043317A700D98F85043EC88C201946FA
:103BD40017150000130545BA138914002304B10214
:103BE400052435C99307000095E74247B247137788
:103BF400071009CF91073EC69257D2973ED271B5AE
:103C0400B3876703AE848546BA9761B79D07E19B86
:103C1400A107D5B7780097060000938626D622869A
:103C24000C084E8597000000E7000000FD572A8A23
:103C3400E314F5FC7C50858B81EB5E2493F707201D
:103C440081E7284CEFF0DFA25E2493F70704E397A3
:103C540007DC1255E9B3780097060000938606D274
:103C640022860C084E85F124D1B7411122C42A843E
:103C74002E8523A2018806C6EFE03F89FD5763160F
:103C8400F50083A7418891C31CC0B240224441017E
:103C94008280411122C42E848395E50006C6312317
:103CA400634905007C48AA977CC8B240224441017C
:103CB40082805E249397C7485EA4C5BFDE250111A8
:103CC40022CC26CA4AC84EC606CE93F70710AA8449
:103CD4002E843289B68991C78395E50089460146C9
:103CE400DD285E248315E400F2409397C7485EA460
:103CF4006244CE864A86B24942492685D244056149
:103D04001DA8411122C42E848395E50006C6E12036
:103D14007D575E246319E5009397C7485EA4B240BB
:103D24002244410182809397C72868C85EA4C5BF16
:103D34008395E5003DA0411122C42A842E85B285D5
:103D4400368623A2018806C6EFE00FFAFD576316F4
:103D5400F50083A7418891C31CC0B24022444101AD
:103D64008280411122C42A842E8523A2018806C69A
:103D74009521FD576316F50083A7418891C31CC0A4
:103D8400B240224441018280411122C42A842E85FA
:103D9400B28523A2018806C6A121FD576316F5004A
:103DA40083A7418891C31CC0B24022444101828050
:103DB400411122C42A842E8523A2018806C63D21EE
:103DC400FD576316F50083A7418891C31CC0B24018
:103DD400224441018280411122C42A842E85B28565
:103DE400368623A2018806C60129FD576316F5000D
:103DF40083A7418891C31CC0B24022444101828000
:103E040093F5F50F2A966314C500014582801C21A1
:103E1400E38EB7FE0505C5BF138501876FF03F85A7
:103E2400138501876FF0DF84797156CA9C49BA8A79
:103E3400984522D44AD04ECE52CC06D626D25AC861
:103E44005EC6B3E7E70A1CC203C73504AA892E84F9
:103E54003289368A19C385071CC21C4093F70702AE
:103E640091C78327090089072320F9000440998812
:103E740091E8130B9401FD5B5C4403270900998FBF
:103E840063CCF40483473404B336F0001C4093F746
:103E94000702A5EB13063404D2854E85829AFD579A
:103EA4006303F5041C4011478144998B6399E7002F
:103EB4008327090044449D8C8147B3E4F40A1C44DD
:103EC40018486354F700998FBE94014969047D5BD7
:103ED40063982405014509A885465A86D2854E85EE
:103EE400829A631E75017D55B25022549254025930
:103EF400F249624AD24A424BB24B45618280850400
:103F0400A5BF3307D40013060003A301C704034766
:103F1400540493871600A2978906A381E7049DBFE2
:103F240085462286D2854E85829AE30E65FB050975
:103F340045B7797122D44AD04ECE52CC06D626D279
:103F440056CA5AC803C88501930780072A892E8454
:103F5400B289368A63E20703930720069386350401
:103F640063E10703630B081C930780051716000021
:103F7400130606816307F81493042404230104053B
:103F840015A89307D8F993F7F70F5546E366F6FE9D
:103F94001716000013064681B3C7C7209C43B29787
:103FA40082871C4393842504938647009C4314C34F
:103FB4002381F504854765A290411C4313750608C7
:103FC4009385470029C19C430CC3584063DE071204
:103FD4009305D002A301B40418C4635E0702B307B7
:103FE400F040170600001306A6792948B68433F773
:103FF4000703FD143297182398A03E87B3D707030D
:10400400E37707FF85A09C43137506040CC355DDB5
:10401400939757605DBF6D9A10C0D1B790411C4310
:10402400137506089385470001C50CC39C4331A052
:10403400137606040CC37DDA9E231307F0061706D5
:1040440000001306E673631FE80A2148A301040471
:10405400584018C4E34C07F80C40ED990CC0D9F74C
:10406400B68449F7A147631EF8001C40858B91CBA9
:1040740058401C4863C7E70093070003A38FF4FE6E
:10408400FD14858E14C85287CE867000A2854A8599
:10409400613BFD5A6319550D7D55B250225492541B
:1040A4000259F249624AD24A424B456182809C419C
:1040B40093E707029CC11308800717060000130644
:1040C400666DA30204050C401C4313F80508138510
:1040D40047006305080008C39C4339A013F805048E
:1040E40008C3E30B08FE9E2313F7150001C793E5ED
:1040F40005020CC099C3414891BF18401377F7FDDE
:1041040018C0D5BF294899B717060000130646679B
:1041140029483DBF90411C43CC49137806081385B8
:1041240047006306080008C39C438CC339A008C336
:10413400137606049C4375DA8EA323280400B68400
:1041440099B71C43D04181459386470014C38443E7
:1041540026857D3101C5B30795405CC05C401CC811
:10416400A30104040DB714482686CE854A85029A15
:10417400E30455F31C40898B85E74844B247336513
:10418400F50A21BF85465686CE854A85029AE305FF
:1041940065F185045C443247998FE3C5F4FEF1BFB1
:1041A4008144930A94017D5BF5B7411122C42A84AA
:1041B4002E85B285368623A2018806C6A120FD5726
:1041C4006316F50083A7418891C31CC0B240224402
:1041D400410182809307800523A2F1887D55828066
:1041E4009307800523A2F1887D558280930780057B
:1041F40023A2F188014582809307800523A2F188D8
:104204007D5582809307800523A2F1887D558280A5
:1042140046D0FFFF6AD0FFFF7ED0FFFF90D0FFFFA4
:10422400A2D0FFFF546F756368204B657920696ED7
:1042340069742046696E6973682100000AD2FFFF21
:104244007ED2FFFF0AD2FFFF64D2FFFF88D2FFFFB6
:1042540064D2FFFF546F756368205574696C697488
:10426400790000004368626974203A2578202C2084
:104274006D696E4344506172616D73203A20256408
:104284002C206D61784344506172616D73203A2033
:1042940025640A00253034642C0000006368616ED4
:1042A4006E656C3A25752C20746573746269743A72
:1042B40025783B0D0A0000004572726F722C202590
:1042C40075204B4559257520546F6F206C617267BA
:1042D40065204320626173652C506C6561736520B1
:1042E400636865636B2074686520686172647761D4
:1042F400726520210D0A00005761726E696E672C89
:104304006368616E6E656C3A257520546F6F206C1E
:10431400617267652043432C20636861726765742A
:10432400696D653A25752C426173654C696E653A11
:1043340025750D0A000000004572726F722C20432F
:10434400686172676574696D65204D61782C4B45B1
:1043540059257520546F6F206C617267652043582E
:104364002C506C6561736520636865636B207468A9
:104374006520686172647761726520210D0A00000E
:104384005345542063682025753B74657374696EC6
:10439400672043433A25752E2E2E2E204E203A2098
:1043A40025752C20626173656C696E65203A202541
:1043B400752C206E6F697365203A2025750A0000FC
:1043C4004745542063682025753B67726F75703AC2
:1043D40025752E2E2E2E20435472616E7343433A5C
:1043E40025752C20435472616E734E203A20257536
:1043F4000A0000004745542063682025753B6E6F12
:10440400697365203A2025750A0000004348202579
:10441400752043616C204661696C210A000000002C
:1044240063683A25753B6C6576656C3A25753B6225
:104434006173656C696E653A25750D0A00000000AC
:1044440043483539355F544F5543485F4C49425FC3
:1044540056332E302E310000686561642066696C25
:1044640065206572726F722E2E2E00007451203AF0
:1044740020253034780A0000544B595F426173653B
:10448400496E69743A253032580D0A000D00000057
:10449400253034782C0000000000000030080F00A4
:1044A400010A0100020026085900010A0200060060
:1044B40028083100010A0300070030081E00010A21
:1044C400040003002E082900010A05000100390830
:1044D4002800030A0600040014083000030A070039
:1044E400050034082C00030A00000000100000003E
:1044F4000000000020000000000000000010000088
:104504000000000000200000000000000040000047
:104514000000000000800000000000000004000013
:10452400000000000008000020000000010000005E
:1045340020000000400000000000000040000000D7
:1045440000000000800000000000000000010000E6
:104554000000000000020000DEDDFFFFF6DDFFFFCB
:104564001ADEFFFF24DEFFFF3ADEFFFF4CDEFFFF13
:1045740064DEFFFF88DEFFFF92DEFFFFA8DEFFFFA1
:1045840000000000100000000000000020000000F7
:1045940000000000001000000000000000200000E7
:1045A4000000000000400000000000000080000047
:1045B40000000000000400000000000000080000EB
:1045C4002000000001000000200000004000000066
:1045D4000000000040000000000000008000000017
:1045E40000000000000100000000000000020000C4
:1045F40043483539355F544F5543485F4C49425F12
:1046040056332E302E31000000010202030303034F
:10461400040404040404040405050505050505054E
:10462400050505050505050506060606060606062E
:104634000606060606060606060606060606060616
:1046440006060606060606060707070707070707FE
:1046540007070707070707070707070707070707E6
:1046640007070707070707070707070707070707D6
:1046740007070707070707070707070707070707C6
:1046840007070707070707070808080808080808AE
:104694000808080808080808080808080808080896
:1046A4000808080808080808080808080808080886
:1046B4000808080808080808080808080808080876
:1046C4000808080808080808080808080808080866
:1046D4000808080808080808080808080808080856
:1046E4000808080808080808080808080808080846
:1046F4000808080808080808080808080808080836
:104704000808080808080808000000000000000065
:104714000000000000000000000000000000000095
:104724000000000000000000000000000000000085
:104734000000000000000000000000000000000075
:104744000000000000000000000000000000000065
:104754000000000000000000000000000000000055
:104764000000000000000000232D302B200000007A
:10477400686C4C006566674546470000303132334B
:104784003435363738394142434445460000000049
:1047940030313233343536373839616263646566B3
:1047A40000000000FEF7FFFF14F8FFFFD4F7FFFF3F
:1047B400D4F7FFFFD4F7FFFFD4F7FFFF14F8FFFF90
:1047C400D4F7FFFFD4F7FFFFD4F7FFFFD4F7FFFFC1
:1047D40070F9FFFF78F8FFFF0AF9FFFFD4F7FFFF36
:1047E400D4F7FFFF9EF9FFFFD4F7FFFF78F8FFFF30
:0C47F400D4F7FFFFD4F7FFFF12F9FFFF1E
:104800005C0C00203C0C00204C0C0020E80C00202C
:1048100003001E0064007800000D0020EC0C002056
:104820000300320064007800080D0020F00C002026
:10483000A00D002002000000000000004C47000016
:104840002C4700000C4700000000000000000000A2
:104850000000000000000000000000000000000058
:104860000000000000000000000000000000000048
:104870000000000000000000000000000000000038
:104880000000000000000000000000000000000028
:1048900000000000000000000100000011001200F4
:1048A00013001400FFFFFFFFD40F0020FF000000E3
:1048B000680C002000000000050607000203040049
:0848C00000010000680C00205B
:00000001FF
