:040000006F00D07B42
:100004009305000273A04580824573901534924095
:100014002242B2424243D2436244F24402559255D0
:100024002256B2564257D2576258F2580649964958
:10003400264AB64A464BD64B664CF64C065D965D50
:10004400265EB65E465FD65F0961730020303717BF
:1000540000407E2B4111B3C7070893F7F7EFB3C7EE
:1000640007087EAB93078008F3B7078093F78708E8
:100074003EC60F100000930770052300F704930792
:1000840080FA2300F7040F1000009307100E7CC3BE
:10009400B7270040A383078003C77780136707034C
:1000A400A383E7801387C78008C323800780414761
:1000B4002380E78037270040930707829C43E3CDE2
:1000C40007FEB7270040B7060800138707821843C6
:1000D400758F65DF03C72780136707012381E780D6
:1000E40037270040930707829C43E3CD07FE372759
:1000F4000040B7060800930707829C43F58FE5DFAD
:1001040023010780B7170040FA2B13670710FAABD7
:1001140023800704B247F3A707800F100000B70736
:10012400040023A0072001454101828037170040C5
:100134007E2B4111B3C7070893F7F7EFB3C707083E
:100144007EAB93078008F3B7078093F787083EC612
:100154000F100000930770052300F704930780FA3B
:100164002300F7040F1000009307100E7CC3B72779
:100174000040A383078003C7778013670703A38323
:10018400E7801387C78008C309472380E78003C734
:100194000780136707012380E78037270040930710
:1001A40007829C43E3CD07FEB7270040B70608004B
:1001B400138707821843758F65DF03C7278013678A
:1001C40017012381E78037270040930707829C4368
:1001D400E3CD07FE37270040B706080093070782E0
:1001E4009C43F58FE5DF23010780B7170040FA2B06
:1001F40013670710FAAB23800704B247F3A70780FD
:100204000F100000B707040023A007200145410197
:100214008280371700407E2B4111B3C7070893F73C
:10022400F7EFB3C707087EAB93078008F3B70780DF
:1002340093F787083EC60F1000009307700523004C
:10024400F704930780FA2300F7040F1000009307C4
:10025400100E7CC3B7270040A383078003C77780B1
:1002640013670703A383E7801387C78008C3114775
:100274002380E78003C70780136707012380E78093
:1002840037270040930707829C43E3CD07FEB72737
:100294000040B7060800138707821843758F65DF8F
:1002A40003C72780136727012381E780372700408E
:1002B400930707829C43E3CD07FE37270040B70628
:1002C4000800930707829C43F58FE5DF230107802D
:1002D400B7170040FA2B13670710FAAB2380070403
:1002E400B247F3A707800F100000B707040023A04C
:1002F4000720014541018280371700407E2B011100
:1003040022CEB3C7070893F7F7EFB3C707087EAB4E
:1003140093078008F3B7078093F787083EC60F104A
:100324000000930770052300F704930780FA230065
:10033400F7040F1000009307100E7CC3B72700408A
:10034400A383078003C777800148054F136707031A
:10035400A383E780B7080800930F000293020010FC
:1003640015E6B7170040FA2B13670710FAAB238082
:100374000704B247F3A707800F1000007244B707C1
:10038400040023A00720014505618280A380E78142
:10039400138707821843E34D07FE13870782184328
:1003A400337717017DDB03C77780B303A800338459
:1003B400050113674700A383E780A380F7811387B0
:1003C400C780232077000143B35E560A330E6400CE
:1003D40003471E0083460E002207558F83462E00D6
:1003E400C206D98E03473E006207558F9386078263
:1003F4009442E3CD06FE938607829442B3F6160137
:10040400FDDA9386078198C21103E361D3FD138754
:1004140007821843E34D07FE138707821843337797
:1004240017017DDB1387C78023207700A381E78131
:100434003306D6417698138707821843E34D07FEA7
:10044400138707821843337717017DDB11BFB71772
:100454000040FA2B4111334707081377F7EF33476E
:100464000708FAAB130780087337078013778708E8
:100474003AC60F100000130770052380E704130722
:1004840080FA2380E7040F1000001307000C6313A5
:10049400E5049A271367070C9AA7B717004003C708
:1004A400E7021367C7002387E70203C7E70413774C
:1004B400C70F136717002387E704FA2B1367071086
:1004C400FAAB23800704B247F3A707800F1000009C
:1004D40041018280B82793750520B9C9118B1DEBA2
:1004E40003C7E704B4271377F70F93E64600B4A7CE
:1004F40096279227B3C606081366060C92A7A5474B
:100504000100FD1793F7F70FE5FFB717004096A713
:100514002387E704371700403C2793E707013CA7EC
:100524009377F50191EBB72700401307500421A8F6
:1005340013672700B8A7F9BF93778501EDF7B727AD
:100544000040130790042382E78093070028631C6C
:10055400F502B7170040130720209AA701000100F5
:1005640001000100371700409316B0281E27F58FAD
:10057400F5DF930700281EA7371700403C2793F7A1
:10058400D70F3CA719BF93070008631AF502B717E2
:10059400004009479AA70100010001000100371734
:1005A40000409316B0281E27F58FF5DF9307000847
:1005B4001EA7371700403C2793F7B70FD9B7B717D3
:1005C4000040334505088AA7EDD57DB7197106C2E9
:1005D40012C416C61AC81ECA22CC26CE2AD02ED2BF
:1005E40032D436D63AD83EDA42DC46DECAC0CEC26F
:1005F400D2C4D6C6DAC8DECAE2CCE6CEEAD0EED29F
:10060400F2D4F6D6FAD8FEDA938581948841E700CD
:10061400050092402242B2424243D2436244F24431
:10062400025592552256B2564257D2576258F25842
:1006340006499649264AB64A464BD64B664CF64C72
:10064400065D965D265EB65E465FD65F0961730001
:1006540020304111B7170040985F3AC6945F324783
:10066400E39CE6FE324541018280B7170040130740
:1006740000032388E702854723A8F1947300203000
:10068400411106C6A52CFDBF7971973700009387E9
:10069400A79122D4804306D626D24AD04ECE52CC3D
:1006A40056CA5AC85EC679C037C9C901014B9739C1
:1006B40000009389E98E1309F937173A0000130AE9
:1006C400EA8E973A0000938A6A89973400009384EB
:1006D400A4928357240085E75C44631F0B001737FB
:1006E40000002323F78C832BC4002285975002E05B
:1006F400E78060305E84A9A82326FB00EDB783A7BA
:10070400090082971C443307F5406375F500D8400F
:100714001D8F2A976361E9089737000023A4078493
:100724008355240003450400973000E0E780404CE3
:100734005C405844B9C70C44D040AE97BE8663E4CD
:10074400B70063E4C700B386C74014C4228B3A845D
:1007540049F097370000938767809C470947637384
:10076400F708F91717270000232EF77EB2502254FA
:1007740092540259F249624AD24A424BB24B456101
:10078400828063170B009737000023AFE780A1BF77
:100794002326EB0089BF03274A021DCF63E1A70488
:1007A4003385A7408347040085E3173700000347D8
:1007B40057815917B307A7003E85D44063E4E70087
:1007C40063E4D7003385D74083A78A006376F500B6
:1007D4009727000023A8A778228B404495BFD840D0
:1007E400BA977DBF9727000023AE077641B7411122
:1007F40022C426C217340000130404809724000086
:100804009384C4759444584097270000938747798C
:1008140006C69C436397E60882975440B74736FE62
:10082400938707C8B6973387A7003A856364F700B0
:100834006364D7003305D74097340000938404954C
:10084400DC5081CF973700009387079C9443370788
:10085400CDFF7D179C46F98F9CC611E14840972730
:1008640000009387A774DC53829719E9DC508DC785
:10087400974001E0E78000B6973001E0E78080050B
:10088400DC5099CB97370000938707989843B706B5
:1008940033001C47D58F1CC7B24022449244410107
:1008A4008280829794445840B387A6003E8563E4CF
:1008B400D700E3E3E7F83385E740BDBF972700009F
:1008C400938707739C4385C3411106C68297972774
:1008D400000083C7C76C89E79727000023AA077025
:1008E400B240410182809727000083C7476B91E79C
:1008F4009727000023AE076E82808280411122C4B4
:10090400172400001304C4671C4006C626C24AC04C
:1009140091C782979727000023A4076697370000A2
:1009240083C71787858B173900001309298689CF58
:10093400834779001947631EF70E97370000A38990
:1009440007845D215C4482971C4491C38297972459
:1009540000009384246598409727000083C70760AC
:10096400172600000346965F814593961700BA96B2
:1009740083D60600F9CA89C5972600002380F65E4F
:10098400172500000345855D6368C50C97270000A3
:100994002386075C1C40639A0712972700009387FD
:1009A40027609C4363830712972700009387C764DB
:1009B400DC43172700002327F75AF9319727000053
:1009C40083C7577D91CF8347790093F7F70F89EB5E
:1009D40097270000A380077C973001E0E780802CF4
:1009E400972700009387875CDC53E5C397270000B3
:1009F4009387C7569C47F1CB8347790015476366B5
:100A0400F70C9727000083C7E77D918BDDEF9727CD
:100A1400000083C7C758D5EB90409726000083C6D3
:100A2400F65363CAD70A2244B240924402494101B0
:100A34007DBB834779001D47E318F7F09727000033
:100A4400A388077455261C48FDBD850793F7F70F47
:100A54008545E3ECC7F00DB7931715003E97835512
:100A640007002310070097270000239907529727B0
:100A740000009387A7509C4313172500BA979C4303
:100A840082979727000083D76751944093C7F7FF55
:100A9400172700000347874C7D8D93171700BE96D8
:100AA40083D706005D8D2390A60011C705079727FD
:100AB40000002385E74A172700000347274A9727A2
:100AC400000083C7B749E373F7ECB2402244924471
:100AD4000249410182801397170032970357070098
:100AE4006DF785073DBF0000EFF05FDD7300000088
:100AF40000000000972200009382624A03830200F0
:100B040023800200630F0300F32510342EC09705E1
:100B140000009385A5FD73901534EF0060467300C3
:100B2400203086DCEF00C045E650828000001727A5
:100B34000000130727651443411122C4BC424AC074
:100B440006C6998326C2858B3A84172900001309A7
:100B54002963D1CB93070006BCC2172700000347C3
:100B64004763930700089724000093842462631B5F
:100B7400F700832709009C4393F707041727000015
:100B84002309F76083C7040093F707049DC39727DD
:100B940000009387E7409C4382979727000023A592
:100BA400A76083C7040093F7F70B17270000230FF0
:100BB400F75C83C7440093F7070495E78547172735
:100BC4000000A307F75C972700009387A75E9C4368
:100BD4003707020098C7130700FC972600002389F3
:100BE400E65A9848F8D318403C439183858B8DC3CB
:100BF4003C4393E707013CC3972700009387875B37
:100C04009C4323A207068547172700002302F758B1
:100C140083270900D8430583058B19C7D843759BDF
:100C2400D8C3D843799BD8C3B240224492440249E2
:100C340041018280ED3D730020309317D50063D3CA
:100C44000702972700009387E7569C437D57B8D740
:100C54009727000093878730DC4B85071727000010
:100C64002328F730937785009DCB9727000083C70F
:100C7400075293E7170017270000230AF75093073A
:100C840000F8172700002305F750972700009387E3
:100C9400674F98435C5BF19B93E717005CDB9377AA
:100CA40015008DC79727000083C7574E93E7170099
:100CB40017270000A30CF74C972700009387874C55
:100CC40098435C5BF19B93E717005CDB93776500CB
:100CD400B1C7972700009387E74A98439377450065
:100CE400972600009386864AE1C31C43A1838D8B1B
:100CF40089EB972700009387E74B9C4313068007F3
:100D0400D0CF83C7060093E7170097260000238FF0
:100D1400F6465C5BF19B93E717005CDB9317F500E9
:100D240063D407021727000003470760418B972706
:100D340000009387275851C383C7470793E70702E7
:100D4400172700002302F75E9317E50063D7070215
:100D54009727000083C7C743E207E18763D70700EB
:100D64008547172700002305F7429727000093873C
:100D740067449C433707020098C79317C50063D4A0
:100D84000702172700000347375A058B97270000EF
:100D94009387475229C383C7570793E72700172729
:100DA4000000A303F758828083C7360093E7170037
:100DB40097260000A38DF63CA9BF03C747078946C1
:100DC4003D8B6308D70083C747070D47BD8BE39D61
:100DD400E7F69147B5B703C75707118B69D783C7A0
:100DE400570793E7870065BF972700009387873CE1
:100DF4009443972700009387673903C70700058B3F
:100E040011CB972700002385073897270000A3817B
:100E14000738828003C71700058B65F7F85271FF06
:100E240083C75700DDB7411126C206C622C49724E2
:100E34000000938424383DED9440AE87F8527DFF42
:100E440037F400E03E859727000023820734832788
:100E540004D1B285ED9B2328F4D0832704D193E7F2
:100E640087022328F4D073005010973001E0E78004
:100E740020C6972700009387E7309C43B7060001FC
:100E84009843558F98C3D85B719BD8DB9727000094
:100E9400A380073097270000A38A072E9C400947A8
:100EA40098C3832704D193E787002328F4D07300E1
:100EB40050100DA08D476315F50497270000938704
:100EC400672C9C43B70600019843558F98C3D85BA1
:100ED400719BD8DB9440172700001307272B834707
:100EE4002700858B89EB83473700858BD9C79727E4
:100EF4000000238F0728B24022449244410182809B
:100F04008547E319F5FCB7F700E003A707D16D9B0C
:100F140023A8E7D003A707D11367870223A8E7D044
:100F24007300501098408177FD175447F58F5CC7C4
:100F34000F1000009840B70702001CC7930700F881
:100F4400172600002306F62497270000938787239B
:100F54009C439C43A1838D8B91EF930760197CD3B1
:100F640054C737F700E0832707D193E78700232886
:100F7400F7D035BF9307E01BDDB7FC52ADF3A5BF37
:100F840097270000938707239C438847D847798D88
:100F940009C988C79387019E03A30700630303005D
:100FA40002838280972700009387C72098433C5B85
:080FB400FDFF01000100828035
:100FBC00971100209381C1CB177100201301C1033D
:100FCC001305400097F5FF1F9385050317060020B6
:100FDC00130606FE63FAC5008322050023A0550004
:100FEC0011059105E3EAC5FE17550200130585B0FE
:100FFC00970500209385C5FB1386418F63FAC500C6
:10100C008322050023A0550011059105E3EAC5FED6
:10101C001385818F972500209385853C6377B500D8
:10102C00232005001105E36DB5FE93025002739069
:10103C0002BC8D42739042808542739012BC930225
:10104C00800873900230970200009382E23A93E298
:10105C00320073905230972200009382C24A7390F0
:10106C00123473002030000000000000000000006B
:10107C000000000000000000000000000000000064
:10108C000000000000000000000000000000000054
:10109C000000000000000000000000000000000044
:1010AC000000000000000000000000000000000034
:1013FC000000000000000000000000009C14000031
:10140C006A210000A9BDF9F30000002000000000D3
:10141C0000000000000000209C14000000000000F0
:10142C00000000009C140000000000009C14000050
:10143C00000000009C1400009C1400009C14000090
:10144C009C1400009C140000CC0500209C1400008F
:10145C00000000009C1400009C1400009C14000070
:10146C009C1400006A0600209C1400009C140000D0
:10147C009C1400009C1400009C1400009C140000A0
:10148C009C1400009C1400009C1400009C14000090
:10149C0001A02A8309CA83830500230073007D16EB
:1014AC00050385056DFA82802A8311C62300B300DB
:1014BC007D16050365FE8280B7170040B85F137771
:1014CC00F7F7B8DF130700F8A38DE7043D47238C2B
:1014DC00E70413075003A38CE704828037170040FE
:1014EC008347E7041205411193F7F708C98F93F767
:1014FC00F70F93068008F3B6068093F6860836C677
:10150C000F100000930670052300D704930680FA91
:10151C002300D7040F1000002307F704230007044F
:10152C00B247F3A707800F10000041018280B71764
:10153C00004003C7E7020D8941111377C70F498F8C
:10154C0093068008F3B6068093F6860836C60F100D
:10155C000000930670052380D704930680FA23803D
:10156C00D7040F1000002387E70223800704B2473B
:10157C00F3A707800F1000004101828041112A83DC
:10158C000148930E407E130F0019930F4006B34889
:10159C00030863EF1E0113030019337365028542C0
:1015AC00FD4363F6B2088D4F214F930E4006A1A068
:1015BC007D13336EE3039308E016630E0E00336E57
:1015CC00F3039308D01663080E009378330093B896
:1015DC0018009388D816C29833C808084DBF93F8E2
:1015EC001500138EF5FF637CBF02F908C29833C84F
:1015FC000808B3450E08E394F5FF8545630B03001B
:10160C00B378D5038145638608009375350093B58F
:10161C001500F105C29533C805088945E9BFB388A3
:10162C001341C29833C80808B3450E089DBF7D16F8
:10163C00329879463307C70213D61700BE073348D2
:10164C00080832976146B3F6C60213068070B3865B
:10165C00C6023697A166F58F4207D98FB7160040A0
:10166C0003C7F60213770708D883908303C7F602E3
:10167C0013770708E316E6FE9883B71600404DCFA4
:10168C001307800873370780137787083AC40F1045
:10169C00000037170040930670052300D70493060B
:1016AC0080FA2300D7040F100000232A0703834677
:1016BC00170393E60608A308D70223000704224762
:1016CC00732707800F1000001166371700407D1636
:1016DC00545B4C5FAD8EF18EE5FE93068008F3B63D
:1016EC00068093F6860836C60F1000009306700528
:1016FC002300D704930680FA2300D7040F100000B0
:10170C005CDB8347170393E70704A308F702230066
:10171C000704B247F3A707800F1000004101828035
:10172C0003C7F60213770708D883908303C7F60222
:10173C0013770708E316E6FE98837DD391B7411122
:10174C00B7170040985F3AC6945F3247E39CE6FEB9
:10175C00324541018280317122DD4ED706DF26DB16
:10176C004AD952D556D35AD15ECF62CD66CB6AC90F
:10177C006EC7AA8902D8EF0030152A849307800817
:10178C00F3B7078093F787083EDA0F100000B717FE
:10179C000040130770052380E704130780FA2380A9
:1017AC00E7040F10000003C7F7021377770FA38726
:1017BC00E70203C7F70213678700A387E7022380BA
:1017CC000704D257F3A707800F1000000D4585338F
:1017DC009167938707E8B347F402930AE0025167D5
:1017EC00130707883EC4FD873ECC930780C1B347DF
:1017FC00F402B38A5703B3CAEA0293D6FA4136C647
:10180C00B306504136CE93DDF641930640FAB387CA
:10181C00D7029546B3C7E702138729003EC8FD8758
:10182C003ED08567938707FA3399E70063E4360166
:10183C0033993701E1679387076AB347F402116A5A
:10184C00014B814BB71C0040930480FA3309F90219
:10185C00930700103349F902930740063309F90244
:10186C009307D0073349F9029357F9413ED29307B6
:10187C00FA8EB397E70037B7C40413070740334415
:10188C00E4027D1AB3878702130480083EC2FD87E9
:10189C003ECA73370480137787083ADC0F100000B8
:1018AC00130770052380EC04138D0C0423809C0417
:1018BC000F10000003C73C051377870FA389EC04B6
:1018CC0003C73C0513671700A389EC0423800C04A1
:1018DC006257732707800F100000130C70057337C5
:1018EC000480137787083ADE0F1000009307700509
:1018FC002300FD0023009D000F10000003C73C05D2
:10190C0013670702A389EC0403D70C051317E72808
:10191C002398EC0403D70C051317F7282398EC0431
:10192C0023000D007257732707800F10000003C7A8
:10193C003C0513770702630F073603C73C05218B61
:10194C006DDF0818EF00E07D73370480137787088C
:10195C00BAC20F10000023008D0123009D000F1050
:10196C00000003C73C051377F70DA389EC0403C7EC
:10197C003C0513670702A389EC0403D70C05131766
:10198C00E7282398EC0403D70C051317F7282398A2
:10199C00EC0423000D001647732707800F1000007E
:1019AC0003C73C0513770702630D073203C73C05D9
:1019BC00218B6DFF69332A873AD451332257E30DBB
:1019CC00E5FE03D70C0542551317E7282398EC04C2
:1019DC008D2F03C73C05218B6DDF03D70C0583C608
:1019EC002C05A24733774701B386460313D6F6413D
:1019FC00BA96B388F640E24733B7E60032971D8FAC
:101A0C00B247B3B61601158F63C6E700631BF70028
:101A1C0063F91A01634EB72F6395ED00F24763E942
:101A2C00F82E894663F8762F73370480137787086E
:101A3C00BAC80F100000130770052380EC04238034
:101A4C009C040F10000003C73C0593F6F90F1377A5
:101A5C00870FA389EC0403C73C05558FA389EC04BD
:101A6C0023800C044647732707800F1000001306D1
:101A7C00700503C73C051D8B631637337337048021
:101A8C0013778708BACC0F1000001307700523805A
:101A9C00EC0423809C040F10000003C73C05137753
:101AAC00F70DA389EC0403C73C0513670702A38950
:101ABC00EC0403D70C051317E7282398EC0403D781
:101ACC000C051317F7282398EC0423800C046647A5
:101ADC00732707800F1000009306700503C73C05A1
:101AEC0013770702630A072E03C73C05218B6DDFB2
:101AFC000818052D7337048013778708BAD00F1098
:101B0C000000130770052380EC0423809C040F1045
:101B1C00000003C73C051377F70DA389EC0403C73A
:101B2C003C0513670702A389EC0403D70C051317B4
:101B3C00E7282398EC0403D70C051317F7282398F0
:101B4C00EC0423800C040657732707800F10000049
:101B5C009306700503C73C05137707026309072A30
:101B6C0003C73C05218B6DFFD93E2A8CC93EE30F80
:101B7C0085FF03D70C0542551317E7282398EC046F
:101B8C00C92303C73C05218B6DDF733704801377A2
:101B9C008708BAD40F100000130770052380EC04DB
:101BAC0023809C040F10000003C73C051377F70D2E
:101BBC00A389EC0423800C042657732707800F108D
:101BCC00000083D50C0503C72C059257B3F54501CE
:101BDC00330747039356F7412E97B335B700B695A5
:101BEC00330527413337A7009D8D998D2167130746
:101BFC0007D06346B000639705246305052433388A
:101C0C00E5021246D246B385E5023305E502C295DC
:101C1C00EF10A274130715003335A700AA9563467D
:101C2C00B000639B05286309072883D6CC029582F4
:101C3C003386E600B336D600AE966348D000639C7C
:101C4C0006309306F00F63F8C6300947637D6721B1
:101C5C0093078008F3B7078093F78708BED60F1059
:101C6C000000B7170040130770052380E704130723
:101C7C0080FA2380E7040F100000DA37896681169A
:101C8C00558F33470708DAB723800704B657F3A7F5
:101C9C0007800F100000FA506A54DA544A59BA59A6
:101CAC002A5A9A5A0A5BFA4B6A4CDA4C4A4DBA4D8C
:101CBC00296182807337048013778708BAC00F10AC
:101CCC00000023008D0123009D000F10000003C7AE
:101CDC003C0513670702A389EC0423000D0006479B
:101CEC0099B17337048013778708BAC40F100000BA
:101CFC0023008D0123009D000F10000003C73C053D
:101D0C0013670702A389EC0423000D00264769B171
:101D1C00E39C0BD0424682569315170013D3F8015F
:101D2C0013951800B365B3003AD646D4EF10E262AF
:101D3C003257850B93FBFB0F6346E00031EFA25843
:101D4C00638C08049306150033B5A600AA9513D727
:101D5C00F501BA9633B7E6002E9785827E07558F2C
:101D6C00F336048093F68608B6C60F1000002300E5
:101D7C008D0123009D000F10000083D6CC023697F6
:101D8C00334707082396EC0223000D0036477327D0
:101D9C0007800F100000A1B69306F5FF1335150050
:101DAC00898D75B77337048013778708BACA0F10FB
:101DBC0000002380CC0423809C040F10000003C778
:101DCC003C05558FA389EC0423800C0456477327DC
:101DDC0007800F10000071B97337048013778708E0
:101DEC00BACE0F1000002380DC0423809C040F105B
:101DFC00000003C73C0513670702A389EC0423808A
:101E0C000C047647732707800F100000C1B9733795
:101E1C00048013778708BAD20F1000002380DC04EB
:101E2C0023809C040F10000003C73C0513670702B6
:101E3C00A389EC0423800C041657732707800F101A
:101E4C00000009BB3338E502D2461246B385E502E1
:101E5C003305E502C295EF10425093361500130777
:101E6C00F5FF958D6DBB13078008733707801377CB
:101E7C008708BAD80F100000B7160040130770057A
:101E8C002380E604130780FA2380E6040F10000079
:101E9C00DA36056601161377F70F518F33470708AB
:101EAC00DAB6238006044657732707800F1000000C
:101EBC00050B137BFB0FF1BAB366B700C9CE83D603
:101ECC00CC023336E000B305B040918D3305E040D1
:101EDC0095826345B000C1E163FFA6060947637EA6
:101EEC00670393078008F3B7078093F78708BEDA78
:101EFC000F100000B7170040130770052380E7048C
:101F0C00130780FA2380E7040F100000DA377D8B6B
:101F1C00DAB723800704D6579DBB73370480137739
:101F2C008708BADC0F100000130770052380EC043F
:101F3C0023809C040F10000003D7CC028566811609
:101F4C001377F70F558F334707082396EC0223803E
:101F5C000C04665791BF93078008F3B7078093F77B
:101F6C008708BEDE0F100000B717004093067005FF
:101F7C002380D704930680FA2380D7040F10000027
:101F8C00D6371607369733470708DAB72380070486
:101F9C00F657F5B9D1C901114AC8416922CC26CAF4
:101FAC004EC652C406CE2A84B304B5009309F07F02
:101FBC00130AF9FF63649400014539A8B387844080
:101FCC0063E62703B377440185E7228597E0FF1F7B
:101FDC00E780A02311C90945F2406244D24442492A
:101FEC00B249224A056182804A94E9B763FFF9003D
:101FFC009377F47F99EB228597E0FF1FE78080129F
:10200C0079F99317B0283E9475B79377F40F91EB49
:10201C00228597E0FF1FE780000355FD1304041091
:10202C0051BF137404F0EDB705458280814763946A
:10203C00C700014582803387A70014233387F5003E
:10204C00850714A3EDB7914763ECB70497370200EB
:10205C00938787E2B3C5F52098413E97B7170040A8
:10206C009387470B0287944337170040B3F6A6407B
:10207C0094C39306070B9C42B3F7A74019A894434B
:10208C0037170040B3F6A64094C39306070B9C4247
:10209C00C98F9CC29307070A98433377A74098C30C
:1020AC008280944337170040C98ED9B79843337751
:1020BC00A74098C3B71700409387070A9843498FE6
:1020CC00F9BF9843498FF5B7B71600409A26B34726
:1020DC000708137707041DE3FD8B91EB9E2693F7FE
:1020EC0007209DC73755E8011305058082803755B9
:1020FC00E801130505803345F502828013F7070CC0
:10210C0093060004631BD700FD8B37459C1CD5B789
:10211C003725F4001305054082802165130505D091
:10212C00828037E700E01C435443A183E206D58F3D
:10213C001CC1FD572320F7182322F7180F1000009D
:10214C00828013178500B7E700E023A0E7106181B8
:10215C0023A2A7108280B7F700E088478280411144
:10216C0013078008F337078093F787083EC40F10D6
:10217C000000B7170040130670052380C7049306B0
:10218C0080FA2380D7040F100000FD55CEB72380B2
:10219C000704A245F3A505800F10000073370780D4
:1021AC00137787083AC60F1000002380C7042380DA
:1021BC00D7040F10000003C76704136717002383AD
:1021CC00E70423800704B247F3A707800F10000031
:1021DC0001A03285814737370040A14663C3A70071
:1021EC0082800346B740E30ED6FE3386F5001022FC
:1021FC0085072304C740DDB797F6FF1F9386462754
:10220C00AA878842171700201307871DAA9763E92E
:10221C00E7000A87130707FC6364F7009CC28280FF
:10222C007D558280411122C406C62A84713D2947FE
:10223C00B307E502B2408D83B3D7870222449507DA
:10224C00B3D7E70237370040B3C707082316F74068
:10225C0041018280716541111305052006C6D937ED
:10226C00B7370040130770F82381E7400D47A3816F
:10227C00E74013070004A380E74005472387E740A6
:10228C00B24041018280411106C683A7419091C39F
:10229C00829783A7019091C3829703D7818093077C
:1022AC00C01263F4E70483D6A1801306B0126361F5
:1022BC00D60403A6C18F11C6B2401305C01241014A
:1022CC0002863385D740E5473305F5020507158FA0
:1022DC003347070809839307F7FF3E953345E5021B
:1022EC001375F50FB2404101828013054006DDBF26
:1022FC000145CDBF2D4539EFDC41411122C426C229
:10230C0006C698239C33B6843284A207D98F0D67F6
:10231C00930697A16393D702BD3793876180982367
:10232C006373E50088A39C2305479AA01CA0014574
:10233C00B240224492444101828013078790294580
:10234C00E398E7FECC4589479EA009462285EF100D
:10235C008058F1BF8280DC41411122C406C626C2DE
:10236C0003C807009C332944A207B3E707010D6893
:10237C0013082890639407038547B284EF70800E8E
:10238C002A8409ED03A7819011CB9C309420A207DD
:10239C00D58F93B71700138517000297B24022858B
:1023AC0022449244410182805C21858BA9CF01118A
:1023BC0022CC2A842A21938581A406CEEF70400575
:1023CC00058915CD2A20014781460546ED45EF606C
:1023DC00F03E2AC60DC597F7FF1F83D7C7C07C8474
:1023EC0085477C8583C761801CA12A2001462C006F
:1023FC00EF70F05B09C5ED452800EF60B053F2407B
:10240C00624405618280828041654111938581A47B
:10241C007D1506C6EF80B045B24097F6FF1F938638
:10242C0026B94146954517F5FF1F130525B94101FE
:10243C006F80503923A4A190828085476315F502E3
:10244C001C22238CF18E03C761806370F70241114B
:10245C0017050000130585F506C6EFA0F077B2400E
:10246C00014541018280094582800145828089476E
:10247C006302F50263E8A70019E983C761809CA198
:10248C00014582808D47630DF5000945828083C725
:10249C00818FF5B797F7FF1F83D7E7B29EA1CDB712
:1024AC0097F7FF1F83D707FDDEA197F7FF1F9387D1
:1024BC00E7B0BA37BE3F9AA1BEA18547FCA1C9B708
:1024CC00411106C6C9339387618098236379E5006F
:1024DC0088A317050000130565EDEFA0F06FB2405F
:1024EC00014541018280C167F917630CF502411166
:1024FC0022C406C685472A84639AF50022852244A5
:10250C00B240938581A441016F80703689476396F0
:10251C00F5008545EFA0D06675D1B240224441014B
:10252C00828082803285D041411106C60C3203482C
:10253C0006000D66A205B3E505019308A6A2139843
:10254C00556063C80803130626A263580603757604
:10255C001306C65DB2951946B3C505086363B6028A
:10256C001738020013088892B3C505219041429692
:10257C000286130606A5630BC80E23900600A94518
:10258C0005A01D469D45636DE6002146198E335608
:10259C00F60A9385C19092A2BA95EF10C03381458B
:1025AC00B2402E85410182802D469D45E36AE6FEB0
:1025BC003146198E3356F60A973502009385C59528
:1025CC0092A2D9BF31469D45E36CE6FC3546198E87
:1025DC003356F60A973502009385059392A26DBF88
:1025EC0041469D45E36EE6FA4546198E3356F60A8A
:1025FC00973502009385059092A279BF41469D457F
:10260C00E360E6FA4546198E3356F60A9735020012
:10261C009385058D92A249B741469D45E362E6F844
:10262C004546198E3356F60A973502009385058A6E
:10263C0092A29DB741469D45E364E6F64546198E48
:10264C003356F60A973502009385058792A2A9B7EF
:10265C0035469D45E366E6F43946198E3356F60A3F
:10266C00973502009385458492A23DB719469D4546
:10267C00E368E6F2998D33D6F50A9385C18092A270
:10268C0021BF97F6FF1F938666984146CD4517F5F7
:10269C00FF1F130565986F80F012416541119385FA
:1026AC0081A57D1506C622C426C24AC0EF80301C07
:1026BC0097F6FF1F938646A94146C94517F5FF1F9C
:1026CC00130545A9EF80101097F4FF1F938484A87D
:1026DC00CC4C2A890945613B138481A683D701829E
:1026EC005EA083D7A40C03D7C1815AA41EA083D7A4
:1026FC00A40D03D7A410938581A73EA00D45854753
:10270C007CA01AA47CA4231504009533A2850D4546
:10271C00792EB240224492444A850249410182807A
:10272C008D679387D7A4631DF6008D472945639A5F
:10273C00F500854735456396F6001C23238AF190F6
:10274C00014582808D679387D7A401456319F600F4
:10275C008D476396F50083C741911CA305458AA25A
:10276C000145828082802A8783C7419203A581928A
:10277C0083C6318299E30145828012216315E600FC
:10278C007021E30BD6FEFD1793F7F70F2105DDB78C
:10279C00B2862E86AA85172502001305A57A6F101E
:1027AC0002330111930500030D4506CEEF30B00E38
:1027BC00930500051145EF30100E9305C003054538
:1027CC00EF30700D85471306F10085451305503029
:1027DC00DC87EF70F13CF240056182808547631A1B
:1027EC00F5001166130686A9894503C581936F1000
:1027FC00E05E89476317F500894503C581936F1027
:10280C003008828085476398F50019E22388B192DD
:10281C002386C192828009476398E50011E62388DC
:10282C00F19203D5E19281A58280011122CC06CED2
:10283C0083A701922E8499C79C4789C76244F240B2
:10284C00056182876C0013057040EF50F1793246B8
:10285C0022858145EF60813BF240624405618280B4
:10286C00011126CA06CE22CC4AC84EC652C4AE842A
:10287C009397556063D3070803C58193EF00905D70
:10288C002A8429C918219307000D6312F7043C21EF
:10289C004547638BE7046547639BE70217250200F6
:1028AC001305856CEF10A222130954009309B40090
:1028BC00172A0200130A8A6C834509005285050900
:1028CC00EF10E220E31A39FF2945EF10E2232285AD
:1028DC00EF00B04C1395F468F2406244D244424984
:1028EC00B249224A0561828070216C3117250200A1
:1028FC0013054569EF10A21DD9BF93F7150085C3C9
:10290C0017F6FF1F1306C69797F5FF1F938585963D
:10291C0003C58193EF70217713C5140075BF13F5B0
:10292C0025005DD9713E1166130686A9894503C53C
:10293C008193EF10A04A13C5240079BF797122D47A
:10294C004AD052CC06D626D24ECE56CA91472A84AD
:10295C002E89138A4193631AF502BE252397F192AF
:10296C002388019283A7019291C7DC4781C7CA854E
:10297C002285829723208A00B25022549254025905
:10298C00F249624AD24A4561828003270A00E31B5E
:10299C00F7FC9384E1928A208545B1368A208545DF
:1029AC00292B83DA0400C167F917639AFA0285446C
:1029BC009305E1001305504123880192A381918274
:1029CC0023070100EF5051621C87A1E303C7C1929A
:1029DC009147E319F7F8F1332386019261B783A984
:1029EC00819283C44192E1D403D5290011C9930586
:1029FC00E100EF70C00509C54C455685EF80206796
:102A0C00FD1493F4F40FA109F9BF83A7C191DC2342
:102A1C00898BCDDF9305000A0D45EF30C067930518
:102A2C00000A1145EF30206781450545EF30A0665F
:102A3C001306E1008545130550304487EF7051169D
:102A4C0071B70111170500001305C5E106CE22CCA4
:102A5C00EF1030121384819385471306F1008545DE
:102A6C0008A013054041DC87EF60A1407D55EF6065
:102A7C00A01D7D55EF80805C2931EFF0FF985D2E15
:102A8C00170500001305C5D5EFF0DF9A17050000F8
:102A9C00130585CDF12608206244F2408545056179
:102AAC006F10001423A0B19223AEA190828023A4B6
:102ABC00B1922382A1928280797106D622D426D239
:102ACC004AD04ECE52CC83A7419311476398E70A64
:102ADC0083C7019399EB4144B250228522549254FE
:102AEC000259F249624A45618280B284B68903A4D4
:102AFC00819283C7419203C7318285C3542063906E
:102B0C00A6025430639DB6007420639AE6002A2016
:102B1C0093056100EF60B07301E9554475BFFD1773
:102B2C0093F7F70F2104D1BF1389E1924C4503555C
:102B3C000900EF60F00D05896DD1035509000147BF
:102B4C0081462686ED45035A0400EF6020472AC6CD
:102B5C004D4459D12686CE85231441016485EF005E
:102B6C0090570355090001462C00EF7040642A84ED
:102B7C0025D5ED452800EF60E05BB9BF0947E38C34
:102B8C00E7F42C001305504123040100EF50D1450C
:102B9C001C8485CB930500020D45EF30C04F930587
:102BAC0000031145EF30204F95450545EF30A04E01
:102BBC00854730008545130550305C84EF70417EAD
:102BCC0019BFC53609BF41114AC03689D44126C246
:102BDC0006C622C48032B284902222040D68518C25
:102BEC0001CF1308B8A42D4563040407B240224456
:102BFC0092440249410182809306D8A4630FD40009
:102C0C00930628A2630BD400F5789388E85CA2980D
:102C1C008546B3C8080863E91603AA25A9360DC171
:102C2C0083A701922286224403A807004C31B240AC
:102C3C004821A6874A879244024985464101028869
:102C4C002310090001455DB71306B8A46315C4022F
:102C5C0003D8C1821D45E37B07F9CC453308E84016
:102C6C00B347F80ABA952310F90033C6070826852E
:102C7C00EF007046C1BF9307A8A46318F4009147F6
:102C8C002310F9001146CC45DDB7930788906317E4
:102C9C00F40089472310F9000946F5B79307E8A417
:102CAC006318F400DC452310D9009C239CA059BF69
:102CBC0013087890E31804F9E9BF011106CE22CC71
:102CCC0026CA4AC8748763140710DC412E89B28463
:102CDC00803394238D672204558C9386D7A4630686
:102CEC00D400938627A3631AD4020355A900A53CEC
:102CFC0001E90145F2406244D244424905618280B7
:102D0C0083A7019203A807004C314821A68713071B
:102D1C00E100814622860298F1BF9386C7A4631214
:102D2C00D402388785473545E316F7FC1C2213057A
:102D3C000008E361F7FC03A7019258433E85029714
:102D4C004DBF93862790631DD40434878547EF606D
:102D5C0060714DF190309C208356A90022065D8E47
:102D6C0003A7819283C74192C9D72E236395D502BD
:102D7C0083A7019203A80700854748234C338D464F
:102D8C006313F60089460D66A6871307E100130648
:102D9C0026900298B9BFFD1793F7F70F2107E9B7F3
:102DAC009387E7A4E317F4F4388785473545E31395
:102DBC00F7F41C2213050008E36EF7F2D8453335FF
:102DCC00F00009051CA303A7019258438DBF2D45A4
:102DDC0015B70145828021EFDC41AE8803C807009E
:102DEC009C33A207B3E707010D68930EF8A4639810
:102DFC00D70391473548639DF60203A5C80032837B
:102E0C00411111469A8506C6EF00F02C054583A7A3
:102E1C0041948297B24001484285410182809308D7
:102E2C00289029486396170185476F60A0632D4849
:102E3C004285828041654111938501A87D1506C6A6
:102E4C00EF80E022B24097E6FF1F9386264441466E
:102E5C00994517E5FF1F1305254441016F80801626
:102E6C0023A2A19482800111938501A822CC06CEC5
:102E7C002A84EF60E05905890DCD0147814605464E
:102E8C00ED452285EF6080132AC605C597E7FF1F25
:102E9C0083D727457C8485477C8523000500014624
:102EAC002C002285EF70A03009C5ED452800EF609D
:102EBC006028F240624405618280C167F917630C97
:102ECC00F502411122C406C685472A84639AF5008F
:102EDC0022852244B240938501A841016F802019BC
:102EEC0089476396F5008545EFA0804975D1B240BE
:102EFC00224441018280828011456FE0DF85B287D8
:102F0C00411113962500BE8506C6EFF02F92B240F4
:102F1C00014541018280411122C413942500A285F0
:102F2C0006C626C24AC0AA843289EFF0AF86228632
:102F3C00CA85268597D0FF1FE780803BB24022448C
:102F4C0092440249014541018280011122CC06CEF6
:102F5C003714004026CA4AC84EC652C4834474056E
:102F6C00034AB4058349840503499405EFE0CFD4A3
:102F7C008347A40593F4F40F137AFA0F93E7170021
:102F8C00230DF40493F9F90F1379F90FB7170040D7
:102F9C0003C7A705058B6DFF03D5C705A38D470593
:102FAC00238C3705A38C2705A38B9704F24062442E
:102FBC00D2444249B249224A05618280411122C45D
:102FCC0006C62E849397556063DB0700612511C1FB
:102FDC00E9231315F468B24022444101828093F72F
:102FEC00150013C51500E5FB8967ED8F85C3EF1040
:102FFC00C121193737F60200130606E0896503C5AF
:10300C00C194EF00B05D1315D468F1B711656D8DE7
:10301C0079D1172502001305A5F8EF00F24C130621
:10302C000064916503C5C194EF00505B1315E4680F
:10303C005DB71D714946972502009385A5F61725A6
:10304C0002001305A52D86CEA2CCEF00301B01E9A2
:10305C0017250200130545F6EF00124901A0B7F73A
:10306C0000E023A40700795798CB3D4798C305642B
:10307C00B7E700E023A087180F10000017E7FF1F29
:10308C001307C7A623A4E194130700F8A38AE7400B
:10309C001306000481450808EF00100B97E7FF1F8B
:1030AC00938707663EC8896793870780FC82B7B70A
:1030BC0003003ECCB7070105938707103ECEED47C2
:1030CC002310F10285472301F10297070000938733
:1030DC0047E3BEC297070000938727E4BEC493075B
:1030EC0014D12312F10297F7FFFF938707073ED8FD
:1030FC003705040097070000938767E53EDC194607
:10310C0097070000938787DF2C00130585213EDE8F
:10311C00EFE0DFF1A2473ED43C862316F102C24712
:10312C0081C7BC8263F3870001A00808EF10202838
:10313C00AA8501C917250200130545E9EF003219CC
:10314C0001A0F640664425618280411117050000FC
:10315C00130505E706C622C4EF10A0211384C19401
:10316C0008A0112808202244B240130600328965B9
:10317C0041016F00B046797106D613078008F3370A
:10318C00078093F787083EC20F100000B717004066
:10319C00930570052380B704130680FA2380C704B7
:1031AC000F10000083C6F70293F6A60FA387D70271
:1031BC00238007049246F3A606800F100000733795
:1031CC000780137787083AC40F1000002380B704D8
:1031DC002380C7040F10000003C7F70213672700F2
:1031EC00A387E70223800704A247F3A707800F10E9
:1031FC0000000D45EFE0AFB3013381470147814635
:10320C00054685451305407EEFE04FB768005146F3
:10321C008145EF006073B707C0A83EC8B787E803C5
:10322C00938707D03ECA680097D7FF1F9387E74163
:10323C003EC6EF10004EB2504561828082803D89BF
:10324C007D15954763E6A70E17270200130747E481
:10325C003345E5201C41011106CEBA9782872C001C
:10326C0013054030EF7041002C000545EF405069CC
:10327C0017250200130585D7EF001227F2400561D0
:10328C008280B8218D4717250200130525D7E31737
:10329C00F7FEF24005616F003225B8219547E31F18
:1032AC00F7FCBE250D6613060620914503C5318437
:1032BC002398F182EF00903217250200130505D5F3
:1032CC00C9BFB8218D47172502001305E5D4E317B4
:1032DC00F7FAC1B7BC21114717250200130545D5D4
:1032EC00638CE70219476392E702EC211725020071
:1032FC001305C5D5EF00A27D854730008545130524
:10330C0050305C84EF70C10995BF1547E396E7FE1A
:10331C0017250200130545D5EF00121DF1BFF24031
:10332C00AC21172502001305A5D505616F00227A83
:10333C0082803688BA863E876315080094226FF027
:10334C002FBE85476314F8006FF0CFBF8947631F0A
:10335C00F80041111306401F894503C5318406C688
:10336C00EF00D027B24001454101828001458280A7
:10337C00011122CC06CE2E849397556063DD070095
:10338C0003C53184C12C11C1092C1315F468F2400A
:10339C0062440561828093F7150013C51500E5FBA7
:1033AC0093F7450099CF83C731841307401F81469B
:1033BC002146A14503D50183EF60514813454400D4
:1033CC00F9B793F785009DC30147894609468145A6
:1033DC0003D50183EF70612EAA8517250200130512
:1033EC00A5CCEF00C26E1345840055B713F525002C
:1033FC0059DD9307001074000946854505457C8608
:10340C00EFF08FEB74000946854505452316010046
:10341C00EFF08FEA13060064894503C53184EF0091
:10342C00F01B13452400A5B7011117050000130567
:10343C0065F406CE22CC26CAEF00B0739384318497
:10344C00054488A070008545130550304086EF6018
:10345C0031751386C1839D4513056030EF6051743F
:10346C0017E6FF1F130646EAF54513057030EF60AB
:10347C003173172602001306A6C4D5450145EF503B
:10348C00806C8D4770009145130570405C854084BD
:10349C00C08502C6A3040100EF50B11D3000854564
:1034AC0013050040EF50F11C1306910085451305E0
:1034BC001040EF50111C1306A10085451305204048
:1034CC00EF50311B1306B100854513055040EF50EA
:1034DC00511A99477000854505455C86EFE0FFF56C
:1034EC00EFF0AF9B97E5FF1F938505E113854183B3
:1034FC00EFF04FDB62448820F240D24485450561F1
:10350C00C5A541111D4506C6EFD05FFD130560240E
:10351C0097D0FF1FE78020F3B71700409387870AE7
:10352C0098438545130500101367072098C3EFE0F7
:10353C009FB18D4513050020EFE0FFB0EFE09FD168
:10354C0017250200130585DDEF00027ADD34F53E08
:10355C00EF70E116EFF0EFCEC13D97D0FF1FE78083
:10356C00A01123AC05FE1C4181E70CC18280BA87F7
:10357C0003A787FF6DFF23ACB7FE8280184183A79A
:10358C0085FF6319B7001CC1FD5723AC05FE238FC3
:10359C00F5FE8280232CF6FEC5BF411122C437E410
:1035AC0000E026C204403707200006C6F98C232011
:1035BC00E4180F10000009E9232094101545B240BF
:1035CC0022449244410182800347E5FF9307F00FA8
:1035DC006306F700232094101145D5B7EF20A240C5
:1035EC00014523209410E1BF411126C2B7E400E04D
:1035FC004AC003A90400B707200006C622C43379C9
:10360C00F90023A0F4180F10000009E923A02411DD
:10361C00B2402244924402494101828095659385CF
:10362C0005D0C98D2A842105C2054205C18141817D
:10363C00EF20422C01CDFD572320050023128500DD
:10364C002303F50023A024112105D9B723A02411AD
:10365C0001457DBF0111B7E700E04AC803A9070087
:10366C004EC63707200006CE22CC26CAAA8933794B
:10367C00E90023A0E7180F1000009707002093879C
:10368C00E78C80438144014619E499E8A1654E8595
:10369C00EF00101F05A08347E4FF6399370385CC27
:1036AC00A685170500201305658AC93D65D0A1655F
:1036BC004E853D23F2406244B7E700E023A027117A
:1036CC0026854249D244B2490561828091E0228626
:1036DC00032484FF55BFA284E5BF41114AC037E9DA
:1036EC0000E022C4032409003707200006C626C2C6
:1036FC00798C2320E9180F10000089E5232089100C
:10370C00154515A0AA849707002083C777842E85BA
:10371C0063F5F400894763EE97004135B7E700E0A5
:10372C0023A087100D45B240224492440249410126
:10373C00828083A785FF99E703C7E5FF9307F00F06
:10374C006308F700993DB7E700E023A087104DBF51
:10375C00238F95FE17F5FF1F1305457F1935A165BE
:10376C002685BD2901452320891075BF97F7FF1FBA
:10377C0023AE077C8280A5C1011106CE22CC26CABD
:10378C008147C14633D7F540058B29C312053E95B9
:10379C0031473305E50217070020130767840443FC
:1037AC0005443314F4002EC642044180AA949C4074
:1037BC00C8408297B24523A0040023A20400A18D27
:1037CC00F2406244D2442E85056182808507E39BDA
:1037DC00D7FA0144EDB72E858280C9C1797122D404
:1037EC0006D626D24AD04ECE01444147B3D78540A7
:1037FC00858BA5C31205314722953305E50297F752
:10380C00FF1F9387E77D03A907008544B3948400C9
:10381C00C204C180BE892A990327090011C7032558
:10382C0049002EC60297B24531473304E40283A700
:10383C0009003E941C4489E7232009002322090037
:10384C00B2502254A58D02599254F2492E854561ED
:10385C0082800504E31CE4F88144DDB72E85828068
:10386C0097F7FF1F9387C7739C53411122C406C659
:10387C001384418499C782971C403E9523A2A1844E
:10388C0039A097F7FF1F9387E7709C43EDF708402B
:10389C00B74703009387D73F3305F502B7A7260038
:1038AC00938737ECB24022443E9523A2A184410178
:1038BC00828097F7FF1F9387676E9C4399E33E8541
:1038CC00828003D727006316B70003C70700E308FD
:1038DC00A7FEDC47E5B7B7E700E09843B706200042
:1038EC0023A0D718758F0F10000001C599C181470F
:1038FC0011E6B7E700E023A0E7108280B386F5005D
:10390C0003C80600B306F500850723800601E317FC
:10391C00F6FEC5B737E700E01C43B70620002320AE
:10392C00D718F58F0F10000019C191C111E637E7B8
:10393C0000E02320F7108280910503A7C5FF110535
:10394C007D16232EE5FEDDB737E700E01C43B706F6
:10395C0020002320D718F58F0F10000001C5330766
:10396C00C50011E637E700E02320F710828005053B
:10397C00A30FB5FEE31DE5FEF5B7B7E700E09843EE
:10398C00B706200023A0D718758F0F1000008147B1
:10399C00B306F5008386060099E6B7E600E023A09F
:1039AC00E6103E8582808507E5B70111B7E700E098
:1039BC0022CC80434AC83707200006CE26CA2A8963
:1039CC002E86798C23A0E7180F1000001315060122
:1039DC009305F004418132C6EF10D271AA8401C55F
:1039EC003246CA85CD3DB7E700E023A08710F240F0
:1039FC00624426854249D2440561828037E700E063
:103A0C001C43B70620002320D718F58F0F10000099
:103A1C0001C599C1014711EA37E700E02320F710EF
:103A2C00054582800507E309E6FE3308E500B38609
:103A3C00E5000348080083C60600E305D8FE37E717
:103A4C0000E02320F7100145828037E700E01C439B
:103A5C00B70620002320D718F58F0F10000013078E
:103A6C00F6FFBA952A966317C50037E700E02320C6
:103A7C00F7108280FD1503C715000505A30FE5FEA1
:103A8C00DDB737E700E01C43B70620002320D7182A
:103A9C00F58F0F10000001C53307C50019E637E795
:103AAC0000E02320F7100145828005058346F5FFD1
:103ABC00E397B6FEE31BE5FE37E700E02320F710A3
:103ACC00054582807971B7E700E022D4804337083E
:103ADC00200006D626D24AD04ECE52CC56CA5AC850
:103AEC005EC662C43374040123A007190F100000D2
:103AFC0005E123A087100945B25022549254025973
:103B0C00F249624AD24A424BB24B224C4561828006
:103B1C0097F7FF1F938707489C43BA8A368AB28B64
:103B2C002E8BAA89829797F7FF1F9387674B984331
:103B3C003E898144B146C147338CD4023306870198
:103B4C00104251E6C165938505F04145EF10925A3C
:103B5C0005E197F7FF1F9387A7449C5B81C78145BD
:103B6C0011458297B7E700E023A087102D4569B770
:103B7C0097F7FF1F93878742984331E797F7FF1F0B
:103B8C0023AEA74023000500832709000547331700
:103B9C00970023260500232475012311E500232219
:103BAC005501E29723A0370123A2670123A45701F3
:103BBC0063040A0023009A00B7E700E023A08710F3
:103BCC0001451DBF3E875C47F5FF48C765BF8504AF
:103BDC00E394F4F6B7E700E023A08710214529BF52
:103BEC00B7E700E09843B706200023A0D718758FDD
:103BFC000F10000097F6FF1F83C696356373D5022E
:103C0C0017F6FF1F13064639931615000842369512
:103C1C0083560500D58D2310B50023A0E710014570
:103C2C00828023A0E7100D458280B7E700E098431F
:103C3C00B706200023A0D718758F0F10000097F639
:103C4C00FF1F83C6F6306375D50217F6FF1F1306E8
:103C5C00A63493161500084293C5F5FF3695835686
:103C6C000500F58D2310B50023A0E71001458280D7
:103C7C0023A0E7100D458280011137E700E026CA2A
:103C8C000443B706200006CE22CC4AC84EC652C406
:103C9C00F58C2320D7180F100000130705FF13779E
:103CAC00F70FFD4763E5E70AB146B306D50297F770
:103CBC00FF1F9387E732984336971C43C9CB135A9F
:103CCC00450005443D893315A400131405014180BA
:103CDC002E895285A285F13EAA8929CDA2855285CD
:103CEC00A93797F7FF1F9387E72A9C43829797F78B
:103CFC00FF1F83D72730338727032A848146130677
:103D0C000064B3B7270313050732B335E500BE953E
:103D1C00EFF05122B307850097F6FF1F9386062D0F
:103D2C003E87D44263E4A70063E4D7003387D740CF
:103D3C0023A4E900B7E700E023A097100145F24067
:103D4C006244D2444249B249224A05618280B7E7B3
:103D5C0000E023A097100945DDB70111B7E700E09B
:103D6C0026CA84433707200006CE22CC4AC84EC64A
:103D7C00F98C23A0E7180F100000BD4763EAA704D5
:103D8C0031473307E50297F7FF1F938767259C435D
:103D9C00BA979C4395CF05443314A4004204418048
:103DAC002E890145A285EFF0DFB0AA8911C5A28545
:103DBC000145A53D23A42901B7E700E023A09710F6
:103DCC000145F2406244D2444249B24905618280C5
:103DDC00B7E700E023A097100945E5B779714AD001
:103DEC0037E900E026D283240900B707200006D665
:103DFC0022D44ECE52CC56CA5AC85EC6FD8C232055
:103E0C00F9180F10000097F7FF1F83C77714637A18
:103E1C00F50097F7FF1F9387E71783AB07006397AE
:103E2C000B00B7E700E023A09710A9A017FBFF1F1A
:103E3C00130BCB1B832A4B00B74736FE938707C85F
:103E4C002E8A97F5FF1F83D5E51ABE9AB387C50254
:103E5C002A84B2898146B3B5C50213850732B337BC
:103E6C00F50013060064BE95EFF0D10C63F0AA02C6
:103E7C00232099100145B250225492540259F24910
:103E8C00624AD24A424BB24B45618280829B97F583
:103E9C00FF1F83D52516B38735032A8913060064C3
:103EAC008146B3B5350313850732B337F500BE959C
:103EBC00EFF05108B30725013E8903274B0063E45B
:103ECC00A70063E4E7003389E740D2852285EFF051
:103EDC005F9E09C923242501B7E700E023A09710B2
:103EEC00054551BF936504F0C205C1814145EF10F2
:103EFC00722019E997F7FF1F9387870A9C5B95D36C
:103F0C00A2851145829731BF97F7FF1F9387070949
:103F1C009C4385E797F7FF1F23A2A7088547232615
:103F2C000500232425012311450123008500A3004E
:103F3C00F500232205004DB7BA87D84775FFC8C7CF
:103F4C00F1BF7971B7E700E026D284433707200030
:103F5C0006D622D44AD04ECE52CC56CA5AC85EC6C9
:103F6C0062C466C26AC0F98C23A0E7180F10000067
:103F7C003DC14144B689B28A2E8A2A89B14C17FBBD
:103F8C00FF1F130BEB05054D130C0003B30B940330
:103F9C0003270B005E971C43A5E39375F400B31540
:103FAC00BD0013554440C2055686C1811375F50FEB
:103FBC00353539C183270B00DE9723A0270123A2B7
:103FCC0047016384090023808900B7E700E023A040
:103FDC009710014521A023A097100945B2502254F7
:103FEC0092540259F249624AD24A424BB24B224C89
:103FFC00924C024D456182800504E31984F9B7E7C0
:10400C0000E023A097102145D1BF0111B7E700E0D4
:10401C0026CA844322CC4AC84EC63707200006CE97
:10402C002A84AE893289F98C23A0E7180F1000007E
:10403C0075332285CE85EFF0DF872A8405C597F589
:10404C00FF1F83D525FBB387250313060064814628
:10405C00B3B5250313850732B337F500BE95EFF0E2
:10406C00616D48C013351400F2406244B7E700E0BC
:10407C0023A097104249D244B2490E0505618280B3
:10408C000111B7E700E04AC803A9070022CC4EC6CD
:10409C003707200006CE26CAAA892E843379E90078
:1040AC0023A0E7180F100000EFF0BF80AA8419C1FD
:1040BC0023110500A2854E858D3E97F7FF1F83C700
:1040CC0027E9639B370197F7FF1F83D767EC5D8C5C
:1040DC0097F7FF1F239E87EAB7E700E023A027117D
:1040EC00014591E01945F2406244D2444249B2493B
:1040FC000561828001114AC837E900E022CC032413
:10410C000900B707200006CE26CA4EC67D8C232098
:10411C00F9180F1000009307F00263E8A704B147E9
:10412C00B304F50297F9FF1F938989EB83A7090064
:10413C00A6979C439DCB9377F5008545B395F500E9
:10414C00C205C18111812D3F83A709000145A697A6
:10415C0023A0070023A2070023208910F240624409
:10416C00D2444249B24905618280B7E700E023A0FE
:10417C0087100945E5B74111B7E700E026C2844333
:10418C0006C622C437072000F98C23A0E7180F10AD
:10419C000000EFF00FF219E90145B2402244B7E7F5
:1041AC0000E023A0971092444101828097F7FF1FF3
:1041BC00938747DE9C430045829797F7FF1F9387B1
:1041CC00E7E26368A402D843B74636FE938606C876
:1041DC003305A4403697E371E5FC13070064B3354F
:1041EC00E50203D6870081463305E502EFF08154E2
:1041FC006DB7D8433A94C1BF411106C697F7FF1F5C
:10420C0023A4A7DE0295B24097F7FF1F23AAA7D4D9
:10421C00014541018280994763E9B7008A0597F708
:10422C00FF1F938727D5BE9588C1828097F7FF1F04
:10423C0023AAA7DA11C5854717F7FF1F230BF7D45D
:10424C00828041117146814517F5FF1F130585D2F8
:10425C0006C697F7FF1F23A307D497F7FF1F23A5C5
:10426C0007D897F7FF1F23A707D297F7FF1F2382C3
:10427C0007D297F7FF1F23A707D6EFF0EFEC130633
:10428C000002814517F5FF1F130585CCEFF0CFEB2E
:10429C00EF60A14C97F7FF1F938787D003C5C70327
:1042AC0083C7D70385453E958D473305F502390500
:1042BC001375F50F97F7FF1F238DA7C89947330583
:1042CC00F50213050524EF10E26217F7FF1F2329EF
:1042DC00A7D049CD994717F6FF1F034686C733066B
:1042EC00F602814513060624EFF00FE697F7FF1F41
:1042FC00938707CF9C439387072417F7FF1F232926
:10430C00F7C617F7FF1F0347C7C40A07BA9717F773
:10431C00FF1F2323F7C8EFF06FC5ED2997F7FF1F99
:10432C00938707C5944397F7FF1F83C777C21397EB
:10433C002700369717F6FFFF1306664A10C313873C
:10434C0017001377F70F0A07369717F6FFFF1306B8
:10435C00C64210C313873700890793F7F70F8A07F4
:10436C0097F5FF1FA386E5BEB69790C3B2404101F7
:10437C00828097F7FF1F83C7B7BD17F7FF1F03474F
:10438C0047BD63F3E70217F7FF1F130767BE184318
:10439C009386170017F6FF1FA30CD6BA9396270027
:1043AC00369708C33E8582809307F00FE5BF1C410A
:1043BC0063880714370700F07D8FB7060020894704
:1043CC006311D71403574500630D0712411122C422
:1043DC0019462A849305F00F610506C6EFF06FEAC3
:1043EC0005478D476309E5101C4481CB5858994704
:1043FC0063030710185C6300071013060004814563
:10440C0017F5FF1F1305C5B9EFF00FD41306000401
:10441C00A28517F5FF1F1305A5B8EFF0CFCB97F7C3
:10442C00FF1F83D7A7B899E79307001017F7FF1F53
:10443C00231EF7B697F7FF1F83C767B791E785472A
:10444C0017F7FF1F2305F7B697F7FF1F83D747B65C
:10445C0091E7ED4717F7FF1F231CF7B497F7FF1FE2
:10446C0083C7F7B491E7954717F7FF1FA301F7B47C
:10447C0097F7FF1F83C7E7B391E7854717F7FF1F30
:10448C002309F7B297F7FF1F83C7B7B299EB97F7DA
:10449C00FF1F9387E7B083C7F70017F7FF1FA30A27
:1044AC00F7B097F7FF1F83C7F7B081CF13F737002B
:1044BC00898397F6FF1F2383E6B217F7FF1FA30F1D
:1044CC00F7B097F7FF1F83C7E7AE91E7C54717F71C
:1044DC00FF1F2301F7AE8347640199E79307C003DD
:1044EC0017F7FF1F2309F7ACFD5717F7FF1FA3039F
:1044FC00F7D8813B8147B24022443E8541018280FE
:10450C0089473E85828037C700408326C720B7077E
:10451C00FCFFFD17F58F2326F7200100010097F70C
:10452C00FF1F9387E7A2C84B832787262326D72014
:10453C006A0593C7F7FF99835D8D828001114EC682
:10454C0097F9FF1F938989AA83A7090006CE22CC6D
:10455C0026CA4AC852C4829713090064B33525038E
:10456C0003DA89008146528633052503EFF0811C5E
:10457C0097F7FF1F9387C79D804BAA84014563065D
:10458C00940233858440636E940003A549005286DF
:10459C008146B335A9023305A902EFF0A119018DAB
:1045AC00269597F7FF1F23AD979AF2406244D244A9
:1045BC004249B249224A05618280011122CC0A8506
:1045CC002E844146971502009385058A06CEEFC0CE
:1045DC005FEC180806043A94035504FF97F7FF1F85
:1045EC0083D767A1F2406244AA9737450F001305A1
:1045FC0005243355F5020561828097F7FF1F83D799
:10460C00879F51471D45637CF702794719456378AD
:10461C00F7021307200315456373F7021307B00461
:10462C001145637EF700130740060D456379F700CB
:10463C001307600909456374F70013B5B70F82803F
:10464C00011122CC06CE2A842EC6EFF06FA1B24502
:10465C00F240818D33A5A502229562441375F50FA6
:10466C0005618280011122CC06CE2A842EC6EFF081
:10467C002F9FB245F240818D33A5A502229562444D
:10468C004205418105618280011122CC06CE2A842B
:10469C002EC6EFF0EF9CB245F240818D33B5A502EA
:1046AC00229562440561828097F7FF1F9387478F9D
:1046BC00985739CF411126C206C6BE8422C483D76F
:1046CC004195B9C3029703D741952A840DCBBA877C
:1046DC006373A700AA87C207C183BA866373E40019
:1046EC00A286C206C182958F1307C0036359F700D7
:1046FC00DC5491C38297EFF05031239A8194B240ED
:10470C0022449244410182800297239AA194C5BF0E
:10471C00828097F7FF1F23A5078E97F7FF1F9387BC
:10472C002788DC57011106CEAA8581C72AC6829735
:10473C00B245D9CD9C410545C9CBDC41D9C783D7FE
:10474C008500C1C783D7A500C9C3514617F5FF1F04
:10475C001305C589EFF02F9897F7FF1F238E078855
:10476C0097F7FF1F938787889C4317F7FF1F232317
:10477C00F78297F7FF1F83C717848DE7930780573E
:10478C0017F5FF1F035505873305F50237460F0054
:10479C001306062481468145EFE0D17997F7FF1F78
:1047AC00A38BA78017F7FF1F0347F780A54763E785
:1047BC00E700A94717E7FF1FA30FF77E17050000B7
:1047CC00130505D8EFF05FA30145F2400561828027
:1047DC0097E7FF1F23A80778970700009387E7D276
:1047EC0017F7FF1F2324F7807D5797F7FF1F23A18F
:1047FC00E780B7873200938727A197E6FF1F23AB8B
:10480C00F67E97E7FF1F2389077EB7C7004023A4D6
:10481C00E726B9B7011122CC17E4FF1F1304447823
:10482C00084406CE26CA4AC801E90545F24062444E
:10483C00D2444249056182805C58E5DB185C75D72F
:10484C007000854582971844B247E300F7FE930544
:10485C00E00417E5FF1F03556575EF10A20917E774
:10486C00FF1F2323A77071D117E6FF1F0356067491
:10487C009305F00FEFF04F8D814417E9FF1F1309DB
:10488C00296D97E7FF1F83C787720326890163CFC2
:10489C00F4003285EF102215014597E7FF1F23A581
:1048AC00076C97E7FF1F23A3076C49B797E5FF1F1A
:1048BC0083D5C56FB38795020844185C898185043C
:1048CC003E9508C2029775BF011156C297EAFF1FA9
:1048DC00938A0A6D83A78A0022CC4AC84EC606CE9C
:1048EC0026CA52C45AC0AA892E84328963880720EA
:1048FC0003A74A03630307141307F01F6361A7148C
:10490C0097E4FF1F9384C46403AA840163130A0A07
:10491C009565938515E017E5FF1F03552569EF0095
:10492C00727D97E7FF1F23A1A7642A8663070510F2
:10493C0083A74A0303A58A0097E5FF1F83D5056764
:10494C008981829783A78A0003AA840117E7FF1F36
:10495C00232EF76089476398F908C147631FF40C4D
:10496C0097E5FF1F83D58564938505FC9147B3C5F7
:10497C00F5028A05D29503C725009307A005631A93
:10498C00F70A83D705006396370B4A852286910573
:10499C00EFE07FF49C4C5285639D47130145F24038
:1049AC006244D2444249B249224A924A024B0561BE
:1049BC008280D84CE380E7FA9565938525E017E56E
:1049CC00FF1F0355A55EEF00F2722A8A3DC52A86A9
:1049DC0083A74A0303A58A0097E5FF1F83D5055DCE
:1049EC008981829785BF8D47639DF900C147631606
:1049FC00F40497E5FF1F83D5655B938545FDF1991D
:104A0C0095BF9147639AF9006319340397E5FF1F2B
:104A1C0083D5C559A115E5B793070010639FF9001D
:104A2C00A14763EC870097E5FF1F83D52558C11577
:104A3C00F9B79C4C52856390470D29458DB71D6A7B
:104A4C00568B637B4509130A05E01947334AEA0282
:104A5C0017E7FF1F0357875597EAFF1F938A4A4FA3
:104A6C00330AEA023E9A83A7CA016395470183A4DD
:104A7C008A018DE49305E00417E5FF1F03550553E8
:104A8C00EF005267AA8455D983274B0397E5FF1F84
:104A9C0083D5C5512A868981528582979145130702
:104AAC00A005898193972500A69783C62700639F4D
:104ABC00E60283D607006398360385058A052286AD
:104ACC00A6954A85EFE03FE183A78A01E38897EC3E
:104ADC002685EF005271D9B521677917E36FA7F4DA
:104AEC00330A4541B5B783C5370065BF83A78A0133
:104AFC00E38597F42685EF00126F81B797E7FF1FC8
:104B0C00938707458C4F95D991479306A0058983C8
:104B1C00139727002E9703462700E310D6F203566F
:104B2C000700631A360185078A072286BE954A85D7
:104B3C00EFE07FDAA5B583473700D1BF97E7FF1FBA
:104B4C0093870746984729C79C5FB9C305476311EC
:104B5C00E504411122C417E4FF1F1304643F104CF9
:104B6C0006C61DC2484C97E5FF1F83D52544898195
:104B7C008297084CEF00326797E7FF1F23A6073E8A
:104B8C0097E7FF1F23A4073EB240224441018280D5
:104B9C008280011117E7FF1F130787404EC6832938
:104BAC00870022CC26CA4AC806CE52C456C2AA8452
:104BBC002E843289638B091E1C5FBA8A99EB2945B6
:104BCC00F2406244D2444249B249224A924A0561B7
:104BDC0082805C5BEDD79307F01F63E6A70E97E925
:104BEC00FF1F9389E93683A78901A1CB03A58A000E
:104BFC0083A7C9016391A7068947639FF406C14740
:104C0C00E31FF4FA17E5FF1F0355453A91471305C7
:104C1C0005FC3345F5029317250003A5890122866F
:104C2C00CA853E959307A0052301F5002310950036
:104C3C001105EFE05FCA014561B79305E00417E584
:104C4C00FF1F0355A536EF00F24A97E7FF1F23AD70
:104C5C00A73049FDADB783A74A0303A6890197E5A1
:104C6C00FF1F83D5A5348981829783A78A0017E714
:104C7C00FF1F232DF72E49B78D47639EF400C147C4
:104C8C00E31FF4F217E5FF1F03554532130545FDED
:104C9C009377C5FF59B79147639AF400E31194F2E7
:104CAC0017E5FF1F035585302115DDB7930700105D
:104CBC00E397F4F0A147E3E487F017E5FF1F0355F2
:104CCC00E52E4115F1B79D676379F506930705E06D
:104CDC001947B3C7E70217E7FF1F0357272D17EA3A
:104CEC00FF1F130AEA26B387E702BE9983278A01BE
:104CFC00A1CF8327CA016397370703258A01914601
:104D0C001308A0059305F00F93D7260013972700DF
:104D1C002A9703462700631D06078358070003469E
:104D2C00370063939806B306D64063CD8604850797
:104D3C008A072286CA853E95EDBD21677917E36007
:104D4C00A7E8B307F54041BF9305E00417E5FF1F43
:104D5C000355C525EF00123A97E7FF1F23A6A7209E
:104D6C0049F9B1BD83A74A0303268A0197E5FF1FC2
:104D7C0083D5C52389814E85829797E7FF1F23A78B
:104D8C00371FA5BF2310B70093160601C182ADBF14
:104D9C00B385860017E6FF1F0356462191051306BF
:104DAC0006FC63EEC5082D4521BD97E7FF1F9387D1
:104DBC00271A944FBE89A9C203A5890191461308ED
:104DCC00A0059305F00F93D72600139727002A9779
:104DDC000346270063160605835807000346370071
:104DEC0063989800B306D640E3D386F42310B7003B
:104DFC0093160601C182C1BF8357C70017E5FF1F79
:104E0C000345E51A9305E0043305F502420541819B
:104E1C00EF00522E97E7FF1F23A8A71451FD45B3AF
:104E2C0017E6FF1F0356861897E5FF1F83C5251845
:104E3C00B385C502338686001106E3E6C5F6130674
:104E4C003400719A1106B2962301070123109700C2
:104E5C00A301D700E9BD01458280011106CE2EC603
:104E6C00EF80404001C9B245F24003552500056171
:104E7C006FC0802EF240494505618280A380019865
:104E8C002380019823A4019623A6019623A80196BA
:104E9C0023AA019623A2019623A0019697E7FF1F50
:104EAC0093874718930640382391D702F17613075E
:104EBC00400B938606B82391E7002392D702116723
:104ECC009D46130600059305000A1305007D2392E9
:104EDC00E7002393D70241478546130810F8239522
:104EEC00E7002396E7002399E700239AE700239B2A
:104EFC00E700239CE7002394E70223900700239309
:104F0C00B7002394B7002397C7002398C700239DAD
:104F1C00A700239E0700239F0700239007022395D9
:104F2C00D70223960703239707029308F0072398C9
:104F3C0007022392E7042393E704239FE7042390BB
:104F4C00E7062391E7062392E70623991703130735
:104F5C00C01C239AD702239BD702239C0702239DB4
:104F6C000702239E0702239F070223900704239125
:104F7C00D70423940704239507042396D704239777
:104F8C00C7042398C7042399A704239A0704239BD7
:104F9C000704239C0704239DC704239EC704239363
:104FAC00A70623940706239507062396070623973F
:104FBC00B7062398B70623990706239AE7065147A5
:104FCC00239DE7067D57239B0706239C0706239EFC
:104FDC00D706239F0706239007092391E7088280B1
:104FEC00011126CAAA84214522CC06CE2E8432C6B3
:104FFC0036C43AC2EFE04FDF1DC9A2461247324613
:10500C00930700FD2300F5009947A30095002301A9
:10501C00F5002303D500A303E5002312C500AA85E0
:10502C0022856244F240D24405616FE00FEBF240FE
:10503C006244D2440561828023A4A196828023A677
:10504C00A196828023A8A196828023AAA196828011
:10505C00011122CC4AC806CE26CA2A890144B304BF
:10506C0089006368B400F2406244D244424905614D
:10507C0082802EC6EFE0CFFE93170501C183A1837A
:10508C00B2452380F4009307140093F7F70F8504BF
:10509C0063F9B700CA9709042380A7001374F40FAF
:1050AC007DBF3E847DBFC16717E5FF1F0355E5F546
:1050BC00FD176304F502411117E6FF1F0346860A2C
:1050CC009385819706C6EF709078B240FD5717E72D
:1050DC00FF1F231CF7F241018280828009C925152C
:1050EC001375F50F1335850E134515008280014598
:1050FC00828023900500C9C6797122D426D24ECE67
:10510C0052CC5AC806D64AD056CA5EC63684328AA3
:10511C00AE892A8B814463F34407B307940083C799
:10512C000700138914004209939A070193DA0A01C4
:10513C001359090163840A04CA976341FA04B3073B
:10514C00240183CB07005E85513F0DC99387FAFF7D
:10515C002390F90063906B03130519002295B2504C
:10516C00225492540259F249624AD24A424BB24BEF
:10517C0045618280D694C204C18071BF0145C5B718
:10518C0001458280411126C2AE8422C497E7FF1FDD
:10519C0023A4C7E897E7FF1F23AEB7E697E7FF1FE7
:1051AC0023A8A7E62A8441469305F00F26854AC01A
:1051BC0006C60549EFE0FF8C631E250397E7FF1F2A
:1051CC00938747E4884BC145613541469305F00F01
:1051DC002285EFE01F8B854463169502224497E7E6
:1051EC00FF1F938727E2B24092440249C847C1454A
:1051FC004101B9BD414681452685EFE09F88E31604
:10520C0025FD6DBF414681452285EFE09F87E30771
:10521C0095FCB240224492440249410182804111E2
:10522C0022C426C22E84AA8413060002814517E5E7
:10523C00FF1F130525DD06C6EFE00FF197E7FF1FF3
:10524C00A38397DC97E7FF1F238087F2EFB0D07220
:10525C00854719C181474945B240224417E7FF1FD2
:10526C002302F7DA924441018280814781CD19C92A
:10527C008547631BF50083C7550093E707FCA382A2
:10528C00F50085473E85828089476317F50083C703
:10529C00550093F7F703E5B70D478547E314E5FE93
:1052AC0003C755001377F70313670704A382E500C0
:1052BC00D1BF81478DC105C103C755009306000CB2
:1052CC0085471377070C6308D700930600048D47B6
:1052DC006303D70089473E858280411122C4005D5B
:1052EC0006C626C21DC0AA84085019C1EF00A26FC1
:1052FC00485019C1EF00226F085419C1EF00A26E7B
:10530C002285EF00426E23AC0402B2402244924448
:10531C004101828009ED97E7FF1F83C7C7CE17E5D0
:10532C00FF1F1305A5CF81CB13858195828017E5CF
:10533C00FF1F1305A5CE828017E5FF1F0345A5CCE3
:10534C00828097E7FF1F9387E7CBC847828097E758
:10535C00FF1F938727CB884B828097E7FF1F93878C
:10536C0067CADC4B8843828097E7FF1F938787C906
:10537C00D84B1C4385071CC317E5FF1F0345B5C855
:10538C009307F00F6305F50091656FE07F858280D0
:10539C00011122CC06CE2E8432C6EF70F07C9147E0
:1053AC00B245631FF500938741979C438DC303A3BC
:1053BC000700630E030022856244F24005610283FC
:1053CC009387C1969C4381C703A34700DDB7F24086
:1053DC006244054505618280011122CC2A84035563
:1053EC00450006CE26CA4AC84EC6EF70D05635C503
:1053FC002A89834405008349C500C5354A85EF8059
:10540C00603403554400EF70F07183C70198B1CB41
:10541C006399970483C511982685EFF01FA419E1B1
:10542C002380019803554400EF7010749147631F5B
:10543C00F5000357440097E7FF1F83D707BD631799
:10544C00F700FD5717E7FF1F2311F7BCF24062442A
:10545C00D2444249B2490561828081499304F00FDC
:10546C006DB79307F00FE38FF4FA8346640003568D
:10547C004400034524004E87A685EFF07FB65DB748
:10548C0079715EC6AA8B2E8552CC56CA5AC806D6DE
:10549C0022D426D24AD04ECEAE8A328B368AEF70C8
:1054AC00904B69C9045D2A89F1C49C50614599C32C
:1054BC00130540039C5481C7510542054181630586
:1054CC000A00710542054181DC5081C75D0542052A
:1054DC004181EFE06F912A8451CD61468145EFE027
:1054EC00AFC697E9FF1F83C9E9B6639409008349E6
:1054FC000900930700FD2300F400A947A3007401E1
:10550C002301F400230364018C502312540113056E
:10551C00840181C908C47146930A4403EFE0AFBB10
:10552C0056858C5481C948C45146930A4501EFE015
:10553C008FBA5685630A0A0008C87146D285930A49
:10554C00C501EFE04FB95685CC5089C548C85D46BA
:10555C00EFE06FB8A2854E85EFE02F982254B25041
:10556C009254F249624AD24A424BB24B4A85025992
:10557C004561A5B3B250225492540259F249624A81
:10558C00D24A424BB24B4561828001114EC6AA8968
:10559C002E854AC806CE22CC26CA2E89EF70B03B87
:1055AC0031C597E4FF1F83C4E4AA99E08344050046
:1055BC001945EFE06F832A8415C981451946EFE040
:1055CC00AFB8930700FD2300F400B947A3003401E2
:1055DC002301F40023122401A2856244F2404249C3
:1055EC00B2492685D24405616FE02F8FF2406244A8
:1055FC00D2444249B2490561828039715ECEAA8B90
:10560C002E8526DA4ED652D456D25AD006DE22DC5D
:10561C004AD8AE84328BB68A3A8ABE8942C6EF70BB
:10562C00903331C92A894145EFD01FFC2A8421C50A
:10563C0041468145EFE04FB117E5FF1F034585A1BA
:10564C0019E103450900930700FD2300F400BD4751
:10565C002301F400B247A300740123129400230425
:10566C006401A304540123054401A30534015CC463
:10567C00A285EFE08F86F2506254D2544259B2594F
:10568C00225A925A025BF24B21618280797126D2A6
:10569C00AA8439454AD04ECE06D622D42EC6B2891B
:1056AC003689EFD07FF415CDB2459307000D23104A
:1056BC00F500B1472A842312B5002301F500CE85ED
:1056CC0019051946EFE02FA123062401A2852254C7
:1056DC00B2500259F24913F5F40F925445616FD050
:1056EC00DFFFB250225492540259F2494561828034
:1056FC0017E7FF1F034737919307F00F630BF7066C
:10570C00411126C2AA84394522C406C64AC0EFD02C
:10571C00BFED2A8429C9930700FD2300F500A300DF
:10572C0095002301050097E5FF1F9385258F0D0537
:10573C001946EFE04F9A17E9FF1F1309A98C8357FD
:10574C008900A28517E5FF1F0345F58B2315F4008F
:10575C00834719002306F4002244B24092440249C4
:10576C0041016FD09FF7B24022449244024941015B
:10577C008280828001115AC02A8B314526CA4EC6BE
:10578C0052C456C206CE22CC4AC8AE84B28A368ADD
:10579C00BA89EFD07FE535CD2A842685EF70B01B12
:1057AC0011C50347C500A1476314F70417E9FF1F90
:1057BC0003497985930700FD2300F4009D47A3005E
:1057CC0064012301F40023129400231354012314C5
:1057DC00440123153401A2856244F240D244B249FB
:1057EC00224A924A024B4A85424905616FD0FFEE2C
:1057FC0017E9FF1F03495997E31E0BFA9387C1A1C1
:10580C009C439C47C5DBCE865286D68526858297DF
:10581C0055B7F2406244D2444249B249224A924AB4
:10582C00024B05618280011122CC2A84214506CECF
:10583C002EC6EFD07FDB21C1B245930700FD2300BC
:10584C00F500C5472301F50083C73500A301F5001A
:10585C0083D745002312F50083C765002303F500A9
:10586C0083C77500AA85A303F50022856244F24024
:10587C0005616FD09FE6F240624405618280397108
:10588C0062CC2A8C594526DA4AD84ED652D456D2F6
:10589C005AD05ECE06DE22DCAE8432C636C4BA8B5B
:1058AC003E8BC28A468A8359010403494104EFD0D6
:1058BC00BFD325C53246930700FDA2462300F50051
:1058CC009547A301C500A30085012301F5002A8497
:1058DC00194611059DCEB685EFD0FFFF2306640156
:1058EC00230A24012315740123175401231844019E
:1058FC0023193401A2856254F2504259B259225AEA
:10590C00925A025BF24B624C2685D25421616FD0C5
:10591C00DFDC8145EFE04F83D1B7F2506254D254B3
:10592C004259B259225A925A025BF24B624C216193
:10593C00828097D7FF1F83C7076D9DC74111AA852A
:10594C0019461385819506C6EFD0FFF8938581958E
:10595C0017D5FF1F0345256BEFF03F91B240138520
:10596C00819541016FB0D0010145828017D7FF1F8F
:10597C00034777699307F00F6303F708411126C2B9
:10598C00AA84294522C406C6EFD01FC62A841DCD81
:10599C00930700FD2300F500A1472301F500A300A8
:1059AC00950097D7FF1F9387E76583C727009385DB
:1059BC0081951105A30FF5FE1946EFD0DFF1A285F5
:1059CC0017D5FF1F03453564EFD03FD117D7FF1F05
:1059DC00034767638D47631FF700938701979C43C9
:1059EC0091CB03A38700630703002244B240924487
:1059FC0041010283B240224492444101828017D774
:105A0C00FF1F034747608D47631AF7009387019781
:105A1C009C4389C703A38700E31D03FC8280797133
:105A2C0022D406D626D24AD04ECE52CC094445C9F1
:105A3C002A89035505002E8A5144EF70C071AA843F
:105A4C0059CD97D7FF1F83C72772FD1793F7F70F11
:105A5C00054749446375F7080347C500A14763141C
:105A6C00F700631E0A069C5C4544B5EB9165938573
:105A7C0045711305C002EFF0F16788DCAA894D442B
:105A8C0039CD1306C0028145EFD01FEC83570900B6
:105A9C009386490036852391F90071469305490098
:105AAC0036C6EFD05FE389472380F90003C5C400F5
:105ABC00B24603560900611597D5FF1F83C5856A49
:105ACC0013351500EF8030062A8463060A00D28550
:105ADC002685EF70107501C42685EFF01F80228596
:105AEC00B250225492540259F249624A4561828062
:105AFC0097D7FF1F83C74767FD1793F7F70F054726
:105B0C006376F708894741C6011122CC26CA4AC8D8
:105B1C004EC652C406CEAA89368AB2842E89EF703C
:105B2C0080632A84D14739C5485519C1EFF0B16B50
:105B3C00F1452685EFD07FE748D4CD4705CD834688
:105B4C00C40021478147639FE600630D0A000347A9
:105B5C00A5010356050193062501AA854E85EF7014
:105B6C00D073AA8703474400630F090013676700CB
:105B7C002302E400F2406244D2444249B249224A30
:105B8C003E850561828013674700DDB7C9473E85B6
:105B9C0082809307000463EBA70097D7FF1F9387BE
:105BAC00674806053E9503550500828041657D15C5
:105BBC008280011122CC2A842E8526CA06CEAE8480
:105BCC00EF7060590DCDB7470F009387F723094548
:105BDC0063E2870281450A854146EFD0FFD6A68550
:105BEC00231081000A85418023018100A30101005B
:105BFC00EF800060F2406244D244056182804945E6
:105C0C00D5BF97D7FF1F2380A75682806F80406C2B
:105C1C00797152CC2A8A328522D426D24AD04ECEE1
:105C2C0056CA5AC85EC606D662C4AE8BB28A368BCA
:105C3C00BA843E89C2894684EF70E05115C92A8C1A
:105C4C0063140A0213774B008347450015CF93E783
:105C5C0027012302FC008DEC631C0902639A0902E4
:105C6C0005E8ED9B2302FC00832B8C0363990B0648
:105C7C00B250225492540259F249624AD24A424BCF
:105C8C00B24B224C45618280F59B93E70701D1B75B
:105C9C0093E747002302FC0011C81C484146A2852B
:105CAC002324FC0213058C01EFD0FFC2639F0B0071
:105CBC00C5DC0325CC0219C1EFF0F152F145268564
:105CCC00EFD0BFCE2326AC0245B7E30F09F803256E
:105CDC00CC0219C1EFF03151F1454A85D5B79DC0C1
:105CEC0083A70B0289EB9165938535717145EFF0B4
:105CFC00714023A0AB0203A50B0209C57146A68512
:105D0C00EFD07FBD6384090283A74B0289EB9165B9
:105D1C00938525715D45EFF0F13D23A2AB0203A500
:105D2C004B0209C55D46CE85EFD0FFBA1DC083A7D7
:105D3C008B0289EB9165938515715145EFF0913B81
:105D4C0023A4AB0203A58B0209C55146A285EFD053
:105D5C009FB82254B2509254F249B24B224CCA868C
:105D6C005A860259424BD6855285D24A624A4561BF
:105D7C006FF00FF1011126CA52C406CE22CC4AC8CC
:105D8C004EC62A8AAE84EF70003D35C1AA893945CA
:105D9C00EFD09F852A8421CD17D9FF1F0349892B6A
:105DAC006314090003C909009307000D2310F400C4
:105DBC00AD472301F400938569001305340019469F
:105DCC00EFD07FB193F71400858085882306F4000B
:105DDC00A306940023154401A2856244F240D244E8
:105DEC00B249224A4A85424905616FD01F8FF24061
:105DFC006244D2444249B249224A0561828001116F
:105E0C004EC652C456C206CE22CC26CA4AC8AA8A4C
