:040000006F00C01EAF
:10000400B717004003D76701411133470708137737
:10001400F7EF33470708239BE7001307800873377C
:100024000780137787083AC60F100000130770057E
:100034002380E704130780FA2380E7040F100000ED
:100044001307000C6317E50403D787001367070C35
:100054002394E700B717004003C7E7021367C700FC
:100064002387E70203C7E7041377C70F1367170053
:100074002387E70403D7670113670710239BE7006F
:1000840023800704B247F3A707800F100000410143
:10009400828003C7A70093750520BDC1118B29E396
:1000A40003C7E70483C6A7001377F70F93E6460058
:1000B4002385D70083D6870003D68700B3C60608F6
:1000C4001366060C2394C700A5470100FD1793F798
:1000D400F70FE5FFB71700402394D7002387E70401
:1000E400371700408347A70093E707012305F7006C
:1000F4009377F50199EBB72700401307500429A81B
:10010400136727002385E700E1BF93778501E5F7AF
:10011400B7270040130790042382E7809307002841
:100124006311F504B7170040130720202394E70058
:100134000100010001000100371700409316B028A8
:1001440083578700F58FEDDF930700282314F7000A
:10015400371700408347A70093F7D70F2305F7000D
:10016400D5BD93070008631EF502B7170040094781
:100174002394E7000100010001000100371700404B
:100184009316B02883578700F58FEDDF9307000897
:100194002314F700371700408347A70093F7B70FDE
:1001A40075BFB7170040334505082394A700FDD158
:1001B40045B7D1473305F50201007D1575FD8280F1
:1001C400411122C426C206C6AA84014463179400BE
:1001D400B24022449244410182801305803E0504CA
:0801E400C93F33440408DDB7F4
:1001EC00971100209381C185178100201301C1E074
:1001FC001305400097050020938505E017060020A5
:10020C00130606FE63FAC5008322050023A05500E1
:10021C0011059105E3EAC5FE1745000013054514C9
:10022C00970500209385C5FB1386418363FAC500AF
:10023C008322050023A0550011059105E3EAC5FEB4
:10024C0013854183938581C36377B5002320050013
:10025C001105E36DB5FE93025002739002BC8D4202
:10026C00739042808542739012BC93028008739005
:10027C000230970200009382221893E232007390AE
:10028C005230970200009382E22473901234730070
:10029C002030000000000000000000000000000002
:1002AC000000000000000000000000000000000042
:1002BC000000000000000000000000000000000032
:1002CC000000000000000000000000000000000022
:1002DC000000000000000000000000000000000012
:1002EC000000000000000000000000000000000002
:1002FC0000000000000000000000000000000000F2
:10030C0000000000000000000000000000000000E1
:10031C0000000000000000000000000000000000D1
:10032C0000000000000000000000000000000000C1
:10033C0000000000000000000000000000000000B1
:10034C0000000000000000000000000000000000A1
:10035C000000000000000000000000000000000091
:10036C000000000000000000000000000000000081
:10037C000000000000000000000000000000000071
:10038C000000000000000000000000000000000061
:10039C000000000000000000000000000000000051
:1003AC000000000000000000000000000000000041
:1003BC000000000000000000000000000000000031
:1003CC000000000000000000000000000000000021
:1003DC000000000000000000000000000000000011
:1003EC000000000000000000000000000000000001
:1003FC000000000000000000000000009C04000051
:10040C00CE0A0000A9BDF9F39C0400000000000016
:10041C00000000009C0400009C0400000000000090
:10042C00000000009C040000000000009C04000080
:10043C00000000009C0400009C0400009C040000D0
:10044C009C0400009C0400009C0400009C04000020
:10045C00000000009C0400009C0400009C040000B0
:10046C009C0400009C0400009C0400009C04000000
:10047C009C0400009C0400009C0400009C040000F0
:10048C009C0400009C0400009C0400009C040000E0
:10049C0001A02A8309CA83830500230073007D16FB
:1004AC00050385056DFA82802A8311C62300B300EB
:1004BC007D16050365FE828019C94111AA85174571
:1004CC000000130565BB06C6EF20C07601A0828034
:1004DC005D711D4586C6A2C4A6C252DC56DA5AD836
:1004EC005ED662D4CAC04EDE66D26AD06ECE4D21C4
:1004FC001305602497000020E78000B037140040FB
:10050C001307840A1C4385451305001093E7072045
:10051C001CC3C1298D4513050020E121712D834594
:10052C001404174500001305A5B68964EF208070EC
:10053C009387818923ACF1829387818523AAF182E9
:10054C00EF00704BC526174500001305E5B5238E4B
:10055C000182054BEF203011138AC183938A41BE6F
:10056C00974B0000938B4BB2138C41BF9384047157
:10057C003787004083476700858B8DE783470A00E8
:10058C00638B07121305800C238E018297000020C9
:10059C00E78080C2EF00B04C09CD17450000130571
:1005AC00A5BDFDA823036701A925D547E318F5FCD4
:1005BC00D1BF17450000130525B0EF20D00A914795
:1005CC002380FA00294417450000130525B1EF20BC
:1005DC009009EF10B008AA8509CD2AC67D14130521
:1005EC00200397000020E78020BD1374F40FB24560
:1005FC0079F803C70A00914763F9E70A1745000029
:10060C001305C5AEEF20300697450000938585AEE7
:10061C00138581ADEF20F005EF2040059307300BDB
:10062C005E89631CF500174500001305A5ADEF208E
:10063C00900317490000130969A5CA8517450000E6
:10064C00130585AEEF20005F0144938981ADFD5CFD
:10065C00130D2004930D3004CA854E85EF207001D4
:10066C004E85EF2030024E952300950123208C00FF
:10067C00EF10D07F6300A5036317B503A285138623
:10068C0081AD17450000130525AB0504EF20805AFA
:10069C00E31494FCEF20A04F17450000130545AB65
:1006AC00EF20607C09A8093DF5B71745000013053C
:1006BC00E5AAEF2020581305400697000020E7809C
:1006CC00A0AF054575236DB56F009021797122D4CB
:1006DC0026D24AD04ECE52CC56CA5AC85EC662C436
:1006EC0066C26AC006D6AA842E89814C1384818581
:1006FC00938991C2130C00F8138A41C1A94A130BB8
:10070C008002938B01BE138DC1BE83C709004A853D
:10071C0023068401B397F40013D787002304F40055
:10072C00A304E40013D70701E183A305F400834776
:10073C000A002305E40023075401A306F4002384D4
:10074C00018683A70B00A3076401A30B940013D7A6
:10075C008701A308E40013D707012309E40013D78A
:10076C008700230AF400A309E400A38601862387EB
:10077C00018623880186EF00306583470D0013F551
:10078C00F70F89CF6685EF1020302300AD0083472B
:10079C000D009DC303450D001375F50FB250225487
:1007AC0092540259F249624AD24A424BB24B224C01
:1007BC00924C024D45618280850C93FCFC0F8D4759
:1007CC00E395FCF4FD472300FD007D45C1BF397165
:1007DC0022DC26DA4AD84ED652D456D25AD05ECE25
:1007EC0062CC66CA6EC606DE6AC8AA842E89814CA3
:1007FC0013848185138A91C2938A41C1294C130BAE
:10080C00A002938B01BE938DC1BE8D4983470A0014
:10081C004A8523078401B397F40013D78700230478
:10082C00F400A304E40013D70701E183A305F4004B
:10083C002382018683C70A002305E400A307640111
:10084C00A306F4002384018683A70B00A30B94005A
:10085C0013D78701A308E40013D707012309E40089
:10086C0013D78700230AF400A309E400A3860186AA
:10087C002387018623880186EF00105583C70D005E
:10088C0013FDF70F9DE71305800C97000020E78000
:10089C00C091F2506254D2544259B259225A925ACF
:1008AC00025BF24B624CD24CB24D6A85424D2161D7
:1008BC0082806685EF10401D2380AD0083C70D003C
:1008CC0091C703CD0D00137DFD0FE1B7850C93FC93
:1008DC00FC0FE39D3CF3FD472380FD007D4D55BF90
:1008EC003787004083473700094693F7F707A30182
:1008FC00F700834757000347370093F7F70F9376BA
:10090C00F70F631BC70013F7170019C7918B99C317
:10091C002382D1BE0145828085472382F1BE594591
:10092C0082808280411106C6EF00D0493D47930773
:10093C00F00F637BA704970700209387E79D23A6FE
:10094C00F1BC23AAF1BA238201BEA547A384F1C24C
:10095C0093070020239CF1BE23A401C0930700043D
:10096C002397F1C0B78700401387C70123A4E1BCCC
:10097C001387870123A8E1C21387C702A10723A409
:10098C00E1BA23AAF1BC8147B2403E854101828085
:10099C00371700408347E7041205411193F7F70816
:1009AC00C98F93F7F70F93068008F3B6068093F67A
:1009BC00860836C60F100000930670052300D70476
:1009CC00930680FA2300D7040F1000002307F704C6
:1009DC0023000704B247F3A707800F100000410162
:1009EC008280914763ECB704973700009387C77AEE
:1009FC00B3C5F52098413E97B71700409387470B36
:100A0C000287944337170040B3F6A64094C393066D
:100A1C00070B9C42B3F7A74019A894433717004023
:100A2C00B3F6A64094C39306070B9C42C98F9CC295
:100A3C009307070A98433377A74098C3828094435F
:100A4C0037170040C98ED9B798433377A74098C35E
:100A5C00B71700409387070A9843498FF9BF98430B
:100A6C00498FF5B7B716004003D78600B347070880
:100A7C001377070405E7FD8B99EB83D7860093F773
:100A8C0007209DC73755E80113050580828037552F
:100A9C00E801130505803345F502828013F7070C36
:100AAC0093060004631BD700FD8B37459C1CD5B700
:100ABC003725F4001305054082802165130505D008
:100ACC008280411113078008F337078093F787085A
:100ADC003EC40F100000B7170040130670052380AA
:100AEC00C704930680FA2380D7040F100000FD552D
:100AFC002396B70223800704A245F3A505800F10A7
:100B0C00000073370780137787083AC60F10000070
:100B1C002380C7042380D7040F10000003C7670489
:100B2C00136717002383E70423800704B247F3A756
:100B3C0007800F10000001A0328581473737004035
:100B4C00A14663C3A70082800346B740E30ED6FEDE
:100B5C003386F5000346060085072304C740D5B746
:100B6C0097F6FF1F9386C66DAA878842138781C3A9
:100B7C00AA9763E9E7000A87130707FC6364F70089
:100B8C009CC282807D558280411122C406C62A8473
:100B9C00D13D2947B307E502B2408D83B3D7870215
:100BAC0022449507B3D7E70237370040B3C707088D
:100BBC002316F74041018280716541111305052010
:100BCC0006C6D937B7370040130770F82381E740C2
:100BDC000D47A381E74013070004A380E7400547B6
:100BEC002387E740B2404101828085472382F1BED2
:100BFC008280411106C63787004003455700938712
:100C0C0041BE05891DC903C6070085466307D6008A
:100C1C00034717000145058B11EF05472380E700BB
:100C2C00173500001305855809472380E700EF208E
:100C3C0080235545B2404101828083C60700054799
:100C4C00E37AD7FE17350000130505572380E7001C
:100C5C00EF2060215945F9BF3787004083473700A3
:100C6C001375F50793F70708C98FA301F700828066
:100C7C0082804111A147014506C622C4A38EF18290
:100C8C0037840040D13F834714003D4593F7E70F6D
:100C9C00A300F4008347140093F7970F93E7270002
:100CAC00A300F40097F0FF1FE78000518347140066
:100CBC001305A00F93F7D70FA300F40097F0FF1FB5
:100CCC00E780A04E85472303F400B2402244410143
:100CDC00828003C741BE854763E5E70089472382CD
:100CEC00F1BEB787004003C757005945058B01CBB0
:100CFC0003C71700014513671700A380E700828024
:100D0C005D71A2C4A6C2CAC04EDE52DC56DA5AD8F5
:100D1C005ED662D466D26AD06ECE86C6B7870040E5
:100D2C002387B702B78900402A8AB2842385B70289
:100D3C00935A4500014913846900894B094CD54CE1
:100D4C00138B41BE7D5DB94D23844903230084017F
:100D5C009307803E03470400098B01EF05453EC60F
:100D6C0097F0FF1FE7806044B247FD17B3C7070831
:100D7C00F5F32384090283470400898B81E713056B
:100D8C00E00F69A083470400858B8DCB854723003A
:100D9C00F4008535854763149501238EF182034752
:100DAC000B008547630BF70A83470B006389770BAE
:100DBC001305800C97F0FF1FE780203F834704004A
:100DCC00898BC9CB83C7790093F70704D9EB03C58B
:100DDC0079003D896309B509A947631DF500D9C49C
:100DEC00FD576383F400FD143D4597F0FF1FE7802A
:100DFC00C03B99BFA547638AFA02B5476385FA00E1
:100E0C008547E39EFAF60DC913650502B6402644E4
:100E1C0096440649F259625AD25A425BB25B225C42
:100E2C00925C025DF24D6161828085679387978049
:100E3C00B3D7A700858BE9DB3D4597F0FF1FE78013
:100E4C00C03605091379F90F8D47E31FF9EE130529
:100E5C0000026DBF2300A401C5B7594545BF5545D8
:100E6C0075B7014565B71305E0024DB71305A00230
:100E7C0071BF011126CA4AC8AE842A891305800C99
:100E8C0006CE22CC4EC652C456C25AC097F0FF1F93
:100E9C00E780A03199C02380040037840040A1472B
:100EAC00096A2306F40213060A7181451305000D25
:100EBC00813D631E0516930700FD2307F4022305ED
:100ECC00F40285472306F402938A418383A70A0020
:100EDC00173500001305052F03C4770003C76700FF
:100EEC002204598CA285EF10F05463000410630E99
:100EFC00090E83A70A00173500001305A52D83C51D
:100F0C000700EF10305383A70A008387070063C9DB
:100F1C000706138BD183B7890040130A0A71130596
:100F2C00800C97F0FF1FE780402883470B00637409
:100F3C00F4009377F40F2386F902814703C7C902A3
:100F4C006395E71283C5E90252864145553B65E13D
:100F5C0083C7C902B307F44033C4070881C883C7E9
:100F6C00C90203C70400BA972380F4004DF883C567
:100F7C0004001735000013052527EF10B04BB5A062
:100F8C00B7890040130A0A71938A8183138BD1832A
:100F9C001305800C97F0FF1FE780202183C5A90261
:100FAC00528613050009A93B59E103C789009377C1
:100FBC00F40F6376870083C7890093F7F70F1D8CB6
:100FCC003344040891C403C704003E972380E40013
:100FDC0001479376F70F6396D7063E9983C789002E
:100FEC00A5EFB7870040238607021305800C97F006
:100FFC00FF1FE780801BB787004083C7C7024145AE
:10100C0099C3130500090966130606719305000CB4
:10101C00C53911EDB787004003C7C7021375F70F29
:10102C0019C783C7870013F5F70F91C35D45F240CD
:10103C006244D2444249B249224A924A024B056167
:10104C00828083A60A00BA9603C60600B306E9009E
:10105C0005072380C600B5BF83470B0003C7890073
:10106C00FD17F98FBDFF0DF4ADBF03A70A00834632
:10107C00090005093E9785072300D70093F7F70F62
:10108C0075BD814793854183A1463307F50003461F
:10109C00070098413E972300C7008507E397D7FECA
:1010AC008280011122CC06CEA14713858182138444
:1010BC00D1832300F400F1379305F100138581B23D
:1010CC004D3B19E90347F10083C7F1B22300F4004B
:1010DC00C54763E3E7005D45F240624405618280E9
:1010EC0001111385018206CE22CC26CA593F9305E5
:1010FC00F100138581B2B53B2A8425E10347F10049
:10110C008D475D4463FBE704938481B203C43400D0
:10111C0083C724001385018222045D8CA307810000
:10112C008D3783A7418323838700A383070093050F
:10113C00F10026853D3B2A840DE10347F10093071E
:10114C00000463F4E700A307F1000346F100938564
:10115C0081B213858185EFF0CFB3F24022856244D2
:10116C00D24405618280411126C2AA8413858181F3
:10117C0006C622C4393783A7418323819700A381F4
:10118C00070081450145F5312A8401E92685E934BA
:10119C00294597F0FF1FE7802002B24022852244A8
:1011AC00924441018280411122C42A841385018119
:1011BC0006C6C13D83A74183238187002244B240E8
:1011CC00A381070081450145410165B1411122C44C
:1011DC002A8417F5FF1F1305250706C65D3583A75F
:1011EC004183238287002244B240A38207008145B9
:1011FC0001454101BDB9B7870040130700F82380B2
:10120C00E70003C7070013174760E35C07FEA380E2
:10121C000700A381070013078004A386E70003D708
:10122C008183239CE70003D74183239EE70023851A
:10123C00070223870702130790F82380E7001307A0
:10124C0000042383E7027D572383E70005472382AD
:10125C00E1BE0D472381E700238E018282800111BC
:10126C0017350000130505F906CE22CC26CA4AC84C
:10127C004EC652C4EF10303FED3A8144014413097D
:10128C004006054597F0FF1FE78000F3993401E90C
:10129C00850493F4F40F6366990E0544DDB70504D9
:1012AC001374F40FE31F24FDEFF03F941735000087
:1012BC00130545F8EF10303B59445DA8B387840003
:1012CC0083C5070052850504EF10D0161374F40F74
:1012DC00E36624FF2945EF10D01983D7840003C996
:1012EC00A1814A852392F90083D7A40003CA440044
:1012FC002393F9008D3D2A8405E117350000130571
:10130C00E5F0A3802901EF10F012D93B2A8417399C
:10131C000000130929EF0DC9A2851735000013052C
:10132C00E5EFEF103011894705452382F1BEEFF050
:10133C003F943DA8B387840083C507004A85050404
:10134C00EF10500F1374F40F83D72400E364F4FEF2
:10135C002945EF1010121304B00F631B0A0003C7CA
:10136C00E400A1476316F70091472382F1BE0144C4
:10137C00F24022856244D2444249B249224A056174
:10138C008280938981B103C52900EFF07F8E1735D8
:10139C0000001305A5ECEF10F00921332A842DFD74
:1013AC009387818203C9770003C76700938481B256
:1013BC0022093369E900173A0000130AAAE409BFAD
:1013CC004111094506C622C426C297F0FF1FE780CB
:1013DC00A0DE83C7C1BEA38BF1C2EFF06FD0AA878A
:1013EC003DE503C741BE8D469307300863F1E60621
:1013FC0083C641C313061002238CC1847D56938788
:10140C008185A38CC18423810700A38107002382DB
:10141C00D700A382070023830700A383070081451D
:10142C00893C2386A1BE5947AA876302E50203C5FE
:10143C0081BD3D89613B03C581C23D8913650508AA
:10144C00713383C771C3A38B01C22386F1BEB24033
:10145C00224492443E85410182804111054706C6D3
:10146C002382E1BEEFF0CFC719E113053008B2407B
:10147C0041018280411122C483A701BE03A7C1C1CF
:10148C0006C601456384E70283A541BB03A7C1BC23
:10149C0023AEF1C06308B7020545EFF02FA32386F6
:1014AC00A1BE09E903C5C1BE1375F50FB2402244B4
:1014BC00410182807D5723A6E1C223AEE1C0238C7B
:1014CC0001BACDB7054523A6F1C2EFF02FA02386B4
:1014DC00A1BE69D9C5B7411122C483A701BE03A718
:1014EC00C1C206C601456384E70283A5C1BC03A73C
:1014FC0041BB23A6F1C26308B7020545EFF00F9D6F
:10150C002386A1BE09E903C5C1BE1375F50FB24010
:10151C002244410182807D5723A6E1C223AEE1C063
:10152C00238C01BACDB7054523AEF1C0EFF00F9A6D
:10153C002386A1BE69D9C5B783A701BE83A541BBCC
:10154C00411103A7C1BC22C406C623AEF1C063057A
:10155C00B7020545EFF0AFA72386A1BE01C97D57A1
:10156C0023A6E1C223AEE1C0238C01BAB2402244CF
:10157C0003C5C1BE4101828023A6F1C2D9BF83A796
:10158C0001BE83A5C1BC411103A741BB22C406C641
:10159C0023A6F1C26305B7020545EFF04FA32386DE
:1015AC00A1BE01C97D5723A6E1C223AEE1C0238CA5
:1015BC0001BAB240224403C5C1BE4101828023AEB0
:1015CC00F1C0D9BF41458280797126D213075005ED
:1015DC0056CA238CE18413073005A38CE18483A7BE
:1015EC0081BA13072004238DE1841307300422D41D
:1015FC004AD04ECE52CCA38DE18406D67D475AC834
:10160C005EC662C42390E7002A8483C571C303C5F8
:10161C0081BD37060200EFF0AFEE2386A1BE59471D
:10162C00630FE514938B818515CD93878185938406
:10163C00818798439107D8CFE39D97FE5133DE877E
:10164C009853910723AEE7FEE39C97FE83C571C3C5
:10165C0003C581BD37060200EFF08FEA2386A1BED9
:10166C00631B051683C49B0003C68B0083C7AB00AA
:10167C0003C771C383C6BB00A204D18CC207C58F3C
:10168C001347070493948601A38BE1C2DD8C63841A
:10169C0004108386CB0083D7E1C063D40608138B78
:1016AC00818991A000C383C571C303C581C237066C
:1016BC000200EFF0EFE42386A1BE631E051403C7FE
:1016CC0071C383A641BD83D7E1C013470708A38B21
:1016DC00E1C283D6060063E1F4189D8C639ED71497
:1016EC003E94638B041403A701C3E3FDF4FA232097
:1016FC00670155BF23A088002390F60083D7E1C073
:10170C009D8C3E94EFF0CFDF2386A1BE2DE103C765
:10171C0071C313470704A38BE1C26386040E83D7FE
:10172C00E1C003C881BDBA853706020083A881BC1D
:10173C0083A681BA4285E3FFF4FA23A078012390B3
:10174C009600814703460400B38677018507C207DC
:10175C002380C600C1830504E39697FE370602007A
:10176C00BA854285EFF0CFD92386A1BE79C903A7EC
:10177C0081BC9307E00223207701630FF506B2507A
:10178C00225492540259F249624AD24A424BB24B09
:10179C00224C4561828003C581C237060200BA859E
:1017AC00EFF00FD62386A1BE79F983C771C303A7C7
:1017BC0041BD93C707F8A38BF1C2FD472386F1BE49
:1017CC0003570700B5476314F70203C5418A29C1C3
:1017DC00854763FEA7002254B25092540259F24935
:1017EC00624AD24A424BB24B224C4561D1BE03C530
:1017FC00C1BE1375F50F61B703C581BD3D89EFF00F
:10180C00FF9C03C771C383A781BC23A0770161B779
:10181C00238601BEADB783A601C31307E00223A044
:10182C006601E31EE5F403C581C23D891365050815
:10183C00EFF0DF9903C771C383A701C323A067012E
:10184C0099BF03C771C383A781BC13470704A38B3C
:10185C00E1C223A0770181B763E5D402F1DE93875F
:10186C00F6FFC207C1838507A2975A8783460700F4
:10187C0005040507A30FD4FEE39A87FE03C771C3C3
:10188C0065BF93960401C182D9BF4111294506C693
:10189C0097F0FF1FE780409203C741C19387818572
:1018AC00A386E700C94619472384D7002387E7009E
:1018BC00930600F80D47A387E700A3840700494768
:1018CC0023850700A38507002386D700138581870E
:1018DC00A389E70023880700A38807002389070052
:1018EC00238A0700A38A0700238B0700A38B07001A
:1018FC00238C0700D139154597F0FF1FE780C08B6B
:10190C0083C7C1BE014593F7F70F81CF03C5C1BE95
:10191C00D9471375F50F6309F500D547630CF5002E
:10192C000145B2404101828005472382E1BE23A4D8
:10193C0001C0C5BF09472382E1BEE5B73971A54790
:10194C0022DCA384F1C2BD472382F1BC26DA4AD83B
:10195C004ED652D456D25AD05ECE62CC66CA6AC823
:10196C006EC606DE938D8185938441BC214B930A10
:10197C0000F8130A5002A949854C4D4D81A063FA19
:10198C00DC0A6308A70BA380E400013703C541BC44
:10199C0003C7140072057D85137585F71305850C37
:1019AC002386E1BE97F0FF1FE780008103C741BC8F
:1019BC007D171377F70F2382E1BC25CF03C741C1F5
:1019CC001385818723846D01A386ED00A3840D000C
:1019DC0023850D00A3850D0023865D01A3874D0192
:1019EC0023880D00A3880D0023890D00238A0D0088
:1019FC00A38A0D00238B0D00A38B0D00238C0D00EF
:101A0C0023873D01A3890D00C13603C7C1BE1377DF
:101A1C00F70F9306B7FE93F6F60F35F383C76D02F7
:101A2C0011476382E70421476384E70441476388D5
:101A3C00E70403C791C28547B397E700C207C18388
:101A4C00F2506254239CF1BE03C514004259D25487
:101A5C00B259225A925A025BF24B624CD24C424D12
:101A6C00B24D21618280A38431C393070040C9BF6A
:101A7C00AD47A384F1C2856793870780D1B7B1477F
:101A8C00A384F1C285676DBF411126C2AA840545A6
:101A9C0006C622C497E0FF1FE7800072854763F3F8
:101AAC00970683C741BEC94693F7F70F6388D700E3
:101ABC00C14663F8F6002382D1BE21A0954723824C
:101ACC00F1BE83C7C1BE93F7F70FAD1793F7F70FAE
:101ADC0005476374F700553B05C1094597E0FF1FA7
:101AEC00E780806D03C5C1BED9471375F50F630C34
:101AFC00F502D5476303F504B240224492440145F4
:101B0C004101828083C7C1BE93F7F70FDDFC094505
:101B1C0097E0FF1FE780406A03C5C1BED947137524
:101B2C00F50FE318F5FCB240224405472382E1BED1
:101B3C0023A401C0924441018280B240224409474F
:101B4C002382E1BE92444101828039716EC606DE69
:101B5C0022DC26DA4AD84ED652D456D25AD05ECE91
:101B6C0062CC66CA6AC8EFE0BFD7AA8D71E983C799
:101B7C0041BE0D476376F70E91472382F1BEEFE02D
:101B8C00BFB42386A1BEAA8D45ED938C818583C6F7
:101B9C00EC002147639DE60C03C6FC00238E01BEBE
:101BAC0099466315D6008546238ED1BE03C77C01AA
:101BBC0083C5BC0003C66C0183C6EC0103C8DC0101
:101BCC0003D3E1C02207A206238AB1C2518F23821C
:101BDC0001BCB3E6060103C64C0183C5BC0103C8B6
:101BEC0081BD03CE81C263106708620661861373E0
:101BFC00F60063460608136803010146054363902B
:101C0C00E6201397850161879376F700138B41BC0F
:101C1C006346070809472382E1BCA300BB0013E815
:101C2C0006016311061A238C01BD61A083C6C1BED7
:101C3C001306E0026300D62203C7C1BE937DF70FE3
:101C4C00F25062546E85D2544259B259225A925A69
:101C5C00025BF24B624CD24C424DB24D2161828000
:101C6C00930D3008F1BF138941BCA300C900FD4797
:101C7C002386F1BE03C7C1BE937DF70FD1B7136E98
:101C8C00030905460143E38EE6F6938741BC2382A4
:101C9C00C1BCA380B7002384C1C3D1BF93E606F9AE
:101CAC0009472382E1BCA300BB002384D1C2E31CFF
:101CBC0003F603C55C00EFF00FCF2386A1BEAA8DFF
:101CCC0041F183C641C3130610FA03A5C1BC238C92
:101CDC00C1847956A38CC184854A938551BC2382D7
:101CEC0001BC23810C00A3810C002382DC00A382A5
:101CFC000C0023835C01A3830C00EFF08F972386E9
:101D0C00A1BE0DF583461B006398560183A6C1BC8A
:101D1C0083C606002382D1BC154597E0FF1FE780E0
:101D2C00A049FD5623A6D1C223AED1C003A5C1BC88
:101D3C00238C01BAA38B01C2238A01C00146130C68
:101D4C004002930B00F8194BC94A130A4002A386B0
:101D5C00CC0023848C01A3840C0023850C00A38568
:101D6C000C0023867C0123876C01A3875C012388EC
:101D7C000C00A3880C0023890C00A3894C01238A36
:101D8C000C00A38A0C00238B0C00A38B0C00238C5F
:101D9C000C00EFF07F8383C6C1BE054693F6F60FA9
:101DAC008DE683C641BCB9C283C641C1A1E203A57D
:101DBC00C1BC954783460500639AF6028547238A82
:101DCC00F1C071B72384C1C3B9BD83C641BCA9C2DC
:101DDC0083C641C18947138616001376F60F63E953
:101DEC00D702238AC1C003A5C1BC95B783C741BE26
:101DFC008D4663F1F60495472382F1BE91B5938726
:101E0C0041BC238261BCA380B700238C01BD85B586
:101E1C006254238A01C0F250D2544259B259225A08
:101E2C00925A025BF24B624CD24C424DB24D05457C
:101E3C00216199B96254F250D2544259B259225A82
:101E4C00925A025BF24B624CD24C424DB24D216124
:101E5C006FF0AFE00145EFF06FB77DBD411126C2C9
:101E6C0022C406C623AC01ACEFE09FA72A8441E153
:101E7C0083C741BE11476372F7089387818503C7F7
:101E8C0041C123840700A386E7001947A3840700F8
:101E9C0023850700A3850700238607002387E70017
:101EAC0013858187A387070023880700A388070071
:101EBC0023890700A3890700238A0700A38A070048
:101ECC00238B0700A38B0700238C0700EFF0CFEFC9
:101EDC0083C7C1BE93F7F70F99CB83C7C1BE2382CB
:101EEC00F1BCEFF09F9A03C441BC238681BE2285CE
:101EFC00B2402244924441018280813919C91305B0
:101F0C00000497E0FF1FE780202B813119C12A8440
:101F1C00F9BFEFF0BFA205E59387818503C61702D1
:101F2C0083C5070283C6270203C7370222064D8EDC
:101F3C00C206D18E6207558F23ACE1AC89B703C4BE
:101F4C00C1BE1374F40F65B783C741BE397106DE89
:101F5C0022DC26DA4AD84ED652D456D25AD05ECE8D
:101F6C0062CC66CA6AC86EC611476374F73803A799
:101F7C0081C0FD5723A6F1C223AEF1C0238C01BA58
:101F8C00B7573412937607FF93870767638AF63641
:101F9C00938481BEA3800400238601C0A38A01C25E
:101FAC0023AA01BE2D6A130A5AA5138D41BC23A086
:101FBC0001BE930B900E930D0004EFF0CFD1631480
:101FCC00051283C6140003A6C1BC99E6834706001C
:101FDC0093F7D70F638B77178357E61F63984731B7
:101FEC0083CEC1C02384D1BF638FBE2F9387EE1BDA
:101FFC00B29783C5A70003C7B70003C8870003C502
:10200C009700A301ED00238201BDA300AD002301C5
:10201C00BD0083A541BC83C74700154723A0B1BEB3
:10202C002382F1BC6387E72A3D476384E72A7687DE
:10203C00014F01433545054E1548BD489DA083C74A
:10204C0041BCFD1793F7F70F930F07019382F6FF2F
:10205C006367F500637EDE0E93F6F20F054F13F700
:10206C00FF0F9307E71BB2976306B70B03C3A700D9
:10207C0083C5B70083CF970023016D00A301BD007A
:10208C00A300FD0183C5870083C747000543238256
:10209C00B1BC83A541BC2382F1BC638F0701638D66
:1020AC001701939F870193DF8F4193F7F703E3D8D1
:1020BC000FF82382F1BC71B723A0B1BE63040F00EB
:1020CC00A380D4002384E1BE83A741BF83C651C340
:1020DC00BE9523A0B1BEE39206EE4107A38AE1C2EE
:1020EC0023AAB1BEF9B5EFF0AFADEFF03F85EFF03D
:1020FC008FBEE30805ECF2506254D2544259B259E7
:10210C00225A925A025BF24B624CD24C424DB24D67
:10211C00216182806304030023A0B1BE63040F001D
:10212C00A380D40083C751C3130700042384E1BEEA
:10213C00638B071A63990E1A03C714002386F1C028
:10214C0023AA01BEBD47E314F7E683A501BE05A093
:10215C006302031E23A0B1BE63040F00A380D4004E
:10216C002384E1BE83A7C1C2BE9523A0B1BE23A424
:10217C00B1C0EFF04FB641F183A5C1BC1307900E6F
:10218C0083C7050093F7D70F6390E71A83C7D50071
:10219C00139787012386F1C061876342071819479B
:1021AC0086072388E1BA93F7F70F014519479396F1
:1021BC008701E1861306F7FF860763C706101377BE
:1021CC00F60F93F7F70F05457DF38547238801BA82
:1021DC002386F1C003D5650123A8A1BE01E5C85132
:1021EC0023A8A1BE83C7450103C63501A207D18F21
:1021FC0023A8F1BC81E79C5123A8F1BC03C625019F
:10220C0083C8150183D681BF03C391C222063366EE
:10221C001601958283D8E500B296FD161306B3FF1E
:10222C00B3D6C6403386160103CF05012A9623AEDA
:10223C00D1BA23AE11BD23A2C1BC8946630DDF0800
:10224C0023A801BE83A601BE918F33D7E700369633
:10225C0023A0C1C223ACE1C0C167D11763EBE70473
:10226C00239901C08567D11763EBE7060547A38C5B
:10227C00E1BA6383080283A7C1BB99CF8547630585
:10228C00FF0083A701BF89CB03C5B50011E503C7C8
:10229C00C500854763E5E70A83C71400C9EB85478A
:1022AC00A380F400238601C0A38A01C223AA01BE25
:1022BC00D5B9DC5503D6050323AEF1BA2399C1C0B9
:1022CC000D47A38CE1BA75B7E30605F02388E1BA94
:1022DC0011B77687D5BB2A9623A2C1BCA5B70947EF
:1022EC00A38CE1BA79B71305200931B51305100990
:1022FC0019B5EFF09F85E31005E0EFF02FE485B9F9
:10230C003D8B938481BEA380E400238601C0A38A05
:10231C0001C223AA01BEBD47E316F7C83DB51D4750
:10232C002388E1BA1D477DB51305100AE9B31305DF
:10233C00300AD1B3E3080FE2A380D40025B583C7DC
:10234C0041BEB69823AE11BD11476376F700C14765
:10235C002382F1BE4DB36254F250D2544259B25959
:10236C00225A925A025BF24B624CD24C424DB24D05
:10237C0021616FF08F8E01114AC883A7C1C126CA93
:10238C0022CC06CE4EC623A0F1BEEFF0EF9A2A84E3
:10239C0011E583A701BF99EB238C01BA2285F2408A
:1023AC006244D2444249B2490561828003A701BE0E
:1023BC0083A541BBBA97054523A0F1BEEFE02FC121
:1023CC0003A701BE2386A1BE03A601BF83C7C1BE5E
:1023DC00118F23A0E1BE93F7F70FDDDF03C4C1BE5D
:1023EC00FD5723A6F1C223AEF1C0238C01BA13749E
:1023FC00F40F6DB7797152CC03C891BB22D426D29D
:10240C004AD006D64ECE56CA5AC85EC689472A89C5
:10241C00014403A7C1BA6300F8128D47630BF8108F
:10242C0093571700137417003E9783D681BF83C749
:10243C0091C283A541BB03A6C1BDFD16F98EB3574E
:10244C00F70003A7C1C1AE96B29723A4D1BE23A6B1
:10245C00F1BA6382E70203C781BB09C7293F5DED6F
:10246C0083A7C1BA23A0F1BEEFF0CF8045E903C822
:10247C0091BB83A681BE630F090091476308F916CF
:10248C008547630FF90E83A701C023A6F1BA054750
:10249C00238CE1BA238801C089476300F80A0D47F1
:1024AC0083A7C1BA6301E80E03C5060013F8F70F42
:1024BC0083D581BF1377F5009318480003A641BB61
:1024CC0033671701938441BC91831377F70FFD1584
:1024DC00A380F4002381A4002382E1BCB307B600DF
:1024EC00638AF61083C71600A381F40063100908F1
:1024FC006309040E83D72400918305672391F400AC
:10250C005917636CF70A03C701C123A2F1BC3369E5
:10251C00E900631B090423A0F1C00145B250225409
:10252C0092540259F249624AD24A424BB24B45612B
:10253C0082800A07DDBD0607CDBD03D7060023A2A6
:10254C00E1BCC167D91763FDE70085472388F1C05B
:10255C00630C090083A7C1BA01452390F6007DBF27
:10256C00E31A09FE23A0E1C001454DBF31CC238005
:10257C00E60083A781BE03C71400A380E7009DBFBC
:10258C0023A601BA29B79842370600101305F6FFA7
:10259C00B70500F0F98DE98FCD8F698F23A6F1BABD
:1025AC0023A2E1BC5916637CE60605472388E1C0EB
:1025BC00E30C09FA9CC2014595B705472388E1C095
:1025CC0023A2F1BC014599BF2380060183C73400C7
:1025DC0003C7140083A681BEC19B1183D98FA3802E
:1025EC00F60083D72400D207D18301BFFD5723A661
:1025FC00F1BA71BD6318090283C781BB85EB83A750
:10260C00C1C1850723A0F1BEEFE0DFE6E31805F0BA
:10261C0083A741BB83C70700A381F400D1BDE31B93
:10262C0009F889B711E042872380E600A933E31744
:10263C0005EE83A7C1C1850723A0F1BEEFE09FE3A0
:10264C00E31E05EC83A641BB03C70600A381E4008F
:10265C00E30009EA83C7140001E4419B9183D98FFD
:10266C002380F6000547238CE1BA59B55D7156DA23
:10267C0083C741BE86C6A2C4A6C2CAC04EDE52DC07
:10268C005AD85ED662D466D26AD06ECE3D47637C91
:10269C00F72C83C741BE3D47637DF710C1472382AA
:1026AC00F1BE83C681AD238B01C26386063013074E
:1026BC00C0056387E6301307F0026383E6301387A7
:1026CC0081AD034617009307A0036306F62A3EC4A8
:1026DC0083A601BC83A701C232C623A2E1C2138424
:1026EC0041BC638D061C83C501BB03C6C1C01387E7
:1026FC00E6FF3317B700BA97A38AC1C223A2F1C071
:10270C006302062423A0F1BEEFE0FFDC5DE583D776
:10271C0081BF239D01BE6384072083A5C1BC23A474
:10272C00B1BE83C70500B9CB930D500E2D45930B4D
:10273C00C0056381B70315476394E7009307500EF8
:10274C0003A841C2834608006388F6081307A00259
:10275C006384E60883D7A1BF03D781BF93870702A1
:10276C00C207C183239DF1BE63FBE71A83A5C1BCDD
:10277C00BE9523A4B1BE83C70500C5FF83A641C285
:10278C0081471306A0029305C0051305F00239A07A
:10279C00630EC7006303B7226301A7223387F600D9
:1027AC0003470700850793F7F70F7DF31305200404
:1027BC0029A0EFE09FCAE30605EEB64026449644F6
:1027CC000649F259625AD25A425BB25B225C925C65
:1027DC00025DF24D616182809D8E93B61600368744
:1027EC002301D4003386D500B307E80083C7070064
:1027FC00034606009308F0021303E002214E930EE9
:10280C000002130F1700638EC702F9C76386770D9A
:10281C006384170D639D670C6304C701631AD61597
:10282C002301E401A146034724003386D500034667
:10283C000600B307E80083C70700130F1700E396E1
:10284C00C7FC050785061377F70F2301E40093F601
:10285C00F60FE39AA6FC429783470700A301F40006
:10286C0083C7B500A18BE39707EE238801C083A72C
:10287C0081BEA24583D6A70103C691BB0D4723A0F9
:10288C00D1BC6318E60003D747014207D98E23A0B9
:10289C00D1BC03473400630B072403C701C1631782
:1028AC0007240347240083A741C20507BA9723A234
:1028BC00F1C2B24783A701C2E39706E203A7C1BBEB
:1028CC009376F70F958F1377F70FA38AE1C223A2A4
:1028DC00F1C0E31907E25DB513070002631EE602BF
:1028EC001D47E36DD7F603C78500E309C7F6A301BF
:1028FC00F4001307A002E39FE7E483C7B500A18BA4
:10290C00E39A07E483A741BF6389071463C10712E5
:10291C00FD1723AAF1BE3DBDA301F40025BD03C7DD
:10292C0051C383A741C07D1785071377F70F23A2E7
:10293C00F1C0A38AE1C2E31707DCA24783A601BC5E
:10294C00E38E06E2014523A6D1BAEFF0BFAAE31647
:10295C0005E683C701C1E39307E283A641BCA24706
:10296C0023A0D1BCB9B7EFF02FDEE30405D2B1B58B
:10297C00A3016400C5B393072004E3FAD7D41387EB
:10298C00B1AD23A2E1C29387B1AD89A0D84F23AAE0
:10299C00E1BE91E67D57A38AE1C223AA01BE83C79B
:1029AC0041BE3D476378F718D1472382F1BE83C7F8
:1029BC0001C163990716014509B51305300BF5BB29
:1029CC00138791AD23A2E1C2938791AD83C691BBCE
:1029DC000D476384E60603C707003EC436C623A032
:1029EC0001BC83A701C28146E31B07CE83A6C1BBF2
:1029FC0003C691C2A24513F7F60F998F3317C70080
:102A0C00094623A0C1BC2386D1C0B24623A0F1C283
:102A1C0023AAE1BE894623A0D1C023A801BCA38A66
:102A2C0001C2C9472382F1BE1305100479B3EFD05C
:102A3C005FEF83A741BF2D45E1BD83A6C1BB83C713
:102A4C0007003AC423A0D1BC89C73EC683A701C2E4
:102A5C0079B17D5723AAE1BE7DBF238201BC83A738
:102A6C0041C20147130500022148154E1553930826
:102A7C00E002AD451DA82300D60083C741BC83A648
:102A8C0041C299EB03C606006318C6012380660099
:102A9C0083C741BC83A641C2850793F7F70F2382F6
:102AAC00F1BCB6970507630DB70283A681BE3E86BF
:102ABC00BA9683C60600E387A6FEE31E07FB2380B7
:102ACC00170183C741BC83A681BE03A641C28507FB
:102ADC0093F7F70F2382F1BC83C686003E9661BF45
:102AEC002380070085472388F1C051B303C7B70083
:102AFC0023A0D1C023A801BCA38A01C2418BE30748
:102B0C0007E883C741BEFD5623AAD1BE3D47637E6D
:102B1C00F700CD472382F1BE83C701C11305100412
:102B2C00E38D07C81305300449B9EFE01F93E31692
:102B3C0005C8DDB7EFE07F92E31105C88DBD83C7F3
:102B4C0041BE238B01C24D476364F700014582806F
:102B5C0003A741C0411106C623A0E1BEEFE0BF9719
:102B6C0009ED03D7A1BF83A7C1BC0145BA9703C721
:102B7C00B70023A4F1BE418B01C7B2404101828052
:102B8C0003A741BFB240D8CF41016FE05F9F411115
:102B9C0022C483C741BE06C6454793F7F70F63713E
:102BAC00F7084947638AE70483C741BE4D4793F74B
:102BBC00F70F6361F702238B01C283C741BE3D4708
:102BCC006377F702C1472382F1BE0145B24022442C
:102BDC00410182805147638BE70483C761C3F1DFF6
:102BEC00B93F6DF583C741BE3D47E36DF7FC224409
:102BFC00B24041016FE07F8603C791BB8D47E3056F
:102C0C00F7FA83C501BB03A601C283C7C1BB054745
:102C1C003317B700B2972386E1C023A0F1C269B77E
:102C2C00B24022441305400B4101828083C781AD21
:102C3C00CDF751B75D7122D406D62A842EDA32DC58
:102C4C0036DEBAC0BEC2C2C4C6C617D5FF1F032526
:102C5C00655F11C51C4D81E72AC6792532450C45A7
:102C6C005418228636CEEF005037B2502254616190
:102C7C008280AA8517D5FF1F0325C55C11CD1C4D7D
:102C8C0081EF011106CE2EC62AC4B92D2245B245BC
:102C9C00F2401045056119A01045F5BF411122C441
:102CAC0026C24AC006C62A89AE84328401C51C4D90
:102CBC0091E31D2D971700009387475F6316F40669
:102CCC00032449007C50858B89EB8357C40093F710
:102CDC00072081E7284CEF00A0791C44FD171CC489
:102CEC0063DA0700184C63C3E70693F7F40F294720
:102CFC00638EE7041C401387170018C023809700CD
:102D0C0093F4F40F7C50858B89EB8357C40093F7B5
:102D1C00072081E7284CEF00C075B24022440249DD
:102D2C0026859244410182809717000093870756AD
:102D3C006315F4000324890071B79717000093877B
:102D4C00E752E311F4F80324C900ADBFA68522862F
:102D5C004A859122AA847DB7011126CA06CE22CCBF
:102D6C004AC84EC652C4AA8419E11C4502901C4D97
:102D7C002E89A5E7952B9C4C8044B5C39717000072
:102D8C009387C7526310F406C0407C50858B81EB4F
:102D9C008357C40093F7072099E3284CD12D835710
:102DAC00C400A18B99C31C48C5E7A2852685652262
:102DBC0045C1FD547C50858B81EB8357C40093F740
:102DCC00072099E3284C7525F24062444249B249E8
:102DDC00224A2685D24405618280004545B7268566
:102DEC00212369BF971700009387474A6314F400A7
:102DFC00804461BF9717000093874747E317F4F8A7
:102E0C00C04461B71CC4050963C907021C40138781
:102E1C00170018C02380B7001C4483450900FD1718
:102E2C00F5F11CC463D907022286A9452685A52085
:102E3C00FD57E300F5F8A944B5BF184C63C4E7008F
:102E4C00E39645FD22862685B920E31735FD95B717
:102E5C00FD59294AD1B71C401387170018C02947C0
:102E6C002380E700C9BFAA8517D5FF1F0325853D21
:102E7C00E5B5AA8703C7050085078505A38FE7FE7F
:102E8C0075FB8280AA8703C7070085076DFF338512
:102E9C00A7407D158280011122CC26CA4AC806CED5
:102EAC004EC6AA842E89328401C51C4D91E32D296E
:102EBC00971700009387873F6318F402C0401C4C9F
:102ECC001CC48357C400A18B99C31C4895EFA285E1
:102EDC002685512015C97D59F2406244D244B2492D
:102EEC004A85424905618280971700009387073A0B
:102EFC006314F4008044E1B79717000093870737F9
:102F0C00E31FF4FAC04465BF1C4808409379F90FDD
:102F1C001379F90F1D8D5C486346F500A285268553
:102F2C00B52455F91C440505FD171CC41C4013871A
:102F3C00170018C0238037015C486389A7008357AA
:102F4C00C400858BD1DBA947E318F9F8A285268547
:102F5C00352C59D149B7411122C426C24AC006C6E4
:102F6C0097D4FF1F83A4042E2A892E8489C49C4CD9
:102F7C0099E32685952E97170000938727336314C2
:102F8C00F402C0408317C40013F787002DEB13F72E
:102F9C00070115EB25472320E90093E707042316C7
:102FAC00F4007D5559A8971700009387272E6314BA
:102FBC00F4008044C1BF971700009387272BE313BD
:102FCC00F4FCC044C1B7918B8DC74C5889C9930789
:102FDC0044046384F5004A85712B232A0402835729
:102FEC00C4002322040093F7B7FD2316F4001C48F9
:102FFC001CC08357C40093E787002316F4001C48B9
:10300C0081EF8357C4001307002093F707286385CB
:10301C00E700A2854A856D298317C40013F71700B2
:10302C001DC35848232404003307E04018CC18482B
:10303C00014501E713F707082DF3B24022449244EF
:10304C0002494101828013F72700814611E354485D
:10305C0014C4F1BF8397C500011122CC26CA06CE39
:10306C004AC84EC613F78700AA842E8469E7D84154
:10307C006345E000B8416358E008585449C703A9B8
:10308C00040023A004000C5093D7C748B9CB704858
:10309C008357C400918B99C75C401D8E5C5899C3B3
:1030AC003C401D8E5C540C50814626858297FD5702
:1030BC00630DF5041C480567232204001CC08357CC
:1030CC00C400F98F91C368C84C5823A0240185CD46
:1030DC00930744046384F50026856929232A040296
:1030EC001DA00146854626850297FD572A86E311C9
:1030FC00F5FA9C40D1DF75476385E7005947639526
:10310C00E70623A024010145BDA098408317C40005
:10311C0001CFF5466305D700D9466319D7041C487F
:10312C00232204001CC04DB718482322040093D757
:10313C00C74818C041BF83A90501E38609FC03A950
:10314C0005008D8B23A0350133093941014791E3EB
:10315C00D84918C4E35920FB1C540C50CA864E861F
:10316C00268582976340A0028317C40093E7070467
:10317C002316F4007D55F2406244D2444249B249D0
:10318C0005618280AA993309A940E9B79C4941118C
:10319C0006C622C426C281EB8144B2402244268555
:1031AC00924441018280AA842E8401C51C4D91E376
:1031BC00252A971700009387670F631EF402C040FF
:1031CC008317C400F1DB7850058B11E793F70720C8
:1031DC0099E3284C712C2685A285EFF0BFE77C5033
:1031EC00AA84858BDDFB8357C40093F70720D5F7A2
:1031FC00284C41245DB79717000093872709631467
:10320C00F400804475BF9717000093872706E319D5
:10321C00F4FAC04475B7411122C406C62A84231699
:10322C00B5002317C5002320050023220500232405
:10323C0005002322050623280500232A0500232C3C
:10324C000500214681451305C505EFD0EFA597175D
:10325C000000938767885CD0971700009387A78A34
:10326C001CD4971700009387C78E5CD49717000067
:10327C0093876791B24000D01CD8224441018280D0
:10328C00970500009385C5F0B5AA411126C2930796
:10329C0080069384F5FFB384F4024AC02E8922C4BD
:1032AC0006C693854407C1262A8401CD2320050038
:1032BC0023222501310508C4138684068145EFD0ED
:1032CC00AF9EB24022852244924402494101828041
:1032DC001385418471AA1385418461AA1385818465
:1032EC0041AA1385818471A2411122C406C62A8485
:1032FC00F5371C4C89C72244B2404101DDB7970712
:10330C000000938727F81CD42324040423260404E8
:10331C002328040483A701836394870085471CCC6E
:10332C002285152848C022853D2008C422852520E9
:10333C0048C4484001469145EFF0FFED084405466E
:10334C00A545EFF05FED48440946C945EFF0BFECE9
:10335C0085471CCC4DB7411126C24AC006C622C4B3
:10336C002A89EFF0FFF683A401839C4C99E3268510
:10337C00A53F938484048044DC40FD1763D607008A
:10338C009C40A5C78440C5BF0317C40021EFC1777B
:10339C0085075CC41305840523220406C928EFF0B5
:1033AC009FF321462320040023240400232204003D
:1033BC0023280400232A0400232C04008145130530
:1033CC00C405EFD06F8E232A0402232C040223247D
:1033DC00040423260404B240228522449244024968
:1033EC00410182801304840649BF91454A85EFF060
:1033FC00DFE988C02A8459F5EFF0FFEDB1472320AF
:10340C00F900D1BF797122D44AD04ECE52CC5AC8D1
:10341C005EC606D626D256CA2A892E8A130485047D
:10342C008149054BFD5B0444832A4400FD1A63D09B
:10343C000A0200406DF8B250225492540259624A6A
:10344C00D24A424BB24B4E85F2494561828083D7BA
:10345C00C400637BFB008397E40063877701A68538
:10346C004A85029AB3E9A90093848406C1B7828085
:10347C00828082805971A2D42E848395E500A6D2D5
:10348C00CAD086D6B284368963D305028357C4006A
:10349C0093F7070895EB13070040B65026542320EA
:1034AC00F90098C006599654014565618280300038
:1034BC00EF00A072E34C05FC3247BD67F98F7977BA
:1034CC00BA9793B71700C1BF814713070004F1B730
:1034DC0083D7C500797122D406D626D24AD04ECED7
:1034EC00898B2E8491CF930774041CC01CC885470C
:1034FC005CC8B250225492540259F2494561828000
:10350C0074003000AA84EFF0FFF6A2492A892685C0
:10351C00CE85912A01ED8317C40013F7072071FBA8
:10352C00F19B93E727002316F40075BF9707000063
:10353C00938747D59CD48357C40008C008C893E729
:10354C0007082316F400B247232A340189CF8315C8
:10355C00E40026857D2501C98357C400F19B93E7C0
:10356C0017002316F4008357C40033E527012316F4
:10357C00A40041B7D1CD83A7C5FF011122CC06CE43
:10358C001384C5FF63D307003E942AC6C525138751
:10359C0001851C43324581EB2322040000C36244A5
:1035AC00F2400561C1AD637DF4001040B306C40068
:1035BC006396D7009443DC43B29614C05CC0F9BF49
:1035CC003E87DC4399C3E37DF4FE14433306D700F6
:1035DC00631F86001040B29614C33306D700E390E5
:1035EC00C7FC9043DC43B29614C35CC34DBF6375F8
:1035FC00C400B1471CC165B71040B306C400639644
:10360C00D7009443DC43B29614C05CC040C341BFA6
:10361C00828041114AC01389C1848327090022C4C6
:10362C0026C206C6AA842E8489E78145412123201F
:10363C00A900A28526859D297D59631A25017D54F3
:10364C00B2402285224492440249410182801304F3
:10365C0035007198E30685FEB305A4402685B92193
:10366C00E31025FFE9BF011126CA93843500F198B8
:10367C004AC8A104B14706CE22CC4EC62A89B3F45F
:10368C00F40A63C4040063FDB400B1472320F900BD
:10369C000145F2406244D2444249B24905618280FC
:1036AC00F1239389018583A709003E8421E8A6852F
:1036BC004A85EFF01FF6FD572A846317F50A03A419
:1036CC000900A287C9EB8329040081454A85A29988
:1036DC00F12E6395A9081C408D044A859D8CF198A8
:1036EC00B147A104B3F4F40AA685EFF09FF2FD579D
:1036FC006306F5061C40A6971CC015A01440858EC9
:10370C0063C806042D47637DD70204C033079400B9
:10371C006396870223A0E9005C4014C35CC34A850E
:10372C00912B1305B4009307440061993307F540BE
:10373C00E301F5F63A94898F1CC0A1BFD8C3E9BF49
:10374C0058406395870023A0E900D1BFD8C3C1BFFF
:10375C00A2874040A1BF3E84DC43ADB7B1472320D4
:10376C00F9004A85012B2DB704C155BF1C46FD1726
:10377C001CC663DA0700184E63C5E700A9476394BB
:10378C00F5006FF04FF11C422E851387170018C2FD
:10379C002380B7008280011122CC26CA4AC84EC6AB
:1037AC0052C406CE2A89AE893284B304D6007D5A1F
:1037BC0063149400014511A8834504004E864A8584
:1037CC00EFF0DFFA0504E31545FFF2406244D24402
:1037DC004249B249224A05618280357122CD26CBFD
:1037EC004AC94EC706CF52C556C35AC1DEDEE2DC0B
:1037FC00AA892E843289B68409C51C4D99E3EFF051
:10380C00BFAE97170000938767AA631AF40403A44A
:10381C0049007C50858B89EB8357C40093F70720B4
:10382C0081E7284CEFF0DFC48357C400A18B99C308
:10383C001C48ADE3A2854E85EFF0EFF121CD7C5015
:10384C00858BA1C37D55FA406A44DA444A49BA498A
:10385C002A4A9A4A0A4BF65B665C0D61828097177E
:10386C0000009387A7A26315F40003A4890055B741
:10387C00971700009387879FE31DF4F803A4C900F2
:10388C0049BF8357C40093F70720CDFF284CEFF0B6
:10389C005FBE4DBF93070002A304F1029307000320
:1038AC0002D22305F10226C6930B5002971A000090
:1038BC00938ACAA1294BCA8483C7040099C3639C09
:1038CC007709338C2441638E2401E2864A86A285D3
:1038DC004E85EFF05FECFD57630DF5189257E297AC
:1038EC003ED283C7040063860718FD571389140062
:1038FC0002C802CE3ECA02CCA309010482D483457D
:10390C00090015465685B126C2479304190031E5C6
:10391C0013F7070109C713070002A309E10413F702
:10392C00870009C71307B002A309E1048346090005
:10393C001307A002638AE602F247CA848146254631
:10394C0003C7040093851400130707FD6374E60690
:10395C0085C63ECE15A0850485B733055541B39772
:10396C00A72826893EC861BF3247930647001843F3
:10397C0036C6634A07023ACE03C704009307E00237
:10398C00631EF70403C714009307A002631AF7021F
:10399C00B2478904138747009C433AC67D57B3E767
:1039AC00E70A3ECA25A83307E04093E727003ACE42
:1039BC003EC8D9B7B3876703AE848546BA9749B773
:1039CC00850402CA81468147254603C704009385B6
:1039DC001400130707FD6374E606E1F683C50400C3
:1039EC000D46171500001305E58EA52411CD97176C
:1039FC0000009387278E1D8DC247130700043317D1
:103A0C00A700D98F85043EC883C504001946171535
:103A1C0000001305658C138914002304B102152CC6
:103A2C0025CD9307000095E74247B247137707105F
:103A3C0009CF91073EC69257D2973ED2ADBDB38700
:103A4C006703AE848546BA9749B79D07E19BA107EA
:103A5C00D5B7780097060000938626D422860C08EA
:103A6C004E8597000000E7000000FD572A8AE314FA
:103A7C00F5FC7C50858B89EB8357C40093F70720AA
:103A8C0081E7284CEFF0FF9E8357C40093F707049F
:103A9C00E39A07DA125545BB780097060000938627
:103AAC00C6CF22860C084E85F92CC1B7411122C411
:103ABC002A842E8523AA018406C6EFD06F8AFD576F
:103ACC006316F50083A7418591C31CC0B240224404
:103ADC0041018280411122C42E848395E50006C6E3
:103AEC003523634905007C48AA977CC8B240224420
:103AFC00410182808357C4009397C7482316F40072
:103B0C00F5B783D7C500011122CC26CA4AC84EC6C8
:103B1C0006CE93F70710AA842E843289B68991C7F2
:103B2C008395E5008946014601228357C40083151D
:103B3C00E400F2409397C7482316F4006244CE8603
:103B4C004A86B24942492685D244056135A84111BD
:103B5C0022C42E848395E50006C6F9207D57835731
:103B6C00C400631AE5009397C7482316F400B240CB
:103B7C002244410182809397C72868C82316F40019
:103B8C00FDB78395E5003DA0411122C42A842E8502
:103B9C00B285368623AA018406C6EFC0FFF9FD570D
:103BAC006316F50083A7418591C31CC0B240224423
:103BBC0041018280411122C42A842E8523AA0184CA
:103BCC0006C69529FD576316F50083A7418591C359
:103BDC001CC0B240224441018280411122C42A847B
:103BEC002E85B28523AA018406C6A129FD5763162A
:103BFC00F50083A7418591C31CC0B240224441010A
:103C0C008280411122C42A842E8523AA018406C6EF
:103C1C003D29FD576316F50083A7418591C31CC050
:103C2C00B240224441018280411122C42A842E8553
:103C3C00B285368623AA018406C60521FD57631674
:103C4C00F50083A7418591C31CC0B24022444101B9
:103C5C00828093F5F50F2A966314C5000145828086
:103C6C0083470500E38DB7FE0505FDB71385018479
:103C7C006FF01F80138501846FF0AFFF797156CA06
:103C8C009C49BA8A984522D44AD04ECE52CC06D6FC
:103C9C0026D25AC85EC6B3E7E70A1CC203C735046E
:103CAC00AA892E843289368A19C385071CC21C4006
:103CBC0093F7070291C78327090089072320F9008E
:103CCC000440998891E8130B9401FD5B5C44032735
:103CDC000900998F63CCF40483473404B336F000A5
:103CEC001C4093F70702A5EB13063404D2854E85CE
:103CFC00829AFD576303F5041C4011478144998B4C
:103D0C006399E7008327090044449D8C8147B3E401
:103D1C00F40A1C4418486354F700998FBE94014967
:103D2C0069047D5B63982405014509A885465A867C
:103D3C00D2854E85829A631E75017D55B2502254F0
:103D4C0092540259F249624AD24A424BB24B4561F3
:103D5C0082808504A5BF3307D40013060003A3019A
:103D6C00C7040347540493871600A2978906A381BE
:103D7C00E7049DBF85462286D2854E85829AE30E46
:103D8C0065FB050945B7797122D44AD04ECE52CC89
:103D9C0006D626D256CA5AC803C88501930780078F
:103DAC002A892E84B289368A63E207039307200698
:103DBC009386350463E107036301081E93078005AE
:103DCC00170600001306C651630BF8149304240461
:103DDC002301040515A89307D8F993F7F70F554657
:103DEC00E366F6FE1706000013060652B3C7C7209B
:103DFC009C43B29782871C43938425049386470087
:103E0C009C4314C32381F50485475DAA90411C4350
:103E1C00137506089385470039C19C430CC3584061
:103E2C0063D307149305D002A301B40418C46350E0
:103E3C000704B307F040170600001306664A29482A
:103E4C00B68433F70703FD1432970347070023802A
:103E5C00E4003E87B3D70703E37507FF8DA09C43AF
:103E6C00137506040CC345DD939757604DBF6D9ACF
:103E7C0010C0C1B790411C431375060893854700C9
:103E8C0001C50CC39C4339A0137606040CC37DDA20
:103E9C0083D707001307F0061706000013064644E5
:103EAC006311E80C2148A3010404584018C4E349E9
:103EBC0007F80C40ED990CC0C1F7B68451F3A1473B
:103ECC00631EF8001C40858B91CB58401C4863C77F
:103EDC00E70093070003A38FF4FEFD14858E14C82E
:103EEC005287CE867000A2854A85EFF03FD9FD5AE5
:103EFC00631C550D7D55B250225492540259F2490F
:103F0C00624AD24A424B456182809C4193E7070248
:103F1C009CC113088007170600001306A63DA302D8
:103F2C0004050C401C4313F8050813854700630572
:103F3C00080008C39C4301A813F8050408C3E30B4D
:103F4C0008FE83D7070013F7150001C793E5050298
:103F5C000CC099C3414881BF18401377F7FD18C0B6
:103F6C00D5BF294889B717060000130666372948BC
:103F7C002DBF90411C43CC4913780608138547008C
:103F8C006306080008C39C438CC301A808C31376BE
:103F9C0006049C4375DA2390B70023280400B684EA
:103FAC0081B71C43D04181459386470014C3844399
:103FBC002685EFF01FCA01C5B30795405CC05C4075
:103FCC001CC8A301040429BF14482686CE854A8543
:103FDC00029AE30155F31C40898B85E74844B247AC
:103FEC003365F50A09BF85465686CE854A85029A01
:103FFC00E30265F185045C443247998FE3C5F4FE16
:10400C00F1BF8144930A94017D5BF5B7411122C441
:10401C002A842E85B285368623AA018406C6A12061
:10402C00FD576316F50083A7418591C31CC0B240B0
:10403C002244410182809307800523AAF1847D5597
:10404C0082809307800523AAF1847D558280930793
:10405C00800523AAF184014582809307800523AA59
:10406C00F1847D5582809307800523AAF1847D55C8
:10407C00828000004572726F723A20253032580AE5
:10408C00000000002F4335312F2A00005374617259
:10409C007420404368697049443D25303258200AE9
:1040AC0000000000576169742044657669636520DF
:1040BC00496E0000537461727420554449534B5F30
:1040CC0064656D6F20404348525633554649206C09
:1040DC006962726172790000576169742044697376
:1040EC006B526561647900004F70656E00000000D2
:1040FC002F4335312F43485256334846542E4300F4
:10410C00B2BBB4E6D4DAB8C3CEC4BCFEBCD0D4F2D5
:10411C00C1D0B3F6B8F9C4BFC2BCCBF9D3D0CEC4AE
:10412C00BCFE00004C6973742066696C65202573B5
:10413C000A00000020206D617463682066696C655C
:10414C002025303464233A2025730A0055C5CCD180
:10415C00DDCABECDEAB3C90055C5CCC3BBD3D0D7DD
:10416C00BCB1B8BAC320455252203D253032580A52
:10417C0000000000B3F5CABCBBAF55C5CCCAA7B094
:10418C00DCA3ACC7EBB0CECFC255C5CCD6D8CAD405
:10419C00000000006EC8FFFF86C8FFFFAAC8FFFF23
:1041AC00B4C8FFFFCAC8FFFF555342206465762090
:1041BC00696E000055534220646576206F7574005B
:1041CC00774C656E6774683A2025780A0000000009
:1041DC006252657175657374547970653A202578EF
:1041EC000A00000053656E643A2025640A00000042
:1041FC00526573657420686F737420706F727400ED
:10420C007825303258200000476574436667446552
:10421C007363723A20000000496E6974526F6F74B8
:10422C0044657620457272203D20253032580A00B4
:10423C0044697361626C6520686F737420706F726F
:10424C00742062656361757365206F6620646973A1
:10425C00636F6E6E65637400476574446576446580
:10426C007363723A200000000000000000000000A0
:10427C000000000000000000000000000000000032
:10428C000000000000000000000000000000000022
:10429C000000000000000000000000000000000012
:1042AC000000000000000000000000000000000002
:1042BC0000000000000000000000000000000000F2
:1042CC000000000000000000232D302B2000000017
:1042DC00686C4C00656667454647000030313233E8
:1042EC0034353637383941424344454600000000E6
:1042FC003031323334353637383961626364656650
:10430C0000000000F2FAFFFF08FBFFFFC8FAFFFFF6
:10431C00C8FAFFFFC8FAFFFFC8FAFFFF08FBFFFF50
:10432C00C8FAFFFFC8FAFFFFC8FAFFFFC8FAFFFF81
:10433C006EFCFFFF70FBFFFF06FCFFFFC8FAFFFFE0
:10434C00C8FAFFFF9EFCFFFFC8FAFFFF70FBFFFFE0
:0C435C00C8FAFFFFC8FAFFFF0EFCFFFFCD
:1043680000000000B44200009442000074420000C3
:104378000000000000000000000000000000000035
:104388000000000000000000000000000000000025
:104398000000000000000000000000000000000015
:1043A8000000000000000000000000000000000005
:1043B80000000000000000000000000000000000F5
:1043C80080060020E8010020020100000000000033
:1043D80000090000000000000005020000000000C5
:1043E80080060002000004008006000100001200A0
:0443F800E8010020B8
:00000001FF
