:040000006F0080739A
:100004000000000000000000EC0300206603002054
:10001400A9BDF9F3845A00000000000000000000AC
:10002400845A0000845A0000000000000000000010
:10003400845A000000000000845A00000000000000
:1000440000000000845A000000000000845A0000F0
:10005400845A0000845A0000845A00000000000002
:10006400845A00000000000000000000845A0000D0
:10007400845A0000845A0000845A0000845A000004
:1000840000000000845A000000000000845A0000B0
:100094009307000C0111631CF50493078008F3B760
:1000A400078093F787083EC00F100000B717004081
:1000B400130770052380E704130780FA2380E704FD
:1000C4000F10000003C7F70013670704A387E700B6
:1000D40003C787001367070C2384E7002380070402
:1000E4008247F3A707800F10000005618280B717CD
:1000F400004003C7A700118B79EF83C6E7041307F9
:10010400800893F6F60F733607801376860832C29A
:100114000F1000001308700523800705930580FA6B
:100124002380B7040F10000003C6E70413663600EB
:100134002387C70403C6A700136646002385C700A8
:10014400238007041246732606800F10000003C69E
:1001540087001376F60F73370780137787083AC43E
:100164000F100000238007052380B7040F10000040
:1001740003C787001367070C2384E7002380070461
:10018400A247F3A707800F100000A5470100FD1741
:1001940093F7F70FE5FF93078008F3B7078093F70A
:1001A40087083EC60F100000B717004013077005FC
:1001B4002380E704130780FA2380E7040F1000006C
:1001C4002384C7002387D70423800704B247F3A7F7
:1001D40007800F1000009377050C13070004639643
:1001E400E70A93078008F3B7078093F787083EC8A8
:1001F4000F100000B7170040130770052380E704B1
:10020400130780FA2380E7040F10000003C7A70038
:100214008546136707012385E70037270040A303BA
:10022400D7808346578093E60601A302D7802380B4
:100234000704C247F3A707800F1000009307800844
:10024400F3B7078093F787083ECE0F100000B71767
:100254000040130770052380E704130780FA238006
:10026400E7040F10000003C7F7001375F50F1367B9
:100274000704A387E7002384A700B8471367871FF1
:10028400B8C723800704F247A9BD9377F5019DCF32
:1002940093078008F3B7078093F787083ECA0F10C7
:1002A4000000B7170040130770052380E704130705
:1002B40080FA2380E7040F100000372700408946A6
:1002C400A303D78023800704D247ADB793078008E0
:1002D400F3B7078093F787083ECC0F100000B717D9
:1002E4000040130770052380E704130780FA238076
:1002F400E7040F100000372700409D46A303D78072
:1003040023800704E2473DB7011181460146814538
:10031400114506CE972000E0E78040B99307800896
:10032400F3B7078093F787083EC60F100000B7178E
:100334000040130770052380E704130780FA238025
:10034400E7040F10000003C7670413671700238333
:10035400E70423800704B247F3A707800F100000C7
:10036400F240056182804111814601468145114573
:10037400972000E0E78080B313078008F3370780F5
:1003840093F787083EC40F100000B7170040130608
:1003940070052380C704930680FA2380D7040F10C6
:1003A4000000FD552396B70223800704A245F3A558
:1003B40005800F10000073370780137787083AC64B
:1003C4000F1000002380C7042380D7040F100000FF
:1003D40003C76704136717002383E7042380070414
:1003E400B247F3A707800F10000001A001A0E54762
:1003F4003305F50201007D1575FD8280411122C48B
:1004040006C62A841305803E7D14D5373344040878
:1004140075F8B2402244410182802E96AA870F705B
:10042400B6788280230304801547A2872303E480DF
:10043400010001002302A48003C76780620761876B
:10044400E34C07FE2382A780228783476780E20765
:10045400E187E3CC07FE828023030480154723034E
:10046400E480010001002302A48082808307648069
:10047400E3CE07FE23030480828083076480E3CEF7
:1004840007FE03454480828083076480E3CE07FE31
:100494002302A4808280411126C44AC24EC006C6EB
:1004A4001377F50BAD47AA892E8995446306F700A7
:1004B40019455D37653F8D444E85793FFD59FD14DF
:1004C40063983401B240A2441249824941018280B6
:1004D400135509011375F50F453F2209CDB70111D5
:1004E40026CC06CEB704080051371545B537713709
:1004F40069372AC6A53F32459377150089EB136502
:1005040015001375F50FF240E24405618280FD1475
:10051400E9FC0145CDBF411106C6B71700401307DA
:1005240070052380E704130780FA2380E70403C7D8
:1005340047041305F00F1367070E2382E70491475E
:100544002303F480C535B24041010DB7011126CC17
:100554004ACA4EC852C606CE2A89AE89B284554AC2
:100564005D3F91E82137F24026855249E244C24971
:10057400324A05618280CA850945313F910903A742
:10058400C9FF91472320E48003076480E34E07FEFC
:1005940023034481FD17EDFBFD14110981C49377F6
:1005A400F90FE9FF2D3F55FDFD5475BF011126CC10
:1005B4004ACA4EC852C656C45AC206CE2A89328A7C
:1005C4008D49913FC164C16A056B9387F4FFB3F70A
:1005D400270199E363719A02FD199180E39709FE5B
:1005E40071350145F240E2445249C249324AA24AB5
:1005F400124B056182801305800D63885401130535
:1006040000026384640113051008CA856935C13D7D
:1006140009C52699330A9A4075BF7D55E1B7011182
:1006240006CE26CC4ACAB2844EC82AC62E89E535DF
:100634003245FD14FD59AA852D45B13D639A340117
:100644003535F24026855249E244C249056182802B
:100654002D3593F7340091EB83260480032709009A
:1006640093074900E39EE6FC3E89FD14C1BF0111D6
:1006740006CE2AC64D353245C533F2400561FDB379
:10068400011106CE26CC4ACA4EC852C6AA8956C4FF
:100694002E895135CE852D45FD3B81448D4A214A15
:1006A400E93B63965401832704802320F9008504E1
:1006B400E39844FF8327048013972901635C0700B0
:1006C4002312F900F240E2445249C249324AA24A92
:1006D400056169BB2322F900F5B7411106C626C49A
:1006E4004AC24EC0AE89053D81451305B004653349
:1006F400BD447D59593393F77400CE9703C707005F
:10070400FD14398D2380A700E39624FFB240A24450
:1007140012498249410199BB411106C6ED3B1305BB
:1007240060061D3BA133130590093D33B2404101DE
:0407340035BB0000D1
:100738009711002093810186173100201301018C45
:1007480013054000970500209385458B1706002068
:10075800130606FE63FAC5008322050023A0550090
:1007680011059105E3EAC5FE17550000130585310B
:10077800970500209385C5FB1386418363FAC5005E
:100788008322050023A0550011059105E3EAC5FE63
:10079800138541839385810A6377B500232005007B
:1007A8001105E36DB5FE93025002739002BC8D42B1
:1007B800739042808542739012BC930280087390B4
:1007C8000230970200209382628393E23200739092
:1007D800523097120000938202877390123473008C
:1007E80020302A8309CA83830500230073007D16FD
:1007F800050385056DFA82802A8311C62300B3009C
:100808007D16050365FE82802A8681460145AD4531
:100818003307D600034707009357150013187500D0
:10082800BA97C297850613F5F70FE393B6FE828051
:10083800797126D24ECE52CC56CA5AC85EC662C408
:1008480066C206D622D44AD02E8A9309050281446C
:10085800930B500E930AF00F154C994C414B83C7DC
:1008680009FE638477138DE393E40408B25022549D
:100878000259F249624AD24A424BB24B224C924C3C
:10088800268592544561828083C7B9FE138717FF76
:10089800630D070EE117F5CBE9EC13040A1E3D4979
:1008A800138509FE953797070020938767F48346D9
:1008B80004000347B4001386B6F145171337170031
:1008C8003336C000718F71C30347D400631FA70A72
:1008D8000146332786208345170003472700220750
:1008E8004D8F83D5070019C791C563055701631E4E
:1008F800B70889070506E31E86FD014633278620CB
:100908008345E7000347F70022074D8F83D507008B
:1009180019C791C5630557016319B7068907050605
:10092800E31E96FD0347D4010346C4012207518FF5
:1009380003D6070019C611C7630557016317E604F4
:1009480089070347F4010346E4012207518F03D6C0
:10095800070019C711C6630557016318C70289073D
:1009680093F6060481F6631D090013040A1E3D4927
:100978003DBF1389F4FF1379F90F138409FC0DB7F0
:100988007D191379F90F01141DB7850493F4F40F39
:1009980093890902E39564ED9304F00FC1BD4111F9
:1009A80022C426C24AC006C62A8981471304F00F0A
:1009B800938481F41306C0059305F002930600049E
:1009C800338797000347070011CB6304C7006314FC
:1009D800B70013F4F70F8507E394D7FE11C88947CA
:1009E800631BF40203C714009307A0036319F702FB
:1009F8009307F0022390F400EF2050279307100488
:100A08006313F500014523008900B2402244924453
:100A18000249410182809307F00FE305F4FEB38792
:100A2800840023800700EF20702401CD9307100471
:100A38006313F5000145A2949307C0052380F400D1
:100A4800D9B71305300BC5BF757106C722C526C3B4
:100A58004AC1CEDED2DCD6DADAD8DED6E2D4E6D2A5
:100A6800EAD0EF10207913060004938581F408106A
:100A78008D3B1305F101253715C11304E00FBA406A
:100A880022852A449A440A49F659665AD65A465B38
:100A9800B65B265C965C065D49618280170900207A
:100AA8001309C9DB95572A8B2300F9000144814AB1
:100AB800938981AC938481F4854C930BF00F45ECBA
:100AC8004E8CCA852EC62380940123A28401EF3060
:100AD800605703CA040013441400850A63000A0A15
:100AE800B2456285B3CA0A08A133E30A75FDBD475A
:100AF8000344F101137AF50063E6A70816052A9C5A
:100B0800930714006312740BA6970147930500021C
:100B18002146B306EC0083C606006385B600238031
:100B2800D70085070507E316C7FE03468C00930622
:100B380000026307D6009306E0022380D7008507EA
:100B4800930500022D46B306EC0083C606006385B4
:100B5800B6002380D70085070507E316C7FEEF20F8
:100B6800307AEF30A0102A8417550000130585CD80
:100B7800EF30F02C29B74A8CCE85A9B70344F10190
:100B8800B3CA0A08EF20D077130600040C101385A7
:100B980081F48139930B10032694130DE007930C0D
:100BA800A003130B10033DA893F6F70F01473386F4
:100BB800E4000C08130707052E97034707FC050BED
:100BC800137BFB0F2300E6005A87E312DBFE2DBFE1
:100BD800050C137CFC0F63199C01050B137BFB0FA1
:100BE80063079B39130C1003A30384012303A40197
:100BF800A302640123027401EF20500771D9EF307A
:100C0800E0062A84E31D05E613060004938581F4B3
:100C18000810C13E1305F1015933FD1A23A05401F0
:100C2800EF30203E2A84E31C05E485472380F40046
:100C380023A23401EF3000412A84E31205E4970728
:100C480000209387E7BA3E869306500383D50700B2
:100C58001305140022871374F50F91C58907E3174C
:100C6800D4FE130750039307170093F7F70F930663
:100C78005003FD556393D730B547335BF70233779D
:100C8800F702137BFB0F01C7050B137BFB0F529B6E
:100C9800137BFB0FBD4763EA672F13145B00B38B0D
:100CA800890001144E9493175A00CE9703C7C700C2
:100CB8005E852386EB0003C7D700A386EB0003D726
:100CC800E7002397EB0003D707012398EB0003D72E
:100CD80027012399EB0003D74701239AEB0003D799
:100CE8006701239BEB0003D78701239CEB0003D705
:100CF800A701239DEB00D84F23AEEB0003C7B70035
:100D0800A385EB0003C707002380EB0003C7170088
:100D1800A380EB0003C727002381EB0003C737003C
:100D2800A381EB0003C747002382EB0003C75700EA
:100D3800A382EB0003C767002383EB0003C7770098
:100D4800A383EB0003C787002384EB0003C7970046
:100D5800A384EB0083C7A7002385FB007534C14734
:100D680063F86725451B97070020938767A8054701
:100D78003D4683D607002300E400A305C400A30072
:100D8800D400A1822301D40083D6270023060400BF
:100D9800A306A400A301D400A1822302D40083D611
:100DA8004700230D04000507A302D400A1822303F2
:100DB800D40083D667001377F70FE907A303D4009D
:100DC800A1822304D40083D6E7FE0114A304D4022D
:100DD800A1822305D40283D607FF2317D40283D622
:100DE80027FF2318D40283D647FF2319D40283D6BA
:100DF80067FF231AD40283D687FF231BD40283D626
:100E0800A7FF231CD402A30D040283D6C7FF231E09
:100E1800D40283D6E7FF231FD402E31C67F51384AB
:100E280081CA414B8540B380E040330B4B413D4D77
:100E380003D60700330C1700137CFC0F937CF60FC6
:100E480083D5270083D6470083D8670003D8870057
:100E580003DAA70083D3C70083D2E70083DF070143
:100E680003DF270183DE470103DE670103D3870120
:100E7800218263156C15BD4713670704A301B400ED
:100E8800A302D400A181A182A3031401A304040135
:100E980093D8880013588800A305F400A306A4007B
:100EA8002300E400A30094012301C4002302B4003A
:100EB8002303D4002304140123050401230604009A
:100EC800231744012318740023195400231AF4012A
:100ED800231BE401231CD401231D0400231EC40189
:100EE800231F640013850B02938781CC6374F51468
:100EF800138681CA330676418145FD3823A0540103
:100F0800EF10402FEF30E00F2A84E31A05B6054AA8
:100F18002380440123A23401EF10C02DEF30402A72
:100F28002A84EF10202DE31C04B48357090089CBD1
:100F38002380440123A22401EF308028EF10802B66
:100F4800EF20103C0C1013060004138581F451386F
:100F58002A44BA409A440A49F659665AD65A465B10
:100F6800B65B265C965C065D49616F202050850B58
:100F780093FBFB0FE3979BC309B633A5C7208507EF
:100F88002310B50093F7F70FF5B1C147630BFB00CA
:100F980013145B00130404E0B30B890001144A9492
:100FA80019B3970B0020938B6B8B138481CAE5B917
:100FB800970700209387C7830547ADB52300E40052
:100FC800A301B400A302D400A3031401A3040401E1
:100FD800A181A18293D88800135888000507A3002F
:100FE80094012301C4002302B4002303D400230482
:100FF800140123050401A305A40123060400A30684
:10100800A400231744012318740023195400231A39
:10101800F401231BE401231CD401230D0400A30DB8
:101028000400231EC401231F6400E9070114137779
:10103800F70FFDBB938781AC138681AAE36CF5EAB1
:1010480075BD7971194506D622D426D24AD04ECE1E
:1010580052CC56CA5AC85EC68D211305600497F053
:10106800FF1FE780A0023714004021479307840B35
:1010780098C38D45214551290146814505451D25C2
:10108800CD2B83451404174500001305257CB704B0
:101098004300EF30A037938781D023AEF182938746
:1010A80081CC23ACF1828357840171777D17F98F46
:1010B800231CF400EF00D04237094400B70964004C
:1010C800370A740079269384440523800184130920
:1010D80029049389F905130A1A06378700408347BC
:1010E8006700858B85EB83C7018481CF1305800C4E
:1010F8002380018497F0FF1FE7800030EF00104441
:1011080015C11305400697F0FF1FE780E02E05453F
:10111800A925E1B785472303F700C923D547E31479
:10112800F5FCE9B7938A410591472380FA002944E1
:10113800974B0000938B0B73174B0000130B8B73AB
:101148005E85EF30C04FEF103015AA8511CD5A8556
:10115800EF30C02B7D14130520031374F40F97F0A0
:10116800FF1FE780602969FC03C70A009147E3FA7B
:10117800E7F81745000013056570EF30404C9745B8
:1011880000009385E570138581F4EF30204C370714
:101198005F0097F7FF1F9387A7651307170698CB7C
:1011A8003707610013074706D8CB37072E00130708
:1011B800970798CF3707730013073706D8CF130759
:1011C800600784C323A2270123A4370123A647016C
:1011D80098D3EFF07F87AA8501C91745000013054A
:1011E800E56BEF30A02231BF174500001305056CF1
:1011F800EF30E04439B76F00501D797122D426D200
:101208004AD04ECE52CC56CA5AC85EC662C466C2CE
:101218006AC006D6AA842E89814C138481CC93890E
:101228009109130C00F8138A4108A94A130B80028C
:10123800938B0105138DC10583C709004A852306D1
:101248008401B397F40013D787002304F400A304A0
:10125800E40013D70701E183A305F40083470A00DC
:101268002305E40023075401A306F400238C01CCD2
:1012780083A70B00A3076401A30B940013D787016E
:10128800A308E40013D707012309E40013D7870054
:10129800230AF400A309E400A38E01CC238F01CC18
:1012A800238001CEEF00107683470D0013F5F70F6A
:1012B80089CF6685EF1000412300AD0083470D00FC
:1012C8009DC303450D001375F50FB2502254925477
:1012D8000259F249624AD24A424BB24B224C924CD2
:1012E800024D45618280850C93FCFC0F8D47E39588
:1012F800FCF4FD472300FD007D45C1BF397122DCA8
:1013080026DA4AD84ED652D456D25AD05ECE62CCBD
:1013180066CA6EC606DE6AC8AA842E89814C138402
:1013280081CC138A9109938A4108294C130BA00296
:10133800938B0105938DC1058D4983470A004A8522
:1013480023078401B397F40013D787002304F4001C
:10135800A304E40013D70701E183A305F400238A5B
:1013680001CC83C70A002305E400A3076401A30690
:10137800F400238C01CC83A70B00A30B940013D794
:101388008701A308E40013D707012309E40013D752
:101398008700230AF400A309E400A38E01CC238F5D
:1013A80001CC238001CEEF00F06583C70D0013FD4B
:1013B800F70F9DE71305800C97F0FF1FE780E00209
:1013C800F2506254D2544259B259225A925A025B8C
:1013D800F24B624CD24CB24D6A85424D21618280FB
:1013E8006685EF10202E2380AD0083C70D0091C7BE
:1013F80003CD0D00137DFD0FE1B7850C93FCFC0FA9
:10140800E39D3CF3FD472380FD007D4D55BF3787A5
:10141800004083473700094693F7F707A301F70011
:10142800834757000347370093F7F70F9376F70F73
:10143800631BC70013F7170019C7918B99C3238A39
:10144800D104014582808547238AF1045945828069
:101458008280411106C6EF00B0593D479307F00F4F
:101468006379A704938781D423AEF10223A2F10202
:10147800238A0104A547A38CF1089307002023942D
:10148800F10623AC010693070004239FF106B787F2
:1014980000401387C70123ACE1021387870123A00B
:1014A800E10A1387C702A10723ACE10023A2F104D4
:1014B8008147B2403E85410182803717004083470B
:1014C800E70412054111BD8BC98F93F7F70F9306F7
:1014D8008008F3B6068093F6860836C60F1000001B
:1014E800930670052300D704930680FA2300D704D7
:1014F8000F1000002307F70423000704B247F3A7DF
:1015080007800F10000041018280914763ECB70407
:10151800974700009387473AB3C5F52098413E970F
:10152800B71700409387470B02879443371700404B
:10153800B3F6A64094C39306070B9C42B3F7A740A3
:1015480019A8944337170040B3F6A64094C39306EE
:10155800070B9C42C98F9CC29307070A98433377AD
:10156800A74098C38280944337170040C98ED9B7E3
:1015780098433377A74098C3B71700409387070A63
:101588009843498FF9BF9843498FF5B7B71700407B
:1015980003C787009306000C1377070C6315D70061
:1015A80003A54183828003C787009306000413774D
:1015B800070C6312D70283C6870013070002FD8A4F
:1015C80081C603C787007D8B3745C3231305056094
:1015D8003345E502828083C6870013070002FD8A2F
:1015E80081C603C787007D8B3755E8011305058041
:1015F800C5B73285814737370040A14663C3A70086
:1016080082800346B740E30ED6FE3386F5000346D4
:10161800060085072304C740D5B797F6FF1F9386B2
:101628006617AA8788421387810AAA9763E9E700A1
:101638000A87130707FC6364F7009CC282807D5504
:101648008280411122C406C62A8489372947B307F4
:10165800E502B2408D83B3D7870222449507B3D7FA
:10166800E70237370040B3C707082316F7404101A0
:101678008280716541111305052006C6D937B73731
:101688000040130710F82381E7400D47A381E74086
:1016980013070004A380E74005472387E740B240CB
:1016A80041018280371700408357A701B3C7070855
:1016B80093F707FCB3C70708231DF70019C9835719
:1016C800A7018E055D8ED18DB3C50508231DB70012
:1016D800828082808547238AF1048280411106C670
:1016E80037870040034557009387410505891DC981
:1016F80003C6070085466307D60003471700014560
:10170800058B11EF05472380E700174500001305F7
:10171800E51B09472380E700EF2070725545B2406A
:101728004101828083C607000547E37AD7FE174543
:1017380000001305651A2380E700EF205070594513
:10174800F9BF37870040834737001375F50793F7CC
:101758000708C98FA301F700828082804111A14741
:10176800014506C622C4A380F18437840040D13FD6
:10177800834714003D4593F7E70FA300F400834720
:10178800140093F7970F93E72700A300F40097F04E
:10179800FF1FE78060C6834714001305A00F93F767
:1017A800D70FA300F40097F0FF1FE78000C4854718
:1017B8002303F400B24022444101828003C741055B
:1017C800854763E5E7008947238AF104B787004026
:1017D80003C757005945058B01CB03C717000145BF
:1017E80013671700A380E70082805D71A2C4A6C2B8
:1017F800CAC04EDE52DC56DA5AD85ED662D466D2F9
:101808006AD06ECE86C6B78700402387B702B789ED
:1018180000402A8AB2842385B702935A45000149B9
:1018280013846900894B094CD54C138B41057D5DA8
:10183800B94D23844903230084019307803E03475D
:101848000400098B01EF05453EC697F0FF1FE780AE
:10185800C0B9B247FD17B3C70708F5F323840902D7
:1018680083470400898B81E71305E00F69A083474C
:101878000400858B8DCB85472300F400853585478B
:10188800631495012380F18403470B008547630B9C
:10189800F70A83470B006389770B1305800C97F0D1
:1018A800FF1FE78080B483470400898BC9CB83C7B7
:1018B800790093F70704D9EB03C579003D896309DB
:1018C800B509A947631DF500D9C4FD576383F40022
:1018D800FD143D4597F0FF1FE78020B199BFA5474C
:1018E800638AFA02B5476385FA008547E39EFAF6EC
:1018F8000DC913650502B640264496440649F259B7
:10190800625AD25A425BB25B225C925C025DF24D33
:1019180061618280856793879780B3D7A700858B9D
:10192800E9DB3D4597F0FF1FE78020AC05091379F7
:10193800F90F8D47E31FF9EE130500026DBF230071
:10194800A401C5B7594545BF554575B7014565B7A4
:101958001305E0024DB71305A00271BF011126CA95
:101968004AC8AE842A891305800C06CE22CC4EC6FE
:1019780052C456C25AC097F0FF1FE78000A799C00B
:101988002380040037840040A147096A2306F40233
:1019980013060A7181451305000D813D631E051666
:1019A800930700FD2307F4022305F4028547230665
:1019B800F402938A818383A70A0017450000130560
:1019C80065F203C4770003C767002204598CA28517
:1019D800EF20D02363000410630E090E83A70A00CA
:1019E80017450000130505F183C50700EF201022F5
:1019F80083A70A008387070063C90706138B11842E
:101A0800B7890040130A0A711305800C97F0FF1F6D
:101A1800E780A09D83470B006374F4009377F40F6D
:101A28002386F902814703C7C9026395E71283C574
:101A3800E90252864145553B65E183C7C902B307B0
:101A4800F44033C4070881C883C7C90203C7040028
:101A5800BA972380F4004DF883C5040017450000A9
:101A6800130585EAEF20901AB5A0B7890040130A3C
:101A78000A71938AC183138B11841305800C97F024
:101A8800FF1FE780809683C5A902528613050009C7
:101A9800A93B59E103C789009377F40F6376870060
:101AA80083C7890093F7F70F1D8C3344040891C44A
:101AB80003C704003E972380E40001479376F70F9D
:101AC8006396D7063E9983C78900A5EFB78700407C
:101AD800238607021305800C97F0FF1FE780E0902C
:101AE800B787004083C7C702414599C3130500095A
:101AF8000966130606719305000CC53911EDB78701
:101B0800004003C7C7021375F70F19C783C78700BB
:101B180013F5F70F91C35D45F2406244D244424940
:101B2800B249224A924A024B0561828083A60A0082
:101B3800BA9603C60600B306E90005072380C60067
:101B4800B5BF83470B0003C78900FD17F98FBDFF99
:101B58000DF4ADBF03A70A008346090005093E97A7
:101B680085072300D70093F7F70F75BD8147938545
:101B78008183A1463307F5000346070098413E9745
:101B88002300C7008507E397D7FE8280011122CC86
:101B980006CEA14713858182138411842300F400A3
:101BA800F1379305F100138581F94D3B19E9034796
:101BB800F10083C7F1F92300F400C54763E3E700A8
:101BC8005D45F240624405618280011113850182FE
:101BD80006CE22CC26CA593F9305F100138581F918
:101BE800B53B2A8425E10347F1008D475D4463FB3B
:101BF800E704938481F903C4340083C72400138560
:101C0800018222045D8CA30781008D3783A781831D
:101C180023838700A38307009305F10026853D3BB6
:101C28002A840DE10347F1009307000463F4E700F9
:101C3800A307F1000346F100938581F9138581CC50
:101C4800EFE03FBAF24022856244D24405618280C7
:101C5800411126C2AA841385818106C622C4393758
:101C680083A7818323819700A381070081450145CC
:101C7800F5312A8401E92685E934294597E0FF1FD3
:101C8800E7808077B24022852244924441018280D5
:101C9800411122C42A841385018106C6C13D83A748
:101CA8008183238187002244B240A38107008145B4
:101CB8000145410165B1411122C42A8417F5FF1F6E
:101CC8001305C5AD06C65D3583A7818323828700CA
:101CD8002244B240A3820700814501454101BDB9B4
:101CE800B7870040130700F82380E700A3800700A8
:101CF800A381070013078004A386E70003D7C183E5
:101D0800239CE70003D78183239EE70023850702EE
:101D180023870702130790F82380E70013070004BE
:101D28002383E7027D572383E7000547238AE104DD
:101D38000D472381E7002380018482800111174524
:101D48000000130525BD06CE22CC26CA4AC84EC6B9
:101D580052C4EF20D00EEFF07FA081440144130954
:101D68004006054597E0FF1FE7800069813C01E9CF
:101D7800850493F4F40F6366990E0544DDB70504F2
:101D88001374F40FE31F24FDEFF0DF9417450000F0
:101D9800130545BCEF20B00A59445DA8B3878400F9
:101DA80083C5070052850504EF2040661374F40FBD
:101DB800E36624FF2945EF20406983D7840003C9DF
:101DC800A1814A852392F90083D7A40003CA44005D
:101DD8002393F900B53D2A8405E117450000130552
:101DE800E5B4A3802901EF206062C5332A8417492E
:101DF8000000130929B30DC9A28517450000130572
:101E0800E5B3EF20A06089470545238AF104EFF088
:101E1800DF943DA8B387840083C507004A8505047D
:101E2800EF20C05E1374F40F83D72400E364F4FE3C
:101E38002945EF2080611304B00F631B0A0003C714
:101E4800E400A1476316F7009147238AF10401448F
:101E5800F24022856244D2444249B249224A05618D
:101E68008280938981F803C52900EFF01F8F1745F9
:101E780000001305A5B0EF206059093B2A842DFD09
:101E88009387818203C9770003C76700938481F928
:101E980022093369E900174A0000130AAAA809BFF2
:101EA80001112A8706CE2E8526CCB2854ACA3686E7
:101EB80022C637240040B7E700E0FD5603A9070013
:101EC800C44323A0D71823A2D7189307F7FF93F783
:101ED800F70F0948636AF808B717004083C7570423
:101EE800B7C80300F95763741505B306C50063E066
:101EF800D80463140705098297E0FF1FE780C064D0
:101F0800AA8737170040930670052300D704930665
:101F180080FA2300D70483464704C18A2302D704E2
:101F280037E700E023202711232297103244F2409C
:101F3800E24452493E85056182808547631FF70068
:101F48008567FD173E96E98F3E96FD777D8E7D8DE0
:101F580097E0FF1FE780406565B797E0FF1FE780C0
:101F6800C06B9307150071BFB547631AF7001305D7
:101F7800900B97E0FF1FE780406F814759B7B14743
:101F88006315F7001305B00AEDB799476317F70013
:101F980097E0FF1FE780806ECDB79D47631BF70072
:101FA80023A0050023A2050097E0FF1FE780A07289
:101FB800E9B791476317F70097E0FF1FE78080753F
:101FC8006DBF81471DDFF1572DBF4111094506C679
:101FD80022C426C297E0FF1FE780004283C7C105DD
:101FE800A383F10AEFF0AFC2AA8725E903C7410529
:101FF8008D469307300863F2E60683C6410A130646
:1020080010022384C1CC7D56938781CCA384C1CC94
:1020180023810700A38107002382D700A38207003A
:1020280023830700A38307008145EFF03F93238EA6
:10203800A1045947AA876302E50203C581043D89C3
:102048009D3903C581093D8913650508AD3183C7ED
:10205800710AA383010A238EF104B24022449244F8
:102068003E85410182804111054706C6238AE10465
:10207800EFF0EFB919E113053008B2404101828051
:10208800411122C483A7010503A7C10806C601455B
:102098006384E70283A5410203A7C10323A6F108CD
:1020A8006308B7020545EFF04F95238EA10409E9AF
:1020B80003C5C1051375F50FB24022444101828062
:1020C8007D5723AEE10823A6E10823840102CDB79A
:1020D800054523AEF108EFF04F92238EA10469D98C
:1020E800C5B7411122C483A7010503A7C10906C6C4
:1020F80001456384E70283A5C10303A7410223AE18
:10210800F1086308B7020545EFF02F8F238EA1046D
:1021180009E903C5C1051375F50FB2402244410111
:1021280082807D5723AEE10823A6E10823840102BB
:10213800CDB7054523A6F108EFF02F8C238EA10417
:1021480069D9C5B783A7010583A54102411103A732
:10215800C10322C406C623A6F1086305B7020545D4
:10216800EFF0CF99238EA10401C97D5723AEE10872
:1021780023A6E10823840102B240224403C5C10515
:102188004101828023AEF108D9BF83A7010583A549
:10219800C103411103A7410222C406C623AEF108B8
:1021A8006305B7020545EFF06F95238EA10401C9B9
:1021B8007D5723AEE10823A6E10823840102B2403B
:1021C800224403C5C1054101828023A6F108D9BF75
:1021D80003C6010283A7010703C7510A83A60109A1
:1021E800F917B397C7003697BA9723A8F1048280E6
:1021F80041458280FD5723AEF10823A6F1082384C8
:1022080001028280797126D21307500556CA2384A9
:10221800E1CC13073005A384E1CC83A78101130720
:1022280020042385E1CC1307300422D44AD04ECEB3
:1022380052CCA385E1CC06D67D475AC85EC662C497
:102248002390E7002A8483C5710A03C581043706F1
:102258000200EFF08FD9238EA1045947630FE514CC
:10226800938B81CC15CD938781CC938481CE984371
:102278009107D8CFE39D97FE893BDE879853910756
:1022880023AEE7FEE39C97FE83C5710A03C581046C
:1022980037060200EFF06FD5238EA104631B0516E5
:1022A80083C49B0003C68B0083C7AB0003C7710AB6
:1022B80083C6BB00A204D18CC207C58F134707048D
:1022C80093948601A383E10ADD8C638404108386DA
:1022D800CB0083D7E10763D40608138B81D091A084
:1022E80000C383C5710A03C5810937060200EFF0F0
:1022F800CFCF238EA104631E051403C7710A83A6DA
:10230800410483D7E10713470708A383E10A83D66B
:10231800060063E1F4189D8C639ED7143E94638B8A
:10232800041403A7010AE3FDF4FA2320670155BF4B
:1023380023A088002390F60083D7E1079D8C3E9464
:10234800EFF0AFCA238EA1042DE103C7710A13472A
:102358000704A383E10A6386040E83D7E10703C851
:102368008104BA853706020083A8810383A6810108
:102378004285E3FFF4FA23A0780123909600814771
:1023880003460400B38677018507C2072380C60089
:10239800C1830504E39697FE37060200BA85428595
:1023A800EFF0AFC4238EA10479C903A78103930773
:1023B800E00223207701630FF506B25022549254AD
:1023C8000259F249624AD24A424BB24B224C456109
:1023D800828003C5810937060200BA85EFF0EFC095
:1023E800238EA10479F983C7710A03A7410493C70F
:1023F80007F8A383F10AFD47238EF104035707006A
:10240800B5476314F70203C541D129C1854763FE67
:10241800A7002254B25092540259F249624AD24A51
:10242800424BB24B224C45614DB603C5C1051375ED
:10243800F50F61B703C581043D89EFF0DF8703C756
:10244800710A83A7810323A0770161B7238E010452
:10245800ADB783A6010A1307E00223A06601E31EB5
:10246800E5F403C581093D8913650508EFF0BF84CC
:1024780003C7710A83A7010A23A0670199BF03C78D
:10248800710A83A7810313470704A383E10A23A0E2
:10249800770181B763E5D402F1DE9387F6FFC207BF
:1024A800C1838507A2975A87834607000504050755
:1024B800A30FD4FEE39A87FE03C7710A65BF9396FC
:1024C8000401C182D9BF4111294506C697E0FF1F03
:1024D800E78080F203C74108938781CCA386E70091
:1024E800C94619472384D7002387E700930600F8D5
:1024F8000D47A387E700A384070049472385070002
:10250800A38507002386D700138581CEA389E7001A
:1025180023880700A388070023890700238A070068
:10252800A38A0700238B0700A38B0700238C0700CF
:10253800D139154597E0FF1FE78000EC83C7C10537
:10254800014593F7F70F81CF03C5C105D947137527
:10255800F50F6309F500D547630CF5000145B24056
:10256800410182800547238AE10423AC0106C5BFE7
:102578000947238AE104E5B73971A54722DCA38C12
:10258800F108BD47238AF10226DA4AD84ED652D43A
:1025980056D25AD05ECE62CC66CA6AC86EC606DE0D
:1025A800938D81CC93844103214B930A00F8130A3D
:1025B8005002A949854C4D4D81A063FADC0A630895
:1025C800A70BA380E400013703C5410303C7140028
:1025D80072057D85137585F71305850C238EE10437
:1025E80097E0FF1FE78040E103C741037D1713779A
:1025F800F70F238AE10225CF03C74108138581CE4F
:1026080023846D01A386ED00A3840D0023850D00AE
:10261800A3850D0023865D01A3874D0123880D0046
:10262800A3880D0023890D00238A0D00A38A0D00BD
:10263800238B0D00A38B0D00238C0D0023873D01F8
:10264800A3890D00C13603C7C1051377F70F930699
:10265800B7FE93F6F60F35F383C76D021147638211
:10266800E70421476384E70441476388E70403C715
:1026780091098547B397E700C207C183F2506254B6
:102688002394F10603C514004259D254B259225A70
:10269800925A025BF24B624CD24C424DB24D2161D0
:1026A8008280A38C310993070040C9BFAD47A38C32
:1026B800F108856793870780D1B7B147A38CF108E4
:1026C80085676DBF411126C2AA84054506C622C486
:1026D80097E0FF1FE78040D2854763F3970683C7DB
:1026E8004105C94693F7F70F6388D700C14663F8D9
:1026F800F600238AD10421A09547238AF10483C7D1
:10270800C10593F7F70FAD1793F7F70F05476374F4
:10271800F700553B05C1094597E0FF1FE780C0CD8D
:1027280003C5C105D9471375F50F630CF502D547E5
:102738006303F504B240224492440145410182807A
:1027480083C7C10593F7F70FDDFC094597E0FF1F25
:10275800E78080CA03C5C105D9471375F50FE3188B
:10276800F5FCB24022440547238AE10423AC010664
:10277800924441018280B24022440947238AE104FD
:1027880092444101828039716EC606DE22DC26DA67
:102798004AD84ED652D456D25AD05ECE62CC66CAE9
:1027A8006AC8EFE0DFC6AA8D71E983C741050D4706
:1027B8006376F70E9147238AF104EFE0DFA3238EB7
:1027C800A104AA8D45ED938C81CC83C6EC002147EA
:1027D800639DE60C03C6FC00238601069946631533
:1027E800D60085462386D10603C77C0183C5BC0075
:1027F80003C66C0183C6EC0103C8DC0103D3E107FF
:102808002207A2062382B10A518F238A0102B3E666
:10281800060103C64C0183C5BC0103C8810403CE6D
:10282800810963106708620661861373F6006346C0
:10283800060813680301014605436390E6201397D1
:10284800850161879376F700138B41036346070878
:102858000947238AE102A300BB0013E806016311BC
:10286800061A2384010561A083C6C1051306E00288
:102878006300D62203C7C105937DF70FF250625457
:102888006E85D2544259B259225A925A025BF24B7F
:10289800624CD24C424DB24D21618280930D30087A
:1028A800F1BF13894103A300C900FD47238EF1043A
:1028B80003C7C105937DF70FD1B7136E030905460A
:1028C8000143E38EE6F693874103238AC102A3807E
:1028D800B700238CC109D1BF93E606F90947238ABB
:1028E800E102A300BB00238CD108E31C03F603C557
:1028F8005C00EFF0EFB9238EA104AA8D41F183C6E5
:10290800410A130610FA03A5C1032384C1CC7956E2
:10291800A384C1CC854A93855103238A010223816C
:102928000C00A3810C002382DC00A3820C0023830B
:102938005C01A3830C00EFF06F82238EA1040DF5D8
:1029480083461B006398560183A6C10383C606000D
:10295800238AD102154597E0FF1FE780E0A9FD56BD
:1029680023AED10823A6D10803A5C10323840102FD
:10297800A383010A238201080146130C4002930B2A
:1029880000F8194BC94A130A4002A386CC002384D5
:102998008C01A3840C0023850C00A3850C002386DE
:1029A8007C0123876C01A3875C0123880C00A38822
:1029B8000C0023890C00A3894C01238A0C00A38AEC
:1029C8000C00238B0C00A38B0C00238C0C00EFF065
:1029D8007F8383C6C105054693F6F60F8DE683C649
:1029E8004103B9C283C64108A1E203A5C1039547C3
:1029F80083460500639AF60285472382F10871B77A
:102A0800238CC109B9BD83C64103A9C283C6410845
:102A18008947138616001376F60F63E9D7022382D7
:102A2800C10803A5C10395B783C741058D4663F166
:102A3800F6049547238AF10491B593874103238AC5
:102A48006102A380B7002384010585B562542382FF
:102A58000108F250D2544259B259225A925A025B92
:102A6800F24B624CD24C424DB24D0545216199B9A9
:102A78006254F250D2544259B259225A925A025BC5
:102A8800F24B624CD24C424DB24D21616FF0AFDD3A
:102A98000145EFF04FA27DBD411126C222C406C6F2
:102AA80023A401F4EFE0BF962A8441E183C74105DE
:102AB80011476372F708938781CC03C741082384C1
:102AC8000700A386E7001947A384070023850700AA
:102AD800A3850700238607002387E700138581CE97
:102AE800A387070023880700A38807002389070016
:102AF800A3890700238A0700A38A0700238B0700FE
:102B0800A38B0700238C0700EFF0CFEF83C7C10525
:102B180093F7F70F99CB83C7C105238AF102EFF02A
:102B28009F9A03C44103238E81042285B240224424
:102B3800924441018280813919C91305000497E044
:102B4800FF1FE780608B813119C12A84F9BFEFF03C
:102B5800BFA205E5938781CC03C6170283C5070288
:102B680083C6270203C7370222064D8EC206D18EBE
:102B78006207558F23A4E1F489B703C4C105137410
:102B8800F40F65B783C74105397106DE22DC26DA02
:102B98004AD84ED652D456D25AD05ECE62CC66CAE5
:102BA8006AC86EC611476374F73803A78107FD57D3
:102BB80023AEF10823A6F10823840102B757341283
:102BC800937607FF93870767638AF63693848105B0
:102BD800A3800400238E0106A382010A23A2010612
:102BE8002D6A130A5AA5138D410323A80104930BD8
:102BF800900E930D0004EFF0CFCE6314051283C638
:102C0800140003A6C10399E68347060093F7D70F7C
:102C1800638B77178357E61F6398473183CEC107C5
:102C2800238CD105638FBE2F9387EE1BB29783C584
:102C3800A70003C7B70003C8870003C59700A3010F
:102C4800ED00238A0103A300AD002301BD0083A585
:102C5800410383C74700154723A8B104238AF1021B
:102C68006387E72A3D476384E72A7687014F014354
:102C78003545054E1548BD489DA083C74103FD173E
:102C880093F7F70F930F07019382F6FF6367F50039
:102C9800637EDE0E93F6F20F054F13F7FF0F9307CF
:102CA800E71BB2976306B70B03C3A70083C5B7003A
:102CB80083CF970023016D00A301BD00A300FD0190
:102CC80083C5870083C747000543238AB10283A5CC
:102CD8004103238AF102638F0701638D1701939FD4
:102CE800870193DF8F4193F7F703E3D80FF8238A1F
:102CF800F10271B723A8B10463040F00A380D400C4
:102D0800238CE10483A7410683C6510ABE9523A8F4
:102D1800B104E39206EE4107A382E10A23A2B106B9
:102D2800F9B5EFF08FAAEFF03F85EFF08FBBE3081E
:102D380005ECF2506254D2544259B259225A925A6E
:102D4800025BF24B624CD24C424DB24D2161828003
:102D58006304030023A8B10463040F00A380D40014
:102D680083C7510A13070004238CE104638B071AF5
:102D780063990E1A03C71400238EF10623A20106D5
:102D8800BD47E314F7E683A5010505A06302031E0A
:102D980023A8B10463040F00A380D400238CE104AA
:102DA80083A7C109BE9523A8B10423ACB106EFF0EF
:102DB8004FB341F183A5C1031307900E83C70500E4
:102DC80093F7D70F6390E71A83C7D5001397870146
:102DD800238EF10661876342071819478607238007
:102DE800E10293F7F70F0145194793968701E186AA
:102DF8001306F7FF860763C706101377F60F93F7D6
:102E0800F70F05457DF3854723800102238EF106E0
:102E180003D5650123A0A10601E5C85123A0A10699
:102E280083C7450103C63501A207D18F23A0F1044A
:102E380081E79C5123A0F10403C6250183C815012D
:102E480083D6810603C3910922063366160195824B
:102E580083D8E500B296FD161306B3FFB3D6C64075
:102E68003386160103CF05012A9623A6D10223A68D
:102E7800110523AAC1028946630DDF0823A00106B4
:102E880083A60105918F33D7E700369623A8C1089A
:102E980023A4E108C167D11763EBE7042391010874
:102EA8008567D11763EBE7060547A384E1026383CF
:102EB800080283A7C10299CF85476305FF0083A74E
:102EC800010689CB03C5B50011E503C7C5008547D1
:102ED80063E5E70A83C71400C9EB8547A380F400BC
:102EE800238E0106A382010A23A20106D5B9DC5567
:102EF80003D6050323A6F1022391C1080D47A38435
:102F0800E10275B7E30605F02380E10211B7768781
:102F1800D5BB2A9623AAC102A5B70947A384E10213
:102F280079B71305200931B51305100919B5EFF064
:102F38009F85E31005E0EFF02FE485B93D8B93847E
:102F48008105A380E400238E0106A382010A23A23F
:102F58000106BD47E316F7C83DB51D472380E102CA
:102F68001D477DB51305100AE9B31305300AD1B31F
:102F7800E3080FE2A380D40025B583C74105B698BE
:102F880023A6110511476376F700C147238AF10488
:102F98004DB36254F250D2544259B259225A925AFD
:102FA800025BF24B624CD24C424DB24D21616FF044
:102FB8008F8B01114AC883A7C10826CA22CC06CE26
:102FC8004EC623A8F104EFF0EF972A8411E583A7F2
:102FD800010699EB238401022285F2406244D2441F
:102FE8004249B2490561828003A7010583A54102D0
:102FF800BA97054523A8F104EFE04FB003A70105F0
:10300800238EA10403A6010683C7C105118F23A837
:10301800E10493F7F70FDDDF03C4C105FD5723AEC5
:10302800F10823A6F108238401021374F40F6DB785
:10303800797152CC03C8910222D426D24AD006D63E
:103048004ECE56CA5AC85EC689472A89014403A784
:10305800C1016300F8128D47630BF81093571700EE
:10306800137417003E9783D6810683C7910983A5F9
:10307800410203A6C104FD16F98EB357F70003A752
:10308800C108AE96B29723ACD10423AEF100638297
:10309800E70203C7810209C7293F5DED83A7C10184
:1030A80023A8F104EFE0DFFD45E903C8910283A6F8
:1030B8008105630F090091476308F9168547630F77
:1030C800F90E83A7010723AEF10005472384E10227
:1030D8002380010889476300F80A0D4783A7C101C7
:1030E8006301E80E03C5060013F8F70F83D58106C0
:1030F8001377F5009318480003A6410233671701B8
:103108009384410391831377F70FFD15A380F4008F
:103118002381A400238AE102B307B600638AF6106C
:1031280083C71600A381F400631009086309040E1D
:1031380083D72400918305672391F4005917636CA2
:10314800F70A03C7010823AAF1023369E900631BE0
:10315800090423A8F1060145B25022549254025999
:10316800F249624AD24A424BB24B456182800A0711
:10317800DDBD0607CDBD03D7060023AAE102C1675E
:10318800D91763FDE70085472380F108630C090020
:1031980083A7C10101452390F6007DBFE31A09FE0C
:1031A80023A8E10601454DBF31CC2380E60083A763
:1031B800810503C71400A380E7009DBF23AE01006B
:1031C80029B79842370600101305F6FFB70500F037
:1031D800F98DE98FCD8F698F23AEF10023AAE10223
:1031E8005916637CE60605472380E108E30C09FAD3
:1031F8009CC2014595B705472380E10823AAF1023F
:10320800014599BF2380060183C7340003C7140012
:1032180083A68105C19B1183D98FA380F60083D72C
:103228002400D207D18301BFFD5723AEF10071BD41
:103238006318090283C7810285EB83A7C108850744
:1032480023A8F104EFE0DFE3E31805F083A74102C8
:1032580083C70700A381F400D1BDE31B09F889B730
:1032680011E042872380E600A933E31705EE83A720
:10327800C108850723A8F104EFE09FE0E31E05ECF1
:1032880083A6410203C70600A381E400E30009EA1C
:1032980083C7140001E4419B9183D98F2380F600F2
:1032A80005472384E10259B5797122D466C262C404
:1032B80003A8810803AC01076AC026D24AD04ECEC3
:1032C80052CC56CA5AC85EC606D68549938A410367
:1032D80063648813050C014523AE8101EFF05FD5C7
:1032E80023A8810759ED83A741036380071403A826
:1032F80081089367FC0F1367F80FE38BE7FC83C61D
:103308009102E38736FD83A74102094603D7810668
:1033180023ACF1046385C60893562700FD16C20640
:10332800C182370E0010239AD1022391DA00368722
:10333800814E7D1E39A0131703014183AE87854E48
:103348005DCFD0431303F7FF93854700B378C601D9
:10335800E39308FE23ACB10463850E0C239AE102C3
:10336800B7050010B3E68601FD153387E6404D8E9C
:103378000507D0C323A8E1066360E808054723844E
:10338800E102B250225492540259F249624AD24A96
:10339800424BB24B224C924C024D456182801356EF
:1033A80017007D1642064182239AC1022391CA0062
:1033B8003287014339A0139708014183AE8705433B
:1033C80021CB83D627009308F7FF93852700E5F6DE
:1033D80023ACB10463090304239AE102FD56239147
:1033E800D70083D62A00B3E686013387E64005076F
:1033F80023A8E106E374E8F81305100B59B7336CFA
:10340800DC0023ACB104239A010223A88107C9B5C3
:10341800336CCC0023ACB104239A010223A88107A2
:1034280045BD368735BF328755BF225423AE81014B
:10343800B25092540259F249624AD24A424BB24BB4
:10344800224C924C024D114545616FF07FBE4111EF
:1034580006C6993D9307100B6305F500B24041017C
:103468008280B24023A8010641013DBD5D7156DA54
:1034780083C7410586C6A2C4A6C2CAC04EDE52DCB6
:103488005AD85ED662D466D26AD06ECE3D47637C87
:10349800F72C83C741053D47637DF710C147238A51
:1034A800F10483C681F42383010A63860630130777
:1034B800C0056387E6301307F0026383E63013879D
:1034C80081F4034617009307A0036306F62A3EC457
:1034D80083A6010383A7010932C623AAE10813843E
:1034E8004103638D061C83C5010203C6C107138708
:1034F800E6FF3317B700BA97A382C10A23AAF106D9
:103508006302062423A8F104EFE0BFBD5DE583D77D
:103518008106239501066384072083A5C10323AC94
:10352800B10483C70500B9CB930D500E2D45930BFD
:10353800C0056381B70315476394E7009307500EEE
:1035480003A84109834608006388F6081307A00208
:103558006384E60883D7A10603D781069387070209
:10356800C207C1832395F10663FBE71A83A5C1034C
:10357800BE9523ACB10483C70500C5FF83A64109E6
:1035880081471306A0029305C0051305F00239A070
:10359800630EC7006303B7226301A7223387F600CF
:1035A80003470700850793F7F70F7DF313052004FA
:1035B80029A0EFE05FABE30605EEB640264496444B
:1035C8000649F259625AD25A425BB25B225C925C5B
:1035D800025DF24D616182809D8E93B6160036873A
:1035E8002301D4003386D500B307E80083C707005A
:1035F800034606009308F0021303E002214E930EDF
:103608000002130F1700638EC702F9C76386770D90
:103618006384170D639D670C6304C701631AD6158D
:103628002301E401A146034724003386D50003465D
:103638000600B307E80083C70700130F1700E396D7
:10364800C7FC050785061377F70F2301E40093F6F7
:10365800F60FE39AA6FC429783470700A301F400FC
:1036680083C7B500A18BE39707EE2380010883A7E2
:103678008105A24583D6A70103C691020D4723A859
:10368800D1026318E60003D747014207D98E23A861
:10369800D10203473400630B072403C701086317EB
:1036A80007240347240083A741090507BA9723AADB
:1036B800F108B24783A70109E39706E203A7C1020D
:1036C8009376F70F958F1377F70FA382E10A23AA52
:1036D800F106E31907E25DB513070002631EE6026F
:1036E8001D47E36DD7F603C78500E309C7F6A301B5
:1036F800F4001307A002E39FE7E483C7B500A18B9A
:10370800E39A07E483A741066389071463C1071294
:10371800FD1723A2F1063DBDA301F40025BD03C793
:10372800510A83A741077D1785071377F70F23AA47
:10373800F106A382E10AE31707DCA24783A6010387
:10374800E38E06E2014523AED100EFF07F8EE3164B
:1037580005E683C70108E39307E283A64103A2476E
:1037680023A8D102B9B7EFF0EFC1E30405D2B1B590
:10377800A3016400C5B393072004E3FAD7D41387E1
:10378800B1F423AAE1089387B1F489A0D84F23A202
:10379800E10691E67D57A382E10A23A2010683C7C9
:1037A80041053D476378F718D147238AF10483C759
:1037B800010863990716014509B51305300BF5BBD8
:1037C800138791F423AAE108938791F483C69102A1
:1037D8000D476384E60603C707003EC436C623A820
:1037E800010283A701098146E31B07CE83A6C10214
:1037F80003C69109A24513F7F60F998F3317C7002F
:10380800094623A8C102238ED106B24623A8F1088F
:1038180023A2E106894623A8D10623A00104A38296
:10382800010AC947238AF1041305100479B3EFD0BC
:103838003FC283A741062D45E1BD83A6C10283C7C8
:1038480007003AC423A8D10289C73EC683A7010945
:1038580079B17D5723A2E1067DBF238A010283A7A0
:1038680041090147130500022148154E15539308D5
:10387800E002AD451DA82300D60083C7410383A6F7
:10388800410999EB03C606006318C6012380660048
:1038980083C7410383A64109850793F7F70F238A56
:1038A800F102B6970507630DB70283A681053E8628
:1038B800BA9683C60600E387A6FEE31E07FB2380AD
:1038C800170183C7410383A6810503A6410985071C
:1038D80093F7F70F238AF10283C686003E9661BFED
:1038E8002380070085472380F10851B303C7B70039
:1038F80023A8D10623A00104A382010A418BE30770
:1039080007E883C74105FD5623A2D1063D47637EDC
:10391800F700CD47238AF10483C701081305100473
:10392800E38D07C81305300449B9EFE0CFF3E31678
:1039380005C8DDB7EFE02FF3E31105C88DBD83A6F9
:103948000103011122CC26CA06CE4AC84EC652C46B
:1039580056C2B9CA938781F483C59109D84303C66F
:10396800510A83A781F43357B700B305C74063FDF5
:10397800B70423A8D10603C7C10763EEE70421A84B
:1039880083A781F403C7C10783A60107998F23A4DE
:10399800F1F463E2E704014523AED100EFF04FE90B
:1039A80019E983C70108E9DFFD57A382F10AFD572A
:1039B80023A4F1F40145F2406244D2444249B24999
:1039C800224A924A05618280B297998F23A4F1F422
:1039D80083A601074DB783C5010203A60109138712
:1039E800E6FF3317B700B386C7003697A382F10AFC
:1039F80023A8E10423A4E1F4014575BF411106C6DB
:103A080022C4EFF07F8A11CD9307100B6306F500EF
:103A1800B24022444101828023A80106EFF0DF88EA
:103A280065F9EFF00FD96DF583A7010703A74107E3
:103A380023A8F10223A8E104EFE0AFEA71F903D665
:103A4800A10683A7C10303A701032244B297935693
:103A58000701239DE700B2400546D0CF239AD7003F
:103A680023ACF10441016FE04FF2411183D72108E3
:103A780022C423AAA10206C6014589E7B24022440E
:103A88004101828003A78107BA9723A8F104EFE0D8
:103A98004FE56DF503A7C10383A64103224483279D
:103AA800871EB240B6972324F71E41016FE0EFED61
:103AB80083C741052383010A4D476364F700014525
:103AC800828003A74107411106C623A8E104EFE05D
:103AD8004FE109ED03D7A10683A7C1030145BA97B2
:103AE80003C7B70023ACF104418B01C7B2404101C1
:103AF800828003A74106B240D8CF41016FE0EFE8CA
:103B0800411122C483C7410506C6454793F7F70FFD
:103B18006372F7084947638BE70483C741054D473C
:103B280093F7F70F6361F7022383010A83C74105FF
:103B38003D476378F702C147238AF1040145B24043
:103B48002244410182805147638CE70483C7610A9C
:103B5800F1DFEFF0FFF565F583C741053D47E36CFD
:103B6800F7FC2244B24041016FE0EFCF03C7910256
:103B78008D47E304F7FA83C5010203A6010983C749
:103B8800C10205473317B700B297238EE10623A871
:103B9800F10861B7B24022441305400B410182800D
:103BA80083C781F4C5F749B7011122CC83C7410502
:103BB80006CE26CA4AC84EC64947637FF70883C758
:103BC80041053D476370F708C147238AF10403A7FD
:103BD800410723A8E104EFE0CFD025E903D7A106E8
:103BE80083A7C103BA9715572380E700EFE0EFD901
:103BF80029ED83A7010323AAF102A1CB9386F7FF3E
:103C080023A8D10223A8010619A083A741030545CB
:103C180023AEF100EFF0CFC10DE983A7010703C779
:103C28000108850723A8F1066DD3EFF08FB811EDD1
:103C380003A501076244F240D2444249B2490561F2
:103C48006FF0BFE2EFE02FC259D1F2406244D24494
:103C58004249B24905618280EFF05F812DD1F2407F
:103C68006244D2444249B24905618280797122D4C2
:103C780006D626D24AD04ECE52CC56CA5AC85EC6AE
:103C8800EFF0CFFEA382A10A630F0510930720046B
:103C9800630DF500B250225492540259F249624A17
:103CA800D24A424BB24B4561828083D6A10683D764
:103CB800810603A7010363E0F6086319071083A7C9
:103CC800C102A382F10A130A500E83A74107FD1708
:103CD80023AAF10623A8F104EFE0AFC045FD03D6FF
:103CE8008106239501060DCA83A5C10383C7050074
:103CF800638847259307000201A883C60600420788
:103D0800418363864603BA87B386F50013870702A3
:103D1800E3E5C7FE2395F10683C7510AFD1793F71C
:103D2800F70FA382F10AD5F31305200BA5B703A754
:103D380001032395F10623A8E106EFF0EFD69307D8
:103D4800100B6300F50839F5EFF0AFA621F583A74E
:103D580001077D5523A8F102EFF03FD105FD03A728
:103D6800410723A8E104EFE0CFB7E31505F283D6B6
:103D7800A10603A7C1038147369723ACE104A945EF
:103D8800930800027D4801A82300070063800611FC
:103D980003A7810585073E9793F6F70FE3E6F5FE3F
:103DA80023001701F5B7EFF03FE0E31505EE03A791
:103DB800010323A8E106EFF02FCF9307100BE314BC
:103DC800F5F823A80106EFF02FCEB5BF014523AEC5
:103DD800E100EFF0EFA5E31F05EA83C7010803A799
:103DE8000103B1DB23A8E106EFF00FCC9307100B1A
:103DF8006309F508E31005EA83A70103094523AE23
:103E0800F100EFF0EFA2E31705E8EFF08F9AE31364
:103E180005E883D6810689CE03A6C1038147330707
:103E2800F6009107C20723200700C183E399D7FE54
:103E380083A7010703C6010283A60109F91703C76F
:103E4800C107B397C700B697A382010A23A8F10454
:103E58002395010623AAF106238AE10219EFE5A0BA
:103E680083C7410303A70105FD17050793F7F70F5C
:103E780023A8E104238AF102F9C7EFE00FB16DD15D
:103E880011BD23A80106EFF02FC2ADB703A6810527
:103E98008D6793871702231CF60085475CCE83A79E
:103EA80041099308E0022D4303C70700B305A600A4
:103EB80005051375F50F09CF9386170063091705D4
:103EC8002380E50023AAD10863046500B687E9BF0B
:103ED80083A7010313D70701231DF600231AE60061
:103EE800EFE0AFAAE31805DA83A6010303C741058B
:103EF80023A8D10623A2010623A00104A382010A54
:103F0800BD4663F3E6025147238AE10461B323AA5D
:103F1800D10803C717009386270023AAD1082304D2
:103F2800E6002545B68749B72254B2509254025943
:103F3800F249624AD24A424BB24B45616FE0AF92B6
:103F480003A70103CDBB7D55EFF03FB2E31405D4C1
:103F580003A70103CDB3411126C222C4138481F4FF
:103F680018444C400345240006C623A8E104EFD0BA
:103F7800CFA805E90347240083C79109504083A6C9
:103F8800010403C881F4B317F700C207C1833E9642
:103F98004297B69750C023A0F1042384E1F423018B
:103FA8000400B2402244924441018280411126C259
:103FB80022C4138481F418444C400345240006C6E7
:103FC80023A8E104EFD08FB305E90347240083C792
:103FD8009109504083A6010403C881F4B317F70080
:103FE800C207C1833E964297B69750C023A0F104FA
:103FF8002384E1F423010400B240224492444101A5
:10400800828083C741054547637BF70283C59109D1
:1040180003A7410603A8010483A781F4138581F44B
:10402800232205013357B7006375F70023A4E1F491
:10403800BA87B397B70023A0F1046FF05F90130518
:10404800400B828003C74105D14663E8E61683C763
:10405800410545476373F716797122D456CA83A57B
:10406800010483A7410603C781F403C69109938617
:1040780081F406D626D24AD04ECE52CC5AC85EC655
:1040880062C48D8F238401F4B3D7C700A380E600F0
:10409800238106001306F00F138481F46369F60E7A
:1040A800A381F6009304F00F130B000471C3834738
:1040B8003400DDCF83C7510A638C970AEFE04F9134
:1040C80083452400D5C183C7910903A70105DD17DE
:1040D800B357FB4063D6F5001C44AE97638CE700EA
:1040E80023AAE102EFF03FE759E583A7410383459F
:1040F80024001CC403C5C10783C6510A0346340003
:104108003307D5401377F70F9377F60F6374C7001B
:104118009377F70F03471400636EF7061D8FBE965B
:10412800BE951377F70FB307F64093F6F60FA30083
:10413800E4002301B400A301F400A382D10AE31729
:10414800D5F683A70107014523AEF100EFE05FEE46
:104158001DE183C7010803471400B337F000B30714
:10416800F040A382F10A3DBF83A701051CC459B7DB
:104178000345240015E5B250225492540259F249DD
:10418800624AD24A424BB24B224C45618280930725
:10419800F00F39B7BA95BA962301B400A382D10AB1
:1041A8002254B25092540259F249624AD24A424BBE
:1041B800B24B224C45616FF01FDA1305400B828029
:1041C800797156CA83C7410506D622D426D24AD069
:1041D8004ECE52CC5AC85EC662C466C26AC0514747
:1041E8006360F71A83C741054547637BF71803C720
:1041F80081F4138D81F4A300ED006301071283C6D7
:104208004105238401F423110D00C9476381D71A9E
:1042180083C7510A55A083C7910903A601051387CF
:1042280077FF93070004B3D7E74063D7F6008327E7
:104238008D00B697638EC70023AAC102EFF01FD77F
:104248006319051083A7410383462D002324FD002D
:1042580083C7510A83C5C10703461D003387F5404C
:104268001377F70FB29793F7F70F636EE6108D8FFA
:10427800369793F7F70F2301ED00A300FD0099E7A8
:1042880003274D0083A7C1036307F70E83A7010720
:10429800014523AEF100EFE0BFD945ED83C7010822
:1042A80003471D00B337F000B307F04093F7F70F4B
:1042B800A382F10A630F070C1307F00F6395E70455
:1042C80083A70103CDC783C7410549476317F70093
:1042D80003C791028D476318F71283A701072326A6
:1042E800FD00EFF0CF9635E58327CD00094523AED5
:1042F800F100EFE0FFD331ED83473D00A382010ACF
:10430800FD17A301FD00EFD0BFEC83462D00E39419
:1043180006F083A701052324FD001DBF03C7610A1A
:1043280061E7238401F483C7410523110D0083C786
:104338008102B5EB03453D0055E103A7010483A6BF
:10434800410663F7E60023A2E10605472383E10A55
:104358000145B250225492540259F249624AD24A53
:10436800424BB24B224C924C024D45618280EFF099
:10437800EFE859D1F9BFEFF07FC3E30905F0D1BFEA
:104388001305400BF9B73307D6002301ED00A382CC
:10439800F10A83C7810281EB83472D00C1DFEFF06B
:1043A800FFC049D97DB7EFE0DFC07DD55DB783C6D3
:1043B80091028D47E38EF6E403C6910983A741066F
:1043C80083C6510AB3D7C700958F93F7F70FE3F168
:1043D800E7E4A300FD00E39D07E291BF136505F044
:1043E800EFF0AFE839D9B5B72254B2509254025918
:1043F800F249624AD24A424BB24B224C924C024D8D
:1044080045616FF0EFEA1305100BA1B75D7122D477
:1044180006D62A842EDA32DC36DEBAC0BEC2C2C460
:10442800C6C617C5FF1F0325253711C51C4D81E7D3
:104438002AC6BD2D32450C455418228636CEEF00CB
:10444800B036B250225461618280AA8517C5FF1F19
:104458000325853411CD1C4D81EF011106CE2EC6E2
:104468002AC4B9252245B245F2401045056119A074
:104478001045F5BF411122C426C24AC006C62A8982
:10448800AE84328401C51C4D91E31D2597170000A9
:104498009387C7536316F406032449007C50858B21
:1044A80089EB8357C40093F7072081E7284CEF0076
:1044B80000791C44FD171CC463DA0700184C63C359
:1044C800E70693F7F40F2947638EE7041C40138728
:1044D800170018C02380970093F4F40F7C50858B45
:1044E80089EB8357C40093F7072081E7284CEF0036
:1044F8002075B240224402492685924441018280B7
:10450800971700009387874A6315F40003248900EE
:1045180071B79717000093876747E311F4F80324EE
:10452800C900ADBFA68522864A85152AAA847DB70B
:10453800011126CA06CE22CC4AC84EC652C4AA8445
:1045480019E11C4502901C4D2E89A5E795239C4C2A
:104558008044B5C397170000938747476310F40654
:10456800C0407C50858B81EB8357C40093F70720AC
:1045780099E3284CE9258357C400A18B99C31C48AB
:10458800C5E7A2852685612A45C1FD547C50858BE7
:1045980081EB8357C40093F7072099E3284C4D25F6
:1045A800F24062444249B249224A2685D244056112
:1045B8008280004545B72685E52969BF9717000021
:1045C8009387C73E6314F400804461BF97170000C7
:1045D8009387C73BE317F4F8C04461B71CC40509C7
:1045E80063C907021C401387170018C02380B7004F
:1045F8001C4483450900FD17F5F11CC463D9070263
:104608002286A9452685A128FD57E300F5F8A94487
:10461800B5BF184C63C4E700E39645FD228626859E
:104628003D28E31735FD95B7FD59294AD1B71C40F8
:104638001387170018C029472380E700C9BFAA8538
:1046480017C5FF1F032545156FF09FEEAA8703C7FF
:10465800050085078505A38FE7FE75FB828001119C
:1046680022CC26CA4AC806CE4EC6AA842E893284CF
:1046780001C51C4D91E32D29971700009387073535
:104688006318F402C0401C4C1CC48357C400A18B9F
:1046980099C31C4895EFA2852685512015C97D59D7
:1046A800F2406244D244B2494A8542490561828057
:1046B800971700009387872F6314F4008044E1B7AD
:1046C800971700009387872CE31FF4FAC04465BF4F
:1046D8001C4808409379F90F1379F90F1D8D5C4830
:1046E8006346F500A2852685B52455F91C440505C1
:1046F800FD171CC41C401387170018C023803701FE
:104708005C486389A7008357C400858BD1DBA94720
:10471800E318F9F8A2852685352C59D149B74111F6
:1047280022C426C24AC006C697C4FF1F83A4C40673
:104738002A892E8489C49C4C99E32685952E97173F
:1047480000009387A7286314F402C0408317C400AD
:1047580013F787002DEB13F7070115EB25472320E7
:10476800E90093E707042316F4007D5559A8971725
:1047780000009387A7236314F4008044C1BF9717F0
:1047880000009387A720E313F4FCC044C1B7918BC2
:104798008DC74C5889C9930744046384F5004A853A
:1047A8004D23232A04028357C4002322040093F7CD
:1047B800B7FD2316F4001C481CC08357C40093E7B8
:1047C80087002316F4001C4881EF8357C4001307A1
:1047D800002093F707286385E700A2854A85C12151
:1047E8008317C40013F717001DC358482324040077
:1047F8003307E04018CC1848014501E713F70708CC
:104808002DF3B2402244924402494101828013F7B9
:104818002700814611E3544814C4F1BF8397C500AB
:10482800011122CC26CA06CE4AC84EC613F7870005
:10483800AA842E8469E7D8416345E000B8416358EB
:10484800E008585449C703A9040023A004000C50E9
:1048580093D7C748B9CB70488357C400918B99C781
:104868005C401D8E5C5899C33C401D8E5C540C50B6
:10487800814626858297FD57630DF5041C48056718
:10488800232204001CC08357C400F98F91C368C851
:104898004C5823A0240185CD930744046384F50074
:1048A80026854521232A04021DA001468546268522
:1048B8000297FD572A86E311F5FA9C40D1DF754728
:1048C8006385E70059476395E70623A0240101455E
:1048D800BDA098408317C40001CFF5466305D700F3
:1048E800D9466319D7041C48232204001CC04DB7BD
:1048F80018482322040093D7C74818C041BF83A98A
:104908000501E38609FC03A905008D8B23A0350169
:1049180033093941014791E3D84918C4E35920FBC9
:104928001C540C50CA864E86268582976340A00286
:104938008317C40093E707042316F4007D55F2405B
:104948006244D2444249B24905618280AA99330936
:10495800A940E9B79C49411106C622C426C281EB89
:104968008144B24022442685924441018280AA842F
:104978002E8401C51C4D91E3252A971700009387C3
:10498800E704631EF402C0408317C400F1DB7850CB
:10499800058B11E793F7072099E3284C4D242685CA
:1049A800A285EFF0BFE77C50AA84858BDDFB835797
:1049B800C40093F70720D5F7284C59245DB79717FB
:1049C80000009387A7FE6314F400804475BF97170F
:1049D80000009387A7FBE319F4FAC04475B74111A7
:1049E80022C406C62A842316B5002317C50023202F
:1049F8000500232205002324050023220506232879
:104A08000500232A0500232C0500214681451305AE
:104A1800C505EFB07FDE971700009387C7885CD085
:104A2800971700009387078B1CD49717000093876C
:104A3800278F5CD4971700009387C791B24000D0A6
:104A48001CD8224441018280970500009385C5F057
:104A580049A2411126C2930780069384F5FFB384C7
:104A6800F4024AC02E8922C406C693854407D92673
:104A78002A8401CD2320050023222501310508C4FD
:104A8800138684068145EFB03FD7B2402285224481
:104A98009244024941018280138581844DA2138585
:104AA800818479AA1385C18459AA1385C18449AA26
:104AB800411122C406C62A84EFF0DFFE1C4C91C7C0
:104AC8002244B24041016FF05FFE970700009387D0
:104AD800E7F71CD42324040423260404232804040D
:104AE80083A701836394870085471CCC22851528FA
:104AF80048C022853D2008C42285252048C4484056
:104B080001469145EFF0BFED08440546A545EFF095
:104B18001FED48440946C945EFF07FEC85471CCC9A
:104B280045B7411126C24AC006C622C42A89EFF0F9
:104B3800BFF683A401839C4C81E72685EFF05FF7DD
:104B4800938484048044DC40FD1763D607009C40AE
:104B5800A5C78440C5BF0317C40021EFC1778507E7
:104B68005CC41305840523220406C928EFF03FF32B
:104B780021462320040023240400232204002328A0
:104B88000400232A0400232C040081451305C405CE
:104B9800EFB09FC6232A0402232C04022324040412
:104BA80023260404B240228522449244024941014A
:104BB80082801304840649BF91454A85EFF07FE956
:104BC80088C02A8459F5EFF09FEDB1472320F900FA
:104BD800D1BF797122D44AD04ECE52CC5AC85EC6C3
:104BE80006D626D256CA2A892E8A130485048149F4
:104BF800054BFD5B0444832A4400FD1A63D00A0276
:104C080000406DF8B250225492540259624AD24A76
:104C1800424BB24B4E85F2494561828083D7C4002E
:104C2800637BFB008397E40063877701A6854A8549
:104C3800029AB3E9A90093848406C1B7828082806E
:104C480082805971A2D42E848395E500A6D2CAD059
:104C580086D6B284368963D305028357C40093F796
:104C6800070895EB13070040B65026542320F90097
:104C780098C0065996540145656182803000EF005E
:104C8800A072E34C05FC3247BD67F98F7977BA9774
:104C980093B71700C1BF814713070004F1B783D743
:104CA800C500797122D406D626D24AD04ECE898B39
:104CB8002E8491CF930774041CC01CC885475CC818
:104CC800B250225492540259F249456182807400CC
:104CD8003000AA84EFF0FFF6A2492A892685CE85FE
:104CE800912A01ED8317C40013F7072071FBF19B8C
:104CF80093E727002316F40075BF970700009387F2
:104D0800E7D49CD48357C40008C008C893E70708B1
:104D18002316F400B247232A340189CF8315E4000F
:104D280026857D2501C98357C400F19B93E71700A9
:104D38002316F4008357C40033E527012316A40083
:104D480041B7D1CD83A7C5FF011122CC06CE13846C
:104D5800C5FF63D307003E942AC6C525138741853E
:104D68001C43324581EB2322040000C36244F24015
:104D78000561C1AD637DF4001040B306C4006396BD
:104D8800D7009443DC43B29614C05CC0F9BF3E8799
:104D9800DC4399C3E37DF4FE14433306D700631F55
:104DA80086001040B29614C33306D700E390C7FCC0
:104DB8009043DC43B29614C35CC34DBF6375C40013
:104DC800B1471CC165B71040B306C4006396D7004D
:104DD8009443DC43B29614C05CC040C341BF828098
:104DE80041114AC0138901858327090022C426C2BC
:104DF80006C6AA842E8489E7814541212320A9007B
:104E0800A28526859D297D59631A25017D54B240C6
:104E180022852244924402494101828013043500CC
:104E28007198E30685FEB305A4402685B921E310F1
:104E380025FFE9BF011126CA93843500F1984AC8B5
:104E4800A104B14706CE22CC4EC62A89B3F4F40A8F
:104E580063C4040063FDB400B1472320F900014591
:104E6800F2406244D2444249B24905618280F1234A
:104E78009389418583A709003E8421E8A6854A8550
:104E8800EFF01FF6FD572A846317F50A03A40900FB
:104E9800A287C9EB8329040081454A85A299F12E8E
:104EA8006395A9081C408D044A859D8CF198B147EB
:104EB800A104B3F4F40AA685EFF09FF2FD57630648
:104EC800F5061C40A6971CC015A01440858E63C823
:104ED80006042D47637DD70204C033079400639608
:104EE800870223A0E9005C4014C35CC34A85912B68
:104EF8001305B4009307440061993307F540E301B3
:104F0800F5F63A94898F1CC0A1BFD8C3E9BF5840B1
:104F18006395870023A0E900D1BFD8C3C1BFA2878A
:104F28004040A1BF3E84DC43ADB7B1472320F90020
:104F38004A85012B2DB704C155BF1C46FD171CC659
:104F480063DA0700184E63C5E700A9476394F500C4
:104F58006FF0EFF01C422E851387170018C22380CC
:104F6800B7008280011122CC26CA4AC84EC652C454
:104F780006CE2A89AE893284B304D6007D5A6314DA
:104F88009400014511A8834504004E864A85EFF038
:104F9800DFFA0504E31545FFF2406244D244424972
:104FA800B249224A05618280357122CD26CB4AC991
:104FB8004EC706CF52C556C35AC1DEDEE2DCAA8907
:104FC8002E843289B68409C51C4D99E3EFF05FAE93
:104FD800971700009387879F631AF40403A4490076
:104FE8007C50858B89EB8357C40093F7072081E7B2
:104FF800284CEFF0DFC48357C400A18B99C31C4829
:10500800ADE3A2854E85EFF08FF121CD7C50858BE5
:10501800A1C37D55FA406A44DA444A49BA492A4A42
:105028009A4A0A4BF65B665C0D618280971700000E
:105038009387C7976315F40003A4890055B797179A
:1050480000009387A794E31DF4F803A4C90049BF9F
:105058008357C40093F70720CDFF284CEFF05FBEBD
:105068004DBF93070002A304F1029307000302D285
:105078002305F10226C6930B5002971A0000938A63
:10508800EA96294BCA8483C7040099C3639C7709AD
:10509800338C2441638E2401E2864A86A2854E859C
:1050A800EFF05FECFD57630DF5189257E2973ED28B
:1050B80083C7040063860718FD571389140002C8C4
:1050C80002CE3ECA02CCA309010482D4834509005A
:1050D80015465685B126C2479304190031E513F7E2
:1050E800070109C713070002A309E10413F78700A2
:1050F80009C71307B002A309E1048346090013078F
:10510800A002638AE602F247CA848146254603C79D
:10511800040093851400130707FD6374E60685C62B
:105128003ECE15A0850485B733055541B397A7280A
:1051380026893EC861BF324793064700184336C6E2
:10514800634A07023ACE03C704009307E002631ECE
:10515800F70403C714009307A002631AF702B247C3
:105168008904138747009C433AC67D57B3E7E70A8B
:105178003ECA25A83307E04093E727003ACE3EC849
:10518800D9B7B3876703AE848546BA9749B785040C
:1051980002CA81468147254603C704009385140047
:1051A800130707FD6374E606E1F683C504000D46A0
:1051B8001715000013050584A52411CD97170000C5
:1051C800938747831D8DC247130700043317A70031
:1051D800D98F85043EC883C50400194617150000F9
:1051E80013058581138914002304B102152C25CDDC
:1051F8009307000095E74247B2471377071009CF96
:1052080091073EC69257D2973ED2ADBDB38767038A
:10521800AE848546BA9749B79D07E19BA107D5B7E4
:10522800780097060000938626D422860C084E85BF
:1052380097000000E7000000FD572A8AE314F5FCF8
:105248007C50858B89EB8357C40093F7072081E74F
:10525800284CEFF0FF9E8357C40093F70704E39AA6
:1052680007DA125545BB7800970600009386C6CF2B
:1052780022860C084E85F92CC1B7411122C42A8414
:105288002E8523AC018406C6EFC02FB9FD576316DF
:10529800F50083A7818591C31CC0B2402244410117
:1052A8008280411122C42E848395E50006C63523E9
:1052B800634905007C48AA977CC8B2402244410152
:1052C80082808357C4009397C7482316F400F5B724
:1052D80083D7C500011122CC26CA4AC84EC606CEBD
:1052E80093F70710AA842E843289B68991C78395CB
:1052F800E5008946014601228357C4008315E4006E
:10530800F2409397C7482316F4006244CE864A8633
:10531800B24942492685D244056135A8411122C4C3
:105328002E848395E50006C6F9207D578357C4006F
:10533800631AE5009397C7482316F400B240224445
:10534800410182809397C72868C82316F400FDB7E7
:105358008395E5003DA0411122C42A842E85B2859B
:10536800368623AC018406C6EFC0AFA8FD57631686
:10537800F50083A7818591C31CC0B2402244410136
:105388008280411122C42A842E8523AC018406C65A
:105398009529FD576316F50083A7818591C31CC025
:1053A800B240224441018280411122C42A842E85C0
:1053B800B28523AC018406C6A129FD576316F50002
:1053C80083A7818591C31CC0B240224441018280D9
:1053D800411122C42A842E8523AC018406C63D29A6
:1053E800FD576316F50083A7818591C31CC0B240A1
:1053F800224441018280411122C42A842E85B2852B
:10540800368623AC018406C60521FD576316F500D0
:1054180083A7818591C31CC0B24022444101828088
:1054280093F5F50F2A966314C500014582808347DA
:105438000500E38DB7FE0505FDB7138541846FF0C0
:105448001F80138541846FF0AFFF797156CA9C495C
:10545800BA8A984522D44AD04ECE52CC06D626D205
:105468005AC85EC6B3E7E70A1CC203C73504AA894F
:105478002E843289368A19C385071CC21C4093F7CB
:10548800070291C78327090089072320F9000440F0
:10549800998891E8130B9401FD5B5C44032709008C
:1054A800998F63CCF40483473404B336F0001C406E
:1054B80093F70702A5EB13063404D2854E85829A2A
:1054C800FD576303F5041C4011478144998B639988
:1054D800E7008327090044449D8C8147B3E4F40A1C
:1054E8001C4418486354F700998FBE940149690415
:1054F8007D5B63982405014509A885465A86D285AF
:105508004E85829A631E75017D55B250225492547D
:105518000259F249624AD24A424BB24B45618280F3
:105528008504A5BF3307D40013060003A301C704ED
:105538000347540493871600A2978906A381E704BA
:105548009DBF85462286D2854E85829AE30E65FBED
:10555800050945B7797122D44AD04ECE52CC06D629
:1055680026D256CA5AC803C88501930780072A89D4
:105578002E84B289368A63E207039307200693864E
:10558800350463E107036301081E930780051706C6
:1055980000001306E646630BF81493042404230161
:1055A800040515A89307D8F993F7F70F5546E3664E
:1055B800F6FE1706000013062647B3C7C7209C430C
:1055C800B29782871C4393842504938647009C43A3
:1055D80014C32381F50485475DAA90411C431375C4
:1055E80006089385470039C19C430CC3584063D3D0
:1055F80007149305D002A301B40418C46350070428
:10560800B307F040170600001306863F2948B68402
:1056180033F70703FD143297034707002380E4009C
:105628003E87B3D70703E37507FF8DA09C43137527
:1056380006040CC345DD939757604DBF6D9A10C0A3
:10564800C1B790411C43137506089385470001C5EF
:105658000CC39C4339A0137606040CC37DDA83D7A8
:1056680007001307F00617060000130666396311D2
:10567800E80C2148A3010404584018C4E34907F87A
:105688000C40ED990CC0C1F7B68451F3A147631ED5
:10569800F8001C40858B91CB58401C4863C7E70035
:1056A80093070003A38FF4FEFD14858E14C8528758
:1056B800CE867000A2854A85EFF03FD9FD5A631C5B
:1056C800550D7D55B250225492540259F249624AFE
:1056D800D24A424B456182809C4193E707029CC1B4
:1056E80013088007170600001306C632A302040534
:1056F8000C401C4313F80508138547006305080090
:1057080008C39C4301A813F8050408C3E30B08FE6B
:1057180083D7070013F7150001C793E505020CC0EE
:1057280099C3414881BF18401377F7FD18C0D5BF0A
:10573800294889B7170600001306862C29482DBF6B
:1057480090411C43CC49137806081385470063062B
:10575800080008C39C438CC301A808C31376060439
:105768009C4375DA2390B70023280400B68481B7D8
:105778001C43D04181459386470014C38443268542
:10578800EFF01FCA01C5B30795405CC05C401CC858
:10579800A301040429BF14482686CE854A85029AA7
:1057A800E30155F31C40898B85E74844B2473365CC
:1057B800F50A09BF85465686CE854A85029AE302D0
:1057C80065F185045C443247998FE3C5F4FEF1BF67
:1057D8008144930A94017D5BF5B7411122C42A8460
:1057E8002E85B285368623AC018406C6A120FD57D6
:1057F8006316F50083A7818591C31CC0B24022447B
:10580800410182809307800523ACF1847D55828015
:105818009307800523ACF1847D558280930780052A
:1058280023ACF184014582809307800523ACF18481
:105838007D5582809307800523ACF1847D55828055
:105848006B3C31360D000000537461727420404384
:1058580068697049443D25303258200A000000002C
:1058680057616974204469736B52656164790000FB
:10587800253032780A000000437265617465204C57
:105888006F6E67204E616D65000000002F54434223
:10589800447E312E435356004572726F723A20256A
:1058A8003032780A00000000437265617420656E2A
:1058B8006400000076BCFFFF8EBCFFFFB2BCFFFF98
:1058C800BCBCFFFFD2BCFFFF555342206465762065
:1058D800696E000055534220646576206F75740028
:1058E800774C656E6774683A2025780A00000000D6
:1058F8006252657175657374547970653A202578BC
:105908000A00000053656E643A2025640A0000000E
:10591800526573657420686F737420706F727400B9
:10592800782530325820000047657443666744651F
:105938007363723A20000000496E6974526F6F7485
:1059480044657620457272203D20253032580A0081
:1059580044697361626C6520686F737420706F723C
:10596800742062656361757365206F66206469736E
:10597800636F6E6E6563740047657444657644654D
:105988007363723A2000000000000000000000006D
:1059980000000000000000000000000000000000FF
:1059A80000000000000000000000000000000000EF
:1059B80000000000000000000000000000000000DF
:1059C80000000000000000000000000000000000CF
:1059D80000000000000000000000000000000000BF
:1059E8000000000000000000232D302B20000000E4
:1059F800686C4C00656667454647000030313233B5
:105A080034353637383941424344454600000000B2
:105A1800303132333435363738396162636465661C
:105A280000000000A0FBFFFFB6FBFFFF76FBFFFFB7
:105A380076FBFFFF76FBFFFF76FBFFFFB6FBFFFF62
:105A480076FBFFFF76FBFFFF76FBFFFF76FBFFFF92
:105A58001CFDFFFF1EFCFFFFB4FCFFFF76FBFFFFF2
:105A680076FBFFFF4CFDFFFF76FBFFFF1EFCFFFFF1
:0C5A780076FBFFFF76FBFFFFBCFCFFFF8E
:025A840001A07F
:105A880000000000D0590000B059000090590000F3
:105A980000000000000000000000000000000000FE
:105AA80000000000000000000000000000000000EE
:105AB80000000000000000000000000000000000DE
:105AC80000000000000000000000000000000000CE
