:100AE6004C69676874206F6E204E756D204C6F637D
:100AF6006B204C4544210A004C69676874206F6678
:100B060066204E756D204C6F636B204C4544210A60
:100B16000053455420434F4E4649472E0A0057611D
:100B26006B650A00456E61626C652052656D6F7477
:100B3600652057616B6575702E0A004572724570A7
:100B460030526571436F64653D253032580A004561
:100B560072720A007273740A00736C6565700A001B
:100B66007765616B0A00556E6B6E6F776E496E74B2
:100B76000A002563004B4D20446576696365207342
:100B860074617274202E2E2E0A00120110010000CC
:100B96000008861AE1E600010102000104030904C7
:100BA6000E037700630068002E0063006E000C03DE
:100BB6004300480035003500350005010906A1014E
:100BC600050719E029E71500250175019508810239
:100BD6009501750881019503750105081901290319
:100BE60091029505750191019506750826FF000588
:100BF60007190029918100C005010902A101090117
:100C0600A1000509190129031500250175019503A0
:100C160081027505950181010501093009310938FF
:100C26001581257F750895038106C0C009023B0022
:100C3600020100A03209040000010301010009219C
:100C460011010001223E000705810308000A09047C
:100C560001000103010200092110010001223400F4
:070C66000705820304000AE8
:100F5100015CFF025A0000016100016200015800BA
:100EF90090223CE0F53CE064C0F07F0A7E00120FCE
:070F09001190223CE53CF0D1
:010F100022BE
:070DF000FB7A0079507D0839
:100DF7008D3CE5676035AF3C7E00EBC0E0EAC0E0C4
:100E0700E9C0E0C87440C8CC7410CCCD7401CDD013
:100E1700E0F9D0E0FAD0E0FB120938902209E53C6E
:0C0E2700F0902201E054FCF07561012203
:070E3300FB7A0079637D04E6
:100E3A008D3CE5676035AF3C7E00EBC0E0EAC0E080
:100E4A00E9C0E0C87480C8CC7410CCCD7401CDD090
:100E5A00E0F9D0E0FAD0E0FB12093890220AE53C2A
:0C0E6A00F0902202E054FCF075620122BE
:03003B0002003E82
:0D003E00C0E0C0F0C083C082C0D075D00803
:10004B0090223DE0F52320E50302047B90220FE094
:10005B00543F700302012024F0604414602924F102
:10006B00700302012024F0603614601B1460072417
:10007B0020600302015790220AE4F0902202E06410
:10008B0040F0756200800F902209E4F0902201E0AD
:10009B006440F0756100E054FC4402F00204F2E5A8
:1000AB005C24FB605A14705FC3E55B9408E55A94BB
:1000BB000040067E007F088004AE5AAF5B8E258F12
:1000CB0026C8E4C8CC7410CCCD7401CDAB5EAA5F4E
:1000DB00A960120938C3E55B9526F55BE55A9525B2
:1000EB00F55AAE25E5262560F560EE355FF55F9098
:1000FB002208E526F0902200E06440F00204F2AF03
:10010B005B902207EF8004902208E4F090220074A9
:10011B0002F00204F290220EE0752500F526AF5C8A
:10012B00EF6409701D901000E060087BFF7A0A797C
:10013B00E6800C901000E070097BFF7A0A79FE12C2
:10014B00056E902200E06480F00204F290220FE032
:10015B0054386438600302047090220074C0F0902D
:10016B001007E0FE901006E07C002400F55BEC3EEF
:10017B00F55A901001E0F55C752500752600752485
:10018B0000901000E054606018E55C1424FD4003FF
:10019B0002044524FB24FD400302044580000203B6
:1001AB00F3E55CB40B0040030204329001BDF82868
:1001BB00287302041002032602043202037802049D
:1001CB00320202E60201DE0204320202F302030AE9
:1001DB000203F8901003E024FE602014602E24E14B
:1001EB00606A24216003020288755EFF755F0B75E0
:1001FB00609075250075261202028B755EFF755F88
:10020B000C75603275250075263B8074901002E0EA
:10021B00602924FE6014047064755EFF755F0B75B6
:10022B0060A675250075260E8056755EFF755F0BF3
:10023B007560B475250075260C8045755EFF755F7E
:10024B000B7560A27525007526048034901004E0B0
:10025B00FF7E007010755EFF755F0B7560C0F52536
:10026B0075263E801BEF64014E7010755EFF755F47
:10027B000B7560FEF525752634800580007524FF0F
:10028B00D3E55B9526E55A9525400685255A8526A7
:10029B005BC3E55B9408E55A940040067E007F083B
:1002AB008004AE5AAF5B8E258F26C8E4C8CC741081
:1002BB00CCCD7401CDAB5EAA5FA960120938C3E542
:1002CB005B9526F55BE55A9525F55AAE25E5262572
:1002DB0060F560EE355FF55F020445901002E0FFBC
:1002EB00755A008F5B020445901000E559F0C3E589
:1002FB005B9401E55A9400500302044502040890F4
:10030B001002E0F559E55970030204457BFF7A0BA7
:10031B00791712056E756701020445901000E054C1
:10032B001FFF7E0064027034901004E014602014F0
:10033B00600C2481600D14702090220380089022A1
:10034B0002800F902201E054BC4402F0020445905D
:10035B002201E054BCF00204450203F3EF4E700B94
:10036B00F5587BFF7A0B7924020442807B901000B6
:10037B00E0541F7027901003E0FE901002E0FDED9B
:10038B0064014E7015900C399330E50C7558017B58
:10039B00FF7A0B792A020442804E804C901000E0C9
:1003AB00541F64027042901003E0FE901002E0FDB7
:1003BB00ED4E7032901005E0FE901004E0FDEDFF65
:1003CB00EE7021EF24FE600C2481600D14701590EB
:1003DB00220380089022028003902201E054BF4444
:1003EB0003F08056800280007524FF804D90100032
:1003FB00E4F0C3E55B9401E55A9400403D7525009C
:10040B007526018035901000E4F0A3F0C3E55B94F2
:10041B0002E55A94004008752500752602801B855D
:10042B005A25855B2680137524FF7BFF7A0B794158
:10043B00AF5C753F008F4012056EE524F470099098
:10044B00220074CFF00204F2D3E5269408E525943C
:10045B00009022085004E5268001E4F090220074FD
:10046B00C0F00204F27BFF7A0B795512056E807790
:10047B00E52330E0437BFF7A0B795A12056E90220D
:10048B00007402F0A3F0A3F090220C14F09022075A
:10049B00E4F0902237747FF090223D74FFF0756783
:1004AB000075580075610075610090223B7407F070
:1004BB0090223D7401F08034E52330E22190223DFF
:1004CB007404F090220FE4F0E5237BFF30E3067A0F
:1004DB000B795F80047A0B796612056E800E7BFFB9
:1004EB007A0B796C12056E90220FE4F090223DE0AE
:0604FB0030E5030200578A
:0B050100D0D0D082D083D0F0D0E03208
:10000300C2E990223CE4F090220C04F0902209E42F
:10001300F0A3F0902207F0902237747FF090223DF6
:1000230074FFF090223B7407F0A37480F0D2E922AE
:100CF900120F6C8F3B7BFF7A0B7978853B3F12058E
:100D09006EE5586003120EF9E53B24BF603924F003
:100D1900604814601724067055756301E56270FC1C
:100D2900120E33E4F563E56270FC8011756302E528
:100D39006270FC120E33E4F563E56270FCFB7A0025
:100D490079637D04020E3A755204E56170FC120D57
:100D5900F0E4F552E56170FC8011755239E5617076
:0E0D6900FC120DF0E4F552E56170FC120DF085
:010D77002259
:100E7600120F3F7F147E00120F11120D787BFF7A3E
:100E86000B797B12056E120003D2AF7E007F087DC0
:100E9600007B007A007950120A2C7E007F047D00C8
:100EA6007B007A007963120A2CE56760FC120CF964
:020EB60080F7C3
:100F3F0075A15575A1AAE5B954F84405F5B9E4F5BD
:020F4F00A122DD
:100EDF00EF4E601505A105A105A105A105A105A16D
:0A0EEF0005A1EF1F70EA1E80E72244
:100F1100AD07AC06ED4C600E7FE87E03120EDFEDEF
:070F21001D70F11C80EE229F
:080033009021E9E04410F022E5
:100D7800C29FD29EC29DC2CDC2CC438780E4753E3D
:100D880082F53DF53CF53B7B0AFAF9F8AF3EAE3DFE
:100D9800AD3CAC3B12099AAF038F3FAF3EAE3DADC1
:100DA8003CAC3BE47B0AFAF9F812099A8F3E8E3D77
:100DB8008D3C8C3BC3E53F9405748094804011EFD3
:100DC8002401F53EE43EF53DE43DF53CE43CF53BCD
:100DD800E589540F4420F58943C9A0E53EF404F59C
:070DE8008DD28ED299D29C3E
:010DEF0022E1
:080F76003098FDC298AF9922EA
:080F7E008F993099FDC2992200
:100F280075A15575A1AAEF600543B101800353B1BE
:070F3800FEE4F5A1F5FF2224
:030F86008FFF22B8
:0A0F620075A15575A1AA43B1102234
:03000000020C6D82
:0C0C6D00787FE4F6D8FD758167020CB4B6
:10086800E709F608DFFA8046E709F208DFFA803E72
:1008780088828C83E709F0A3DFFA8032E309F6085F
:10088800DFFA8078E309F208DFFA807088828C83C7
:10089800E309F0A3DFFA806489828A83E0A3F6087B
:1008A800DFFA805889828A83E0A3F208DFFA804C55
:1008B80080D280FA80C680D4806980F2803380102C
:1008C80080A680EA809A80A880DA80E280CA803395
:1008D80089828A83ECFAE493A3C8C582C8CCC5830D
:1008E800CCF0A3C8C582C8CCC583CCDFE9DEE780DD
:1008F8000D89828A83E493A3F608DFF9ECFAA9F05C
:10090800EDFB2289828A83ECFAE0A3C8C582C8CCB1
:10091800C583CCF0A3C8C582C8CCC583CCDFEADECA
:10092800E880DB89828A83E493A3F208DFF980CC2C
:1009380088F0EF60010E4E60C388F0ED2402B40425
:100948000050B9F582EB2402B4040050AF232345CC
:0609580082239008B87331
:10095E0075F008758200EF2FFFEE33FECD33CDCC50
:10096E0033CCC58233C5829BED9AEC99E5829840D3
:10097E000CF582EE9BFEED9AFDEC99FC0FD5F0D6B0
:10098E00E4CEFBE4CDFAE4CCF9A88222B800C1B9DA
:10099E000059BA002DEC8BF084CFCECDFCE5F0CB18
:1009AE00F97818EF2FFFEE33FEED33FDEC33FCEB51
:1009BE0033FB10D703994004EB99FB0FD8E5E4F90C
:1009CE00FA227818EF2FFFEE33FEED33FDEC33FCF9
:1009DE00C933C910D7059BE99A4007EC9BFCE99AED
:1009EE00F90FD8E0E4C9FAE4CCFB2275F010EF2F32
:1009FE00FFEE33FEED33FDCC33CCC833C810D70732
:100A0E009BEC9AE899400AED9BFDEC9AFCE899F86C
:0E0A1E000FD5F0DAE4CDFBE4CCFAE4C8F922FF
:10050C00E54B243FF8E6054B22783C301002783F4F
:10051C00E475F001120AB0020A582009EB7F2ED2C2
:10052C00098018EF540F2490D43440D4FF300D0BB5
:10053C00EF24BFB41A0050032461FFE54C60021590
:10054C004C054FE54F7002054E30100D783CE475AC
:10055C00F001120AB0EF020A9E020EB87403D21018
:10056C008003E4C210F54B8B3C8A3D893EE4F54C8C
:10057C00F54EF54FE54C60077F2012054780F57569
:10058C004DFFC20AC209C20BC20CC20EC20FC2116D
:10059C00120515FF700D3010057F00120558AF4F76
:1005AC00AE4E22B4255FC2D5C20D120515FF24D064
:1005BC00B40A00501A75F00A784C30D50508B6FF0D
:1005CC000106C6A426F620D5047002D20C80D924CC
:1005DC00CFB41A00EF5004C2E5D20D020758D20A6C
:1005EC0080C6D20980C0D20B80BCD2D580BAD20EC4
:1005FC0080B47F20120547200B077401B54C0040D6
:10060C00F112050CFF120547020580D211D20F80A2
:10061C009512050CFB12050CFA12050CF94A4B70DD
:10062C000679297A087BFF200B2EE54C602A7E0088
:10063C008E82758300120A7160060EEE654D70F0A5
:10064C00C2D5EBC0E0EAC0E0E9C0E0EE12079FD0F3
:10065C00E0F9D0E0FAD0E0FB120A58FF60AAEBC038
:10066C00E0EAC0E0E9C0E0120547D0E02401F9D08F
:10067C00E03400FAD0E0FBE54D0460DCD54DD980C8
:10068C00877BFF7A07799BD20B809C79108002794B
:10069C0008C20FC2118008D2D5790A8004790AC227
:1006AC00D5E54D047002F54DE4FAFDFEFF12050C84
:1006BC00FC7B08200A1312050CFD7B1030090A1272
:1006CC00050CFE12050CFF7B20EC3382D592D55025
:1006DC0013C3E43009069FFFE49EFEE4200A039D49
:1006EC00FDE49CFCE4CBF8C20AEC700CCFCECDCC74
:1006FC00E824F8F870F38017C3EF33FFEE33FEED08
:10070C0033FDEC33FCEB33FB994002FB0FD8E9EBE8
:10071C00300A05F8D0E0C448B20AC0E00AEC4D4EED
:10072C004F78207B0070C2EAB54D0040BCC0E0128F
:10073C0007A1D0F0D0E0200A04C4C0E0C4B20AC0C3
:10074C00F0120530D0F0D5F0EB020580120AC0068D
:10075C001D5306975805EE4C05EA42069B4F06A31F
:0F076C004406A34906034306A955068D46068D8C
:10077B0045068D4708495005F22D05F62E06192B17
:10078B0005FA2306172008322A05B2480000061185
:10079B003F3F3F00790AA2D5200C14300E09B91047
:1007AB00020404B9080104A2D5200F025001042051
:1007BB000B68920BB54C005034C0E07F20300C1905
:1007CB007F30A20B720F720E500F1207F8C20BC2C2
:1007DB000FC20EC2117F30800F300E03E9C0E01242
:1007EB000547300E03D0E0F9D0E0B54CCC300E17F6
:1007FB007F30B9100C1205477F58300D077F78807A
:10080B0003B90803120547300B057F2D0205477FFF
:10081B00202011F87F2B200FF322920B80CF286E14
:10082B00756C6C2900D20A12050C300AF8C20A78D2
:10083B004C30D50108F60205B22D5043495812052C
:10084B000C2403B405004001E490084493120538CE
:0D085B00743A120538D20C754C0402069751
:0A0F6C003098FDAF99C2987E002274
:100A2C00EF4E6012EF60010EEDBB010B89828A83E1
:100A3C00F0A3DFFCDEFA2289F05007F709DFFCA9EE
:0C0A4C00F022BBFEFCF309DFFCA9F02245
:100C7900020E76E493A3F8E493A34003F68001F20D
:100C890008DFF48029E493A3F85407240CC8C3337C
:100C9900C4540F4420C8834004F456800146F6DF4B
:100CA900E4800B0102040810204080900F51E47E7B
:100CB900019360BCA3FF543F30E509541FFEE49340
:100CC900A360010ECF54C025E060A840B8E493A307
:100CD900FAE493A3F8E493A3C8C582C8CAC583CA32
:100CE900F0A3C8C582C8CAC583CADFE9DEE780BEEA
:010F6100008F
:100A5800BB010689828A83E0225002E722BBFE029C
:090A6800E32289828A83E49322CF
:100A7100BB010CE58229F582E5833AF583E022503A
:100A810006E92582F8E622BBFE06E92582F8E22284
:0D0A9100E58229F582E5833AF583E493229E
:100A9E00BB010689828A83F0225002F722BBFE0137
:020AAE00F32231
:100AB000FAE6FB0808E6F925F0F618E6CA3AF62247
:100AC000D083D082F8E4937012740193700DA3A3C5
:100AD00093F8740193F5828883E4737402936860D9
:060AE000EFA3A3A380DFD9
:100EB800EFB40A07740D120EC3740A309811A8997A
:100EC800B8130CC2983098FDA899C298B811F6309A
:070ED80099FDC299F5992272
:00000001FF
