:100A3A00457272457030526571547970653D253042
:100A4A0032580A00457272457030526571436F64BC
:100A5A00653D253032580A004572720A0072737475
:100A6A000A00736C6565700A007765616B0A005548
:100A7A006E6B6E6F776E4552520A005374617274D0
:100A8A0020404368697049443D253032580A0012B3
:100A9A00011001FF80550848433755000101020043
:100AAA00010902270001010080320904000003FF46
:100ABA008055000705830240000007050202400036
:100ACA00000705810340000A040309040E037700A6
:100ADA00630068002E0063006E000C0343004800A8
:060AEA0035003500350067
:0A0C99000113FF021100000110001A
:03003B0002003E82
:0D003E00C0E0C0F0C083C082C0D075D00803
:10004B00C29290223DE0F52320E5030203DA9022D1
:10005B000FE0543F1209AC018900008402011A1011
:10006B0001051100FB13018920008422011A3001C4
:10007B00053100FB330000019790220FE020E603CF
:10008B00020470902202E06440F090220EE075258D
:10009B0000F526E4FFEFC39526E4952550357480D3
:1000AB002FF582E43410F583E0F4FE74402FF582D3
:1000BB00E43410F583EEF074802FF582E43410F500
:1000CB0083E0F4FE74C02FF582E43410F583EEF078
:1000DB000F80C2AF26902209EFF0902201E054FC72
:1000EB00F090220BEFF0902203E054FCF00204702E
:1000FB0090220BE4F09022038008902209E4F09008
:10010B002201E06440F0E054FC4402F0020470E58C
:10011B001324FB605A14705FC3E5129408E5119425
:10012B000040067E007F088004AE11AF128E258F33
:10013B0026C8E4C8CC7410CCCD7401CDAB14AA1571
:10014B00A9161208B8C3E5129526F512E5119525E7
:10015B00F511AE25E5262516F516EE3515F5159098
:10016B002208E526F0902200E06440F0020470AF14
:10017B0012902207EF8004902208E4F08005902271
:10018B000FE0FF9022007402F002047090220FE047
:10019B005438643860030203CE90220074CAF09086
:1001AB001007E0FE901006E0FDEEF511EDF512756F
:1001BB002500752600752400901000E0FF54606048
:1001CB00117524FF7BFF7A0A793A753E008F3F0247
:1001DB0003A0901001E0F513E513700302036E14F6
:1001EB00700302031724FC70030202E024FD70036A
:1001FB000202ED147003020303147003020356246E
:10020B00046003020390901003E024FE6018146056
:10021B0026240270627514FF75150A7516997525DB
:10022B000075261280547514FF75150A7516AB757B
:10023B0025007526278043901002E0602924FE607C
:10024B00140470337514FF75150A7516D6752500D1
:10025B0075260E80257514FF75150A7516E4752520
:10026B000075260C80147514FF75150A7516D2755A
:10027B00250075260480037524FFD3E5129526E52A
:10028B001195254006852511852612C3E512940884
:10029B00E511940040067E007F088004AE11AF127A
:1002AB008E258F26C8E4C8CC7410CCCD7401CDAB91
:1002BB0014AA15A9161208B8C3E5129526F512E56E
:1002CB00119525F511AE25E5262516F516EE3515F6
:1002DB00F5150203A3901002E0FF7511008F1202B7
:1002EB0003A3901000E510F0C3E5129401E51194FF
:1002FB000050030203A38063901002E0F510E51099
:10030B006005C2910203A3D2910203A3901000E0F7
:10031B00541F64027030901004E014602014600DC0
:10032B002481600E24FE701E90220380089022020E
:10033B00800E902201E054BC4402F0805B902201BD
:10034B00E054BCF080527524FF804D901000E4F017
:10035B00C3E5129401E5119400403D752500752607
:10036B00018035901000E4F0A3F0C3E5129402E590
:10037B001194004008752500752602801B851125F8
:10038B0085122680137524FF7BFF7A0A794EAF13F3
:10039B00753E008F3F1204EEE524F47009902200A5
:1003AB0074CFF0020470D3E5269408E525940090F1
:1003BB0022085004E5268001E4F090220074C0F07E
:1003CB000204707BFF7A0A79621204EE020470E574
:1003DB002330E03F7BFF7A0A79671204EE9022000C
:1003EB007402F0A3F0A3E4F0A37402F090220C7457
:1003FB0005F0D291902207E4F0902237747FF090B1
:10040B00223D74FFF090223B7407F090223D740163
:10041B00F08057E52330E24490223D7404F09022A3
:10042B000FE4F0E52330E3277BFF7A0A796C1204A3
:10043B00EED293E5A220E7FB75A15575A1AA75A98C
:10044B000943870275A15575A1AA75A900801B7B6D
:10045B00FF7A0A79731204EEC293800E7BFF7A0A3D
:10046B0079791204EE90220FE4F090223DE030E512
:06047B0003020059D292B9
:0B048100D0D0D082D083D0F0D0E03289
:10000300C2E9D291C29390223CE4F090220C740591
:10001300F090220BE4F0902207F0902237747FF0E7
:1000230090223D74FFF090223B7407F0A37480F09C
:03003300D2E922ED
:100C1B00120C877F147E00120C59120B7C7BFF7A0F
:100C2B000A7985AFA1753E008F3F1204EE120003C7
:040C3B00D2AF80FEB6
:100C870075A15575A1AAE5B954F84405F5B9E4F578
:020C9700A12298
:100C3F00EF4E601505A105A105A105A105A105A10F
:0A0C4F0005A1EF1F70EA1E80E722E6
:100C5900AD07AC06ED4C600E7FE87E03120C3FED4C
:070C69001D70F11C80EE225A
:080CAE009021E9E04410F0225E
:100B7C00C29FD29EC29DC2CDC2CC438780E4753E3B
:100B8C0082F53DF53CF53B7B0AFAF9F8AF3EAE3DFC
:100B9C00AD3CAC3B12091AAF038F3FAF3EAE3DAD3F
:100BAC003CAC3BE47B0AFAF9F812091A8F3E8E3DF5
:100BBC008D3C8C3BC3E53F9405748094804011EFD1
:100BCC002401F53EE43EF53DE43DF53CE43CF53BCB
:100BDC00E589540F4420F58943C9A0E53EF404F59A
:070BEC008DD28ED299D29C3C
:010BF30022DF
:080CB6003098FDC298AF9922AD
:080CBE008F993099FDC29922C3
:100C700075A15575A1AAEF600543B101800353B179
:070C8000FEE4F5A1F5FF22DF
:030036008FFF2217
:0A0CA40075A15575A1AA43B11022F5
:03000000020AF001
:0C0AF000787FE4F6D8FD75814E020B37CC
:1007E800E709F608DFFA8046E709F208DFFA803EF3
:1007F80088828C83E709F0A3DFFA8032E309F608E0
:10080800DFFA8078E309F208DFFA807088828C8347
:10081800E309F0A3DFFA806489828A83E0A3F608FB
:10082800DFFA805889828A83E0A3F208DFFA804CD5
:1008380080D280FA80C680D4806980F280338010AC
:1008480080A680EA809A80A880DA80E280CA803315
:1008580089828A83ECFAE493A3C8C582C8CCC5838D
:10086800CCF0A3C8C582C8CCC583CCDFE9DEE7805D
:100878000D89828A83E493A3F608DFF9ECFAA9F0DC
:10088800EDFB2289828A83ECFAE0A3C8C582C8CC32
:10089800C583CCF0A3C8C582C8CCC583CCDFEADE4B
:1008A800E880DB89828A83E493A3F208DFF980CCAD
:1008B80088F0EF60010E4E60C388F0ED2402B404A6
:1008C8000050B9F582EB2402B4040050AF2323454D
:0608D80082239008387332
:1008DE0075F008758200EF2FFFEE33FECD33CDCCD1
:1008EE0033CCC58233C5829BED9AEC99E582984054
:1008FE000CF582EE9BFEED9AFDEC99FC0FD5F0D631
:10090E00E4CEFBE4CDFAE4CCF9A88222B800C1B95A
:10091E000059BA002DEC8BF084CFCECDFCE5F0CB98
:10092E00F97818EF2FFFEE33FEED33FDEC33FCEBD1
:10093E0033FB10D703994004EB99FB0FD8E5E4F98C
:10094E00FA227818EF2FFFEE33FEED33FDEC33FC79
:10095E00C933C910D7059BE99A4007EC9BFCE99A6D
:10096E00F90FD8E0E4C9FAE4CCFB2275F010EF2FB2
:10097E00FFEE33FEED33FDCC33CCC833C810D707B2
:10098E009BEC9AE899400AED9BFDEC9AFCE899F8ED
:0E099E000FD5F0DAE4CDFBE4CCFAE4C8F92280
:1009AC00D083D082F8E4937012740193700DA3A3DA
:1009BC0093F8740193F5828883E4737402936860EE
:0609CC00EFA3A3A380DFEE
:10048C00E54A243EF8E6054A22783B301002783ED5
:10049C00E475F001120A2A0209D22009EB7F2ED250
:1004AC00098018EF540F2490D43440D4FF300D0B36
:1004BC00EF24BFB41A0050032461FFE54B60021512
:1004CC004B054EE54E7002054D30100D783BE47532
:1004DC00F001120A2AEF020A18020BF47403D2106C
:1004EC008003E4C210F54A8B3B8A3C893DE4F54B12
:1004FC00F54DF54EE54B60077F201204C780F5756E
:10050C004CFFC20AC209C20BC20CC20EC20FC211EE
:10051C00120495FF700D3010057F001204D8AF4EF9
:10052C00AE4D22B4255FC2D5C20D120495FF24D066
:10053C00B40A00501A75F00A784B30D50508B6FF8E
:10054C000106C6A426F620D5047002D20C80D9244C
:10055C00CFB41A00EF5004C2E5D20D0206D8D20A6D
:10056C0080C6D20980C0D20B80BCD2D580BAD20E44
:10057C0080B47F201204C7200B077401B54B0040D8
:10058C00F112048CFF1204C7020500D211D20F80A5
:10059C009512048CFB12048CFA12048CF94A4B70E1
:1005AC000679A97A077BFF200B2EE54B602A7E008B
:1005BC008E827583001209EB60060EEE654C70F0AE
:1005CC00C2D5EBC0E0EAC0E0E9C0E0EE12071FD0F4
:1005DC00E0F9D0E0FAD0E0FB1209D2FF60AAEBC040
:1005EC00E0EAC0E0E9C0E01204C7D0E02401F9D091
:1005FC00E03400FAD0E0FBE54C0460DCD54CD9804B
:10060C00877BFF7A07791BD20B809C79108002794B
:10061C0008C20FC2118008D2D5790A8004790AC2A7
:10062C00D5E54C047002F54CE4FAFDFEFF12048C87
:10063C00FC7B08200A1312048CFD7B1030090A1273
:10064C00048CFE12048CFF7B20EC3382D592D550A7
:10065C0013C3E43009069FFFE49EFEE4200A039DC9
:10066C00FDE49CFCE4CBF8C20AEC700CCFCECDCCF4
:10067C00E824F8F870F38017C3EF33FFEE33FEED88
:10068C0033FDEC33FCEB33FB994002FB0FD8E9EB69
:10069C00300A05F8D0E0C448B20AC0E00AEC4D4E6E
:1006AC004F78207B0070C2EAB54C0040BCC0E01211
:1006BC000721D0F0D0E0200A04C4C0E0C4B20AC0C4
:1006CC00F01204B0D0F0D5F0EB0205001209AC0525
:1006DC009D53061758056E4C056A42061B4F0623A0
:0F06EC0044062349058343062955060D46060D8E
:1006FB0045060D4707C95005722D05762E05992B1A
:10070B00057A2305972007B22A0532480000059188
:10071B003F3F3F00790AA2D5200C14300E09B910C7
:10072B00020404B9080104A2D5200F0250010420D1
:10073B000B68920BB54B005034C0E07F20300C1986
:10074B007F30A20B720F720E500F120778C20BC2C2
:10075B000FC20EC2117F30800F300E03E9C0E012C2
:10076B0004C7300E03D0E0F9D0E0B54BCC300E17F8
:10077B007F30B9100C1204C77F58300D077F78807B
:10078B0003B908031204C7300B057F2D0204C77F82
:10079B00202011F87F2B200FF322920B80CF286E95
:1007AB00756C6C2900D20A12048C300AF8C20A78D4
:1007BB004B30D50108F60205322D5043495812042F
:1007CB008C2403B405004001E49007C4931204B8D1
:0D07DB00743A1204B8D20C754B04020617D4
:100AFC00020C1BE493A3F8E493A34003F68001F2E9
:100B0C0008DFF48029E493A3F85407240CC8C333FA
:100B1C00C4540F4420C8834004F456800146F6DFC9
:100B2C00E4800B0102040810204080900C99E47EB4
:100B3C00019360BCA3FF543F30E509541FFEE493BE
:100B4C00A360010ECF54C025E060A840B8E493A385
:100B5C00FAE493A3F8E493A3C8C582C8CAC583CAB0
:100B6C00F0A3C8C582C8CAC583CADFE9DEE780BE68
:010CA3000050
:1009D200BB010689828A83E0225002E722BBFE0223
:0909E200E32289828A83E4932256
:1009EB00BB010CE58229F582E5833AF583E02250C1
:1009FB0006E92582F8E622BBFE06E92582F8E2220B
:0D0A0B00E58229F582E5833AF583E4932224
:100A1800BB010689828A83F0225002F722BBFE01BD
:020A2800F322B7
:100A2A00FAE6FB0808E6F925F0F618E6CA3AF622CD
:100BF400EFB40A07740D120BFF740A309811A89908
:100C0400B8130CC2983098FDA899C298B811F63060
:070C140099FDC299F5992238
:00000001FF
