:10153000537461727420404368697049443D25309A
:1015400032580A00576169742044657669636520E2
:10155000496E0A00456E756D416C6C526F6F744434
:10156000657620657272203D20253032580A004D84
:101570006F75736520646174613A2000782530329C
:101580005820000A004D6F757365206572726F7286
:1015900020253032780A004D6F757365206E6F20FC
:1015A000696E7465727275707420656E64706F69AF
:0415B0006E740A004B
:1010CC00121B5E12162F7BFF7A157930AFA1754774
:1010DC00008F4812061C1219A1C2097BFF7A1579E0
:1010EC004412061CE4F52330D80EC2D812176D8FAB
:1010FC0023EF64157002D209200906E523641570EC
:10110C001FC2097FC87E00121B30121AC38F23EF37
:10111C00600E7BFF7A157954754700F54812061C52
:10112C007F647E00121B307F331216A7AD07AC060E
:10113C00EDF47002ECF460AC8C228D2412171AE5DD
:10114C0024601175F00CA4247DF582E43400F58341
:10115C00E0FF8005900139E0FF8F25E525540F70E5
:10116C00030211FDE525547F4490FFE52530E7048B
:10117C007DC080027D00E4FBFA1214528F23EF70C5
:10118C005C632580E524600F75F00CA4247DF5824A
:10119C00E43400F5838003900139E525F085DB24E8
:1011AC00E52460567BFF7A15796F12061CE4F52254
:1011BC00E522C39524501E7BFF7A15797C7400259B
:1011CC0022F582E43400F583E0754700F5481206F9
:1011DC001C052280DB7BFF7A157983801AE523645A
:1011EC002A60177BFF7A157985754700852348801F
:1011FC00067BFF7A15799712061C7F01121B700271
:02120C0010F0E0
:100C0D005553422064657620696E0A005553422083
:100C1D00646576206F75740A005345545F504F52CA
:100C2D0054202025303258202025303258200025E0
:100C3D0030327820000A0052657365742055534296
:100C4D0020506F72740A0044697361626C6520757F
:100C5D00736220706F7274206265636175736520B5
:100C6D006F6620646973636F6E6E6563740A004707
:100C7D00657444657644657363723A200078253057
:100C8D003258200047657443666744657363723A52
:100C9D0020005553422D4469736B20526561647970
:100CAD000A005553422D5072696E74204F4B0A0045
:100CBD005553422D5072696E742052656164790AE4
:100CCD0000416E616C797A65486964496E74456E50
:100CDD00647020253032780A004374726C53657449
:100CED00557362436F6E66696720253032780A004E
:100CFD004765744849445265706F72743A200055C7
:100D0D0053425F4445565F434C4153535F484944FA
:100D1D002052656164790A005553422D4B65796205
:100D2D006F6172642052656164790A005553422DDA
:100D3D004D6F7573652052656164790A004765745E
:100D4D0048756244657363723A004578742D485551
:100D5D004220506F72745F2531642320706F776568
:100D6D0072206F6E206572726F720A0064765F6317
:100D7D006C7320253032780A0069665F636C7320CE
:100D8D00253032780A0069665F737562636C732073
:100D9D00253032780A002530327820253032780A15
:100DAD0000496E6974526F6F744465762045727296
:100DBD00203D20253032580A00456E756D55534241
:100DCD004465760A008006000100001200800600CE
:100DDD0002000004000005020000000000000900F0
:100DED000000000000010B000000000000020100E7
:100DFD000000000000A006002900000900210A00E3
:100E0D000000000000810600220000FF00A100008C
:100E1D00000000F103C03300000000020040350067
:100E2D0000000000000004102327354357434800FD
:100E3D005743485541525444656D6F005743482000
:100E4D004163636573736F727920546573740031F8
:100E5D002E3000687474703A2F2F7763682E636E8E
:100E6D00005743484163636573736F727931004076
:100E7D00340000000004004034000001000C00406C
:100E8D003400000200130040340000030004004051
:0F0E9D0034000004000E004034000005000E0079
:081BA000E4900131F0A3F022F2
:10176D00E4F543E5DA30E023900131E06006E5D1A0
:10177D0054017037121BA09001317401F07BFF7A78
:10178D000C790D12061C7543158020900131E0C3B4
:10179D009401748094804013121BA07BFF7A0C7906
:0D17AD001912061CE5437003754316AF4387
:0117BA00220C
:0C1B7E00EF547FFFE5E354804FF5E322B5
:0E1B7000EF600753E2BF53D27F2243E24022D0
:10184B009000807408F07E007F0D7D007B017A0193
:10185B007931120B95E4FF121B7E53D1FE7F0112DF
:10186B001B70E5D154FB4402F5D17F147E00121B93
:10187B003053D1FDE5DA540160FA7F017E00121B73
:04188B0030C2D8226D
:10188F00900131E0C394017480948050037401F08F
:10189F00E5DA30E024E5D154017015E5DA30E104E2
:1018AF007F0080027F01900133EFF0700343D1047A
:0C18BF0075D24043D1017F00227F162229
:10171A00AE07EE603F75F00CA42476F582E434003F
:10172A00F583E0FF121B7EEE75F00CA42477F58298
:10173A00E43400F583E0FF121B70EE75F00CA4246C
:10174A0077F582E43400F583E0701743D2807F6432
:10175A00FE021AFD900132E0FF121B7EA3E0FF1287
:03176A001B7022CF
:101B17007F907E0120D909EF1F70011EEF4E70F4F0
:081B270030D9037F00227FFE8C
:011B2F002293
:061452008F408A418B422D
:10145800AF058FD68FD4E4F5DD8540D5C2D97F900E
:101468007E0120D909EF1F70011EEF4E70F4E4F5DC
:10147800D520D9037FFE2230D828C2D812176DEFA5
:1014880064157002D209900131E0FD7C0070037F81
:101498001622ED64014C70037F15227FC87E00126E
:1014A8001AFD30D96530DE037F0022E5D9540FFFDD
:1014B800FD7C00640E7002800CED640A4C7020E51F
:1014C8004245417003EF803BC3E54294FFE54194F8
:1014D800FF5008E54215427002154115DD802EE5E2
:1014E80040C4540F24F7600D24FC6004240C7017CA
:1014F800EF601A800EEFFD64037005ED640B600D5C
:10150800EF600A4420FF227FFE2275D8FF7F0F7EFE
:1015180000121AFD05DDAFDDC3EF940374809480DB
:0715280050030214617F2053
:01152F002299
:100EAC00121A40753800753900753A097B017A00C1
:020EBC0079B10A
:060EBE008B358A368937EE
:100EC4007FC87E00121AFDE539453A4538600CABFF
:100ED40038AA39A93AE4F5F0120A9C75D7087B10B0
:100EE4007A27E4FD7FD01214528F3BEF6001227504
:100EF400D6D075D4D075D701900047E0FE90004657
:100F0400E0FDEEF53CEDF53DE53D453C700302109A
:100F14009BE53645374535700302109B900040E051
:100F240020E703020FD1E53D453C7003020FCB7F60
:100F3400C87E00121AFD7B107A27ADD47F9012145C
:100F4400528F3BEF600122AFDBC3EF953DE4953C4C
:100F54005006AFDB7E008004AE3CAF3D8E3E8F3F3B
:100F6400C3E53D953FF53DE53C953EF53CE539450A
:100F74003A4538600EAB38AA39A93AE53E853FF0C8
:100F8400120A64E4FFFEEF653F7003EE653E6026DF
:100F940074002FF58274003EF583E0AB35AA36A9C0
:100FA40037120A5274012537F537E43536F5360F12
:100FB400BF00010E80D0AFDBEF600C900080E01426
:100FC40055DB7003020F2AE4F5D702109BE53D457B
:100FD4003C700302109B7FC87E00121AFD900080B3
:100FE400E0FFFDC3E53D9DE53C940040028002AF77
:100FF4003D8FD7AB35AA36A937900001120A256474
:10100400097025630D01E50D120A52AB35AA36A904
:1010140037120A0C754700F548754900850D4A7B5F
:10102400FF7A0C792612061CE4FFFEADD7ED6F7033
:1010340001EE6028AB35AA36A937120A0CFD7440BC
:101044002FF58274003EF583EDF074012537F537F2
:10105400E43536F5360FBF00010E80CF7B107A27BA
:10106400ADD67F101214528F3BEF600122AFD7C36D
:10107400E53D9FF53DE53C9400F53CE539453A45B1
:10108400387003020FD1AFD7AB38AA39A93AE48F2D
:10109400F0120A64020FD17FC87E00121AFDE5D750
:1010A40060047F9080027F107B107A277DC0121429
:1010B400528F3BEF600122AFD7EF7002FF22AFDB0C
:0710C400EF7002FF227F170D
:0110CB002202
:101A4000E4FDED6408601B8F828E83E493FC744098
:101A50002DF582E43400F583ECF00FBF00010E0D8C
:021A600080E024
:011A62002261
:1018CB009000807408F07E0D7FD2121A407538009C
:1018DB00753900753A31120EB8EF6001229000B8DD
:1018EB00E0900080F0900DD8E493FFC3E5329FE5C4
:0A18FB0031940050037F17227F0094
:0119050022BF
:1017BB007E0D7FDA121A40753800753900753A3193
:1017CB00120EB8EF6001229000B4E0FE9000B3E07F
:1017DB00FDEEF531EDF5327E0D7FDA121A409000F9
:1017EB0046E532F0E531A3F0753800753900753AEE
:0A17FB0031120EB8EF6001227F00EA
:0118050022C0
:021940008F31E5
:101942007E0D7FE2121A40900042E531F0753800B8
:10195200753900753A007B007A007900120EBEEFED
:10196200600122AF31121B7E7F0A7E00121B307F84
:011972000074
:011973002251
:101A6300AB077E0D7FEA121A40900042EBF0753807
:101A730000753900753A007B007A007900020EBECA
:101A8300AB077E0D7FFA121A40900044EBF07538D5
:101A930000753900753A007B007A007900020EBEAA
:101AA300AB077E0D7FF2121A40900042EBF07538BF
:101AB30000753900753A007B007A007900020EBE8A
:081806008F318B328A338934E3
:10180E007E0E7F0A121A40900044E531F085323880
:10181E0085333985343A120EB8EF6001227E0E7F81
:10182E0012121A40900044E531F085323885333972
:0C183E0085343A120EB8EF6001227F00E2
:01184A00227B
:101974007E0E7F02121A40753800753900753A31AF
:10198400120EB8EF600122900E08E493FFC3E53213
:0C1994009FE531940050037F17227F0074
:0119A0002224
:1019060090004074A3F0A3E4F0A3F0A3F0A3EFF0DB
:10191600A3E4F0A37404F0A3E4F0F5387539007578
:101926003A0B120EB8EF600122C3E50C9404E50BE6
:09193600940050037F17227F008A
:01193F002285
:1019F4009000407423F0A37403F0A3EDF0A3E4F08B
:101A0400A3EFF0A3E4F0A3F0A3F0F538F539F53A29
:061A1400FBFAF9020EBE10
:101A1A009000407423F0A37401F0A3EDF0A3E4F066
:101A2A00A3EFF0A3E4F0A3F0A3F0F538F539F53A03
:061A3A00FBFAF9020EBEEA
:101AE3007E0E7F1A121A40753800753900753A3127
:091AF300120EB8EF6001227F0021
:011AFC0022C7
:061339008E318F328D336E
:10133F00E4F535E53360199000047D0075F00CA4D9
:10134F00247DF9740035F0FA7B01AE83AF82800CF7
:10135F007E007F047D007B017A017939120B95E4C1
:10136F00F534853282853183A3A3E0FFE534C39F33
:10137F004003021446E5322534F582E43531F58316
:10138F00A3E064056003021426E5322534F582E4F8
:10139F003531F583A3A3A3E0540364037079E532D9
:1013AF002534F582E43531F583A3A3E0FF30E767F9
:1013BF00E533601EEF540FFFE53375F00CA4247D69
:1013CF00F582E43400F583E5822535F582E4358333
:1013DF00801AE5322534F582E43531F583A3A3E095
:1013EF00540FFF74392535F582E43401F583EFF09E
:1013FF007BFF7A0C793C74392535F582E43401F59D
:10140F0083E0754700F54812061C0535C3E5359492
:10141F0004748094805020E5322534F582E4353110
:10142F00F583E0F536D39410748094805009E53637
:10143F002534F5340213717BFF7A0C794212061CA6
:02144F00AF35B7
:011451002278
:06120E008E318F328D339A
:10121400E4F534753502E53360199000047D0075FA
:10122400F00CA4247DF9740035F0FA7B01AE83AF91
:1012340082800C7E007F047D007B017A0179391263
:101244000B95E4FF853282853183A3A3E0FEEFC3CF
:101254009E4003021336E5322FF582E43531F583DF
:10126400A3E064056003021319E5322FF582E43527
:1012740031F583A3A3A3E0540364026003021319AA
:10128400E5336046E5322FF582E43531F583A3A3D7
:10129400E030E709540FFEAD3405348014E5322FF5
:1012A400F582E43531F583A3A3E0540FFEAD350593
:1012B40035E53375F00CA4247DF582E43400F58320
:1012C400E5822DF582E435838035E5322FF582E41D
:1012D4003531F583A3A3E030E709540FFEAD34059F
:1012E400348014E5322FF582E43531F583A3A3E08D
:1012F400540FFEAD35053574392DF582E43401F50E
:1013040083EEF0E53464027003753401E53564045A
:101314007003753503E5322FF582E43531F583E04A
:10132400F536D39410748094805007E5362FFF026D
:0413340012487F00DC
:011338002292
:1015B4007E0E7F22120EACEF6001229000B1E0C3D8
:1015C40094027480948050037F4122E4F508E50876
:1015D400C39406748094805044E508900E3293FBC3
:1015E400E50875F008A4247CF582E4340EAF82FE8D
:1015F400121A40900047E0FE900046E0FDEDFF74B3
:10160400392BF9E4340EFA7BFF78B17C007D0112AA
:1016140009E6120EAFEF600122050880B17E0E7F4D
:0A1624002A120EACEF6001227F00D5
:01162E002299
:10000300E4F52CF5267BFF7A0C794412061CE4F503
:100013002DF52EC3E52E9526E52D9400501F7F6404
:100023007E00121B30D3E526940A7480948040032B
:10003300AF2722052EE52E70DA052D80D612184B38
:10004300E4F52DF52EF5277F017E00121B301218E3
:100053008FEF701BF52DF52E0527E5262414FFE4FD
:1000630033FED3E5279FEE6480F874809850110522
:100073002EE52E7002052DC39464E52D940040C730
:10008300E52E452D600F121BA07BFF7A0C795412CD
:10009300061C7F1622E4FF12171A7BFF7A0C797C69
:1000A30012061C1218CB8F27EF600302059BF52D58
:1000B300F52E900DD8E493FFC3E52E9FE52D940014
:1000C30050257BFF7A0C798A74B1252EF582740052
:1000D300352DF583E0754700F54812061C052EE51E
:1000E3002E70CF052D80CB7BFF7A0C794212061C34
:1000F3009000BAE0FE9000B9E07C002400FFEC3EE3
:10010300900135F0A3EFF09000BCE0FE9000BBE05F
:100113002400FFEC3E900137F0A3EFF09000B5E030
:10012300F529900DE4E493FF1219408F27EF600344
:1001330002059B900DE493900132F07BFF7A0C79DA
:100143009112061C1217BB8F27EF600302059B90C9
:1001530000B6E0F5289000B5E0F52BE4F52DF52E7B
:100163009000B4E0FE9000B3E0FDEDFFC3E52E9FE9
:10017300E52D9E50257BFF7A0C798A74B1252EF5E7
:10018300827400352DF583E0754700F54812061C8F
:10019300052EE52E70CA052D80C67BFF7A0C7942A9
:1001A30012061C9000BFE0F52AE5297067E52A6472
:1001B3000870617E007FB1FD12120EE4F52DF52E5D
:1001C3007BFF7A0C793C7439252EF5827401352D29
:1001D300F583E0754700F54812061C052EE52E70E1
:1001E30002052D6404452D70D77BFF7A0C794212EA
:1001F300061CAF28121A638F27EF600302059B903A
:1002030001317403F09001347408F07BFF7A0C79A8
:100213009F0203FCE52960030202DDE52A6407600F
:10022300030202DD9000C0E0640160030202DD7B93
:10023300FF7A0C79AF12061C9000C4E0FF7E0064C5
:1002430005700AA3E06006900139F0801EEF640593
:100253004E70189000C5E0FF7C0060047D018002B1
:100263007D00ED4C700590013AEFF09000CBE0FF7C
:100273007E00640570109000C5E0600A9000CCE039
:10028300900139F08020EF64054E701A9000C5E0AC
:100293007E0060047F0180027F00EF4E70089000B3
:1002A300CCE090013AF0AF28121A638F27EF600376
:1002B30002059BAF28121AA38F27121AE38F27EF89
:1002C300600302059B9001317403F09001347407BD
:1002D300F07BFF7A0C79BD0203FCE529600302047D
:1002E30008E52A640360030204089000C0E0D39485
:1002F300017480948040030204087E007FB1E4FD12
:100303001213398F277BFF7A0C79CE7547008F48FC
:1003130012061C9000C1E0F52A7BFF7A0C79E67582
:10032300470085284812061CAF28121A638F27EF4F
:10033300600302059B7BFF7A0C79FD12061CE4F532
:1003430029E529C3952B50517B007A00792FAF29DA
:100353001218068F27EF703DF52DF52EC3E52E9568
:1003630030E52D952F50257BFF7A0C798A74B125C2
:100373002EF5827400352DF583E0754700F548129C
:10038300061C052EE52E70D4052D80D07BFF7A0C3C
:10039300794212061C052980A89001317403F0E507
:1003A3002A640170289001347423F0D3E52B94015F
:1003B30074809480400F7BFF7A0D790C12061C9099
:1003C30001347403F07BFF7A0D7925802CE52A64D0
:1003D30002702C9001347433F0D3E52B94017480B4
:1003E3009480400F7BFF7A0D790C12061C90013428
:1003F3007403F07BFF7A0D793912061C0204FC7535
:1004030027FB02059BE529640960030205037E00BF
:100413007FB1FD1213398F277BFF7A0C79CE754795
:10042300008F4812061C7BFF7A0D794A12061C12B4
:1004330019748F27EF600302059BF52DF52E9000AD
:10044300B1E0FFC3E52E9FE52D940050257BFF7A95
:100453000C798A74B1252EF5827400352DF583E06D
:10046300754700F54812061C052EE52E70D0052DA4
:1004730080CC7BFF7A0C794212061C9000B3E0908B
:10048300013DF0D394047480948040037404F0AF6E
:1004930028121A638F27EF600302059B90013174C2
:1004A30003F09001347409F0752D00752E0190014D
:1004B3003DE0FFD3E52E9FE52D9400503C90007561
:1004C30075F00CE52E120B89E52D75F00CA4258330
:1004D300F583E4F0AF2E7D081219F48F27EF600F38
:1004E3007BFF7A0D7957852D47852E4812061C050B
:1004F3002EE52E70B9052D80B57F01121B701F22CA
:100503007BFF7A0D797975470085294812061C7B94
:10051300FF7A0D7986754700852A4812061C7BFFF2
:100523007A0D79939000C0E0754700F54812061CD8
:100533007E007FB1E4FD12120EE4F52DF52E7BFF54
:100543007A0C793C7439252EF5827401352DF583A7
:10055300E0754700F54812061C052EE52E700205CE
:100563002D6404452D70D77BFF7A0C794212061C4B
:10057300AF28121A638F27EF701E7BFF7A0D79A3C2
:10058300900135E0F547A3E0F548A3E0F549A3E082
:10059300F54A12061C7F00227BFF7A0D79AE754760
:1005A3000085274812061C9001317402F07F011266
:0705B3001B70052602001178
:101AC3007BFF7A0D79C612061C900131E064017028
:0F1AD3000C120003780EEFF66003E6FF227F008F
:011AE20022E1
:1016A700E4F9900134E06409704B900131E0C39490
:1016B7000374809480403E7D0190013DE0FEEDD3B0
:1016C7009E5032ED75F00CA42478F582E43400F5D1
:1016D70083E06F701DED75F00CA42475F582E4347A
:1016E70000F583E0C39403748094804005E9FEED20
:1016F700FF220D80C4900134E0B50712900131E05C
:10170700C39403748094804005E97F00FE227EFF26
:021717007FFF52
:0117190022AD
:1019A100C2EAE4F5E39021E17448F075E50075E4DD
:1019B1000075E70075E640E4F5D4F5D675E2887563
:0C19C100D8FF121BA09021E27403F0225A
:101B5E0075A15575A1AAE5B954F84405F5B9E4F592
:021B6E00A122B2
:101AFD00EF4E601505A105A105A105A105A105A143
:0A1B0D0005A1EF1F70EA1E80E72219
:101B3000AD07AC06ED4C600E7FE87E03121AFDED9A
:071B40001D70F11C80EE2274
:081BA8009021E9E04410F02255
:10162F00C29FD29EC29DC2CDC2CC438780E4752992
:10163F0082F528F527F5267B0AFAF9F8AF29AE28A7
:10164F00AD27AC26120AF7AF038F2AAF29AE28AD0C
:10165F0027AC26E47B0AFAF9F8120AF78F298E28AD
:10166F008D278C26C3E52A9405748094804011EF52
:10167F002401F529E43EF528E43DF527E43CF52661
:10168F00E589540F4420F58943C9A0E529F404F5F1
:07169F008DD28ED299D29C7E
:0116A6002221
:081BB0003098FDC298AF9922A4
:081BB8008F993099FDC29922BA
:101B470075A15575A1AAEF600543B101800353B193
:071B5700FEE4F5A1F5FF22F9
:031BC0008FFF2272
:0A1B960075A15575A1AA43B11022F4
:03000000021B8A56
:0C1B8A00787FE4F6D8FD7581570210CC7E
:10091600E709F608DFFA8046E709F208DFFA803EC3
:1009260088828C83E709F0A3DFFA8032E309F608B0
:10093600DFFA8078E309F208DFFA807088828C8318
:10094600E309F0A3DFFA806489828A83E0A3F608CC
:10095600DFFA805889828A83E0A3F208DFFA804CA6
:1009660080D280FA80C680D4806980F2803380107D
:1009760080A680EA809A80A880DA80E280CA8033E6
:1009860089828A83ECFAE493A3C8C582C8CCC5835E
:10099600CCF0A3C8C582C8CCC583CCDFE9DEE7802E
:1009A6000D89828A83E493A3F608DFF9ECFAA9F0AD
:1009B600EDFB2289828A83ECFAE0A3C8C582C8CC03
:1009C600C583CCF0A3C8C582C8CCC583CCDFEADE1C
:1009D600E880DB89828A83E493A3F208DFF980CC7E
:1009E60088F0EF60010E4E60C388F0ED2402B40477
:1009F6000050B9F582EB2402B4040050AF2323451E
:060A0600822390096673D3
:100A0C00BB010689828A83E0225002E722BBFE02E8
:090A1C00E32289828A83E493221B
:100A2500BB010CE58229F582E5833AF583E0225086
:100A350006E92582F8E622BBFE06E92582F8E222D0
:0D0A4500E58229F582E5833AF583E49322EA
:100A5200BB010689828A83F0225002F722BBFE0183
:020A6200F3227D
:100A6400BB010789828A83020BC1500B09C5F02799
:100A7400F7C5F01937F722BBFE0D09F8E325F0F3AB
:100A8400C5F019E338F322F889828A837401932527
:080A9400F0C5F0F8E4933822EC
:100A9C00BB010A89828A83F0E5F0A3F0225006F7A5
:0F0AAC0009A7F01922BBFE06F3E5F009F31922A2
:100ABB0075F008758200EF2FFFEE33FECD33CDCCF2
:100ACB0033CCC58233C5829BED9AEC99E582984075
:100ADB000CF582EE9BFEED9AFDEC99FC0FD5F0D652
:100AEB00E4CEFBE4CDFAE4CCF9A88222B800C1B97C
:100AFB000059BA002DEC8BF084CFCECDFCE5F0CBBA
:100B0B00F97818EF2FFFEE33FEED33FDEC33FCEBF2
:100B1B0033FB10D703994004EB99FB0FD8E5E4F9AD
:100B2B00FA227818EF2FFFEE33FEED33FDEC33FC9A
:100B3B00C933C910D7059BE99A4007EC9BFCE99A8E
:100B4B00F90FD8E0E4C9FAE4CCFB2275F010EF2FD3
:100B5B00FFEE33FEED33FDCC33CCC833C810D707D3
:100B6B009BEC9AE899400AED9BFDEC9AFCE899F80E
:0E0B7B000FD5F0DAE4CDFBE4CCFAE4C8F922A1
:0C0B8900A42582F582E5F03583F5832277
:1005BA00E5532447F8E60553227844300702784782
:1005CA00E475F001120BD7020A0C2000EB7F2ED241
:1005DA00008018EF540F2490D43440D4FF30040B19
:1005EA00EF24BFB41A0050032461FFE554600215DA
:1005FA00540557E5577002055630070D7844E475DF
:10060A00F001120BD7EF020A520219CD7403D20776
:10061A008003E4C207F5538B448A458946E4F554BE
:10062A00F556F557E55460077F201205F580F575F4
:10063A0055FFC201C200C202C203C205C206C208F5
:10064A001205C3FF700D3007057F00120606AF576B
:10065A00AE5622B4255FC2D5C2041205C3FF24D008
:10066A00B40A00501A75F00A785430D50508B6FF56
:10067A000106C6A426F620D5047002D20380D92426
:10068A00CFB41A00EF5004C2E5D204020806D20120
:10069A0080C6D20080C0D20280BCD2D580BAD20530
:1006AA0080B47F201205F52002077401B55400407A
:1006BA00F11205BAFF1205F502062ED208D20680FB
:1006CA00951205BAFB1205BAFA1205BAF94A4B7025
:1006DA000679D77A087BFF20022EE554602A7E002D
:1006EA008E82758300120A2560060EEE655570F03B
:1006FA00C2D5EBC0E0EAC0E0E9C0E0EE12084DD096
:10070A00E0F9D0E0FAD0E0FB120A0CFF60AAEBC0D5
:10071A00E0EAC0E0E9C0E01205F5D0E02401F9D032
:10072A00E03400FAD0E0FBE5550460DCD555D98009
:10073A00877BFF7A087949D202809C7910800279F6
:10074A0008C206C2088008D2D5790A8004790AC28A
:10075A00D5E555047002F555E4FAFDFEFF1205BA17
:10076A00FC7B082001131205BAFD7B1030000A1227
:10077A0005BAFE1205BAFF7B20EC3382D592D5501A
:10078A0013C3E43000069FFFE49EFEE42001039DAC
:10079A00FDE49CFCE4CBF8C201EC700CCFCECDCCCE
:1007AA00E824F8F870F38017C3EF33FFEE33FEED59
:1007BA0033FDEC33FCEB33FB994002FB0FD8E9EB3A
:1007CA00300105F8D0E0C448B201C0E00AEC4D4E51
:1007DA004F78207B0070C2EAB5550040BCC0E012D9
:1007EA00084FD0F0D0E0200104C4C0E0C4B201C078
:1007FA00F01205DED0F0D5F0EB02062E120BE7065A
:10080A00CB53074558069C4C06984207494F075157
:0F081A004407514906B143075755073B46073B73
:1008290045073B4708F75006A02D06A42E06C72BFF
:1008390006A82306C52008E02A066048000006BF6E
:100849003F3F3F00790AA2D5200314300509B910AA
:10085900020404B9080104A2D520060250010420AB
:1008690002689202B554005034C0E07F2030031969
:100879007F30A20272067205500F1208A6C202C288
:1008890006C205C2087F30800F300503E9C0E012B7
:1008990005F5300503D0E0F9D0E0B554CC300517A3
:1008A9007F30B9100C1205F57F583004077F788026
:1008B90003B908031205F53002057F2D0205F57FFE
:1008C900202008F87F2B2006F322920280CF286E81
:1008D900756C6C2900D2011205BA3001F8C2017891
:1008E9005430D50108F60206602D504349581205C7
:1008F900BA2403B405004001E49008F2931205E616
:0D090900743A1205E6D20375540402074546
:100B9500EF4E6012EF60010EEDBB010B89828A8377
:100BA500F0A3DFFCDEFA2289F05007F709DFFCA984
:0C0BB500F022BBFEFCF309DFFCA9F022DB
:100BC100C5F0F8A3E028F0C5F0F8E58215827002BF
:060BD1001583E038F0225C
:100BD700FAE6FB0808E6F925F0F618E6CA3AF6221F
:100BE700D083D082F8E4937012740193700DA3A39D
:100BF70093F8740193F5828883E4737402936860B1
:060C0700EFA3A3A380DFB0
:1019CD00EFB40A07740D1219D8740A309811A8993A
:1019DD00B8130CC2983098FDA899C298B811F6307A
:0719ED0099FDC299F5992252
:00000001FF
