:10081D00D2817F0A7E00120877D2807F0A7E001275
:0E082D000877C2817F0A7E00120877C28022FF
:10078900C2807F0A7E00120877C2817F0A7E00122A
:100799000877D2807F0A7E00120877D2817F0A7E8D
:0707A90000120877C2802254
:10083B00C2807F0A7E00120877C2817F0A7E001277
:0E084B000877D2807F0A7E00120877C28022D2
:10085900C2807F0A7E00120877D2817F0A7E001249
:0E0869000877D2807F0A7E00120877C28022B4
:1006CB00E4F511D2817F02FE120877D2807F027E81
:1006DB00001208773081130511D3E51194C874808B
:1006EB00948040F01207897F0122C2807F017E0037
:0506FB001208777F00EA
:0107000022D6
:020680008F11D8
:10068200C2807F0A7E00120877E4F512C3E5129455
:1006920008748094805031E5115480C413131354AC
:1006A2000124FF9281E51125E0F5117F0A7E0012F7
:1006B2000877D2807F0A7E00120877C2807F0A7E86
:0806C20000120877051280C444
:0106CA00220D
:02062E008F112A
:10063000E4F513F512C3E5129408748094805028F1
:10064000C2807F0A7E00120877D2807F0A7E001265
:100650000877E51325E0F51330810205137F017E4D
:1006600000120877051280CDC280E51170051208CE
:0F06700059800312083B7F0A7E00120877AF13F0
:01067F002258
:1008BF0041410D0A0064643A25780A0025303278E8
:0208CF00200007
:1007D7002020220102030405060708091112131439
:1007E70015161718192122232425262728293132DF
:0307F70033343563
:1007FB008F0F8D1012081D7FA01206801206CBAF33
:10080B000F1206801206CBAF101206801206CB0217
:02081B0007894B
:020701008F0F58
:10070300E4F51012081D7FA01206801206CBAF0F6E
:100713001206801206CB12081D7FA1120680120654
:0D072300CBE4FF12062E8F10120789AF10D5
:0107300022A6
:100731008F0A8B0B8A0C890DAF0E150EEF601EAB65
:100741000BAA0CA90D12035FFDAF0A1207FB050AE4
:0E0751007401250DF50DE4350CF50C80DB224E
:10075F008F0A8B0B8A0C890DE50E601DAF0A050AF7
:10076F00120701AB0B050DE50DAA0C7002050C1459
:0A077F00F9EF120378150E80DF2257
:1005BF007509141208D11205477BFF7A0879BF120B
:1005CF00006575C40375C5037BFF7A0879C4AFA1B5
:1005DF00750D008F0E1200657B007A007922750E63
:1005EF0010E4FF1207317FF47E011208917B007A2D
:1005FF0000792285090EE4FF12075FE4F508E5088C
:10060F00C3950950187BFF7A0879CB74222508F817
:0F061F00E6750D00F50E120065050880E180FEFE
:1008D10075A15575A1AAE5B954F84405F5B9E4F532
:0208E100A12252
:10087700EF4E601505A105A105A105A105A105A1DB
:0A08870005A1EF1F70EA1E80E722B2
:10089100AD07AC06ED4C600E7FE87E03120877EDE4
:0708A1001D70F11C80EE2226
:0808ED009021E9E04410F02223
:10054700C29FD29EC29DC2CDC2CC438780E4750DA7
:1005570082F50CF50BF50A7B0AFAF9F8AF0DAE0C2C
:10056700AD0BAC0A1203C6AF038F0EAF0DAE0CADC9
:100577000BAC0AE47B0AFAF9F81203C68F0D8E0C4E
:100587008D0B8C0AC3E50E9405748094804011EF9F
:100597002401F50DE43EF50CE43DF50BE43CF50ACA
:1005A700E589540F4420F58943C9A0E50DF404F506
:0705B7008DD28ED299D29C77
:0105BE00221A
:0808F5003098FDC298AF992272
:0808FD008F993099FDC2992288
:1008A80075A15575A1AAEF600543B101800353B145
:0708B800FEE4F5A1F5FF22AB
:030905008FFF223F
:0A08E30075A15575A1AA43B11022BA
:030000000204BB3C
:0C04BB00787FE4F6D8FD7581410205024F
:10035F00BB010689828A83E0225002E722BBFE029C
:09036F00E32289828A83E49322CF
:10037800BB010689828A83F0225002F722BBFE0164
:02038800F3225E
:10038A0075F008758200EF2FFFEE33FECD33CDCC2A
:10039A0033CCC58233C5829BED9AEC99E5829840AD
:1003AA000CF582EE9BFEED9AFDEC99FC0FD5F0D68A
:1003BA00E4CEFBE4CDFAE4CCF9A88222B800C1B9B4
:1003CA000059BA002DEC8BF084CFCECDFCE5F0CBF2
:1003DA00F97818EF2FFFEE33FEED33FDEC33FCEB2B
:1003EA0033FB10D703994004EB99FB0FD8E5E4F9E6
:1003FA00FA227818EF2FFFEE33FEED33FDEC33FCD3
:10040A00C933C910D7059BE99A4007EC9BFCE99AC6
:10041A00F90FD8E0E4C9FAE4CCFB2275F010EF2F0B
:10042A00FFEE33FEED33FDCC33CCC833C810D7070B
:10043A009BEC9AE899400AED9BFDEC9AFCE899F846
:0E044A000FD5F0DAE4CDFBE4CCFAE4C8F922D9
:10000300E519240DF8E6051922780A300702780D60
:10001300E475F00112048502035F2000EB7F2ED20A
:10002300008018EF540F2490D43440D4FF30040BD5
:10003300EF24BFB41A0050032461FFE51A600215D0
:100043001A051DE51D7002051C30070D780AE475BD
:10005300F001120485EF0203780207B07403D2079C
:100063008003E4C207F5198B0A8A0B890CE4F51A9D
:10007300F51CF51DE51A60077F2012003E80F5751B
:100083001BFFC201C200C202C203C205C206C208EC
:1000930012000CFF700D3007057F0012004FAF1DDB
:1000A300AE1C22B4255FC2D5C20412000CFF24D0BB
:1000B300B40A00501A75F00A781A30D50508B6FF4D
:1000C3000106C6A426F620D5047002D20380D924E3
:1000D300CFB41A00EF5004C2E5D20402024FD2019A
:1000E30080C6D20080C0D20280BCD2D580BAD205ED
:1000F30080B47F2012003E2002077401B51A00402D
:10010300F1120003FF12003E020077D208D20680EC
:1001130095120003FB120003FA120003F94A4B7015
:100123000679207A037BFF20022EE51A602A7E00DF
:100133008E8275830012045860060EEE651B70F004
:10014300C2D5EBC0E0EAC0E0E9C0E0EE120296D00F
:10015300E0F9D0E0FAD0E0FB12035FFF60AAEBC046
:10016300E0EAC0E0E9C0E012003ED0E02401F9D0AB
:10017300E03400FAD0E0FBE51B0460DCD51BD9803A
:10018300877BFF7A027992D202809C791080027970
:1001930008C206C2088008D2D5790A8004790AC247
:1001A300D5E51B047002F51BE4FAFDFEFF12000304
:1001B300FC7B08200113120003FD7B1030000A12A0
:1001C3000003FE120003FF7B20EC3382D592D5504F
:1001D30013C3E43000069FFFE49EFEE42001039D69
:1001E300FDE49CFCE4CBF8C201EC700CCFCECDCC8B
:1001F300E824F8F870F38017C3EF33FFEE33FEED16
:1002030033FDEC33FCEB33FB994002FB0FD8E9EBF6
:10021300300105F8D0E0C448B201C0E00AEC4D4E0D
:100223004F78207B0070C2EAB51B0040BCC0E012CF
:100233000298D0F0D0E0200104C4C0E0C4B201C0F1
:10024300F0120027D0F0D5F0EB02007712049501ED
:100253001453018E5800E54C00E14201924F019A7C
:0F02630044019A4900FA4301A0550184460184E1
:100272004501844703405000E92D00ED2E01102B6B
:1002820000F123010E2003292A00A94800000108D9
:100292003F3F3F00790AA2D5200314300509B91067
:1002A200020404B9080104A2D52006025001042068
:1002B20002689202B51A005034C0E07F2030031960
:1002C2007F30A20272067205500F1202EFC202C202
:1002D20006C205C2087F30800F300503E9C0E01274
:1002E200003E300503D0E0F9D0E0B51ACC30051756
:1002F2007F30B9100C12003E7F583004077F78809F
:1003020003B9080312003E3002057F2D02003E7F32
:10031200202008F87F2B2006F322920280CF286E3D
:10032200756C6C2900D2011200033001F8C2017809
:100332001A30D50108F60200A92D5043495812007F
:10034200032403B405004001E490033B9312002F01
:0D035200743A12002FD203751A0402018EB6
:1004C7000205BFE493A3F8E493A34003F68001F287
:1004D70008DFF48029E493A3F85407240CC8C33336
:1004E700C4540F4420C8834004F456800146F6DF05
:1004F700E4800B01020408102040809007D7E47EB7
:10050700019360BCA3FF543F30E509541FFEE493F9
:10051700A360010ECF54C025E060A840B8E493A3C0
:10052700FAE493A3F8E493A3C8C582C8CAC583CAEB
:10053700F0A3C8C582C8CAC583CADFE9DEE780BEA3
:0107FA0000FE
:10045800BB010CE58229F582E5833AF583E0225059
:1004680006E92582F8E622BBFE06E92582F8E222A3
:0D047800E58229F582E5833AF583E49322BD
:10048500FAE6FB0808E6F925F0F618E6CA3AF62278
:10049500D083D082F8E4937012740193700DA3A3F6
:1004A50093F8740193F5828883E47374029368600A
:0604B500EFA3A3A380DF0A
:1007B000EFB40A07740D1207BB740A309811A89998
:1007C000B8130CC2983098FDA899C298B811F630A9
:0707D00099FDC299F5992281
:00000001FF
