:10005E00E4F51012047D7F147E0012044F1200038B
:10006E009021D9E4F0A3F0A3F0D2AFFFEFC39480B8
:10007E0074809480504775F004EFA42400F582E557
:10008E00F03402F583E4F075F004EFA42401F58258
:10009E00E5F03402F583E4F075F004EFA42402F5E4
:1000AE0082E5F03402F583E4F075F004EFA4240346
:1000BE00F582E5F03402F583E4F00F80AF7FC87E61
:1000CE000012044F750D02750E00E4FFEFC394800D
:1000DE0074809480504975F004EFA42400F582E5F5
:1000EE00F03400F583747FF075F004EFA42401F56D
:1000FE0082E5F03400F583747FF075F004EFA424EC
:10010E0002F582E5F03400F583E4F075F004EFA417
:10011E002403F582E5F03400F583E4F00F80AD7F23
:10012E00C87E0012044F750D00750E007FC87E004C
:10013E0012044F750D02750E007FC87E0012044F1B
:10014E00E4FFEFC3948074809480504975F004EFFF
:10015E00A42400F582E5F03400F583747FF075F089
:10016E0004EFA42401F582E5F03400F583E4F07584
:10017E00F004EFA42402F582E5F03400F583747FD9
:10018E00F075F004EFA42403F582E5F03400F58356
:10019E00E4F00F80AD750D00750E007FC87E001265
:1001AE00044F750D02750E007FC87E0012044FE4D9
:1001BE00FFEFC3948074809480504975F004EFA4CF
:1001CE002400F582E5F03400F583747FF075F004B9
:1001DE00EFA42401F582E5F03400F583E4F075F028
:1001EE0004EFA42402F582E5F03400F583E4F07503
:1001FE00F004EFA42403F582E5F03400F583747F58
:10020E00F00F80AD750D00750E007FC87E001204D4
:10021E004F750D02750E007FC87E0012044F750DCE
:10022E0000750E00AF10EF3395E0FEC3EF947FEE36
:10023E00648094804003750F01D3EF9481EE648047
:10024E00947F5003E4F50FE50FAF10600415108096
:10025E000205109021D9EFF0E50FAF1060041510D4
:10026E00800205109021DAEFF0E50FAF1060041553
:10027E0010800205109021DBEFF07F0A7E00120441
:03028E004F809B03
:100003007590FF75A0FF75C0FF75B0FF7580FFE4A5
:10001300F592F594F5C2F596F5C49021D104F0A3B9
:100023007410F0A37450F07E007F008E0D8F0E8E3F
:10003300C78FC6C2009021D87405F075A7FE75A6B8
:0D004300FF9021D174FDF043F740D2ED2273
:03005B000203D7C6
:1003D700C0D0C0E005A6E5A6700975A610850EC6B3
:1003E700850DC7200031D2AED2D0E0E0E0E0E0E0FA
:1003F700E0E000E0E0E0E0E0E0E0E000E0E0E0E0B6
:10040700E0E0E0E000E0E0E0E0E0E0E0E0C2AE7580
:10041700A7FFD0E0D0D032E4D2AED2D0939393935B
:0E04270093939393C2AE75A7FFD0E0D0D0326E
:10047D0075A15575A1AAE5B954F84405F5B9E4F58A
:02048D00A122AA
:10043500EF4E601505A105A105A105A105A105A121
:0A04450005A1EF1F70EA1E80E722F8
:10044F00AD07AC06ED4C600E7FE87E03120435ED70
:07045F001D70F11C80EE226C
:08049B009021E9E04410F02279
:10035F00C29FD29EC29DC2CDC2CC438780E4750B93
:10036F0082F50AF509F5087B0AFAF9F8AF0BAE0A20
:10037F00AD09AC081202CDAF038F0CAF0BAE0AADB7
:10038F0009AC08E47B0AFAF9F81202CD8F0B8E0A3A
:10039F008D098C08C3E50C9405748094804011EF8F
:1003AF002401F50BE43EF50AE43DF509E43CF508BC
:1003BF00E589540F4420F58943C9A0E50BF404F5F2
:0703CF008DD28ED299D29C61
:0103D6002204
:0804A3003098FDC298AF9922C8
:0804AB008F993099FDC29922DE
:1004660075A15575A1AAEF600543B101800353B18B
:07047600FEE4F5A1F5FF22F1
:0304B3008FFF2296
:0A00500075A15575A1AA43B1102255
:0300000002048F68
:0C048F00787FE4F6D8FD75812002005E45
:1002910075F008758200EF2FFFEE33FECD33CDCC24
:1002A10033CCC58233C5829BED9AEC99E5829840A7
:1002B1000CF582EE9BFEED9AFDEC99FC0FD5F0D684
:1002C100E4CEFBE4CDFAE4CCF9A88222B800C1B9AE
:1002D1000059BA002DEC8BF084CFCECDFCE5F0CBEC
:1002E100F97818EF2FFFEE33FEED33FDEC33FCEB25
:1002F10033FB10D703994004EB99FB0FD8E5E4F9E0
:10030100FA227818EF2FFFEE33FEED33FDEC33FCCC
:10031100C933C910D7059BE99A4007EC9BFCE99AC0
:10032100F90FD8E0E4C9FAE4CCFB2275F010EF2F05
:10033100FFEE33FEED33FDCC33CCC833C810D70705
:100341009BEC9AE899400AED9BFDEC9AFCE899F840
:0E0351000FD5F0DAE4CDFBE4CCFAE4C8F922D3
:00000001FF
