:040000006F00907C81
:100004009305000273A04580824573901534924095
:100014002242B2424243D2436244F24402559255D0
:100024002256B2564257D2576258F2580649964958
:10003400264AB64A464BD64B664CF64C065D965D50
:10004400265EB65E465FD65F0961730020303717BF
:1000540000407E2B4111B3C7070893F7F7EFB3C7EE
:1000640007087EAB93078008F3B7078093F78708E8
:100074003EC60F100000930770052300F704930792
:1000840080FA2300F7040F1000009307100E7CC3BE
:10009400B7270040A383078003C77780136707034C
:1000A400A383E7801387C78008C323800780414761
:1000B4002380E78037270040930707829C43E3CDE2
:1000C40007FEB7270040B7060800138707821843C6
:1000D400758F65DF03C72780136707012381E780D6
:1000E40037270040930707829C43E3CD07FE372759
:1000F4000040B7060800930707829C43F58FE5DFAD
:1001040023010780B7170040FA2B13670710FAABD7
:1001140023800704B247F3A707800F100000B70736
:10012400040023A0072001454101828037170040C5
:100134007E2B4111B3C7070893F7F7EFB3C707083E
:100144007EAB93078008F3B7078093F787083EC612
:100154000F100000930770052300F704930780FA3B
:100164002300F7040F1000009307100E7CC3B72779
:100174000040A383078003C7778013670703A38323
:10018400E7801387C78008C309472380E78003C734
:100194000780136707012380E78037270040930710
:1001A40007829C43E3CD07FEB7270040B70608004B
:1001B400138707821843758F65DF03C7278013678A
:1001C40017012381E78037270040930707829C4368
:1001D400E3CD07FE37270040B706080093070782E0
:1001E4009C43F58FE5DF23010780B7170040FA2B06
:1001F40013670710FAAB23800704B247F3A70780FD
:100204000F100000B707040023A007200145410197
:100214008280371700407E2B4111B3C7070893F73C
:10022400F7EFB3C707087EAB93078008F3B70780DF
:1002340093F787083EC60F1000009307700523004C
:10024400F704930780FA2300F7040F1000009307C4
:10025400100E7CC3B7270040A383078003C77780B1
:1002640013670703A383E7801387C78008C3114775
:100274002380E78003C70780136707012380E78093
:1002840037270040930707829C43E3CD07FEB72737
:100294000040B7060800138707821843758F65DF8F
:1002A40003C72780136727012381E780372700408E
:1002B400930707829C43E3CD07FE37270040B70628
:1002C4000800930707829C43F58FE5DF230107802D
:1002D400B7170040FA2B13670710FAAB2380070403
:1002E400B247F3A707800F100000B707040023A04C
:1002F4000720014541018280371700407E2B011100
:1003040022CEB3C7070893F7F7EFB3C707087EAB4E
:1003140093078008F3B7078093F787083EC60F104A
:100324000000930770052300F704930780FA230065
:10033400F7040F1000009307100E7CC3B72700408A
:10034400A383078003C777800148054F136707031A
:10035400A383E780B7080800930F000293020010FC
:1003640015E6B7170040FA2B13670710FAAB238082
:100374000704B247F3A707800F1000007244B707C1
:10038400040023A00720014505618280A380E78142
:10039400138707821843E34D07FE13870782184328
:1003A400337717017DDB03C77780B303A800338459
:1003B400050113674700A383E780A380F7811387B0
:1003C400C780232077000143B35E560A330E6400CE
:1003D40003471E0083460E002207558F83462E00D6
:1003E400C206D98E03473E006207558F9386078263
:1003F4009442E3CD06FE938607829442B3F6160137
:10040400FDDA9386078198C21103E361D3FD138754
:1004140007821843E34D07FE138707821843337797
:1004240017017DDB1387C78023207700A381E78131
:100434003306D6417698138707821843E34D07FEA7
:10044400138707821843337717017DDB11BFB71772
:100454000040FA2B4111334707081377F7EF33476E
:100464000708FAAB130780087337078013778708E8
:100474003AC60F100000130770052380E704130722
:1004840080FA2380E7040F1000001307000C6313A5
:10049400E5049A271367070C9AA7B717004003C708
:1004A400E7021367C7002387E70203C7E70413774C
:1004B400C70F136717002387E704FA2B1367071086
:1004C400FAAB23800704B247F3A707800F1000009C
:1004D40041018280B82793750520B9C9118B1DEBA2
:1004E40003C7E704B4271377F70F93E64600B4A7CE
:1004F40096279227B3C606081366060C92A7A5474B
:100504000100FD1793F7F70FE5FFB717004096A713
:100514002387E704371700403C2793E707013CA7EC
:100524009377F50191EBB72700401307500421A8F6
:1005340013672700B8A7F9BF93778501EDF7B727AD
:100544000040130790042382E78093070028631C6C
:10055400F502B7170040130720209AA701000100F5
:1005640001000100371700409316B0281E27F58FAD
:10057400F5DF930700281EA7371700403C2793F7A1
:10058400D70F3CA719BF93070008631AF502B717E2
:10059400004009479AA70100010001000100371734
:1005A40000409316B0281E27F58FF5DF9307000847
:1005B4001EA7371700403C2793F7B70FD9B7B717D3
:1005C4000040334505088AA7EDD57DB7197106C2E9
:1005D40012C416C61AC81ECA22CC26CE2AD02ED2BF
:1005E40032D436D63AD83EDA42DC46DECAC0CEC26F
:1005F400D2C4D6C6DAC8DECAE2CCE6CEEAD0EED29F
:10060400F2D4F6D6FAD8FEDA938501818841E70060
:10061400050092402242B2424243D2436244F24431
:10062400025592552256B2564257D2576258F25842
:1006340006499649264AB64A464BD64B664CF64C72
:10064400065D965D265EB65E465FD65F0961730001
:1006540020304111B7170040985F3AC6945F324783
:10066400E39CE6FE324541018280B7170040130740
:1006740000032388E702854723ACF1807300203010
:10068400516781479386C181130707888545902266
:1006940011C28280850701000100E37AF7FE8CA273
:1006A400FDB7411106C6A52CFDBF7971972700003F
:1006B4009387472122D4804306D626D24AD04ECEF1
:1006C40052CC56CA5AC85EC679C037C9C901014B53
:1006D400972900009389891E1309F937172A000006
:1006E400130A8A1E972A0000938A0A199724000085
:1006F400938444228357240085E75C44631F0B00E2
:10070400172700002320F71C832BC4002285978021
:1007140000E0E78060295E84A9A82326FB00EDB7EA
:1007240083A7090082971C443307F5406375F500DD
:10073400D8401D8F2A976361E9089727000023A1F9
:1007440007148355240003450400972000E0E78044
:10075400003B5C405844B9C70C44D040AE97BE86B9
:1007640063E4B70063E4C700B386C74014C4228BB4
:100774003A8449F097270000938707109C4709475C
:100784006373F708F91717270000232BF70EB250ED
:10079400225492540259F249624AD24A424BB24B11
:1007A4004561828063170B009727000023ACE71094
:1007B400A1BF2326EB0089BF03274A021DCF63E1B3
:1007C400A7043385A7408347040085E31727000067
:1007D4000347F7105917B307A7003E85D44063E4D5
:1007E400E70063E4D7003385D74083A78A006376A4
:1007F400F5009727000023A5A708228B404495BF46
:10080400D840BA977DBF9727000023AB070641B7AE
:10081400411122C426C2172400001304A40F9724F4
:1008240000009384640594445840972700009387FC
:10083400E70806C69C436397E60882975440B74787
:1008440036FE938707C8B6973387A7003A85636453
:10085400F7006364D7003305D740972400009384DE
:10086400640DDC5081CF972700009387671494436D
:100874003707CDFF7D179C46F98F9CC611E1484090
:100884009727000093874704DC53829719E9DC50CB
:100894008DC7973000E0E780C01A973000E0E7800A
:1008A400E0A9DC5099CB9727000093876710984301
:1008B400B70633001C47D58F1CC7B240224492446C
:1008C40041018280829794445840B387A6003E85B4
:1008D40063E4D700E3E3E7F83385E740BDBF972738
:1008E40000009387A7029C4385C3411106C68297E3
:1008F4009727000083C767FC89E79727000023A791
:100904000700B240410182809727000083C7E7FABD
:1009140091E79727000023AB07FE82808280411174
:1009240022C417240000130464F71C4006C626C220
:100934004AC091C782979727000023A107F69727FB
:10094400000083C777FF858B17290000130989FEF0
:1009540089CF834779001947631EF70E9727000054
:10096400A38C07FC55215C4482971C4491C3829755
:10097400972400009384C4F498409727000083C709
:10098400A7EF17260000034636EF8145939617001C
:10099400BA9683D60600F9CA89C597260000238D26
:1009A400F6EC17250000034525ED6368C50C972771
:1009B4000000238307EC1C40639A0712972700006A
:1009C4009387C7EF9C43638307129727000093879D
:1009D40067F4DC43172700002324F7EAF93197274B
:1009E400000083C7B7F591CF8347790093F7F70FDA
:1009F40089EB97270000A38307F4973000E0E78092
:100A040020C597270000938727ECDC53E5C397277D
:100A14000000938767E69C47F1CB8347790015472D
:100A24006366F70C9727000083C747F6918BDDEFC9
:100A34009727000083C767E8D5EB9040972600000E
:100A440083C696E363CAD70A2244B2409244024959
:100A540041017DBB834779001D47E318F7F09727D1
:100A64000000A38B07EC4D261C48FDBD850793F7BA
:100A7400F70F8545E3ECC7F00DB7931715003E97C4
:100A8400835507002310070097270000239607E2E9
:100A940097270000938747E09C4313172500BA97D4
:100AA4009C4382979727000083D707E1944093C71C
:100AB400F7FF17270000034727DC7D8D93171700E6
:100AC400BE9683D706005D8D2390A60011C7050747
:100AD400972700002382E7DA172700000347C7D9C6
:100AE4009727000083C757D9E373F7ECB240224439
:100AF40092440249410182801397170032970357A9
:100B040007006DF785073DBFEFF07FDD7300000040
:100B14000000000097220000938222DA038302007F
:100B240023800200630F0300F32510342EC09705C1
:100B340000009385A5FD73901534EF0060467300A3
:100B4400203086DCEF00C045E65082800000172785
:100B540000001307A7DD1443411122C4BC424AC05C
:100B640006C6998326C2858B3A8417290000130987
:100B7400A9FED1CB93070006BCC217270000034788
:100B8400C7DB93070008972400009384A4DA631B4F
:100B9400F700832709009C4393F7070417270000F5
:100BA400230DF7D883C7040093F707049DC3972741
:100BB40000009387A7D09C4382979727000023A91E
:100BC400A7D883C7040093F7F70B17270000230364
:100BD400F7D683C7440093F7070495E7854717279B
:100BE4000000A30BF7D497270000938727D79C43D3
:100BF4003707020098C7130700FC97260000238DCF
:100C0400E6D29848F8D318403C439183858B8DC332
:100C14003C4393E707013CC397270000938707D41D
:100C24009C4323A207068547172700002306F7D015
:100C340083270900D8430583058B19C7D843759BBF
:100C4400D8C3D843799BD8C3B240224492440249C2
:100C540041018280ED3D730020309317D50063D3AA
:100C6400070297270000938767CF9C437D57B8D727
:100C740097270000938747C0DC4B850717270000A0
:100C84002326F7C0937785009DCB9727000083C761
:100C940087CA93E7170017270000230EF7C89307A6
:100CA40000F8172700002309F7C897270000938747
:100CB400E7C798435C5BF19B93E717005CDB937792
:100CC40015008DC79727000083C7D7C693E7170081
:100CD40017270000A300F7C697270000938707C5CE
:100CE40098435C5BF19B93E717005CDB93776500AB
:100CF400B1C797270000938767C39843937745004C
:100D040097260000938606C3E1C31C43A1838D8B01
:100D140089EB97270000938767C49C4313068007D9
:100D2400D0CF83C7060093E71700972600002383DC
:100D3400F6C05C5BF19B93E717005CDB9317F5004F
:100D440063D4070217270000034707D6418B972770
:100D54000000938727CE51C383C7470793E7070251
:100D6400172700002302F7D49317E50063D707027F
:100D74009727000083C747BCE207E18763D70700D2
:100D84008547172700002309F7BA972700009387A0
:100D9400E7BC9C433707020098C79317C50063D488
:100DA400070217270000034737D0058B9727000059
:100DB400938747C829C383C7570793E72700172793
:100DC4000000A303F7CE828083C7360093E71700A1
:100DD40097260000A381F6B6A9BF03C74707894633
:100DE4003D8B6308D70083C747070D47BD8BE39D41
:100DF400E7F69147B5B703C75707118B69D783C780
:100E0400570793E7870065BF97270000938707B5C7
:100E14009443972700009387E7B103C70700058B26
:100E240011CB97270000238907B097270000A385DB
:100E340007B0828003C71700058B65F7F85271FF6E
:100E440083C75700DDB7411126C206C622C49724C2
:100E540000009384A4B03DED9440AE87F8527DFF2A
:100E640037F400E03E8597270000238607AC8327EC
:100E740004D1B285ED9B2328F4D0832704D193E7D2
:100E840087022328F4D073005010972000E0E780F5
:100E9400E05E97270000938767A99C43B70600018B
:100EA4009843558F98C3D85B719BD8DB9727000074
:100EB400A38407A897270000A38E07A69C40094790
:100EC40098C3832704D193E787002328F4D07300C1
:100ED40050100DA08D476315F504972700009387E4
:100EE400E7A49C43B70600019843558F98C3D85B89
:100EF400719BD8DB9440172700001307A7A38347EF
:100F04002700858B89EB83473700858BD9C79727C3
:100F14000000238307A2B24022449244410182800C
:100F24008547E319F5FCB7F700E003A707D16D9BEC
:100F340023A8E7D003A707D11367870223A8E7D024
:100F44007300501098408177FD175447F58F5CC7A4
:100F54000F1000009840B70702001CC7930700F861
:100F640017260000230AF69C972700009387079C06
:100F74009C439C43A1838D8B91EF930760197CD391
:100F840054C737F700E0832707D193E78700232866
:100F9400F7D035BF9307E01BDDB7FC52ADF3A5BF17
:100FA400972700009387879B9C438847D847798D70
:100FB40009C988C79387018203A307006303030059
:040FC40002838280A2
:100FC8009711002093818186177100201301010376
:100FD8001305400097F5FF1F93854502170600206B
:100FE800130606FE63FAC5008322050023A05500F8
:100FF80011059105E3EAC5FE178500001305C5AA8A
:10100800970500209385C5FB1386C18063FAC50048
:101018008322050023A0550011059105E3EAC5FECA
:1010280013850181972500209385C5B26377B500A4
:10103800232005001105E36DB5FE9302500273905D
:1010480002BC8D42739042808542739012BC930219
:10105800800873900230970200009382223A93E24C
:10106800320073905230971200009382E2717390AD
:10107800123473002030000000000000000000005F
:101088000000000000000000000000000000000058
:101098000000000000000000000000000000000048
:1010A8000000000000000000000000000000000038
:1010B8000000000000000000000000000000000028
:101408009C14000058210000A9BDF9F30000002039
:101418000000000000000000000000209C140000F4
:1014280000000000000000009C1400000000000004
:101438009C140000000000009C1400009C14000094
:101448009C1400009C1400009C140000CC05002093
:101458009C140000000000009C1400009C14000074
:101468009C1400009C1400006A0600209C140000D4
:101478009C1400009C1400009C1400009C140000A4
:101488009C1400009C1400009C1400009C14000094
:101498009C14000001A02A8311C62300B3007D1606
:1014A800050365FE8280B7170040B85F1377F7F72A
:1014B800B8DF130700F8A38DE7043D47238CE70442
:1014C80013075003A38CE704828037170040834733
:1014D800E7041205411193F7F708C98F93F7F70F3F
:1014E80093068008F3B6068093F6860836C60F1072
:1014F8000000930670052300D704930680FA2300A2
:10150800D7040F1000002307F70423000704B2478D
:10151800F3A707800F10000041018280B717004031
:1015280003C7E7020D8941111377C70F498F930647
:101538008008F3B6068093F6860836C60F100000BA
:10154800930670052380D704930680FA2380D70476
:101558000F1000002387E70223800704B247F3A790
:1015680007800F1000004101828041112A83014841
:10157800930E407E130F0019930F4006B3480308DB
:1015880063EF1E0113030019337365028542FD439F
:1015980063F6B2088D4F214F930E4006A1A07D132C
:1015A800336EE3039308E016630E0E00336EF30305
:1015B8009308D01663080E009378330093B8180088
:1015C8009388D816C29833C808084DBF93F81500F9
:1015D800138EF5FF637CBF02F908C29833C8080868
:1015E800B3450E08E394F5FF8545630B0300B37814
:1015F800D5038145638608009375350093B51500BA
:10160800F105C29533C805088945E9BFB388134178
:10161800C29833C80808B3450E089DBF7D16329896
:1016280079463307C70213D61700BE0733480808A0
:1016380032976146B3F6C60213068070B386C602B7
:101648003697A166F58F4207D98FB716004003C7B2
:10165800F60213770708D883908303C7F602137737
:101668000708E316E6FE9883B71600404DCF130728
:10167800800873370780137787083AC40F10000073
:1016880037170040930670052300D704930680FAA5
:101698002300D7040F100000232A070383461703EB
:1016A80093E60608A308D7022300070422477327F6
:1016B80007800F1000001166371700407D16545B35
:1016C8004C5FAD8EF18EE5FE93068008F3B606807A
:1016D80093F6860836C60F1000009306700523009F
:1016E800D704930680FA2300D7040F1000005CDBB0
:1016F8008347170393E70704A308F70223000704A7
:10170800B247F3A707800F1000004101828003C78A
:10171800F60213770708D883908303C7F602137776
:101728000708E316E6FE98837DD391B74111B717F2
:101738000040985F3AC6945F3247E39CE6FE324524
:1017480041018280317122DD4ED706DF26DB4AD97E
:1017580052D556D35AD15ECF62CD66CB6AC96EC711
:10176800AA8902D8EF0070152A8493078008F3B776
:10177800078093F787083EDA0F100000B71700407C
:10178800130770052380E704130780FA2380E70412
:101798000F10000003C7F7021377770FA387E7023C
:1017A80003C7F70213678700A387E70223800704AC
:1017B800D257F3A707800F1000000D458533930714
:1017C800803EB347F4021307007DA166930A20FD0B
:1017D8003387E7023347D702B38A57033AC47D8772
:1017E8003ACC516713070788B3CAEA0293D6FA417D
:1017F80036C6B306504136CE93DDF6419306C00592
:10180800B387D7029546B3C7E702138729003EC8B6
:10181800FD873ED08567938707FA3399E70063E42D
:10182800360133993701E1679387076AB347F402B2
:10183800116A014B814BB71C0040930480FA3309AD
:10184800F902930700103349F90293074006330958
:10185800F902930700083349F9029357F9413ED238
:10186800B7B7C404938707403344F4029307FA8E4A
:10187800B397E7007D1AB307F402130480083EC249
:10188800FD873ECA73370480137787083ADC0F1048
:101898000000130770052380EC04138D0C042380CB
:1018A8009C040F10000003C73C051377870FA3891A
:1018B800EC0403C73C0513671700A389EC042380D5
:1018C8000C046257732707800F100000130C700573
:1018D80073370480137787083ADE0F1000009307E8
:1018E80070052300FD0023009D000F10000003C7B2
:1018F8003C0513670702A389EC0403D70C051317EB
:10190800E7282398EC0403D70C051317F728239826
:10191800EC0423000D007257732707800F10000096
:1019280003C73C0513770702630F073603C73C0557
:10193800218B6DDF0818EF00E07D73370480137783
:101948008708BAC20F10000023008D0123009D00F4
:101958000F10000003C73C051377F70DA389EC04AB
:1019680003C73C0513670702A389EC0403D70C05DA
:101978001317E7282398EC0403D70C051317F72847
:101988002398EC0423000D001647732707800F10D7
:10199800000003C73C0513770702630D073203C72E
:1019A8003C05218B6DFF59332A873AD4413322579E
:1019B800E30DE5FE03D70C0542551317E7282398D6
:1019C800EC048D2F03C73C05218B6DDF03D70C0575
:1019D80083C62C05A24733774701B386460313D63F
:1019E800F641BA96B388F640E24733B7E600329735
:1019F8001D8FB247B3B61601158F63C6E700631B88
:101A0800F70063F91A01634EB72F6395ED00F247AB
:101A180063E9F82E894663F8762F733704801377C5
:101A28008708BAC80F100000130770052380EC045C
:101A380023809C040F10000003C73C0593F6F90FA0
:101A48001377870FA389EC0403C73C05558FA38937
:101A5800EC0423800C044647732707800F1000000E
:101A68001306700503C73C051D8B631637337337A0
:101A7800048013778708BACC0F100000130770058D
:101A88002380EC0423809C040F10000003C73C054E
:101A98001377F70DA389EC0403C73C051367070206
:101AA800A389EC0403D70C051317E7282398EC0443
:101AB80003D70C051317F7282398EC0423800C048C
:101AC8006647732707800F1000009306700503C749
:101AD8003C0513770702630A072E03C73C05218BD1
:101AE8006DDF0818052D7337048013778708BAD07F
:101AF8000F100000130770052380EC0423809C045A
:101B08000F10000003C73C051377F70DA389EC04F9
:101B180003C73C0513670702A389EC0403D70C0528
:101B28001317E7282398EC0403D70C051317F72895
:101B38002398EC0423800C040657732707800F10A2
:101B480000009306700503C73C0513770702630975
:101B5800072A03C73C05218B6DFFC93E2A8CF9363D
:101B6800E30F85FF03D70C0542551317E728239881
:101B7800EC04C92303C73C05218B6DDF7337048050
:101B880013778708BAD40F10000013077005238055
:101B9800EC0423809C040F10000003C73C05137756
:101BA800F70DA389EC0423800C04265773270780BC
:101BB8000F10000083D50C0503C72C059257B3F509
:101BC8004501330747039356F7412E97B335B700BE
:101BD800B695330527413337A7009D8D998D216729
:101BE800130707D06346B0006397052463050524EF
:101BF8003338E5021246D246B385E5023305E502DD
:101C0800C295EF407052130715003335A700AA9507
:101C18006346B000639B05286309072883D6CC0276
:101C280095823386E600B336D600AE966348D00078
:101C3800639C06309306F00F63F8C6300947637D4E
:101C4800672193078008F3B7078093F78708BED604
:101C58000F100000B7170040130770052380E70432
:101C6800130780FA2380E7040F100000DA3789662B
:101C78008116558F33470708DAB723800704B6570C
:101C8800F3A707800F100000FA506A54DA544A5933
:101C9800BA592A5A9A5A0A5BFA4B6A4CDA4C4A4D94
:101CA800BA4D296182807337048013778708BAC0D8
:101CB8000F10000023008D0123009D000F1000006D
:101CC80003C73C0513670702A389EC0423000D0032
:101CD800064799B17337048013778708BAC40F1081
:101CE800000023008D0123009D000F10000003C792
:101CF8003C0513670702A389EC0423000D0026475F
:101D080069B1E39C0BD0424682569315170013D352
:101D1800F80113951800B365B3003AD646D4EF40DE
:101D2800B0403257850B93FBFB0F6346E00031EF61
:101D3800A258638C08049306150033B5A600AA952B
:101D480013D7F501BA9633B7E6002E9785827E073A
:101D5800558FF336048093F68608B6C60F10000038
:101D680023008D0123009D000F10000083D6CC02B4
:101D78003697334707082396EC0223000D003647B1
:101D8800732707800F100000A1B69306F5FF1335DF
:101D98001500898D75B77337048013778708BACA19
:101DA8000F1000002380CC0423809C040F10000037
:101DB80003C73C05558FA389EC0423800C045647C0
:101DC800732707800F10000071B9733704801377E9
:101DD8008708BACE0F1000002380DC0423809C04FF
:101DE8000F10000003C73C0513670702A389EC0422
:101DF80023800C047647732707800F100000C1B9B1
:101E08007337048013778708BAD20F100000238035
:101E1800DC0423809C040F10000003C73C051367F3
:101E28000702A389EC0423800C0416577327078044
:101E38000F10000009BB3338E502D2461246B385BD
:101E4800E5023305E502C295EF40102E93361500E2
:101E58001307F5FF958D6DBB13078008733707804F
:101E680013778708BAD80F100000B7160040130779
:101E780070052380E604130780FA2380E6040F1018
:101E88000000DA36056601161377F70F518F3347CE
:101E98000708DAB6238006044657732707800F1011
:101EA8000000050B137BFB0FF1BAB366B700C9CE70
:101EB80083D6CC023336E000B305B040918D3305AC
:101EC800E04095826345B000C1E163FFA60609477B
:101ED800637E670393078008F3B7078093F7870843
:101EE800BEDA0F100000B7170040130770052380F3
:101EF800E704130780FA2380E7040F100000DA379D
:101F08007D8BDAB723800704D6579DBB73370480CF
:101F180013778708BADC0F100000130770052380B9
:101F2800EC0423809C040F10000003D7CC028566C4
:101F380081161377F70F558F334707082396EC025E
:101F480023800C04665791BF93078008F3B7078076
:101F580093F78708BEDE0F100000B71700409306FE
:101F680070052380D704930680FA2380D7040F10C6
:101F78000000D6371607369733470708DAB72380A5
:101F88000704F657F5B9D1C901114AC8416922CCED
:101F980026CA4EC652C406CE2A84B304B500930995
:101FA800F07F130AF9FF63649400014539A8B387E9
:101FB800844063E62703B377440185E7228597E0E9
:101FC800FF1FE780C02411C90945F2406244D2448A
:101FD8004249B249224A056182804A94E9B763FFBF
:101FE800F9009377F47F99EB228597E0FF1FE7804C
:101FF800A01379F99317B0283E9475B79377F40F27
:1020080091EB228597E0FF1FE780200455FD13041C
:10201800041051BF137404F0EDB705458280814761
:102028006394C700014582803387A7001423338750
:10203800F500850714A3EDB7914763ECB7049767DC
:1020480000009387273EB3C5F52098413E97B71700
:1020580000409387470B0287944337170040B3F635
:10206800A64094C39306070B9C42B3F7A74019A850
:10207800944337170040B3F6A64094C39306070B62
:102088009C42C98F9CC29307070A98433377A7409D
:1020980098C38280944337170040C98ED9B79843B4
:1020A8003377A74098C3B71700409387070A984328
:1020B800498FF9BF9843498FF5B7B71600409A265C
:1020C800B3470708137707041DE3FD8B91EB9E26A2
:1020D80093F707209DC73755E801130505808280CF
:1020E8003755E801130505803345F502828013F75B
:1020F800070C93060004631BD700FD8B37459C1C17
:10210800D5B73725F40013050540828021651305EE
:1021180005D0828037E700E01C435443A183E206E0
:10212800D58F1CC1FD572320F7182322F7180F104D
:102138000000828013178500B7E700E023A0E710AE
:10214800618123A2A7108280B7F700E088478280C8
:10215800411113078008F337078093F787083EC4B7
:102168000F100000B7170040130670052380C7043E
:10217800930680FA2380D7040F100000FD55CEB7D0
:1021880023800704A245F3A505800F1000007337CC
:102198000780137787083AC60F1000002380C7040A
:1021A8002380D7040F10000003C7670413671700C4
:1021B8002383E70423800704B247F3A707800F109F
:1021C800000001A03285814737370040A14663C32C
:1021D800A70082800346B740E30ED6FE3386F5009B
:1021E800102285072304C740DDB797F6FF1F9386A3
:1021F800E6E3AA878842171700201307A795AA972E
:1022080063E9E7000A87130707FC6364F7009CC2C9
:1022180082807D558280411122C406C62A84713D80
:102228002947B307E502B2408D83B3D7870222441A
:102238009507B3D7E70237370040B3C70708231617
:10224800F74041018280716541111305052006C6DA
:10225800D937B7370040130770F82381E7400D4797
:10226800A381E74013070004A380E74005472387BD
:10227800E740B2404101828011456FF0AFCCB28790
:10228800411113962500BE8506C6513BB240014553
:1022980041018280411122C413942500A28506C6FB
:1022A80026C24AC0AA843289F9392286CA85268577
:1022B80097E0FF1FE7800004B2402244924402499D
:1022C800014541018280011122CC06CE371400401D
:1022D80026CA4AC84EC652C483447405034AB40584
:1022E8008349840503499405EFF0EF9B8347A405D0
:1022F80093F4F40F137AFA0F93E71700230DF404FD
:1023080093F9F90F1379F90FB717004003C7A70519
:10231800058B6DFF03D5C705A38D4705238C3705AE
:10232800A38C2705A38B9704F2406244D244424908
:10233800B249224A05618280411122C406C62E8410
:102348009397556063DB0700392311C1752913156D
:10235800F468B24022444101828093F7150013C506
:102368001500E5FB8967ED8F85C3EF10805129378C
:1023780037F60200130606E0896503C54181EF00C0
:10238800D0001315D468F1B711656D8D79D1176533
:1023980000001305650AEF4090721306006491650A
:1023A80003C54181EF00607E1315E4685DB71D71B8
:1023B8004946976500009385650817650000130571
:1023C800651386CEA2CC712D01E9176500001305AF
:1023D8002508EF40D06E01A0B7F700E023A407005E
:1023E800795798CB3D4798C30564B7E700E023A029
:1023F80087180F10000017E7FF1F1307677123A83E
:10240800E180130700F8A38AE7401306000481451A
:102418000808392D97F7FF1F938747C53EC8896776
:1024280093870780FC82B7B703003ECCB707010546
:10243800938707103ECEED472310F102854723010D
:10244800F102970700009387C7E3BEC29707000011
:10245800938787E4BEC4930714D12312F102970728
:1024680000009387A7CE3ED83705040097070000E1
:102478009387A7E53EDC194697070000938707E096
:102488002C00130585213EDE593EA2473ED43C86EA
:102498002316F102C24781C7BC8263F3870001A0FB
:1024A8000808EF00D026AA8501C9176500001305A2
:1024B80065FBEF40B03E01A0F6406644256182808E
:1024C800411117050000130565E706C622C4EF0091
:1024D80050201384418108A0092808202244B240D2
:1024E80013060032896541014DA5797106D6130797
:1024F8008008F337078093F787083EC20F10000063
:10250800B7170040930570052380B704130680FAB7
:102518002380C7040F10000083C6F70293F6A60FA6
:10252800A387D702238007049246F3A606800F10DC
:10253800000073370780137787083AC40F1000002C
:102548002380B7042380C7040F10000003C7F702D5
:1025580013672700A387E70223800704A247F3A78E
:1025680007800F1000000D45EFE05FFB3133814716
:1025780001478146054685451305407EEFE0FFFE8D
:102588006800514681456D21B707C0A83EC8B78786
:10259800E8033ECA680097E7FF1F9387470B3EC6CC
:1025A800EF00D03DB250456182808D47630FF50042
:1025B800C5476308F5008547631FF508238EA1808A
:1025C80082808547238EF1808280411122C406C60D
:1025D80026C24AC02E84B1ED8305060017650000A7
:1025E800130545EAB284EF40702B8C301765000064
:1025F800130585EA17690000130989EAEF40102AD4
:102608009C30636EF4002945EF40302D2244B240DF
:102618009244024903C5D18191454101D9A9B387A3
:102628008400AC234A850504EF4050271374F40F47
:10263800C1BF93F7150099C717650000130585E614
:10264800EF40F047098879D017650000130545E683
:10265800EF40F04665BF8280411122C406C62E8431
:102668009397556063DB0700FD2211C1712A13158A
:10267800F468B24022444101828093F7150091CB5F
:102688001306803E894503C5D181012313451400F3
:10269800CDB793F725008DCFEF20300E9306F00FBE
:1026A8001306F00FA94517F5FF1F13056591238E33
:1026B8000180EF10103E09E597E0FF1FE78000FC5E
:1026C8002946894503C5D181C9211345240055B739
:1026D80013F5450059DDEF20500A17F5FF1F1305C4
:1026E800258E1C219306F00F1306F00F8507A945C8
:1026F8001CA1EF10306CAA8517650000130585DC56
:10270800EF40D01913454400ADB7797113060002A4
:1027180081450A8506D622D4212E17050000130507
:10272800E5F3EF00007BB7477671938797123EC4B5
:10273800B7575500938757553EC6B7D72500938797
:1027480007783EC28967938707511384D1817C80BB
:10275800970700009387A7E508A03EC80A85ED57AC
:10276800230EF100EF10F019AA8517650000130574
:10277800A5D6EF40B01208208945A52EB2502254A4
:102788004561828041111D4506C6EFE01FD413053F
:10279800602497E0FF1FE78040CBB717004093877E
:1027A800870A98438545130500101367072098C3C7
:1027B800EFF09F888D4513050020EFF0FF87613407
:1027C80017650000130585D2EF40702F17650000CC
:1027D800130545D2EF40B02ED93EDD31EF2010531E
:1027E8002D3797E0FF1FE78080EB184183A785FF0F
:1027F8006319B7001CC1FD5723AC05FE238FF5FEF6
:102808008280232CF6FEC5BF411122C437E400E0C4
:1028180026C204403707200006C6F98C2320E41896
:102828000F10000009E9232094101545B2402244F6
:102838009244410182800347E5FF9307F00F630646
:10284800F700232094101145D5B7EF6020150145F6
:1028580023209410E1BF0111B7E700E04AC803A99B
:1028680007004EC63707200006CE22CC26CAAA8902
:102878003379E90023A0E7180F100000970700201C
:102888009387C7FE80438144014611E491E8A1651E
:102898004E85B12905A08347E4FF6399370385CCAA
:1028A800A68517050020130565FC81376DD0A16545
:1028B8004E858124F2406244B7E700E023A0271147
:1028C80026854249D244B2490561828091E0228638
:1028D800032484FF5DBFA284E5BF9707002023A7D8
:1028E80007F88280A5C1011106CE22CC26CA8147ED
:1028F800C14633D7F540058B29C312053E953147AC
:102908003305E50217070020130787FF0443054432
:102918003314F4002EC642044180AA949C40C84057
:102928008297B24523A0040023A20400A18DF2409F
:102938006244D2442E85056182808507E39BD7FADD
:102948000144EDB72E858280C9C1797122D406D69B
:1029580026D24AD04ECE01444147B3D78540858B15
:10296800A5C31205314722953305E50297070020D4
:10297800938707F903A907008544B3948400C20428
:10298800C180BE892A990327090011C70325490078
:102998002EC60297B24531473304E40283A70900E3
:1029A8003E941C4489E72320090023220900B250E1
:1029B8002254A58D02599254F2492E854561828090
:1029C8000504E31CE4F88144DDB72E85828097076F
:1029D80000209387A7EE9C4399E33E85828003D726
:1029E80027006316B70003C70700E308A7FEDC4704
:1029F800E5B7B7E700E09843B706200023A0D7184B
:102A0800758F0F10000001C599C1814711E6B7E71E
:102A180000E023A0E7108280B386F50003C8060013
:102A2800B306F500850723800601E317F6FEC5B750
:102A380037E700E01C43B70620002320D718F58F9E
:102A48000F10000001C53307C50011E637E700E0A5
:102A58002320F71082800505A30FB5FEE31DE5FED0
:102A6800F5B737E700E01C43B70620002320D71846
:102A7800F58F0F10000001C599C1014711EA37E72A
:102A880000E02320F710054582800507E309E6FEEC
:102A98003308E500B386E5000348080083C606004E
:102AA800E305D8FE37E700E02320F71001458280D0
:102AB80037E700E01C43B70620002320D718F58F1E
:102AC8000F10000001C53307C50019E637E700E01D
:102AD8002320F7100145828005058346F5FFE3971B
:102AE800B6FEE31BE5FE37E700E02320F7100545B7
:102AF8008280B7E700E09843B706200023A0D718E4
:102B0800758F0F1000009706002083C676D6637372
:102B1800D50217060020130626DA93161500084278
:102B2800369583560500D58D2310B50023A0E710F0
:102B38000145828023A0E7100D458280B7E700E0B9
:102B48009843B706200023A0D718758F0F100000F0
:102B58009706002083C6D6D16375D50217060020D4
:102B6800130686D593161500084293C5F5FF3695CA
:102B780083560500F58D2310B50023A0E710014505
:102B8800828023A0E7100D45828079714AD037E909
:102B980000E026D283240900B707200006D622D4F5
:102BA8004ECE52CC56CA5AC85EC6FD8C2320F918A0
:102BB8000F1000009707002083C797CB637AF500B2
:102BC80097070020938707CF83AB070063970B0015
:102BD800B7E700E023A09710A9A0170B0020130B5C
:102BE800EBD2832A4B00B74736FE938707C82E8A55
:102BF8009705002083D505D2BE9AB387C5022A84DB
:102C0800B2898146B3B5C50213850732B337F500DB
:102C180013060064BE95EF40C00E63F0AA0223209D
:102C280099100145B250225492540259F249624A0D
:102C3800D24A424BB24B45618280829B9705002065
:102C480083D545CDB38735032A89130600648146A9
:102C5800B3B5350313850732B337F500BE95EF409A
:102C6800400AB30725013E8903274B0063E4A70008
:102C780063E4E7003389E740D2852285893B09C9A7
:102C880023242501B7E700E023A09710054559BF85
:102C9800936504F0C205C1814145EF50104119E91F
:102CA800970700209387C7C19C5B9DD3A2851145D8
:102CB800829739BF97070020938747C09C4385E7D1
:102CC8009707002023ACA7BE8547232605002324A9
:102CD80025012311450123008500A300F5002322C7
:102CE80005004DB7BA87D84775FFC8C7F1BF0111AE
:102CF800B7E700E04AC803A9070022CC4EC6370749
:102D0800200006CE26CAAA892E843379E90023A09A
:102D1800E7180F1000006539AA8419C123110500AE
:102D2800A2854E85213D9707002083C767B4639B22
:102D380037019707002083D7A7B75D8C9707002036
:102D4800239887B6B7E700E023A02711014591E053
:102D58001945F2406244D2444249B2490561828031
:102D6800411106C69707002023A0A7BA0295B240D2
:102D78009707002023A6A7B0014541018280994703
:102D880063E9B7008A05970700209387A7B0BE9527
:102D980088C182809707002023A6A7B611C585475A
:102DA800170700202307F7B082804111714681453B
:102DB80017050020130505AE06C69707002023AFA8
:102DC80007AE9707002023A107B49707002023A385
:102DD80007AE97070020238E07AC9707002023A390
:102DE80007B2B93113060002814517050020130503
:102DF80025A83D39EF30A07097070020938747AC8E
:102E080003C5C70383C7D70385453E958D4733055B
:102E1800F50239051375F50F97070020238BA7A432
:102E280099473305F50213050524EF5010281707B5
:102E380000202327A7AC59C9994717060020034645
:102E480046A33306F602814513060624D5369707AE
:102E580000209387E7AA9C4393870724170700203D
:102E68002328F7A2170700200347A7A00A07BA9745
:102E7800170700202322F7A48D3409219707002083
:102E8800938707A194439707002083C7779E1397DA
:102E98002700369717060000130646AB10C31387A2
:102EA80017001377F70F0A0736971706000013065F
:102EB800A6A310C313873700890793F7F70F8A076C
:102EC80097050020A386E59AB69790C3B2404101C2
:102ED80082809707002083C7B79917070020034708
:102EE800479963F3E702170700201307679A184307
:102EF8009386170017060020A30CD69693962700F2
:102F0800369708C33E8582809307F00FE5BF1C41C2
:102F180063850714370700F07D8FB70600208947BF
:102F2800631ED71203574500630A0712411122C4D2
:102F380019462A849305F00F610506C6953E054794
:102F48008D476307E5101C4481CB585899476301A6
:102F58000710185C630E070E130600048145170559
:102F680000201305E595E93413060004A28517052A
:102F780000201305E594B53C9707002083D70795F3
:102F880099E793070010170700202311F794970774
:102F9800002083C7C79391E78547170700202308B8
:102FA800F7929707002083D7A79291E7ED47170775
:102FB8000020231FF7909707002083C7579191E7B8
:102FC800954717070020A304F7909707002083C7A9
:102FD800479091E7854717070020230CF78E97073E
:102FE800002083C7178F99EB970700209387478D99
:102FF80083C7F70017070020A30DF78C9707002059
:1030080083C7578D81CF13F7370089839706002030
:103018002386E68E17070020A302F78E9707002065
:1030280083C7478B91E7C547170700202304F78A12
:103038008347640199E79307C00317070020230C0F
:10304800F788FD5717070020A30AF79AB93B81476D
:10305800B24022443E854101828089473E85828074
:1030680037C700408326C720B707FCFFFD17F58F39
:103078002326F7200100010097F7FF1F9387477F5A
:10308800C84B832787262326D7206A0593C7F7FFCF
:1030980099835D8D828001114EC69709002093891E
:1030A800E98683A7090006CE22CC26CA4AC852C49C
:1030B800829713090064B335250303DA8900814632
:1030C800528633052503EF30D04397F7FF1F9387C8
:1030D800277A804BAA84014563069402338584408D
:1030E800636E940003A5490052868146B335A90250
:1030F8003305A902EF30F040018D269597F7FF1FA1
:1031080023A09778F2406244D2444249B249224A05
:103118000561828097F7FF1F9387877A985731CF89
:10312800411126C206C6BE8422C483D7E181B1C339
:10313800029703D7E1812A8405CBBA876373A70076
:10314800AA87C207C183BA866373E400A286C2064F
:10315800C182958F1307C0036358F700DC5491C3ED
:1031680082970527239F8180B240224492444101DF
:1031780082800297239FA180C5BF828097F7FF1F97
:1031880023A0077A97F7FF1F93878773DC570111EE
:1031980006CEAA8581C72AC68297B245D1CD9C4161
:1031A8000545C1CBDC41D1C783D78500D9C383D7B7
:1031B800A500C1C3514617F5FF1F13052575EFF08C
:1031C8005F8397F7FF1F2389077497F7FF1F93877C
:1031D800E7739C4317F7FF1F232EF76C97F7FF1F22
:1031E80083C7776F8DE79307805717F5FF1F035540
:1031F80065723305F50237460F001306062481462B
:103208008145EF30103097F7FF1FA386A76C17F79B
:10321800FF1F0347576CA54763E7E700A94717F760
:10322800FF1FA30AF76A17050000130505E70D3EFF
:103238000145F2400561828097F7FF1F23A40764C8
:1032480097070000938707E217F7FF1F2320F76C03
:103258007D5797F7FF1F23ADE76AB787320093873B
:1032680027A197F6FF1F23A7F66A97F7FF1F238565
:10327800076AB7C7004023A4E72681BF011122CC03
:1032880017F4FF1F1304C463084406CE26CA4AC8AD
:1032980001E90545F2406244D24442490561828011
:1032A8005C58E5DB185C75D7700085458297184433
:1032B800B247E300F7FE9305E00417F5FF1F035537
:1032C800E560EF50805E17F7FF1F232FA75A71D1D3
:1032D80017F6FF1F0356865F9305F00FEFF04FF5C3
:1032E800814417F9FF1F1309A95897F7FF1F83C7D0
:1032F800075E0326890163CFF4003285EF50006A28
:10330800014597F7FF1F23A1075897F7FF1F23AF22
:10331800075649B797F5FF1F83D5455BB3879502D5
:103328000844185C898185043E9508C2029775BFD8
:1033380097F7FF1F9387075F9C43B706000137067F
:10334800008298437D16558F98C39843B7060800A6
:10335800558F98C31307F00FB8C313070005D8DFBC
:10336800D85BB7060080558FD8DB17F7FF1F0347D8
:1033780067561377F70393169701D85B718F558FAC
:10338800D8DB370702001307072198DF17F7FF1F5D
:103398001307475C1843232A07041307F00398D33D
:1033A80037E700E0D147A309F70497E7FF1F9387A2
:1033B800278A93E717007CD78280834715002A88DD
:1033C80093950701C1811387250081CF97F7FF1FC8
:1033D800938747589C43BC4B9583858B99C3138728
:1033E80065000D074297834707008545054593F714
:1033F800F707639EB70697F5FF1F9385A55283A825
:10340800050083A708049583858BB5E311C683A7B8
:103418004801DD832300F6008DCA9C41B04B460667
:10342800931516009357560163D6050093E707C016
:10343800C207C18303960600C207C18709C6B297AF
:103448000946B3C7C7022390F60083471800014511
:1034580099CF97F7FF1F9387E74F9C43BC4B958302
:10346800858B91C78307070063D30700394582809E
:1034780097F7FF1F9387474B9C4399CB944BD04BAF
:103488009842518F98C294439C479842D98F9CC2C6
:1034980097F7FF1F938707499C43370700FA1308DC
:1034A800F7FFD85397F6FF1F83C6E64897F8FF1F24
:1034B8009388484A05439386E60903A608003377AC
:1034C800070163106504D8D398431377F7CF98C3DF
:1034D80058468177FD17F98F5CC60F10000083A747
:1034E800080037060200AD0590C7130600F817F567
:1034F800FF1F230FC5428A05B6958605ECD3D8C7AA
:10350800828037050002498FD8D398431377F7CFC5
:103518001367071098C358468177FD17F98F5CC663
:103528000F10000083A7080037060200A90590C7FE
:10353800130600F817F5FF1F230CC53E8E056DBF57
:1035480097F7FF1F9387473E9C4389CFD44303A82F
:10355800870098423367070198C2D447DC4B9842EA
:10356800D98F9CC297F7FF1F9387C73B9C4317F7D8
:10357800FF1F130767431443370700FA1308F7FFC1
:10358800D853854895053377070163131507D8D3B2
:10359800984341751305F53F1377F7CF98C3D84F74
:1035A8008E05698F0D6513050540498FD8CF130720
:1035B800F007238FE700D84F137707E01367070A50
:1035C800D8CF97F7FF1F83C7E73D13F7F701BC4A2A
:1035D800819BD98FBCCA9385C50397F7FF1F23AF7B
:1035E800B73411C6060697F7FF1F23A9C734828090
:1035F80037050002498FD8D3984341751305F53F25
:103608001377F7CF1367071098C3D84F9205698FC0
:103618000D65130505C0498FD8CF13078007238F81
:10362800E700D84F137707E01367C709D8CF97F794
:10363800FF1F83C7373713F7F701BC4A819BD98F20
:10364800BCCA51BF411106C617F7FF1F0347872E93
:10365800A1476311F70497F7FF1F83C7E72F858BEF
:1036680017F6FF1F0346763197F6FF1F83C6E6302D
:10367800BDC797F7FF1F93872730C8432DC18345E0
:1036880015000905EF00107311C5854717F7FF1FCF
:10369800A302F72A17F7FF1F0347C7299947631C97
:1036A800F70097F7FF1F93876738BC5F83C7B7009A
:1036B80095CBEF30600B17F7FF1F0347A7279D47F0
:1036C8006312F70297F7FF1F9387473683A7C70848
:1036D80083C7770081CBB24041016F20D069814513
:1036E80001454DB7B2404101828017F7FF1F13070C
:1036F80067261C43944393E6860094C39C438D83BA
:10370800858B89C7010001000100010097F7FF1FA1
:10371800938747219043B706FDFFFD161C42F58F9E
:10372800C166D58F1CC297F7FF1F9387E727904381
:10373800B706EEFFFD161C46F58F1CC61C4337075F
:103748000300B8CB97F7FF1F9387071E9C4399CBBD
:10375800D44390479842518F98C2944BDC4B98427F
:10376800D98F9CC297F7FF1FA385071C828097F704
:10377800FF1F9387271E9C439C438D8B63820710F2
:103788004111B7E700E04AC003A9070026C237077E
:10379800200006C622C4AA843379E90023A0E718CA
:1037A8000F10000017F7FF1F0347B7188D4717F4CE
:1037B800FF1F1304A417631BF70097F7FF1F9387D6
:1037C800A7199C4B01468145454582971947639B3C
:1037D800E40497F7FF1F83C7F71599CB97F7FF1FE7
:1037E80083C747156396970097F7FF1FA3840714AD
:1037F8008347740021476318F7009307801017F771
:10380800FF1F2319F71297F7FF1F2384070AF13DBB
:10381800B2402244B7E700E023A0271192440249AE
:10382800410182809D47639FF40097F7FF1F83C77C
:103838007710DDDF17F7FF1F0347C70F8D47E31921
:10384800F7FA5DB783467400630BD700034774002B
:103858006387E700834774002147E316F7FA97F771
:10386800FF1F83C7370DC5F38347740017F7FF1F82
:103878002302F70C854717F7FF1FA30DF70A61B757
:10388800828017F7FF1F0347D70A9147630EF71087
:1038980097F7FF1F9387C72B9843B7C700409387B5
:1038A80007306313F7104111354506C622C426C2F6
:1038B8004AC0753D4922EF1090499D3C97F6FF1F7D
:1038C800938646069C4217F4FF1F1304E40D97F4F1
:1038D800FF1F93842408984336891377F7CF98C33A
:1038E8008C433707FDFF1306F7FF33F7C50098C36E
:1038F8009843718F37060200518F98C31C403706D2
:1039080013009847518F98C7985705661306068085
:10391800518F98D79840B7070300938787553CCBBA
:10392800930780020100FD17F5FF1C408565D84705
:103938004D8FD8C7D0477D779306F7FF758ED0C7D0
:1039480001000100010001001C401307F77FD44764
:10395800CD8ED4C79457758F98D7EF10B061EF20EC
:103968001036EF10D049EF10B059832609003707F9
:10397800FDFF7D179C42F98F4167D98F9CC2144087
:103988003707EEFF7D179C46B2402244F98F9CC64C
:103998009C40370703009244B8CB97F7FF1FA38AD0
:1039A80007F80249410182808280B7C70040138727
:1039B800073097F6FF1F23ADE6181387072097F601
:1039C800FF1F23A9E6F89387071037D70040411156
:1039D80097F6FF1F23AAE6FC17F7FF1F2324F7F427
:1039E80006C617F7FF1F130767F48547A303F700F9
:1039F80097F7FF1F9387C7EC9C435CD39387071106
:103A08001CD397D7FF1F9387072523A0F182953DE5
:103A1800B7E700E003C7574113670708A38AE740E1
:103A2800B2403707100023A0E7103707200023A073
:103A3800E7104101828097F7FF1F9387A7F19C4306
:103A48001307400893066007D8CBD4CFD8D3130602
:103A5800C006D0D7D8DBD0DFF8C3F4C71307800778
:103A68002393E70017F7FF1F130747EC585323AAC0
:103A78000704F8DF7D5798C737071F003D07D8C7E9
:103A8800828097F7FF1F938727F2984317F6FF1F47
:103A9800130686EC97F7FF1F9387C7E8944383477D
:103AA800160013F8F707D1C948575C42759948D7EB
:103AB8008842137505F83365050188C213F51500AA
:103AC80001C993F5050341456386A506938787C118
:103AD8004C574168130808A093E525004CD7B3D587
:103AE8000703B70810FEFD18B3F70703FD89139500
:103AF80045016C43B3F51501C98D6CC39305A00F3F
:103B08003705FCFFAA07B3D7B7026C43E98DBA079C
:103B1800B983CD8F7CC383470600898B99CB9C42A0
:103B280093F7F70713E707049C4293F707F8D98F31
:103B38009CC282809387078361BF5C57F59B5CD7E3
:103B48009C4293F707F8B3E707019CC2E9B7411114
:103B580006C697F7FF1F238807E2413EB24001459A
:103B680041018280411197F7FF1F83C757DC06C6C2
:103B7800858B95C7E93F97F7FF1FA38A07DA97F761
:103B8800FF1F238707DA97F7FF1F9387E7DC03A355
:103B98000701014681450545B2404101028397F777
:103BA800FF1F938727DB9C43FC5385E34D3797F72B
:103BB800FF1F238F07D697F7FF1F9387E7D903A324
:103BC8000701014681454545C1BF97F7FF1F938708
:103BD800E7D583C777000D476317F700854717F7C1
:103BE800FF1F2308F7CCB24041018280411197F7AB
:103BF800FF1F83C7C7D326C206C622C4858B97F486
:103C0800FF1F938424D5F5CB97F7FF1F238107D295
:103C180097F7FF1F938747D9984317F5FF1F034569
:103C2800A5D317F4FF1F130424D35C578583858B12
:103C3800B1CB504093760503C145930786C1639481
:103C4800B60093070683C165938505A0B3D6B7026E
:103C5800370810FE7D18B3F7B702FD8A13964601A0
:103C68007443B3F60601D18E74C39306A00F3706CA
:103C7800FCFFAA07B3D7D7027443F18EBA07B983FA
:103C8800D58F7CC31185014697F5FF1F83C585CE67
:103C98000D89EFF0FF8A170500001305E50AEFF01C
:103CA8006F8F98408177FD175447F58F5CC70F10C9
:103CB80000009840B70702001CC7930700F817F6E2
:103CC800FF1F2307F6C697F7FF1F9387A7C59C43D7
:103CD8009C43A1838D8B99EF9307601903230401FB
:103CE8007CD354C70146814505452244B2409244DD
:103CF800410102839307E01BD5B79C40FC5385E341
:103D0800B93597F7FF1F238507C297F7FF1F9387DA
:103D1800A7C403A30701014681454545F9B797F7AD
:103D2800FF1F9387A7C083C777000D476317F70066
:103D3800854717F7FF1F230EF7B6B2402244924477
:103D480041018280011197F7FF1F83C757BE06CE36
:103D580022CC858B17F7FF1F130747BDD1CB3A84B9
:103D6800FD33485097F7FF1FA38307BC8145814661
:103D78001306F10097F7FF1F238C07BAEFF0EFE364
:103D880093158501E1858DE15C509306F00F03C71B
:103D98000700630BD70097F7FF1F83C7F7BD63853D
:103DA800D7006303F700894597F7FF1F9387C7BAC2
:103DB800038707006347070058508346F100230034
:103DC800D7009C4B505093F5F50F0945829797F70C
:103DD800FF1F83C727BB898B81CB854517F5FF1F3D
:103DE800034585BAEFE0FFD0F24062440561828066
:103DF80097F7FF1F938707B69C43FC5385E3813BE6
:103E080097F7FF1F238607B297F7FF1F9387C7B45B
:103E18009C4B0146814549458297F9B7834777000E
:103E28000D47E313F7FC854717F7FF1F2303F7A890
:103E380065BF79714AD052CC56CA06D622D426D24A
:103E48004ECE5AC893070008AA8A2E89328A631769
:103E5800F6023D44EF40F01AE37EA4FE97F7FF1FF9
:103E680083C727B19607C117E3E6A7FE97F7FF1F99
:103E7800938747AE9C4313078007F8D397F4FF1F37
:103E8800938444AA9840814517F4FF1F130484AC17
:103E98005C5BF19B93E717005CDB17F5FF1F03459D
:103EA800B5ABC5369840B707FDFF9386F7FF1043BB
:103EB800B377D6001CC31C4337061300F58FB7062B
:103EC8000200D58F1CC317F7FF1F1307E7AD1C436C
:103ED8009447D18E94C79457056613060680D18EF1
:103EE80094D71440B707030093878725BCCA930764
:103EF80080020100FD17F5FF14430565DC46C98FF4
:103F0800DCC6CC46FD771386F7FFF18DCCC60100E1
:103F180001000100010014439387F77F97F5FF1F05
:103F2800938585A3D046498ED0C69056F18F9CD6EE
:103F380090459C40D0C7B0D3058A63060614156621
:103F480013065655F0DFD045370800FF37058000C7
:103F5800D0C3B0CF8C471305D532B3F50501C98D51
:103F68008CC7F04F33760601498EF0CF10405C4283
:103F780093E717005CC2DC4293F7F7EFDCC201005D
:103F88000100184397F9FF1F9389099F17FBFF1F2B
:103F9800130BCB995C4393E707105CC383C7E90015
:103FA80093E7270017F7FF1F230FF79C9307FAFFE4
:103FB80093F7F70F0547636CF70C03250B024A8646
:103FC800D68523004501A30025010905EFE07FA25E
:103FD80003270B021C4093150901C181B8DF17F7AD
:103FE800FF1F2306079417F7FF1FA302079417F76D
:103FF800FF1F230F07920D4797F6FF1FA38BE6922B
:10400800130700086313EA0AF8537DFF97F7FF1FA9
:104018009387478A9C432EC6829703A78900B24597
:10402800636DE506198D03270B020D81B707800024
:104038009387F72F62055D8D08C317F5FF1F0345AA
:10404800A59111850D89EFF0AFC29C40B70600011C
:104058009843558F98C3D85B719BD8DB97F7FF1FA0
:10406800A388078C97F7FF1FA382078C1C4009477A
:1040780098C3B250225492540259F249624AD24A21
:10408800424B456182802D661306A6AA65BD93073B
:104098000008E31FFAF2094925BF97F7FF1F938726
:1040A800E786DC43998F3E95BDBF17F5FF1F034593
:1040B800A58A11850D89EFF0AFBB9C40B7060001BA
:1040C80017150000130585249843558F98C3D85BAE
:1040D800719BD8DBEFE01FCC97F7FF1F2384078A7B
:1040E80097F7FF1FA386078497F7FF1FA38007840E
:1040F8001C40094798C383C7C90093F7F70FE5DF4A
:104108008DBF1C4963850718411122C406C626C203
:10411800834705002A8493F7070489C75C4109454A
:104128006386071013060002814517F5FF1F130564
:10413800A582EFE0FF8F13060002A28517F5FF1F87
:1041480013058581EFE0FF8A97F7FF1F83C7578222
:1041580097F4FF1F9384448099E79307800217F729
:10416800FF1FA307F78097F7FF1F83C7878091E793
:10417800A14717E7FF1F230EF77E97E7FF1F83C7A7
:10418800577F91E7C54717E7FF1FA304F77E97E717
:10419800FF1F83C7277E91E7ED5717E7FF1F230B04
:1041A800F77C97E7FF1F83C7F77C91E7ED5717E781
:1041B800FF1FA301F77C8347040093F7070491CFFF
:1041C800DC4037B724001307F7E96366F70693075F
:1041D800500217E7FF1FA301F77897E7FF1F9387A0
:1041E800A779C84319C1EF40607B97E7FF1F23A752
:1041F800077883C70400858B91CF17E5FF1F034518
:104208007577930590040905EF40206A97E7FF1F2B
:1042180023A6A77683C71400014517E7FF1FA30449
:10422800F7769C4417E7FF1F2322F776B240224413
:10423800924441018280370725009306F74863EDD1
:10424800F6003767DBFF13070793BA971307007D5C
:10425800B3D7E702FD17B5BF130707496395E70012
:1042680093076002BDB737D725001307F777636D4B
:10427800F7003767DBFF13070793BA971307007D2B
:10428800B3D7E702F917B1B79307700299B7054595
:1042980082807971B7E700E052CC03AA070037079C
:1042A800200006D622D426D24AD04ECE56CA5AC8A4
:1042B8005EC662C466C2337AEA0023A0E7180F100C
:1042C800000097E4FF1F9384246998440DE323A01A
:1042D80047110545B250225492540259F249624A94
:1042E800D24A424BB24B224C924C4561828017E72E
:1042F800FF1F0347176495472A8C97EAFF1F938A85
:10430800EA620945E308F7FC0D452E84B28BB68CAA
:10431800EFF0EFC597E7FF1F83C7C766898B17EBD9
:10432800FF1F130B6B6595C73D49EF40804DE37E3A
:10433800A9FE97E7FF1F83C7C7639607C117E3E680
:10434800A7FE97E7FF1F9387E7609C431307800743
:10435800F8D397E9FF1F9389E95C03A709005C5B21
:10436800F19B93E717005CDB8347CB00898B99E7C8
:1043780083C7040093F7070463990720814517E56D
:10438800FF1F0345755DEFF0CFEF03A70900B707DF
:10439800FDFF9386F7FF104317E9FF1F1309895B99
:1043A800B377D6001CC31C4337061300F58FB70636
:1043B8000200D58F1CC317E7FF1F1307E75E1C43D6
:1043C8009447D18E94C79457056613060680D18EFC
:1043D80094D783260900B707030093878725BCCAAB
:1043E800930780020100FD17F5FF14430565DC46BD
:1043F800C98FDCC6CC46FD771386F7FFF18DCCC696
:10440800010001000100010014439387F77FD046A3
:10441800498ED0C69056F18F9CD6904483A7090048
:10442800D0C7B0D3058A6305061615661306565518
:10443800F0DFD044370800FF37058000D0C3B0CF85
:104448008C471305D532B3F50501C98D8CC7F04FDC
:1044580033760601498EF0CF83C70400832509000F
:1044680013F61700DC41F99BD18FDCC1DC4293F7CE
:10447800F7EFDCC20100010018435C4393E7071023
:104488005CC38347EB0093E7270017E7FF1F230C64
:10449800F74E97E7FF1F2381774F97E7FF1FA38DFD
:1044A800974D630B0C0E03A50A022286E2852300B2
:1044B8007501A30085000905EFE0AFD383A70A02C1
:1044C800032709003CDF97E7FF1F2382074697E78A
:1044D800FF1FA38E074497E7FF1F238B07448D47D1
:1044E80097E6FF1FA387F6448347CB00898B9DCBB4
:1044F8007C53FDFF97E7FF1F9387C73B9C43829739
:1045080003278B006360E50A198D83A70A02090453
:104518001374F40FA38087000D81A29723800700EE
:10452800A380A70017E5FF1F0345054311850D89E3
:10453800A285EFE0FFF383C7040017F5FFFF13051B
:10454800256B858B89E717F5FFFF1305E561EFE01C
:104558007F8483A70900B706000101459843558F5A
:1045680098C3D85B719BD8DB97E7FF1FA382073CF2
:1045780097E7FF1FA38C073A83270900094798C3C9
:10458800B7E700E023A04711B1B38945C840E5BBB0
:104598002D661306A6AA69BD83A70A02014423A0B3
:1045A800770129BF97E7FF1F93874736DC43998F29
:1045B8003E95A1BF7971B7E700E04AD003A907008B
:1045C8003707200006D622D426D24ECE52CC56CA61
:1045D8005AC83379E90023A0E7180F10000097E4C0
:1045E800FF1F93846437984411EF23A027110545D2
:1045F800B250225492540259F249624AD24A424B6A
:104608004561828017E7FF1F130747420327070A00
:1046180009C723A027110945E1BF83C70400328ACF
:10462800B689858B2E86AA8AB9CF17E4FF1F130493
:10463800A4345C4085E317E5FF1F0345B5332EC658
:10464800090593059004EF404026324697E7FF1F7F
:1046580023A6A7325C4099E7B7E700E023A027111B
:104668000D4579B717E7FF1F034727312380E70078
:104678005C40638C0A0431CAA380C7004840D685D1
:104688000905EFE00FB717E7FF1F0347972A95477C
:10469800630CF70097E7FF1F83C7C729194763858E
:1046A800E7000D476396E70297E7FF1F83C7972840
:1046B80099E79307801017E7FF1F231DF726B7E731
:1046C80000E023A02711014525B7A380070065BF97
:1046D80017E4FF1F130404281C4098430D8B0DC3D7
:1046E80017E7FF1F2307071C98431367870098C322
:1046F8009C438D83858B89C701000100010001005F
:104708001C403707020017EBFF1F130BEB2623A2F1
:10471800070698C797E7FF1F238C072097E7FF1F17
:1047280083C74726918B89EB97E5FF1F83C5C52271
:1047380093F705046399071A814517E5FF1F034599
:10474800B521EFF00FB417E5FF1F0345E5201185EC
:10475800014697E5FF1F83C5E5210D89EFE05FDE80
:1047680097EAFF1F938A0A1C984483A70A00D8C7B0
:10477800B8D3058B630F0716156713075755F8DF6E
:10478800D844B70500FF37068000D8C3B8CF944790
:104798001306D632ED8ED18E94C7F84F6D8F518F98
:1047A800F8CF184083C7040093F617005C43F99BC1
:1047B800D58F5CC383274B003CDF97E7FF1FA38E91
:1047C800471B97E7FF1F238A371B8347EB0093E7B5
:1047D800470017E7FF1F2308F71A9307000417E796
:1047E800FF1F2305F71497E7FF1F23830714A1472B
:1047F80017E7FF1FA30FF71297E7FF1F9387470CD1
:104808009C5791CB13060064C14517E5FF1F03456C
:10481800A517EFE08FB71C40170500001305253DCD
:10482800DC43858B89E7170500001305450DEFE08C
:104838006FD603A70A00B707FDFF9386F7FF10435B
:10484800B377D6001CC31C4337061300F58FB70691
:104858000200D58F1CC397E7FF1F9387E71498437F
:104868001447D18E14C71457056613060680D18ED7
:1048780014D714403707030013078715B8CA13075E
:10488800800201007D1775FF984305655447C98E5E
:1048980054C74C47FD761386F6FFF18D4CC70100CF
:1048A80001000100010098439386F67F5047498E26
:1048B80050C71057F18E14D797E6FF1FA38A060634
:1048C80097E6FF1FA38406061440054690C254438A
:1048D80093F6F6EF54C30100010098435C4393E755
:1048E80007105CC3E9BB93F5050393E51500C840C1
:1048F80089BD2D671307A7AA59B5011197E7FF1FAF
:1049080083C7D70206CE22CC26CA4AC8858B17E7AA
:10491800FF1F1307A701638A072897E7FF1FA387CD
:1049280007003A84A30701004453EFF04FA297E72A
:10493800FF1F83C72705918B97E6FF1F9386C60342
:1049480017E9FF1F130949016380072083C7140073
:10495800A69703C7070093070008631AF700834761
:10496800090093E7870017E7FF1F2307F7FE5C4C52
:104978000D476375F716F11717E7FF1F2326F7FC96
:104988005C4C984663E3E7163387E74083C7140017
:1049980003C6C600A69783C71700620661868E07FE
:1049A8006356061663FAE7141D8F9306000263EB3D
:1049B800E600584C6365F714B307F74017E7FF1F85
:1049C8002320F7FC894517E5FF1F0345E5FBEFE0CA
:1049D8004F9283470900A18B6383071697E7FF1F50
:1049E800938747F78C439307800C1307F00FFCD18C
:1049F8001C5098C397E7FF1F238B07F297E7FF1F09
:104A0800A38707F297E7FF1F238407F297E7FF1FA3
:104A1800A38007F297E7FF1F9387C7F09843B7076C
:104A2800FDFF9386F7FF1043B377D6001CC31C43E2
:104A380037061300F58FB7060200D58F1CC397E71A
:104A4800FF1F938767F698431447D18E14C71457EE
:104A5800056613060680D18E14D73707030013079F
:104A68008725B8C91307800201007D1775FF944395
:104A78008565D8464D8FD8C6D0467D771305F7FF94
:104A8800698ED0C601000100010001009C43130794
:104A9800F77F0546D4470145CD8ED4C79457758F07
:104AA80098D797E5FF1F83C525EB91858D8997C01A
:104AB800FF1FE780003983470900DD9B17E7FF1FC9
:104AC800230CF7E897E6FF1F83C626EB17E6FF1FC0
:104AD8000346B6EA81450145F13CD1A017E7FF1F1F
:104AE8001307C7E25843BA9779B517E6FF1F1306AD
:104AF800E6E15042B29749BD3387E7407DB597E676
:104B0800FF1F9386A6E0D44236977DB5584C636163
:104B1800F702B307F74017E7FF1F2323F7E683C71A
:104B2800C60093E7070817E7FF1F230DF7E459BDF1
:104B380017E6FF1F130686DD50423297D9BF83C799
:104B48001400F917A380F4004850814681451306E4
:104B5800F100EFE09F865C50931585019306F00FF6
:104B680003C70700E185630CD70097E7FF1F83C7DA
:104B7800D7E06386D7006304F70093E52500830731
:104B8800090063C7070089E58347F1002380F40023
:104B980083270901505093F5F50F0D458297F24090
:104BA8006244D24442490561828097E7FF1F938798
:104BB80067DA9C43FC5399EFEFE07FF997E7FF1F13
:104BC800938707D09C5BE38F07EE85451305100894
:104BD8008297CDBD834777002147E312F7FC8547CD
:104BE80017E7FF1F2307F7CC5DBF797197E7FF1F12
:104BF80083C7C7D306D622D426D24AD04ECE52CCAB
:104C0800858B17E7FF1F130767D2638207260329DF
:104C1800470281461306F10081454A853A84A30775
:104C2800010097E7FF1F238307D0EFE00FF9131A5E
:104C38008501135A8A4163120A0297E7FF1F83C747
:104C4800D7D39306F00F638AD7005850034707005D
:104C58006305D7006303F700094A97E4FF1F9384AD
:104C6800A4CF8387040097E9FF1F9389E9D063C61F
:104C7800071463160A148347F1002300F90083C759
:104C8800C900918BD1CB5C4C0D47637DF716F117AA
:104C980017E7FF1F232AF7CA5C4C03A7890063EABA
:104CA800E7163387E7408347190083C6C900CA97C8
:104CB80083C71700E206E1868E0763DD061663F1F7
:104CC800E7161D8F9306000263EBE600584C636CF1
:104CD800F714B307F74017E7FF1F2323F7CA8945DF
:104CE80017E5FF1F034545CAEFD0BFE0834719000A
:104CF8003307F90083460700130700086395E61693
:104D08001C501307F00F98C383C7040093E787006C
:104D180017E7FF1F2302F7C497E7FF1F9387C7C84A
:104D280098435C578583858BA1C3DC40C165938517
:104D380005A0B3D6B702370510FE7D15B3F7B70245
:104D4800FD8A139646017443E98ED18E74C3930687
:104D5800A00F3706FCFFAA07B3D7D7027443F18E1A
:104D6800BA07B983D58F7CC383A7490017E5FF1F0E
:104D7800034585BE118583C517000D89EFE04FEF08
:104D88001705000013056513EFE0CF8097E7FF1FB5
:104D9800938747B99C43B70600019843558F98C33A
:104DA800D85B719BD8DB83C70400A18BA1E79C4823
:104DB800505081450D45829735A8E3020AECEFE093
:104DC800DF929C4850500D459375FA0F829703A5C2
:104DD800490017E6FF1F034656BA97E6FF1F83C62A
:104DE800C6B909C583451500090519A081450145BE
:104DF800EFF04FFCB250225492540259F249624AE1
:104E08004561828017E7FF1F130747B05843BA97D9
:104E1800BDBD97E6FF1F938666AFD442B69751B5DE
:104E28003387E74045B597E6FF1F938626AED44201
:104E3800369745B5584C6361F702B307F74017E753
:104E4800FF1F232FF7B283C7C90093E7070817E7A7
:104E5800FF1F2309F7B261B597E6FF1F938606ABDC
:104E6800D4423697D9BFF917A300F90075B597E76B
:104E7800FF1F938727AE9C43FC539DE3EFE03FCD94
:104E880097E7FF1F9387C7A39C5B89C789451305CD
:104E98001008829797E7FF1F938707AEC84315BF8F
:104EA800834777002147E317F7F4854717E7FF1F84
:104EB8002301F7A081B7411197E7FF1F83C717A701
:104EC80006C622C4858B8DCB97E7FF1FA38007A654
:104ED800EFE0FFC797E7FF1F938707A803C70700FF
:104EE8003E84218B21E703A3070101468145114533
:104EF8002244B2404101028397E7FF1F938787A5A9
:104F08009C43FC53ADE797E7FF1F238307A297E76E
:104F1800FF1F938767A403C707003E84218B19E707
:104F280003A30701014681455145D9B797E7FF1FFC
:104F3800938787A4C84317E6FF1F034616A497E67E
:104F4800FF1F83C686A30DC1834515000905EFF031
:104F58006FE683470400DD9B17E7FF1F230EF79ECC
:104F6800B24022444101828081450145CDB7854741
:104F780017E7FF1F230FF792E5B74111B7E700E0E6
:104F880022C480433707200006C6798C23A0E7187F
:104F98000F10000097E7FF1F2387079E97E7FF1F63
:104FA8009387879DC84319C1EF30501F97E7FF1FAC
:104FB80023A6079C17E7FF1F0347D79797E7FF1F0D
:104FC8009387C79601CF97E6FF1F83C6A69621470A
:104FD8006396E60017E7FF1FA30E079403C7770041
:104FE80099466387E60003C777009D46639DE60000
:104FF80083C7770017E7FF1F230EF792854717E748
:10500800FF1FA309F792EFE04FEEC14517E5FF1F19
:105018000345859797E7FF1F238D0788EFD03FCD7E
:10502800B7E700E023A08710B240224401454101C0
:105038008280411106C622C426C217E4FF1F13044A
:10504800A493253F8347F400A14517E5FF1F0345B7
:10505800A59317E7FF1FA301F7905C4897E4FF1F8C
:105068009384848F17E7FF1F232CF78EEFD03FC858
:10507800914517E5FF1F03452591EFD05FC783478B
:10508800C400898B9DC39C480146814513052002B5
:1050980082972244B240924497E7FF1F2384078EE9
:1050A8008945014541016FD09FCD8347C400918B4D
:1050B800EDD39C480146814513054002D1BF97E7CF
:1050C800FF1F83C7278C898B638B0712011152C47A
:1050D80006CE22CC26CA4AC84EC656C25AC017E7C0
:1050E800FF1F034717858D4717EAFF1F130A0A8416
:1050F8009145630FF70A354501798569EFE02FE798
:10510800A14417E4FF1F1304E4847D19938929F946
:105118001306000881450145EFE0BFD1B70A020038
:10512800130B00F883472A00858B85E31C40FC534A
:10513800F5FBFD14F1FC6244F240D2444249B24905
:10514800224A924A024B0561EDB517E5FF1F034558
:10515800A580118501469305F00F0D8997D7FF1F8C
:105168002387077CEFE0CFBD97D5FF1F83C5C57E9A
:1051780091851306F00F8D89054597C0FF1FE780BD
:1051880040CC83473A00858BB9C397D7FF1FA380CC
:10519800077AEFE0DF9B97D7FF1F9387E77D83C7E9
:1051A800C700854593E7070817D7FF1F230CF77C2F
:1051B8006244F240D2444249B249224A924A024BDE
:1051C80017D5FF1F0345457C05616FD09F92EFE01F
:1051D8001F981C40D847B3762701D4C70F1000008A
:1051E8001C4023A4570197D6FF1F2383667523A26B
:1051F8003707D8C71C40FC5395DB0100E5BF828008
:10520800411122C406C693F715002E84A1CB97D767
:10521800FF1F83C72777898B85CF97D7FF1F938772
:10522800A77583C7C70017D5FF1F0345E575130684
:105238000005E207E18763DA070017D6FF1F034678
:1052480036739307000A3306F6029145EFD0FF93B1
:1052580013451400B24022444101828093F725008F
:10526800B9C797D7FF1F83C7E771918B95CF97D79A
:10527800FF1F9387677083C7C70017D5FF1F0345B4
:10528800A5701306000AE207E18763DC070017D65A
:10529800FF1F0346F66D9307000A3306F60213064E
:1052A8008602A145EFD07F8E1345240065B793F79A
:1052B800450089C729351345440069BF93F7850020
:1052C80099CB97D7FF1F83C7E76B918B91C3953312
:1052D8001345840041B793F705010145A5DFEFD0D9
:1052E8007FE317D7FF1F0347D764A147631BF70066
:1052F80013060064C14517D5FF1F0345E568EFD0C5
:10530800DF8813450401B9B7411197D7FF1F83C739
:10531800076206C622C426C2858B638D071C17D573
:10532800FF1F0345656311850146930500020D893A
:1053380097D7FF1F238D075EEFE08FA097D5FF1F3C
:1053480083C5856191851306F00F8D89054597D42E
:10535800FF1F9384A45D97C0FF1FE78080AE83C7BB
:105368003400858B63880718C85097D7FF1FA38020
:10537800075C81460146814597D7FF1F2389075A55
:10538800EFE0AF8363180516C05095470347240024
:105398006312F716194697D5FF1F9385E553130532
:1053A8009400EFD00FEC85476316F5149C5019470D
:1053B800814598C317D5FF1F0345055A11850D89E7
:1053C800EFE00F8B97D5FF1F83C5055991850146DF
:1053D8008D890D4597C0FF1FE780A0A683C72400CD
:1053E800858B6389071097D7FF1F2382075497D7A8
:1053F800FF1F9387274C9C43829797D7FF1F23A1B2
:10540800A758A53E97D7FF1FA388075497D7FF1F14
:10541800A38A0756834734018146814517D7FF1F62
:10542800A308F754834744011305000217D7FF1F49
:105438002301F7548347540117D7FF1FA30BF752D3
:10544800034704018347F40022075D8F8347140153
:10545800C2075D8F83472401E207D98F17D7FF1F43
:105468002320F750034774018347640122075D8FA7
:1054780083478401C2075D8F83479401E207D98F70
:1054880017D7FF1F2324F74E17D7FF1FA30E074E6A
:10549800014733D6D700058A09C605071377F70FE2
:1054A80085458506E397A6FE89C597D7FF1FA38D77
:1054B800E74C8347A40193053400194617D7FF1F0B
:1054C8002308F74A17D5FF1F1305C54C894717D777
:1054D800FF1F2309F74AEFD0CFD12244B2409244AC
:1054E80017D5FF1F0345454A130680029145410120
:1054F8006FD0AFE9EFE06F9FB2402244FD5717D756
:10550800FF1F2301F748924441018280411106C6DA
:1055180022C4EFE08FC913064002814517D5FF1F4B
:1055280013058545EFD0CFD017D4FF1F1304C4440B
:10553800FD57170500001305E5CC1CC0EFD07F9977
:105548002308A400B240224401454101828097D734
:10555800FF1F938767459C4313070048B70600F968
:1055680098D7D85F1385F6FFB7060002698F558F65
:10557800D8DFD85FB706004045760E070D83558FF4
:10558800D8DF985B9306F6FF1D661377F79F98DBC5
:10559800D85FFD75FD15758F518FD8DFD85B619B7E
:1055A800D8DBD0470567598ED0C7D0476D8ED0C796
:1055B800D047598ED0C78C5B370600907D16F18D89
:1055C80037060050D18D8CDBB04B13070780758EE2
:1055D8009966558EB0CBB4473706F9FF7D1693E62A
:1055E8000610B4C7B447F18EB4C7F44F37060005A8
:1055F800E98ED18EF4CF9457558F98D7828097D55E
:10560800FF1F938525359841B707030093878715B2
:105618003CCB17D7FF1F130727391C4341767D164C
:10562800B44BF18EB4CBD44793E60601D4C701003E
:105638000100010001001443DC46BD9BDCC60100EB
:105648000100010001001C430566D44793E60601EA
:10565800D4C7D443D18ED4C3944737062000D18E03
:1056680094C790419306400674D2745291C683A69B
:10567800C709A182858AF5DA01000100010001004D
:10568800010001000100010001000100010001000A
:1056980001000100010001000100010001000100FA
:1056A80001000100010001000100010001000100EA
:1056B80001000100010001001C43416603A7C7095E
:1056C800B44B7D8BD18EB4CB93061700090717D640
:1056D800FF1FA309D62C17D6FF1F2305E62CB84BAE
:1056E800FD8A019B558FB8CB9847B706E0FFFD169A
:1056F800758F98C7D843FD76FD16758FD8C38280FD
:1057080097D7FF1F9387472A9C4341777D17B44F4C
:105718004166F98EB4CF9447D18E94C7D44793F697
:10572800F6EFD4C7D443758FD8C3D44793E6061091
:10573800D4C7D843518FD8C3828097D7FF1F938788
:10574800672198438967938707F47CD397D7FF1F0E
:10575800938787259C4383A60709139656006358A9
:10576800060083A60709139666006344060074536F
:10577800FDF28280397122DC17D4FF1F1304C42282
:105788001C4006DE26DA4AD84ED652D456D25AD013
:105798005ECE62CC66CA6AC86EC6D843FD76FD1670
:1057A8001377F7EFD8C39857758F98D7D857B70698
:1057B80002003D9BD8D79847558F98C7D8431367A1
:1057C8000701D8C317D7FF1F1307871D144337577F
:1057D800341213078767E38EE64C985F370908FF92
:1057E8007D19B706180033772701558F98DFD843FE
:1057F80081749384F40F799BD8C3985FB1669386BC
:1058080006F0658F558F98DFD84313671700D8C304
:105818002D371C4003A707091377F7032382E1827A
:1058280003A7470929831377F707A382E182985FC3
:10583800B706080033772701558F98DFD843B96634
:1058480093860670799BD8C3985F658F558F98DFCC
:10585800D84313671700D8C3CD351C4003A70709E1
:105868001377F70397D6FF1FA382E61403A7470908
:1058780029831377F70797D6FF1F2386E612985FC9
:10588800B706100033772701558F98DFD843B566E0
:1058980093860630799BD8C3985F658F558F98DFBC
:1058A800D84313671700D8C3493D18408327070911
:1058B80093F7F70397D6FF1F238AF60E8327470926
:1058C800A98393F7F70717D7FF1F2309F70C1C4085
:1058D80017DCFF1F034C8C0D83C6418203A7070A00
:1058E800B386864113F6F600419B518F23A0E70A41
:1058F800130760023387E6021306700283A5070ABE
:105908007D7E130EFE0F93F5F5F0130540024573E7
:105918007D13130430023347C702B708F1FFFD189F
:1059280013082002930E10027D4FF94FF542F14300
:105938006D4DD14B454BBD443949314AAD4AB54906
:105948003D8B12074D8F9305500223A0E70A33873A
:10595800B60283A5070AB3F5C5013347C7023D8BD5
:1059680022074D8F23A0E70A3387A60283A5070ADB
:10597800370500F17D15B3F565003347C7023D8B48
:1059880032074D8F23A0E70A3387860283A5070ACB
:105998006144B3F515013347C7023D8B42074D8F6C
:1059A80023A0E70A3387060383A5070A370810FFF1
:1059B8007D18B3F505013347C7023D8B52074D8F5C
:1059C80023A0E70A3387D60383A5070AB70E00107A
:1059D800FD1EE98D3347C7023D8B62074D8F23A01B
:1059E800E70A139756003347C7029315C70103A761
:1059F800070A3377D7014D8F23A0E70A3387E603D9
:105A08005D4F3347C7029375F70003A7470A419BC9
:105A18004D8F23A2E70A3387F60383A5470AD94F98
:105A280093F5F5F03347C7023D8B12074D8F23A23C
:105A3800E70A3387560283A5470AD542B3F5C5015D
:105A48003347C7023D8B22074D8F23A2E70A3387CE
:105A5800760283A5470ACD43B3F565003347C702ED
:105A68003D8B32074D8F23A2E70A3387A60383A510
:105A7800470A494DB3F515013347C7023D8B420725
:105A88004D8F23A2E70A69473387E60283A5470AB1
:105A9800B3F505013347C7023D8B52074D8FE545E6
:105AA80023A2E70A3387B60283A5470AE98D33475D
:105AB800C7023D8B62074D8F23A2E70A3387860210
:105AC8000D443347C7029315C70103A7470A337725
:105AD800D7014D8F23A2E70A3387E603254F3347C3
:105AE800C7029375F70003A7870A419B4D8F23A42C
:105AF800E70A3387F60383A5870A9D4F93F5F5F0E8
:105B08003347C7023D8B12074D8F23A4E70A33871B
:105B1800560283A5870A9942B3F5C5013347C702E0
:105B28003D8B22074D8F23A4E70A3387760383A58D
:105B3800870AB3F565003347C7023D8B32074D8F9F
:105B480023A4E70A3387760283A5870A9543B3F52A
:105B580015013347C7023D8B42074D8F23A4E70A3F
:105B68003387A60383A5870A294DB3F50501334773
:105B7800C7023D8B52074D8F23A4E70A338766037C
:105B880083A5870AE98D3347C7023D8B62074D8F8E
:105B980093954600B3C5C50223A4E70A03A7870A5D
:105BA8003377D701F2054D8FB385960223A4E70A10
:105BB80003A7C70A419BB3C5C502BD894D8F23A65C
:105BC800E70A3387260383A5C70A93F5F5F0334719
:105BD800C7023D8B12074D8FB3C5860223A6E70A7D
:105BE80003A7C70A3377C701BD89A2054D8F23A62E
:105BF800E70A3387460383A5C70AB3F56500334729
:105C0800C7023D8B32074D8F23A6E70A3387560319
:105C180083A5C70AB3F515013347C7023D8B420771
:105C28004D8F23A6E70A3387A60383A5C70AB3F5D2
:105C380005013347C7023D8B52074D8F23A6E70A5C
:105C48003387E60383A5C70AE98D3347C7023D8B2F
:105C580062074D8F93953600B3C5C50223A6E70AA0
:105C680003A7C70A3377D701F2054D8FB385F6032B
:105C780023A6E70A03A7070B419BB3C5C502BD8945
:105C88004D8F23A8E70A3387560283A5070B93F5A0
:105C9800F5F03347C7023D8B12074D8F23A8E70A5B
:105CA8003387760283A5070BB3F5C5013347C702CF
:105CB8003D8B22074D8F23A8E70A13972600334709
:105CC800C70283A5070BB3F565003D8B32074D8FDF
:105CD800B3C5360323A8E70A03A7070B33771701D1
:105CE800BD89C2054D8F23A8E70A139716003347CD
:105CF800C70283A5070BB3F505013D8B52074D8FEE
:105D0800B3C5C60223A8E70A03A7070B698FBD8995
:105D1800E2054D8F23A8E70A03A7070B9305800226
:105D28003377D70123A8E70A17D7FF1F034717C8F8
:105D38003307EC40B34DB70283AC470B93FC0CFF21
:105D4800B34B770393FDFD00B3ECBC0123AA970B7B
:105D580083AC470BCD4D93FCFCF093FBFB00920BFF
:105D6800B3EB7C0123AA770BB30B870283AC470BF9
:105D7800B3FCCC01B3CBBB0293FBFB00A20BB3EB90
:105D88007C01B34CA70323AA770B83AB470BB3FB68
:105D98006B0093FCFC00B20CB3EB9B0123AA770BBE
:105DA800A14BB34B770383AC470BB3FC1C0193FBAC
:105DB800FB00C20BB3EB7C0123AA770BB30B570292
:105DC80083AC470BB3FC0C01B3CBBB0293FBFB00CA
:105DD800D20BB3EB7C0123AA770BB30BF70383AC8D
:105DE800470BB3FCAC00B3CBBB0293FBFB00E20B4D
:105DF800B3EB7C01B34C770223AA770B83AB470B39
:105E0800B3FBDB01F20CB3EB9B01B30CE70323AA52
