:040000006F00406EDF
:100004000000000000000000D00300204C0300208A
:10001400A9BDF9F3900B00000000000000000000EF
:10002400900B0000900B0000000000000000000096
:10003400900B000000000000900B00000000000086
:1000440000000000900B000000000000900B000076
:10005400900B0000900B0000900B000000000000CB
:10006400900B00000000000000000000900B000056
:10007400900B0000900B0000900B000090000020FB
:1000840000000000900B000000000000900B000036
:10009400375700405C37858BA1C7411122C685477D
:1000A4005CB7170400001304E4630E20854605467C
:1000B40085811D45971000E0E780E0890E201D45ED
:1000C400971000E0E780A087B7E700E037070080DB
:1000D40023A0E7180F1000003244410173002030C0
:1000E400B7E700E03707008023A0E7180F100000EF
:1000F400730020309307000C01116318F504930773
:100104008008F3B7078093F787083EC00F100000FC
:10011400B7170040130770052380E704130780FA1C
:100124002380E7040F100000F83713670704F8B7BB
:1001340098271367070C98A7238007048247F3A71F
:1001440007800F10000005618280B7170040B827B0
:10015400118B69EB83C6E7041307800893F6F60F47
:10016400733607801376860832C20F100000130816
:10017400700523800705930580FA2380B7040F10C8
:10018400000003C6E704136636002387C704B027BC
:1001940013664600B0A72380070412467326068020
:1001A4000F10000090271376F60F7337078013772C
:1001B40087083AC40F100000238007052380B70482
:1001C4000F10000098271367070C98A723800704D3
:1001D400A247F3A707800F100000A5470100FD17F1
:1001E40093F7F70FE5FF93078008F3B7078093F7BA
:1001F40087083EC60F100000B717004013077005AC
:100204002380E704130780FA2380E7040F1000001B
:1002140090A72387D70423800704B247F3A7078056
:100224000F1000009377050C130700046391E70A8D
:1002340093078008F3B7078093F787083EC80F1029
:100244000000B7170040130770052380E704130765
:1002540080FA2380E7040F100000B827854613674F
:100264000701B8A737270040A303D78083465780E8
:1002740093E60601A302D78023800704C247F3A7AD
:1002840007800F10000093078008F3B7078093F7E7
:1002940087083ECE0F100000B71700401307700503
:1002A4002380E704130780FA2380E7040F1000007B
:1002B400F8371375F50F13670704F8B788A7B8471D
:1002C4001367871FB8C723800704F2478DBD937750
:1002D400F5019DCF93078008F3B7078093F787084C
:1002E4003ECA0F100000B7170040130770052380A3
:1002F400E704130780FA2380E7040F100000372770
:1003040000408946A303D78023800704D24785BFD2
:1003140093078008F3B7078093F787083ECC0F1044
:100324000000B7170040130770052380E704130784
:1003340080FA2380E7040F100000372700409D4611
:10034400A303D78023800704E24715BF41118146E8
:10035400014681451145970000E0E780206E1307B0
:100364008008F337078093F787083EC40F10000016
:10037400B7170040130670052380C704930680FA5C
:100384002380D7040F100000FD55CEB72380070447
:10039400A245F3A505800F1000007337078013777B
:1003A40087083AC60F1000002380C7042380D704AF
:1003B4000F10000003C76704136717002383E704C3
:1003C40023800704B247F3A707800F10000001A0A1
:1003D40001A0230304801547A2872303E4800100BE
:1003E40001002302A48003C7678062076187E34C8E
:1003F40007FE2382A780228783476780E207E1877D
:10040400E3CC07FE82802303048015472303E480A2
:10041400010001002302A480828083076480E3CE6C
:1004240007FE23030480828083076480E3CE07FEF3
:1004340003454480828083076480E3CE07FE230261
:10044400A4808280411126C44AC24EC006C61377D6
:10045400F50BAD47AA892E8995446306F700194523
:100464005D37653F8D444E85793FFD59FD14639892
:100474003401B240A2441249824941018280135599
:1004840009011375F50F453F2209CDB7011126CC9B
:1004940006CEB704080051371545B53771376937AB
:1004A4002AC6A53F32459377150089EB13651500DD
:1004B4001375F50FF240E24405618280FD14E9FCF6
:1004C4000145CDBF411106C6B7170040130770059B
:1004D4002380E704130780FA2380E70403C7470453
:1004E4001305F00F1367070E2382E70491472303D4
:1004F400F480C535B24041010DB7011126CC4ACA7A
:100504004EC852C606CE2A89AE89B284554A5D3F8A
:1005140091E82137F24026855249E244C249324AE1
:1005240005618280CA850945313F910903A7C9FF46
:1005340091472320E48003076480E34E07FE2303EE
:100544004481FD17EDFBFD14110981C49377F90F64
:10055400E9FF2D3F55FDFD5475BF011126CC4ACA54
:100564004EC852C656C45AC206CE2A89328A8D490A
:10057400913FC164C16A056B9387F4FFB3F7270108
:1005840099E363719A02FD199180E39709FE71352D
:100594000145F240E2445249C249324AA24A124B4E
:1005A400056182801305800D6388540113050002E0
:1005B4006384640113051008CA856935C13D09C502
:1005C4002699330A9A4075BF7D55E1B7011106CECD
:1005D40026CC4ACAB2844EC82AC62E89E53532458D
:1005E400FD14FD59AA852D45B13D639A3401353575
:1005F400F24026855249E244C249056182802D3584
:1006040093F7340091EB83260480032709009307B2
:100614004900E39EE6FC3E89FD14C1BF011106CEEC
:100624002AC64D353245C533F2400561FDB301118B
:1006340006CE26CC4ACA4EC852C6AA8956C42E89AA
:100644005135CE852D45FD3B81448D4A214AE93BF8
:1006540063965401832704802320F9008504E398DA
:1006640044FF8327048013972901635C0700231246
:10067400F900F240E2445249C249324AA24A0561B1
:1006840069BB2322F900F5B7411106C626C44AC244
:100694004EC0AE89053D81451305B0046533BD44A4
:1006A4007D59593393F77400CE9703C70700FD149F
:1006B400398D2380A700E39624FFB240A244124957
:1006C4008249410199BB411106C6ED3B1305600601
:1006D4001D3BA133130590093D33B240410135BBA5
:1006E400970100209381C17F1731002013014191AC
:1006F4001305400097050020938585901706002078
:10070400130606FE63FAC5008322050023A05500E4
:1007140011059105E3EAC5FE170500001305854799
:10072400970500209385C5FB1386818063FAC50075
:100734008322050023A0550011059105E3EAC5FEB7
:1007440013858180938581806377B500232005001C
:100754001105E36DB5FE93025002739002BC8D4205
:10076400739042808542739012BC93028008739008
:100774000230970200209382A28893E232007390A1
:100784005230970200009382020173901234730076
:100794002030B71600409E2E717741117D1706C692
:1007A400F98F9EAE19458528130560049700002033
:1007B400E78040948D451305000875208D4511454B
:1007C4005D208D45214545208D45414569288D4550
:1007D400130500104928B757004011479AAF114537
:1007E400212285460546C1450545752A85460546A7
:1007F400C14509454D2A85460546C1451145652231
:1008040085460546C1452145792A85460546C145A3
:100814004145512A01A0371700408347E7041205D8
:100824004111BD8BC98F93F7F70F93068008F3B678
:10083400068093F6860836C60F10000093067005EE
:100844002300D704930680FA2300D7040F10000076
:100854002307F70423000704B247F3A707800F1008
:10086400000041018280914763ECB70497070000C0
:100874009387472FB3C5F52098413E97B71700409B
:100884009387470B0287944337170040B3F6A6407B
:1008940094C39306070B9C42B3F7A74019A894434B
:1008A40037170040B3F6A64094C39306070B9C4247
:1008B400C98F9CC29307070A98433377A74098C30C
:1008C4008280944337170040C98ED9B79843337751
:1008D400A74098C3B71700409387070A9843498FE6
:1008E400F9BF9843498FF5B7954763E1A702170706
:1008F4000000130767283345E5201C41BA97375792
:10090400004082873C2393F7870F3CA382803C23DB
:1009140093E71700DDBF3C2393E72700FDB73C2393
:1009240093E73700DDB73C2393E74700F9BF3C2347
:1009340093E75700D9BF9377750081C7B757004035
:10094400CEAB618901C5B7570040EEAB828081EA26
:10095400B757004098233375A74088A38280375740
:1009640000401C3305C6C98F1CB3B757004091071C
:1009740001471548894813061700B356E54899CA34
:1009840063E9E8008EA332878907F5B7B3F7A74078
:10099400E1BFEEA33287E31906FF375700401C235B
:1009A400C98F1CA382803757004091E61C23B3F7FC
:1009B400A7401CA382801C331DC2C98F1CB391475E
:1009C4006302F50663E0A7028547630DF5028947D4
:1009D400630EF502375700401C23C98FD9BFB3F704
:1009E400A740E9BFA1476303F504C147E314F5FE3B
:1009F400B757004093F5F50F943B8CBB1387170151
:100A0400BC2B31A8B7570040CEA3E9B7B757004075
:100A140093F5F50FD433CCB313875700FC23A3000D
:100A240007004DBFB7570040EEA36DB7B75700405E
:100A34008EAB4DB701112A8706CE2E8526CCB28502
:100A44004ACA368622C637240040B7E700E0FD567E
:100A540003A90700C44323A0D71823A2D7189307D8
:100A6400F7FF93F7F70F0948636AF808B7170040D0
:100A740083C75704B7C80300F95763741505B30651
:100A8400C50063E0D80463140705098297000020B9
:100A9400E780A0A6AA8737170040930670052300B5
:100AA400D704930680FA2300D70483464704C18AF7
:100AB4002302D70437E700E02320271123229710CD
:100AC4003244F240E24452493E85056182808547C2
:100AD400631FF7008567FD173E96E98F3E96FD7705
:100AE4007D8E7D8D97000020E78020A765B7970055
:100AF4000020E780A0AD9307150071BFB547631AC6
:100B0400F7001305900B97000020E78020B1814780
:100B140059B7B1476315F7001305B00AEDB7994704
:100B24006317F70097000020E78060B0CDB79D47BA
:100B3400631BF70023A0050023A2050097000020F3
:100B4400E78080B4E9B791476317F7009700002066
:100B5400E78060B76DBF81471DDFF1572DBF0000EF
:100B640026FDFFFF3EFDFFFF62FDFFFF6CFDFFFF63
:100B740082FDFFFF90FDFFFF9AFDFFFFA2FDFFFF37
:0C0B8400AAFDFFFFB2FDFFFFBAFDFFFF5E
:020B900001A0C2
:080B94004FC300000000000047
:00000001FF
