:040000006F00D07B42
:100004009305000273A04580824573901534924095
:100014002242B2424243D2436244F24402559255D0
:100024002256B2564257D2576258F2580649964958
:10003400264AB64A464BD64B664CF64C065D965D50
:10004400265EB65E465FD65F0961730020303717BF
:1000540000407E2B4111B3C7070893F7F7EFB3C7EE
:1000640007087EAB93078008F3B7078093F78708E8
:100074003EC60F100000930770052300F704930792
:1000840080FA2300F7040F1000009307100E7CC3BE
:10009400B7270040A383078003C77780136707034C
:1000A400A383E7801387C78008C323800780414761
:1000B4002380E78037270040930707829C43E3CDE2
:1000C40007FEB7270040B7060800138707821843C6
:1000D400758F65DF03C72780136707012381E780D6
:1000E40037270040930707829C43E3CD07FE372759
:1000F4000040B7060800930707829C43F58FE5DFAD
:1001040023010780B7170040FA2B13670710FAABD7
:1001140023800704B247F3A707800F100000B70736
:10012400040023A0072001454101828037170040C5
:100134007E2B4111B3C7070893F7F7EFB3C707083E
:100144007EAB93078008F3B7078093F787083EC612
:100154000F100000930770052300F704930780FA3B
:100164002300F7040F1000009307100E7CC3B72779
:100174000040A383078003C7778013670703A38323
:10018400E7801387C78008C309472380E78003C734
:100194000780136707012380E78037270040930710
:1001A40007829C43E3CD07FEB7270040B70608004B
:1001B400138707821843758F65DF03C7278013678A
:1001C40017012381E78037270040930707829C4368
:1001D400E3CD07FE37270040B706080093070782E0
:1001E4009C43F58FE5DF23010780B7170040FA2B06
:1001F40013670710FAAB23800704B247F3A70780FD
:100204000F100000B707040023A007200145410197
:100214008280371700407E2B4111B3C7070893F73C
:10022400F7EFB3C707087EAB93078008F3B70780DF
:1002340093F787083EC60F1000009307700523004C
:10024400F704930780FA2300F7040F1000009307C4
:10025400100E7CC3B7270040A383078003C77780B1
:1002640013670703A383E7801387C78008C3114775
:100274002380E78003C70780136707012380E78093
:1002840037270040930707829C43E3CD07FEB72737
:100294000040B7060800138707821843758F65DF8F
:1002A40003C72780136727012381E780372700408E
:1002B400930707829C43E3CD07FE37270040B70628
:1002C4000800930707829C43F58FE5DF230107802D
:1002D400B7170040FA2B13670710FAAB2380070403
:1002E400B247F3A707800F100000B707040023A04C
:1002F4000720014541018280371700407E2B011100
:1003040022CEB3C7070893F7F7EFB3C707087EAB4E
:1003140093078008F3B7078093F787083EC60F104A
:100324000000930770052300F704930780FA230065
:10033400F7040F1000009307100E7CC3B72700408A
:10034400A383078003C777800148054F136707031A
:10035400A383E780B7080800930F000293020010FC
:1003640015E6B7170040FA2B13670710FAAB238082
:100374000704B247F3A707800F1000007244B707C1
:10038400040023A00720014505618280A380E78142
:10039400138707821843E34D07FE13870782184328
:1003A400337717017DDB03C77780B303A800338459
:1003B400050113674700A383E780A380F7811387B0
:1003C400C780232077000143B35E560A330E6400CE
:1003D40003471E0083460E002207558F83462E00D6
:1003E400C206D98E03473E006207558F9386078263
:1003F4009442E3CD06FE938607829442B3F6160137
:10040400FDDA9386078198C21103E361D3FD138754
:1004140007821843E34D07FE138707821843337797
:1004240017017DDB1387C78023207700A381E78131
:100434003306D6417698138707821843E34D07FEA7
:10044400138707821843337717017DDB11BFB71772
:100454000040FA2B4111334707081377F7EF33476E
:100464000708FAAB130780087337078013778708E8
:100474003AC60F100000130770052380E704130722
:1004840080FA2380E7040F1000001307000C6313A5
:10049400E5049A271367070C9AA7B717004003C708
:1004A400E7021367C7002387E70203C7E70413774C
:1004B400C70F136717002387E704FA2B1367071086
:1004C400FAAB23800704B247F3A707800F1000009C
:1004D40041018280B82793750520B9C9118B1DEBA2
:1004E40003C7E704B4271377F70F93E64600B4A7CE
:1004F40096279227B3C606081366060C92A7A5474B
:100504000100FD1793F7F70FE5FFB717004096A713
:100514002387E704371700403C2793E707013CA7EC
:100524009377F50191EBB72700401307500421A8F6
:1005340013672700B8A7F9BF93778501EDF7B727AD
:100544000040130790042382E78093070028631C6C
:10055400F502B7170040130720209AA701000100F5
:1005640001000100371700409316B0281E27F58FAD
:10057400F5DF930700281EA7371700403C2793F7A1
:10058400D70F3CA719BF93070008631AF502B717E2
:10059400004009479AA70100010001000100371734
:1005A40000409316B0281E27F58FF5DF9307000847
:1005B4001EA7371700403C2793F7B70FD9B7B717D3
:1005C4000040334505088AA7EDD57DB7197106C2E9
:1005D40012C416C61AC81ECA22CC26CE2AD02ED2BF
:1005E40032D436D63AD83EDA42DC46DECAC0CEC26F
:1005F400D2C4D6C6DAC8DECAE2CCE6CEEAD0EED29F
:10060400F2D4F6D6FAD8FEDA9385C18D8841E70094
:10061400050092402242B2424243D2436244F24431
:10062400025592552256B2564257D2576258F25842
:1006340006499649264AB64A464BD64B664CF64C72
:10064400065D965D265EB65E465FD65F0961730001
:1006540020304111B7170040985F3AC6945F324783
:10066400E39CE6FE324541018280B7170040130740
:1006740000032388E702854723A2F18E730020300C
:10068400411106C6A52CFDBF7971974700009387D9
:10069400A78F22D4804306D626D24AD04ECE52CC3F
:1006A40056CA5AC85EC679C037C9C901014B9749B1
:1006B40000009389E98C1309F937174A0000130ADB
:1006C400EA8C974A0000938A6A87974400009384CF
:1006D400A4908357240085E75C44631F0B001747ED
:1006E40000002323F78A832BC400228597D002E0DD
:1006F400E78060AC5E84A9A82326FB00EDB783A73E
:10070400090082971C443307F5406375F500D8400F
:100714001D8F2A976361E9089747000023A4078285
:100724008355240003450400973000E0E780201E31
:100734005C405844B9C70C44D040AE97BE8663E4CD
:10074400B70063E4C700B386C74014C4228B3A845D
:1007540049F0973700009387677E9C470947637386
:10076400F708F91717370000232EF77CB2502254EC
:1007740092540259F249624AD24A424BB24B456101
:10078400828063170B009737000023AFE77EA1BF79
:100794002326EB0089BF03274A021DCF63E1A70488
:1007A4003385A7408347040085E3173700000347D8
:1007B400577F5917B307A7003E85D44063E4E70089
:1007C40063E4D7003385D74083A78A006376F500B6
:1007D4009737000023A8A776228B404495BFD840C2
:1007E400BA977DBF9737000023AE077441B7411114
:1007F40022C426C2173400001304047E9734000078
:100804009384C47394445840973700009387477780
:1008140006C69C436397E60882975440B74736FE62
:10082400938707C8B6973387A7003A856364F700B0
:100834006364D7003305D7409744000093844493FE
:10084400DC5081CF974700009387479A944337073A
:10085400CDFF7D179C46F98F9CC611E14840973720
:1008640000009387A772DC53829719E9DC508DC787
:10087400979001E0E780C0D9978001E0E780A0125B
:10088400DC5099CB97470000938747969843B70667
:1008940033001C47D58F1CC7B24022449244410107
:1008A4008280829794445840B387A6003E8563E4CF
:1008B400D700E3E3E7F83385E740BDBF973700008F
:1008C400938707719C4385C3411106C68297973766
:1008D400000083C7C76A89E79737000023AA076E19
:1008E400B240410182809737000083C7476991E78E
:1008F4009737000023AE076C82808280411122C4A6
:10090400173400001304C4651C4006C626C24AC03E
:1009140091C782979737000023A407649747000084
:1009240083C75785858B174900001309698489CFCC
:10093400834779001947631EF70E97470000A38B7E
:1009440007825D215C4482971C4491C3829797344B
:1009540000009384246398409737000083C7075EA0
:10096400173600000346965D814593961700BA96A4
:1009740083D60600F9CA89C5973600002380F65C41
:10098400173500000345855B6368C50C9737000085
:100994002386075A1C40639A0712973700009387EF
:1009A400275E9C4363830712973700009387C762CF
:1009B400DC43173700002327F758F9319737000035
:1009C40083C7977B91CF8347790093F7F70F89EB20
:1009D40097370000A382077A978001E0E7804050B0
:1009E400973700009387875ADC53E5C39737000095
:1009F4009387C7549C47F1CB8347790015476366B7
:100A0400F70C9737000083C7277C918BDDEF97376E
:100A1400000083C7C756D5EB90409736000083C6C5
:100A2400F65163CAD70A2244B240924402494101B2
:100A34007DBB834779001D47E318F7F09737000023
:100A4400A38A077255261C48FDBD850793F7F70F47
:100A54008545E3ECC7F00DB7931715003E97835512
:100A64000700231007009737000023990750973792
:100A740000009387A74E9C4313172500BA979C4305
:100A840082979737000083D7674F944093C7F7FF47
:100A9400173700000347874A7D8D93171700BE96CA
:100AA40083D706005D8D2390A60011C705079737ED
:100AB40000002385E7481737000003472748973786
:100AC400000083C7B747E373F7ECB2402244924473
:100AD4000249410182801397170032970357070098
:100AE4006DF785073DBF0000EFF05FDD7300000088
:100AF40000000000973200009382624803830200E2
:100B040023800200630F0300F32510342EC09705E1
:100B140000009385A5FD73901534EF0060467300C3
:100B2400203086DCEF00C045E65082800000173795
:100B34000000130767631443411122C4BC424AC036
:100B440006C6998326C2858B3A8417390000130997
:100B54006961D1CB93070006BCC217370000034775
:100B64008761930700089734000093846460631BD3
:100B7400F700832709009C4393F707041737000005
:100B8400230BF75E83C7040093F707049DC39737CD
:100B940000009387E73E9C4382979737000023A782
:100BA400A75E83C7040093F7F70B173700002301F0
:100BB400F75C83C7440093F7070495E78547173725
:100BC4000000A309F75A973700009387E75C9C431A
:100BD4003707020098C7130700FC97360000238BE1
:100BE400E6589848F8D318403C439183858B8DC3CD
:100BF4003C4393E707013CC3973700009387C759E9
:100C04009C4323A207068547173700002304F756A1
:100C140083270900D8430583058B19C7D843759BDF
:100C2400D8C3D843799BD8C3B240224492440249E2
:100C340041018280ED3D730020309317D50063D3CA
:100C4400070297370000938727559C437D57B8D7F1
:100C5400973700009387872EDC4B850717370000F2
:100C64002328F72E937785009DCB9737000083C701
:100C7400475093E7170017370000230CF74E9307EC
:100C840000F8173700002307F74E973700009387C3
:100C9400A74D98435C5BF19B93E717005CDB93776C
:100CA40015008DC79737000083C7974C93E717004B
:100CB40017370000A30EF74A973700009387C74AF7
:100CC40098435C5BF19B93E717005CDB93776500CB
:100CD400B1C7973700009387274998439377450016
:100CE400973600009386C648E1C31C43A1838D8BCD
:100CF40089EB973700009387274A9C4313068007A4
:100D0400D0CF83C7060093E71700973600002381EE
:100D1400F6465C5BF19B93E717005CDB9317F500E9
:100D240063D40702173700000347075E418B9737E8
:100D340000009387275651C383C7470793E70702E9
:100D4400173700002302F75C9317E50063D7070207
:100D54009737000083C70742E207E18763D707009C
:100D64008547173700002307F7409737000093871C
:100D7400A7429C433707020098C79317C50063D462
:100D840007021737000003473758058B97370000D1
:100D94009387475029C383C7570793E7270017371B
:100DA4000000A303F756828083C7360093E7170039
:100DB40097360000A38FF63AA9BF03C747078946B1
:100DC4003D8B6308D70083C747070D47BD8BE39D61
:100DD400E7F69147B5B703C75707118B69D783C7A0
:100DE400570793E7870065BF973700009387C73A93
:100DF4009443973700009387A73703C70700058BF1
:100E040011CB973700002387073697370000A38359
:100E14000736828003C71700058B65F7F85271FF08
:100E240083C75700DDB7411126C206C622C49734D2
:100E34000000938464363DED9440AE87F8527DFF04
:100E440037F400E03E859737000023840732832778
:100E540004D1B285ED9B2328F4D0832704D193E7F2
:100E640087022328F4D073005010978001E0E780B4
:100E7400E0E9973700009387272F9C43B7060001CA
:100E84009843558F98C3D85B719BD8DB9737000084
:100E9400A382072E97370000A38C072C9C40094798
:100EA40098C3832704D193E787002328F4D07300E1
:100EB40050100DA08D476315F504973700009387F4
:100EC400A72A9C43B70600019843558F98C3D85B63
:100ED400719BD8DB944017370000130767298347B9
:100EE4002700858B89EB83473700858BD9C79737D4
:100EF400000023810728B2402244924441018280A9
:100F04008547E319F5FCB7F700E003A707D16D9B0C
:100F140023A8E7D003A707D11367870223A8E7D044
:100F24007300501098408177FD175447F58F5CC7C4
:100F34000F1000009840B70702001CC7930700F881
:100F4400173600002308F622973700009387C7213D
:100F54009C439C43A1838D8B91EF930760197CD3B1
:100F640054C737F700E0832707D193E78700232886
:100F7400F7D035BF9307E01BDDB7FC52ADF3A5BF37
:100F840097370000938747219C438847D847798D3A
:100F940009C988C79387419803A307006303030023
:100FA40002838280973700009387071F98433C5B36
:080FB400FDFF01000100828035
:100FBC00971100209381C1C6177100201301C10342
:100FCC001305400097F5FF1F9385050317060020B6
:100FDC00130606FE63FAC5008322050023A0550004
:100FEC0011059105E3EAC5FE17C502001305852C12
:100FFC00970500209385C5FB1386418B63FAC500CA
:10100C008322050023A0550011059105E3EAC5FED6
:10101C001385818B973500209385853A6377B500CE
:10102C00232005001105E36DB5FE93025002739069
:10103C0002BC8D42739042808542739012BC930225
:10104C00800873900230970200009382E23A93E298
:10105C00320073905230971200009382E20B73901F
:10106C00123473002030000000000000000000006B
:10107C000000000000000000000000000000000064
:10108C000000000000000000000000000000000054
:10109C000000000000000000000000000000000044
:1010AC000000000000000000000000000000000034
:1013FC000000000000000000000000009C14000031
:10140C0092180000A9BDF9F30000002000000000B4
:10141C0000000000000000209C14000000000000F0
:10142C00000000009C140000000000009C14000050
:10143C00000000009C1400009C1400009C14000090
:10144C009C1400009C140000CC0500209C1400008F
:10145C00000000009C1400009C1400009C14000070
:10146C009C1400006A0600209C1400009C140000D0
:10147C009C1400009C1400009C1400009C140000A0
:10148C009C1400009C1400009C1400009C14000090
:10149C0001A02A8309CA83830500230073007D16EB
:1014AC00050385056DFA82802A8311C62300B300DB
:1014BC007D16050365FE8280B7170040B85F137771
:1014CC00F7F7B8DF130700F8A38DE7043D47238C2B
:1014DC00E70413075003A38CE704828037170040FE
:1014EC008347E7041205411193F7F708C98F93F767
:1014FC00F70F93068008F3B6068093F6860836C677
:10150C000F100000930670052300D704930680FA91
:10151C002300D7040F1000002307F704230007044F
:10152C00B247F3A707800F100000410182804111E0
:10153C002A830148930E407E130F0019930F400627
:10154C00B348030863EF1E011303001933736502DC
:10155C008542FD4363F6B2088D4F214F930E400632
:10156C00A1A07D13336EE3039308E016630E0E0007
:10157C00336EF3039308D01663080E009378330090
:10158C0093B818009388D816C29833C808084DBF72
:10159C0093F81500138EF5FF637CBF02F908C2980F
:1015AC0033C80808B3450E08E394F5FF8545630B73
:1015BC000300B378D5038145638608009375350025
:1015CC0093B51500F105C29533C805088945E9BFE7
:1015DC00B3881341C29833C80808B3450E089DBFA1
:1015EC007D16329879463307C70213D61700BE070B
:1015FC003348080832976146B3F6C602130680706A
:10160C00B386C6023697A166F58F4207D98FB716F7
:10161C00004003C7F60213770708D883908303C7EB
:10162C00F60213770708E316E6FE9883B716004018
:10163C004DCF1307800873370780137787083AC498
:10164C000F10000037170040930670052300D704D5
:10165C00930680FA2300D7040F100000232A0703F7
:10166C008346170393E60608A308D7022300070452
:10167C002247732707800F100000116637170040B0
:10168C007D16545B4C5FAD8EF18EE5FE93068008A3
:10169C00F3B6068093F6860836C60F100000930644
:1016AC0070052300D704930680FA2300D7040F108B
:1016BC0000005CDB8347170393E70704A308F702DA
:1016CC0023000704B247F3A707800F100000410165
:1016DC00828003C7F60213770708D883908303C769
:1016EC00F60213770708E316E6FE98837DD391B7CD
:1016FC00D1C901114AC8416922CC26CA4EC652C46E
:10170C0006CE2A84B304B5009309F07F130AF9FFBF
:10171C0063649400014539A8B387844063E62703CA
:10172C00B377440185E7228597F0FF1FE780E0AD92
:10173C0011C90945F2406244D2444249B249224A95
:10174C00056182804A94E9B763FFF9009377F47FCF
:10175C0099EB228597F0FF1FE780C09C79F99317CE
:10176C00B0283E9475B79377F40F91EB228597F0E0
:10177C00FF1FE780408D55FD1304041051BF1374F7
:10178C0004F0EDB70545828081476394C70001459D
:10179C0082803387A70014233387F500850714A3B1
:1017AC00EDB7914763ECB70497B70200938747AB4B
:1017BC00B3C5F52098413E97B71700409387470B68
:1017CC000287944337170040B3F6A64094C39306A0
:1017DC00070B9C42B3F7A74019A894433717004056
:1017EC00B3F6A64094C39306070B9C42C98F9CC2C8
:1017FC009307070A98433377A74098C38280944392
:10180C0037170040C98ED9B798433377A74098C390
:10181C00B71700409387070A9843498FF9BF98433D
:10182C00498FF5B7B71600409A26B34707081377C8
:10183C0007041DE3FD8B91EB9E2693F707209DC7B4
:10184C003755E8011305058082803755E8011305EB
:10185C0005803345F502828013F7070C93060004CC
:10186C00631BD700FD8B37459C1CD5B73725F4007F
:10187C001305054082802165130505D08280B7F7DA
:10188C0000E088478280411113078008F3370780F6
:10189C0093F787083EC40F100000B71700401306DB
:1018AC0070052380C704930680FA2380D7040F1099
:1018BC000000FD55CEB723800704A245F3A5058093
:1018CC000F10000073370780137787083AC60F1084
:1018DC0000002380C7042380D7040F10000003C727
:1018EC006704136717002383E70423800704B247B8
:1018FC00F3A707800F10000001A03285814737370E
:10190C000040A14663C3A70082800346B740E30EA4
:10191C00D6FE3386F500102285072304C740DDB7B9
:10192C00970600209386C6AFAA87884217370020F7
:10193C00130707A9AA9763E9E7000A87130707FCAF
:10194C006364F7009CC282807D558280411122C461
:10195C0006C62A84C13D2947B307E502B2408D83F0
:10196C00B3D7870222449507B3D7E7023737004035
:10197C00B3C707082316F7404101828071654111F6
:10198C001305052006C6D937B7370040130770F882
:10199C002381E7400D47A381E74013070004A38090
:1019AC00E74005472387E740B240410182803285FA
:1019BC00D041411106C60C32034806000D66A20543
:1019CC00B3E505019308A6A21398556063C80803F4
:1019DC00130626A26358060375761306C65DB295E8
:1019EC001946B3C505086363B60217B8020013089D
:1019FC006888B3C50521904142960286130606A558
:101A0C00630BC80E23900600A94505A01D469D45F5
:101A1C00636DE6002146198E3356F60A9385818B49
:101A2C0092A2BA95EF10103D8145B2402E8541012E
:101A3C0082802D469D45E36AE6FE3146198E33566B
:101A4C00F60A97B502009385A58B92A2D9BF3146B1
:101A5C009D45E36CE6FC3546198E3356F60A97B570
:101A6C0002009385E58892A26DBF41469D45E36EC9
:101A7C00E6FA4546198E3356F60A97B50200938559
:101A8C00E58592A279BF41469D45E360E6FA45465D
:101A9C00198E3356F60A97B502009385E58292A209
:101AAC0049B741469D45E362E6F84546198E3356E3
:101ABC00F60A97A502009385E57F92A29DB7414651
:101ACC009D45E364E6F64546198E3356F60A97A50E
:101ADC0002009385E57C92A2A9B735469D45E36645
:101AEC00E6F43946198E3356F60A97A5020093850B
:101AFC00257A92A23DB719469D45E368E6F2998D89
:101B0C0033D6F50A970500209385C59192A211BF93
:101B1C0097F6FF1F9386C6494146CD4517F5FF1F23
:101B2C001305C5496FA020192D4835E33285902146
:101B3C000947631BE604D841411106C6102318332C
:101B4C002207518F4166130846FE63030703636C3B
:101B5C00E8007D07054633470708637BE6002390C2
:101B6C000600294831A81516E31BC7FE154711A01E
:101B7C000547CC4533D6E70A92A2EF10B0270148AF
:101B8C00B24042854101828023900600054842857F
:101B9C008280011106CE22CC26CA4AC84EC68025A8
:101BAC001374040251EC83C905000948AE87639B8A
:101BBC00090903A84500B284368903430800034889
:101BCC0018002208336868004163130E13FE630487
:101BDC00C8030D13630C68048D6793872790294401
:101BEC00631EF8026244F240D2444249B24985472E
:101BFC0005616F80405629EB05476369D704C847D8
:101C0C000546A685EF10101F814983A7818D99C7C2
:101C1C009C4389C74A86A6854E858297F2402285C9
:101C2C006244D2444249B2490561828011EF0547B2
:101C3C00636ED700C8470546A685EF10B01BF1B7F9
:101C4C002144E9BF0544D9BF2D44C9BF3544F9B778
:101C5C00C167F917630CF502411122C406C685470A
:101C6C002A84639AF50022852244B2409385419FD1
:101C7C0041016FA0E00E89476396F5008545EFC0E2
:101C8C00403F75D1B2402244410182808280411193
:101C9C0022C42A8441659385419F7D1506C6EFA019
:101CAC00200C170500001305E5FA0588EFC0203459
:101CBC0005C02244B24097F6FF1F93862643414647
:101CCC00C54517F5FF1F1305254341016F90B07EE5
:101CDC00B240224401454101828009C523ACA18C4C
:101CEC0001458280454582801147636CA70697A603
:101CFC0002009386E6613345D52018414111AE8729
:101D0C00369706C6B2850287054761456398E7009A
:101D1C0005461385418DEF10F00D0145B240410190
:101D2C00828005476145E39BE7FE05461385018DDF
:101D3C00DDB705476145E393E7FE05461385C18C86
:101D4C00D9BF05476145E39BE7FC05461385818CAC
:101D5C00D9B715476145E393E7FC15461385018C0C
:101D6C005DBF09458280411122C42E849385419F19
:101D7C0026C206C6AA84EF80C038058919CD97F70C
:101D8C00FF1F83D707431EA0A2852244B24026859D
:101D9C009244014641016F90A010B24022449244FB
:101DAC00494541018280B287411113962500BE85B9
:101DBC0006C6D93AB240014541018280411122C484
:101DCC0013942500A28506C626C24AC0AA8432896D
:101DDC0005322286CA85268597E0FF1FE780405191
:101DEC00B2402244924402490145410182800111D2
:101DFC0022CC06CE3714004026CA4AC84EC652C45E
:101E0C0083447405034AB405834984050349940546
:101E1C00EFF08FEA8347A40593F4F40F137AFA0FCB
:101E2C0093E71700230DF40493F9F90F1379F90FC5
:101E3C00B717004003C7A705058B6DFF03D5C70572
:101E4C00A38D4705238C3705A38C2705A38B9704FB
:101E5C00F2406244D2444249B249224A056182802E
:101E6C00011122CC06CE2E849397556063DD0700BA
:101E7C00EF10205019C1EF1020441315F468F240F4
:101E8C0062440561828093F7150013C51500E5FBCC
:101E9C008967ED8FBDC3EF70015BB717004003C7B7
:101EAC00E702930680081377C70F13671700F3B682
:101EBC00068093F6860836C60F1000009306700550
:101ECC002380D704930680FA2380D7040F100000D8
:101EDC002387E70223800704B247F3A707800F107C
:101EEC00000037F60200130606E0896503C5018E73
:101EFC00EF10B0401315D46859B711656D8D41D1F1
:101F0C0017A5020013050542EF90621C130600642E
:101F1C00916503C5018EEF10503E1315E46885B72B
:101F2C001D71494697A502009385054017B502001F
:101F3C00130505BB86CEA2CCEF10207E01E917A5B8
:101F4C0002001305A53FEF90821801A0B7F700E03F
:101F5C0023A40700795798CB3D4798C30564B7E78E
:101F6C0000E023A087180F10000017F7FF1F1307BE
:101F7C00E7B723AEE18C130700F8A38AE7401306FA
:101F8C00000481450808EF10006E97F7FF1F938738
:101F9C0027693EC88D6793870780FC82B7B703001B
:101FAC003ECCB7070105938707103ECEED472310B3
:101FBC00F10285472301F102970700009387E7DEC2
:101FCC00BEC2970700009387A7DFBEC4930714F126
:101FDC002312F10237050400970700009387678AE4
:101FEC003ED81946970700009387A7E02C001305ED
:101FFC0085213EDCEFF04FF9A2473ED43C862316F8
:10200C00F102C24781C7BC8263F3870001A00808B4
:10201C00EF20E00BAA8501C917A502001305453373
:10202C00EF80127701A0F640664425618280411151
:10203C0017050000130505E306C622C4EF20600552
:10204C001384018E08A0112808202244B2401306E4
:10205C000032896541016F10502A797106D6130739
:10206C008008F337078093F787083EC20F100000F3
:10207C00B7170040930570052380B704130680FA48
:10208C002380C7040F10000083C6F70293F6D60F07
:10209C00A387D702238007049246F3A606800F106D
:1020AC00000073370780137787083AC40F100000BD
:1020BC002380B7042380C7040F10000003C7F70266
:1020CC0013675700A387E70223800704A247F3A7EF
:1020DC0007800F1000008147014781460546854562
:1020EC001305407EEFF0AFC4680051468145EF10F8
:1020FC008057B707C0A83EC8B78732003ECA6800F1
:10210C0097E7FF1F938767543EC6EF208032B2508B
:10211C004561828041111D4506C6EFF02FBC1305A9
:10212C00602497E0FF1FE7800032B71700409387C9
:10213C00870A98438545130500101367072098C339
:10214C00EFF02FE68D4513050020EFF08FE5EFF053
:10215C00FF8217B502001305A598EF805277C9339B
:10216C00F935EFE0212FEFE0E135EF007076EF006D
:10217C00500B97E0FF1FE780205082802A86B30522
:10218C00B04017A502001305A51E6F8072600111E7
:10219C0022CC26CA06CE2E84B684EF10403EB7471A
:1021AC000F00938707243376F50291C8B28517A5E3
:1021BC0002001305651D32C6EF80925D3246228502
:1021CC006244F240D244814505616FC0817A7971D5
:1021DC0026D206D622D44AD04ECE972700209387FB
:1021EC0027C49423AE840147638CA600F42B0547C7
:1021FC006388A60083C6C7020D476393A6000947F0
:10220C0093F684009DCE81567482D9463307D7024B
:10221C00094683C6918E4C00BA97AA230547239989
:10222C0007002398070023970700B8B7EF60706C7E
:10223C0013C58400B250225492540259F24945619C
:10224C00828093F60402D1CED9463307D702338469
:10225C00E7005C24B9EF13899181034709003E28FC
:10226C002A2025C38549014781460546C9452316C1
:10227C0001007C8223133101EF60F0512AC415C98F
:10228C009307A0051CA12A2003C6918E4C00EF6079
:10229C0010491DE18347090008201306006493B719
:1022AC00170093050002230634012300F900EF10F8
:1022BC00D00413C50402BDBFC9454800EF7000131C
:1022CC00CDBF03C6918E4C007C82EF60904475F1BB
:1022DC0085475CA48347090093B717002300F900D6
:1022EC00C9BF93F60410B1CED9463307D702338455
:1022FC00E7005C249DEF5E282A2001477C82814602
:10230C0089470946C945231601007C83EF60B04814
:10231C002AC405C1054923002501A24703C6918E95
:10232C004C00A38007002A20EF60703F11E52306C4
:10233C00240113C50410FDBDC9454800EF70000B06
:10234C00CDBF93F604018DC2D9463307D7021306CD
:10235C0040068146D145BA97AA2313078025EFE0A2
:10236C00610C13C50401F9B513F50404E30405EC81
:10237C00D9463307D7023384E7002A20EFE0410A1D
:10238C00082005661306069693050004EF10E07608
:10239C0013C5040445B539714AD806DE22DC26DAA9
:1023AC004ED652D42E891397556063560726EF00EC
:1023BC00507C2A8405C918219307000B6311F7027E
:1023CC00972400209384C4A53E21BA206306F7020B
:1023DC009A2C6303F704FA3489496300F7022285C7
:1023EC00EF00906D1315F968F2506254D2544259B3
:1023FC00B259225A216182808149D947B387F902A7
:10240C0009474C20130A8400A697DC236388E70055
:10241C005285EF60B07DE1B78549C5B70D47638F35
:10242C00E50005476392E5021824631BF7024C2470
:10243C0017A50200130545F6EF809235D947B387EF
:10244C00F902A6972386070058209307F007631913
:10245C00F7000E2417A50200130585F5EF80523303
:10246C005C202D476388E7020547639CE70218242C
:10247C00A9466312D7044C2417A50200130505F4D2
:10248C00EF801231D947B387F902A697238607004C
:10249C004C20BDBF5C4417A50200130525F38C230B
:1024AC00C5B74D476392E7029305A00517A5020037
:1024BC00130505F4F1B7C9466314D7024C2417A5CC
:1024CC0002001305A5F16DBF6D47639BE7005C44EB
:1024DC0017A502001305C5F28C23EF80722B4DBF9C
:1024EC0059473387E902269738375DD3E39209FAC7
:1024FC00B83485466316D7061D476395E7021E243C
:10250C0095C35C4417A502001305C5F08C339823C2
:10251C00A205D98DEEA4B033B8232206598E92A809
:10252C00EF8012275C201D47639AE7021830E947B9
:10253C00E390E7F6FE24A9DF7C849E280947B8B413
:10254C007C85F977938727107C86FD57AA2003C6D4
:10255C00918E2C005C87EF60101C1DBF0547C9BF16
:10256C0089466315D7062547639CE7021E248DCB4D
:10257C005C4488209305000298239C331306006466
:10258C00A207D98FBEA8972700202381078AEF10B6
:10259C00C056AE2817A50200130585EAEF80521F1E
:1025AC005C2025476392E7021830E947E392E7EE97
:1025BC008D47BCB4FE247C849E287C859307202008
:1025CC007C869307900259B70547CDB78D46E3112A
:1025DC00D7EC2547639CE7021E248DCB5C448820F6
:1025EC009305001098239C3313060064A207D98F1F
:1025FC00DEA897270020238B0782EF100050CE28EF
:10260C0017A50200130545E6EF80921897270020C6
:10261C00A38D0780B5BD13F7150005C317F6FF1F73
:10262C00130686C597F5FF1F938545C403C5918E88
:10263C00EFB0E1111345190045BBAA8713F5050846
:10264C0001C941657D15EFD0715E1345090869BB61
:10265C00171700201307C77C1423639CF6006254E1
:10266C00F250D254B259225ACA8542593E85216140
:10267C00B9BE742BE385F6FE8346C702E381F6FEF2
:10268C0003472704E312F7D6D9BF81E9AA8517A51A
:10269C0002001305E5E06F80B20F0547639EE5006D
:1026AC00AA8517A50200130525E209C617A5020085
:1026BC001305C5E36F80D20D09476399E5000DE65C
:1026CC00AA8517A50200130565E4EDB70D47639DB8
:1026DC00E500AA8517A50200130585E561DE17A59F
:1026EC000200130565E745BF82803C2135476369CD
:1026FC00F73217A70200130727F8B3C7E7209C434C
:10270C00011122CCBA9706CE26CA4AC84EC652C46C
:10271C0056C25AC02A8482879389818E03C70900C6
:10272C00A547034A450063E3E72E13045500814493
:10273C00171900201309097303C5090063EFA404DA
:10274C00A2851946336525210905EF00B06A83C5BA
:10275C00090017A502001305A5E3B3E7252185059C
:10276C0093F5F50FA38047012380B90062441386CB
:10277C00F5FF33662621F240834876000348660055
:10278C005C3258223432D2444249B249224A924AEB
:10279C00024B302205616F80A27FB3E524211946DC
:1027AC0089052285EF00707763120526850493F462
:1027BC00F40F59B7B369542117F9FF1F130989ACEA
:1027CC00890981441946CE854A85EF00107511EDB3
:1027DC00850493F4F40F1909E39664FF050413744C
:1027EC00F40F83470A00E367F4FC83470A006397FE
:1027FC00870417A50200130525DCEF80520D014656
:10280C0085450D452384018EEFA0317D17A502006F
:10281C00130505D76244F240D2444249B249224AD8
:10282C00924A024B05616F80920A0144138A818E91
:10283C00971A0020938A0A630D4B65B717A50200FF
:10284C001305C5D8EF80B2089717002093878761CE
:10285C000E04930624003E941030BE96814501452B
:10286C00EFA091740566130606C89305000803C50E
:10287C00918EEF10802817A50200130525D659BF9D
:10288C009305000803C5918EEF1060510C306391D5
:10289C00050E971400209384A458BA20C167F91729
:1028AC002E246306F7089A2C630DF700FA34630B99
:1028BC00F7062E85EFD0913717A50200130505D327
:1028CC0091BF8947BCAC8EAC722417A502001305CE
:1028DC0025D3EF80E26B17A502001305A5D3EF807B
:1028EC00027FBA20C167F9176308F7009A2C6305B9
:1028FC00F700FA34631CF71017A50200130545C83E
:10290C00EF80E27C2384018E6244F240D24442493F
:10291C00B249224A924A024B014685450D45056152
:10292C006FA0B16B89472388F402EEB471BF722497
:10293C00894717A502001305A5CCDCA0AEA0EF803B
:10294C0022658820854713060064A145DCA4EF109E
:10295C00C01A88200564130604C8C145EF10E0199D
:10296C0088201306049693050004EF100019A5B7F0
:10297C0017A50200130505CBEF808261B5BF971434
:10298C0000209384E4495A21B6208147638BE600EA
:10299C00962C85476387E600F6348D476393E600F3
:1029AC0089475947B387E702702017A50200130522
:1029BC0025C9BE94AE20EF80A25D8820F9579305FF
:1029CC000004BEA023820400A38504002399040004
:1029DC00238604002384018EEF10603C17A50200AF
:1029EC00130505BAEF80A26E05B7624472214E2121
:1029FC00F240D2444249B249224A924A024B17A5AC
:102A0C0002001305E5C505616F808258F2406244EF
:102A1C00D2444249B249224A924A024B0561828011
:102A2C0082807971170500001305259706D622D4EC
:102A3C0026D24AD04ECE52CCEF10A0659384918E04
:102A4C00856588A0938505960945EF30C036D1453C
:102A5C001D45EF304036930540062145EF30A0353B
:102A6C00930540063545EF30003585470D4770001E
:102A7C0091451305F0405C84DC845885DC8502C6E6
:102A8C00EFC081153000854513058040EFC0C1149F
:102A9C0013069100854513059040EFC0E113130612
:102AAC00A10085451305A040EFC001131306B1002A
:102ABC0085451305D040EFC02112171400201304D4
:102ACC002436171900201309C939170A0000130AF4
:102ADC00CA8CF9595285EF10C05B08A02311340140
:102AEC0023020400A3050400230604002319040098
:102AFC00231A040023170400231804005904E31BB1
:102B0C0024FDEF70203E8820EF60306A225488202C
:102B1C00B25092540259F249624A854545616F00A0
:102B2C00105E2A86B305B04017A50200130545B800
:102B3C006F800246411122C417140020130444383C
:102B4C003E2026C206C6AE84638AA7005E24638933
:102B5C00A7047E286398A704894711A081472947B9
:102B6C00B387E702AA8517A502001305E5B53E94C5
:102B7C0072A0268646A016A4EF808241B11493075A
:102B8C000005B3C4040863FF970008202244B24038
:102B9C009244096613060690A14541016F00F07539
:102BAC00854775BFB2402244924441018280011195
:102BBC0022CC171400201304A4305A21362006CE40
:102BCC008147638BE600562485476387E6007628A9
:102BDC008D476393E60089472947B387E702894508
:102BEC003E940820F9573EA023120400231304003E
:102BFC0023140400EF10A01A08209145EF10201A9E
:102C0C0017A502001305C5ADEF80624C854713066E
:102C1C00F100854513055030DC87EFD0C14EF240F2
:102C2C006244056182803D897D15954763E3A72049
:102C3C0017A70200130787B83345E5201C417971AB
:102C4C0022D4BA9706D626D24AD04ECE52CC56CAE9
:102C5C002E84828717A50200130585A92254B25031
:102C6C0092540259F249624AD24A45616F80224617
:102C7C00BC2119476390E7022E85153F6C2017A5E0
:102C8C0002001305E5A7EF80A23017A5020013057B
:102C9C00E5A8E9B70D47E38AE7FEB25022549254F7
:102CAC000259F249624AD24A45618280B82195475D
:102CBC00E315F7FE9714002093848420BA20C16793
:102CCC00F9176306F702DA24630CF70CFA28630B86
:102CDC00F70CAA25EFD0817517A5020013050591F5
:102CEC00EF80E23E17A50200130505A885BF014938
:102CFC00CA8517A50200130565A3EF806229A947B1
:102D0C003309F9023E2413060064894517AA020010
:102D1C00130ACAA297AA0200938ACAA38D49CA941D
:102D2C00BEA07E2488200569DEA01E28FEA03E28B9
:102D3C009EA4DD472390F182EF00305C8820096669
:102D4C0013060690A145EF00505B8820130609C8B6
:102D5C00C145EF00905A8820130609C89145EF0031
:102D6C00D05972242E2417A50200130565894169D8
:102D7C00EF80022297140020938484140144791963
:102D8C00A2855285EF80C220AE205685EF8042206E
:102D9C00BE20638B27010504A904E31334FF99B704
:102DAC000549B9B70949A9B717A5020013054593F9
:102DBC00EF80E23185471306F1008545130550304D
:102DCC00DC87EFD0413439BFB8218D4717A50200FD
:102DDC001305459AE313F7EC51B5AC219147639772
:102DEC00F50017A502001305659A8DBD99476393ED
:102DFC00F50222856D3B6C2017A50200130545904A
:102E0C002254B25092540259F249624AD24A456154
:102E1C006F80021895476399F5001C30F9F317A5DC
:102E2C000200130565981DBD17A5020013054598F2
:102E3C00C1BF8280011106CE22CC01C98947630231
:102E4C00F502F24062440561828068003284EF0032
:102E5C00607AA28517A502001305C597EF8042136F
:102E6C00CDB76800EF00007917A50200130505998E
:102E7C00EF80E225F9B70111930780F85C8206CE4A
:102E8C0022CC03D701828D4763ECE70017A5020023
:102E9C0013058598EF80A223F2406244056182807D
:102EAC008547014781460546ED452A847C85EF60C0
:102EBC00800E30854C002AC6EF00C0732C00228592
:102ECC00EFE07FEA71D9ED452800EF602052E9B7B9
:102EDC00411122C406C626C22E849397556063D432
:102EEC0007084129AA8421C11C211307000B638DFB
:102EFC00E7041307000D6396E7023C214547638CFA
:102F0C00E7026547639FE7000348A5001C351825B9
:102F1C00743170214C3117A502001305E590EF8038
:102F2C0022072685512E1317F468B240224492448E
:102F3C003A854101828070216C3117A5020013057E
:102F4C00A591EF80E204F1BF58219307F007E31A33
:102F5C00F7FC0E2517A502001305C5912390B1822D
:102F6C00EF8002037DBF13F7150005C317E6FF1FA3
:102F7C0013068632971500209385C5F303C5B182DD
:102F8C00EFC0D166134714004DB7971400209384FB
:102F9C0024F39C206392A70813F7250019CB130682
:102FAC0000648945EF007035AA20F13513472400E1
:102FBC00ADBF13F7850009CFAA2013074006814641
:102FCC0013064006D145EFC0D15D13478400B1BF55
:102FDC0093F7050195C3AA20014789460946814507
:102FEC00EFD00147AA8517A502001305E589EF70FC
:102FFC00327A1347040115BF13F745001DD7AA20D9
:10300C00EFD0014288200566130606C89145EF00F3
:10301C00D02E1347440011BFBC24639DA70413F7A3
:10302C00250001CB130600648945EF00102DCA243E
:10303C00ADBF13F7850009CBCA24130740068146A0
:10304C0013064006D14541B793F7050199C7CA2429
:10305C00014789460946814561B713F74500E306E8
:10306C0007ECCA24EFD0C13B0566A824130606C89A
:10307C00914571BFDC28E39AA7EA13F7250001CB31
:10308C00130600648945EF005027EA2839BF13F76F
:10309C00850009CBEA281307400681461306400633
:1030AC00D14515B793F7050199C7EA280147894619
:1030BC000946814535B713F74500E30807E6EA28CA
:1030CC00EFD001360566C828130606C8914581B7AE
:1030DC003971170500001305E5DF06DE22DC26DA60
:1030EC004AD84ED652D4EF00D07AD1479384B182CD
:1030FC00054488A0FC8210089307400685451305FB
:10310C005030FC8423088100EFC0F17F17E6FF1FCD
:10311C001306C61AF14513057030EFC0D17E138625
:10312C0041829D4513056030EFC0F17D5008894503
:10313C0013051031EFC0317D30088945130520315E
:10314C00EFC0717C930500050D45EF20D04693052B
:10315C0000051145EF20304685457945EF20B045F7
:10316C003008914513057040408440862308810047
:10317C0002CC230A0100EFB031263000854513053F
:10318C000040EFB071257000854513051040EFB07D
:10319C00B1245008854513052040EFB0F1231008E9
:1031AC00854513055040EFB031237D55EF5030135A
:1031BC007D55EF80D037EFE0BF957D55EFE03FAD0B
:1031CC0017E6FF1F1306060ED5450145EF501001FB
:1031DC0089475C868D472308F1009147230AF1004B
:1031EC00B7070304938717203ECC300095478545DD
:1031FC000145230EF1004084EFE01FAF70008545C0
:10320C000545EFE07FAE100885450945EFE0DFADE1
:10321C00500885450D45EFE03FAD3008954511450B
:10322C00EFE09FAC17140020130484C91719002079
:10323C001309E9CA170A0000130ACAC9F9595285B9
:10324C00EF00306508A0231134012312040023136E
:10325C000400231404002904E31324FF1385C18103
:10326C00EFE0BFA71385C18EEFA0213262548820F6
:10327C00F250D2544259B259225A8545216141A586
:10328C0023AC05FE1C4181E70CC18280BA8703A7E1
:10329C0087FF6DFF23ACB7FE8280184183A785FFA3
:1032AC006319B7001CC1FD5723AC05FE238FF5FE37
:1032BC008280232CF6FEC5BF411122C437E400E006
:1032CC0026C204403707200006C6F98C2320E418D8
:1032DC000F10000009E9232094101545B240224438
:1032EC009244410182800347E5FF9307F00F630688
:1032FC00F700232094101145D5B7EF90D26A014501
:10330C0023209410E1BF411126C2B7E400E04AC06B
:10331C0003A90400B707200006C622C43379F900BC
:10332C0023A0F4180F10000009E923A02411B240C7
:10333C00224492440249410182809565938505D0CF
:10334C00C98D2A842105C2054205C1814181EF90B6
:10335C00725601CDFD57232005002312850023034F
:10336C00F50023A024112105D9B723A02411014570
:10337C007DBF0111B7E700E04AC803A907004EC69C
:10338C003707200006CE22CC26CAAA893379E90059
:10339C0023A0E7180F10000097170020938707B998
:1033AC0080438144014619E499E8A1654E85EF00FC
:1033BC00101F05A08347E4FF6399370385CCA685CE
:1033CC0017150020130585B6C93D65D0A1654E853E
:1033DC003D23F2406244B7E700E023A02711268585
:1033EC004249D244B2490561828091E0228603248D
:1033FC0084FF55BFA284E5BF41114AC037E900E004
:10340C0022C4032409003707200006C626C2798C83
:10341C002320E9180F10000089E523208910154599
:10342C0015A0AA849717002083C797B02E8563F543
:10343C00F400894763EE97004135B7E700E023A01D
:10344C0087100D45B24022449244024941018280CA
:10345C0083A785FF99E703C7E5FF9307F00F630880
:10346C00F700993DB7E700E023A087104DBF238FED
:10347C0095FE17150020130565AB1935A16526853A
:10348C00BD2901452320891075BF9717002023AF54
:10349C0007A88280A5C1011106CE22CC26CA81477D
:1034AC00C14633D7F540058B29C312053E953147EC
:1034BC003305E50217170020130787B004430544B2
:1034CC003314F4002EC642044180AA949C40C84098
:1034DC008297B24523A0040023A20400A18DF240E0
:1034EC006244D2442E85056182808507E39BD7FA1E
:1034FC000144EDB72E858280C9C1797122D406D6DC
:10350C0026D24AD04ECE01444147B3D78540858B55
:10351C00A5C31205314722953305E5029717002004
:10352C00938707AA03A907008544B3948400C204B7
:10353C00C180BE892A990327090011C703254900B8
:10354C002EC60297B24531473304E40283A7090023
:10355C003E941C4489E72320090023220900B25021
:10356C002254A58D02599254F2492E8545618280D0
:10357C000504E31CE4F88144DDB72E85828097179F
:10358C0000209387E79F9C53411122C406C61384E5
:10359C00C18299C782971C403E9523A6A18239A06F
:1035AC00971700209387079D9C43EDF70840B7477A
:1035BC0003009387D73F3305F502B7A726009387FF
:1035CC0037ECB24022443E9523A6A1824101828071
:1035DC00971700209387879A9C4399E33E858280B6
:1035EC0003D727006316B70003C70700E308A7FE3D
:1035FC00DC47E5B7B7E700E09843B706200023A007
:10360C00D718758F0F10000001C599C1814711E6BD
:10361C00B7E700E023A0E7108280B386F50003C86B
:10362C000600B306F500850723800601E317F6FEB6
:10363C00C5B737E700E01C43B70620002320D71896
:10364C00F58F0F10000019C191C111E637E700E0AA
:10365C002320F7108280910503A7C5FF11057D1665
:10366C00232EE5FEDDB737E700E01C43B70620004C
:10367C002320D718F58F0F10000001C53307C500A4
:10368C0011E637E700E02320F71082800505A30F31
:10369C00B5FEE31DE5FEF5B7B7E700E09843B706C6
:1036AC00200023A0D718758F0F1000008147B30698
:1036BC00F5008386060099E6B7E600E023A0E61045
:1036CC003E8582808507E5B70111B7E700E022CC83
:1036DC0080434AC83707200006CE26CA2A892E8680
:1036EC00798C23A0E7180F10000013150601930521
:1036FC00F004418132C6EF90F21BAA8401C5324618
:10370C00CA85CD3DB7E700E023A08710F2406244A4
:10371C0026854249D2440561828037E700E01C438C
:10372C00B70620002320D718F58F0F10000001C515
:10373C0099C1014711EA37E700E02320F71005454E
:10374C0082800507E309E6FE3308E500B386E50051
:10375C000348080083C60600E305D8FE37E700E0FF
:10376C002320F7100145828037E700E01C43B706A1
:10377C0020002320D718F58F0F1000001307F6FF39
:10378C00BA952A966317C50037E700E02320F71097
:10379C008280FD1503C715000505A30FE5FEDDB7F7
:1037AC0037E700E01C43B70620002320D718F58F1D
:1037BC000F10000001C53307C50019E637E700E01C
:1037CC002320F7100145828005058346F5FFE3971A
:1037DC00B6FEE31BE5FE37E700E02320F7100545B6
:1037EC0082807971B7E700E022D48043370820004B
:1037FC0006D626D24AD04ECE52CC56CA5AC85EC62F
:10380C0062C43374040123A007190F10000005E1F2
:10381C0023A087100945B250225492540259F24900
:10382C00624AD24A424BB24B224C45618280970786
:10383C000020938727749C43BA8A368AB28B2E8BCE
:10384C00AA898297970700209387877798433E89A8
:10385C008144B146C147338CD402330687011042F0
:10386C0051E6C165938505F04145EF90B20405E141
:10387C00970700209387C7709C5B81C781451145D2
:10388C008297B7E700E023A087102D4569B797070B
:10389C0000209387A76E984331E79707002023AF4A
:1038AC00A76C2300050083270900054733179700F1
:1038BC0023260500232475012311E500232255013D
:1038CC00E29723A0370123A2670123A457016304C5
:1038DC000A0023009A00B7E700E023A087100145F7
:1038EC001DBF3E875C47F5FF48C765BF8504E39461
:1038FC00F4F6B7E700E023A08710214529BFB7E70E
:10390C0000E09843B706200023A0D718758F0F103E
:10391C0000009706002083C6B6616373D5021706B4
:10392C0000201306666593161500084236958356DB
:10393C000500D58D2310B50023A0E710014582802A
:10394C0023A0E7100D458280B7E700E09843B70647
:10395C00200023A0D718758F0F10000097060020A9
:10396C0083C6165D6375D502170600201306C66064
:10397C0093161500084293C5F5FF3695835605003E
:10398C00F58D2310B50023A0E7100145828023A0FC
:10399C00E7100D458280011137E700E026CA044389
:1039AC00B706200006CE22CC4AC84EC652C4F58CAF
:1039BC002320D7180F100000130705FF1377F70FFC
:1039CC00FD4763E5E70AB146B306D5029707002029
:1039DC009387075F984336971C43C9CB135A45000E
:1039EC0005443D893315A4001314050141802E892B
:1039FC005285A285F13EAA8929CDA2855285A93787
:103A0C0097070020938707579C43829797070020BE
:103A1C0083D7475C338727032A84814613060064C7
:103A2C00B3B7270313050732B335E500BE95EF7026
:103A3C00821CB307850097060020938626593E8783
:103A4C00D44263E4A70063E4D7003387D74023A4B0
:103A5C00E900B7E700E023A097100145F24062446B
:103A6C00D2444249B249224A05618280B7E700E05C
:103A7C0023A097100945DDB70111B7E700E026CA6E
:103A8C0084433707200006CE22CC4AC84EC6F98C98
:103A9C0023A0E7180F100000BD4763EAA7043147C5
:103AAC003307E50297070020938787519C43BA9709
:103ABC009C4395CF05443314A400420441802E89C5
:103ACC000145A285EFF0DFB0AA8911C5A285014599
:103ADC00A53D23A42901B7E700E023A097100145D9
:103AEC00F2406244D2444249B24905618280B7E750
:103AFC0000E023A097100945E5B779714AD037E962
:103B0C0000E026D283240900B707200006D622D471
:103B1C004ECE52CC56CA5AC85EC6FD8C2320F9181C
:103B2C000F1000009707002083C79740637AF500B9
:103B3C00970700209387074483AB070063970B001C
:103B4C00B7E700E023A09710A9A0170B0020130BD8
:103B5C00EB47832A4B00B74736FE938707C82E8A5C
:103B6C009705002083D50547BE9AB387C5022A84E2
:103B7C00B2898146B3B5C50213850732B337F50058
:103B8C0013060064BE95EF70020763F0AA022320AF
:103B9C0099100145B250225492540259F249624A8A
:103BAC00D24A424BB24B45618280829B97050020E2
:103BBC0083D54542B38735032A89130600648146B1
:103BCC00B3B5350313850732B337F500BE95EF70E7
:103BDC008202B30725013E8903274B0063E4A7004B
:103BEC0063E4E7003389E740D2852285EFF05F9EDE
:103BFC0009C923242501B7E700E023A09710054548
:103C0C0051BF936504F0C205C1814145EF90824AD2
:103C1C0019E9970700209387A7369C5B95D3A2855B
:103C2C001145829731BF97070020938727359C4316
:103C3C0085E79707002023A3A73485472326050093
:103C4C00232425012311450123008500A300F50041
:103C5C00232205004DB7BA87D84775FFC8C7F1BFF7
:103C6C007971B7E700E026D284433707200006D6E7
:103C7C0022D44AD04ECE52CC56CA5AC85EC662C462
:103C8C0066C26AC0F98C23A0E7180F1000003DC172
:103C9C004144B689B28A2E8A2A89B14C170B00206E
:103CAC00130B0B32054D130C0003B30B94030327BA
:103CBC000B005E971C43A5E39375F400B315BD0090
:103CCC0013554440C2055686C1811375F50F353521
:103CDC0039C183270B00DE9723A0270123A24701BC
:103CEC006384090023808900B7E700E023A09710C4
:103CFC00014521A023A097100945B250225492549B
:103D0C000259F249624AD24A424BB24B224C924C73
:103D1C00024D456182800504E31984F9B7E700E0A0
:103D2C0023A097102145D1BF0111B7E700E026CAA7
:103D3C00844322CC4AC84EC63707200006CE2A84BC
:103D4C00AE893289F98C23A0E7180F100000753367
:103D5C002285CE85EFF0DF872A8405C597050020E4
:103D6C0083D54527B3872503130600648146B3B575
:103D7C00250313850732B337F500BE95EF60B267A4
:103D8C0048C013351400F2406244B7E700E023A0AA
:103D9C0097104249D244B2490E0505618280011147
:103DAC00B7E700E04AC803A9070022CC4EC6370784
:103DBC00200006CE26CAAA892E843379E90023A0D6
:103DCC00E7180F100000EFF0BF80AA8419C123116F
:103DDC000500A2854E85EFF03FB79707002083C7FB
:103DEC002715639B37019707002083D767185D8CD5
:103DFC0097070020239E8716B7E700E023A0271122
:103E0C00014591E01945F2406244D2444249B2491D
:103E1C000561828001114AC837E900E022CC0324F5
:103E2C000900B707200006CE26CA4EC67D8C23207B
:103E3C00F9180F1000009307F00263E8A704B147CC
:103E4C00B304F502970900209389891783A7090009
:103E5C00A6979C439DCB9377F5008545B395F500CC
:103E6C00C205C1811181253F83A709000145A69791
:103E7C0023A0070023A2070023208910F2406244EC
:103E8C00D2444249B24905618280B7E700E023A0E1
:103E9C0087100945E5B74111B7E700E026C2844316
:103EAC0006C622C437072000F98C23A0E7180F1090
:103EBC000000EFF0EFF119E90145B2402244B7E7F9
:103ECC0000E023A0971092444101828097070020C4
:103EDC009387470A9C430045829797070020938756
:103EEC00E70E6368A402D843B74636FE938606C82D
:103EFC003305A4403697E371E5FC13070064B33532
:103F0C00E50203D6870081463305E502EF60B24E29
:103F1C006DB7D8433A94C1BF411106C6970700202C
:103F2C0023A4A70A0295B2409707002023AAA70052
:103F3C00014541018280994763E9B7008A059707DB
:103F4C00002093872701BE9588C1828097070020A7
:103F5C0023AAA70611C5854717070020230BF700D6
:103F6C00828041117146814517050020130585FE9D
:103F7C0006C69707002023A307009707002023A558
:103F8C0007049707002023A707FE9707002023822A
:103F9C0007FE9707002023A70702EFF0CFEC1306CC
:103FAC000002814517050020130585F8EFF0AFEBF3
:103FBC00EFC0615C97070020938787FC03C5C7039C
:103FCC0083C7D70385453E958D473305F5023905E3
:103FDC001375F50F97070020238DA7F49947330528
:103FEC00F50213050524EF90E20C17070020232996
:103FFC00A7FC49CD994717060020034686F33306E4
:10400C00F602814513060624EFF0EFE59707002032
:10401C00938707FB9C4393870724170700202329CA
:10402C00F7F2170700200347C7F00A07BA971707DC
:10403C0000202323F7F4EFF04FC5ED29970700205C
:10404C00938707F194439707002083C777EE139764
:10405C002700369717F6FFFF1306464A10C313873F
:10406C0017001377F70F0A07369717F6FFFF13069B
:10407C00A64210C313873700890793F7F70F8A07F7
:10408C0097050020A386E5EAB69790C3B24041019C
:10409C0082809707002083C7B7E9170700200347E2
:1040AC0047E963F3E70217070020130767EA184391
:1040BC009386170017060020A30CD6E693962700CC
:1040CC00369708C33E8582809307F00FE5BF1C41ED
:1040DC0063880714370700F07D8FB70600208947E7
:1040EC006311D71403574500630D0712411122C405
:1040FC0019462A849305F00F610506C6EFF04FEAC6
:10410C0005478D476309E5101C4481CB58589947E6
:10411C0063030710185C6300071013060004814545
:10412C00170500201305C5E5EFF0EFD313060004C7
:10413C00A285170500201305A5E4EFF0AFCB970778
:10414C00002083D7A7E499E79307001017070020F6
:10415C00231EF7E29707002083C767E391E78547A3
:10416C00170700202305F7E29707002083D747E2C3
:10417C0091E7ED4717070020231CF7E09707002075
:10418C0083C7F7E091E7954717070020A301F7E0F5
:10419C009707002083C7E7DF91E7854717070020C3
:1041AC002309F7DE9707002083C7B7DE99EB970743
:1041BC0000209387E7DC83C7F70017070020A30ACA
:1041CC00F7DC9707002083C7F7DC81CF13F73700A4
:1041DC008983970600202383E6DE17070020A30FB0
:1041EC00F7DC9707002083C7E7DA91E7C547170785
:1041FC0000202301F7DA8347640199E79307C00392
:10420C00170700202309F7D8FD5717070020A3052F
:10421C00F704813B8147B24022443E8541018280B4
:10422C0089473E85828037C700408326C720B70761
:10423C00FCFFFD17F58F2326F720010001009707DF
:10424C0000209387E7CEC84B832787262326D720C9
:10425C006A0593C7F7FF99835D8D828001114EC665
:10426C0097090020938989D683A7090006CE22CC12
:10427C0026CA4AC852C4829713090064B335250371
:10428C0003DA89008146528633052503EF60B216A6
:10429C00970700209387C7C9804BAA840145630602
:1042AC00940233858440636E940003A549005286C2
:1042BC008146B335A9023305A902EF60D213018DF3
:1042CC0026959707002023AD97C6F2406244D2444E
:1042DC004249B249224A05618280011122CC0A85E9
:1042EC002E84414697850200938585F606CEEFD045
:1042FC004F9A180806043A94035504FF97070020B8
:10430C0083D767CDF2406244AA9737450F00130557
:10431C0005243355F502056182809707002083D769
:10432C0087CB51471D45637CF70279471945637864
:10433C00F7021307200315456373F7021307B00444
:10434C001145637EF700130740060D456379F700AE
:10435C001307600909456374F70013B5B70F828022
:10436C00011122CC06CE2A842EC6EFF04FA1B24505
:10437C00F240818D33A5A502229562441375F50F89
:10438C0005618280011122CC06CE2A842EC6EFF064
:10439C000F9FB245F240818D33A5A5022295624450
:1043AC004205418105618280011122CC06CE2A840E
:1043BC002EC6EFF0CF9CB245F240818D33B5A502ED
:1043CC00229562440561828097070020938747BB42
:1043DC00985739CF411126C206C6BE8422C483D752
:1043EC00418FB9C3029703D7418F2A840DCBBA876B
:1043FC006373A700AA87C207C183BA866373E400FC
:10440C00A286C206C182958F1307C0036359F700B9
:10441C00DC5491C38297EF500103239A818EB240F2
:10442C0022449244410182800297239AA18EC5BFF7
:10443C0082809707002023A507BA9707002093874F
:10444C0027B4DC57011106CEAA8581C72AC68297EC
:10445C00B245D9CD9C410545C9CBDC41D9C783D7E1
:10446C008500C1C783D7A500C9C3514617050020D5
:10447C001305C5B5EFF00F9897070020238E07B4EE
:10448C0097070020938787B49C43170700202323AA
:10449C00F7AE9707002083C717B08DE793078057B7
:1044AC0017050020035505B33305F50237460F00F9
:1044BC001306062481468145EF60E27397070020BE
:1044CC00A38BA7AC170700200347F7ACA54763E7FE
:1044DC00E700A94717070020A30FF7AA170500004C
:1044EC00130505D8EFF05FA30145F240056182800A
:1044FC009707002023A807A4970700009387E7D20B
:10450C00170700202324F7AC7D579707002023A121
:10451C00E7ACB7873200938727A19706002023AB1F
:10452C00F6AA97070020238907AAB7C7004023A43F
:10453C00E726B9B7011122CC17040020130444A4B8
:10454C00084406CE26CA4AC801E90545F240624431
:10455C00D2444249056182805C58E5DB185C75D712
:10456C007000854582971844B247E300F7FE930527
:10457C00E00417050020035565A1EF80B23317073F
:10458C0000202323A79C71D117060020035606A0F8
:10459C009305F00FEFF02F8D8144170900201309BC
:1045AC0029999707002083C7879E0326890163CF2B
:1045BC00F4003285EF80323F01459707002023A598
:1045CC0007989707002023A3079849B79705002061
:1045DC0083D5C59BB38795020844185C89818504F3
:1045EC003E9508C2029775BF011156C2970A00206A
:1045FC00938A0A9983A78A0022CC4AC84EC606CE53
:10460C0026CA52C45AC0AA892E84328963880720CC
:10461C0003A74A03630307141307F01F6361A7146E
:10462C00970400209384C49003AA840163130A0A9C
:10463C009565938515E01705002003552595EF80AA
:10464C0072279707002023A1A7902A8663070510DD
:10465C0083A74A0303A58A009705002083D50593F9
:10466C008981829783A78A0003AA840117070020F7
:10467C00232EF78C89476398F908C147631FF40C04
:10468C009705002083D58590938505FC9147B3C58C
:10469C00F5028A05D29503C725009307A005631A76
:1046AC00F70A83D705006396370B4A852286910556
:1046BC00EFE05FF49C4C5285639D47130145F2403B
:1046CC006244D2444249B249224A924A024B0561A1
:1046DC008280D84CE380E7FA9565938525E0170531
:1046EC0000200355A58AEF80F21C2A8A3DC52A8634
:1046FC0083A74A0303A58A009705002083D5058963
:10470C008981829785BF8D47639DF900C1476316E8
:10471C00F4049705002083D56587938545FDF199B1
:10472C0095BF9147639AF9006319340397050020EC
:10473C0083D5C585A115E5B793070010639FF900D4
:10474C00A14763EC87009705002083D52584C1150C
:10475C00F9B79C4C52856390470D29458DB71D6A5E
:10476C00568B637B4509130A05E01947334AEA0265
:10477C00170700200357878197FAFF1F938A4A7BFC
:10478C00330AEA023E9A83A7CA016395470183A4C0
:10479C008A018DE49305E00417F5FF1F0355057F8F
:1047AC00EF805211AA8455D983274B0397F5FF1F2D
:1047BC0083D5C57D2A8689815285829791451307B9
:1047CC00A005898193972500A69783C62700639F30
:1047DC00E60283D607006398360385058A05228690
:1047EC00A6954A85EFE01FE183A78A01E38897EC41
:1047FC002685EF80521BD9B521677917E36FA7F493
:10480C00330A4541B5B783C5370065BF83A78A0115
:10481C00E38597F42685EF80121981B797F7FF1F70
:10482C00938707718C4F95D991479306A00589837F
:10483C00139727002E9703462700E310D6F2035652
:10484C000700631A360185078A072286BE954A85BA
:10485C00EFE05FDAA5B583473700D1BF97F7FF1FAD
:10486C0093870772984729C79C5FB9C305476311A3
:10487C00E504411122C417F4FF1F1304646B104CA0
:10488C0006C61DC2484C97F5FF1F83D5257089813C
:10489C008297084CEF80321197F7FF1F23A6076A07
:1048AC0097F7FF1F23A4076AB2402244410182807C
:1048BC008280011117F7FF1F1307876C4EC68329DF
:1048CC00870022CC26CA4AC806CE52C456C2AA8435
:1048DC002E843289638B091E1C5FBA8A99EB294599
:1048EC00F2406244D2444249B249224A924A05619A
:1048FC0082805C5BEDD79307F01F63E6A70E97F9F8
:10490C00FF1F9389E96283A78901A1CB03A58A00C4
:10491C0083A7C9016391A7068947639FF406C14722
:10492C00E31FF4FA17F5FF1F03554566914713056E
:10493C0005FC3345F5029317250003A58901228652
:10494C00CA853E959307A0052301F5002310950019
:10495C001105EFE03FCA014561B79305E00417F577
:10496C00FF1F0355A562EF80E27497F7FF1F23AD7D
:10497C00A75C49FDADB783A74A0303A6890197F548
:10498C00FF1F83D5A5608981829783A78A0017F7BB
:10499C00FF1F232DF75A49B78D47639EF400C1477B
:1049AC00E31FF4F217F5FF1F0355455E130545FD94
:1049BC009377C5FF59B79147639AF400E31194F2CA
:1049CC0017F5FF1F0355855C2115DDB79307001004
:1049DC00E397F4F0A147E3E487F017F5FF1F0355C5
:1049EC00E55A4115F1B79D676379F506930705E024
:1049FC001947B3C7E70217F7FF1F0357275917FAD1
:104A0C00FF1F130AEA52B387E702BE9983278A0174
:104A1C00A1CF8327CA016397370703258A019146E3
:104A2C001308A0059305F00F93D7260013972700C2
:104A3C002A9703462700631D060783580700034681
:104A4C00370063939806B306D64063CD860485077A
:104A5C008A072286CA853E95EDBD21677917E360EA
:104A6C00A7E8B307F54041BF9305E00417F5FF1F16
:104A7C000355C551EF80026497F7FF1F23A6A74C7F
:104A8C0049F9B1BD83A74A0303268A0197F5FF1F95
:104A9C0083D5C54F89814E85829797F7FF1F23A732
:104AAC00374BA5BF2310B70093160601C182ADBFCB
:104ABC00B385860017F6FF1F0356464D9105130666
:104ACC0006FC63EEC5082D4521BD97F7FF1F9387A4
:104ADC002746944FBE89A9C203A5890191461308A4
:104AEC00A0059305F00F93D72600139727002A975C
:104AFC000346270063160605835807000346370054
:104B0C0063989800B306D640E3D386F42310B7001D
:104B1C0093160601C182C1BF8357C70017F5FF1F4B
:104B2C000345E5469305E0043305F5024205418152
:104B3C00EF80425897F7FF1F23A8A74051FD45B3BC
:104B4C0017F6FF1F0356864497F5FF1F83C52544B0
:104B5C00B385C502338686001106E3E6C5F6130657
:104B6C003400719A1106B2962301070123109700A5
:104B7C00A301D700E9BD01458280011106CE2EC6E6
:104B8C00EF90603D01C9B245F24003552500056127
:104B9C006FD0E059F240494505618280A3800192B3
:104BAC002380019223A4019023A6019023A80190B5
:104BBC0023AA019023A2019023A0019097F7FF1F35
:104BCC0093874744930640382391D702F176130715
:104BDC00400B938606B82391E7002392D702116706
:104BEC009D46130600059305000A1305007D2392CC
:104BFC00E7002393D70241478546130810F8239505
:104C0C00E7002396E7002399E700239AE700239B0C
:104C1C00E700239CE7002394E702239007002393EB
:104C2C00B7002394B7002397C7002398C700239D90
:104C3C00A700239E0700239F0700239007022395BC
:104C4C00D70223960703239707029308F0072398AC
:104C5C0007022392E7042393E704239FE70423909E
:104C6C00E7062391E7062392E70623991703130718
:104C7C00C01C239AD702239BD702239C0702239D97
:104C8C000702239E0702239F070223900704239108
:104C9C00D70423940704239507042396D70423975A
:104CAC00C7042398C7042399A704239A0704239BBA
:104CBC000704239C0704239DC704239EC704239346
:104CCC00A706239407062395070623960706239722
:104CDC00B7062398B70623990706239AE706514788
:104CEC00239DE7067D57239B0706239C0706239EDF
:104CFC00D706239F0706239007092391E708828094
:104D0C00011126CAAA84214522CC06CE2E8432C695
:104D1C0036C43AC2EFE02FDF1DC9A2461247324615
:104D2C00930700FD2300F5009947A300950023018C
:104D3C00F5002303D500A303E5002312C500AA85C3
:104D4C0022856244F240D24405616FE0EFEAF24002
:104D5C006244D2440561828023A4A190828023A660
:104D6C00A190828023A8A190828023AAA190828006
:104D7C00011122CC4AC806CE26CA2A890144B304A2
:104D8C0089006368B400F2406244D2444249056130
:104D9C0082802EC6EFE0AFFE93170501C183A1837D
:104DAC00B2452380F4009307140093F7F70F8504A2
:104DBC0063F9B700CA9709042380A7001374F40F92
:104DCC007DBF3E847DBFC16717F5FF1F0355E521ED
:104DDC00FD176304F502411117F6FF1F03468636D3
:104DEC009385819106C6EF80B075B240FD5717F7D9
:104DFC00FF1F231CF71E41018280828009C92515E3
:104E0C001375F50F1335850E13451500828001457A
:104E1C00828023900500C9C6797122D426D24ECE49
:104E2C0052CC5AC806D64AD056CA5EC63684328A86
:104E3C00AE892A8B814463F34407B307940083C77C
:104E4C000700138914004209939A070193DA0A01A7
:104E5C001359090163840A04CA976341FA04B3071E
:104E6C00240183CB07005E85513F0DC99387FAFF60
:104E7C002390F90063906B03130519002295B2502F
:104E8C00225492540259F249624AD24A424BB24BD2
:104E9C0045618280D694C204C18071BF0145C5B7FB
:104EAC0001458280411126C2AE8422C497F7FF1FB0
:104EBC0023A4C71497F7FF1F23AEB71297F7FF1F52
:104ECC0023A8A7122A8441469305F00F26854AC0D1
:104EDC0006C60549EFE0DF8C631E250397F7FF1F1D
:104EEC0093874710884BC145613541469305F00FB8
:104EFC002285EFE0FF8A854463169502224497F7DA
:104F0C00FF1F9387270EB24092440249C847C14500
:104F1C004101B9BD414681452685EFE07F88E31606
:104F2C0025FD6DBF414681452285EFE07F87E30774
:104F3C0095FCB240224492440249410182804111C5
:104F4C0022C426C22E84AA8413060002814517F5BA
:104F5C00FF1F1305250906C6EFE0EFF097F7FF1FBB
:104F6C00A383970897F7FF1F2380871EEFD0601E3F
:104F7C00854719C181474945B240224417F7FF1FA5
:104F8C002302F706924441018280814781CD19C9E1
:104F9C008547631BF50083C7550093E707FCA38285
:104FAC00F50085473E85828089476317F50083C7E6
:104FBC00550093F7F703E5B70D478547E314E5FE76
:104FCC0003C755001377F70313670704A382E500A3
:104FDC00D1BF81478DC105C103C755009306000C95
:104FEC0085471377070C6308D700930600048D4799
:104FFC006303D70089473E858280411122C4005D3E
:10500C0006C626C21DC0AA84085019C1EF80A21979
:10501C00485019C1EF802219085419C1EF80A21809
:10502C002285EF80421823AC0402B2402244924401
:10503C004101828009ED97F7FF1F83C7C7FA17F567
:10504C00FF1F1305A5FB81CB1385818F828017F57C
:10505C00FF1F1305A5FA828017F5FF1F0345A5F85E
:10506C00828097F7FF1F9387E7F7C847828097F7EF
:10507C00FF1F938727F7884B828097F7FF1F938733
:10508C0067F6DC4B8843828097F7FF1F938787F581
:10509C00D84B1C4385071CC317F5FF1F0345B5F4FC
:1050AC009307F00F6305F50091656FE05F858280D3
:1050BC00011122CC06CE2E8432C6EF80107A914795
:1050CC00B245631FF500938741919C438DC303A3A5
:1050DC000700630E030022856244F24005610283DF
:1050EC009387C1909C4381C703A34700DDB7F2406F
:1050FC006244054505618280011122CC2A84035546
:10510C00450006CE26CA4AC84EC6EF80F05335C5B8
:10511C002A89834405008349C500C5354A85EF902B
:10512C00803103554400EF80106F83C70192B1CBDF
:10513C006399970483C511922685EFF01FA419E19A
:10514C002380019203554400EF8030719147631F17
:10515C00F5000357440097F7FF1F83D707E9631740
:10516C00F700FD5717F7FF1F2311F7E8F2406244D1
:10517C00D2444249B2490561828081499304F00FBF
:10518C006DB79307F00FE38FF4FA83466400035670
:10519C004400034524004E87A685EFF07FB65DB72B
:1051AC0079715EC6AA8B2E8552CC56CA5AC806D6C1
:1051BC0022D426D24AD04ECEAE8A328B368AEF809B
:1051CC00B04869C9045D2A89F1C49C50614599C3F2
:1051DC00130540039C5481C7510542054181630569
:1051EC000A00710542054181DC5081C75D0542050D
:1051FC004181EFE04F912A8451CD61468145EFE02A
:10520C008FC697F9FF1F83C9E9E2639409008349AC
:10521C000900930700FD2300F400A947A3007401C3
:10522C002301F400230364018C5023125401130551
:10523C00840181C908C47146930A4403EFE08FBB13
:10524C0056858C5481C948C45146930A4501EFE0F8
:10525C006FBA5685630A0A0008C87146D285930A4C
:10526C00C501EFE02FB95685CC5089C548C85D46BD
:10527C00EFE04FB8A2854E85EFE00F982254B25064
:10528C009254F249624AD24A424BB24B4A85025975
:10529C004561A5B3B250225492540259F249624A64
:1052AC00D24A424BB24B4561828001114EC6AA894B
:1052BC002E854AC806CE22CC26CA2E89EF80D0383D
:1052CC0031C597F4FF1F83C4E4D699E083440500ED
:1052DC001945EFE04F832A8415C981451946EFE043
:1052EC008FB8930700FD2300F400B947A3003401E5
:1052FC002301F40023122401A2856244F2404249A6
:10530C00B2492685D24405616FE00F8FF2406244AA
:10531C00D2444249B2490561828039715ECEAA8B72
:10532C002E8526DA4ED652D456D25AD006DE22DC40
:10533C004AD8AE84328BB68A3A8ABE8942C6EF808E
:10534C00B03031C92A894145EFD0FFFB2A8421C5F1
:10535C0041468145EFE02FB117F5FF1F034585CD81
:10536C0019E103450900930700FD2300F400BD4734
:10537C002301F400B247A300740123129400230408
:10538C006401A304540123054401A30534015CC446
:10539C00A285EFE06F86F2506254D2544259B25952
:1053AC00225A925A025BF24B21618280797126D289
:1053BC00AA8439454AD04ECE06D622D42EC6B289FE
:1053CC003689EFD05FF415CDB2459307000D23104D
:1053DC00F500B1472A842312B5002301F500CE85D0
:1053EC0019051946EFE00FA123062401A2852254CA
:1053FC00B2500259F24913F5F40F925445616FD033
:10540C00BFFFB250225492540259F2494561828036
:10541C0017F7FF1F034737BD9307F00F630BF70612
:10542C00411126C2AA84394522C406C64AC0EFD00F
:10543C009FED2A8429C9930700FD2300F500A300E2
:10544C0095002301050097F5FF1F938525BB0D05DE
:10545C001946EFE02F9A17F9FF1F1309A9B88357C4
:10546C008900A28517F5FF1F0345F5B72315F40036
:10547C00834719002306F4002244B24092440249A7
:10548C0041016FD07FF7B24022449244024941015E
:10549C008280828001115AC02A8B314526CA4EC6A1
:1054AC0052C456C206CE22CC4AC8AE84B28A368AC0
:1054BC00BA89EFD05FE535CD2A842685EF80D018E8
:1054CC0011C50347C500A1476314F70417F9FF1F63
:1054DC00034979B1930700FD2300F4009D47A30015
:1054EC0064012301F40023129400231354012314A8
:1054FC00440123153401A2856244F240D244B249DE
:10550C00224A924A024B4A85424905616FD0DFEE2E
:10551C0017F9FF1F034959C3E31E0BFA9387C19C6C
:10552C009C439C47C5DBCE865286D68526858297C2
:10553C0055B7F2406244D2444249B249224A924A97
:10554C00024B05618280011122CC2A84214506CEB2
:10555C002EC6EFD05FDB21C1B245930700FD2300BF
:10556C00F500C5472301F50083C73500A301F500FD
:10557C0083D745002312F50083C765002303F5008C
:10558C0083C77500AA85A303F50022856244F24007
:10559C0005616FD07FE6F24062440561828039710B
:1055AC0062CC2A8C594526DA4AD84ED652D456D2D9
:1055BC005AD05ECE06DE22DCAE8432C636C4BA8B3E
:1055CC003E8BC28A468A8359010403494104EFD0B9
:1055DC009FD325C53246930700FDA2462300F50054
:1055EC009547A301C500A30085012301F5002A847A
:1055FC00194611059DCEB685EFD0DFFF2306640159
:10560C00230A240123157401231754012318440180
:10561C0023193401A2856254F2504259B259225ACC
:10562C00925A025BF24B624C2685D25421616FD0A8
:10563C00BFDC8145EFE02F83D1B7F2506254D254D6
:10564C004259B259225A925A025BF24B624C216176
:10565C00828097F7FF1F83C707999DC74111AA85C1
:10566C0019461385818F06C6EFD0DFF89385818F9D
:10567C0017F5FF1F03452597EFF03F91B2401385B7
:10568C00818F41016FC0B02D0145828017F7FF1F3C
:10569C00034777959307F00F6303F708411126C270
:1056AC00AA84294522C406C6EFD0FFC52A841DCD85
:1056BC00930700FD2300F500A1472301F500A3008B
:1056CC00950097F7FF1F9387E79183C72700938572
:1056DC00818F1105A30FF5FE1946EFD0BFF1A285FE
:1056EC0017F5FF1F03453590EFD01FD117F7FF1F9C
:1056FC000347678F8D47631FF700938701919C4386
:10570C0091CB03A38700630703002244B240924469
:10571C0041010283B240224492444101828017F736
:10572C00FF1F0347478C8D47631AF700938701913E
:10573C009C4389C703A38700E31D03FC8280797116
:10574C0022D406D626D24AD04ECE52CC094445C9D4
:10575C002A89035505002E8A5144EF80E06EAA84F5
:10576C0059CD97F7FF1F83C7279EFD1793F7F70FA8
:10577C00054749446375F7080347C500A1476314FF
:10578C00F700631E0A069C5C4544B5EB9165938556
:10579C0045711305C002EF70F21188DCAA894D44E3
:1057AC0039CD1306C0028145EFD0FFEB83570900BA
:1057BC009386490036852391F9007146930549007B
:1057CC0036C6EFD03FE389472380F90003C5C400F8
:1057DC00B24603560900611597F5FF1F83C58596E0
:1057EC0013351500EF9050032A8463060A00D28506
:1057FC002685EF80307201C42685EFF01F8022854C
:10580C00B250225492540259F249624A4561828044
:10581C0097F7FF1F83C74793FD1793F7F70F0547BC
:10582C006376F708894741C6011122CC26CA4AC8BB
:10583C004EC652C406CEAA89368AB2842E89EF800F
:10584C00A0602A84D14739C5485519C1EF70B215EB
:10585C00F1452685EFD05FE748D4CD4705CD83468B
:10586C00C40021478147639FE600630D0A0003478C
:10587C00A5010356050193062501AA854E85EF80E7
:10588C00F070AA8703474400630F09001367670091
:10589C002302E400F2406244D2444249B249224A13
:1058AC003E850561828013674700DDB7C9473E8599
:1058BC0082809307000463EBA70097E7FF1F938791
:1058CC00677406053E9503550500828041657D157C
:1058DC008280011122CC2A842E8526CA06CEAE8463
:1058EC00EF8080560DCDB7470F009387F7230945FE
:1058FC0063E2870281450A854146EFD0DFD6A68553
:10590C00231081000A85418023018100A30101003D
:10591C00EF90205DF2406244D2440561828049459B
:10592C00D5BF97F7FF1F2380A78282806F90606995
:10593C00797152CC2A8A328522D426D24AD04ECEC4
:10594C0056CA5AC85EC606D662C4AE8BB28A368BAD
:10595C00BA843E89C2894684EF80004F15C92A8CCF
:10596C0063140A0213774B008347450015CF93E766
:10597C0027012302FC008DEC631C0902639A0902C7
:10598C0005E8ED9B2302FC00832B8C0363990B062B
:10599C00B250225492540259F249624AD24A424BB2
:1059AC00B24B224C45618280F59B93E70701D1B73E
:1059BC0093E747002302FC0011C81C484146A2850E
:1059CC002324FC0213058C01EFD0DFC2639F0B0074
:1059DC00C5DC0325CC0219C1EF70E27CF1452685AC
:1059EC00EFD09FCE2326AC0245B7E30F09F8032571
:1059FC00CC0219C1EF70227BF1454A85D5B79DC009
:105A0C0083A70B0289EB9165938535717145EF7016
:105A1C00626A23A0AB0203A50B0209C57146A685D9
:105A2C00EFD05FBD6384090283A74B0289EB9165BC
:105A3C00938525715D45EF70E26723A2AB0203A548
:105A4C004B0209C55D46CE85EFD0DFBA1DC083A7DA
:105A5C008B0289EB9165938515715145EF708265C9
:105A6C0023A4AB0203A58B0209C55146A285EFD036
:105A7C007FB82254B2509254F249B24B224CCA868F
:105A8C005A860259424BD6855285D24A624A4561A2
:105A9C006FF00FF1011126CA52C406CE22CC4AC8AF
:105AAC004EC62A8AAE84EF80203A35C1AA89394580
:105ABC00EFD07F852A8421CD17E9FF1F0349895731
:105ACC006314090003C909009307000D2310F400A7
:105ADC00AD472301F4009385690013053400194682
:105AEC00EFD05FB193F71400858085882306F4000E
:105AFC00A306940023154401A2856244F240D244CB
:105B0C00B249224A4A85424905616FD0FF8EF24064
:105B1C006244D2444249B249224A05618280011151
:105B2C004EC652C456C206CE22CC26CA4AC8AA8A2F
:105B3C002E8AB289EF8040313DC52A891305C002F7
:105B4C00EFD06FFC2A8425C197E4FF1F83C4844ED9
:105B5C0099E0834409009307000D2310F400E947F2
:105B6C002301F40093056900130534001946EFD0A6
:105B7C007FA8D285231554011305C4004146EFD0EC
:105B8C007FA7CE851305C4014146EFD0BFA6A285E1
:105B9C006244F2404249B249224A924A2685D24492
:105BAC0005616FD07F85F2406244D2444249B249CC
:105BBC00224A924A0561828093870190884311C9D9
:105BCC00411106C6EF70225EB24023A00190410144
:105BDC0082808280011106CE22CC26CA4AC82EC6EB
:105BEC00EF80802629CDB24517E9FF1F0349894470
:105BFC00AA840CD563140900034905004145EFD074
:105C0C008FF02A840DCD9307000D2310F500A547C6
:105C1C002301F50083C75400938564001105A30F7D
:105C2C00F5FE1946EFD01F9D9C54A285F2405CC432
:105C3C006244D2444A85424905616FD0EFFBF24081
:105C4C006244D2444249056182801D71A2CC86CE49
:105C5C002A842EC6EF80401F05CD8346C500114710
:105C6C00AA8749456392E6029C5FB24599C383C5F6
:105C7C0067012308B10097A600009386662C1008D4
:105C8C0089452285EF801020F6406644256182808C
:105C9C005145DDBF97E7FF1F83C7074BFD1793F7F0
:105CAC00F70F05476378F704894731C6411122C4C1
:105CBC0026C24AC006C6B2842E89EF80E0182A8418
:105CCC00D14715C1630809008347450093E72700B6
:105CDC002302F5004146A68513058401EFD09F9160
:105CEC009C481CD48147B2402244924402493E85D0
:105CFC0041018280C9473E858280797122D406D6C3
:105D0C002A842EC6EF80401401CDB2452285230E85
:105D1C00B1006C08EF80901CB25022544561828017
:105D2C005145DDBF6F80A028C1671387E7FF6394DF
:105D3C00E5029387C1909C4391EB4945828049458C
:105D4C00B2402244924402494101828003A30700DD
:105D5C00E30503FE0283411122C426C24AC006C6D3
:105D6C00FD172A892E84B2846395F5029387C1901E
:105D7C009C4391CB9C4381CB829711E5238021934B
:105D8C00A380919275BFA6854A85EFE01FDF4DF980
:105D9C00F5B72E85EF80400B5DD1834705000D458F
:105DAC00E39027FB22852244B2400249A685924407
:105DBC0041016FC0C0379307000463E2A70641118D
:105DCC00C16722C406C626C2FD172A840945638210
:105DDC00F502C547AE846313F4022E85EFC0A03CD8
:105DEC0017E5FF1F1305052206042A9423109400BF
:105DFC000145B24022449244410182809307A003A2
:105E0C006316F4002E85EFC04033D9BF9307B0035F
