:040000006F00D0714C
:1000040000000000000000006C030020E802002053
:10001400A9BDF9F304500100000000000000000035
:100024000450010004500100000000000000000022
:100034000450010000000000045001000000000012
:100044000000000004500100000000000450010002
:10005400045001000450010004500100000000009D
:1000640004500100000000000000000004500100E2
:1000740094030020045001000450010004500100C6
:1000840000000000045001000000000004500100C2
:100094009307000C01116318F50493078008F3B764
:1000A400078093F787083EC00F100000B717004081
:1000B400130770052380E704130780FA2380E704FD
:1000C4000F100000F83713670704F8B79827136771
:1000D400070C98A7238007048247F3A707800F1013
:1000E400000005618280B7170040B827118B69EBC7
:1000F40083C6E7041307800893F6F60F7336078068
:100104001376860832C20F1000001308700523808E
:100114000705930580FA2380B7040F10000003C677
:10012400E704136636002387C704B0271366460026
:10013400B0A7238007041246732606800F10000020
:1001440090271376F60F73370780137787083AC41E
:100154000F100000238007052380B7040F10000050
:1001640098271367070C98A723800704A247F3A7CF
:1001740007800F100000A5470100FD1793F7F70F44
:10018400E5FF93078008F3B7078093F787083EC617
:100194000F100000B7170040130770052380E70411
:1001A400130780FA2380E7040F10000090A7238729
:1001B400D70423800704B247F3A707800F10000079
:1001C4009377050C130700046391E70A93078008EB
:1001D400F3B7078093F787083EC80F100000B717DE
:1001E4000040130770052380E704130780FA238077
:1001F400E7040F100000B827854613670701B8A766
:1002040037270040A303D7808346578093E606012F
:10021400A302D78023800704C247F3A707800F10E7
:10022400000093078008F3B7078093F787083ECE52
:100234000F100000B7170040130770052380E70470
:10024400130780FA2380E7040F100000F8371375B2
:10025400F50F13670704F8B788A7B8471367871F14
:10026400B8C723800704F2478DBD9377F5019DCF6E
:1002740093078008F3B7078093F787083ECA0F10E7
:100284000000B7170040130770052380E704130725
:1002940080FA2380E7040F100000372700408946C6
:1002A400A303D78023800704D24785BF9307800820
:1002B400F3B7078093F787083ECC0F100000B717F9
:1002C4000040130770052380E704130780FA238096
:1002D400E7040F100000372700409D46A303D78092
:1002E40023800704E24715BF411181460146814539
:1002F4001145972000E0E78020E813078008F337D2
:10030400078093F787083EC40F100000B71700401A
:10031400130670052380C704930680FA2380D7044C
:100324000F100000FD55CEB723800704A245F3A5A6
:1003340005800F10000073370780137787083AC6CB
:100344000F1000002380C7042380D7040F1000007F
:1003540003C76704136717002383E7042380070494
:10036400B247F3A707800F10000001A001A04111BC
:10037400B7170040985F3AC6945F3247E39CE6FEA5
:10038400324541018280B7E700E03707001023A01F
:10039400E7208280B7170040130700032388E70291
:1003A400854723AAF18E73002030411106C6012926
:1003B400FDBF230304801547A2872303E4800100C3
:1003C40001002302A48003C7678062076187E34CAE
:1003D40007FE2382A780228783476780E207E1879D
:1003E400E3CC07FE82802303048015472303E480C3
:1003F400010001002302A480828083076480E3CE8D
:1004040007FE23030480828083076480E3CE07FE13
:1004140003454480828083076480E3CE07FE230281
:10042400A4808280411126C44AC24EC006C61377F6
:10043400F50BAD47AA892E8995446306F700194543
:100444005D37653F8D444E85793FFD59FD146398B2
:100454003401B240A24412498249410182801355B9
:1004640009011375F50F453F2209CDB7011126CCBB
:1004740006CEB704080051371545B53771376937CB
:100484002AC6A53F32459377150089EB13651500FD
:100494001375F50FF240E24405618280FD14E9FC16
:1004A4000145CDBF411106C6B717004013077005BB
:1004B4002380E704130780FA2380E70403C7470473
:1004C4001305F00F1367070E2382E70491472303F4
:1004D400F480C535B24041010DB7011126CC4ACA9A
:1004E4004EC852C606CE2A89AE89B284554A5D3FAB
:1004F40091E82137F24026855249E244C249324A02
:1005040005618280CA850945313F910903A7C9FF66
:1005140091472320E48003076480E34E07FE23030E
:100524004481FD17EDFBFD14110981C49377F90F84
:10053400E9FF2D3F55FDFD5475BF011126CC4ACA74
:100544004EC852C656C45AC206CE2A89328A8D492A
:10055400913FC164C16A056B9387F4FFB3F7270128
:1005640099E363719A02FD199180E39709FE71354D
:100574000145F240E2445249C249324AA24A124B6E
:10058400056182801305800D638854011305000200
:100594006384640113051008CA856935C13D09C522
:1005A4002699330A9A4075BF7D55E1B7011106CEED
:1005B40026CC4ACAB2844EC82AC62E89E5353245AD
:1005C400FD14FD59AA852D45B13D639A3401353595
:1005D400F24026855249E244C249056182802D35A4
:1005E40093F7340091EB83260480032709009307D3
:1005F4004900E39EE6FC3E89FD14C1BF011106CE0D
:100604002AC64D353245C533F2400561FDB30111AB
:1006140006CE26CC4ACA4EC852C6AA8956C42E89CA
:100624005135CE852D45FD3B81448D4A214AE93B18
:1006340063965401832704802320F9008504E398FA
:1006440044FF8327048013972901635C0700231266
:10065400F900F240E2445249C249324AA24A0561D1
:1006640069BB2322F900F5B7411106C626C44AC264
:100674004EC0AE89053D81451305B0046533BD44C4
:100684007D59593393F77400CE9703C70700FD14BF
:10069400398D2380A700E39624FFB240A244124977
:1006A4008249410199BB411106C6ED3B1305600621
:1006B4001D3BA133130590093D33B240410135BBC5
:1006C400411122C406C69727000083A7A7B4138448
:1006D400C18191C782971C40AA971CC021A083A7FF
:1006E400C191EDFB0840B74703009387D73F33051B
:1006F400F502B7A72600938737ECB2403E9508C0B1
:1007040022444101828037E700E01C43B706200001
:100714002320D718F58F0F10000019C191C111E6DD
:1007240037E700E02320F71082802E960F70B65032
:10073400D5BF411126C2B7E400E022C48040B70609
:10074400200006C6758C23A0D4180F10000011C118
:1007540011EAB7E700E023A08710B2402244924494
:1007640041018280971000E0E780408823A0841034
:10077400EDB737E700E01C43B70620002320D71865
:10078400F58F0F10000001C599C1014711EA37E741
:1007940000E02320F710054582800507E309E6FE03
:1007A4003308E500B386E500034808009422E30615
:1007B400D8FE37E700E02320F710014582807971E5
:1007C40022D406D626D24AD04ECE52CC56CA5AC8C5
:1007D4005EC662C4138441911C40D5E7972400008F
:1007E4009384449F13894192032709009C209430E9
:1007F4000146B3A5E7208E21C9C911C29CA0882057
:10080400636CD508972700002386079C1C40F1E7FA
:100814009389C19183A70900E9C3138A0191032431
:100824000A0045CC972B0000938B0BA083A74B00A9
:1008340037C9C901014B9CC41309F937972A000031
:10084400938A4A9B3E20CDEB5C4463140B0A23201D
:10085400FA00032CC40022856D23628465F4972773
:10086400000083A7679BB5CB2254B250925402591F
:10087400F249624AD24A424BB24B224C4561175369
:1008840001E06700635D829781BF850793F7F70FE7
:100894000546E3E0D7F69DB73327E5200E23231062
:1008A400070097270000239A079283A70192B34772
:1008B400F5209C4382979C2083260900FA20B3A646
:1008C400D72092223377E540518F9AA299C38507A6
:1008D4009CA098209C30E377F7F2B25022549254B3
:1008E4000259F249624AD24A424BB24B224C456108
:1008F40082802326FB00B1BF83A7090082971C4492
:100904003307F5406376F50003A74B001D8F2A9744
:100914006369E9022E200820975001E0E780C09324
:100924005C409DD3104483A64B00B2973E8763E49A
:10093400C70063E4D7003387D74018C4228B4044F0
:1009440031BF03A74A027DDB63E9A7023385A740D1
:100954001C2099EF03C76A0183A64B005117B30704
:10096400A7003E8563E4E70063E4D7003385D740FE
:100974009C44E375F5FC88C4D1B703A74B00BA9730
:10098400F1B7B7C700401387C7201443139626490D
:1009940010C30F1000009387872617250000032536
:1009A400A5849C436A0514C393C7F7FF99835D8D9F
:1009B4008280411126C29384819A984006C622C43B
:1009C4003C4393D76748B1C3930700063CC39727BA
:1009D400000083C7679693F70704172400001304E5
:1009E400A49599CB9727000083A70784829748C4CE
:1009F4001C2093F7F70B1CA01E2481CB03A7419C5A
:100A04007CD397270000239D079298403C4393D7BB
:100A1400474899C7C1473CC383A7419C23A2070603
:100A240003A7419A5C4393D7174899C3232207002D
:100A3400B2402244924441018280A53F7300203099
:100A440083A6419C172700001307078F1C23858B5F
:100A540091E71C33858B99E3FC52EDFB828097165A
:100A6400000093862679DC5285C7B7E700E0370794
:100A7400200023A0E728B7F700E0938707D0984B1E
:100A84006D9B98CB984B1367870398CB73005010DA
:100A940097270000A382078A1387419C1C430546BD
:100AA40090C3DC5299CBB7F600E083A706D193E755
:100AB400870023A8F6D0730050101843972600002F
:100AC400938686879C22858B99E37C53E5FF8280FD
:100AD4001831AA869307270009CB03A5419C28490E
:100AE4001355554819C19307670013883700369882
:100AF40003470800854805451377F707631B170567
:100B04003387F600830727002386F19A91C19CA1BD
:100B14001C331823A207D98F93975760918713F733
:100B2400072019C393E707C01387E19A1EA301C6E0
:100B3400939757601EA2883209CD83A7419CBC4B72
:100B4400014593D7574891C78307080063D307002B
:100B5400394582800111971700002380077E4AC817
:100B640097170000A38B077C1719000013098968E5
:100B74008327490222CC06CE26CA4EC62A842E8555
:100B8400B28585C7B7E700E03707200023A0E72830
:100B9400B7F700E0938707D0984B6D9B98CB984BA1
:100BA4001367870398CB7300501085479389819A04
:100BB4009384419C6315F4060146974001E0E78065
:100BC400007C83A7090098409C43A1838D8BA9E7EF
:100BD400930760197CD38327490299CB37F700E048
:100BE400832707D193E787002328F7D07300501099
:100BF400944017170000130727743C23858B91E753
:100C04003C33858B99E3FC52EDFBF2406244D244C1
:100C14004249B249056182809307E01B65BF974052
:100C240001E0E780206F83A7090098431317872901
:100C340098C3D85B719BD8DB59FC97170000A38D30
:100C4400076E9C40094798C379B703A7419C1C478A
:100C54005447F58FB70604001CC7FD8E91CAFD5694
:100C640034D7171600001306E656544A850654CAAC
:100C740093F6870095C29716000083C6066C93E628
:100C8400160017160000230AD66A03A6819A545A3E
:100C9400F19A93E6160054DA93F6170095C2971664
:100CA400000083C6766993E6160017160000A305B4
:100CB400D66803A6819A545AF19A93E6160054DA38
:100CC40093F667009DCE918B83A5819A97160000B9
:100CD40093868666ADCF9C41A1838D8BB5E7DC4AB4
:100CE4009C43A18313F6F70F21E2930770035CCFB3
:100CF4009C2293E717009CA2DC59F19B93E7170011
:100D0400DCD983C7019CB9CF2380019C83A7C19BF5
:100D1400A1C7411106C6829783C7019C99E323AEFC
:100D2400019AB24041018280304B13F5C70F13760C
:100D34000602498E01C69307500455BF93F7F70F77
:100D44008A079387770365B7930760044DB7BC326E
:100D540093E71700BCB24DB783C7019C81E723AE6C
:100D6400019A82808280D5357300203003A7819A4E
:100D740014433706FDFF9385419D7D169C4103A8CE
:100D8400419CF18E2DC114C31443F18E9396162900
:100D940014C39847B7061300558F98C7985713176D
:100DA400B72898D7B70703005D8D2328A8049307B5
:100DB40080020100FD17F5FF9C41D8471317C7288F
:100DC400D8C7D8471317C748D8C701000100010086
:100DD40001009C41D8471317C728D8C79857131741
:100DE400B74898D782809396062914C39847B706C4
:100DF400CEFFFD16758F98C7B70703002328F804A4
:100E04008280B7E700E003A807003707200023A08B
:100E1400E7183378E8000F10000003AEC1A403A361
:100E240041A4F287814663F6670883A807006367D5
:100E3400F50863E5A80813878700636CE506F223C9
:100E4400216705076317E6001386F1981822050742
:100E540018A2971500009385E537D223DA2123934E
:100E64000700329733470708DAA16381C70303A554
:100E740081A4630DF500EA2211E9DE2223A0160104
:100E840021073E962106D2A2DAA1B68798436302CF
:100E9400670283A681A4630ED700762399EAD6233A
:100EA40052231843A106B296D6A398C3DE21A10704
:100EB400DEA1B7E700E023A007118280BE86C687C3
:100EC4009DB703A7419C3C5BFDFF010001008280AC
:100ED400011122CC26CA06CE2AC42EC6171400003D
:100EE40003248459854419E001450DA09C841830DD
:100EF400858B6304F7000044FDB719469305A100F0
:100F040013052400EFF0FF86E31795FEF2406244D8
:080F1400D24405618280000057
:100F1C00971100209381C1A2172100201301C10D4C
:100F2C001305400097F5FF1F9385050D170600204C
:100F3C00130606FE63FAC5008322050023A05500A4
:100F4C0011059105E3EAC5FE17550100130545543B
:100F5C00970500209385C5FB1386418C63FAC50069
:100F6C008322050023A0550011059105E3EAC5FE77
:100F7C001385418C97150020938505516377B50037
:100F8C00232005001105E36DB5FE9302500273900A
:100F9C0002BC8D42739042808542739012BC9302C6
:100FAC0080087390023097F2FF1F9382E20493E261
:100FBC00320073905230971200009382C2147390D7
:100FCC001234730020302A8309CA8383050023005E
:100FDC0073007D16050385056DFA82802A8311C680
:100FEC002300B3007D16050365FE82803717004091
:100FFC008347E70412054111BD8BC98F93F7F70F97
:10100C0093068008F3B6068093F6860836C60F1052
:10101C000000930670052300D704930680FA230082
:10102C00D7040F1000002307F70423000704B2476E
:10103C00F3A707800F10000041018280011126CA1E
:10104C0006CE22CC8947B314A02863F9A700954794
:10105C0063EAA70A93042500B3149028B71700403D
:10106C0003D70705B166558F2398E704130780084B
:10107C0073370780137787083AC60F1000001307E1
:10108C0070052380E704130780FA2380E7040F1010
:10109C00000003C737051375F50F13670708A389FD
:1010AC00E704A389A70403C7370513670702A389BD
:1010BC00E70423800704B247F3A707800F10000052
:1010CC0081470146B716004003D706051317576032
:1010DC006352070403D7060583C6260513948700BD
:1010EC00931727013694C9833A043E94C12C335488
:1010FC009402F240D24433558502624423A2A18C5F
:10110C0005618280994793040040E309F5F4930448
:10111C00F07FA9B703C726059375F70F6373C70054
:10112C0085072E8655B741113A8E2A838148930E36
:10113C00407E130F0019930F400663EF6E141307D4
:10114C0000193377E502854E0D4F994FFD4263E14F
:10115C00BE1861477D1603A5418C4696AA85B3F649
:10116C00E602130780703387E602F946330EDE027F
:10117C0093D61700858B7297369791E38145B30709
:10118C00A602A166FD161306302A13D8F700F58FB8
:10119C00B387C7021166B385A5023307A702B295C0
:1011AC0013F6F71F1E06BD81A583F98EB3A6C620C4
:1011BC003D83AE96BA9713D70601BA972D671307DE
:1011CC00078C33D6E702B3C6060833F7E70242961C
:1011DC004207558FB716004083C7F60293F70708EE
:1011EC00DC838C8383C7F60293F70708E396F5FE3E
:1011FC009C83B71600406381071293078008F3B7EE
:10120C00078093F787083EC40F100000B717004003
:10121C00930670052380D704930680FA2380D704A5
:10122C000F100000D0DB83C6170393E60608A388D3
:10123C00D70223800704A247F3A707800F100000F2
:10124C001166B71700407D16D45BCC5FAD8EF18E66
:10125C00E5FE93068008F3B6068093F6860836C63C
:10126C000F100000930670052380D704930680FAB4
:10127C002380D7040F100000D8DB03C717031367B4
:10128C000704A388E70223800704B247F3A707806B
:10129C000F100000410182807D133377E3031308A4
:1012AC00E01601CF3377F3031308D01619C7137860
:1012BC003300133818001308D816C298BDBD13F8A4
:1012CC001500F91563FBBF029305E801AE989A85EA
:1012DC001383F5FFE395E5FF854501CF1308400621
:1012EC00337805038145630608009375350093B583
:1012FC001500F105AE989A8599BDB3850241DDBF05
:10130C0083C7F60293F70708DC838C8383C7F60246
:10131C0093F70708E396F5FE9C83FDD3F9BD0D0604
:10132C00719A81473307F5006393C7008280144399
:10133C003387F500910714C3F5B7914763ECB704F5
:10134C009737010093874736B3C5F52098413E97F0
:10135C00B71700409387470B028794433717004019
:10136C00B3F6A64094C39306070B9C42B3F7A74071
:10137C0019A8944337170040B3F6A64094C39306BC
:10138C00070B9C42C98F9CC29307070A984333777B
:10139C00A74098C38280944337170040C98ED9B7B1
:1013AC0098433377A74098C3B71700409387070A31
:1013BC009843498FF9BF9843498FF5B7B717004049
:1013CC0098279306000C1377070C6315D70003A519
:1013DC00418C82809827930600041377070C6310C6
:1013EC00D702942713070002FD8A99C298277D8B98
:1013FC003745C323130505603345E50282809427E6
:10140C0013070002FD8A99C298277D8B3755E80196
:10141C0013050580D5B7B7F700E088478280328581
:10142C00814737370040A14663C3A700828003463B
:10143C00B740E30ED6FE3386F50010228507230451
:10144C00C740DDB797060020938686CFAA878842CF
:10145C001717002013074703AA9763E9E7000A87C9
:10146C00130707FC6364F7009CC282807D55828061
:10147C00411122C406C62A8491372947B307E502D5
:10148C00B2408D83B3D7870222449507B3D7E702C6
:10149C0037370040B3C707082316F7404101828055
:1014AC00716541111305052006C6D937B7370040C1
:1014BC00130710F82381E7400D47A381E74013077A
:1014CC000004A380E74005472387E740B240410171
:1014DC008280371700403E2FB3C7070893F707FCED
:1014EC00B3C707083EAF09C93E2F8E055D8ED18D5F
:1014FC00B3C505082EAF828082802D4825E7328542
:10150C0090210947631DE604D841411106C61023FA
:10151C0018332207518F4166130846FE63030703F5
:10152C00636CE8007D07054633470708637BE600DC
:10153C0023900600294805A01516E31BC7FE154786
:10154C0011A00547CC4533D6E70A92A297F0FF1FAE
:10155C00E780E01A0148B240428541018280239025
:10156C000600054842858280011106CE22CC26CA8F
:10157C004AC84EC680251374040255E083C9050081
:10158C000948AE87639F090903A84500B2843689D0
:10159C0003430800034818002208336868004163BD
:1015AC00130E13FE6304C8030D13630E68048D67DA
:1015BC009387279029446310F8046244F240D24484
:1015CC004249B249854705616F30306429EF0547C0
:1015DC00636DD704C8470546A68597F0FF1FE780C3
:1015EC000012814983A7418E99C79C4389C74A86BB
:1015FC00A6854E858297F24022856244D2444249A8
:10160C00B2490561828005E305476360D702C8478C
:10161C000546A68597F0FF1FE780600EE1B72144D1
:10162C00D9BF0544C9BF2D44F9B73544E9B7C167E3
:10163C00F917630CF502411122C406C685472A84AA
:10164C00639AF50022852244B2409385018D4101B5
:10165C006F50407A89476396F5008545EF60300AF4
:10166C0075D1B2402244410182808280411122C452
:10167C002A8441659385018D7D1506C6EF508077D0
:10168C00170500001305E5FA0588EF60607F05C0BB
:10169C002244B24097060020938686874146C54572
:1016AC00170500201305858741016F50E06AB24091
:1016BC00224401454101828009C523A2A18E014526
:1016CC008280454582801147636EA70697360100DC
:1016DC009386C6FE3345D52018414111AE87369707
:1016EC0006C6B285028705476145639AE700054641
:1016FC001385018E97F0FF1FE78060000145B24013
:10170C004101828005476145E39BE7FE0546138551
:10171C00C18DCDB705476145E393E7FE05461385BB
:10172C00818DC9BF05476145E39BE7FC05461385E1
:10173C00418DC9B715476145E393E7FC1546138501
:10174C00818C4DBF09458280411122C42E84938522
:10175C00018D26C206C6AA84EF309046058919CDA4
:10176C009707002083D727871EA0A2852244B2406A
:10177C0026859244014641016F40500AB2402244F2
:10178C009244494541018280B2874111139625004C
:10179C00BE8506C66936B240014541018280011101
:1017AC0022CC26CA939625002A84B284AA850146A7
:1017BC00054506CE36C6EF00301BB2462686A285FE
:1017CC000945EF00701AF2406244D24401450561AC
:1017DC0082805D71A2C486C62E849397556063DDAA
:1017EC000700EF00303819C1EF00902C1315F46886
:1017FC00B64026446161828093F7150013C515002D
:10180C00E5FB8967ED8FB1C3EF8030701945EFF0C0
:10181C00FF82AA8523A8A18E0A85D12A51468A85E2
:10182C006810EFF04FFA6810EF10204CED2437F6EB
:10183C000200239CA18E130606E0896503C5C18EA8
:10184C00EF0050641315D46865B711656D8D4DD1DB
:10185C00173501001305C5E7EF10114B1306006493
:10186C00916503C5C18EEF00F0611315E46849B7AB
:10187C005D715D46973501009385C5E5173501000F
:10188C001305851F86C6A2C497F0FF1FE780E0ED05
:10189C0001E917350100130565E5EF10F14601A0CC
:1018AC00B7F700E023A40700795798CB3D4798C3BE
:1018BC0093078008F3B7078093F787083EC00F1093
:1018CC000000B7170040130770052380E7041307C7
:1018DC0080FA2380E7040F100000B847B70600C158
:1018EC00FD16758FB706000E558FB8C723800704F9
:1018FC008247F3A707800F10000097F7FF1F93870D
:10190C00473423A4F18E130700F8B7E700E0A38A4D
:10191C00E740130640038145680097F0FF1FE780FE
:10192C00C0E097070020938727AA05643EC693075B
:10193C0004E0FC80E17793C7F7802310F102B7B77E
:10194C0003003ECAB7070103938707103ECCED474F
:10195C00FC868547230FF10097070000938707E368
:10196C003EDCB7F5030097070000938787E33EDE64
:10197C00814697070000938747AA5000E105194557
:10198C003ED6EF00607E19464C0013053102EFF095
:10199C008FE3B24791C7BC801304F4BF6363F400B8
:1019AC0001A06800EF10E00EAA8501C917350100EF
:1019BC00130505D5EF10712101A0B64026446161D5
:1019CC0082804111170500001305E5E006C622C40C
:1019DC00EF1080091384C18E08A02D280820224402
:1019EC00B24013060032896541016F00B04917F708
:1019FC00FF1F1307479718C13707C0A858C10567C1
:101A0C001307479C3AA517F7FF1F130747970EA517
:101A1C0018C98280397126DA06DE22DC4AD84ED605
:101A2C0052D493048008F3B7048093F787083EC21E
:101A3C000F10000037140040930970052300340583
:101A4C00130980FA230024050F1000008347F402C9
:101A5C0093E72700A307F402230004049247F3A79B
:101A6C0007800F1000001945EFF04FDD138A018F2E
:101A7C00AA852320AA0017350100130565CAEF10AB
:101A8C00D114814671468545814701471305507E27
:101A9C00EFF06FE983570A0017F7FF1F1307A78CA6
:101AAC003AC6FC8285679387479C3707C0A8FC839E
:101ABC00680097F7FF1F9387878C3AC83ECEEF10CC
:101ACC00E025F3B4048093F4840826C40F100000BE
:101ADC0023003405230024050F1000000100010031
:101AEC008347140393E70702A308F40223000404BA
:101AFC00A247F3A707800F100000F2506254B7E71B
:101B0C0000E03707001023A0E710D2544259B25915
:101B1C00225A21618280411103A5418C06C622C440
:101B2C0026C24AC0EF10510517F9FF1F130949656A
:101B3C002A86AE86032509008325490017F4FF1F6A
:101B4C0013048464EF00914F10405440EF10E125D2
:101B5C0010405440EF1061252A86AE8603250900FB
:101B6C0083254900EF00914DAA842E842A86AE86E7
:101B7C00032509008325490017F9FF1F1309C961C3
:101B8C00EF00D14B97F7FF1F938787609043D443A7
:101B9C00EF10A1210326090083264900EF00A1596B
:101BAC00EF1021719307850CB3C707081305006468
:101BBC0033F5A70AEF1041752686A286EF10E11EB9
:101BCC000326090083264900EF00E156EF10616EF1
:101BDC00B2402244334505089244024941018280B7
:101BEC002A86B305B04017350100130565B46F1094
:101BFC00C17D0DE10111680006CE97F0FF1FE78053
:101C0C0000B017350100130525B4EF10F10FF240A9
:101C1C0005618280828013874190AE870E23639C7E
:101C2C00A50052A3173501001305C5B33E863EA38C
:101C3C0076A36F10817917350100130525B46F1049
:101C4C00B10C1387419056211E236391F6040111A8
:101C5C0006CE22CC1384B1810820C167F9178945BF
:101C6C001CC323A40190EF00504108209145EF00C4
:101C7C00D04085471306F100854513055030DC87AD
:101C8C00EFC08049F2406244056182801735010043
:101C9C001305C5AE6F1051073D897D15954763E758
:101CAC00A71417370100130767B93345E5201C410A
:101CBC00411122C4BA9706C626C22E8482871735D4
:101CCC000100130525AC2244B240924441016F102F
:101CDC00B103BC2119476390E7022E859D376C2018
:101CEC0017350100130505ABEF10216E17350100F8
:101CFC00130505ACC9BF0D47E38AE7FEB240224489
:101D0C00924441018280B8219547E319F7FE9387ED
:101D1C004190962341677917AA25638FE600EFC09F
:101D2C00005C173501001305A5A9EF10E17D1735EF
:101D3C000100130565AB41BFFA259384B1818AA3D9
:101D4C00BAA39A29882013060064DAA3BA29894514
:101D5C00FAA3DD472398F180EF00D01288200966A2
:101D6C0013060690A145EF00F011882005661306B6
:101D7C0006C89145EF00101172242E24173501006E
:101D8C00130545A5EF1061645DB7B8218D47173574
:101D9C000100130525A6E313F7F635B7AC219147DF
:101DAC006397F50017350100130545A629BF994720
:101DBC00639FF500228571356C20173501001305E2
:101DCC00659D2244B240924441016F1001609547D9
:101DDC006399F5001C30F9F7173501001305C5A4FC
:101DEC00DDB5173501001305A5A4E1BF82800111F3
:101DFC0026CA06CE22CCAE849397556063D50708CD
:101E0C0003C5B18185232A8421C11C211307000B32
:101E1C00638CE7041307000D6396E7023C214547EA
:101E2C00638BE7026547639FE7000348A5001C35F9
:101E3C001825743170214C3117350100130585A11B
:101E4C00EF10A1582285AD211395F468F24062443D
:101E5C00D2440561828070216C3117350100130565
:101E6C0065A2EF108156F9BF58219307F007E31BC9
:101E7C00F7FC0E2517350100130585A22398B180B8
:101E8C00EF10A154C1B793F7150091CF17F6FF1FB0
:101E9C00130606209385C1A703C5B181EFC040038B
:101EAC0013C5140065B793F72500B5C71306006476
:101EBC00894503C5B181EF00E07C930780F85C8213
:101ECC0003D701818D4763EBE7001735010013053C
:101EDC00659EEF10616313C524008DBF1384419080
:101EEC000A208547014781460546ED457C85EF3044
:101EFC00200A2AC66DD130854C0097F0FF1FE78071
:101F0C0000800A202C00EFF03F8471D5ED452800AD
:101F1C00EF30401FC9B793F7850085C383C7B181E4
:101F2C0013074006814613064006994503D5419098
:101F3C00EFB0707513C5840011BF93F705019DC3F5
:101F4C00014789460946814503D54190EFC0403B86
:101F5C00AA85173501001305E596EF10014713C547
:101F6C000401EDB513F54500E30205EE03D54190F0
:101F7C00EFC0A0360566130606C8914503C5B181AE
:101F8C00EF00407013C54400D1B5797117050000FE
:101F9C00130525E606D622D426D2EF00F02C938426
:101FAC00B1819947054488A0FC821008930740062C
:101FBC00854513055030FC8423088100EFC0C01503
:101FCC0017F6FF1F1306060FF14513057030EFC00F
:101FDC00A014138641819D4513056030EFC0C013DA
:101FEC005008894513051031EFC00013300889459E
:101FFC0013052031EFC04012930500050945EF2071
:10200C006020930500050D45EF20C01F854529452F
:10201C00EF20401F300891451305704040844086E6
:10202C002308810002CC230A0100EFA0F04230000B
:10203C00854513050040EFA030427000854513051F
:10204C001040EFA070415008854513052040EFA0CB
:10205C00B0401008854513055040EFA0F03F7D556A
:10206C00EFB0D0327D55EF40D0557D55EFF00FE0FD
:10207C0017F6FF1F13068602D5450145EFB09020D9
:10208C0089475C868D472308F1009147230AF100AC
:10209C00B7070304938717203ECC3000954785453E
:1020AC000145230EF1004084EFF0EFE1700085450F
:1020BC000545EFF04FE1100885450945EFF0AFE01D
:1020CC00500885450D45EFF00FE03008954511455A
:1020DC00EFF06FDFC16713874190F9171385C1804B
:1020EC001CC323220700EFF02FDD1385C18FEFC037
:1020FC00601E22548820B2509254854545616F3041
:10210C00A114411122C4371400401E2C71777D1785
:10211C00F98F06C61EAC1945EFE05FED13056004A0
:10212C0097E0FF1FE78040F6A1471304840B1CC007
:10213C008D452145EFF06FA0014681450545EFF037
:10214C004FB9EFF0EFB5173501001305E592EF101D
:10215C00A13BEFF0EFF1EFF0DF86EFC0A01A3535C1
:10216C0097E0FF1FE780E02301112A8706CE2E851A
:10217C0026CCB2854ACA368622C637240040B7E739
:10218C0000E0FD5603A90700C44323A0D71823A2DF
:10219C00D7189307F7FF93F7F70F0948636AF80806
:1021AC00B717004083C75704B7C80300F9576374C7
:1021BC001505B306C50063E0D8046314070509824E
:1021CC0097E0FF1FE780E030AA873717004093069F
:1021DC0070052300D704930680FA2300D7048346A6
:1021EC004704C18A2302D70437E700E023202711D4
:1021FC00232297103244F240E24452493E85056155
:10220C0082808547631FF7008567FD173E96E98F2F
:10221C003E96FD777D8E7D8D97E0FF1FE7806031C8
:10222C0065B797E0FF1FE780E0379307150071BF94
:10223C00B547631AF7001305900B97E0FF1FE78073
:10224C00603B814759B7B1476315F7001305B00AD6
:10225C00EDB799476317F70097E0FF1FE780A03AA7
:10226C00CDB79D47631BF70023A0050023A20500F3
:10227C0097E0FF1FE780C03EE9B791476317F7006F
:10228C0097E0FF1FE780A0416DBF81471DDFF1572D
:10229C002DBF23AC05FE1C4189E7010001000CC1D8
:1022AC0082803E8783A787FFEDFF232CB7FE8280B9
:1022BC00411122C437E400E026C204403707200055
:1022CC0006C6F98C2320E4180F10000009E923201E
:1022DC0094101545B2402244924441018280034738
:1022EC00E5FF9307F00F6306F700232094101145C8
:1022FC00D5B797F0FF1FE78040B00145232094101D
:10230C00D1BF411126C2B7E400E04AC003A90400C2
:10231C00B707200006C622C43379F90023A0F418AD
:10232C000F10000009E523A02411014535A0956587
:10233C00938505D0C98D2A842105B3C5050833457D
:10234C000508EF30211B65D1FD572320050042A164
:10235C007CA123A024112105B240224492440249BD
:10236C00410182804111B7E700E026C28443370760
:10237C00200006C622C4F98C23A0E7180F10000019
:10238C009386C190904201440147B28799EF19C8D6
:10239C00832784FF6311C4069CC2FD57232C04FEC3
:1023AC00230FF4FEA165D1291DA083C5E7FF639D12
:1023BC00A50221C0832784FF6315C4029CC2FD576C
:1023CC00232C04FE230FF4FEA165EF20F167B2402D
:1023DC0022852244B7E700E023A0971092444101E4
:1023EC008280232CF7FEE1BF11E03E8783A787FF95
:1023FC0071BF3E84E5BF232CF7FE45B741114AC09F
:10240C0037E900E022C403240900B707200006C600
:10241C0026C27D8C2320F9180F10000089E523209B
:10242C008910154515A0AA849707002083C7D7D912
:10243C002E8563F5F400854763EE9700953DB7E76D
:10244C0000E023A087100D45B2402244924402497B
:10245C004101828083A785FF99E703C7E5FF9307B6
:10246C00F00F6308F700A935B7E700E023A0871049
:10247C004DBF238F95FE1385C190213DA165268507
:10248C00EF20915C0145232089107DBF23A601908C
:10249C0082802A8713F5F50F2DC1411122C426C263
:1024AC0006C64AC013F41500AE8419C0814709A8AA
:1024BC008147A1468507638AD70233D6F4487DDA73
:1024CC00B1463367F7203307D70203A98192B317BC
:1024DC00F02833C407083A998327090003254900DB
:1024EC008297232009002322090033459400B2402F
:1024FC002244924402494101828082800111B7E753
:10250C0000E026CA84434AC83707200006CE22CCF6
:10251C002A892E86F98C23A0E7180F10000093054A
:10252C00F00432C633450608EF20D17C2A8419C545
:10253C003246CA8597E0FF1FE780601CF240228577
:10254C006244B7E700E023A097104249D2440561EA
:10255C008280411193757500014506C6B315B028EC
:10256C00B3C50508EF20712909C50845B2404101E2
:10257C0082800145E5BFB7E700E09843B70620002D
:10258C0023A0D718758F0F1000009706002083C664
:10259C00B6C3637ED50083A641923325D520162180
:1025AC00B3F5B6400EA123A0E7100145828023A00D
:1025BC00E7100D4582807971B7E700E026D284439D
:1025CC003707200006D622D44AD04ECE52CCF98CF6
:1025DC0023A0E7180F100000930785FF93F7F70F60
:1025EC001D47636BF70831473307E50283A78192D8
:1025FC00BA979C43D1C31D893315A028AE89B34526
:10260C00050805452EC6EF20511F2A8929C9B24558
:10261C000545170A0020130A6AC0B13F83A7C19170
:10262C00829783578A002A8481463387370313069F
:10263C000064B3B7370313050732B335E500BE9515
:10264C00EFF0C075B307850083264A003E8763E42C
:10265C00A70063E4D7003387D7402324E900B7E70A
:10266C0000E023A097100145B25022549254025915
:10267C00F249624A45618280B7E700E023A09710D7
:10268C000945DDB7797122D437E400E04AD003293B
:10269C000400B707200006D626D24ECE52CC56CA1E
:1026AC005AC85EC63379F9002320F4180F100000C5
:1026BC009707002083C757B16376F50083ABC191B0
:1026CC0063970B00B7E700E023A0271199A0970AA6
:1026DC000020938AAAB403AB4A00B74736FE93870F
:1026EC0007C83E9B83D78A002E8AAA84B385C7026B
:1026FC00B2898146B3B7C70213850532B335B5002D
:10270C0013060064BE95EFF060696370AB02232082
:10271C0024110145B250225492540259F249624A92
:10272C00D24A424BB24B45618280829B83D78A004E
:10273C002A8413060064B38537038146B3B7370385
:10274C0013850532B335B500BE95EFF02065B307A0
:10275C00850003A74A003E8463E4A70063E4E70016
:10276C003384E740D2852685EF20310901C900C5A5
:10277C00B7E700E023A02711054569BF93E504F0F6
:10278C004145B3C50508EF20F15611E99707002024
:10279C0083A707A885DBA6851145829725B71387E4
:1027AC0001911C4399EB08C32326050000C5231196
:1027BC00450104A12322050065BF3E87DC47F5FFD8
:1027CC0048C7DDB77971B7E700E026D284433707F5
:1027DC00200006D622D44AD04ECE52CC56CA5AC865
:1027EC005EC662C466C2F98C23A0E7180F10000005
:1027FC0021CD2A892E8AB28AB6892144B14C138BF9
:10280C008192414CB30B940383270B00DE979C43BE
:10281C00A1EF9375740056860545B315B028B3C562
:10282C0005088D3531C183270B00DE9723A02701C6
:10283C0023A247016384090023808900B7E700E0E5
:10284C0023A09710014521A023A097100945B25051
:10285C00225492540259F249624AD24A424BB24B28
:10286C00224C924C456182800504E31D84F9B7E744
:10287C0000E023A097102145D9BF011126CAB7E467
:10288C0000E04EC683A9040022CC52C4B707200036
:10289C0006CE4AC82A8A2E84B3F9F90023A0F4186C
:1028AC000F100000EF206175170900201309C99162
:1028BC001DE1A2855285C13183470900638047051C
:1028CC0023A034111945F2406244D2444249B24922
:1028DC00224A0561828023110500A2855285613947
:1028EC00834709006386470123A034110145E1BFEA
:1028FC0083576900C18F2313F900FDB78357690013
:10290C005D8C231389006DBF01114AC837E900E0C3
:10291C0022CC03240900B707200006CE26CA4EC6D7
:10292C007D8C2320F9180F100000BD4763E5A70428
:10293C00B144B30495029389819283A70900A697A9
:10294C009C4395CB937575000D81B315B028B3C519
:10295C000508253783A709000145A69723A0070082
:10296C0023A2070023208910F2406244D24442493A
:10297C00B24905618280B7E700E023A087100945C2
:10298C00E5B7411106C623ACA1900295B24097075A
:10299C00002023A3A78401454101828023AEA1908E
:1029AC00014582804111114681451385419106C62E
:1029BC0022C426C223A8019023AC019023AE01901F
:1029CC0097E0FF1FE78060D613060002814517F5DC
:1029DC00FF1F1305657F97E0FF1FE78000D5EFB061
:1029EC00301BC14717F4FF1F1304047E85451305E4
:1029FC0000123CA093848192EF20D12F88C025C176
:102A0C003020994781453306F6021306060C97E0F1
:102A1C00FF1FE78080D19C403820938401929387DC
:102A2C00070C9CC0B347F72023A2F192EFF01FA62E
:102A3C00552E1C309840172601001306E65DB3C6D0
:102A4C00E72090C293862700850793F7F70FB3C74B
:102A5C00E72014B0170700001307E7A398C3B24090
:102A6C00224492444101828097F6FF1F9386C675DB
:102A7C002A87BC228832637BF5001306150083A7D6
:102A8C00019290B2B347F52098C382801305F00FE2
:102A9C0082801C41F1C7370700F07D8FB7060020FC
:102AAC0089476310D70C5A21411122C406C62A84C7
:102ABC005DC319469305F00F5D05EF2001650547D1
:102ACC008D47630AE5081C4491C75854994741C780
:102ADC00185851C313064003814517F5FF1F130502
:102AEC00A57097E0FF1FE78040C413064003A28542
:102AFC0017F5FF1F1305456F97E0FF1FE78020C0F8
:102B0C0097F7FF1F9387476EDA2701E7130700102B
:102B1C00DAA7F82719E30547F8A79A2B19E36D47AD
:102B2C009AABF83719E30D47F8B7B82B19E30547FB
:102B3C00B8ABB83B19E3F837B8BBD82B19E33D4712
:102B4C00D8AB583801E713074006D8BBFD57238094
:102B5C00F1A4893D8147B24022443E8541018280E7
:102B6C0089473E85828079714ECE97F9FF1F9389F4
:102B7C00E96A83A7090006D622D426D24AD052CCC1
:102B8C00829713090064B335250303D68900814667
:102B9C0017FAFF1F130A4A6332C633052503EFF0F9
:102BAC00E01F83240A012A8401456386840232468D
:102BBC003305944063EF840003A549008146B33587
:102BCC00A9023305A902EFF0601DB30795403385C8
:102BDC00870023288A00B250225492540259F24999
:102BEC00624A45618280011122CC0A852E844146BD
:102BFC0097250100938545AA06CEEFE0CFBC1808B7
:102C0C003324E420035704FFF240624497F7FF1F7C
:102C1C0083D7676137450F00BA97130505243355E1
:102C2C00F5020561828097F7FF1F83D7C75F514775
:102C3C001D45637CF702794719456378F702130742
:102C4C00200315456373F7021307B0041145637E27
:102C5C00F700130740060D456379F7001307600969
:102C6C0009456374F70013B5B70F8280411122C474
:102C7C0026C22E84AA8406C6058C97E0FF1FE78027
:102C8C00A0A3B327A402B240224433859700137546
:102C9C00F50F924441018280411122C426C22E8438
:102CAC00AA8406C6058C97E0FF1FE780E0A0B32737
:102CBC00A402B24022443385970033450508924460
:102CCC0041018280411122C426C22E84AA8406C6E8
:102CDC00058C97E0FF1FE780209E3335A402B2409D
:102CEC0022442695924441018280AA8517F5FF1F44
:102CFC001305C552184197E7FF1F938707C8630D4B
:102D0C00F7004111514606C697E0FF1FE780209F50
:102D1C00B24001454101828005458280411106C6C1
:102D2C0022C426C259C11C41AA850545B5CBDC413C
:102D3C00A5CB9E25B5C7BE25A5C7514617F5FF1FC8
:102D4C001305C54D97E0FF1FE780609B97F7FF1FAA
:102D5C00238C074C97F4FF1F9384444C884017F442
:102D6C00FF1F130464481D397C2899EF8A249307AC
:102D7C00807037460F003305F50213060624814692
:102D8C008145EFF0A00168A87828AD4763E4E7001F
:102D9C00B1477CA817050000130525DDDD3601457C
:102DAC00B240224492444101828097F7FF1F23A72F
:102DBC00074297F7FF1F9387674617E7FF1F130715
:102DCC00C7BB98C337873200FD56130727A1D4C35E
:102DDC0098C797F7FF1F23890744B7C7004023A460
:102DEC00D7268DBF011122CC17F4FF1F1304C43F4B
:102DFC00084406CE26CA4AC801E90545F240624499
:102E0C00D2444249056182805C54E5DB185875D781
:102E1C007000854582971844B247E300F7FE4A24B8
:102E2C009305E00417F9FF1F1309093AEF20816C91
:102E3C00232CA90079D152249305F00F814497E0FB
:102E4C00FF1FE780808E7C240326890163C1F40276
:102E5C00328597E0FF1FE78040FA014597F7FF1F87
:102E6C0023A0073897F7FF1F23AE073641BF4E2428
:102E7C001844B3879502898185043385E7001C5873
:102E8C0008C28297C9B701114EC697F9FF1F9389E3
:102E9C00A93583A7890022CC4AC852C406CE26CABB
:102EAC0056C25AC02A8A2E843289638F071C03A704
:102EBC00C902630E07101307F01F636CA71097F479
:102ECC00FF1F9384643083AA840163970A0803D597
:102EDC00C9009565938515E0EF20C16188CC2A86E1
:102EEC007DC583D5C90083A7C90203A58900898143
:102EFC00829783A7890083AA8401DCCC894763135A
:102F0C00FA08C1476315F40C83D7C900114793879E
:102F1C0007FCB3C7E702B3C75721B4231307A005B7
:102F2C006393E60A9A236310470B938547004A85FF
:102F3C00228697D0FF1FE780807C9C4C5685639D32
:102F4C0057110145F2406244D2444249B249224AE7
:102F5C00924A024B05618280D84CE381E7FA03D593
:102F6C00C9009565938525E0EF20C158AA8A25C133
:102F7C0083D5C9002A8683A7C90203A58900898144
:102F8C008297ADBF8D47631CFA00C1476311F404EF
:102F9C0083D7C900938747FDF19BD697BDBF914757
:102FAC006318FA006315440383D7C900A117EDB762
:102FBC0093070010631DFA00A14763EA870083D7CB
:102FCC00C900C117D1BF9C4C5685639A570B294534
:102FDC0095BF1D676377E508130705E099463347EE
:102FEC00D70283D6C90017FBFF1F130BEB1D33074A
:102FFC00D702B30AF7008327CB01639557018324CB
:10300C008B018DE003D5C9009305E004EF20814EC0
:10301C00AA8455DD83D5C90083A7C9022A86898174
:10302C005685829791451307A00593F5C50FB38775
:10303C00B400B4236390E6049623639B4603910586
:10304C002286A6954A8597D0FF1FE780406B832781
:10305C008B01E38897EE268597E0FF1FE780E0D988
:10306C00CDB5A166F916E3E4A6F63307E54095BFA6
:10307C00AC3365BF83278B01E38B97F4268597E0F0
:10308C00FF1FE78080D7A1B797F5FF1F83A54515D4
:10309C009DDD91479306A00593F7C70F3387F50085
:1030AC003023E316D6F21223631B460191072286C6
:1030BC00BE954A8597D0FF1FE780606459B53C33B5
:1030CC00E1BF97F7FF1F93872712984721C7985B9B
:1030DC0031C385466310D504411122C417F4FF1F78
:1030EC001304840E104C06C615C2CE27484C898199
:1030FC000297084C97E0FF1FE78020D097F7FF1F3F
:10310C0023A0070E97F7FF1F23AE070CB2402244F3
:10311C00410182808280011122CC17F4FF1F13041D
:10312C00A40C4EC68329840026CA4AC852C406CEB3
:10313C0056C22A89AE84328A6385091A1C5899EBC7
:10314C002945F2406244D2444249B249224A924A49
:10315C00056182805C54EDD79307F01F63E0A70CE8
:10316C0097F9FF1F9389490683A78901A9C70844CA
:10317C0083A7C901639AA70489476311F906C1475C
:10318C00E390F4FC5E241147938707FCB3C7E70276
:10319C0003A78901B3C7E7201307A005B8A32390A1
:1031AC0027012686D2851385470097D0FF1FE7801D
:1031BC000055014579B74A249305E004EF2081338B
:1031CC0023ACA9004DF5ADBF4E245C5403A6890178
:1031DC00898182971C4423AEF90079BF8D47631D0A
:1031EC00F900C147E39EF4F45A24130747FD83A763
:1031FC008901719BBA974DB791476317F900E39119
:10320C0024F55A242117E5B793070010E31AF9F2B5
:10321C00A147E3E797F25A244117D1BF9D67637228
:10322C00F506930705E01947B3C7E7025A2497FA46
:10323C00FF1F938A6AF9B387E702BE9983A78A01B5
:10324C00A1CB83A7CA01639E370503A58A019147C9
:10325C001308A0059305F00F13F7C70FB306E5008D
:10326C00B022631D060583D80600B032639628058C
:10327C00B307F64063C1970411072686D2853A95A9
:10328C002DB721677917E36DA7EAB307F54079BF2E
:10329C004A249305E004EF20E12523ACAA0055F164
:1032AC0045B54E245C5403A68A0189814E858297CC
:1032BC0023AE3A0159BF8EA2B28779BF5224B3858F
:1032CC0097009105130606FCE36CB6E613863400F2
:1032DC00719A1106B2972381060123902601BCB284
:1032EC0061BF97F9FF1F938929EE83A789019DCBB5
:1032FC0003A5890191471308A0059305F00F13F757
:10330C00C70FB306E500B022631C060383D8060082
:10331C00B03263972801B307F640E3DF97F48EA22F
:10332C00B287F1BF7C244A249305E0043305F502EF
:10333C0033450508EF20011C23ACA90055F909B54C
:10334C0052246C24B385C502338697001106E3E939
:10335C00C5DEADBF01458280011106CE2EC6EF4001
:10336C00702A19C5B245F2402A2105616F80C0242C
:10337C00F240494505618280A3860194238601941D
:10338C0023A4019423A2019423A8019223A60192C1
:10339C0097F7FF1F9387C7E93707B40098C3370720
:1033AC00A0001307070AD8C337C70700130707B8CD
:1033BC0098C741674107D8C737077F0098CB3707B5
:1033CC0081FFD8CB7D579AAF8280011152C42A8AD3
:1033DC00214522CC26CA4AC84EC606CE2E84B289B6
:1033EC003689BA84EFE0FFF105C9930700FD1CA1F3
:1033FC009947A30045013CA12303250164B1231285
:10340C003501AA8522856244F240D2444249B24930
:10341C00224A05616FE09FFEF2406244D244424969
:10342C00B249224A0561828023A4A194828023A2FE
:10343C00A1948280011122CC26CA4AC806CE4EC65F
:10344C002A89AE840144B309890063699400F2406F
:10345C006244D2444249B2490561828097D0FF1F31
:10346C00E7808025B3470508A1832380F9009307E3
:10347C00140093F7F70F850963F89700CA970904AE
:10348C0088A31374F40FC1B73E84C1B7411122C491
:10349C0017F4FF1F130444DB0A28C16706C6FD1787
:1034AC00630AF50003C6C19993854193EF40A07858
:1034BC00FD571EA8B2402244410182802390050092
:1034CC00B1CE8147130E000C63FAC7043387F600A4
:1034DC0003480700138717003347070863000804E5
:1034EC00B308E800634C1603B388E60083C80800F1
:1034FC0063860802138328FC1373F30F63706E0248
:10350C001303F8FF239065006396A8000507338525
:10351C00E6008280C297B3C707087DB70145828059
:10352C00011122CC26CA4AC84EC606CE97F4FF1FFC
:10353C00938484D12E8990C4CCC088C02A844146FF
:10354C009305F00F4A85EF10513C854963173503FD
:10355C00C840C145C53541469305F00F2285EF1093
:10356C00D13A05496313250362448840F240D244A2
:10357C004249B249C145056175BD414681454A85FF
:10358C00EF10B138E31935FDE1B74146814522858D
:10359C00EF10B137E30A25FDF2406244D2444249B0
:1035AC00B24905618280411122C426C22E84AA84AC
:1035BC007146814517F5FF1F130505C906C64AC09C
:1035CC0097D0FF1FE780601617F9FF1F1309C9C7B3
:1035DC002380819AA3079900EF70907F854719C1CA
:1035EC00814749452306F900B240224492440249DE
:1035FC00410182809DC11DC185476317F500DC31F7
:10360C0093E707FCDCB121A089476304F50005456D
:10361C008280DC3193F7F703F5B7014582808DC1C9
:10362C000DC1DC311307000C054593F7070C638AB9
:10363C00E7001307000409456395E7000D458280F8
:10364C0001458280411122C4005D06C626C21DC8F8
:10365C00AA84085009C597D0FF1FE780007A48500C
:10366C0009C597D0FF1FE7804079085409C597D04A
:10367C00FF1FE7808078228597D0FF1FE780E077D7
:10368C0023AC0402B240224492444101828009EDF1
:10369C0097F7FF1F83C727BC17F5FF1F130505BC42
:1036AC0081CB1385C193828017F5FF1F130505BBD2
:1036BC00828017F5FF1F034505BA828017F5FF1F9F
:1036CC00032585B8828017F5FF1F032525B8828056
:1036DC0097F7FF1F83A7C7B78843828017F7FF1F91
:1036EC00130787B614479C4285079CC2683793071B
:1036FC00F00F6305F50091656F1011358280011193
:10370C0022CC06CE2E8432C6EF40007E9147B245C5
:10371C00631CF50083A7419481CB9C4391C7228500
:10372C006244F24005618287F240624405450561BE
:10373C008280797122D42A844A214ECE06D626D292
:10374C004AD0EF40A05B9389C19429E583C409005A
:10375C009307F00F6399F40083C5D1942685ED3E51
:10376C0019E1238601944A20EF4000789147631CAD
:10377C00F50097F7FF1F938727AD56209A2B63947C
:10378C00E6007D579AABB250225492540259F2493A
:10379C0045618280582504212A893AC665354A85B7
:1037AC00EF40B0214A20EF40A06F83C70900324799
:1037BC0099C3E38397FA9307F00F5220E385F4FA49
:1037CC0074202820A685113179BF411126C206C666
:1037DC0022C44AC097F4FF1F938404A7F8349307BC
:1037EC00F00F6303F7042A892945EFE09FB12A847F
:1037FC0005CD930700FD1CA1A147A30025013CA109
:10380C00FC249385C1931105A30FF5FE194697D09F
:10381C00FF1FE780C0EEA2852244E834B2409244F8
:10382C00024941016FE09FBDB240224492440249DB
:10383C004101828079715AC82A8B2E854ECE52CC8A
:10384C0056CA06D622D426D24AD05EC62E8AB28A50
:10385C00B689EF40A04A65C5045D2A89EDC09C502D
:10386C001305400391E361459C5489C793074501B7
:10387C0033C50708638609009307C50133C50708DC
:10388C00DC5089C79307750133C50708EFE07FA7A4
:10389C002A8455C56146814597D0FF1FE780E0E833
:1038AC0097FBFF1F83CBCB9963940B00834B0900D1
:1038BC00930700FD1CA0A947A30064013CA02303AF
:1038CC0054018C50231244011305840191C908C47E
:1038DC007146130A440397D0FF1FE78040E25285DC
:1038EC008C5491C948C45146130A450197D0FF1F07
:1038FC00E780E0E05285638C090008C87146CE85EC
:10390C00130AC50197D0FF1FE78060DF5285CC50AA
:10391C0099C548C85D4697D0FF1FE78040DEA28559
:10392C005E85EFE0BFAD2254B2509254F249624A28
:10393C00D24A424BB24B4A850259456121B3B2502F
:10394C00225492540259F249624AD24A424BB24B27
:10395C004561828001114EC6AA892E8526CA06CEE3
:10396C0022CC4AC8AE84EF40603931C517F9FF1F2D
:10397C000349098D63140900034905001945EFE05B
:10398C005F982A840DC98145194697D0FF1FE7809F
:10399C00C0D9930700FD1CA0B947A30034013CA07B
:1039AC0046A0A2856244F240D244B2494A854249BB
:1039BC0005616FE0BFA4F2406244D2444249B2496F
:1039CC0005618280797162C42A8C2E8526D24ECEF6
:1039DC0052CC56CA5AC85EC606D622D44AD0AE8439
:1039EC00B28B368BBA8A3E8AC289EF40203125C50C
:1039FC002A894145EFE0FF902A8431CD414681452B
:103A0C0097D0FF1FE78060D217F5FF1F0345458352
:103A1C0019E103450900930700FD1CA0BD47A30055
:103A2C0084013CA023047401A30464012305540104
:103A3C00A305440146A023263401A2852254B2508A
:103A4C0092540259F249624AD24A424BB24B224C2E
:103A5C0045616FE0BF9AB250225492540259F24918
:103A6C00624AD24A424BB24B224C45618280411190
:103A7C0026C206C622C44AC097E4FF1F9384C47CA6
:103A8C00F8349307F00F6306F7042A893945EFE001
:103A9C005F872A841DCD930700FD1CA1A30025017F
:103AAC002301050097E5FF1F9385457B0D051946FE
:103ABC0097D0FF1FE780A0C4BE28A2853EA4DC34AB
:103ACC005CA42244E834B2409244024941016FE0C4
:103ADC00FF92B2402244924402494101828001117A
:103AEC0056C2AA8A314526CA4AC84EC652C406CE08
:103AFC0022CC5AC0AE84328AB6893A89EFE07F80F4
:103B0C003DC12A842685EF40601F29C903CB119A39
:103B1C00639B0A0083A741A19C4791C7CA864E8626
:103B2C00D28526858297930700FD1CA09D47A30094
:103B3C0054013CA046A02313440123143401231543
:103B4C002401A2856244F240D2444249B249224A3D
:103B5C00924A5A85024B05616FE05F8A17EBFF1F93
:103B6C00034B7B6FC9B7F2406244D2444249B2491D
:103B7C00224A924A024B05618280411126C2AA84D4
:103B8C00214522C406C62E84EFE0AFF715C5930776
:103B9C0000FD1CA1C5473CA13C30AA853CB15E2070
:103BAC005EA17C207CA17C307CB12244B240268575
:103BBC00924441016FE09F84B240224492444101FF
:103BCC008280797162C42A8C594526D24AD04ECE55
:103BDC0052CC56CA5AC85EC666C26AC006D622D431
:103BEC00035D0103834C41032E89B28BB6843A8B5F
:103BFC00BE8A428AC689EFE0CFF035C5930700FD37
:103C0C001CA19547A30085013CA1A30175012A8441
:103C1C0019461105B9C0A68597D0FF1FE78020AEC5
:103C2C0023065401230A940123156401231744012C
:103C3C00231834012319A401A2852254B2509254A2
:103C4C00F249624AD24A424BB24B224C924C024D40
:103C5C004A85025945616FE06FFA814597D0FF1F85
:103C6C00E780A0AC75BFB250225492540259F2496D
:103C7C00624AD24A424BB24B224C924C024D4561A5
:103C8C008280797122D406D626D24AD04ECE52CC1E
:103C9C00094459C12A890A212E8A5144EF40000651
:103CAC00AA843DC91C5D4544A5EB9165938545717E
:103CBC001305C002EF10110488DCAA894D4429CDEC
:103CCC001306C002814597D0FF1FE78000A68357DB
:103CDC0009009386490036852391F90071469305B6
:103CEC00490036C697D0FF1FE78060A18947238023
:103CFC00F900B2460356090083C5C1990145EF404E
:103D0C00F0572A8463060A00D2852685EF40C070DE
:103D1C0001C42685EFF01F93B25022852254925491
:103D2C000259F249624A4561828031CA411122C46A
:103D3C0026C24AC006C62E89B284EF30307C2A8453
:103D4C00514505C8485409C597D0FF1FE780E00AC4
:103D5C00F1452685EFE08FFAAA8748D44D4591CBE3
:103D6C0058209367470063040900936767005CA0C1
:103D7C000145B240224492440249410182800945E6
:103D8C008280AD4763EAA70097E7FF1F9387474AF6
:103D9C003325F5200A21828041657D158280011131
:103DAC0022CC2A842E8526CA06CEAE84EF3010751E
:103DBC000DCDB7470F009387F723094563E28702C0
:103DCC0081450A85414697D0FF1FE7800096A6855E
:103DDC0060800A8541804081A3010100EF40B0362C
:103DEC00F2406244D244056182804945D5BF238F9D
:103DFC00A19882806F405040797152CC2A8A3285CA
:103E0C0026D24AD04ECE56CA5AC85EC662C406D610
:103E1C0022D42E8CB28A368BBA8B3E89C289C68448
:103E2C00EF30D06D05C92A8463100A1893774B00C4
:103E3C000343450085CF13632301639A0B14631866
:103E4C000912639B090885E81C5C1373B3FF2302FA
:103E5C006400C5E7B250225492540259F249624AA6
:103E6C00D24A424BB24B224C456182801373D3FF32
:103E7C0013630301D9B713634300230264009C4806
:103E8C004146A6851CD41305840197D0FF1FE780FB
:103E9C00008763190C1063860B0A485409C597D028
:103EAC00FF1FE78080F5F1455E85EFE02FE548D4F4
:103EBC00005C4DD01C5081EB91659385357171453B
:103ECC00EF10416308D008500DC17146DE8597D0C4
:103EDC00FF1FE780C08211A8136343002302640014
:103EEC00D9FC005C630C0C0235D4639A0902B1EC6A
:103EFC0029A0005C25D0639409022254B25092543C
:103F0C00F249B24B224CCA865A860259424BD6858C
:103F1C005285D24A624A45616FF0DF9105DC5C50F4
:103F2C0081EB9165938525715D45EF10A15C48D0BF
:103F3C00485055DD5D46CE8597C0FF1FE780207C3D
:103F4C007DB7005C01D8E39C09FC1C5481EB9165A6
:103F5C00938515715145EF10E15908D4085451DD82
:103F6C005146A68597C0FF1FE780607979B7136328
:103F7C00430023026400E39404F0E30C0CF6485471
:103F8C0015E9F1454A85EFE06FD748D431A81363A2
:103F9C00430023026400E39404EEE3000CF0E3100E
:103FAC0009FE39B7E31D09FC005CE30504EAE39361
:103FBC000BF025BF97D0FF1FE78020E4D9B7011184
:103FCC0026CA52C406CE22CC4AC84EC62A8AAE8411
:103FDC00EF30D05225C12A893945EFE08FB22A84BF
:103FEC0031C997E9FF1F83C9A92563940900834947
:103FFC0009009307000D1EA0AD473CA09305690076
:10400C0013053400194697C0FF1FE780406F93F7E4
:10401C0014005CA493D4144844B423154401A28521
:10402C006244F240D2444249224A4E85B24905616B
:10403C006FE0CFBCF2406244D2444249B249224ABA
:10404C000561828003A5C19201CD411106C697D0AE
:10405C00FF1FE78080DAB24023A6019241018280E3
:10406C008280411122C406C626C24AC02E84EF307B
:10407C00F04839C900D517E9FF1F0349691CAA8408
:10408C0063140900034905004145EFE08FA72A841A
:10409C0005CD9307000D1EA1A5473CA1DC309385EF
:1040AC0064001105A30FF5FE194697C0FF1FE780AA
:1040BC0000659C54A285B2405CC4224492444A855B
:1040CC00024941016FE08FB3B2402244924402494D
:1040DC0041018280938741938EA3B2A3BE8503C610
:1040EC00C199D6A3FAA36F301035011122CC26CA80
:1040FC0006CEAA842E84EF3070400DC9542511478A
:10410C00AA874945639FE6009C5F91C3E02B9756B5
:10411C0000009386E6E10A86894526854080EF40BB
:10412C00A026F2406244D244056182805145D5BF3D
:10413C0021C6411122C426C24AC006C62E89B284A9
:10414C00EF30D03B2A84514515C0630609005C2032
:10415C0093E727005CA0130584014146A68597C010
:10416C00FF1FE780C0599C4801451CD4B240224433
:10417C00924402494101828009458280011122CC7E
:10418C0026CA06CE2A84AE84EF30503719C96C008B
:10419C0022854486EF40E024F2406244D24405611B
:1041AC0082805145D5BF6F30B04A4111C16726C2DC
:1041BC004AC006C622C4FD172A89B2846390F50250
:1041CC00B285EFF06F9909E523862195A38691942A
:1041DC00B240224492440249410182802E852E84B1
:1041EC00EF30D03111CD1C210D45E39327FF2285F3
:1041FC002244B2400249A685924441016F70C03BF3
:10420C004945F9B72D47AA876360A70241677D1717
:10421C000945638CE50017E7FF1F13076701B3A778
:10422C00E72001458EA3828009458280011122CCB2
:10423C003E8606CE26CA4AC8914709446392F502C7
:10424C0032C6B6843A89EFF00FB632462A8409E9B1
:10425C00CA852685EFF0CFACEF005033EF0050133A
:10426C00F24022856244D244424905618280411168
:10427C0006C622C42A84EFF02F90EF001014EF90A2
:10428C00B059814517E5FF1F130505FC714697C012
:10429C00FF1FE7808049930700F017E7FF1F231CDF
:1042AC00F7FA7D579387C199B8A380A3228522443E
:1042BC00B240954541016F30600D1D71A6CA86CE86
:1042CC00A2CCCAC8CEC6D2C4D6C2DAC05EDE62DC0C
:1042DC0066DA6AD86ED6AE849397556063DA073483
:1042EC001389C19903450900C169930A200AEFE0BB
:1042FC006F872A84130BF00F930B1009154CB94CD4
:10430C0017EDFF1F130D4DF4FD1915E01395F4680F
:10431C00F6406644D6444649B649264A964A064B68
:10432C00F25B625CD25C425DB25D256182801C20D6
:10433C00639A5701034AFD002A202286CE85EFF0AE
:10434C000FBCF1A8034A2900639A77091C30639EBD
:10435C0087012285EFF0EFBD2285EFD07FF5034575
:10436C000900EFE02F802A844DB7639B97115E20E4
:10437C0005672507639AE7040C4497EDFF1F938D9F
:10438C00ADEC882115E51946850517E5FF1F1305CA
:10439C00E5EC97C0FF1FE780803603C7CD0085474B
:1043AC00631EF70289472386FD00EF7040276DB727
:1043BC0003C7CD0085476313F70297E7FF1F238BD5
:1043CC0007E8EFF0CFEA49BF09679306570063840B
:1043DC00D70A63ECF60009076385E704E30E6AF776
:1043EC00A2855285EFE08F819DBF29076372F7028A
:1043FC0079771307A7FCBA977147B3C70708E36F20
:10440C00F7FC370700181307F770B357F748F9D7BD
:10441C0083A78194B1D39C43A1D3228582970DFDB0
:10442C0075BF832D8400E38B0DFA03C70D0097E74E
:10443C00FF1F938767E119EB03C72D0083C61D008F
:10444C002207558FBAAB03C73D00D8B7D42709470D
:10445C00E396E6F803C70D0001CB97E7FF1F238B0C
:10446C0007DE03C50D00B1BFCC37AA2B0D47D8A76B
:10447C00EF207074FDB71C448823EFF00FB5E9BD35
:10448C003D476393E7045A2089679386D700E30579
:10449C00D7EC93869701E301D7ECCD07E310F7F443
:1044AC00C16717E7FF1F035727DBFD17E306F7EA82
:1044BC0083A74194E38207EA9C43E38F07E80965ED
:1044CC00A2854D058297A1BF1307E003E398E7F09F
:1044DC003C2005476399E70A83A7819497EDFF1F5A
:1044EC0083CD7DD791C7DC4381C781450145829738
:1044FC006830130A8400D285EFF06F925C2868B0A4
:10450C00835804010358E4005A202A8628303EC2FE
:10451C003E28D286EE853EC09147EFF08FEA3C30C4
:10452C0095E3DD47835804010358E40074304E20B2
:10453C003EC23E28528705463EC06E859147EF30FD
:10454C00702F28B083A7C19281C71145EFF09FAFA0
:10455C00138AC19403450A00E30005E083C5D19496
:10456C00EFE09FDFE30A05DE343093071003638925
:10457C00F600522083450A0011473685EFE0FFE430
:10458C0023860194D1BB31476386E7086361F70446
:10459C000D47638EE7041947E392E7E46C081305B3
:1045AC001031EF90902B9305E10113052031EF9022
:1045BC00D02A7220BC874A2063E6C7001624B8862E
:1045CC0063FBE60293050002EF70C01471B3494718
:1045DC006385E7044D47E393E7E083A78194E38F7A
:1045EC0007DEDC43E38C07DEA285094581A0228629
:1045FC008D454A20A9B36373E6007AA063F3D70014
:10460C001EA45A24362412246E2001488147EF70D0
:10461C00C00D99B32286B145E9BF83A78194E38F7E
:10462C0007DADC43E38C07DA8145054582977DB3D5
:10463C0013F52500E30E05CC83A7819491C7DC43C9
:10464C0081C781450545829713C52400D1B11D71E1
:10465C00A6CA938401939840A2CC86CECAC8CEC673
:10466C00054435CF283397E7FF1F83C7C7BEB33741
:10467C00F000930547003EDEEFE0DFF798402ADCC0
:10468C0009452C232EDAEFF0CFEF2AD80D45EFF0A9
:10469C004FEF03A904002AD625450347A9008349F7
:1046AC00B9003AD4EFF0EFEDAA842945EFF06FEDA5
:1046BC006258F2572257B2564256D2551375F50F1F
:1046CC002ACC22C402CA02C802C64EC093084900B2
:1046DC0005459394446026C2EF70400A2A84F64044
:1046EC0022856644D6444649B6492561828003A595
:1046FC00019301CD411106C697C0FF1FE780E06F03
:10470C00B24023A80192410182808280011122CC07
:10471C0006CE26CA8D472E846313F504B831E947BB
:10472C00CA2197E4FF1F938424B26315F7009E28D7
:10473C006382A704EF30805C722016243A2401C5F2
:10474C0072A516A93AA94E202830EFF04FB95A207D
:10475C009E286314F700FD579EA8054525A8896778
:10476C00CD07631CF500BC2131476385E700454745
:10477C00E395E7FEEFE09FD1CDB7B1476317F500A6
:10478C0003C5119AEFF06FBFC9BFC167FD1763086E
:10479C00F5000145F2406244D24405618280D83173
:1047AC00C947E318F7FECC212A203000231401005E
:1047BC00EF3040475DB7411122C44AC006C626C23D
:1047CC001389D195834709001307E00F2E8463806A
:1047DC00E7041307F00F6383E7021145EFD07FB2B4
:1047EC00AA8509CD930700FD1CA189473CA18547EB
:1047FC0000B13CB103450900EFD05FC0F95723006D
:10480C00F900B24022449244024941018280AA84B8
:10481C001145EFD01FAFAA856DD5930700FD1CA1E4
:10482C00894700B13CA124B12244B24092440249D0
:10483C0003C5C19541016FD07FBC011126CA938479
:10484C0001939C4006CE22CC4AC8B5EB2E899165CB
:10485C00238EA1942A84938575713145EF0091497B
:10486C00AA8788C04D45B1C780A3A38007001385D4
:10487C0027002946CA8597C0FF1FE78040E894406F
:10488C009147B82263E2E702CD4711CF0546F547C1
:10489C00630BC7000946C9476307C7000D46C147EC
:1048AC006303C700D547BCA25D3301C52AC6813559
:1048BC003245F2406244D24442490561828045450A
:1048CC00CDBF011126CA938401939C4022CC06CE05
:1048DC004AC8494495CF9C230D44639BA702138976
:1048EC00C199034509008945EFD03FF903450900FB
:1048FC009145EFD09FF89C400147814680B3130649
:10490C00F100854785450145DC87EF6050702A84AE
:10491C00F24022856244D2444249056182804111B1
:10492C004AC006C61389019322C426C205478327B1
:10493C000900631AE500D9C32244B24092440249EB
:10494C0088234101BDBFBDCB8947631EF5042D45AE
:10495C00AE84EFD01F9B2A8435C1930700FD1CA1A8
:10496C00E547A30005003CA1BC3015051946230FF3
:10497C00F5FEDC2093855400A30FF5FE97C0FF1FB6
:10498C00E780E0D703C5119A9307F00F6315F50084
:10499C00832709008823A2852244B240924402490D
:1049AC0041016FD0BFA5894503C5C199EFD0FFEC7C
:1049BC002244B24092440249410115BBB240224408
:1049CC009244024941018280FD4763FCA7000945DE
:1049DC0082800945F2406244D2444249B2490561A1
:1049EC008280011122CC06CE26CA4AC84EC62A8421
:1049FC0021CDAE89916521059385657133450508F7
:104A0C00EF00512FAA8471D51389819503250900D4
:104A1C0009C597C0FF1FE780403E1385840088C0FE
:104A2C00228681452320990097C0FF1FE780E0CFA5
:104A3C00832709002286CE85884397C0FF1FE78015
:104A4C0000CC83270900C2A383A7019385CB83C71E
:104A5C00019A918B95C783A7819591CF9843D623C3
:104A6C006244F240D2444249B24905468D4505455F
:104A7C0005616F60D05501478146DDB7014599BF8F
:104A8C00494589BFFD4763FCA7000945828009455C
:104A9C00F2406244D2444249B2490561828001111C
:104AAC0022CC06CE26CA4AC84EC62A8421CDAE894F
:104ABC00916521059385557133450508EF009123C8
:104ACC00AA8471D5138941950325090009C597C09E
:104ADC00FF1FE78080321385840088C022868145C1
:104AEC002320990097C0FF1FE78020C4832709006B
:104AFC002286CE85884397C0FF1FE78040C083275E
:104B0C000900C2A383A7019385CB83C7019A918B1C
:104B1C0095C783A7419591CF9843D6236244F24021
:104B2C00D2444249B24905468D45054505616F6041
:104B3C00104C01478146DDB7014599BF494589BFF6
:104B4C0083A7819589CFD2238C43411106C697C088
:104B5C00FF1FE780C0BAB240014541018280094580
:104B6C00828083A7819595C303A74195894719CF67
:104B7C0052230C43411106C697C0FF1FE78020B893
:104B8C00B24081473E854101828089473E858280C3
:104B9C0083C7019A918B99CF41111385019506C654
:104BAC00EFE0FF88B240FD5717D7FF1F2316F76AB7
:104BBC004101828001456FE09F87FD57238EF19460
:104BCC00F957A38EF19423AC019423AA019497D79F
:104BDC00FF1F93872769170700001307470798C320
:104BEC00170700001307E7D3D8C3170700001307F4
:104BFC0047A698C797070000938787B123A8F1941D
:104C0C008280411126C2938401939C4006C622C423
:104C1C0085CB2A840D45EFD0CFEEAA8519C9930711
:104C2C0000FD1CA18D4700B13CA19C408823EFD016
:104C3C00EFFC19C42244B240924441016FF03FABE7
:104C4C00B2402244924441018280562101110967ED
:104C5C0006CE22CC26CA13066703AA87639DC6001C
:104C6C001C4501458C23EFF01FB50545F24062440D
:104C7C00D24405618280130677036396C6001C45F7
:104C8C0005458C23CDB713068703639BC6061C45CD
:104C9C009384D1951307E00F80239C206389E7024E
:104CAC001307F00F6382E7021145EFD08FE5AA8559
:104CBC0001CD930700FD1CA1894700B13CA1A301C4
:104CCC0005008820EFD08FF3F9579CA079BF83A7FC
:104CDC0001930145C1DF15E00547231701005886F4
:104CEC0098B39306E1001307D10070008545054584
:104CFC00A3060100EF60B0318DBF22851937B5B71F
:104D0C00130797030145E393E6F6138401931840C8
:104D1C0031DF9C471833842385476304F7020D4524
:104D2C00EFD02FDEAA8519C9930700FD1CA191476E
:104D3C0004B13CA11C408823EFD04FECEFF03F9B1B
:104D4C002DB783A7819589CB9443D2239305E1009A
:104D5C000545EFE0AFF605E10145EFF08F822A86BD
:104D6C0011C6894503C5C199EFD0DF911C40094795
:104D7C00268598B361B71C21858BF9DF0545EFF0CB
:104D8C004F80930700643306F502D9BF411122C44A
:104D9C0003C4019A06C6118809CC17D5FF1F130549
:104DAC00654CEFE06FE84D44B2402285224441014E
:104DBC0082800145EFE04FE7C5BF7547AA87636561
:104DCC00B702114701456378B702ED1593F5F50F5E
:104DDC0061476361B702970601009386E6AFB3C5DE
:104DEC00D52098413697028793F5F50713072005D0
:104DFC00638AE50001458280C847828088438280AF
:104E0C0088478280C84382809307F00F630DF506B4
:104E1C00011126CAAA841305000222CC4AC84EC628
:104E2C0052C456C206CE2E8AB28AB6893A89EFD0BF
:104E3C004FCD2A844D450DC8930700FB1CA0A30041
:104E4C0054012311440123023401130584006146EB
:104E5C0063050902CA8597C0FF1FE780408AA285B7
:104E6C002685EFD0AFD90145F2406244D244424985
:104E7C00B249224A924A05618280814597C0FF1F40
:104E8C00E780A08AE9BF09458280011122CC06CEB9
:104E9C002A844C86D086EF20706609C97800930668
:104EAC00E0070146A28503C5119AB93FF24062445E
:104EBC0005618280930700643306F6026FD09F90E1
:104ECC0015C1411122C406C62A8408219307D00FAC
:104EDC0063E6A700EFD05FA3FD571CA0B2402244AD
:104EEC004101828082801A219307000B6310F70224
:104EFC005C214947639AE700183985476398E700B6
:104F0C002A2185456F2060486D47CDBF82800111F5
:104F1C0022CC26CA4AC806CE2A84AE84328936C62A
:104F2C00EF20D05D324701CDA2856244F240CA86A3
:104F3C0026864249D24403C5119A0561F1B5F24067
:104F4C006244D244424905450561828023A0A19662
:104F5C008280011122CC26CA06CE2A84AE84EF2090
:104F6C00F059A6852285EF90006211ED22856486AA
:104F7C00EF20D05809C978009306F0070146A285A6
:104F8C0003C5119A5135F2406244D24405618280C6
:104F9C00797122D44AD0AE8706D6BA8526D24ECEA7
:104FAC007547328436896364F7042147636CF700D4
:104FBC0015476388E7021947638BE708C167FD173C
:104FCC0085441DA037061400DD1713060620B31701
:104FDC00F0287D8E59EA19677D8F35E793F7171006
:104FEC00F1DFC167FD1789446316F40221A813F79A
:104FFC00F70793062005E313D7FC41677D17631C65
:10500C00E6048D442EC6EF90C05BB2453304954048
:10501C00334404083385840033450508EF20203BD6
:10502C00AA87B3C9040831C5630409002310890099
:10503C002254B25092540259B3053041F2493E8584
:10504C0045616F90003BC167FD17954471BFC16707
:10505C00FD179D4451BF1307200D8D44E39CE7FAC7
:10506C001304C6003344040875B7C167FD178D449B
:10507C00A5BFB250225492540259F2494561828024
:10508C0079714ECEAE89C16526D20147AA84894674
:10509C0013860188FD15054522D406D64AD0EF00AB
:1050AC00704E054421C92A891307300281461146E6
:1050BC00F5452685F13D2AC655440DCD0357A9006B
:1050CC00CE860146788411477885054718A1B247EA
:1050DC002C002685A38007003247FD573CA332479E
:1050EC003CB3EF00F03F2A8411C5324597C0FF1F37
:1050FC00E780A0D0B2502285225492540259F24932
:10510C0045618280411106C6EFF03FCB19C5B24014
:10511C00410117C3FF1F670043CEB240410182809B
:10512C00011106CE2AC6EF9020313245914523A2BB
:10513C00019623A00196A38EA198EF202025F24082
:10514C0005616F1070549397556063D5071479718E
:10515C0003C5D19922D426D206D64AD0AE84EFD03C
:10516C006FA02A8459C918219307000A6314F70801
:10517C0085474C08DC85EF90803811CD9C8599C70C
:10518C00084409C597C0FF1FE78020C72A20854522
:10519C00EF20A01F85A08347610191CF7147636603
:1051AC00F7064D47637BF7069386C7FE130730144B
:1051BC003357D7483DC303A7019601C70347510195
:1051CC002DCF9C8599C7084409C597C0FF1FE78060
:1051DC00C0C25247B7070001938707F07D8FB7070E
:1051EC001200938707106307F70003476101ED472F
:1051FC00E30EF7F82285EFD0AF8BB2502254025950
:10520C001395F468925445618280138717FE1377C7
:10521C00F70F93060002E3F0E6FA858B95CB83A794
:10522C004196A9DF2A201306B1004C0882979C8571
:10523C002A89B1EBE30F09F891BF5C8699472308E3
:10524C00F1002A206C0023170100EF90004995BF54
:10525C0083A701969DC72A201306B1004C0882979C
:10526C002DD183475101E39B07F02308A10083470D
:10527C0061012A206C005C8623170100EF90E04549
:10528C00F5BD1945F9BF084455D597C0FF1FE780F8
:10529C00C0B64DB7014582800145828003C7319A63
:1052AC00814763E4E70001458280922193864500A3
:1052BC006314A6002E8582808507B685DDB71DC5D3
:1052CC00411122C406C638219307D00F2A8463EB00
:1052DC00E7000E2128310147F9465D46EFF0DFB2B9
:1052EC00F9573EA0B240224441018280828003C71C
:1052FC00319A8147FD5663C3E700828016A12301D2
:10530C00050085071105C5BF014582809385518233
:10531C009307000285469CA1FD572382F182A3814D
:10532C00F1822381F1822390D1822396019623A4CA
:10533C00019623A0019823AE019613868182938750
:10534C00818A5CC22382019897D7FF1F938747F20B
:10535C00094718A298A398AB2380E7022388E70299
:10536C001387418994A7D0C794AFD8DB1385418AA2
:10537C000D471386C18993860188238CE702C8C325
:10538C0023950700D0CB239D0700CCCFD4D3238407
:10539C0007022395070223A60702239D070203A7F2
:1053AC000197D8DF97D7FF1F938787F01707000067
:1053BC001307E70A23A00700D8C323A407008280A1
:1053CC00411106C6E13D09C52821B2404101828048
:1053DC000145E5BF411122C426C24AC006C6AA84B3
:1053EC002E893284653DAA8709E94165CA857D15F8
:1053FC007535AA87454581C786A3A0A30145B24050
:10540C002244924402494101828015EF09483547F4
:10541C00639C0603011106CE22CC18221032220600
:10542C00598E32C6B377F64095E3CC452A842EC408
:10543C00413F32460147630DC50022856244A245B7
:10544C00F240056141BF2D473A8582801307000861
:10545C00F24062443A850561828083C805000948A0
:10546C0063900803DC4103C807009C33A207B3E731
:10547C0007010D681308289063940701894771B7D9
:10548C000545828001114EC606CE22CC26CA4AC8DA
:10549C009389318203C709009307F00F630DF7025C
:1054AC002A892945AE843284EFC0BFE5AA8505C59B
:1054BC009307100B1EA12302050002A562442311C1
:1054CC00250166A1F24003C50900D2444249B24904
:1054DC0005616FC0BFF2F2406244D2444249B24906
:1054EC0005618280411126C2AE8483A5019722C436
:1054FC0006C62A84F135098909C922852244B2409D
:10550C00A685924441016FF0BFB7B2402244924449
:10551C00054541018280411122C426C24AC006C6FB
:10552C00AA8413044500130945061E209DC3084494
:10553C0009C597C0FF1FE780408C22853146814505
:10554C0097B0FF1FE780601E3104231A04FEE31E90
:10555C0024FDB2402244FD579EA0024992444101D1
:10556C00828083C6319A83A7819701476394E600B2
:10557C00014582808E23138647066394A5003E85E1
:10558C00828005071377F70FB287CDB7AA8703A5DB
:10559C00019801C95A216314F7000845828008411B
:1055AC00CDBF8280411106C6D53709C50845B2402A
:1055BC00410182800145E5BF797122D413844500F5
:1055CC0026D24AD052CC5AC82E8A06D64ECE56CAAD
:1055DC005EC622892287014B814481468147A145C1
:1055EC00122355C6A5EE46233E23B286A697B3C713
:1055FC000708050B3107E315BBFEBDC0916593850C
:10560C0045702685EFF0106FAA8B39C90C44D1C9AF
:10561C00814A8149522033853B0197B0FF1FE780B7
:10562C00000E5E200844BE99B3C9090897B0FF1F4D
:10563C00E780A07C63980A003109854A832589009C
:10564C004A84E9F9314681452285850A97B0FF1FC6
:10565C00E780A00D63826A053109CDB7630ED600D1
:10566C000145B250225492540259F249624AD24A2C
:10567C00424BB24B456182803223E313F6FE522338
:10568C00B294B297B3C40408B3C707089DB7854753
:10569C00E3E567F70545F1B723267A0123149A0051
:1056AC00D5BF1309C400854A814949BFAA8703A500
:1056BC00C19711E1828018453A276314F700110550
:1056CC0082800841FDB7411106C6CD3709C50A21B4
:1056DC00B240410182800145E5BF411106C6F93750
:1056EC0009C52821B240410182804145E5BF4111E5
:1056FC0022C42A84090506C6EFF08FFCFD573CB086
:10570C00B24022444101828083C7319AAA86850720
:10571C0003A54197014712216307D6000507190518
:10572C00E36BF7FE01458280411122C4416406C639
:10573C0026C29307E4FF630BF500AA8489EDE937D1
:10574C0011E51305F4FFC93711C106A1B24022447B
:10575C009244410182808547639EF50275372A8405
:10576C0075D5FD571EA13C201307F00F6381E7028E
:10577C001307E00F6389E70028300147F9465146CB
:10578C00A685EFF06FE822859D37FD573CA02302DC
:10579C0004006DBF8947E39BF5FA8545EF20207621
:1057AC0055F5268595372A845DFD4DB75D71A2C4EC
:1057BC00CAC086C6A6C24EDE52DC56DA5AD82E8431
:1057CC00AC21F9472A89639EF5023D3F2A8419CD05
:1057DC0038219307D00F63EBE70028310147F946D6
:1057EC000146CA85EFF04FE2228511370145B640DC
:1057FC00264496440649F259625AD25A425B616178
:10580C008280832A0400B7070001938707F03707CB
:10581C001200B3F7FA0013070710B28981446385AD
:10582C00E7022EC6D535B245AA8419CD502109CE32
:10583C0093174660E3CC07FA4A85EFF00FE5DC20BE
:10584C0093E707F8DCA05DB7138A418203470A008F
:10585C009307F00F1945E30CF7F8E147E3E9B7F8C4
:10586C0093D71500FD1717F700001307E712B3E7DE
:10587C00E72003A80700E30C08F603AB4700E30896
:10588C000BF6B3CA0A0863850A00C947E391F5F61B
:10589C00562010440C3008203808029829F92C089E
:1058AC004A85029B1DCD183039F33820230AA100FC
:1058BC00B9472308E1006314F702E24798239C33AD
:1058CC00A207D98F0C084A85FC81EF80106119DD85
:1058DC0014080546D9454A85EFF06FE309BFBC842F
:1058EC00D5B734209147E383F6F003450A00380816
:1058FC000146CA85EFF04FD1E31B05EE2C2028089A
:10590C00EFF0AFCB19C1238009001840B707000195
:10591C00938707F07D8FB707120093870710E30773
:10592C00F7ECE38504EC3C2031BF411122C406C6E0
:10593C002E84EFF07FDD09C95C21138717006315F6
:10594C00E40093F707F85CA1B24022444101828045
:10595C002A8703A5C19711E182801C45B227636B8E
:10596C00C70003584500B306C8006355D7008146ED
:10597C00639406010841C5B703D3A70093880701B8
:10598C006316E30091C192A13E8582808506C6878D
:10599C00B3C60608F1BF397152D42E8A4ED6930580
:1059AC00E100AA89528522DC4AD856D25AD05ECE62
:1059BC0006DE26DA3289368BBA8BBE8A513F054415
:1059CC0025C1AA8428873944EFF05FBC31C903286C
:1059DC00450063070804D6875E87DA864A86A68563
:1059EC004E8502982A840DED9307E00F638AFA0224
:1059FC00982089476316F702DC4098239C33A20752
:105A0C00D98F0D6713072790639CE7008347190014
:105A1C0003460900D285A2075D8E4E85EFF09FA646
:105A2C00F25022856254D2544259B259225A925A97
:105A3C00025BF24B21618280797122D422214ECEFD
:105A4C00AA89228556CA06D626D24AD052CC5AC822
:105A5C005EC662C4AE8AEFF0DFB005E52285EF903A
:105A6C00A00A594411E10144B250228522549254A7
:105A7C000259F249624AD24A424BB24B224C45611E
:105A8C00828003C7890085476307F700EFF0BFA842
:105A9C0003D52900E9B7AA85AA8413858900EFF0FC
:105AAC00BFB12A840DCDFA209624D044CE2003D544
:105ABC002900E147CD35D9472A846318F50023A680
:105ACC0004002685EFF03FA579BF19E126857DBF3F
