:040000006F00907C81
:100004009305000273A04580824573901534924095
:100014002242B2424243D2436244F24402559255D0
:100024002256B2564257D2576258F2580649964958
:10003400264AB64A464BD64B664CF64C065D965D50
:10004400265EB65E465FD65F0961730020303717BF
:1000540000407E2B4111B3C7070893F7F7EFB3C7EE
:1000640007087EAB93078008F3B7078093F78708E8
:100074003EC60F100000930770052300F704930792
:1000840080FA2300F7040F1000009307100E7CC3BE
:10009400B7270040A383078003C77780136707034C
:1000A400A383E7801387C78008C323800780414761
:1000B4002380E78037270040930707829C43E3CDE2
:1000C40007FEB7270040B7060800138707821843C6
:1000D400758F65DF03C72780136707012381E780D6
:1000E40037270040930707829C43E3CD07FE372759
:1000F4000040B7060800930707829C43F58FE5DFAD
:1001040023010780B7170040FA2B13670710FAABD7
:1001140023800704B247F3A707800F100000B70736
:10012400040023A0072001454101828037170040C5
:100134007E2B4111B3C7070893F7F7EFB3C707083E
:100144007EAB93078008F3B7078093F787083EC612
:100154000F100000930770052300F704930780FA3B
:100164002300F7040F1000009307100E7CC3B72779
:100174000040A383078003C7778013670703A38323
:10018400E7801387C78008C309472380E78003C734
:100194000780136707012380E78037270040930710
:1001A40007829C43E3CD07FEB7270040B70608004B
:1001B400138707821843758F65DF03C7278013678A
:1001C40017012381E78037270040930707829C4368
:1001D400E3CD07FE37270040B706080093070782E0
:1001E4009C43F58FE5DF23010780B7170040FA2B06
:1001F40013670710FAAB23800704B247F3A70780FD
:100204000F100000B707040023A007200145410197
:100214008280371700407E2B4111B3C7070893F73C
:10022400F7EFB3C707087EAB93078008F3B70780DF
:1002340093F787083EC60F1000009307700523004C
:10024400F704930780FA2300F7040F1000009307C4
:10025400100E7CC3B7270040A383078003C77780B1
:1002640013670703A383E7801387C78008C3114775
:100274002380E78003C70780136707012380E78093
:1002840037270040930707829C43E3CD07FEB72737
:100294000040B7060800138707821843758F65DF8F
:1002A40003C72780136727012381E780372700408E
:1002B400930707829C43E3CD07FE37270040B70628
:1002C4000800930707829C43F58FE5DF230107802D
:1002D400B7170040FA2B13670710FAAB2380070403
:1002E400B247F3A707800F100000B707040023A04C
:1002F4000720014541018280371700407E2B011100
:1003040022CEB3C7070893F7F7EFB3C707087EAB4E
:1003140093078008F3B7078093F787083EC60F104A
:100324000000930770052300F704930780FA230065
:10033400F7040F1000009307100E7CC3B72700408A
:10034400A383078003C777800148054F136707031A
:10035400A383E780B7080800930F000293020010FC
:1003640015E6B7170040FA2B13670710FAAB238082
:100374000704B247F3A707800F1000007244B707C1
:10038400040023A00720014505618280A380E78142
:10039400138707821843E34D07FE13870782184328
:1003A400337717017DDB03C77780B303A800338459
:1003B400050113674700A383E780A380F7811387B0
:1003C400C780232077000143B35E560A330E6400CE
:1003D40003471E0083460E002207558F83462E00D6
:1003E400C206D98E03473E006207558F9386078263
:1003F4009442E3CD06FE938607829442B3F6160137
:10040400FDDA9386078198C21103E361D3FD138754
:1004140007821843E34D07FE138707821843337797
:1004240017017DDB1387C78023207700A381E78131
:100434003306D6417698138707821843E34D07FEA7
:10044400138707821843337717017DDB11BFB71772
:100454000040FA2B4111334707081377F7EF33476E
:100464000708FAAB130780087337078013778708E8
:100474003AC60F100000130770052380E704130722
:1004840080FA2380E7040F1000001307000C6313A5
:10049400E5049A271367070C9AA7B717004003C708
:1004A400E7021367C7002387E70203C7E70413774C
:1004B400C70F136717002387E704FA2B1367071086
:1004C400FAAB23800704B247F3A707800F1000009C
:1004D40041018280B82793750520B9C9118B1DEBA2
:1004E40003C7E704B4271377F70F93E64600B4A7CE
:1004F40096279227B3C606081366060C92A7A5474B
:100504000100FD1793F7F70FE5FFB717004096A713
:100514002387E704371700403C2793E707013CA7EC
:100524009377F50191EBB72700401307500421A8F6
:1005340013672700B8A7F9BF93778501EDF7B727AD
:100544000040130790042382E78093070028631C6C
:10055400F502B7170040130720209AA701000100F5
:1005640001000100371700409316B0281E27F58FAD
:10057400F5DF930700281EA7371700403C2793F7A1
:10058400D70F3CA719BF93070008631AF502B717E2
:10059400004009479AA70100010001000100371734
:1005A40000409316B0281E27F58FF5DF9307000847
:1005B4001EA7371700403C2793F7B70FD9B7B717D3
:1005C4000040334505088AA7EDD57DB7197106C2E9
:1005D40012C416C61AC81ECA22CC26CE2AD02ED2BF
:1005E40032D436D63AD83EDA42DC46DECAC0CEC26F
:1005F400D2C4D6C6DAC8DECAE2CCE6CEEAD0EED29F
:10060400F2D4F6D6FAD8FEDA9385C1918841E70090
:10061400050092402242B2424243D2436244F24431
:10062400025592552256B2564257D2576258F25842
:1006340006499649264AB64A464BD64B664CF64C72
:10064400065D965D265EB65E465FD65F0961730001
:1006540020304111B7170040985F3AC6945F324783
:10066400E39CE6FE324541018280B7170040130740
:1006740000032388E702854723A2F1927300203008
:10068400973000E0E780208C73002030411106C6CB
:10069400A52CFDBF7971974700009387A7B422D496
:1006A400804306D626D24AD04ECE52CC56CA5AC819
:1006B4005EC679C037C9C901014B974900009389C7
:1006C400E9B11309F937174A0000130AEAB1974A46
:1006D4000000938A6AAC974400009384A4B58357BE
:1006E400240085E75C44631F0B0017470000232B9D
:1006F400F7AE832BC4002285976002E0E780A091C7
:100704005E84A9A82326FB00EDB783A7090082977E
:100714001C443307F5406375F500D8401D8F2A97B4
:100724006361E9089747000023AC07A683552400BA
:1007340003450400974000E0E780E0A95C4058448A
:10074400B9C70C44D040AE97BE8663E4B70063E4F7
:10075400C700B386C74014C4228B3A8449F0974734
:100764000000938767A39C4709476373F708F91749
:10077400174700002326F7A2B2502254925402597C
:10078400F249624AD24A424BB24B456182806317B6
:100794000B009747000023A7E7A4A1BF2326EB0083
:1007A40089BF03274A021DCF63E1A7043385A7400D
:1007B4008347040085E317470000034757A45917EC
:1007C400B307A7003E85D44063E4E70063E4D700A1
:1007D4003385D74083A78A006376F50097470000E6
:1007E40023A0A79C228B404495BFD840BA977DBFD5
:1007F4009747000023A6079A41B7411122C426C295
:1008040017440000130404A3974400009384C4987D
:1008140094445840974700009387479C06C69C43DE
:100824006397E60882975440B74736FE938707C814
:10083400B6973387A7003A856364F7006364D700EB
:100844003305D74097440000938404B8DC5081CF2B
:1008540097470000938707BF94433707CDFF7D1761
:100864009C46F98F9CC611E1484097470000938746
:10087400A797DC53829719E9DC508DC7974001E0B4
:10088400E780E002973001E0E7806052DC5099CBCA
:1008940097470000938707BB9843B70633001C476C
:1008A400D58F1CC7B2402244924441018280829772
:1008B40094445840B387A6003E8563E4D700E3E33D
:1008C400E7F83385E740BDBF974700009387079655
:1008D4009C4385C3411106C682979747000083C78E
:1008E400C78F89E79747000023A20794B2404101CC
:1008F40082809747000083C7478E91E7974700009F
:1009040023A6079282808280411122C417440000EA
:100914001304C48A1C4006C626C24AC091C78297E3
:100924009747000023AC07889747000083C717AA9E
:10093400858B17490000130929A989CF83477900BA
:100944001947631EF70E97470000A38107A85D218E
:100954005C4482971C4491C382979744000093841B
:10096400248898409747000083C7078317460000F0
:1009740003469682814593961700BA9683D606005D
:10098400F9CA89C5974600002388F68017450000F8
:10099400034585806368C50C97370000238E077E66
:1009A4001C40639A071297470000938727839C4350
:1009B40063830712974700009387C787DC43173781
:1009C4000000232FF77CF9319747000083C757A015
:1009D40091CF8347790093F7F70F89EB974700008E
:1009E400A388079E973001E0E7806079973700007D
:1009F4009387877FDC53E5C3973700009387C779D4
:100A04009C47F1CB8347790015476366F70C9747FA
:100A1400000083C7E7A0918BDDEF9737000083C701
:100A2400C77BD5EB90409736000083C6F67663CA41
:100A3400D70A2244B2409244024941017DBB834714
:100A440079001D47E318F7F097470000A380079843
:100A540055261C48FDBD850793F7F70F8545E3EC44
:100A6400C7F00DB7931715003E9783550700231061
:100A74000700973700002391077697370000938784
:100A8400A7739C4313172500BA979C438297973703
:100A9400000083D76774944093C7F7FF17370000AB
:100AA4000347876F7D8D93171700BE9683D7060083
:100AB4005D8D2390A60011C7050797370000238D8D
:100AC400E76C173700000347276D9737000083C78B
:100AD400B76CE373F7ECB2402244924402494101FB
:100AE4008280139717003297035707006DF7850725
:100AF4003DBF0000EFF05FDD730000000000000068
:100B0400973200009382626D038302002380020007
:100B1400630F0300F32510342EC09705000093855E
:100B2400A5FD73901534EF0060467300203086DC19
:100B3400EF00C045E650828000001747000013070D
:100B440027881443411122C4BC424AC006C6998373
:100B540026C2858B3A841749000013092986D1CB14
:100B640093070006BCC21747000003474786930754
:100B740000089744000093842485631BF7008327AF
:100B840009009C4393F70704174700002301F784E7
:100B940083C7040093F707049DC397370000938726
:100BA400E7639C4382979747000023ADA78283C7DE
:100BB400040093F7F70B174700002307F78083C758
:100BC400440093F7070495E7854717370000A30F00
:100BD400F77E974700009387A7819C43370702005D
:100BE40098C7130700FC973600002381E67E9848D7
:100BF400F8D318403C439183858B8DC33C4393E7E2
:100C040007013CC3973700009387877E9C4323A248
:100C14000706854717370000230AF77A8327090058
:100C2400D8430583058B19C7D843759BD8C3D843CC
:100C3400799BD8C3B2402244924402494101828044
:100C4400ED3D730020309317D50063D30702973727
:100C540000009387E7799C437D57B8D79737000006
:100C640093878753DC4B8507173700002320F754FD
:100C7400937785009DCB9737000083C7077593E76B
:100C84001700173700002302F774930700F817378B
:100C94000000230DF772973700009387677298431B
:100CA4005C5BF19B93E717005CDB937715008DC7C2
:100CB4009737000083C7577193E717001737000071
:100CC400A304F770973700009387876F98435C5BA2
:100CD400F19B93E717005CDB93776500B1C7973707
:100CE40000009387E76D984393774500973600009B
:100CF4009386866DE1C31C43A1838D8B89EB973763
:100D040000009387E76E9C4313068007D0CF83C708
:100D1400060093E71700973600002387F66A5C5BAA
:100D2400F19B93E717005CDB9317F50063D407028C
:100D3400174700000347C782418B9737000093870A
:100D4400E77A51C383C7470793E7070217470000B1
:100D54002308F7809317E50063D70702973700004D
:100D640083C7C766E207E18763D70700854717375C
:100D74000000230DF76497370000938767679C434F
:100D84003707020098C79317C50063D407021737C3
:100D940000000347F77C058B97370000938707759E
:100DA40029C383C7570793E7270017370000A30910
:100DB400F77A828083C7360093E7170097360000DE
:100DC400A385F660A9BF03C7470789463D8B63081F
:100DD400D70083C747070D47BD8BE39DE7F69147CF
:100DE400B5B703C75707118B69D783C7570793E76D
:100DF400870065BF973700009387875F94439737D1
:100E040000009387675C03C70700058B11CB9737F6
:100E14000000238D075A97370000A389075A828060
:100E240003C71700058B65F7F85271FF83C7570096
:100E3400DDB7411126C206C622C49734000093844C
:100E4400245B3DED9440AE87F8527DFF37F400E01B
:100E54003E8597370000238A0756832704D1B2853D
:100E6400ED9B2328F4D0832704D193E7870223281A
:100E7400F4D073005010973001E0E78000139737E7
:100E840000009387E7539C43B70600019843558FAE
:100E940098C3D85B719BD8DB97370000A3880752AF
:100EA40097370000A38207529C40094798C38327C1
:100EB40004D193E787002328F4D0730050100DA0C9
:100EC4008D476315F504973700009387674F9C435C
:100ED400B70600019843558F98C3D85B719BD8DB44
:100EE4009440173700001307274E83472700858B4C
:100EF40089EB83473700858BD9C797370000238751
:100F0400074CB24022449244410182808547E31950
:100F1400F5FCB7F700E003A707D16D9B23A8E7D042
:100F240003A707D11367870223A8E7D073005010E3
:100F340098408177FD175447F58F5CC70F10000068
:100F44009840B70702001CC7930700F81736000043
:100F5400230EF64697370000938787469C439C43AD
:100F6400A1838D8B91EF930760197CD354C737F716
:100F740000E0832707D193E787002328F7D035BF04
:100F84009307E01BDDB7FC52ADF3A5BF9737000014
:100F9400938707469C438847D847798D09C988C7F2
:100FA4009387819D03A30700630303000283828068
:100FB400973700009387C74398433C5BFDFF0100CC
:040FC4000100828026
:100FC80097110020938181CA177100201301010332
:100FD8001305400097F5FF1F93854502170600206B
:100FE800130606FE63FAC5008322050023A05500F8
:100FF80011059105E3EAC5FE175502001305C51151
:10100800970500209385C5FB1386818D63FAC5007B
:101018008322050023A0550011059105E3EAC5FECA
:101028001385818D973500209385455F6377B500DB
:10103800232005001105E36DB5FE9302500273905D
:1010480002BC8D42739042808542739012BC930219
:10105800800873900230970200009382223A93E24C
:1010680032007390523097320000938222A8739016
:10107800123473002030000000000000000000005F
:101088000000000000000000000000000000000058
:101098000000000000000000000000000000000048
:1010A8000000000000000000000000000000000038
:1010B8000000000000000000000000000000000028
:101408009C1400006A210000A9BDF9F30000002027
:101418000000000000000000000000209C140000F4
:1014280000000000000000009C1400000000000004
:101438009C140000000000009C1400009C14000094
:101448009C1400009C1400009C140000CC05002093
:1014580080060020000000009C1400009C1400007E
:101468009C1400009C1400006A0600209C140000D4
:101478009C1400009C1400009C1400009C140000A4
:101488009C1400009C1400009C1400009C14000094
:101498009C14000001A02A8309CA83830500230045
:1014A80073007D16050385056DFA82802A8311C6AF
:1014B8002300B3007D16050365FE8280B717004040
:1014C800B85F1377F7F7B8DF130700F8A38DE704C1
:1014D8003D47238CE70413075003A38CE70482805D
:1014E800371700408347E7041205411193F7F708BF
:1014F800C98F93F7F70F93068008F3B6068093F623
:10150800860836C60F100000930670052300D7041E
:10151800930680FA2300D7040F1000002307F7046E
:1015280023000704B247F3A707800F10000041010A
:101538008280B717004003C7E7020D89411113776E
:10154800C70F498F93068008F3B6068093F686087E
:1015580036C60F100000930670052380D704930643
:1015680080FA2380D7040F1000002387E702238026
:101578000704B247F3A707800F10000041018280DB
:1015880041112A830148930E407E130F0019930FCF
:101598004006B348030863EF1E01130300193373B1
:1015A80065028542FD4363F6B2088D4F214F930EC5
:1015B8004006A1A07D13336EE3039308E016630E83
:1015C8000E00336EF3039308D01663080E00937869
:1015D800330093B818009388D816C29833C80808FF
:1015E8004DBF93F81500138EF5FF637CBF02F90811
:1015F800C29833C80808B3450E08E394F5FF85453B
:10160800630B0300B378D50381456386080093759F
:10161800350093B51500F105C29533C8050889450D
:10162800E9BFB3881341C29833C80808B3450E0808
:101638009DBF7D16329879463307C70213D6170027
:10164800BE073348080832976146B3F6C602130648
:101658008070B386C6023697A166F58F4207D98F88
:10166800B716004003C7F60213770708D88390839C
:1016780003C7F60213770708E316E6FE9883B71642
:1016880000404DCF1307800873370780137787080A
:101698003AC40F1000003717004093067005230066
:1016A800D704930680FA2300D7040F100000232ADA
:1016B80007038346170393E60608A308D702230007
:1016C80007042247732707800F1000001166371799
:1016D80000407D16545B4C5FAD8EF18EE5FE93069F
:1016E8008008F3B6068093F6860836C60F10000009
:1016F800930670052300D704930680FA2300D704C5
:101708000F1000005CDB8347170393E70704A30867
:10171800F70223000704B247F3A707800F10000061
:101728004101828003C7F60213770708D8839083A4
:1017380003C7F60213770708E316E6FE98837DD3FE
:1017480091B74111B7170040985F3AC6945F324786
:10175800E39CE6FE324541018280317122DD4ED79D
:1017680006DF26DB4AD952D556D35AD15ECF62CD91
:1017780066CB6AC96EC7AA8902D8EF0030152A84D9
:1017880093078008F3B7078093F787083EDA0F10AE
:101798000000B7170040130770052380E7041307FC
:1017A80080FA2380E7040F10000003C7F7021377BD
:1017B800770FA387E70203C7F70213678700A3879A
:1017C800E70223800704D257F3A707800F10000011
:1017D8000D4585339167938707E8B347F402930A69
:1017E800E0025167130707883EC4FD873ECC930784
:1017F80080C1B347F402B38A5703B3CAEA0293D647
:10180800FA4136C6B306504136CE93DDF64193060B
:1018180040FAB387D7029546B3C7E7021387290072
:101828003EC8FD873ED08567938707FA3399E7005E
:1018380063E4360133993701E1679387076AB34751
:10184800F402116A014B814BB71C0040930480FAE3
:101858003309F902930700103349F9029307400648
:101868003309F9029307D0073349F9029357F9412D
:101878003ED29307FA8EB397E70037B7C40413072D
:1018880007403344E4027D1AB387870213048008B3
:101898003EC2FD873ECA73370480137787083ADC57
:1018A8000F100000130770052380EC04138D0C043F
:1018B80023809C040F10000003C73C051377870F93
:1018C800A389EC0403C73C0513671700A389EC043C
:1018D80023800C046257732707800F100000130C35
:1018E800700573370480137787083ADE0F100000FD
:1018F800930770052300FD0023009D000F100000D2
:1019080003C73C0513670702A389EC0403D70C053A
:101918001317E7282398EC0403D70C051317F728A7
:101928002398EC0423000D007257732707800F10CB
:10193800000003C73C0513770702630F073603C788
:101948003C05218B6DDF0818EF00E07D73370480BC
:1019580013778708BAC20F10000023008D012300F7
:101968009D000F10000003C73C051377F70DA389EE
:10197800EC0403C73C0513670702A389EC0403D7EB
:101988000C051317E7282398EC0403D70C05131745
:10199800F7282398EC0423000D00164773270780C7
:1019A8000F10000003C73C0513770702630D0732C9
:1019B80003C73C05218B6DFF69332A873AD451331D
:1019C8002257E30DE5FE03D70C0542551317E72808
:1019D8002398EC048D2F03C73C05218B6DDF03D7BB
:1019E8000C0583C62C05A24733774701B386460307
:1019F80013D6F641BA96B388F640E24733B7E60005
:101A080032971D8FB247B3B61601158F63C6E7002C
:101A1800631BF70063F91A01634EB72F6395ED0056
:101A2800F24763E9F82E894663F8762F7337048006
:101A380013778708BAC80F100000130770052380B2
:101A4800EC0423809C040F10000003C73C0593F6A8
:101A5800F90F1377870FA389EC0403C73C05558F4B
:101A6800A389EC0423800C044647732707800F10D2
:101A780000001306700503C73C051D8B631637333A
:101A88007337048013778708BACC0F100000130748
:101A980070052380EC0423809C040F10000003C70A
:101AA8003C051377F70DA389EC0403C73C051367BE
:101AB8000702A389EC0403D70C051317E72823981A
:101AC800EC0403D70C051317F7282398EC0423809C
:101AD8000C046647732707800F10000093067005F3
:101AE80003C73C0513770702630A072E03C73C05A3
:101AF800218B6DDF0818052D73370480137787084D
:101B0800BAD00F100000130770052380EC0423805F
:101B18009C040F10000003C73C051377F70DA38939
:101B2800EC0403C73C0513670702A389EC0403D739
:101B38000C051317E7282398EC0403D70C05131793
:101B4800F7282398EC0423800C0406577327078092
:101B58000F1000009306700503C73C0513770702B2
:101B68006309072A03C73C05218B6DFFD93E2A8CE0
:101B7800C93EE30F85FF03D70C0542551317E72825
:101B88002398EC04C92303C73C05218B6DDF733709
:101B9800048013778708BAD40F1000001307700564
:101BA8002380EC0423809C040F10000003C73C052D
:101BB8001377F70DA389EC0423800C0426577327A9
:101BC80007800F10000083D50C0503C72C0592571A
:101BD800B3F54501330747039356F7412E97B335BD
:101BE800B700B695330527413337A7009D8D998DEA
:101BF8002167130707D06346B00063970524630580
:101C080005243338E5021246D246B385E50233058A
:101C1800E502C295EF105246130715003335A700A9
:101C2800AA956346B000639B05286309072883D6F5
:101C3800CC0295823386E600B336D600AE9663486A
:101C4800D000639C06309306F00F63F8C63009474E
:101C5800637D672193078008F3B7078093F78708A8
:101C6800BED60F100000B717004013077005238079
:101C7800E704130780FA2380E7040F100000DA371F
:101C880089668116558F33470708DAB7238007041A
:101C9800B657F3A707800F100000FA506A54DA54B9
:101CA8004A59BA592A5A9A5A0A5BFA4B6A4CDA4C78
:101CB8004A4DBA4D296182807337048013778708AB
:101CC800BAC00F10000023008D0123009D000F10E3
:101CD800000003C73C0513670702A389EC0423002F
:101CE8000D00064799B17337048013778708BAC483
:101CF8000F10000023008D0123009D000F1000002D
:101D080003C73C0513670702A389EC0423000D00F1
:101D1800264769B1E39C0BD04246825693151700BB
:101D280013D3F80113951800B365B3003AD646D417
:101D3800EF1092343257850B93FBFB0F6346E0009C
:101D480031EFA258638C08049306150033B5A6003A
:101D5800AA9513D7F501BA9633B7E6002E97858270
:101D68007E07558FF336048093F68608B6C60F10A3
:101D7800000023008D0123009D000F10000083D672
:101D8800CC023697334707082396EC0223000D0050
:101D98003647732707800F100000A1B69306F5FF9A
:101DA80013351500898D75B7733704801377870845
:101DB800BACA0F1000002380CC0423809C040F10A3
:101DC800000003C73C05558FA389EC0423800C044D
:101DD8005647732707800F10000071B973370480C6
:101DE80013778708BACE0F1000002380DC04238005
:101DF8009C040F10000003C73C0513670702A38962
:101E0800EC0423800C047647732707800F1000002A
:101E1800C1B97337048013778708BAD20F1000004E
:101E28002380DC0423809C040F10000003C73C05BA
:101E380013670702A389EC0423800C041657732741
:101E480007800F10000009BB3338E502D24612465E
:101E5800B385E5023305E502C295EF10F22193360A
:101E680015001307F5FF958D6DBB130780087337B1
:101E7800078013778708BAD80F100000B7160040FC
:101E8800130770052380E604130780FA2380E6040D
:101E98000F100000DA36056601161377F70F518F19
:101EA80033470708DAB623800604465773270780A6
:101EB8000F100000050B137BFB0FF1BAB366B700D8
:101EC800C9CE83D6CC023336E000B305B040918D3D
:101ED8003305E04095826345B000C1E163FFA60683
:101EE8000947637E670393078008F3B7078093F772
:101EF8008708BEDA0F100000B717004013077005F7
:101F08002380E704130780FA2380E7040F100000FA
:101F1800DA377D8BDAB723800704D6579DBB733732
:101F2800048013778708BADC0F10000013077005C8
:101F38002380EC0423809C040F10000003D7CC02FC
:101F4800856681161377F70F558F33470708239651
:101F5800EC0223800C04665791BF93078008F3B7FF
:101F6800078093F78708BEDE0F100000B717004000
:101F7800930670052380D704930680FA2380D7043C
:101F88000F100000D6371607369733470708DAB719
:101F980023800704F657F5B9D1C901114AC8416928
:101FA80022CC26CA4EC652C406CE2A84B304B50033
:101FB8009309F07F130AF9FF63649400014539A877
:101FC800B387844063E62703B377440185E7228516
:101FD80097E0FF1FE780A02311C90945F24062443A
:101FE800D2444249B249224A056182804A94E9B7FB
:101FF80063FFF9009377F47F99EB228597E0FF1F41
:10200800E780801279F99317B0283E9475B79377D3
:10201800F40F91EB228597E0FF1FE780000355FD41
:102028001304041051BF137404F0EDB70545828002
:1020380081476394C700014582803387A700142332
:102048003387F500850714A3EDB7914763ECB70410
:102058009737020093878726B3C5F52098413E97A6
:10206800B71700409387470B028794433717004000
:10207800B3F6A64094C39306070B9C42B3F7A74058
:1020880019A8944337170040B3F6A64094C39306A3
:10209800070B9C42C98F9CC29307070A9843337762
:1020A800A74098C38280944337170040C98ED9B798
:1020B80098433377A74098C3B71700409387070A18
:1020C8009843498FF9BF9843498FF5B7B716004031
:1020D8009A26B3470708137707041DE3FD8B91EB96
:1020E8009E2693F707209DC73755E80113050580FD
:1020F80082803755E801130505803345F502828053
:1021080013F7070C93060004631BD700FD8B3745B4
:102118009C1CD5B73725F40013050540828021653E
:10212800130505D0828037E700E01C435443A183A0
:10213800E206D58F1CC1FD572320F7182322F71874
:102148000F100000828013178500B7E700E023A076
:10215800E710618123A2A7108280B7F700E08847C3
:102168008280411113078008F337078093F78708A7
:102178003EC40F100000B7170040130670052380F7
:10218800C704930680FA2380D7040F100000FD557A
:10219800CEB723800704A245F3A505800F100000E1
:1021A80073370780137787083AC60F10000023801B
:1021B800C7042380D7040F10000003C76704136700
:1021C80017002383E70423800704B247F3A7078097
:1021D8000F10000001A03285814737370040A14623
:1021E80063C3A70082800346B740E30ED6FE33865A
:1021F800F500102285072304C740DDB797F6FF1FB7
:102208009386C626AA878842172700201307074106
:10221800AA9763E9E7000A87130707FC6364F700D6
:102228009CC282807D558280411122C406C62A84C0
:10223800713D2947B307E502B2408D83B3D78702C2
:1022480022449507B3D7E70237370040B3C70708DA
:102258002316F7404101828071654111130505205D
:1022680006C6D937B7370040130770F82381E7400F
:102278000D47A381E74013070004A380E740054703
:102288002387E740B24041018280B787004023801E
:1022980007001307C0FCD8A7D8B703D7418E9AAB5D
:1022A80003D7018EDAAB03D7C18D9AAF03D7818DDF
:1022B800DAAF89462381D70249472383E70223857A
:1022C800E7022387E7022389D702A38107001307C0
:1022D800900298A3B7160040BA2E1367070CBAAE3F
:1022E8007D57F8A3130710F898B31D47B8A3828049
:1022F800B78700402384A70203C7A7021377C70F35
:102308002385E7028280797122D406D626D24AD064
:102318004ECE52CC9C2513F4070259E483C805001D
:102328000948AE8463990807DC41AA89328903C841
:1023380007009C33368AA207B3E707010D68130824
:102348002890639707038547EF70605F2A8415E13B
:1023580003A7018F11CF83471900834609004C005A
:10236800A207D58FB337F00085073EC24E85029786
:102378000144BA2497F7FF1F83D7E7CA631DF70004
:1023880083A7018F89CB0D473AC2231641014AC45E
:102398004C004E858297B25022852254925402599D
:1023A800F249624A456182802144F5B7C167F9174D
:1023B800630CF502411122C406C685472A84639A34
:1023C800F50022852244B240938501A441016F9013
:1023D800A01789476396F5008545EFB0004875D189
:1023E800B2402244410182808280411117350200A7
:1023F800130505EE22C426C24AC02E84368906C6B5
:10240800B284EF109252142089476393F6025C401D
:1024180098239C33A207D98F0D67130727906399D8
:10242800E7004C4409462310D9002685EF105029AF
:10243800B24022449244024901454101828041113F
:1024480026C2AA844165938501A47D1506C622C4C7
:10245800EF90800F17050000130585F5EFB0A03742
:1024680097F6FF1F9386C6B54146994517F5FF1F96
:102478001305C5B5EF90A0022A8419C517350200C7
:102488001305C5E5EF10724AB2402285224423A8FD
:10249800918E924441018280411122C42E849385F9
:1024A80001A426C206C6AA84EF702044058919CD66
:1024B80097F7FF1F83D727B41EA0A2852244B240F6
:1024C80026859244014641016F80001CB240224497
:1024D80092444945410182803285D041411106C666
:1024E8000C32034806000D66A205B3E50501930802
:1024F800A6A21398556063C80803130626A263585A
:10250800060375761306C65DB2951946B3C5050868
:102518006363B60217380200130808DEB3C5052145
:10252800904142960286130606A5630BC80E2390B7
:102538000600A94505A01D469D45636DE600214698
:10254800198E3356F60A9385418F92A2BA95EF10E9
:1025580030178145B2402E85410182802D469D4528
:10256800E36AE6FE3146198E3356F60A97350200BD
:10257800938545E192A2D9BF31469D45E36CE6FCBF
:102588003546198E3356F60A97350200938585DE4F
:1025980092A26DBF41469D45E36EE6FA4546198E07
:1025A8003356F60A97350200938585DB92A279BFE8
:1025B80041469D45E360E6FA4546198E3356F60ACC
:1025C80097350200938585D892A249B741469D4523
:1025D800E362E6F84546198E3356F60A9735020047
:1025E800938585D592A29DB741469D45E364E6F65D
:1025F8004546198E3356F60A97350200938585D2DB
:1026080092A2A9B735469D45E366E6F43946198E88
:102618003356F60A973502009385C5CF92A23DB787
:1026280019469D45E368E6F2998D33D6F50A97F584
:10263800FF1F938525E492A211BF97F6FF1F93868B
:10264800E69E4146CD4517F5FF1F1305E59E6F80B1
:1026580010652D4835E3328590210947631BE60450
:10266800D841411106C6102318332207518F4166FD
:10267800130846FE63030703636CE8007D070546FD
:1026880033470708637BE60023900600294831A8F2
:102698001516E31BC7FE154711A00547CC4533D6D1
:1026A800E70A92A2EF10D0010148B24042854101E9
:1026B800828023900600054842858280011106CE5B
:1026C80022CC26CA4AC84EC680251374040251EC8F
:1026D80083C905000948AE87639B090903A845001B
:1026E800B284368903430800034818002208336877
:1026F80068004163130E13FE6304C8030D13630CD3
:1027080068048D67938727902944631EF802624402
:10271800F240D2444249B249854705616F70202290
:1027280029EB05476369D704C8470546A685EF1016
:102738002079814983A7819199C79C4389C74A8693
:10274800A6854E858297F24022856244D24442494A
:10275800B2490561828011EF0547636ED700C8470B
:102768000546A685EF10C075F1B72144E9BF0544B9
:10277800D9BF2D44C9BF3544F9B7C167F917630CF0
:10278800F502411122C406C685472A84639AF500DA
:1027980022852244B2409385419041016F80D05AEE
:1027A80089476396F5008545EFB0200B75D1B24097
:1027B8002244410182808280411122C42A844165D9
:1027C800938541907D1506C6EF80105817050000C7
:1027D8001305E5FA0588EFB0000005C02244B240B1
:1027E80097F6FF1F938646984146C54517F5FF1F84
:1027F8001305459841016F80904AB2402244014533
:102808004101828009C523ACA190014582804545DC
:1028180082801147636CA70697360200938686B7B5
:102828003345D52018414111AE87369706C6B28583
:102838000287054761456398E7000546138541917E
:10284800EF1000680145B2404101828005476145AB
:10285800E39BE7FE054613850191DDB70547614512
:10286800E393E7FE05461385C190D9BF0547614547
:10287800E39BE7FC054613858190D9B71547614569
:10288800E393E7FC15461385C18F5DBF0945828038
:10289800411122C42E849385419026C206C6AA847B
:1028A800EF70A004058919CD97F7FF1F83D72798E4
:1028B8001EA0A2852244B2402685924401464101C9
:1028C8006F70905CB2402244924449454101828035
:1028D80011456FE09FE8B287411113962500BE8528
:1028E80006C6EFF0EFF4B240014541018280411184
:1028F80022C413942500A28506C626C24AC0AA840B
:102908003289EFF06FE92286CA85268597E0FF1F96
:10291800E780409EB2402244924402490145410169
:102928008280011122CC06CE3714004026CA4AC83C
:102938004EC652C483447405034AB40583498405CA
:1029480003499405EFE09FB78347A40593F4F40F78
:10295800137AFA0F93E71700230DF40493F9F90F8C
:102968001379F90FB717004003C7A705058B6DFF4B
:1029780003D5C705A38D4705238C3705A38C2705E9
:10298800A38B9704F2406244D2444249B249224A96
:1029980005618280411122C406C62E849397556032
:1029A80063DD0700EF10A02919C1EF10A01D131552
:1029B800F468B24022444101828093F7150013C5A0
:1029C8001500E5FB8967ED8F85C3EF10F1510937D5
:1029D80037F60200130606E0896503C50192EF1079
:1029E800901E1315D468F1B711656D8D79D117351F
:1029F80002001305659BEF1042731306006491658E
:102A080003C50192EF10301C1315E4685DB71D7102
:102A180049469735020093856599173502001305D5
:102A2800A5F286CEA2CCEF10005C01E917350200B2
:102A380013050599EF10626F01A0B7F700E023A412
:102A48000700795798CB3D4798C30564B7E700E07E
:102A580023A087180F10000017E7FF1F1307070AA6
:102A680023AEE190130700F8A38AE7401306000499
:102A780081450808EF10E04B97070020938747EC43
:102A88003EC8896793870780FC82B7B703003ECCAE
:102A9800B7070105938707103ECEED472310F102D3
:102AA80085472301F10297070000938707E3BEC219
:102AB800970700009387E7E3BEC4930714D1231256
:102AC800F10297F7FFFF938787693ED8370504001F
:102AD80097070000938727E53EDC19469707000013
:102AE800938747DF2C00130585213EDEEFF04FD496
:102AF800A2473ED43C862316F102C24781C7BC8256
:102B080063F3870001A00808EF101069AA8501C9BE
:102B1800173502001305058CEF10424D01A0F64051
:102B28006644256182804111170500001305C5E63A
:102B380006C622C4EF1090621384019208A01128DF
:102B480008202244B24013060032896541016F1003
:102B58009007797106D613078008F337078093F733
:102B680087083EC20F100000B71700409305700594
:102B78002380B704130680FA2380C7040F100000CF
:102B880083C6F70293F6A60FA387D702238007040C
:102B98009246F3A606800F1000007337078013775C
:102BA80087083AC40F1000002380B7042380C704A5
:102BB8000F10000003C7F70213672700A387E70277
:102BC80023800704A247F3A707800F1000000D45D4
:102BD800EFE03F96F539814701478146054685452F
:102BE8001305407EEFE0DF99680051468145EF10FC
:102BF8004034B707C0A83EC8B787E803938707D013
:102C08003ECA680097E7FF1F938767A43EC6EF2078
:102C1800E00EB2504561828010C90CC14CC10CC590
:102C2800232A0500B2954CC510CD23A4D1928280E9
:102C380001114EC69389819283A7090022CC26CA26
:102C48004AC806CE2A84AE84328999C3054582973C
:102C58001C48054563E7270758445C401D8F636996
:102C68002707338724016383E4045C408504938643
:102C7800170054C083C6F4FF94A3F5B750408506E7
:102C8800930516004CC09C231CA2B387D400E3977D
:102C9800E6FE1840CA9458C05840850793061700A6
:102CA80054C083C6F7FF14A3E398F4FE1C48B38707
:102CB80027411CC85C48CA975CC883A7090099EBE0
:102CC8000145F2406244D2444249B24905618280DA
:102CD800814665BF01458297E5B701114EC69389C4
:102CE800819283A7090022CC26CA4AC806CE2A8424
:102CF800AE84328999C3054582975C48054563E7E8
:102D0800270758441C441D8F63692707338724010C
:102D18006383E4041C4485049386170014C49C232D
:102D2800A38FF4FEF5B710448506930516000CC46E
:102D3800102290A3B387D400E397E6FE1840CA9404
:102D480018C4184485079306170014C41823A38FC2
:102D5800E7FEE398F4FE1C48CA971CC85C48B38792
:102D680027415CC883A7090099EB0145F2406244FA
:102D7800D2444249B24905618280814665BF014516
:102D88008297E5B701114EC69389819283A70900FE
:102D980022CC26CA4AC806CEAA842E89328499C370
:102DA80005458297DC48054563EC87049444DC4478
:102DB800958F63EE870481473387F600638E870219
:102DC80010233307F900850710A3FDB70C2233063B
:102DD800E90005070CA23386E600E319F7FE8C40EC
:102DE8001D8C0147B386E5009022B386E700CA969A
:102DF80090A20507E31887FE83A7090099EB014510
:102E0800F2406244D2444249B24905618280014796
:102E1800D9B701458297E5B741114AC01389819214
:102E28008327090022C426C206C62A84AE8499C311
:102E3800054582975C48054563E797021C4458445A
:102E48001D8FA697637697001C403387E440BA9796
:102E58001CC41C48A6971CC85C48858F5CC883277F
:102E6800090081EB0145B2402244924402494101E4
:102E7800828001458297FDB7938701BD23A2F18E19
:102E8800938701B523A0F18E938701AD411123AE3D
:102E9800F18C938701A506C623ACF18CEFF0EFBE49
:102EA800B240B7E700E03707400023A0E710410130
:102EB8008280B787004083C7A7028D8BB1C3138573
:102EC800C1495849411183A5C18D06C622C493073B
:102ED80000029385050463FEE70013060002F53B34
:102EE80013050002EFF0CFC0B24022440145410172
:102EF800828040491376F40FCD331375F40FDDB794
:102F08000545828041112A8683A5C18D17050020B9
:102F1800130545A106C6293B19C517250200130547
:102F2800654DEF108220B24003C5F18213060002FE
:102F38009305000241016F100049011122CC06CE11
:102F480026CA4AC84EC652C4378400407C2013F7AC
:102F5800F70F898B638207407C301307000393F7D0
:102F680007036383E7067C30914693F7F70363E32F
:102F7800F604FD1793F7F70F0D47636AF712172743
:102F8800020013072748B3C7E7209C43BA978287F4
:102F98009387F7FD93F7F70F0D476360F70A172735
:102FA800020013072747B3C7E7209C43BA97378720
:102FB80000408287138707FE1377F70FE3FAE6FCD2
:102FC800B78700400947F8A3378700407C339397B9
:102FD800476063D50724930720FC2301F702138673
:102FE800418E08429384019374317C21A206DD8EC0
:102FF80096A018312389E1928349050093F70906C1
:10300800638407189307000C6396F92A9307F00561
:10301800631DF7129387C18C23A6F19293071003BF
:103028001CA1A30005009E201307000433D7E70A5C
:10303800998F9376F70F9EA059A483C721931547BC
:10304800638BE70419476391E70693890193138912
:10305800C19283D409008325090093070004B3D4DF
:10306800F40A03A5418E2686EFE0EFC283D7090054
:1030780013FAF40F858F2390F90083270900A69788
:103088002320F900230044038347240293C707043D
:103098002301F40235B73C3003C7019393F70708BF
:1030A800D98F3CB08947EDB723000402E5BF1C2443
:1030B80001BF8347670293F7C70F93E727002303EE
:1030C800F702FDBD378700407C3393F70704E38997
:1030D80007EE0827053DEDB58347A70293F7C70F0D
:1030E80093E727002305F702E1BD378700407C33CB
:1030F80093F70704E38607EC1C27D9B58347E70253
:1031080093F7C70F93E727002307F70255BDB78743
:103118000040F83313770704E30407EA03C72703DB
:10312800134707082389E7029C2759BD83472703CC
:1031380093C707042309F7028347270393F7C70FA9
:1031480093E727002309F702A5BD93075009631DDC
:10315800F70A3C313821A207D98F61476399E70004
:103168009387818C23A6F192930730FC55BD1947AC
:10317800E39BE7EA9387418C23A6F1929307F0F942
:103188001CA1B9571CB145B5A94563EFE5069725BC
:103198000200938525293347B72018432E970287C5
:1031A800203138210D462204418F21801389C19294
:1031B8006301C40A636B860005476309E40609478F
:1031C800630FE4061304F00F09A81304E4FD333475
:1031D8008000330480401374F40F63F3D7009EA07B
:1031E80003DA04008325090093070004335AFA0A16
:1031F8005286EFE04FAA83270900D2972320F900CF
:103208009307F00F6318F40AB78700401307F0FC20
:103218002381E702B78700400947F8A3F2406244D8
:10322800D2444249B249224A056182809727020066
:10323800938747272320F9000144C94779BF972777
:1032480002009387A7232320F90001449307700203
:1032580069B71377F70F0546630DC700094663037F
:10326800C7022DF39387018D2320F900014491476C
:10327800ADB7972702009387671F2320F900014401
:10328800B947A1BF972702009387871C2320F9001D
:103298000144F14799B73C219EA029A883C73193DF
:1032A8001CA19A20854763F7E7008547F5B73C21BD
:1032B800A389F192814693994960E3C609D6B787F5
:1032C80000402380D702130700FC99B713F7F901D0
:1032D8008947E31BF7F25C2193061008638FD70236
:1032E80063EEF60085466385D704E39FE7F03787EA
:1032F80000408347A70293F7370729A81307200838
:10330800E394E7F0378700408347A70293F7C70B9A
:1033180093E727002305F70271BF378700408347EB
:10332800670293F7C70B93E727002303F70259B700
:10333800378700408347670293F73707FDB72300B5
:10334800050085B7230005001C42A38007009A20CA
:103358008947E3F1E7F689B79377170085C3A30197
:10336800040089472301F402C9472303F402230513
:10337800F4022307F40285477CA04DB593774700F4
:1033880081C75C309147CDBF78A049BD09C9930773
:103398000008739007800F10000001458280930792
:1033A800800873900780D5BF2A86B305B0401725DB
:1033B8000200130565106F007243011106CE19C58E
:1033C8008947630FF500F240056182806800EF00CD
:1033D800302F172502001305A50FEF001255E5B78A
:1033E8006800EF00F02D1725020013052510F5B72A
:1033F80013874194AE870E23639CA50052A317251B
:103408000200130565103E863EA376A36F00123EA8
:10341800172502001305C5106F0032511387419418
:1034280056211E236391F604011106CE22CC138483
:10343800F1820820C167F91789451CC323A40194A8
:10344800EF10A02208209145EF102022854713068F
:10345800F100854513055030DC87EF70C143F24019
:10346800624405618280172502001305650B6F0011
:10347800D24B3D897D15954763E7A71417270200AE
:10348800130707163345E5201C41411122C4BA979A
:1034980006C626C22E848287172502001305C50892
:1034A8002244B240924441016F003248BC2119477E
:1034B8006390E7022E859D376C20172502001305BF
:1034C800A507EF00B232172502001305A508C9BFEA
:1034D8000D47E38AE7FEB2402244924441018280CC
:1034E800B8219547E319F7FE9387419496234167DE
:1034F8007917AA25638FE600EF70C16B17250200C4
:1035080013054506EF00724217250200130505084A
:1035180041BFFA259384F1828AA3BAA39A29882005
:1035280013060064DAA3BA298945FAA3DD47239272
:10353800F182EF0050698820096613060690A145BC
:10354800EF00706888200566130606C89145EF00ED
:10355800906772242E24172502001305E501EF0059
:10356800F2285DB7B8218D47172502001305C5025B
:10357800E313F7F635B7AC2191476397F5001725A4
:1035880002001305E50229BF9947639FF5002285CC
:1035980071356C2017250200130505FA2244B24044
:1035A800924441016F00922495476399F5001C30BD
:1035B800F9F71725020013056501DDB51725020087
:1035C80013054501E1BF82809C410947638FE700ED
:1035D8000D476382E70205476390E706AA8517252A
:1035E8000200130565016F007220AA8517250200E5
:1035F8001305C502CDBF411122C42E848E2517257F
:1036080002001305E50306C6EF00521E12244C40C3
:103618001385C149EFF0CFE119C51725020013053D
:1036280065DDEF0092302244B24003C5F182930574
:10363800000441016F00703982807971170500001C
:103648001305A52306D622D426D2EF102031938461
:10365800F1829947054488A0FC8210089307400628
:10366800854513055030FC8423088100EF70A122A2
:1036780017E6FF1F130686C9E14513057030EF7082
:103688008121138681829D4513056030EF70A1204A
:103698005008894513051031EF70E11F300889453E
:1036A80013052031EF70211F930500050D45EF200C
:1036B800307D930500051145EF20907C85457945BF
:1036C800EF20107C300891451305704040844086F7
:1036D8002308810002CC230A0100EF50F148300092
:1036E800854513050040EF503148700085451305A6
:1036F8001040EF5071475008854513052040EF50A2
:10370800B1461008854513055040EF50F1457D55E9
:10371800EF5030217D55EF701060EFE01FF27D55BE
:10372800EFF08F8917050000130545EAEFE03FD158
:1037380017E6FF1F130606BCD5450145EF50500E8E
:1037480089475C868D472308F1009147230AF100D9
:10375800B7070304938717203ECC3000954785456B
:103768000145230EF1004084EFF0AF8A70008545D3
:103778000545EFF00F8A100885450945EFF06F8978
:10378800500885450D45EFF0CF883008954511451F
:10379800EFF02F88C16713874194F91713850182C9
:1037A8001CC323220700EFF0EF851385C193EF4078
:1037B800911288208545EF005021970600009386D6
:1037C80026BD1316B02897F5FF1F9385A59517F505
:1037D800FF1F13052515EFF02FC42254B250925441
:1037E800970600009386C6BA1316B02897E5FF1F00
:1037F800938585111385C14945616FF0EFC10111AA
:103808002E8683D5418206CE22CC26CA4AC84EC609
:103818009387E5FF6341F602172502001305C5E308
:10382800EF00C27C6D44F24022856244D244424992
:10383800B24905618280938941942A8903D5090098
:103848009384419301478146ED45B2A0EF50B044BF
:10385800C8C0054469D9B220CA859D2503D5090089
:103868000146A685EFE05FC32A8455DDED45268530
:10387800EF50F0594DBF797122D426D206D64AD0DE
:103888004ECE52CC0018AE849397556063DA070881
:1038980003C5F1826D262A8921C11C211307000B5B
:1038A8006381E7061307000D6396E7023C2145474D
:1038B8006380E7046547639FE7000348A5001C355C
:1038C8001825743170214C3117250200130545DB8A
:1038D800EF00C2714A857D241395F468130104FD35
:1038E800B250225492540259F249624A4561828088
:1038F80070216C3117250200130585DBEF00026F7C
:10390800D1BF58219307F007E316F7FC0E251725BA
:1039180002001305A5DB2392B182EF00226D5DBF83
:1039280093F7150091CF17E6FF1F1306E69B9385C3
:1039380001C903C5F182EF60714413C5140079BF52
:1039480093F72500A5CF13060064894503C5F182C6
:10395800EF007027930780F8230AF4FC03D741820D
:103968008D4763EBE70017250200130565D7EF00C5
:10397800C27B13C524009DB71389419403550900E0
:103988008547014781460546ED45231DF4FCEF5068
:103998009030232EA4FC71DD0356A4FD930544FD4D
:1039A800052303550900930584FDEFE07FEE71D1EF
:1039B800ED45130584FDEF50904565BF93F78500ED
:1039C80085C383C7F1821307400681461306400664
:1039D800994503D54194EF60D13513C58400FDBDE9
:1039E80093F705019DC3014789460946814503D5DB
:1039F8004194EF70611EAA8517250200130545CF73
:103A0800EF00C25E13C50401D1BD93F7450085C31D
:103A180003D54194EF70C1190566130606C8914590
:103A280003C5F182EF00301A13C5440045BD93F772
:103A38000502C1CB17F9FF1F1309C9EE938941820B
:103A480083274901A1C783D709000A8A1386D7FFAC
:103A5800B107918392073301F140832749016372CB
:103A6800F6048A854A85EFF0EFB183D509000A8507
:103A7800F51593F5F50F613309CD13060005930588
:103A8800000203C5F182EF001014528113C504022D
:103A9800B1B583D50900F5154A85EFF0EFB7528126
:103AA80045B7032649018A854A85EFF0AFAD8325DE
:103AB80049010A8593F5F50F993361F18325490189
:103AC800E1BF13F50504E30B05E083A7014B91CB98
:103AD800EFF02FBE15469305000403C5F182EF00F1
:103AE800900E13C50404DDBB41111D4506C6EFD079
:103AF8003F9F1305602497D0FF1FE7800095B717F5
:103B080000409387870A984385451305001013677B
:103B1800072098C3EFE06FD38D4513050020EFE031
:103B2800CFD2EFE06FF3172502001305E5E1EF00B0
:103B3800C25FEFE0DFEDEFE01FFFEF70210AF53C19
:103B4800EFF08FB397D0FF1FE78000B423AC05FEDA
:103B58001C4181E70CC18280BA8703A787FF6DFFEC
:103B680023ACB7FE8280184183A785FF6319B7008D
:103B78001CC1FD5723AC05FE238FF5FE8280232C44
:103B8800F6FEC5BF411122C437E400E026C2044056
:103B98003707200006C6F98C2320E4180F10000010
:103BA80009E9232094101545B2402244924441016A
:103BB80082800347E5FF9307F00F6306F700232091
:103BC80094101145D5B7EF204244014523209410A5
:103BD800E1BF411126C2B7E400E04AC003A90400CE
:103BE800B707200006C622C43379F90023A0F418C9
:103BF8000F10000009E923A02411B2402244924486
:103C08000249410182809565938505D0C98D2A8432
:103C18002105C2054205C1814181EF20E22F01CD76
:103C2800FD5723200500231285002303F50023A058
:103C380024112105D9B723A0241101457DBF011105
:103C4800B7E700E04AC803A907004EC637072000B7
:103C580006CE22CC26CAAA893379E90023A0E71820
:103C68000F10000097070020938747528043814434
:103C7800014619E499E8A1654E85EF00101F05A0DB
:103C88008347E4FF6399370385CCA6851705002091
:103C98001305C54FC93D65D0A1654E853D23F2404A
:103CA8006244B7E700E023A0271126854249D244A1
:103CB800B2490561828091E02286032484FF55BFC2
:103CC800A284E5BF41114AC037E900E022C40324B9
:103CD80009003707200006C626C2798C2320E91878
:103CE8000F10000089E523208910154515A0AA8426
:103CF8009707002083C7D7492E8563F5F4008947C5
:103D080063EE97004135B7E700E023A087100D4523
:103D1800B2402244924402494101828083A785FF30
:103D280099E703C7E5FF9307F00F6308F700993D8C
:103D3800B7E700E023A087104DBF238F95FE170536
:103D480000201305A5441935A1652685BD2901451F
:103D58002320891075BF9707002023A90742828076
:103D6800A5C1011106CE22CC26CA8147C14633D748
:103D7800F540058B29C312053E9531473305E50209
:103D8800170700201307C749044305443314F400F8
:103D98002EC642044180AA949C40C8408297B245EE
:103DA80023A0040023A20400A18DF2406244D2445F
:103DB8002E85056182808507E39BD7FA0144EDB71C
:103DC8002E858280C9C1797122D406D626D24AD0DE
:103DD8004ECE01444147B3D78540858BA5C3120514
:103DE800314722953305E50297070020938747431B
:103DF80003A907008544B3948400C204C180BE8926
:103E08002A990327090011C7032549002EC60297DE
:103E1800B24531473304E40283A709003E941C44A9
:103E280089E72320090023220900B2502254A58DD6
:103E380002599254F2492E85456182800504E31C9B
:103E4800E4F88144DDB72E858280970700209387A8
:103E580027399C53411122C406C61384018399C78C
:103E680082971C403E9523A8A18239A0970700207D
:103E7800938747369C43EDF70840B747030093877D
:103E8800D73F3305F502B7A72600938737ECB24032
:103E980022443E9523A8A1824101828097070020F1
:103EA8009387C7339C4399E33E85828003D72700D5
:103EB8006316B70003C70700E308A7FEDC47E5B7AA
:103EC800B7E700E09843B706200023A0D718758FFE
:103ED8000F10000001C599C1814711E6B7E700E05E
:103EE80023A0E7108280B386F50003C80600B30656
:103EF800F500850723800601E317F6FEC5B737E707
:103F080000E01C43B70620002320D718F58F0F10B8
:103F1800000019C191C111E637E700E02320F7102E
:103F28008280910503A7C5FF11057D16232EE5FEA6
:103F3800DDB737E700E01C43B70620002320D71879
:103F4800F58F0F10000001C53307C50011E637E7EC
:103F580000E02320F71082800505A30FB5FEE31DBE
:103F6800E5FEF5B7B7E700E09843B706200023A0C1
:103F7800D718758F0F1000008147B306F5008386A8
:103F8800060099E6B7E600E023A0E6103E858280A9
:103F98008507E5B70111B7E700E022CC80434AC89E
:103FA8003707200006CE26CA2A892E86798C23A0B8
:103FB800E7180F100000131506019305F00441815E
:103FC80032C6EF107275AA8401C53246CA85CD3D46
:103FD800B7E700E023A08710F240624426854249F3
:103FE800D2440561828037E700E01C43B706200011
:103FF8002320D718F58F0F10000001C599C101477C
:1040080011EA37E700E02320F7100545828005070D
:10401800E309E6FE3308E500B386E5000348080037
:1040280083C60600E305D8FE37E700E02320F71033
:104038000145828037E700E01C43B70620002320B3
:10404800D718F58F0F1000001307F6FFBA952A96B8
:104058006317C50037E700E02320F7108280FD15BD
:1040680003C715000505A30FE5FEDDB737E700E038
:104078001C43B70620002320D718F58F0F10000027
:1040880001C53307C50019E637E700E02320F7101C
:104098000145828005058346F5FFE397B6FEE31BDD
:1040A800E5FE37E700E02320F710054582807971A7
:1040B800B7E700E022D480433708200006D626D28E
:1040C8004AD04ECE52CC56CA5AC85EC662C4337461
:1040D800040123A007190F10000005E123A0871091
:1040E8000945B250225492540259F249624AD24ABE
:1040F800424BB24B224C4561828097070020938740
:10410800670D9C43BA8A368AB28B2E8BAA8982970E
:10411800970700209387C71098433E898144B1468A
:10412800C147338CD40233068701104251E6C1657A
:10413800938505F04145EF10325E05E197070020B1
:104148009387070A9C5B81C7814511458297B7E72A
:1041580000E023A087102D4569B7970700209387B3
:10416800E707984331E79707002023A9A70623000C
:104178000500832709000547331797002326050004
:10418800232475012311E50023225501E29723A07A
:10419800370123A2670123A4570163040A002300FF
:1041A8009A00B7E700E023A0871001451DBF3E87AE
:1041B8005C47F5FF48C765BF8504E394F4F6B7E7A5
:1041C80000E023A08710214529BFB7E700E0984306
:1041D800B706200023A0D718758F0F100000970688
:1041E800002083C6F6FA6373D5021706002013066B
:1041F800A6FE931615000842369583560500D58D00
:104208002310B50023A0E7100145828023A0E71002
:104218000D458280B7E700E09843B706200023A049
:10422800D718758F0F1000009706002083C656F622
:104238006375D50217060020130606FA93161500B3
:10424800084293C5F5FF369583560500F58D231072
:10425800B50023A0E7100145828023A0E7100D4593
:104268008280011137E700E026CA0443B706200020
:1042780006CE22CC4AC84EC652C4F58C2320D71885
:104288000F100000130705FF1377F70FFD4763E5CD
:10429800E70AB146B306D50297070020938747F887
:1042A800984336971C43C9CB135A450005443D89AA
:1042B8003315A4001314050141802E895285A28567
:1042C800F13EAA8929CDA2855285A93797070020F2
:1042D800938747F09C4382979707002083D787F5F9
:1042E800338727032A84814613060064B3B727035C
:1042F80013050732B335E500BE95EFF09115B30706
:10430800850097060020938666F23E87D44263E4D0
:10431800A70063E4D7003387D74023A4E900B7E7B1
:1043280000E023A097100145F2406244D24442497C
:10433800B249224A05618280B7E700E023A09710BE
:104348000945DDB70111B7E700E026CA84433707FE
:10435800200006CE22CC4AC84EC6F98C23A0E71806
:104368000F100000BD4763EAA70431473307E50291
:10437800970700209387C7EA9C43BA979C4395CF39
:1043880005443314A400420441802E890145A285C6
:10439800EFF0DFB0AA8911C5A2850145A53D23A488
:1043A8002901B7E700E023A097100145F2406244D5
:1043B800D2444249B24905618280B7E700E023A0B0
:1043C80097100945E5B779714AD037E900E026D258
:1043D80083240900B707200006D622D44ECE52CC3B
:1043E80056CA5AC85EC6FD8C2320F9180F10000063
:1043F8009707002083C7D7D9637AF500970700206D
:10440800938747DD83AB070063970B00B7E700E0AE
:1044180023A09710A9A0170B0020130B2BE1832AC8
:104428004B00B74736FE938707C82E8A97050020AA
:1044380083D545E0BE9AB387C5022A84B2898146EE
:10444800B3B5C50213850732B337F5001306006408
:10445800BE95EFF0110063F0AA02232099100145E0
:10446800B250225492540259F249624AD24A424BFB
:10447800B24B45618280829B9705002083D585DBFE
:10448800B38735032A89130600648146B3B535031B
:1044980013850732B337F500BE95EFF0817BB3077C
:1044A80025013E8903274B0063E4A70063E4E70086
:1044B8003389E740D2852285EFF05F9E09C923241E
:1044C8002501B7E700E023A09710054551BF936584
:1044D80004F0C205C1814145EF10122419E997077C
:1044E80000209387E7CF9C5B95D3A28511458297DF
:1044F80031BF97070020938767CE9C4385E79707CE
:10450800002023ADA7CC85472326050023242501B9
:104518002311450123008500A300F500232205008F
:104528004DB7BA87D84775FFC8C7F1BF7971B7E7E4
:1045380000E026D284433707200006D622D44AD08A
:104548004ECE52CC56CA5AC85EC662C466C26AC04B
:10455800F98C23A0E7180F1000003DC14144B6892B
:10456800B28A2E8A2A89B14C170B0020130B4BCB29
:10457800054D130C0003B30B940303270B005E9740
:104588001C43A5E39375F400B315BD0013554440CF
:10459800C2055686C1811375F50F353539C1832794
:1045A8000B00DE9723A0270123A24701638409009B
:1045B80023808900B7E700E023A09710014521A0D8
:1045C80023A097100945B250225492540259F24937
:1045D800624AD24A424BB24B224C924C024D456140
:1045E80082800504E31984F9B7E700E023A0971057
:1045F8002145D1BF0111B7E700E026CA844322CC88
:104608004AC84EC63707200006CE2A84AE893289AA
:10461800F98C23A0E7180F10000075332285CE858A
:10462800EFF0DF872A8405C59705002083D585C06C
:10463800B3872503130600648146B3B525031385A4
:104648000732B337F500BE95EFF0A16048C01335C7
:104658001400F2406244B7E700E023A097104249F3
:10466800D244B2490E05056182800111B7E700E026
:104678004AC803A9070022CC4EC63707200006CE39
:1046880026CAAA892E843379E90023A0E7180F10D7
:104698000000EFF0BF80AA8419C123110500A2858C
:1046A8004E858D3E9707002083C787AE639B3701F1
:1046B8009707002083D7C7B15D8C970700202399FF
:1046C80087B0B7E700E023A02711014591E019451D
:1046D800F2406244D2444249B249056182800111E4
:1046E8004AC837E900E022CC03240900B7072000B4
:1046F80006CE26CA4EC67D8C2320F9180F1000005E
:104708009307F00263E8A704B147B304F5029709D9
:1047180000209389E9B083A70900A6979C439DCB05
:104728009377F5008545B395F500C205C1811181E0
:104738002D3F83A709000145A69723A0070023A2C0
:10474800070023208910F2406244D2444249B2490A
:1047580005618280B7E700E023A087100945E5B727
:104768004111B7E700E026C2844306C622C43707D2
:104778002000F98C23A0E7180F100000EFF00FF2CB
:1047880019E90145B2402244B7E700E023A0971099
:10479800924441018280970700209387A7A39C43F6
:1047A8000045829797070020938747A86368A4026B
:1047B800D843B74636FE938606C83305A4403697D5
:1047C800E371E5FC13070064B335E50203D68700FF
:1047D80081463305E502EFF0C1476DB7D8433A94F7
:1047E800C1BF411106C69707002023AFA7A20295B3
:1047F800B2409707002023A5A79A0145410182806E
:10480800994763E9B7008A05970700209387879A35
:10481800BE9588C182809707002023A5A7A011C54F
:104828008547170700202306F79A828041117146B1
:104838008145170500201305E59706C69707002050
:1048480023AE07989707002023A0079E970700200C
:1048580023A2079897070020238D07969707002023
:1048680023A2079CEFF0EFEC130600028145170521
:1048780000201305E591EFF0CFEBEF60E13F9707DC
:1048880000209387E79503C5C70383C7D7038545EA
:104898003E958D473305F50239051375F50F9707D2
:1048A80000202388A78E99473305F50213050524B0
:1048B800EF108266170700202324A79649CD994751
:1048C800170600200346E68C3306F60281451306D8
:1048D8000624EFF00FE697070020938767949C4320
:1048E80093870724170700202324F78C1707002035
:1048F8000347278A0A07BA9717070020232EF78C41
:10490800EFF06FC5ED29970700209387678A9443D6
:104918009707002083C7D78713972700369717F67E
:10492800FFFF1306664A10C3138717001377F70FA4
:104938000A07369717F6FFFF1306C64210C31387F8
:104948003700890793F7F70F8A0797050020A38197
:10495800E584B69790C3B240410182809707002052
:1049680083C71783170700200347A78263F3E7026B
:10497800170700201307C7831843938617001706E5
:104988000020A307D68093962700369708C33E8554
:1049980082809307F00FE5BF1C416388071437072F
:1049A80000F07D8FB706002089476311D71403579D
:1049B8004500630D0712411122C419462A84930544
:1049C800F00F610506C6EFF06FEA05478D476309EA
:1049D800E5101C4481CB5858994763030710185CAD
:1049E8006300071013060004814517F5FF1F130520
:1049F800257FEFF00FD413060004A28517F5FF1FDB
:104A08001305057EEFF0CFCB97F7FF1F83D7077EFF
:104A180099E79307001017F7FF1F2319F77C97F7FB
:104A2800FF1F83C7C77C91E7854717F7FF1F230040
:104A3800F77C97F7FF1F83D7A77B91E7ED4717F719
:104A4800FF1F2317F77A97F7FF1F83C7577A91E756
:104A5800954717F7FF1FA30CF77897F7FF1F83C732
:104A6800477991E7854717F7FF1F2304F77897F7EA
:104A7800FF1F83C7177899EB97F7FF1F9387477630
:104A880083C7F70017F7FF1FA305F77697F7FF1FF0
:104A980083C7577681CF13F73700898397F6FF1FAF
:104AA800238EE67617F7FF1FA30AF77697F7FF1FFF
:104AB80083C7477491E7C54717F7FF1F230CF772A1
:104AC8008347640199E79307C00317F7FF1F23047F
:104AD800F772FD5717070020A30EF79C813B81470B
:104AE800B24022443E854101828089473E858280CA
:104AF80037C700408326C720B707FCFFFD17F58F8F
:104B08002326F7200100010097F7FF1F93874768C6
:104B1800C84B832787262326D7206A0593C7F7FF24
:104B280099835D8D828001114EC697F9FF1F938985
:104B3800E96F83A7090006CE22CC26CA4AC852C408
:104B4800829713090064B335250303DA8900814687
:104B5800528633052503EFF0C10F97F7FF1F9387A0
:104B68002763804BAA8401456306940233858440F9
:104B7800636E940003A5490052868146B335A902A5
:104B88003305A902EFF0E10C018D269597F7FF1F79
:104B980023A89760F2406244D2444249B249224A6B
:104BA80005618280011122CC0A852E844146970531
:104BB80002009385A56F06CEEFC0FF8D1808060486
:104BC8003A94035504FF97F7FF1F83D7C766F2404F
:104BD8006244AA9737450F00130505243355F5029B
:104BE8000561828097F7FF1F83D7E76451471D450A
:104BF800637CF702794719456378F70213072003A6
:104C080015456373F7021307B0041145637EF70077
:104C1800130740060D456379F70013076009094536
:104C28006374F70013B5B70F8280011122CC06CE4A
:104C38002A842EC6EFF06FA1B245F240818D33A5CC
:104C4800A502229562441375F50F05618280011152
:104C580022CC06CE2A842EC6EFF02F9FB245F24012
:104C6800818D33A5A50222956244420541810561E3
:104C78008280011122CC06CE2A842EC6EFF0EF9C4A
:104C8800B245F240818D33B5A50222956244056193
:104C9800828097F7FF1F9387A754985739CF411100
:104CA80026C206C6BE8422C483D7C194B9C302975C
:104CB80003D7C1942A840DCBBA876373A700AA8748
:104CC800C207C183BA866373E400A286C206C182A2
:104CD800958F1307C0036359F700DC5491C382977B
:104CE800EFF0902023968194B240224492444101EF
:104CF800828002972396A194C5BF828097F7FF1FF1
:104D080023A0075497F7FF1F9387874DDC5701119E
:104D180006CEAA8581C72AC68297B245D9CD9C41BD
:104D28000545C9CBDC41D9C783D78500C1C783D71F
:104D3800A500C9C3514617F5FF1F1305254FEFF00E
:104D48002F9897F7FF1F2389074E97F7FF1F938721
:104D5800E74D9C4317F7FF1F232EF74697F7FF1FD2
:104D680083C777498DE79307805717F5FF1F0355CA
:104D7800654C3305F50237460F00130606248146B5
:104D88008145EFE0116D97F7FF1FA386A74617F738
:104D9800FF1F03475746A54763E7E700A94717F7EB
:104DA800FF1FA30AF74417050000130505D8EFF005
:104DB8005FA30145F2400561828097F7FF1F23A397
:104DC800073E970700009387E7D217F7FF1F232FA7
:104DD800F7447D5797F7FF1F23ACE744B7873200A6
:104DE800938727A197F6FF1F23A6F64497F7FF1F7F
:104DF80023840744B7C7004023A4E726B9B70111A5
:104E080022CC17F4FF1F1304A43D084406CE26CA7B
:104E18004AC801E90545F2406244D2444249056165
:104E280082805C58E5DB185C75D7700085458297F1
:104E38001844B247E300F7FE9305E00417F5FF1F97
:104E48000355C53AEF10420D17F7FF1F232EA7345D
:104E580071D117F6FF1F035666399305F00FEFF06F
:104E68004F8D814417F9FF1F1309893297F7FF1FE8
:104E780083C7E7370326890163CFF4003285EF1033
:104E8800C218014597F7FF1F23A0073297F7FF1FA6
:104E980023AE073049B797F5FF1F83D52535B3876C
:104EA80095020844185C898185043E9508C20297DA
:104EB80075BF011156C297FAFF1F938A6A3283A7FA
:104EC8008A0022CC4AC84EC606CE26CA52C45AC048
:104ED800AA892E8432896388072003A74A036303BB
:104EE80007141307F01F6361A71497F4FF1F938437
:104EF800242A03AA840163130A0A9565938515E099
:104F080017F5FF1F0355852EEF10020197F7FF1FB6
:104F180023ACA7282A866307051083A74A0303A59D
:104F28008A0097F5FF1F83D5652C8981829783A70F
:104F38008A0003AA840117F7FF1F2329F726894748
:104F48006398F908C147631FF40C97F5FF1F83D5D1
:104F5800E529938505FC9147B3C5F5028A05D295E5
:104F680003C725009307A005631AF70A83D705002E
:104F78006396370B4A8522869105EFE07FF49C4CB7
:104F88005285639D47130145F2406244D244424929
:104F9800B249224A924A024B05618280D84CE3808A
:104FA800E7FA9565938525E017F5FF1F0355052456
:104FB800EF0092762A8A3DC52A8683A74A0303A56D
:104FC8008A0097F5FF1F83D565228981829785BF5F
:104FD8008D47639DF900C1476316F40497F5FF1FD9
:104FE80083D5C520938545FDF19995BF9147639A6F
:104FF800F9006319340397F5FF1F83D5251FA11501
:10500800E5B793070010639FF900A14763EC870099
:1050180097F5FF1F83D5851DC115F9B79C4C52859F
:105028006390470D29458DB71D6A568B637B4509EB
:10503800130A05E01947334AEA0217F7FF1F035717
:10504800E71A97FAFF1F938AAA14330AEA023E9ACC
:1050580083A7CA016395470183A48A018DE4930558
:10506800E00417F5FF1F03556518EF00F26AAA84DC
:1050780055D983274B0397F5FF1F83D525172A8614
:1050880089815285829791451307A0058981939755
:105098002500A69783C62700639FE60283D60700EC
:1050A8006398360385058A052286A6954A85EFE02A
:1050B8003FE183A78A01E38897EC2685EF00F27425
:1050C800D9B521677917E36FA7F4330A4541B5B716
:1050D80083C5370065BF83A78A01E38597F42685D2
:1050E800EF00B27281B797F7FF1F9387670A8C4F5B
:1050F80095D991479306A0058983139727002E9782
:1051080003462700E310D6F203560700631A360158
:1051180085078A072286BE954A85EFE07FDAA5B51E
:1051280083473700D1BF97F7FF1F9387670B9847CF
:1051380029C79C5FB9C305476311E504411122C41F
:1051480017F4FF1F1304C404104C06C61DC2484CB4
:1051580097F5FF1F83D5850989818297084CEF0051
:10516800D26A97F7FF1F23A1070497F7FF1F23AF02
:105178000702B2402244410182808280011117F760
:10518800FF1F1307E7054EC68329870022CC26CACE
:105198004AC806CE52C456C2AA842E843289638B6A
:1051A800091E1C5FBA8A99EB2945F2406244D24431
:1051B8004249B249224A924A056182805C5BEDD736
:1051C8009307F01F63E6A70E97F9FF1F938949FC21
:1051D80083A78901A1CB03A58A0083A7C90163918D
:1051E800A7068947639FF406C147E31FF4FA17F53A
:1051F800FF1F0355A5FF9147130505FC3345F5022D
:105208009317250003A589012286CA853E95930731
:10521800A0052301F500231095001105EFE05FCAF2
:10522800014561B79305E00417F5FF1F035505FC19
:10523800EF00924E97F7FF1F23A8A7F649FDADB7D9
:1052480083A74A0303A6890197F5FF1F83D505FAAB
:105258008981829783A78A0017F7FF1F2328F7F40D
:1052680049B78D47639EF400C147E31FF4F217F571
:10527800FF1F0355A5F7130545FD9377C5FF59B7DC
:105288009147639AF400E31194F217F5FF1F035551
:10529800E5F52115DDB793070010E397F4F0A14772
:1052A800E3E487F017F5FF1F035545F44115F1B7FF
:1052B8009D676379F506930705E01947B3C7E702C9
:1052C80017F7FF1F035787F217FAFF1F130A4AEC55
:1052D800B387E702BE9983278A01A1CF8327CA0132
:1052E8006397370703258A0191461308A00593059C
:1052F800F00F93D72600139727002A970346270015
:10530800631D060783580700034637006393980612
:10531800B306D64063CD860485078A072286CA85E8
:105328003E95EDBD21677917E360A7E8B307F5401F
:1053380041BF9305E00417F5FF1F035525EBEF0068
:10534800B23D97F7FF1F23A1A7E649F9B1BD83A78F
:105358004A0303268A0197F5FF1F83D525E989812A
:105368004E85829797F7FF1F23A237E5A5BF231025
:10537800B70093160601C182ADBFB385860017F644
:10538800FF1F0356A6E69105130606FC63EEC50843
:105398002D4521BD97F7FF1F938787DF944FBE895F
:1053A800A9C203A5890191461308A0059305F00F2A
:1053B80093D72600139727002A97034627006316DA
:1053C8000605835807000346370063989800B3061C
:1053D800D640E3D386F42310B70093160601C182A2
:1053E800C1BF8357C70017F5FF1F034545E0930565
:1053F800E0043305F50242054181EF00F23197F7E9
:10540800FF1F23A3A7DA51FD45B317F6FF1F035665
:10541800E6DD97F5FF1F83C585DDB385C5023386B5
:1054280086001106E3E6C5F613063400719A1106E4
:10543800B2962301070123109700A301D700E9BD05
:1054480001458280011106CE2EC6EF80402F01C98A
:10545800B245F2400355250005616FC0801DF2403A
:10546800494505618280A38C0196238C019623A06F
:10547800019623A2019623A4019623A6019623AEA2
:10548800019423AC019497F7FF1F9387A7DD930638
:1054980040382391D702F1761307400B938606B85C
:1054A8002391E7002392D70211679D461306000552
:1054B8009305000A1305007D2392E7002393D70282
:1054C80041478546130810F82395E7002396E7001F
:1054D8002399E700239AE700239BE700239CE70032
:1054E8002394E702239007002393B7002394B7007F
:1054F8002397C7002398C700239DA700239E070072
:10550800239F0700239007022395D70223960703BA
:10551800239707029308F007239807022392E704CA
:105528002393E704239FE7042390E7062391E706E4
:105538002392E706239917031307C01C239AD7025F
:10554800239BD702239C0702239D0702239E070261
:10555800239F0702239007042391D7042394070469
:10556800239507042396D7042397C7042398C704D1
:105578002399A704239A0704239B0704239C070461
:10558800239DC704239EC7042393A70623940706D5
:1055980023950706239607062397B7062398B70689
:1055A80023990706239AE7065147239DE7067D5767
:1055B800239B0706239C0706239ED706239F0706DF
:1055C800239007092391E7088280011126CAAA843B
:1055D800214522CC06CE2E8432C636C43AC2EFE02C
:1055E8004FDF1DC9A24612473246930700FD23002C
:1055F800F5009947A30095002301F5002303D50082
:10560800A303E5002312C500AA8522856244F2405F
:10561800D24405616FE00FEBF2406244D244056169
:10562800828023A0A196828023A2A196828023A4AF
:10563800A196828023A6A1968280011122CC4AC815
:1056480006CE26CA2A890144B30489006368B400D7
:10565800F2406244D2444249056182802EC6EFE09E
:10566800CFFE93170501C183A183B2452380F400BF
:105678009307140093F7F70F850463F9B700CA97E7
:1056880009042380A7001374F40F7DBF3E847DBFF7
:10569800C16717F5FF1F035545BBFD176304F502E6
:1056A800411117F6FF1F0346E6CF9385019706C6FB
:1056B800EF709067B240FD5717F7FF1F2317F7B831
:1056C80041018280828009C925151375F50F1335AC
:1056D800850E1345150082800145828023900500C0
:1056E800C9C6797122D426D24ECE52CC5AC806D613
:1056F8004AD056CA5EC63684328AAE892A8B81441D
:1057080063F34407B307940083C7070013891400A1
:105718004209939A070193DA0A011359090163842C
:105728000A04CA976341FA04B307240183CB07002C
:105738005E85513F0DC99387FAFF2390F900639066
:105748006B03130519002295B25022549254025942
:10575800F249624AD24A424BB24B45618280D694A2
:10576800C204C18071BF0145C5B70145828041119E
:1057780026C2AE8422C497F7FF1F23AFC7AC97F7A2
:10578800FF1F23A9B7AC97F7FF1F23A3A7AC2A8451
:1057980041469305F00F26854AC006C60549EFE045
:1057A800FF8C631E250397F7FF1F9387A7A9884BD4
:1057B800C145613541469305F00F2285EFE01F8B07
:1057C800854463169502224497F7FF1F938787A79E
:1057D800B24092440249C847C1454101B9BD41465A
:1057E80081452685EFE09F88E31625FD6DBF41467C
:1057F80081452285EFE09F87E30795FCB24022446C
:105808009244024941018280411122C426C22E8459
:10581800AA8413060002814517F5FF1F130585A208
:1058280006C6EFE00FF197F7FF1FA38E97A097F733
:10583800FF1F238B87B6EFB0D061854719C1814719
:105848004945B240224417F7FF1F230DF79E9244A3
:1058580041018280814781CD19C98547631BF500C5
:1058680083C7550093E707FCA382F50085473E856B
:10587800828089476317F50083C7550093F7F703BC
:10588800E5B70D478547E314E5FE03C755001377D1
:10589800F70313670704A382E500D1BF81478DC1D1
:1058A80005C103C755009306000C85471377070CFD
:1058B8006308D700930600048D476303D700894720
:1058C8003E858280411122C4005D06C626C21DC0E5
:1058D800AA84085019C1EF004273485019C1EF005B
:1058E800C272085419C1EF0042722285EF00E271BA
:1058F80023AC0402B240224492444101828009ED63
:1059080097F7FF1F83C7279417F5FF1F1305059502
:1059180081CB13850195828017F5FF1F1305059428
:10592800828017F5FF1F03450592828097F7FF1FB6
:1059380093874791C847828097F7FF1F938787907F
:10594800884B828097F7FF1F9387C78FDC4B88436C
:10595800828097F7FF1F9387E78ED84B1C438507F4
:105968001CC317F5FF1F0345158E9307F00F63053A
:10597800F50091656FE07F858280011122CC06CE0B
:105988002E8432C6EF70F06B9147B245631FF50065
:105998009387C1969C438DC303A30700630E03003E
:1059A80022856244F24005610283938741969C43B5
:1059B80081C703A34700DDB7F2406244054505618E
:1059C8008280011122CC2A840355450006CE26CABE
:1059D8004AC84EC6EF70D04535C52A8983440500AC
:1059E8008349C500C5354A85EF80602303554400C7
:1059F800EF70F06083C78197B1CB6399970483C533
:105A080091972685EFF01FA419E1238C0196035581
:105A18004400EF7010639147631FF500035744007B
:105A280097F7FF1F83D767826317F700FD5717F7AC
:105A3800FF1F231CF780F2406244D2444249B24916
:105A48000561828081499304F00F6DB79307F00FC9
:105A5800E38FF4FA834664000356440003452400A8
:105A68004E87A685EFF07FB65DB779715EC6AA8BC3
:105A78002E8552CC56CA5AC806D622D426D24AD027
:105A88004ECEAE8A328B368AEF70903A69C9045D81
:105A98002A89F1C49C50614599C3130540039C545D
:105AA80081C751054205418163050A007105420518
:105AB8004181DC5081C75D0542054181EFE06F916E
:105AC8002A8451CD61468145EFE0AFC697E9FF1FB3
:105AD80083C9497C6394090083490900930700FD41
:105AE8002300F400A947A30074012301F400230351
:105AF80064018C50231254011305840181C908C420
:105B08007146930A4403EFE0AFBB56858C5481C9B4
:105B180048C45146930A4501EFE08FBA5685630A97
:105B28000A0008C87146D285930AC501EFE04FB94B
:105B38005685CC5089C548C85D46EFE06FB8A28548
:105B48004E85EFE02F982254B2509254F249624A9F
:105B5800D24A424BB24B4A8502594561A5B3B2506D
:105B6800225492540259F249624AD24A424BB24BE9
:105B78004561828001114EC6AA892E854AC806CE83
:105B880022CC26CA2E89EF70B02A31C597E4FF1FB0
:105B980083C4447099E0834405001945EFE06F839E
:105BA8002A8415C981451946EFE0AFB8930700FD6F
:105BB8002300F400B947A30034012301F4002312A1
:105BC8002401A2856244F2404249B2492685D24462
:105BD80005616FE02F8FF2406244D2444249B249D6
:105BE8000561828039715ECEAA8B2E8526DA4ED663
:105BF80052D456D25AD006DE22DC4AD8AE84328B32
:105C0800B68A3A8ABE8942C6EF70902231C92A897B
:105C18004145EFD01FFC2A8421C541468145EFE06C
:105C28004FB117E5FF1F0345E56619E10345090074
:105C3800930700FD2300F400BD472301F400B24799
:105C4800A30074012312940023046401A3045401E3
:105C580023054401A30534015CC4A285EFE08F86C7
:105C6800F2506254D2544259B259225A925A025BA3
:105C7800F24B21618280797126D2AA8439454AD0B3
:105C88004ECE06D622D42EC6B2893689EFD07FF4FE
:105C980015CDB2459307000D2310F500B1472A84AE
:105CA8002312B5002301F500CE8519051946EFE04A
:105CB8002FA123062401A2852254B2500259F24989
:105CC80013F5F40F925445616FD0DFFFB2502254A0
:105CD80092540259F2494561828017E7FF1F034732
:105CE80097569307F00F630BF706411126C2AA8453
:105CF800394522C406C64AC0EFD0BFED2A8429C957
:105D0800930700FD2300F500A3009500230105007B
:105D180097E5FF1F938585540D051946EFE04F9AC7
:105D280017E9FF1F1309095283578900A28517E550
:105D3800FF1F034555512315F40083471900230617
:105D4800F4002244B2409244024941016FD09FF7C7
:105D5800B24022449244024941018280828001116A
:105D68005AC02A8B314526CA4EC652C456C206CEE0
:105D780022CC4AC8AE84B28A368ABA89EFD07FE587
:105D880035CD2A842685EF70B00A11C50347C500B2
:105D9800A1476314F70417E9FF1F0349D94A93077A
:105DA80000FD2300F4009D47A30064012301F400D3
:105DB800231294002313540123144401231534019E
:105DC800A2856244F240D244B249224A924A024B26
:105DD8004A85424905616FD0FFEE17E9FF1F034965
:105DE800B95CE31E0BFA938781A19C439C47C5DBF2
:105DF800CE865286D6852685829755B7F24062446C
:105E0800D2444249B249224A924A024B05618280F1
