:040000006F108030CD
:100004009305000273A04580824573901534924095
:100014002242B2424243D2436244F24402559255D0
:100024002256B2564257D2576258F2580649964958
:10003400264AB64A464BD64B664CF64C065D965D50
:10004400265EB65E465FD65F096173002030BD66EA
:10005400014717460000130666A1938606A6854548
:100064008347060093F7F70F91C382800507E3F9EE
:10007400E6FE97470000238BB79EDDB77D16620628
:10008400618693178601E18763D407000145828066
:10009400931726003307F500AE9718439C4363E794
:1000A400E7007D16E37FF7FC7D558280054582805D
:1000B400FD15E205E18513978501618793F7F50F37
:1000C40063480700FD15139725002A97584365D701
:1000D400138517006205618582803308B5021C42CE
:1000E40083A80600B335B502C29733B50701AE98AD
:1000F400469585486367B5006394A50063E30701EB
:1001040081480C43C6950CC388C21CC282808147B7
:100114001397870161876343B70082801397270091
:100124002A97232007008507E5B78147014793965F
:100134008701E18663C5B600133517008280939664
:100144002700AA9694428507558FD5B793D7554073
:100154008A07AA979C4305453315B5007D8D828097
:10016400171300E0E702E3362A84993705C593178D
:1001740025003E940327C4FF814711EB7D15160526
:100184003E9542054185171300E06700C336058399
:100194008507E5B70145C5BF814713978701618787
:1001A4006343C700828013972700B386E500944217
:1001B4002A97850714C3D5B77D1662066186014761
:1001C40093178601E18763D50700133517008280F2
:1001D40093172600B306F500AE9794429C437D1610
:1001E400B58F5D8FF1BF8A05AA9501476363B5009A
:1001F400828083A6C5FFF11593D71600D98F9CC1C1
:100204001397F601E5B72A83014801470145634383
:10021400D7008280B387050183A80700B3070601CE
:100224009C43C697AA976384F80033B51701050762
:10023400B3080301620723A0F80061871108C1BF56
:100244002A8301478147014563C3D70082803388ED
:10025400E50083280800330EE600032E0E003388E1
:10026400A8403308C8416384080133B508018507F1
:10027400B308E300E20723A00801E1871107E9B707
:10028400171300E0E702E3240111B286B2842E863C
:10029400AA850A8575372A84A6850A857935333473
:1002A4008000060413351500018D0561171300E065
:1002B40067006324171300E0E702231F4111AA8992
:1002C400AE8A328BB68402C202C402C60144131C35
:1002D4008401135C8C4163499C02939B1400FD1BB5
:1002E4000549138CF4FFF15C3304890162046184D1
:1002F400634D740592478E04CE9423AEF4FE4101FF
:10030400171300E06700E31D13192400B30B2B013E
:10031400014A93172A00D69783A50B0088437800D7
:10032400340050005D3B050A93178A01E187F11BF5
:10033400E351FCFE92474E9905042320F900A2479D
:100344003EC2B24702C63EC459B7131A8901135AB2
:100354008A41131D240093178A01E18763CF970014
:1003640092470A044E941CC0A24705091379F90F59
:100374003EC2B24702C63EC485BFB3079A031315F3
:100384002A0056950841780034005000050AEA977F
:10039400DA978C439933C1B7371700407E2B41114C
:1003A400B3C7070893F7F7EFB3C707087EAB930704
:1003B4008008F3B7078093F787083EC60F10000044
:1003C400930770052300F704930780FA2300F704CA
:1003D4000F1000009307100E7CC3B7270040A383BF
:1003E400078003C7778013670703A383E780138716
:1003F400C78008C32380078041472380E7803727CD
:100404000040930707829C43E3CD07FEB7270040D3
:10041400B7060800138707821843758F65DF03C783
:100424002780136707012381E7803727004093075C
:1004340007829C43E3CD07FE37270040B706080038
:10044400930707829C43F58FE5DF23010780B717E5
:100454000040FA2B13670710FAAB23800704B24756
:10046400F3A707800F100000B707040023A007209C
:10047400014541018280371700407E2B4111B3C7EB
:10048400070893F7F7EFB3C707087EAB9307800815
:10049400F3B7078093F787083EC60F100000930751
:1004A40070052300F704930780FA2300F7040F1064
:1004B40000009307100E7CC3B7270040A383078076
:1004C40003C7778013670703A383E7801387C78075
:1004D40008C309472380E78003C707801367070120
:1004E4002380E78037270040930707829C43E3CDAE
:1004F40007FEB7270040B706080013870782184392
:10050400758F65DF03C72780136717012381E78091
:1005140037270040930707829C43E3CD07FE372724
:100524000040B7060800930707829C43F58FE5DF78
:1005340023010780B7170040FA2B13670710FAABA3
:1005440023800704B247F3A707800F100000B70702
:10055400040023A007200145410182803717004091
:100564007E2B4111B3C7070893F7F7EFB3C707080A
:100574007EAB93078008F3B7078093F787083EC6DE
:100584000F100000930770052300F704930780FA07
:100594002300F7040F1000009307100E7CC3B72745
:1005A4000040A383078003C7778013670703A383EF
:1005B400E7801387C78008C311472380E78003C7F8
:1005C4000780136707012380E780372700409307DC
:1005D40007829C43E3CD07FEB7270040B706080017
:1005E400138707821843758F65DF03C72780136756
:1005F40027012381E78037270040930707829C4324
:10060400E3CD07FE37270040B706080093070782AB
:100614009C43F58FE5DF23010780B7170040FA2BD1
:1006240013670710FAAB23800704B247F3A70780C8
:100634000F100000B707040023A007200145410163
:100644008280371700407E2B011122CEB3C70708E2
:1006540093F7F7EFB3C707087EAB93078008F3B7A8
:10066400078093F787083EC60F10000093077005B4
:100674002300F704930780FA2300F7040F10000007
:100684009307100E7CC3B7270040A383078003C7DA
:1006940077800148054F13670703A383E780B708F2
:1006A4000800930F00029302001015E6B7170040EC
:1006B400FA2B13670710FAAB23800704B247F3A79A
:1006C40007800F1000007244B707040023A007201E
:1006D400014505618280A380E7811387078218435F
:1006E400E34D07FE138707821843337717017DDB39
:1006F40003C77780B303A800338405011367470059
:10070400A383E780A380F7811387C7802320770022
:100714000143B35E560A330E640003471E0083464A
:100724000E002207558F83462E00C206D98E03473A
:100734003E006207558F938607829442E3CD06FEFE
:10074400938607829442B3F61601FDDA93860781F5
:1007540098C21103E361D3FD138707821843E34D65
:1007640007FE138707821843337717017DDB13874E
:10077400C78023207700A381E7813306D64176988A
:10078400138707821843E34D07FE13870782184334
:10079400337717017DDB11BFB7170040FA2B4111E6
:1007A400334707081377F7EF33470708FAAB130704
:1007B400800873370780137787083AC60F10000044
:1007C400130770052380E704130780FA2380E704E6
:1007D4000F1000001307000C6313E5049A27136736
:1007E400070C9AA7B717004003C7E7021367C700AF
:1007F4002387E70203C7E7041377C70F13671700BC
:100804002387E704FA2B13670710FAAB2380070446
:10081400B247F3A707800F10000041018280B82778
:1008240093750520B9C9118B1DEB03C7E704B427E1
:100834001377F70F93E64600B4A796279227B3C61B
:1008440006081366060C92A7A5470100FD1793F747
:10085400F70FE5FFB717004096A72387E70437177C
:1008640000403C2793E707013CA79377F50191EB00
:10087400B72700401307500421A813672700B8A71F
:10088400F9BF93778501EDF7B7270040130790046C
:100894002382E78093070028631CF502B717004002
:1008A400130720209AA70100010001000100371757
:1008B40000409316B0281E27F58FF5DF9307002814
:1008C4001EA7371700403C2793F7D70F3CA719BF43
:1008D40093070008631AF502B717004009479AA75F
:1008E4000100010001000100371700409316B028F1
:1008F4001E27F58FF5DF930700081EA73717004062
:100904003C2793F7B70FD9B7B7170040334505080D
:100914008AA7EDD57DB70000197106C212C416C6A8
:100924001AC81ECA22CC26CE2AD02ED232D436D60B
:100934003AD83EDA42DC46DECAC0CEC2D2C4D6C6FB
:10094400DAC8DECAE2CCE6CEEAD0EED2F2D4F6D6EB
:10095400FAD8FEDA9385418C8841E700050092407D
:100964002242B2424243D2436244F2440255925577
:100974002256B2564257D2576258F25806499649FF
:10098400264AB64A464BD64B664CF64C065D965DF7
:10099400265EB65E465FD65F096173002030411162
:1009A400B7170040985F3AC6945F3247E39CE6FE6F
:1009B400324541018280B7170040130700032388A2
:1009C400E702854723A6F18C73002030411106C647
:1009D400A52CFDBF7971973700009387A75E22D4B9
:1009E400804306D626D24AD04ECE52CC56CA5AC8D6
:1009F4005EC679C037C9C901014B97390000938994
:100A0400E95B1309F937173A0000130AEA5B973ACE
:100A14000000938A6A56973400009384A45F835736
:100A2400240085E75C44631F0B0017370000232B69
:100A3400F758832BC400228597A003E0E780C0D633
:100A44005E84A9A82326FB00EDB783A7090082973B
:100A54001C443307F5406375F500D8401D8F2A9771
:100A64006361E9089737000023AC075083552400DD
:100A740003450400976001E0E78020DA5C405844B5
:100A8400B9C70C44D040AE97BE8663E4B70063E4B4
:100A9400C700B386C74014C4228B3A8449F0973701
:100AA40000009387674D9C4709476373F708F9175C
:100AB400173700002326F74CB2502254925402599F
:100AC400F249624AD24A424BB24B45618280631773
:100AD4000B009737000023A7E74EA1BF2326EB00A6
:100AE40089BF03274A021DCF63E1A7043385A740CA
:100AF4008347040085E3173700000347574E59170F
:100B0400B307A7003E85D44063E4E70063E4D7005D
:100B14003385D74083A78A006376F50097370000B2
:100B240023A0A746228B404495BFD840BA977DBFE7
:100B34009737000023A6074441B7411122C426C2B7
:100B4400173400001304044D973400009384C44206
:100B540094445840973700009387474606C69C4301
:100B64006397E60882975440B74736FE938707C8D1
:100B7400B6973387A7003A856364F7006364D700A8
:100B84003305D7409734000093840462DC5081CF4E
:100B9400973700009387076994433707CDFF7D1784
:100BA4009C46F98F9CC611E1484097370000938713
:100BB400A741DC53829719E9DC508DC7976002E0A6
:100BC400E780606C976002E0E780E0BBDC5099CB83
:100BD40097370000938707659843B70633001C478F
:100BE400D58F1CC7B240224492444101828082972F
:100BF40094445840B387A6003E8563E4D700E3E3FA
:100C0400E7F83385E740BDBF973700009387074077
:100C14009C4385C3411106C682979737000083C75A
:100C2400C73989E79737000023A2073EB240410144
:100C340082809737000083C7473891E797370000D1
:100C440023A6073C82808280411122C4173400000D
:100C54001304C4341C4006C626C24AC091C78297F6
:100C64009737000023AC07329737000083C7175427
:100C7400858B173900001309295389CF83477900DD
:100C84001947631EF70E97370000A38107525D21B1
:100C94005C4482971C4491C38297973400009384E8
:100CA400243298409737000083C7072D1736000079
:100CB4000346962C814593961700BA9683D6060070
:100CC400F9CA89C5973600002388F62A173500002B
:100CD4000345852A6368C50C97370000238E0728CF
:100CE4001C40639A0712973700009387272D9C4373
:100CF40063830712973700009387C731DC431737A4
:100D04000000232FF726F9319737000083C7574A8D
:100D140091CF8347790093F7F70F89EB973700005A
:100D2400A3880748976002E0E780E0E29737000075
:100D340093878729DC53E5C3973700009387C7233C
:100D44009C47F1CB8347790015476366F70C9737C7
:100D5400000083C7E74A918BDDEF9737000083C714
:100D6400C725D5EB90409736000083C6F62063CAAA
:100D7400D70A2244B2409244024941017DBB8347D1
:100D840079001D47E318F7F097370000A380074266
:100D940055261C48FDBD850793F7F70F8545E3EC01
:100DA400C7F00DB7931715003E978355070023101E
:100DB4000700973700002391072097370000938797
:100DC400A71D9C4313172500BA979C438297973716
:100DD400000083D7671E944093C7F7FF17370000BE
:100DE400034787197D8D93171700BE9683D7060096
:100DF4005D8D2390A60011C7050797370000238D4A
:100E0400E71617370000034727179737000083C7F3
:100E1400B716E373F7ECB24022449244024941010D
:100E24008280139717003297035707006DF78507E1
:100E34003DBF0000EFF05FDD730000000000000024
:100E4400973200009382621703830200238002001A
:100E5400630F0300F32510342EC09705000093851B
:100E6400A5FD73901534EF0060467300203086DCD6
:100E7400EF00C045E65082800000173700001307DA
:100E840027321443411122C4BC424AC006C6998386
:100E940026C2858B3A841739000013092930D1CB37
:100EA40093070006BCC21737000003474730930777
:100EB4000008973400009384242F631BF7008327D2
:100EC40009009C4393F70704173700002301F72E0A
:100ED40083C7040093F707049DC3973700009387E3
:100EE400E70D9C4382979737000023ADA72C83C757
:100EF400040093F7F70B173700002307F72A83C77B
:100F0400440093F7070495E7854717370000A30FBC
:100F1400F728973700009387A72B9C4337070200D5
:100F240098C7130700FC973600002381E6289848E9
:100F3400F8D318403C439183858B8DC33C4393E79E
:100F440007013CC397370000938787289C4323A25B
:100F54000706854717370000230AF724832709006B
:100F6400D8430583058B19C7D843759BD8C3D84389
:100F7400799BD8C3B2402244924402494101828001
:100F8400ED3D730020309317D50063D307029737E4
:100F940000009387E7239C437D57B8D79737000019
:100FA400938787FDDC4B8507173700002320F7FE66
:100FB400937785009DCB9737000083C7071F93E77E
:100FC4001700173700002302F71E930700F817379E
:100FD4000000230DF71C973700009387671C984384
:100FE4005C5BF19B93E717005CDB937715008DC77F
:100FF4009737000083C7571B93E717001737000084
:10100400A304F71A973700009387871998435C5B0A
:10101400F19B93E717005CDB93776500B1C79737C3
:1010240000009387E71798439377450097360000AD
:1010340093868617E1C31C43A1838D8B89EB973775
:1010440000009387E7189C4313068007D0CF83C71B
:10105400060093E71700973600002387F6145C5BBD
:10106400F19B93E717005CDB9317F50063D4070249
:10107400173700000347C72C418B9737000093872D
:10108400E72451C383C7470793E7070217370000D4
:101094002308F72A9317E50063D707029737000060
:1010A40083C7C710E207E18763D70700854717376F
:1010B4000000230DF70E97370000938767119C43B8
:1010C4003707020098C79317C50063D40702173780
:1010D40000000347F726058B973700009387071F07
:1010E40029C383C7570793E7270017370000A309CD
:1010F400F724828083C7360093E7170097360000F1
:10110400A385F60AA9BF03C7470789463D8B630831
:10111400D70083C747070D47BD8BE39DE7F691478B
:10112400B5B703C75707118B69D783C7570793E729
:10113400870065BF973700009387870994439737E3
:1011440000009387670603C70700058B11CB973709
:101154000000238D070497370000A38907048280C9
:1011640003C71700058B65F7F85271FF83C7570053
:10117400DDB7411126C206C622C497340000938409
:1011840024053DED9440AE87F8527DFF37F400E02E
:101194003E8597370000238A0700832704D1B28550
:1011A400ED9B2328F4D0832704D193E787022328D7
:1011B400F4D073005010975002E0E780807C97379A
:1011C40000009387E7FD9C43B70600019843558FC1
:1011D40098C3D85B719BD8DB97370000A38807FCC2
:1011E40097370000A38207FC9C40094798C38327D4
:1011F40004D193E787002328F4D0730050100DA086
:101204008D476315F50497370000938767F99C436E
:10121400B70600019843558F98C3D85B719BD8DB00
:10122400944017370000130727F883472700858B5E
:1012340089EB83473700858BD9C79737000023870D
:1012440007F6B24022449244410182808547E31963
:10125400F5FCB7F700E003A707D16D9B23A8E7D0FF
:1012640003A707D11367870223A8E7D073005010A0
:1012740098408177FD175447F58F5CC70F10000025
:101284009840B70702001CC7930700F81736000000
:10129400230EF6F097370000938787F09C439C4316
:1012A400A1838D8B91EF930760197CD354C737F7D3
:1012B40000E0832707D193E787002328F7D035BFC1
:1012C4009307E01BDDB7FC52ADF3A5BF97370000D1
:1012D400938707F09C438847D847798D09C988C705
:1012E4009387819703A3070063030300028382802B
:1012F400973700009387C7ED98433C5BFDFF0100DF
:0413040001008280E2
:1013080097110020938181E317710020130101CF09
:101318001305400097F5FF1F938545CE170600205B
:10132800130606FE63FAC5008322050023A05500B4
:1013380011059105E3EAC5FE179503001305C55687
:1013480097050020938505FC1386418A63FAC5003A
:101358008322050023A0550011059105E3EAC5FE87
:101368001385818A97350020938545096377B500F1
:10137800232005001105E36DB5FE9302500273901A
:1013880002BC8D42739042808542739012BC9302D6
:10139800800873900230970200009382220693E23D
:1013A800320073905230972200009382C24B7390A0
:1013B800123473002030000000000000000000001C
:1013C8000000000000000000000000000000000015
:1013D8000000000000000000000000000000000005
:1013E80000000000000000000000000000000000F5
:1013F80000000000000000000000000000000000E5
:101408009C14000062220000A9BDF9F3000000202E
:101418000000000000000000000000209C140000F4
:1014280000000000000000009C1400000000000004
:101438009C140000000000009C1400009C14000094
:101448009C1400009C1400009C1400001809002043
:101458009C140000000000009C1400009C14000074
:101468009C1400009C140000B60900209C14000085
:101478009C1400009C1400009C1400009C140000A4
:101488009C1400009C1400009C1400009C14000094
:101498009C14000001A0397101436EC619A039716E
:1014A80041536AC866CA62CC5ECE19A0397101532D
:1014B8005AD056D252D44ED64AD826DA22DC06DE84
:1014C80033016140828241114AC026C222C406C645
:1014D8008282B24D4101024D924C224CB24B4101E5
:1014E800024B924A224AB24941010249924422449B
:1014F800B240410182802A8309CA83830500230000
:1015080073007D16050385056DFA82802A8311C64E
:101518002300B3007D16050365FE82801021942107
:10152800050585056313D60075FA3305D640828014
:10153800B7170040B85F1377F7F7B8DF130700F85D
:10154800A38DE7043D47238CE70413075003A38CBE
:10155800E7048280371700408347E70412054111EA
:1015680093F7F708C98F93F7F70F93068008F3B638
:10157800068093F6860836C60F100000930670059D
:101588002300D704930680FA2300D7040F10000025
:101598002307F70423000704B247F3A707800F10B7
:1015A800000041018280B717004003C7E7020D8998
:1015B80041111377C70F498F93068008F3B6068049
:1015C80093F6860836C60F10000093067005238030
:1015D800D704930680FA2380D7040F1000002387CE
:1015E800E70223800704B247F3A707800F10000023
:1015F8004101828041112A830148930E407E130FD6
:101608000019930F4006B348030863EF1E01130344
:101618000019337365028542FD4363F6B2088D4FA6
:10162800214F930E4006A1A07D13336EE303930868
:10163800E016630E0E00336EF3039308D0166308AA
:101648000E009378330093B818009388D816C29880
:1016580033C808084DBF93F81500138EF5FF637C57
:10166800BF02F908C29833C80808B3450E08E394C6
:10167800F5FF8545630B0300B378D5038145638681
:1016880008009375350093B51500F105C29533C868
:1016980005088945E9BFB3881341C29833C80808CB
:1016A800B3450E089DBF7D16329879463307C702A9
:1016B80013D61700BE073348080832976146B3F6B9
:1016C800C60213068070B386C6023697A166F58FE8
:1016D8004207D98FB716004003C7F60213770708E9
:1016E800D883908303C7F60213770708E316E6FE4C
:1016F8009883B71600404DCF1307800873370780CB
:10170800137787083AC40F10000037170040930674
:1017180070052300D704930680FA2300D7040F101E
:101728000000232A07038346170393E60608A30845
:10173800D702230007042247732707800F100000F1
:101748001166371700407D16545B4C5FAD8EF18EE5
:10175800E5FE93068008F3B6068093F6860836C63B
:101768000F100000930670052300D704930680FA33
:101778002300D7040F1000005CDB8347170393E7AF
:101788000704A308F70223000704B247F3A707805A
:101798000F1000004101828003C7F6021377070883
:1017A800D883908303C7F60213770708E316E6FE8B
:1017B80098837DD391B74111B7170040985F3AC617
:1017C800945F3247E39CE6FE3245410182803171E5
:1017D80022DD4ED706DF26DB4AD952D556D35AD159
:1017E8005ECF62CD66CB6AC96EC7AA8902D8EF0000
:1017F800701D2A8493078008F3B7078093F787083A
:101808003EDA0F100000B717004013077005238059
:10181800E704130780FA2380E7040F10000003C7CA
:10182800F7021377770FA387E70203C7F702136757
:101838008700A387E70223800704D257F3A707800E
:101848000F1000000D4585339167938707E8B3476C
:10185800F402930AE0025167130707883EC4FD8724
:101868003ECC930780C1B347F402B38A5703B3CA87
:10187800EA0293D6FA4136C6B306504136CE93DD16
:10188800F641930640FAB387D7029546B3C7E702F5
:10189800138729003EC8FD873ED08567938707FADE
:1018A8003399E70063E4360133993701E167938799
:1018B800076AB347F402116A014B814BB71C004019
:1018C800930480FA3309F902930700103349F902A7
:1018D800930740063309F9029307D0073349F90201
:1018E8009357F9413ED29307FA8EB397E70037B77B
:1018F800C404130707403344E4027D1AB387870200
:10190800130480083EC2FD873ECA733704801377EC
:1019180087083ADC0F100000130770052380EC04D9
:10192800138D0C0423809C040F10000003C73C0592
:101938001377870FA389EC0403C73C0513671700C7
:10194800A389EC0423800C046257732707800F10C7
:101958000000130C700573370480137787083ADE8C
:101968000F100000930770052300FD0023009D0061
:101978000F10000003C73C0513670702A389EC0496
:1019880003D70C051317E7282398EC0403D70C0595
:101998001317F7282398EC0423000D0072577327B8
:1019A80007800F10000003C73C0513770702630088
:1019B800073803C73C05218B6DDF0818EF00300698
:1019C8007337048013778708BAC20F10000023000A
:1019D8008D0123009D000F10000003C73C051377FD
:1019E800F70DA389EC0403C73C0513670702A38915
:1019F800EC0403D70C051317E7282398EC0403D746
:101A08000C051317F7282398EC0423000D0016473C
:101A1800732707800F10000003C73C0513770702E0
:101A2800630E073203C73C05218B6DFF69332A8794
:101A38003AD451332257E30DE5FE03D70C0542553E
:101A48001317E7282398EC04EF00607F03C73C05D1
:101A5800218B6DDF03D70C0583C62C05A24733778E
:101A68004701B386460313D6F641BA96B388F640C3
:101A7800E24733B7E60032971D8FB247B3B6160177
:101A8800158F63C6E700631BF70063F91A01634EFD
:101A9800B72F6395ED00F24763E9F82E894663F89E
:101AA800762F7337048013778708BAC80F100000A1
:101AB800130770052380EC0423809C040F1000009A
:101AC80003C73C0593F6F90F1377870FA389EC0436
:101AD80003C73C05558FA389EC0423800C044647B3
:101AE800732707800F1000001306700503C73C0515
:101AF8001D8B631637337337048013778708BACC86
:101B08000F100000130770052380EC0423809C0449
:101B18000F10000003C73C051377F70DA389EC04E9
:101B280003C73C0513670702A389EC0403D70C0518
:101B38001317E7282398EC0403D70C051317F72885
:101B48002398EC0423800C046647732707800F1042
:101B580000009306700503C73C0513770702630A64
:101B6800072E03C73C05218B6DDF08184D2D7337F1
:101B7800048013778708BAD00F1000001307700588
:101B88002380EC0423809C040F10000003C73C054D
:101B98001377F70DA389EC0403C73C051367070205
:101BA800A389EC0403D70C051317E7282398EC0442
:101BB80003D70C051317F7282398EC0423800C048B
:101BC8000657732707800F1000009306700503C798
:101BD8003C05137707026309072A03C73C05218BD5
:101BE8006DFFD13E2A8CC13EE30F85FF03D70C055C
:101BF80042551317E7282398EC04912503C73C05A1
:101C0800218B6DDF7337048013778708BAD40F10E0
:101C18000000130770052380EC0423809C040F1038
:101C2800000003C73C051377F70DA389EC04238054
:101C38000C042657732707800F10000083D50C0566
:101C480003C72C059257B3F545013307470393564D
:101C5800F7412E97B335B700B6953305274133378B
:101C6800A7009D8D998D2167130707D06346B000A3
:101C780063970524630505243338E5021246D246E6
:101C8800B385E5023305E502C295EF50A328130793
:101C980015003335A700AA956346B000639B052855
:101CA8006309072883D6CC0295823386E600B336CB
:101CB800D600AE966348D000639C06309306F00FBA
:101CC80063F8C6300947637D672193078008F3B737
:101CD800078093F78708BED60F100000B71700409B
:101CE800130770052380E704130780FA2380E704AD
:101CF8000F100000DA3789668116558F33470708B9
:101D0800DAB723800704B657F3A707800F1000003F
:101D1800FA506A54DA544A59BA592A5A9A5A0A5BF2
:101D2800FA4B6A4CDA4C4A4DBA4D296182807337B6
:101D3800048013778708BAC00F10000023008D01B4
:101D480023009D000F10000003C73C05136707021E
:101D5800A389EC0423000D00064791B17337048072
:101D680013778708BAC40F10000023008D012300E1
:101D78009D000F10000003C73C0513670702A389E5
:101D8800EC0423000D00264761B1E39C0BD04246CA
:101D980082569315170013D3F80113951800B365ED
:101DA800B3003AD646D4EF50E3163257850B93FB6F
:101DB800FB0F6346E00031EFA258638C08049306DA
:101DC800150033B5A600AA9513D7F501BA9633B70F
:101DD800E6002E9785827E07558FF336048093F6AA
:101DE8008608B6C60F10000023008D0123009D0051
:101DF8000F10000083D6CC02369733470708239686
:101E0800EC0223000D003647732707800F100000EF
:101E180099B69306F5FF13351500898D75B7733795
:101E2800048013778708BACA0F1000002380CC04F7
:101E380023809C040F10000003C73C05558FA3891D
:101E4800EC0423800C045647732707800F1000000A
:101E580071B97337048013778708BACE0F10000062
:101E68002380DC0423809C040F10000003C73C057A
:101E780013670702A389EC0423800C0476477327B1
:101E880007800F100000C1B97337048013778708E3
:101E9800BAD20F1000002380DC0423809C040F10AA
:101EA800000003C73C0513670702A389EC042380DD
:101EB8000C041657732707800F10000009BB33382E
:101EC800E502D2461246B385E5023305E502C2951E
:101ED800EF504304933615001307F5FF958D6DBB3E
:101EE800130780087337078013778708BAD80F104D
:101EF8000000B7160040130770052380E604130797
:101F080080FA2380E6040F100000DA360566011611
:101F18001377F70F518F33470708DAB62380060483
:101F28004657732707800F100000050B137BFB0F24
:101F3800E9BAB366B700C9CE83D6CC023336E0001F
:101F4800B305B040918D3305E04095826345B000FC
:101F5800C1E163FFA6060947637E6703930780080C
:101F6800F3B7078093F78708BEDA0F100000B7179A
:101F78000040130770052380E704130780FA2380C5
:101F8800E7040F100000DA377D8BDAB723800704E7
:101F9800D6579DBB7337048013778708BADC0F10B8
:101FA8000000130770052380EC0423809C040F10A5
:101FB800000003D7CC02856681161377F70F558F7B
:101FC800334707082396EC0223800C04665791BF19
:101FD80093078008F3B7078093F78708BEDE0F10D2
:101FE8000000B7170040930670052380D7049306B6
:101FF80080FA2380D7040F100000D63716073697CB
:1020080033470708DAB723800704F657F5B9D1C96B
:1020180001114AC8416922CC26CA4EC652C406CE0E
:102028002A84B304B5009309F07F130AF9FF6364A7
:102038009400014539A8B387844063E62703B37742
:10204800440185E7228597E0FF1FE780E05011C92A
:102058000945F2406244D2444249B249224A0561E4
:1020680082804A94E9B763FFF9009377F47F99EB8C
:10207800228597E0FF1FE780C03F79F99317B028C2
:102088003E9475B79377F40F91EB228597E0FF1F85
:10209800E780403055FD1304041051BF137404F059
:1020A800EDB70545828081476394C700014582806A
:1020B8003387A70014233387F500850714A3EDB7EA
:1020C800914763ECB704977703009387279EB3C5BE
:1020D800F52098413E97B71700409387470B028732
:1020E800944337170040B3F6A64094C39306070BF2
:1020F8009C42B3F7A74019A8944337170040B3F69A
:10210800A64094C39306070B9C42C98F9CC29307B1
:10211800070A98433377A74098C3828094433717B8
:102128000040C98ED9B798433377A74098C3B717EB
:1021380000409387070A9843498FF9BF9843498F0E
:10214800F5B7914763ECB7049777030093874797F0
:10215800B3C5F52098413E97B71700409387470DC0
:102168000287944337170040B3F6A64094C39306FA
:10217800070D9C42B3F7A74019A8944337170040AE
:10218800B3F6A64094C39306070D9C42C98F9CC220
:102198009307070C98433377A74098C382809443EA
:1021A80037170040C98ED9B798433377A74098C3EB
:1021B800B71700409387070C9843498FF9BF984396
:1021C800498FF5B7B71600409A26B3470708137723
:1021D80007041DE3FD8B91EB9E2693F707209DC70F
:1021E8003755E8011305058082803755E801130546
:1021F80005803345F502828013F7070C9306000427
:10220800631BD700FD8B37459C1CD5B73725F400D9
:102218001305054082802165130505D0828037E7C4
:1022280000E01C435443A183E206D58F1CC1FD572F
:102238002320F7182322F7180F10000082801317A5
:102248008500B7E700E023A0E710618123A2A7106B
:102258008280B7F700E08847828041111307800821
:10226800F337078093F787083EC40F100000B717AD
:102278000040130670052380C704930680FA238064
:10228800D7040F100000FD55CEB723800704A245E0
:10229800F3A505800F1000007337078013778708B0
:1022A8003AC60F1000002380C7042380D7040F10FC
:1022B800000003C76704136717002383E70423801C
:1022C8000704B247F3A707800F10000001A032856A
:1022D800814737370040A14663C3A7008280034681
:1022E800B740E30ED6FE3386F50010228507230497
:1022F800C740DDB797F6FF1F93864664AA878842D2
:10230800172700201307870FAA9763E9E7000A87B2
:10231800130707FC6364F7009CC282807D558280A6
:10232800411122C406C62A84713D2947B307E50234
:10233800B2408D83B3D7870222449507B3D7E7020B
:1023480037370040B3C707082316F740410182809A
:10235800716541111305052006C6D937B737004006
:10236800130770F82381E7400D47A381E74013075F
:102378000004A380E74005472387E740B2404101B6
:102388008280AD4725EF982189476316F706DC411F
:10239800411106C698239C333285A207D98F41671D
:1023A800130647FE6385C704636DF600130617FE20
:1023B8006380C70209176388E70223900600A947CC
:1023C80039A81517E39BE7FE95479EA2154621A05D
:1023D800D5479EA25546CC45EF40810F8147B24074
:1023E8003E854101828085479EA20546EDB7CD47CF
:1023F8009EA24D46CDB72390060085473E85828034
:10240800011106CE22CC26CA4AC84EC680251374AE
:10241800040251EC83C905000948AE87639B09098A
:1024280003A84500B284368903430800034818000E
:102438002208336868004163130E13FE6304C8035F
:102448000D13630C68048D67938727902944631ED6
:10245800F8026244F240D2444249B24985470561D4
:102468006F90916129EB55476369D704C847554672
:10247800A685EF40E105814983A7818B99C79C43D5
:1024880089C74A86A6854E858297F240228562448E
:10249800D2444249B2490561828011EF5547636EC3
:1024A800D700C8475546A685EF408102F1B72144B9
:1024B800E9BF0544D9BF2D44C9BF3544F9B7C16741
:1024C800F917630CF502411122C406C685472A8410
:1024D800639AF50022852244B2409385018B41011D
:1024E8006FB0512489476396F5008545EFD0B15404
:1024F80075D1B2402244410182808280411122C4B8
:102508002A8441659385018B7D1506C6EFB091211C
:10251800170500001305E5FA0588EFD0914905C0B5
:102528002244B24097F6FF1F9386C6DD4146C54553
:1025380017F5FF1F1305C5DD41016FB01114B24037
:10254800224401454101828009C523ACA18A014585
:102558008280454582801147636CA7069766030011
:10256800938646573345D52018414111AE87369793
:1025780006C6B2850287554761456398E700554608
:10258800138541A0EF30D1740145B24041018280EA
:1025980005476145E39BE7FE05461385418BDDB79B
:1025A80055476145E393E7FE55461385C19ED9BF5C
:1025B8004D476145E39BE7FC4D461385819DD9B79F
:1025C80015476145E393E7FC15461385818A5DBF8E
:1025D80009458280411122C42E849385018B26C22D
:1025E80006C6AA84EF901144058919CD97F7FF1FF5
:1025F80083D7A7DD1EA0A2852244B2402685924437
:10260800014641016FA01126B24022449244494537
:10261800410182802380018C23AE018AB7170040D4
:102628001387070C14439387070D9396664914C3C1
:1026380094439396662994C31443BD9A14C398434C
:102648001367070198C3828023AEA18A1306400648
:10265800894503C5818C6F40A13B3717004013079C
:10266800470C1C43B7064000F58F14431387018CB1
:102678001023C18A13B5170091EA13652500630D6D
:10268800A60008A383A7C18B81CB82876306A60017
:1026980008A399E30545FDB7828011456FF02F9394
:1026A800B287411113962500BE8506C6EFF0BF9F7D
:1026B800B240014541018280411122C41394250092
:1026C800A28506C626C24AC0AA843289EFF03F9482
:1026D8002286CA85268597E0FF1FE78040F6B2402C
:1026E800224492440249014541018280011122CCD1
:1026F80006CE3714004026CA4AC84EC652C4834480
:102708007405034AB4058349840503499405EFE039
:102718003FE28347A40593F4F40F137AFA0F93E783
:102728001700230DF40493F9F90F1379F90FB7176C
:10273800004003C7A705058B6DFF03D5C705A38D0B
:102748004705238C3705A38C2705A38B9704F240F4
:102758006244D2444249B249224A05618280411109
:1027680022C406C62E849397556063DD0700EF30B8
:10277800912D19C1EF3091211315F468B24022440C
:102788004101828093F7150013C51500E5FB93F707
:10279800250081CFD9351306000A894503C5818CE8
:1027A800EF40012713452400D1BF8967ED8F85C30A
:1027B800EF401211DD3537F60200130606E0896591
:1027C80003C5818CEF40C1241315D46845BF11653A
:1027D8006D8D4DD51765030013050531EF50A30E18
:1027E80013060064916503C5818CEF4061221315BF
:1027F800E46869B71D714946976503009385052FFD
:10280800177503001305857386CEA2CCEF30D15E11
:1028180001E9176503001305A52EEF50C30A01A0AF
:10282800B7F700E023A40700795798CB3D4798C332
:102838000564B7E700E023A087180F10000017E72A
:10284800FF1F1307A75F23A2E18C130700F8A38AD1
:10285800E7401306000481450808EF30914E9707BA
:102868000020938767BA3EC893070440FC82B7B735
:1028780003003ECCB7070105938707103ECEED470E
:102888002310F10285472301F1029707000093877F
:1028980067E1BEC297070000938747E2BEC493076B
:1028A80014D12312F102970700009387C79A3ED8E4
:1028B8003705040097070000938787E33EDC194635
:1028C800970700009387A7DD2C00130585213EDEBE
:1028D800EFF06FFDA2473ED43C862316F102C247B3
:1028E80081C7BC8263F3870001A00808EF40E16F4D
:1028F800AA8501C9176503001305C521EF40135BBD
:1029080001A0F64066442561828041111705000048
:10291800130525E506C622C4EF4061691384818C3E
:1029280008A01928C53908202244B24013060032ED
:10293800896541016F40C10D797106D6130780087A
:10294800F337078093F787083EC20F100000B717C8
:102958000040930570052380B704130680FA23808E
:10296800C7040F10000083C6F70293F6A60FA387CB
:10297800D702238007049246F3A606800F100000B2
:1029880073370780137787083AC40F100000238035
:10299800B7042380C7040F10000003C7F7021367AA
:1029A8002700A387E70223800704A247F3A707802D
:1029B8000F1000000D45EFE01FBFC53181470147EB
:1029C8008146054685451305407EEFE0BFC2680095
:1029D80051468145EF30F136B707C0A83EC8B787E2
:1029E800E803938707D03ECA680097E7FF1F9387DD
:1029F800C7FA3EC6EF40D115B250456182804111F9
:102A0800976503009385452917650300130585120B
:102A180006C6EF40B349176503001305A512EF403A
:102A2800F3482945EF40334CB24041016F3020064E
:102A38004111976503009385A522176503001305C7
:102A4800650F06C6EF40934613050002EF40B349F1
:102A58002945EF405349EF305120856713870777A1
:102A68003376E502B2409387873803C5018D8545E3
:102A780041013E966F30D1794111976503009385E6
:102A8800A51C176503001305E50A06C6EF401342A7
:102A980013050002EF4033452945EF40D344B240C7
:102AA80003C5018D854541016F400121411106C6CD
:102AB80017170020130747E25C37F99B5CB7EF90C4
:102AC800D07C05E1EF20D01EEF304058B2403726C9
:102AD800090003C5018D1306067C854541016F3049
:102AE8003173B2404101828041119765030093859B
:102AF8002518176503001305E50306C6EF40133BC9
:102B08002945EF40533EB24041014DB74111976509
:102B1800030093852514176503001305A50106C650
:102B280022C426C24AC0EF4073382945EF40B33B60
:102B3800EF90B07519E52244B24092440249410130
:102B4800B5B717F9FF1F1309E994832709057574A9
:102B5800F1747D1486A3A2A317F5FF1F13058597AB
:102B6800EFD0606C8327C90417F5FF1F13058596FE
:102B780023900700EFD080698327090717F5FF1F07
:102B88001305459786A3A2A3EFD0E0698327C9065A
:102B980017F5FF1F1305059623900700EFD0006770
:102BA80017F5FF1F130505971C4986A3A2A3EFD0AD
:102BB800806717F5FF1F1305E5955C45239007000F
:102BC800EFD0C06417F5FF1F130585A01C4986A325
:102BD800A2A3EFD0406517F5FF1F1305659F5C455D
:102BE8002244B240924402492390070041016FD029
:102BF800E0614111976503009385050D1765030092
:102C0800130545F306C622C426C2EF40332A2945D8
:102C1800EF40732DEF90706705E997650300938582
:102C2800A50A176503001305E5F0EF40332817657B
:102C38000300130525F2EF4073272244B240924463
:102C4800294541016F40332A13050002EF10800126
:102C58002A8405E197650300938505071765030036
:102C6800130545EDEF40932417650300130505F0A0
:102C7800D9B7A5471CB19307C0125CC1FD575CA525
:102C8800EF00707D08A0084CB705D4009385851A1D
:102C98003105EF107049084C0C203105EF30C05752
:102CA800084C930500103105EF304058044C056579
:102CB800EF00501FB104AA852685EF30E055084C77
:102CC800930510123105EF306056084CC165FD15AB
:102CD8003105EF30A055084C930520123105EF302F
:102CE800E054084C9565938505E23105EF300054B2
:102CF80022852244B240924441016F00707C13F552
:102D0800150021C9411122C417650300130585E286
:102D18002E8497650300938525F206C6EF401319A4
:102D28002945EF40531CEF90505601C9D935B240A0
:102D3800134514002244410182801717002013070D
:102D4800A7B95C37F99B93E717005CB7EF20C0770A
:102D5800F9BF82807971976503009385E5F517655A
:102D68000300130525DD06D6EF4053142945EF402F
:102D78009317614681452800EFE04FF9EF00B06DE9
:102D8800A547DC849307C0123EC6FD574884230A32
:102D9800F100EF90904F1DE5976503009385C5F10D
:102DA80017650300130505D9EF4053101765030095
:102DB800130545DAEF40930F2945EF40D312B2507F
:102DC800456182802800EF0070702800EF001079BC
:102DD8002800EF10A001E5B741119765030093851E
:102DE80065EC176503001305E5D406C622C4EF4059
:102DF800F30B2945EF40330FEF9030491DE59765F8
:102E08000300938525EA176503001305A5D2EF4053
:102E1800F309176503001305E5D3EF40330922448E
:102E2800B240294541016F40130C4145EF009063C2
:102E38002A8405E1976503009385C5E617650300B5
:102E4800130545CFEF40930617650300130505D218
:102E5800E9B7A5471CB19307C0125CC19387818865
:102E68005CC9FD575CA5EF00105F08A0084CB705CA
:102E7800D4009385851A3105EF10102B084C0C20CF
:102E88003105EF306039084CBD65A5053105EF30D7
:102E9800E039084C930530023105EF30E0372285E0
:102EA8002244B24041016F00B061411122C49765CC
:102EB80003009385A5DD2A8417650300130585C7DC
:102EC80006C6EF40A37EA28517650300130585CBD0
:102ED800EF40C37D2945EF40130185476309F4009E
:102EE8008947630AF400B2402244410182802244A7
:102EF800B240410185B52244B2404101F1BD011102
:102F08003546976503009385A5C817650300130523
:102F1800654D06CE22CCEF30216E0DE59765030096
:102F28009385C5D5176503001305C5C0EF40037821
:102F3800176503001305C5BCEF40F3182945EF409A
:102F4800837A01A097F7FF1F938707CC3EC434000C
:102F58009317B02813868189976503009385050820
:102F680017650300130505093EC6EF20407E2A8435
:102F78000DC997650300938565D017650300130590
:102F880065BBEF40A372A28517650300130545C111
:102F9800EF40C3712945EF400375F2406244056173
:102FA8008280EF80B00A176503001305A5D7EF10DC
:102FB800101EEF50F000EFF0E01A17E5FF1F1305A1
:102FC8006560EFF0C00717650300130525D1EFF022
:102FD800201B2A84EF10B078EFA0B03BEF10213906
:102FE800EF30400EEF20E053EFD0801F97650300CD
:102FF8009385C5C8176503001305C5B309C8EF4015
:10300800E36AA285176503001305C5BB51B7EF40F6
:10301800E36917650300130525BDEF4023692945BA
:10302800EF40636CEFD02002EF90302629C59765FA
:1030380003009385A5C4176503001305A5AFEF40EA
:10304800E366176503001305A5BBEF402366294512
:10305800EF40636997650300938545C217650300D0
:10306800130545ADEF40836417650300130585BB61
:10307800EF40C36305B7EFF07FA3E9BF411106C670
:10308800EFB0224DEF10402117050000130565C76A
:10309800EF30F1712388A18C17E5FF1F1305455305
:1030A800EF00D05DEFF0BFE5EFF0CFD617050000D9
:1030B8001305E5DFEFF04FD9B240814505654101C1
:1030C800D5AB4111976503009385C5D217650300F9
:1030D800130545A606C622C4EF40435D1384E1816B
:1030E8000E20176503001305E5C4EF40235C29454E
:1030F800EF40635F0A20B240224441018280397167
:103108001C0822DC3EC22E84B7072000A16526DAFF
:1031180093850526AA843EC448001C0806DE3EC6E0
:10312800EF1090000565713FAA854800EF30001048
:1031380097650300938585C8176503001305859F68
:10314800EF40C3560E24722017650300130585BF90
:10315800A18193F5F507EF4063552945EF40A35842
:103168001C340147814693F7F707D917B337F000A6
:10317800B307F0403CA45000A2852685EF10501BF1
:1031880015C52A8497650300938545C31765030011
:103198001305459AEF408351A2851765030013056F
:1031A800E5BBEF40A3502945EF40E353F25062548A
:1031B800D25421618280411122C426C22A84AE845D
:1031C800176503001305059797650300938505BEEA
:1031D80006C6EF40A34D13050002EF40C350294532
:1031E800EF40635022852244B240A68592444101B3
:1031F80039B7397122DC26DA2E844ED68145B2845D
:10320800AA896146280006DE4AD852D456D2EFE091
:10321800EFAFEF005024A547DC849307C0123EC6E9
:103228004884EF308123930720033375F5029765AF
:1032380003009385E5B90149976A0300938A4AB662
:10324800154A2AC8176503001305C58EEF400346C3
:103258009C400E2483068400B823BC337220A181CD
:10326800A2075D8F93F5F50717650300130585B071
:10327800EF40C3432945EF4003479C405685CA9712
:103288008C230509EF408342E31949FF9C40B8238A
:10329800BC33A207D98F239FF1801C34294793F7A9
:1032A800F7076385E700FD57230AF10083176400D9
:1032B8006359F000FD57230AF1009307400602C83E
:1032C8003EC62800EF009032A2854E85EFF03FE31E
:1032D800F2506254D2544259B259225A925A216138
:1032E8008280411197650300938585AF17650300B8
:1032F8001305458406C622C43284EF40233B1305D8
:103308000002EF40433E2945EF40E33D0565EFF0FD
:103318005FDB1C4098239C33A207D98F6304F50018
:10332800239FF180B240224441018280239FB180D3
:1033380082804111976503009385C5BA175503002C
:103348001305457F06C622C4EF4043361384018225
:103358000E20176503001305E5ADEF402335294519
:10336800EF4063380A20B24022444101828039711B
:103378001C0822DC3EC22E84B7072000A16526DA8D
:103388009385E524AA843EC448001C0806DE3EC690
:10339800EF1080590565713FAA854800EF20106934
:1033A800976503009385C5AF175503001305857806
:1033B800EF40C32F0E24722017650300130585986C
:1033C800A18193F5F507EF40632E2945EF40A3311E
:1033D8001C340147814693F7F707D917B337F00034
:1033E800B307F0403CA45000A2852685EF10407436
:1033F80015C52A8497650300938585AA1755030088
:1034080013054573EF40832AA2851765030013054A
:10341800E594EF40A3292945EF40E32CF25062548C
:10342800D25421618280411122C426C22A84AE84EA
:10343800175503001305057097650300938505A5C7
:1034480006C6EF40A32613050002EF40C32929450D
:10345800EF40632922852244B240A6859244410167
:103468006FF0FFF0397122DC26DA2E844ED68145C2
:10347800B284AA896146280006DE4AD852D456D2B8
:10348800EFE0CF88EF00207DA547DC849307C012CA
:103498003EC64884EF20717C930720033375F502FC
:1034A80097650300938545A10149976A0300938AAC
:1034B800AA9C154A2AC8175503001305A567EF40AB
:1034C800E31E9C400E248306840098239C337220BC
:1034D800A181A2075D8F93F5F50717650300130512
:1034E800A596EF40A31C2945EF40E31F9C40568555
:1034F800CA978C230509EF40631BE31949FF9C40D9
:1035080098239C33A207D98F2390F1821C34294732
:1035180093F7F7076385E700FD57230AF100831740
:1035280064006359F000FD57230AF1009307400631
:1035380002C83EC62800EF007002A2854E85EFF053
:103548001FE3F2506254D2544259B259225A925A45
:10355800216182804111976503009385259717554E
:1035680003001305255D06C622C43284EF40031408
:1035780013050002EF4023172945EF40C3160565E0
:10358800EFF03FDB1C4098239C33A207D98F6304DC
:10359800F5002390F182B2402244410182802390B9
:1035A800B182828039711C0822DC3EC22E84B707A2
:1035B8002000A16526DA3EC4AA841C08938545200C
:1035C800480006DE3EC6EF102036B717004083A538
:1035D800470C48009395C56893D5C548EF20D0435C
:1035E8009765030093858597175503001305855440
:1035F800EF40C30B0E247220175503001305857482
:10360800A18193F5F507EF40630A2945EF40A30D23
:103618001C340147814693F7F707D917B337F000F1
:10362800B307F0403CA45000A2852685EF10405017
:1036380015C52A849765030093854592175503009D
:103648001305454FEF408306A28517550300130560
:10365800E570EF40A3052945EF40E308F2506254B6
:10366800D25421618280411122C426C22A84AE84A8
:10367800175503001305054C976503009385058DC1
:1036880006C6EF40A30213050002EF40C305294513
:10369800EF40630522852244B240A6859244410149
:1036A8006FF05FF0B717004083A7470C7D8D133587
:1036B80015008280411126C2AE848D4522C406C6FB
:1036C8002A84EFE01FA8B717004099C89387C70C52
:1036D8009843598C80C3B24022449244410182806D
:1036E8009387870C9843418F98C3F5B74111976525
:1036F80003009385E588175503001305A54306C6FF
:1037080022C43284EF30937A13050002EF30B37D80
:103718002945EF30537D1840B717004083A7470C61
:103728000C239397C76893D7C7486388F50022444A
:10373800B240056541016FF0FFF7B24022444101F4
:103748008280797122D426D22E844AD0814532894A
:10375800AA846146280006D6EFD05FDBED29A5478D
:10376800DC849307C0123EC64884EF20114F9307AC
:1037780020033375F502975503009385657F2AC8A2
:10378800175503001305053BEF3053720E248306CB
:1037980084007220A18193F5F507175503001305DE
:1037A800A578EF30B3702945EF30F373832709000C
:1037B80005658C23EFF01FF01C34294793F7F707B2
:1037C8006385E700FD57230AF100831764006359F6
:1037D800F000FD57230AF1009307400602C83EC6D1
:1037E8002800ED21A2852685EFF0DFDBB2502254B8
:1037F800925402594561828041118D4522C406C602
:103808002A84EFE01F94B71700409387870C9843EA
:10381800B24033458700224488C3410182800111A8
:103828003546975503009385A5361765030013059C
:1038380065BB06CEEF20515C01E91755030013055F
:103848006578EF40430801A0EF5022522AC6EF00E6
:103858001174EF005153EF70603AF2403245056140
:10386800828041111D4506C6EFD0DFCE13056024C6
:1038780097D0FF1FE78000F2B71700409387870AA9
:1038880098438545130500101367072098C3EFE098
:103898003F838D4513050020EFE09F82EFE05FAB8B
:1038A8001765030013058569EF40E30117650300F9
:1038B800130545B3EF402301EFE0DFF3EFF0EF84AA
:1038C800EFF0FFF5EFF08FFB97D0FF1FE780C00FF9
:1038D80001458280411106C6EFE0EFFCB240014588
:1038E800410182809307000463E7C7025D71A6C2A5
:1038F800AA840A8586C6A2C43284EFD0DFBF228696
:103908008A85268597D0FF1FE78060D3B640264476
:1039180096446161828039558280411106C6EFE084
:103928000FEFB240410182802E961757030013070C
:10393800A77B6393C50082809C2109058505918337
:10394800BA979C23230FF5FE83C7F5FFBD8BBA9763
:103958009C23A30FF5FEF1BF4111976503009385E2
:10396800A585175503001305E51C06C6EF3013544B
:1039780013050002EF303357B240294541016F303B
:1039880093564111976503009385058117550300E8
:103998001305451A06C6EF30735113050002EF30C0
:1039A8009354B240294541016F30F3534111975563
:1039B80003009385257D175503001305A51706C633
:1039C800EF30D34E13050002EF30F351B2402945D2
:1039D80041016F3053514111975503009385C579C3
:1039E800175503001305051506C6EF30334C1305AC
:1039F8000002EF30534FB240294541016F30B34EBA
:103A080041119755030093856576175503001305F3
:103A1800651206C6EF30934913050002EF30B34C28
:103A2800B240294541016F30134C5C49411122C411
:103A380006C62A8491C7DC4381C72E850C48829725
:103A48001C4CC84BEF2081741C4CB240224423AA62
:103A58000700410182804111328506C622C426C270
:103A68002E844AC0EF20B005AA8497550300938599
:103A7800A573175503001305E50BEF303343030710
:103A8800840072204E20A686175503001305455A58
:103A9800EF30D3412945EF301345170400201304B4
:103AA80064D7170900201309E9DC1C20639B9700E1
:103AB80081452285EFF07FF74C2C03C5218DEF302F
:103AC800A11F13040402E31224FFB24022449244CB
:103AD8000249410182801D71A2CCCAC886CEA6CAFD
:103AE800CEC6D2C4170400201304C4D25C2C2E897D
:103AF800ED8FC9E78347C403ED8FD9E38347C40536
:103B08000145ED8FA5C78947139A57001C103EC47D
:103B1800B70720003EC697E9FF1F938969AB1C10C1
:103B28003EC883A7C90002CA02CC02CE9E23B304B2
:103B38004401984CFC83FD77FC845C4BA1E79755C6
:103B480003009385E55C175503001305A5FEEF30C8
:103B5800F3351755030013056550EF303335294504
:103B6800EF3073385294482C3345A900F640664428
:103B7800D6444649B649264A25618280814769B7B5
:103B8800854759B79C30A555B1CBFD17122B4C472B
:103B98009CB0DC242800230FF100EF2000664E853E
:103BA80026879386018930004C08EF007078AA892F
:103BB80055D9975503009385A55517550300130547
:103BC80065F7EF30B32ECE85175503001305C549A9
:103BD800EF30D32D2945EF301331D5552685EFF039
:103BE800DFE449B79C4DDC4B99C7D041CC2D03C5C8
:103BF800218D6F20F16182801C4EDC4BA1CF4111D9
:103C080026C206C622C4AE84A9C19755030093856F
:103C18002555175503001305E5F13284EF301329B4
:103C2800A6851755030013056546EF303328294547
:103C3800EF30732B4C2C2244B240924403C5218DA3
:103C48001306400641016F20B15CB2402244924401
:103C58004101828082809387118D88231307150084
:103C680098A38280970700209387C7BA984F41117D
:103C780026C2584B06C622C44AC0AA8415CF985FEC
:103C8800584B0DCFB84F584B0DE3094716073384EF
:103C9800E700268503298401EF2021541C4C232AA0
:103CA800A9002285A6ABDC4B91E30145B240224432
:103CB80092440249410182800147C9BF0547F9B7CB
:103CC80010454C2D03C5218D6F209154411126C2FA
:103CD800AA84414506C622C4EFF0DFF805E99755E6
:103CE80003009385A546175503001305A5E4EF3097
:103CF800F31B17550300130565E7EF30331B224408
:103D0800B2409244294541016F30F31D6146A685B2
:103D18002A84EFD04FFE084CB705D4009385851A46
:103D28003105EF007040084C8C203105EF20C04E63
:103D3800084C930500103105EF20404F044C0565F1
:103D4800EFF05F96B104AA852685EF20E04C228526
:103D58002244B240924441016FF09FF6411126C2BD
:103D6800AA84414506C622C4EFF0DFEF05E997555E
:103D780003009385253C175503001305A5DBEF3099
:103D8800F31217550300130565DEEF303312224492
:103D9800B2409244294541016F30F3146146A6852B
:103DA8002A84EFD04FF5084CB705D4009385851ABF
:103DB8003105EF007037084C8C203105EF20C045E5
:103DC800084C930510123105EF204046044C056558
:103DD800EFF02FD6B104AA852685EF20204522854D
:103DE8002244B240924441016FF09FED411126C236
:103DF800AA84414506C622C4EFF0DFE605E99755D7
:103E080003009385E531175503001305A5D2EF305C
:103E1800F30917550300130565D5EF30330922441C
:103E2800B2409244294541016F30F30B6146A685A3
:103E38002A84EFD04FEC084CB705D4009385851A37
:103E48003105EF00702E084C8C203105EF20C03C66
:103E5800084C930520123105EF20403D044C0565C0
:103E6800EFF02FA6B104AA852685EF20203C2285F5
:103E78002244B240924441016FF09FE41571370724
:103E8800B18086CF97070020938707A5A2CD130797
:103E9800871A98C337A70017130787AAD8C3379775
:103EA800EB3D1307570398C7881013070025D8C799
:103EB800EF007139B7A7A880938707A011464C0077
:103EC80028103EC2EFF05FA6975503009385051EA4
:103ED8000818EF30F31F194697550300938585346A
:103EE80013051103EFF05FA4975503009385051C94
:103EF8001305D103EF30D31D414697550300938531
:103F0800C5321305E103EFF03FA2130660032C103E
:103F18008810EF00113A8547630CF50897550300A0
:103F28009385C51D175503001305C5C0EF300378E9
:103F3800175503001305C517EF3043772945EF30B0
:103F4800837AEF2081519386118D9C221357850027
:103F58002A97BA9713570501BA976181AA979CA225
:103F68001707002013070791970700209387878A70
:103F780098CF0547D8AF170700201307679198DF38
:103F88000947238EE7021707002013072792B8CFA7
:103F980017050000130565B41147238EE704EF30B9
:103FA8000101FE406E442389A18C01452D61828068
:103FB8002A848C102800EF00F1356301850297559B
:103FC80003009385A513175503001305A5B6EF3015
:103FD800E36D175503001305250FB9BF41462C00A3
:103FE800170500201305458EEFD0EFD099BF2A861C
:103FF800B305B04017550300130585246F30036BD4
:104008001387C18DAE870E23639CA50052A3175555
:104018000300130565243E863EA376A36F3003692B
:10402800175503001305C5246F30F309797106D6B7
:1040380022D426D209C989476302F50CB25022540A
:104048009254456182802800EF2081480C841755DE
:1040580003001305652293840182EF3023651C84D5
:1040680005471384E1816380E70409476382E70613
:1040780081E70565EFF04FF8EFE0DFCD1755030056
:1040880013054520EF3033048E2017550300130520
:104098002521EF30A3610E20175503001305852154
:1040A800EF30C36061BF0565EFF0CFDF71D59E20AB
:1040B8004167130767D79305F0286366F70093876E
:1040C8009728B3C5070805658EA0EFF04FCD6DB7EB
:1040D8000565EFF02FDD4DD10E209307904963FB66
:1040E800B700938525F4B3C5050805650EA0EFF064
:1040F800EFA359B79565938505CAC5BF2800EF207A
:10410800213DEFE07FCD175503001305A51BEF30C8
:10411800837B2DB71387C18D56211E236391F60427
:10412800011106CE22CC138431830820C167F91708
:1041380089451CC323A0018EEF2011380820914522
:10414800EF20913785471306F10085451305503058
:10415800DC87EFA0E20BF2406244056182801755CC
:1041680003001305E5106F3003767D15954763E46A
:10417800A71217570300130727223345E5201C41D0
:10418800411122C4BA9706C626C22E8482871755C3
:1041980003001305E5142244B240924441016F30F4
:1041A8008372B8219947631CF7002E85EFF09FF6BC
:1041B8006C20175503001305A513EF30234F17552F
:1041C80003001305A514C1BFB82195476312F70270
:1041D8009387C18D962341677917AA25638FE600D7
:1041E800EFA0E2341755030013054513EF30A36D14
:1041F800175503001305051579BFFA2593843183F4
:104208008AA3BAA39A2988200966DAA3BA291306C9
:104218000690A145FAA3EF20A17F88200566130622
:1042280006C89145EF20C17E72242E24175503003D
:1042380013050510EF30834765BF175503001305B5
:10424800251191BFAC2191476397F50017550300DD
:104258001305851189B799476390F5022285EFF018
:104268007FEB6C2017550300130585082244B240E4
:10427800924441016F30834395476399F5001C30A0
:10428800F1F7175503001305E50F31B7175503006C
:104298001305C50FE1BF82801D71170500001305C6
:1042A800251D86CEA2CCA6CAEF20715093843183F7
:1042B8009947054488A02310F1027000930740062F
:1042C800854513055030231CF1024086EF90527447
:1042D80017D6FF1F13060634F14513057030EF900B
:1042E80032731386C1829D4513056030EF90527278
:1042F8001010894513051031EF90927130188945D7
:1043080013052031EF90D270930500050D45EF405D
:10431800B14A930500051145EF40114A30189145FF
:104328001305704040804082408602DC2300010271
:10433800EF80321B0A86854513050040EF80721A0C
:104348005000854513051040EF80B21910108545BF
:1043580013052040EF80F218700085451305504082
:10436800EF8032187D55EF70616F7D55EF90713891
:104378007D55EFE0AF9817D6FF1F13062628D545C1
:104388000145EF70815D89475C808D473EDC914730
:104398003EC6B7070304938717203EC210109547FF
:1043A800D54501455C8422D002D202D402D602D877
:1043B800230A010202DE82C082C282C423060104EB
:1043C80002C802CA02CC231E0100230F0100EFE03D
:1043D8008F980A8685450545EFE0EF973018D54553
:1043E8000945EFE04F977000CD450D45EFE0AF96DA
:1043F800500095451145EFE00F96C1671387C18DB1
:10440800F917138581821CC323220700EFE0CF939D
:104418001385418DEF70C26366448820F640D64408
:10442800854525616F20A13E011126CA9384C18D5F
:1044380022CC2A848A202E866C8501478146ED4548
:1044480006CEEF70F1183085A2852AC6EF20410804
:104458008A202C00EFE00F9809C5ED452800EF7081
:10446800B12EF2406244D24405618280797122D42F
:1044780006D62E849397556063DF070003C5318302
:10448800EF10715C19C1EF1071501315F468B25038
:1044980022544561828093F7150085C317D6FF1F04
:1044A8001306061597F5FF1F9385054403C5318349
:1044B800EF90722413451400D9BF93F725008DCBD4
:1044C80013060064894503C53183EF2061549307BF
:1044D80080086800CD453EC602C802CA02CC231E29
:1044E8000100230F0100EFF03FF41345240045B706
:1044F80093F7850085C383C7318313074006814638
:1045080013064006994503D5C18DEF90321A13451D
:104518008400B5BF13F545003DD903D5C18DEFA083
:10452800C2000566130606C8914503C53183EF200E
:10453800214E13454400A1BFEFC25FF72A84084506
:104548002E89B28909C900C1970500009385C574F1
:104558006105EFF0B07481447D5AEF10C00563C364
:10456800A4048144EF10200663C6A40497F7FF1F34
:10457800938747389C43DC47B307F9409187230268
:10458800F400638109048327C900B307F4409587C1
:10459800A302F4001C4C89C79C4799C322858297C3
:1045A8006FC01FF45C44139714008504BA972390D6
:1045B800470165B71C48139714008504BA972390E0
:1045C80007004DB7832789000547B307F44095874F
:1045D800A302F40083570400638EE7028DC30947E2
:1045E8006384E7040D47E397E7FA97570300938737
:1045F800272E1CCC975703009387872E11A897570F
:104608000300938767F41CCC975703009387C7F47C
:104618005CC849B797570300938707E01CCC9757A6
:104628000300938767E0EDB7975703009387072F39
:104638001CCC975703009387672FD9BF85E1EFC23A
:104648009FE8004618448347940075839D8B631543
:10465800F700EF00101B48C46FC03FE98280EFC22B
:10466800FFE413893500C16442094111AA89014454
:10467800F11413590901054A2EC6EF00D073B2454B
:104688006346A400014541016FC09FE583A7090067
:1046980013171400BA9783D707006388B700639489
:1046A800970063742A010504C1BF0545E9BFEFC23D
:1046B8001FDFAA892E89328BB6843A8ABE8AEF8098
:1046C800C03C55C12685EF10302F8D4763E5A70004
:1046D8007D556FC05FE083DB4400EF00D0732A8410
:1046E800EF00B0749307740031443305850263C545
:1046F800A702EF005072EF0010722A84EF00F072E8
:104708009307740031443305850263CDA702EF0097
:1047180090709307450019A8EF00307133058502A2
:104728001307F0179307C017E357A7FC2D55E3C2EB
:1047380077FB63000B02D6865286A6854A85EFE092
:10474800905741BFEF00706E330585029307C5FF90
:10475800F1BF832749001385C90083D52700EFF0EF
:104768001FF071F9B5B76955ADB797F7FF1F2395D6
:10477800A71897F7FF1F9387E717904381470C46C1
:104788003307F500420741836393B700828054469C
:10479800139847008507C2962390E600D5B797F788
:1047A800FF1F938727159C4303C58700828017F551
:1047B800FF1F035565148280EFC2FFD0C1671387BE
:1047C800D7FF6307E5026368A700F117630EF500DA
:1047D80001456FC09FD11387E7FF630EE500FD1702
:1047E8001D8D13351500F5B7EF4000367D15D5BF83
:1047F800EF408013E5BFEF40E011CDBFEFC2BFCC63
:104808004111AA8401442EC6EF00F05BB24563460D
:10481800A400014541016FC05FCD9C4813151400E9
:104828003E9583570500E387B7FE0504E9BF0348B3
:104838005500814693F7F60F63E5070181473E85EA
:104848008280584593975600BA9703D72700631676
:10485800B70003D70700E304C7FE8506E1BF834618
:10486800450001479377F70F63E4D700814711A804
:104878001C45131657000507B29703D60700E31324
:10488800B6FE3E858280EFC27FC293170501C187BD
:1048980097FAFF1F938A0A066355F00883A70A0050
:1048A800C0479C4703570400198D42054181636640
:1048B800F500014422856FC0BFC212052A94DDBFEE
:1048C800DC4713944900014A3E94834744006341FE
:1048D800FA02014A834754006347FA028509C2096C
:1048E80093D9090183A70A009847E3EBE9FCD1B7FC
:1048F8001C4413195A00A6853E994A85EFF01FF00B
:1049080011ED050AD9B75C4413195A00A6853E99DA
:104918004A85EFF0BFEE19E1050A6DBFE30009FC17
:1049280051BFAA8481497DBFEFC2FFB91C452A84C3
:1049380081E79307C5001CC51C44231204001CC052
:104948009307F00F63E9B70093F5F50F2285EF1091
:10495800B00C6FC09FB993940501C167C18063F71C
:10496800F500A6852285EF10D00EE5B7C18193F535
:10497800F50F2285EF10500AA6852285EF10100B3F
:10498800C9BF97F7FF1F9387E7F6884382801C45C6
:1049980099C797F7FF1F23AFA7F4014582807D557C
:1049A800828097F7FF1F9387E7F498438347450072
:1049B800484792073E958280EFC2FFB0617100457B
:1049C8001C183EC6B70780013EC81C183ECA83574C
:1049D800440002CE02D002CC231EF100834784009B
:1049E8002A8902D22301F1023C083ED402D6EFF014
:1049F8005FFB835705002316F102EF30706423072D
:104A0800A1025C4003556400F18313F71700834744
:104A1800F10252055181F99BD98FA307F102EFE00A
:104A2800F01A39C5AA8403550500EF80E00683D73C
:104A380004002AD26800231CF10083D72400231D18
:104A4800F1001C4803D647008C43EF10007B8347D6
:104A5800B400CA8617560300130686958117A30566
:104A6800F4006C004810EFE010255D616FC0FFA7EF
:104A78002155E5BF1C45B1CF03C5A700894613578B
:104A88006500630BD7028D46630ED7028546630027
:104A9800D702130740063305E50203C7B700418B69
:104AA80015CB83C7B700BD8B3355F540828013758E
:104AB800F5031307803EC5B709671375F503130798
:104AC8000771D1BF372709001375F5031307077C52
:104AD800D9B701458280EFC21F9F03A985006305EE
:104AE80009048347B900AE8493F7070E91CF0345B5
:104AF8009900930520030D810505B305B502884487
:104B08006105EFF090250DA02E85EFF0BFF62A8401
:104B180001CDC5298325C900B307B54063F88700CF
:104B28002E94B305A440E1FD6FC03F9C8545C1BFED
:104B3800EFC27F992A8403D50500011132C636C415
:104B48003AC22EC002CA02CC02CEEF70F07482457F
:104B58002ACA22852ECCEFF0DFE403570500231E76
:104B6800E100EF30F04DA24632469247230FA100F4
:104B780036874C08B28622850146EFF05FB305619F
:104B88006FC0BF96EFC23F9461711C183EC6B7074D
:104B980080013EC81C183ECA3C0800453ED4AA8481
:104BA80002CC02CE02D002D202D6EFF09FDF8357AA
:104BB800050035592316F102EF3090482307A1026A
:104BC80009C48357440091E721594A855D616FC044
:104BD800DF910355640052055181EFE0207F2A8957
:104BE80065D58347B40093F7070E89C71305840179
:104BF800EFF0301883574400231EF10083478400E8
:104C08002301F1025C4003550900D98313F7070813
:104C180083471102231CA10093F7F707D98FA3003C
:104C2800F10283572900231DF1005C40F18313F73B
:104C380017008347F102F99BD98FA307F102EF70A0
:104C4800B0652AD251D18347940068001397570062
:104C58008347B400FD8BD98FA305F4001C4803D605
:104C680047008C43EF106059A687174703001307C6
:104C78002774740005464C102685EFF05FA32A8937
:104C880029D58347B400A685FD8BA305F400EFF072
:104C98009FE425BFEFC23F83832485FE2A84411108
:104CA8002685EFF03FDD834734FF93F7070E9DC35A
:104CB8002AC62685EFF05FD019C9834734FFB2456D
:104CC800FD8BA309F4FE81C52285EFF0100941018F
:104CD8006FC0BF816DDD8327C4FF2685829765F984
:104CE800834734FF93F7070E81C72285EFF07008DA
:104CF800032584FEEFF01FE9D9BFEFC2CFF99C412D
:104D080041112A8903C7070089472E8493566700F3
:104D1800638CF6020D466382C6049307F0076302AC
:104D2800F7022E85EF10A059AA848149C16B130C94
:104D3800490097F7FF1F9387E7BB9C43984763ECAD
:104D4800E90241016FC0EFF803D745008547E3FA50
:104D5800E7FE2E85EF10805AC1BF03D74500E3F266
:104D6800E7FE2E85EF10A055AA842285EF10805605
:104D7800C204C98C5DBFDC470355A900139A4900DA
:104D88003E9A93170501C187635DF00083570A00B7
:104D98006395A70263E574038327CA00034D5A008D
:104DA8001DA0A1672167A98F1307F7EFE374F7FE2A
:104DB80063950900EFF05FA071FD85099DBF83270A
:104DC8008A00034D4A00835DA90003576900216AE0
:104DD800138BC7003AC6814A33CA4D01631E5D0171
:104DE80097F7FF1F938787B19C43E1DBA286628612
:104DF800814526858297D1B7A1679387F7EF930CF2
:104E08004BFF63F04703B2455A85EFF05F8519CD34
:104E180003278B00104719CA10436380C402310767
:104E2800D5BFEE856685EFF07F9D71FD93861A00EC
:104E380093FAF60F130B0B0255B7835644005C43E5
:104E4800E3EDF6F622853AC6EF106036A167938740
:104E5800D7042A8A035D4400324763E897008347F2
:104E6800D90093E707F8A306F9001C476685228650
:104E7800E2858297C1670844FD17337AFA00529594
:104E880008C02312A40115BF97F7FF1F938787A6B1
:104E98009843814715C31447814763FFD50093970B
:104EA80045004C47BE9519C903C75500814763752E
:104EB800E600DC451606B2973E85828003C74500AA
:104EC8008147E37BE6FE16069C45F5B7EFC20FDE89
:104ED800AA892E8A814497FAFF1F938AAAA183A7D9
:104EE8000A00984763E4E4006FC08FDFDC4713943F
:104EF800440001493E9413BB140083474400634BAC
:104F0800F900014913BB140083475400634FF900AB
:104F18008504F1B70844931759005287DA86014689
:104F2800A2853E9582990509C9BF4844931759003F
:104F38005287DA860546A2853E9582990509E9B722
:104F4800EFC26FD8814517F5FFFF1305255F97F767
:104F5800FF1F2393079AEFF07FF76FC00FD997F7DA
:104F6800FF1F938727999C4381CFEFC2CFD58145F7
:104F780017F5FFFF1305855CEFF05FF56FC0EFD6FF
:104F88008280EFC2AFD241112315E1002E89B2848D
:104F9800B6893A8681460147ED452A84EF60516318
:104FA8002AC61DCD0356A100CE85EFC0CFD4CA8531
:104FB8002285EF702127058915C1228501462C001D
:104FC80023149100EF80010A2A8409C5ED452800C1
:104FD800EF609177228541016FC08FD04944FDB7BA
:104FE8006554CDBF5C41FD175CC18280EFC2AFCD77
:104FF800EF10C17E95473305F50281450D816FC0DD
:10500800CFCEEFC24FCCEF10617D95473305F50247
:105018000D816FC08FCDEFC20FCB03550500EF2078
:1050280091426FC08FCCEFC20FCA0355050032877B
:10503800AE8617C6FF1F0356866497F5FF1F938534
:10504800258CEFF01FF46FC04FCAEFC2CFC7EF90A7
:10505800024E6FC08FC9EFC20FC797F5FF1F938528
:10506800258AEF80316C01456FC02FC8EFC2AFC5EC
:10507800814517C5FF1F0355855CEF70E1566FC06A
:10508800CFC6EFC24FC497F5FF1F93856588EF80A1
:10509800716901456FC06FC5EFC2EFC2814517C581
:1050A800FF1F0355C55FEF7021546FC00FC4EFC2D7
:1050B8008FC12E85EF60A04CEF60F0016FC0EFC28A
:1050C800EFC26FC0EF60D00B6FC02FC25C49E11711
:1050D8005CC95CC583572501A1072319F5008357CF
:1050E8000501A1072318F5008280F1473305F50271
:1050F80097F7FF1F9387C7839C433E9582808D4710
:105108006317F60603D74600854763F2E706EFC242
:105118008FBB368536842E89EF10601A39C18357C4
:10512800440093140501C18063ED97022285EF10B6
:105138000019FD14231294009307A002630EF500D2
:105148009307B0026301F50293079002631BF50011
:105158002285EFC0F07631A00146CA852285EF800E
:1051680060036FC08FB82285EF005056DDBF828084
:1051780097E6FF1F9386067C9C42014599CF98438A
:10518800D44217E6FF1F2327E67A6396D70097E6EF
:10519800FF1F23A3E67A1385C7FE8280EFC2AFB252
:1051A800D9267144330585029145EF70C05601E553
:1051B80065556FC08FB397E7FF1F23A9A7766526AC
:1051C800330585029145EF7000557DD197E7FF1FA4
:1051D80023A0A776492E97E7FF1F2393A77461267C
:1051E80097E7FF1F239FA77297470300938787219D
:1051F80017E7FF1F232AF77297070000938747EDE9
:1052080017E7FF1F2320F772014565B7EFC2AFAB61
:10521800AA8517E5FF1F1305A570EF10201E6FC0A4
:10522800CFACEFC24FAAEFF07FFEEF10A01E97E7BA
:10523800FF1F938727709C4381CF1387C7FE09CB35
:1052480083D5C7FF17E5FF1F1305456FEFF0E03063
:105258006FC0AFA9EFC22FA7EFF09FF119C983471D
:1052680085002A8493F7070499E70355E500EFF0D2
:105278005FFB6FC08FA78347C5009304450117E9FB
:10528800FF1F1309296B85E3832709005CC997E78A
:10529800FF1F23A1976A83274900E1FF97E7FF1FB4
:1052A80023AC9768F9B7FD172306F5006105EF6091
:1052B800A0728307840063C907048347840093E7C7
:1052C80007F82304F400EF1041194205A94741816A
:1052D8003375F5028347840093F707FCC98F2304CD
:1052E800F4008347D4003E951C402318A40089CFBE
:1052F800984319CB8347C40050408145850733053F
:10530800F502420541810297832709005CC897E7A7
:10531800FF1F23A197628327490089E797E7FF1FAB
:1053280023AC97608347C400A9D78355040117E5C8
:10533800FF1F1305A560EFF0402225BFEFC2AF980D
:1053480097F7FF1F9387C7849C4701448583858B04
:1053580081EFAE84B2853A86EF1020112A8409C500
:10536800EF102008829408CC22856FC00F98EFC2F6
:10537800EF9341112E8932C6AA89712C3247130640
:105388000502CA8697050000938565D617E5FF1FB5
:1053980013050559EFF09FFA2A8429CD9304C50017
:1053A8004D261946AA852685EF0030658545268550
:1053B800EF00106217450300130585024E958345DB
:1053C80005002685EF0050655C4831468145A107F8
:1053D8005CC85CC483572401E1172319F400835780
:1053E8000401E1172318F4001C4C3E85EFC00F920E
:1053F800A3042501228541016FC08F8EEFC2AF8CB7
:105408004111AA842EC632C4EF100000004DB245E7
:105418002246834784000CC050C093F7F70393E7F4
:1054280007042304F400231804002685EF00707B8A
:1054380083479400A9462317A40013D7370005070C
:105448003307D7029D8B85072306F400A306E400E3
:1054580083C70401D8488507230FF7FE17E7FF1F06
:105468001307474D5843232A0400930744011DEBB3
:1054780017E7FF1F2322F74C17E7FF1F232CF74AD4
:1054880017E4FF1F1304844B2285EFF0C0021C446D
:10549800858B5D8D09E581452285EFF0000C410182
:1054A8006FC0AF841CC317E7FF1F2327F748C9BF86
:1054B800EFC26F81970500009385A5C40145EFF001
:1054C8001FBF01456FC06F82EFB2FFFFEFF05FBFF4
:1054D8006FC0AF818347C500A1E7EFB2DFFE2A8422
:1054E8000355E500EFF09FD215C98347840093F771
:1054F800F7FB2304F4001C4091C7DC4381C74C40F0
:1055080001458297EFF0DFC617E5FF1F1305054336
:10551800EFF020060355E400EFF0BFD06FB0FFFCBA
:105528008280EFB25FFA97E7FF1F9387A74097053E
:105538000000938565D217E5FF1F1305254023A0BA
:10554800070023A20700EFE070756FB01FFA1C4D2B
:1055580091CBDC4381CBEFB21FF7834507008297DD
:105568006FB0BFF8828097E7FF1F9387673F9C4320
:1055780003C50700828097E7FF1F9387673E9C4318
:1055880003C51700828097E7FF1F9387673D9C43F9
:1055980003C52700828097E7FF1F9387673C9C43DA
:1055A80003C54700828097E7FF1F9387673B9C43AB
:1055B80003C53700828097E7FF1F9387673A9C43AC
:1055C80003C55700828097E7FF1F938767399C437D
:1055D80003C56700828097E7FF1F938767389C435E
:1055E80003C57700828097E7FF1F938767379C433F
:1055F80003C58700828097E7FF1F938767369C4320
:1056080003C59700828097E7FF1F938767359C4300
:1056180003C5A700828097E7FF1F938767349C43E1
:1056280003C5B70011E11D45828097E7FF1F9387E7
:1056380027339C4303C5C700828097E7FF1F9387E2
:1056480027329C4303C5D700828097E7FF1F9387C3
:1056580027319C4303C5E700828097E7FF1F9387A4
:1056680027309C4303D50701828097E7FF1F938764
:10567800272F9C4303C52701828097E7FF1F938745
:10568800272E9C4303D54701828097E7FF1F938706
:10569800272D9C4303D56701828097E7FF1F9387D7
:1056A800272C9C4303D58701828097E7FF1F9387A8
:1056B800272B9C4303C5A701828097E7FF1F938789
:1056C800272A9C4303C5B701828097E7FF1F93876A
:1056D80027299C4303C5C701828097E7FF1F93874B
:1056E80027289C4303C5D701828097E7FF1F93872C
:1056F80027279C438857828097E7FF1F9387472671
:105708009C4303D5C702828097E7FF1F93874725ED
:105718009C4303D5E702828097E7FF1F93874724BE
:105728009C4303C50703828097E7FF1F938747239E
:105738009C43C85B828097E7FF1F9387E7218843D4
:10574800828097E7FF1F938767218843828019E14A
:105758007D558280F5DE984265DFFDD917E7FF1F8A
:10576800130707431847AA877155058B6316072245
:1057780003C507001547E37DA7FC03C737001305DA
:10578800F0057D171377F70FE364E5FC03C35700B3
:10579800E30003FC83C86700E38C08FA03C77700BB
:1057A800494579171377F70FE364E5FA03C7A700AC
:1057B80011481305F7FF1375F50FE36BA8F803CE2F
:1057C80097000D481305FEFF1375F50FE362A8F85F
:1057D80003C8B7006309080065181378F80F1305A4
:1057E800600DE36705F703C5C70079487915137598
:1057F800F50FE36FA8F403C8D7000D457D1813789B
:10580800F80FE36705F503D80701930E4017511801
:10581800420813580801E3ED0EF303C8E7007D18AA
:105828001378F80FE36605F303C827017D1813788A
:10583800F80FE36F05F103C88700C54E7518137894
:10584800F80FE3E70EF103D86701856E938EBEE08B
:105858006D18420813580801E3EC0EEF03D847010E
:105868006D18420813580801E3E40EEF03D88701C6
:105878007918420813580801E36C05ED03C8A7011D
:105888007D181378F80FE36505ED03C5B7011D48CA
:105898007D151375F50FE36DA8EA03C5D7017148A7
:1058A80079151375F50FE365A8EA03D5E701130821
:1058B800E00F7D1542054181E36CA8E803C50702A6
:1058C800494879151375F50FE364A8E883AE4702D4
:1058D80037C534001308F5BFE36CD8E703A887027F
:1058E800130555BF5918E36505E717E5FF1F23277B
:1058F800C50603C6050117E5FF1F2323F506054561
:10590800E378C5E403D82501D04933760603E311CB
:1059180006E403C61501E30D06E217E6FF1F232D73
:10592800B60283C5270001466387A50003C6170092
:10593800F1453306B60283C707039305C002729781
:105948001A071307C70516031A9796084697B387C9
:10595800B70241553E97329742074183636EE8028A
:10596800EFB27FB63685EF603065EFD0F01A2A8443
:10597800EF8050122A94EFC0D01E2A94EF60B07CBA
:105988002A94EFF0BF812A94EF2010612A94EF50F7
:10599800606222956FB07FB58280EFB2DFB24111AD
:1059A800A307A100EF8020139305F100170500005D
:1059B800130525BAEFF08FD1014541016FB0FFB251
:1059C800EFB2FFAD17E4FF1F1304841C0328840003
:1059D80079599368180097E4FF1F23AF141B1378B5
:1059E8001800631E0800BA84BE89368B328A2E8955
:1059F800AA8AEFE0DFDA7D15269509E531594A854F
:105A08006FB07FADEFE0BFD97D152695A167E3574D
:105A1800F5FE97E7FF1F9387674E98433E8C814BAF
:105A280011C70145EFC0F037933B15004A85DA8668
:105A38005686D285EF70102C2A8911CD1C44F99B0B
:105A480017E7FF1F232AF71483270C00CDDBE38811
:105A58000BFA82976DB7268597E7FF1F23AC0712CD
:105A6800EFE0BFD04146CE8517E5FF1F1305C51BE4
:105A7800EFB07FA8EFA010040325040BEFA01006D9
:105A88000545EFA0100C0545EFF03FF18DBF97E7F6
:105A9800FF1F9387E70F9C47858BD5C7EFB2BFA23F
:105AA80017E5FF1F1305851697E7FF1F23A2070EAB
:105AB80097E7FF1F23A0070E97E7FF1F23AE070CEA
:105AC800EFE0302BEF30D07FEFE0D002EFE050076F
