:040000006F00D0714C
:1000040000000000000000006C030020E802002053
:10001400A9BDF9F30457010000000000000000002E
:100024000457010004570100000000000000000014
:100034000457010000000000045701000000000004
:1000440000000000045701000000000004570100F4
:100054000457010004570100045701000000000088
:1000640004570100000000000000000004570100D4
:1000740094030020045701000457010004570100B1
:1000840000000000045701000000000004570100B4
:100094009307000C01116318F50493078008F3B764
:1000A400078093F787083EC00F100000B717004081
:1000B400130770052380E704130780FA2380E704FD
:1000C4000F100000F83713670704F8B79827136771
:1000D400070C98A7238007048247F3A707800F1013
:1000E400000005618280B7170040B827118B69EBC7
:1000F40083C6E7041307800893F6F60F7336078068
:100104001376860832C20F1000001308700523808E
:100114000705930580FA2380B7040F10000003C677
:10012400E704136636002387C704B0271366460026
:10013400B0A7238007041246732606800F10000020
:1001440090271376F60F73370780137787083AC41E
:100154000F100000238007052380B7040F10000050
:1001640098271367070C98A723800704A247F3A7CF
:1001740007800F100000A5470100FD1793F7F70F44
:10018400E5FF93078008F3B7078093F787083EC617
:100194000F100000B7170040130770052380E70411
:1001A400130780FA2380E7040F10000090A7238729
:1001B400D70423800704B247F3A707800F10000079
:1001C4009377050C130700046391E70A93078008EB
:1001D400F3B7078093F787083EC80F100000B717DE
:1001E4000040130770052380E704130780FA238077
:1001F400E7040F100000B827854613670701B8A766
:1002040037270040A303D7808346578093E606012F
:10021400A302D78023800704C247F3A707800F10E7
:10022400000093078008F3B7078093F787083ECE52
:100234000F100000B7170040130770052380E70470
:10024400130780FA2380E7040F100000F8371375B2
:10025400F50F13670704F8B788A7B8471367871F14
:10026400B8C723800704F2478DBD9377F5019DCF6E
:1002740093078008F3B7078093F787083ECA0F10E7
:100284000000B7170040130770052380E704130725
:1002940080FA2380E7040F100000372700408946C6
:1002A400A303D78023800704D24785BF9307800820
:1002B400F3B7078093F787083ECC0F100000B717F9
:1002C4000040130770052380E704130780FA238096
:1002D400E7040F100000372700409D46A303D78092
:1002E40023800704E24715BF411181460146814539
:1002F4001145972000E0E780C02A13078008F337F0
:10030400078093F787083EC40F100000B71700401A
:10031400130670052380C704930680FA2380D7044C
:100324000F100000FD55CEB723800704A245F3A5A6
:1003340005800F10000073370780137787083AC6CB
:100344000F1000002380C7042380D7040F1000007F
:1003540003C76704136717002383E7042380070494
:10036400B247F3A707800F10000001A001A04111BC
:10037400B7170040985F3AC6945F3247E39CE6FEA5
:10038400324541018280B7E700E03707001023A01F
:10039400E7208280B7170040130700032388E70291
:1003A400854723A4F19273002030411106C6012928
:1003B400FDBF230304801547A2872303E4800100C3
:1003C40001002302A48003C7678062076187E34CAE
:1003D40007FE2382A780228783476780E207E1879D
:1003E400E3CC07FE82802303048015472303E480C3
:1003F400010001002302A480828083076480E3CE8D
:1004040007FE23030480828083076480E3CE07FE13
:1004140003454480828083076480E3CE07FE230281
:10042400A4808280411126C44AC24EC006C61377F6
:10043400F50BAD47AA892E8995446306F700194543
:100444005D37653F8D444E85793FFD59FD146398B2
:100454003401B240A24412498249410182801355B9
:1004640009011375F50F453F2209CDB7011126CCBB
:1004740006CEB704080051371545B53771376937CB
:100484002AC6A53F32459377150089EB13651500FD
:100494001375F50FF240E24405618280FD14E9FC16
:1004A4000145CDBF411106C6B717004013077005BB
:1004B4002380E704130780FA2380E70403C7470473
:1004C4001305F00F1367070E2382E70491472303F4
:1004D400F480C535B24041010DB7011126CC4ACA9A
:1004E4004EC852C606CE2A89AE89B284554A5D3FAB
:1004F40091E82137F24026855249E244C249324A02
:1005040005618280CA850945313F910903A7C9FF66
:1005140091472320E48003076480E34E07FE23030E
:100524004481FD17EDFBFD14110981C49377F90F84
:10053400E9FF2D3F55FDFD5475BF011126CC4ACA74
:100544004EC852C656C45AC206CE2A89328A8D492A
:10055400913FC164C16A056B9387F4FFB3F7270128
:1005640099E363719A02FD199180E39709FE71354D
:100574000145F240E2445249C249324AA24A124B6E
:10058400056182801305800D638854011305000200
:100594006384640113051008CA856935C13D09C522
:1005A4002699330A9A4075BF7D55E1B7011106CEED
:1005B40026CC4ACAB2844EC82AC62E89E5353245AD
:1005C400FD14FD59AA852D45B13D639A3401353595
:1005D400F24026855249E244C249056182802D35A4
:1005E40093F7340091EB83260480032709009307D3
:1005F4004900E39EE6FC3E89FD14C1BF011106CE0D
:100604002AC64D353245C533F2400561FDB30111AB
:1006140006CE26CC4ACA4EC852C6AA8956C42E89CA
:100624005135CE852D45FD3B81448D4A214AE93B18
:1006340063965401832704802320F9008504E398FA
:1006440044FF8327048013972901635C0700231266
:10065400F900F240E2445249C249324AA24A0561D1
:1006640069BB2322F900F5B7411106C626C44AC264
:100674004EC0AE89053D81451305B0046533BD44C4
:100684007D59593393F77400CE9703C70700FD14BF
:10069400398D2380A700E39624FFB240A244124977
:1006A4008249410199BB411106C6ED3B1305600621
:1006B4001D3BA133130590093D33B240410135BBC5
:1006C400411122C406C69727000083A727BA1384C2
:1006D400C18291C782971C40AA971CC021A083A7FE
:1006E4000194EDFB0840B74703009387D73F3305D8
:1006F400F502B7A72600938737ECB2403E9508C0B1
:1007040022444101828037E700E01C43B706200001
:100714002320D718F58F0F10000019C191C111E6DD
:1007240037E700E02320F71082802E960F70B65032
:10073400D5BF411126C2B7E400E022C48040B70609
:10074400200006C6758C23A0D4180F10000011C118
:1007540011EAB7E700E023A08710B2402244924494
:1007640041018280971000E0E780408823A0841034
:10077400EDB737E700E01C43B70620002320D71865
:10078400F58F0F10000001C599C1014711EA37E741
:1007940000E02320F710054582800507E309E6FE03
:1007A4003308E500B386E500034808009422E30615
:1007B400D8FE37E700E02320F710014582807971E5
:1007C40022D406D626D24AD04ECE52CC56CA5AC8C5
:1007D4005EC662C4138481931C40D5E7972400004D
:1007E4009384C4A413898194032709009C20943022
:1007F4000146B3A5E7208E21C9C911C29CA0882057
:10080400636CD50897270000238207A21C40F1E7F8
:100814009389019483A70900E9C3138A41930324AC
:100824000A0045CC972B0000938B8BA583A74B0024
:1008340037C9C901014B9CC41309F937972A000031
:10084400938ACAA03E20CDEB5C4463140B0A232098
:10085400FA00032CC40022856D23628465F4972773
:10086400000083A7E7A0B5CB2254B250925402599A
:10087400F249624AD24A424BB24B224C4561176359
:1008840001E0670063CD829781BF850793F7F70F77
:100894000546E3E0D7F69DB73327E5200E23231062
:1008A4000700972700002396079883A74194B3472E
:1008B400F5209C4382979C2083260900FA20B3A646
:1008C400D72092223377E540518F9AA299C38507A6
:1008D4009CA098209C30E377F7F2B25022549254B3
:1008E4000259F249624AD24A424BB24B224C456108
:1008F40082802326FB00B1BF83A7090082971C4492
:100904003307F5406376F50003A74B001D8F2A9744
:100914006369E9022E200820975001E0E780C003B4
:100924005C409DD3104483A64B00B2973E8763E49A
:10093400C70063E4D7003387D74018C4228B4044F0
:1009440031BF03A74A027DDB63E9A7023385A740D1
:100954001C2099EF03C76A0183A64B005117B30704
:10096400A7003E8563E4E70063E4D7003385D740FE
:100974009C44E375F5FC88C4D1B703A74B00BA9730
:10098400F1B7B7C700401387C7201443139626490D
:1009940010C30F1000009387872617250000032536
:1009A400258A9C436A0514C393C7F7FF99835D8D19
:1009B4008280411126C29384C19C984006C622C4F9
:1009C4003C4393D76748B1C3930700063CC39727BA
:1009D400000083C7E79B93F7070417240000130460
:1009E400249B99CB9727000083A78789829748C4C3
:1009F4001C2093F7F70B1CA01E2481CB03A7819E18
:100A04007CD3972700002399079898403C4393D7B9
:100A1400474899C7C1473CC383A7819E23A20706C1
:100A240003A7819C5C4393D7174899C323220700EB
:100A3400B2402244924441018280A53F7300203099
:100A440083A6819E17270000130787941C23858B98
:100A540091E71C33858B99E3FC52EDFB828097165A
:100A640000009386A67EDC5285C7B7E700E037070F
:100A7400200023A0E728B7F700E0938707D0984B1E
:100A84006D9B98CB984B1367870398CB73005010DA
:100A940097270000A38E078E1387819E1C4305466B
:100AA40090C3DC5299CBB7F600E083A706D193E755
:100AB400870023A8F6D0730050101843972600002F
:100AC4009386068D9C22858B99E37C53E5FF828077
:100AD4001831AA869307270009CB03A5819E2849CC
:100AE4001355554819C19307670013883700369882
:100AF40003470800854805451377F707631B170567
:100B04003387F600830727002388F19C91C19CA1B9
:100B14001C331823A207D98F93975760918713F733
:100B2400072019C393E707C01387219D1EA301C69D
:100B3400939757601EA2883209CD83A7819EBC4B30
:100B4400014593D7574891C78307080063D307002B
:100B540039458280011197270000238C07824AC8F7
:100B640097270000A3870782171900001309096E4D
:100B74008327490222CC06CE26CA4EC62A842E8555
:100B8400B28585C7B7E700E03707200023A0E72830
:100B9400B7F700E0938707D0984B6D9B98CB984BA1
:100BA4001367870398CB7300501085479389C19CC2
:100BB4009384819E6315F4060146975001E0E78013
:100BC40000EC83A7090098409C43A1838D8BA9E77F
:100BD400930760197CD38327490299CB37F700E048
:100BE400832707D193E787002328F7D07300501099
:100BF4009440171700001307A7793C23858B91E7CE
:100C04003C33858B99E3FC52EDFBF2406244D244C1
:100C14004249B249056182809307E01B65BF975042
:100C240001E0E78020DF83A7090098431317872991
:100C340098C3D85B719BD8DB59FC97170000A38934
:100C440007749C40094798C379B703A7819E1C4742
:100C54005447F58FB70604001CC7FD8E91CAFD5694
:100C640034D7171600001306665C544A850654CA26
:100C740093F6870095C29716000083C6867193E6A3
:100C84001600171600002306D67003A6C19C545AFA
:100C9400F19A93E6160054DA93F6170095C2971664
:100CA400000083C6F66E93E6160017160000A30133
:100CB400D66E03A6C19C545AF19A93E6160054DAF0
:100CC40093F667009DCE918B83A5C19C9716000077
:100CD4009386066CADCF9C41A1838D8BB5E7DC4A2E
:100CE4009C43A18313F6F70F21E2930770035CCFB3
:100CF4009C2293E717009CA2DC59F19B93E7170011
:100D0400DCD983C7419EB9CF2382019E83A7019E6C
:100D1400A1C7411106C6829783C7419E99E323A0C8
:100D2400019EB24041018280304B13F5C70F137608
:100D34000602498E01C69307500455BF93F7F70F77
:100D44008A079387770365B7930760044DB7BC326E
:100D540093E71700BCB24DB783C7419E81E723A038
:100D6400019E82808280D5357300203003A7C19C08
:100D740014433706FDFF9385819F7D169C4103A88C
:100D8400819EF18E2DC114C31443F18E93961629BE
:100D940014C39847B7061300558F98C7985713176D
:100DA400B72898D7B70703005D8D2328A8049307B5
:100DB40080020100FD17F5FF9C41D8471317C7288F
:100DC400D8C7D8471317C748D8C701000100010086
:100DD40001009C41D8471317C728D8C79857131741
:100DE400B74898D782809396062914C39847B706C4
:100DF400CEFFFD16758F98C7B70703002328F804A4
:100E04008280B7E700E003A807003707200023A08B
:100E1400E7183378E8000F10000003AE01A703A31E
:100E240081A6F287814663F6670883A80700636793
:100E3400F50863E5A80813878700636CE506F223C9
:100E4400216705076317E6001386319B18220507FF
:100E540018A2971500009385653DD223DA212393C8
:100E64000700329733470708DAA16381C70303A554
:100E7400C1A6630DF500EA2211E9DE2223A01601C2
:100E840021073E962106D2A2DAA1B68798436302CF
:100E9400670283A6C1A6630ED700762399EAD623F8
:100EA40052231843A106B296D6A398C3DE21A10704
:100EB400DEA1B7E700E023A007118280BE86C687C3
:100EC4009DB703A7819E3C5BFDFF0100010082806A
:100ED400011122CC26CA06CE2AC42EC6171400003D
:100EE4000324045F854419E001450DA09C84183057
:100EF400858B6304F7000044FDB719469305A100F0
:100F040013052400EFF0FF86E31795FEF2406244D8
:080F1400D24405618280000057
:100F1C0097110020938141A3172100201301C10DCB
:100F2C001305400097F5FF1F9385050D170600204C
:100F3C00130606FE63FAC5008322050023A05500A4
:100F4C0011059105E3EAC5FE17650100130545C4BB
:100F5C00970500209385C5FB1386018F63FAC500A6
:100F6C008322050023A0550011059105E3EAC5FE77
:100F7C001385018F97150020938585566377B500EF
:100F8C00232005001105E36DB5FE9302500273900A
:100F9C0002BC8D42739042808542739012BC9302C6
:100FAC0080087390023097F2FF1F9382E20493E261
:100FBC003200739052309712000093824257739014
:100FCC001234730020302A8309CA8383050023005E
:100FDC0073007D16050385056DFA82802A8311C680
:100FEC002300B3007D16050365FE82803717004091
:100FFC008347E70412054111BD8BC98F93F7F70F97
:10100C0093068008F3B6068093F6860836C60F1052
:10101C000000930670052300D704930680FA230082
:10102C00D7040F1000002307F70423000704B2476E
:10103C00F3A707800F10000041018280011126CA1E
:10104C0006CE22CC8947B314A02863F9A700954794
:10105C0063EAA70A93042500B3149028B71700403D
:10106C0003D70705B166558F2398E704130780084B
:10107C0073370780137787083AC60F1000001307E1
:10108C0070052380E704130780FA2380E7040F1010
:10109C00000003C737051375F50F13670708A389FD
:1010AC00E704A389A70403C7370513670702A389BD
:1010BC00E70423800704B247F3A707800F10000052
:1010CC0081470146B716004003D706051317576032
:1010DC006352070403D7060583C6260513948700BD
:1010EC00931727013694C9833A043E94C12C335488
:1010FC009402F240D24433558502624423A8A18E57
:10110C0005618280994793040040E309F5F4930448
:10111C00F07FA9B703C726059375F70F6373C70054
:10112C0085072E8655B741113A8E2A838148930E36
:10113C00407E130F0019930F400663EF6E141307D4
:10114C0000193377E502854E0D4F994FFD4263E14F
:10115C00BE1861477D1603A5018F4696AA85B3F686
:10116C00E602130780703387E602F946330EDE027F
:10117C0093D61700858B7297369791E38145B30709
:10118C00A602A166FD161306302A13D8F700F58FB8
:10119C00B387C7021166B385A5023307A702B295C0
:1011AC0013F6F71F1E06BD81A583F98EB3A6C620C4
:1011BC003D83AE96BA9713D70601BA972D671307DE
:1011CC00078C33D6E702B3C6060833F7E70242961C
:1011DC004207558FB716004083C7F60293F70708EE
:1011EC00DC838C8383C7F60293F70708E396F5FE3E
:1011FC009C83B71600406381071293078008F3B7EE
:10120C00078093F787083EC40F100000B717004003
:10121C00930670052380D704930680FA2380D704A5
:10122C000F100000D0DB83C6170393E60608A388D3
:10123C00D70223800704A247F3A707800F100000F2
:10124C001166B71700407D16D45BCC5FAD8EF18E66
:10125C00E5FE93068008F3B6068093F6860836C63C
:10126C000F100000930670052380D704930680FAB4
:10127C002380D7040F100000D8DB03C717031367B4
:10128C000704A388E70223800704B247F3A707806B
:10129C000F100000410182807D133377E3031308A4
:1012AC00E01601CF3377F3031308D01619C7137860
:1012BC003300133818001308D816C298BDBD13F8A4
:1012CC001500F91563FBBF029305E801AE989A85EA
:1012DC001383F5FFE395E5FF854501CF1308400621
:1012EC00337805038145630608009375350093B583
:1012FC001500F105AE989A8599BDB3850241DDBF05
:10130C0083C7F60293F70708DC838C8383C7F60246
:10131C0093F70708E396F5FE9C83FDD3F9BD0D0604
:10132C00719A81473307F5006393C7008280144399
:10133C003387F500910714C3F5B7914763ECB704F5
:10134C00974701009387C7A2B3C5F52098413E97F4
:10135C00B71700409387470B028794433717004019
:10136C00B3F6A64094C39306070B9C42B3F7A74071
:10137C0019A8944337170040B3F6A64094C39306BC
:10138C00070B9C42C98F9CC29307070A984333777B
:10139C00A74098C38280944337170040C98ED9B7B1
:1013AC0098433377A74098C3B71700409387070A31
:1013BC009843498FF9BF9843498FF5B7B717004049
:1013CC0098279306000C1377070C6315D70003A519
:1013DC00018F82809827930600041377070C631003
:1013EC00D702942713070002FD8A99C298277D8B98
:1013FC003745C323130505603345E50282809427E6
:10140C0013070002FD8A99C298277D8B3755E80196
:10141C0013050580D5B7B7F700E088478280328581
:10142C00814737370040A14663C3A700828003463B
:10143C00B740E30ED6FE3386F50010228507230451
:10144C00C740DDB797060020938606D0AA8788424E
:10145C00171700201307C708AA9763E9E7000A8744
:10146C00130707FC6364F7009CC282807D55828061
:10147C00411122C406C62A8491372947B307E502D5
:10148C00B2408D83B3D7870222449507B3D7E702C6
:10149C0037370040B3C707082316F7404101828055
:1014AC00716541111305052006C6D937B7370040C1
:1014BC00130710F82381E7400D47A381E74013077A
:1014CC000004A380E74005472387E740B240410171
:1014DC008280371700403E2FB3C7070893F707FCED
:1014EC00B3C707083EAF09C93E2F8E055D8ED18D5F
:1014FC00B3C505082EAF8280828032852D4615EB50
:10150C00DC4198239C33A207D98F0D67130697A152
:10151C006393C70297070020938767C39023130731
:10152C0020036303E60098A39C2305479AA21CA101
:10153C00014632858280130787902946E39BE7FE9C
:10154C00CC458947411109469EA206C697F0FF1F5C
:10155C00E780E01AB2400146328541018280DC41CD
:10156C00411122C406C626C203C807009C33294475
:10157C00A207B3E707010D681308289063940703CB
:10158C008547B284EF4020372A8409ED03A7418FA9
:10159C0011CB9C309420A207D58F93B717001385DD
:1015AC0017000297B2402285224492444101828066
:1015BC005C21858BB9CF011122CC2A842A219385F9
:1015CC0001AA06CEEF40802E058921C12A200147B1
:1015DC0081460546ED45EF30706A2AC61DC5970752
:1015EC00002083D747967C8485477C85970700200D
:1015FC0083C7E7B51CA12A2001462C00EF4070716F
:10160C0009C5ED452800EF30B07EF240624405611B
:10161C008280828041654111938501AA7D1506C6A1
:10162C00EF50F04CB240970600209386668E4146F0
:10163C009545170500201305658E41016F507041CB
:10164C0023AAA18E82800947AA87630EE5000D4765
:10165C006301E502094595EF9707002083C727AF83
:10166C009CA1014582809707002083D7C78B9EA140
:10167C00CDBF9707002083D767ADDEA19707002069
:10168C009387C789BA37BE3F9AA1BEA18547FCA1F3
:10169C00C9BF828097070020938767AB94231307F9
:1016AC002003638FE600411106C6170500001305E1
:1016BC0065F098A3EF60B059B240014541018280BA
:1016CC0001458280C167F917630CF502411122C4F0
:1016DC0006C685472A84639AF50022852244B240C7
:1016EC00938501AA41016F50904089476396F5009C
:1016FC008545EF60705075D1B24022444101828023
:10170C0082802A8783C7019003A5419083C6F1800C
:10171C0099E30145828012216315E6007021E30BE9
:10172C00D6FEFD1793F7F70F2105DDB7B2862E868F
:10173C00AA85173501001305E5646F20C127011137
:10174C0093050003094506CEEF20106D93050005A7
:10175C000D45EF20706C9305C0030545EF20D06B51
:10176C0085471306F100854513055030DC87EFC023
:10177C00307CF2400561828085476398F50019E260
:10178C002386B1902384C190828009476395E5003C
:10179C0019E22386F19082808547631AF500116661
:1017AC00130686A9894503C541916F1040308947BE
:1017BC006317F500894503C541916F10A04E8280D7
:1017CC00011122CC06CE83A7C18F2E8499C79C47CA
:1017DC0089C76244F240056182876C001305704032
:1017EC00EFB0207E324622858145EFB0D05EF240CC
:1017FC00624405618280011126CA06CE22CC4AC8F9
:10180C004EC652C4AE849397556063D3070803C584
:10181C004191EF00D0772A8429C918219307000D34
:10182C006312F7043C214547638BE7046547639BD0
:10183C00E7021735010013052557EF20C1171309CF
:10184C0054009309B400173A0100130A2A57834530
:10185C00090052850509EF200116E31A39FF2945C5
:10186C00EF2001192285EF0050671395F468F240C0
:10187C006244D2444249B249224A056182807021B5
:10188C006C31173501001305E553EF20C112D9BF98
:10189C0093F7150085C317F6FF1F1306E66D97F532
:1018AC00FF1F9385A56C03C54191EFC0F04313C591
:1018BC00140075BF13F525005DD9E93B11661306BD
:1018CC0086A9894503C54191EF10601E13C52400FC
:1018DC0079BF797122D44AD052CC06D626D24ECEBC
:1018EC0056CA91472A842E89138A0191631AF502EC
:1018FC00BE252395F1902386019083A7C18F91C7B4
:10190C00DC4781C7CA852285829723208A00B25082
:10191C00225492540259F249624AD24A4561828059
:10192C0003270A00E31BF7FC9384A1908A208545CA
:10193C00513B83DA0400C167F917639AFA028544B4
:10194C009305E1001305504123860190A3879180F4
:10195C0023070100EFB0E0661C87A1E303C7819069
:10196C009147E31CF7F8E13B2384019079B783A9F5
:10197C00419083C40190E1D403D5290011C993058A
:10198C00E100EF40A04B09C54C455685EF50301691
:10199C00FD1493F4F40FA109F9BF83A7818FDC2305
:1019AC00898BCDDF9305000A0945EF20F04693059E
:1019BC00000A0D45EF20504681450545EF20D045E6
:1019CC001306E1008545130550304487EFC050568F
:1019DC0071B7011117050000130525E206CE22CCC4
:1019EC00EF10204B1384419185471306F100854578
:1019FC0008A013054041DC87EFB010037D55EFC004
:101A0C00607A7D55EF50900B3131170500001305AE
:101A1C00E5D83D3108206244F240854505616F30C0
:101A2C00B17223AEB18E23ACA18E828023A2B19071
:101A3C002380A1908280797106D622D426D24AD0F6
:101A4C004ECE52CC83A701911147639AE70A83C704
:101A5C00C19099EB4144B2502285225492540259C0
:101A6C00F249624A45618280B284B68903A44190EE
:101A7C0083C7019003C7F18085C354206390A602ED
:101A8C005430639DB6007420639AE6002A209305B7
:101A9C006100EF40A03A01E9554475BFFD1793F77B
:101AAC00F70F2104D1BF1389A1904C4503550900B0
:101ABC00EF30D05F05896DD1035509000147814690
:101ACC002686ED45035A0400EF30501B2AC64D44C0
:101ADC0059D12686CE8523144101648597F0FF1FCA
:101AEC00E780E0C10355090001462C00EF4070224D
:101AFC002A8435D1ED452800EF30902FA9BF094736
:101B0C00E38AE7F42C001305504123040100EFB0E5
:101B1C00404B1C8485CB930500020945EF20D02F48
:101B2C00930500030D45EF20302F95450545EF201B
:101B3C00B02E854730008545130550305C84EFC0CE
:101B4C00303F09BFED3E39B741114AC03689D44107
:101B5C0026C206C622C48032B284902222040D68AA
:101B6C00518C01CF1308B8A42D4563040407B2406F
:101B7C00224492440249410182809306D8A4630F07
:101B8C00D400930628A2630BD400F5789388E85C04
:101B9C00A2988546B3C8080863E91603AA259536AA
:101BAC000DC183A7C18F2286224403A807004C31A4
:101BBC00B2404821A6874A87924402498546410192
:101BCC0002882310090001455DB71306B8A46317FA
:101BDC00C40203D881811D45E37B07F9CC4533084A
:101BEC00E840B347F80ABA952310F90033C6070842
:101BFC00268597F0FF1FE78080B0F1B79307A8A464
:101C0C006318F40091472310F9001146CC45CDB769
:101C1C00930788906317F40089472310F90009464D
:101C2C00F5B79307E8A46318F400DC452310D9003A
:101C3C009C239CA049BF13087890E31604F9E9BFD4
:101C4C00011106CE22CC26CA4AC874876314071029
:101C5C00DC412E89B284803394238D672204558C09
:101C6C009386D7A46306D400938627A3631AD40261
:101C7C000355A900793401E90145F2406244D2448C
:101C8C0042490561828083A7C18F03A807004C31AC
:101C9C004821A6871307E100814622860298F1BFEE
:101CAC009386C7A46312D402388785473545E3165B
:101CBC00F7FC1C2213050008E361F7FC03A7C18F96
:101CCC0058433E8502974DBF93862790631DD404DD
:101CDC0034878547EF3030424DF190309C2083564D
:101CEC00A90022065D8E03A7419083C70190C9D736
:101CFC002E236395D50283A7C18F03A807008547C0
:101D0C0048234C338D466313F60089460D66A6872F
:101D1C001307E100130626900298B9BFFD1793F73D
:101D2C00F70F2107E9B79387E7A4E317F4F4388793
:101D3C0085473545E313F7F41C2213050008E36EC1
:101D4C00F7F2D8453335F00009051CA303A7C18F62
:101D5C0058438DBF2D4515B741654111938501AB96
:101D6C007D1506C622C426C24AC0EF50405897F6CD
:101D7C00FF1F938626214146C94517F5FF1F130502
:101D8C002521EF50004D97F4FF1F93846420CC4C19
:101D9C002A890945EFF03F8B138401AC83D7C180AE
:101DAC005EA083D7A40C17F7FF1F0357673A5AA4FA
:101DBC001EA083D7A40D03D7A410938501AD3EA01C
:101DCC000D4585477CA01AA47CA423150400EFF0D4
:101DDC009F87A2850D459939B240224492444A8589
:101DEC000249410182808D679387D7A4631DF60059
:101DFC008D472945639AF500854735456396F6006E
:101E0C001C23A38AF190014582808D679387D7A408
:101E1C0001456319F6008D476396F50083C7519110
:101E2C001CA305458AA201458280B28741111396F5
:101E3C002500BE8506C6EFF08FCEB24001454101AC
:101E4C008280011122CC26CA939625002A84B28462
:101E5C00AA850146054506CE36C6EF008073B2460C
:101E6C002686A2850945EF00C072F2406244D24436
:101E7C000145056182805D71A2C486C62E8493974C
:101E8C00556063DD0700EF00901019C1EF00F004FE
:101E9C001315F468B64026446161828093F71500EF
:101EAC0013C51500E5FB8967ED8FB1C3EF80905525
:101EBC001945EFF0AF98AA8523A2A1920A85C92AE9
:101ECC0051468A856810EFF00F906810EF1080244F
:101EDC00E52437F602002396A192130606E08965E5
:101EEC0003C50192EF00B03C1315D46865B71165BA
:101EFC006D8D4DD117350100130585F1EF10514D46
:101F0C0013060064916503C50192EF00503A131556
:101F1C00E46849B75D715D4697350100938585EF9F
:101F2C00173501001305851D86C6A2C497F0FF1F47
:101F3C00E780A08301E917350100130525EFEF10A9
:101F4C00314901A0B7F700E023A40700795798CBDB
:101F5C003D4798C393078008F3B7078093F787082A
:101F6C003EC00F100000B717004013077005238008
:101F7C00E704130780FA2380E7040F100000B8472A
:101F8C00B70600C1FD16758FB706000E558FB8C782
:101F9C00238007048247F3A707800F10000097F7F0
:101FAC00FF1F938707CA23AEF190130700F8B7E71A
:101FBC0000E0A38AE740130640038145680097E0E0
:101FCC00FF1FE780807697F7FF1F938767450564AF
:101FDC003EC6930704E0FC80E17793C7F78023109B
:101FEC00F102B7B703003ECAB70701039387071086
:101FFC003ECCED47FC868547230FF1009707000088
:10200C009387E7E23EDCB7F5030097070000938760
:10201C0087E33EDE814697F7FFFF9387074050002A
:10202C00E10519453ED6B52319464C00130531027E
:10203C00EFE07FF9B24791C7BC801304F4BF636330
:10204C00F40001A06800EF007067AA8501C917357C
:10205C0001001305E5DEEF10111601A0B640264471
:10206C0061618280411117050000130505E106C668
:10207C0022C4EF0010621384019208A02D280820BE
:10208C002244B24013060032896541016F003022B0
:10209C0017E7FF1F1307272D18C13707C0A858C112
:1020AC0005671307479C3AA517E7FF1F1307272D52
:1020BC000EA518C98280397126DA06DE22DC4AD8D0
:1020CC004ED652D493048008F3B7048093F7870854
:1020DC003EC20F1000003714004093097005230016
:1020EC003405130980FA230024050F1000008347E0
:1020FC00F40293E72700A307F40223000404924799
:10210C00F3A707800F1000001945EFE03FF3138A87
:10211C004192AA852320AA0017350100130545D446
:10212C00EF107109814671468545814701471305BA
:10213C00507EEFE05FFF83570A0017E7FF1F13077E
:10214C0087223AC6FC8285679387479C3707C0A8CD
:10215C00FC83680097E7FF1F938767223AC83ECE3F
:10216C00EF00707EF3B4048093F4840826C40F103F
:10217C00000023003405230024050F10000001008B
:10218C0001008347140393E70702A308F40223001A
:10219C000404A247F3A707800F100000F25062540A
:1021AC00B7E700E03707001023A0E710D2544259DC
:1021BC00B259225A21618280411103A5018F06C6B2
:1021CC0022C426C24AC0EF10E17917F9FF1F130988
:1021DC00A9FC2A86AE86032509008325490017F43D
:1021EC00FF1F1304E4FBEF00314410405440EF1088
:1021FC00811A10405440EF10011A2A86AE8603252E
:10220C00090083254900EF003142AA842E842A86D6
:10221C00AE86032509008325490017F9FF1F130912
:10222C0029F9EF00714097F7FF1F9387E7F7904369
:10223C00D443EF1041160326090083264900EF0012
:10224C00414EEF10C1659307850CB3C70708130502
:10225C00006433F5A70AEF10E1692686A286EF1019
:10226C0081130326090083264900EF00814BEF10F0
:10227C000163B240224433450508924402494101AE
:10228C00828082803D897D15954763E6A70E1737BE
:10229C000100130727C83345E5201C41011106CE68
:1022AC00BA9782872C0013054030EFC0803C2C007D
:1022BC000545EF20504F17350100130565BBEF1096
:1022CC003111F24005618280B8218D47173501002C
:1022DC00130505BBE317F7FEF24005616F10510FB4
:1022EC00B8219547E31FF7FCBE250D6613060620A3
:1022FC00914503C5B182239DF180EF00407B1735DA
:10230C0001001305E5B8C9BFB8218D471735010089
:10231C001305C5B8E317F7FAC1B7BC211147173538
:10232C000100130525B9638CE70219476392E70294
:10233C00EC21173501001305A5B9EF10C1678547CE
:10234C0030008545130550305C84EFC0603E95BF6E
:10235C001547E396E7FE17350100130525B9EF1075
:10236C003107F1BFF240AC2117350100130585B9D7
:10237C0005616F10416482803688BA863E8763148B
:10238C00080094228DB485476313F800BDBC8947BF
:10239C00631FF80041111306401F894503C5B18224
:1023AC0006C6EF00C070B240014541018280014574
:1023BC008280011122CC06CE2E849397556063DD6A
:1023CC00070003C5B182E12611C1012E1315F46873
:1023DC00F24062440561828093F7150013C5150025
:1023EC00E5FB93F7450099CF83C7B1821307401FD4
:1023FC0081462146A14503D5A181EFC0400A134572
:10240C004400F9B793F785009DC3014789460946F7
:10241C00814503D5A181EFC0604DAA851735010018
:10242C001305C5B0EF1021591345840055B713F5AA
:10243C00250059DDB7070200938707207400114669
:10244C00854501453EC6EFF00FDF13060032894586
:10245C0003C5B182A92D134524009DBF0111170599
:10246C000000130545F506CE22CC26CAEF007022DB
:10247C009384B182054488A07000854513055030C3
:10248C004086EFC0E02A138641829D4513056030DB
:10249C00EFC0002A17F6FF1F130686C2E945130585
:1024AC007030EFC0E028173601001306A6A9D545F9
:1024BC000145EFB0B03E8D4770009145130570405B
:1024CC005C854084C08502C6A3040100EFA0D055F2
:1024DC003000854513050040EFA010551306910000
:1024EC00854513051040EFA030541306A100854517
:1024FC0013052040EFA050531306B100854513057A
:10250C005040EFA07052EFF03F8597F5FF1F938579
:10251C0025BA1385C181EFF0CFD062448820F240F8
:10252C00D244854505616F302142411122C43714D4
:10253C0000401E2C71777D17F98F06C61EAC19450D
:10254C00EFE0DFAA1305600497E0FF1FE780C0B33C
:10255C00A1471304840B1CC08D452145EFE0FFDD22
:10256C00014681450545EFE0DFF6EFE07FF31735D7
:10257C0001001305A5B8EF10A165EFF0BF99DD348C
:10258C00EFC00037EFF0EFC4D13D97E0FF1FE780BD
:10259C0040E101112A8706CE2E8526CCB2854ACA87
:1025AC00368622C637240040B7E700E0FD5603A963
:1025BC000700C44323A0D71823A2D7189307F7FF0B
:1025CC0093F7F70F0948636AF808B717004083C7F9
:1025DC005704B7C80300F95763741505B306C50053
:1025EC0063E0D80463140705098297E0FF1FE780B6
:1025FC0040EEAA8737170040930670052300D704D6
:10260C00930680FA2300D70483464704C18A230229
:10261C00D70437E700E023202711232297103244F8
:10262C00F240E24452493E85056182808547631F32
:10263C00F7008567FD173E96E98F3E96FD777D8EF8
:10264C007D8D97E0FF1FE780C0EE65B797E0FF1F19
:10265C00E78040F59307150071BFB547631AF70083
:10266C001305900B97E0FF1FE780C0F8814759B71F
:10267C00B1476315F7001305B00AEDB79947631717
:10268C00F70097E0FF1FE78000F8CDB79D47631B6D
:10269C00F70023A0050023A2050097E0FF1FE780A9
:1026AC0020FCE9B791476317F70097E0FF1FE7801D
:1026BC0000FF6DBF81471DDFF1572DBF23AC05FE19
:1026CC001C4189E7010001000CC182803E8783A771
:1026DC0087FFEDFF232CB7FE8280411122C437E423
:1026EC0000E026C204403707200006C6F98C2320E0
:1026FC00E4180F10000009E9232094101545B2408E
:10270C0022449244410182800347E5FF9307F00F76
:10271C006306F700232094101145D5B797E0FF1FEF
:10272C00E780A06D014523209410D1BF411126C232
:10273C00B7E400E04AC003A90400B707200006C6AE
:10274C0022C43379F90023A0F4180F10000009E516
:10275C0023A02411014535A09565938505D0C98D1D
:10276C002A842105B3C5050833450508EF30814897
:10277C0065D1FD572320050042A17CA123A0241183
:10278C002105B24022449244024941018280411108
:10279C00B7E700E026C284433707200006C622C4F0
:1027AC00F98C23A0E7180F10000093860193904238
:1027BC0001440147B28799EF19C8832784FF63113D
:1027CC00C4069CC2FD57232C04FE230FF4FEA16506
:1027DC00D1291DA083C5E7FF639DA50221C08327D6
:1027EC0084FF6315C4029CC2FD57232C04FE230FE7
:1027FC00F4FEA165EF304115B24022852244B7E7C3
:10280C0000E023A09710924441018280232CF7FE14
:10281C00E1BF11E03E8783A787FF71BF3E84E5BF10
:10282C00232CF7FE45B741114AC037E900E022C41A
:10283C0003240900B707200006C626C27D8C23207E
:10284C00F9180F10000089E523208910154515A0F3
:10285C00AA849707002083C7B79C2E8563F5F400E4
:10286C00854763EE9700953DB7E700E023A08710FE
:10287C000D45B2402244924402494101828083A713
:10288C0085FF99E703C7E5FF9307F00F6308F7008F
:10289C00A935B7E700E023A087104DBF238F95FE25
:1028AC0013850193213DA1652685EF30E109014592
:1028BC00232089107DBF23A8019282802A8713F5DB
:1028CC00F50F2DC1411122C426C206C64AC013F40D
:1028DC001500AE8419C0814709A88147A146850718
:1028EC00638AD70233D6F4487DDAB1463367F720D2
:1028FC003307D70203A9C194B317F02833C40708D0
:10290C003A9983270900032549008297232009005F
:10291C002322090033459400B240224492440249D8
:10292C004101828082800111B7E700E026CA84430E
:10293C004AC83707200006CE22CC2A892E86F98C6D
:10294C0023A0E7180F1000009305F00432C633459E
:10295C000608EF30212A2A8419C53246CA8597E029
:10296C00FF1FE780C0D9F24022856244B7E700E040
:10297C0023A097104249D24405618280411193757E
:10298C007500014506C6B315B028B3C50508EF2080
:10299C00D15609C50845B240410182800145E5BFC9
:1029AC00B7E700E09843B706200023A0D718758F2F
:1029BC000F1000009706002083C69686637ED50014
:1029CC0083A681943325D5201621B3F5B6400EA1EC
:1029DC0023A0E7100145828023A0E7100D458280DB
:1029EC007971B7E700E026D284433707200006D67A
:1029FC0022D44AD04ECE52CCF98C23A0E7180F101B
:102A0C000000930785FF93F7F70F1D47636BF708DB
:102A1C0031473307E50283A7C194BA979C43D1C3CE
:102A2C001D893315A028AE89B345050805452EC66A
:102A3C00EF20B14C2A8929C9B2450545170A002057
:102A4C00130A4A83B13F83A70194829783578A0064
:102A5C002A8481463387370313060064B3B73703E0
:102A6C0013050732B335E500BE95EFF0F011B3074F
:102A7C00850083264A003E8763E4A70063E4D70001
:102A8C003387D7402324E900B7E700E023A0971051
:102A9C000145B250225492540259F249624A45619E
:102AAC008280B7E700E023A097100945DDB7797164
:102ABC0022D437E400E04AD003290400B7072000F1
:102ACC0006D626D24ECE52CC56CA5AC85EC63379DA
:102ADC00F9002320F4180F10000097F7FF1F83C78D
:102AEC0037746376F50083AB019463970B00B7E7FB
:102AFC0000E023A0271199A097FAFF1F938A8A77E9
:102B0C0003AB4A00B74736FE938707C83E9B83D773
:102B1C008A002E8AAA84B385C702B2898146B3B7CC
:102B2C00C70213850532B335B50013060064BE9594
:102B3C00EFF090056370AB02232024110145B250D5
:102B4C00225492540259F249624AD24A424BB24B35
:102B5C0045618280829B83D78A002A841306006495
:102B6C00B38537038146B3B7370313850532B335C5
:102B7C00B500BE95EFF05001B307850003A74A00DE
:102B8C003E8463E4A70063E4E7003384E740D28526
:102B9C002685EF20913601C900C5B7E700E023A0D8
:102BAC002711054569BF93E504F04145B3C50508F8
:102BBC00EF30410411E997F7FF1F83A7E76A85DB24
:102BCC00A6851145829725B7138741931C4399EB32
:102BDC0008C32326050000C52311450104A12322A7
:102BEC00050065BF3E87DC47F5FF48C7DDB7797147
:102BFC00B7E700E026D284433707200006D622D45C
:102C0C004AD04ECE52CC56CA5AC85EC662C466C2B0
:102C1C00F98C23A0E7180F10000021CD2A892E8AE9
:102C2C00B28AB6892144B14C138BC194414CB30B7D
:102C3C00940383270B00DE979C43A1EF93757400DC
:102C4C0056860545B315B028B3C505088D3531C179
:102C5C0083270B00DE9723A0270123A2470163845F
:102C6C00090023808900B7E700E023A097100145F5
:102C7C0021A023A097100945B25022549254025916
:102C8C00F249624AD24A424BB24B224C924C4561B9
:102C9C0082800504E31D84F9B7E700E023A09710B8
:102CAC002145D9BF011126CAB7E400E04EC683A95D
:102CBC00040022CC52C4B707200006CE4AC82A8A88
:102CCC002E84B3F9F90023A0F4180F100000EF20A4
:102CDC00D12217F9FF1F1309A9541DE1A2855285B2
:102CEC00C131834709006380470523A0341119457E
:102CFC00F2406244D2444249B249224A0561828080
:102D0C0023110500A285528561398347090063862A
:102D1C00470123A034110145E1BF83576900C18FDE
:102D2C002313F900FDB7835769005D8C23138900C9
:102D3C006DBF01114AC837E900E022CC0324090019
:102D4C00B707200006CE26CA4EC67D8C2320F91864
:102D5C000F100000BD4763E5A704B144B30495020E
:102D6C009389C19483A70900A6979C4395CB93752F
:102D7C0075000D81B315B028B3C50508253783A799
:102D8C0009000145A69723A0070023A207002320D2
:102D9C008910F2406244D2444249B24905618280B2
:102DAC00B7E700E023A087100945E5B7411106C637
:102DBC0023AEA1920295B24097F7FF1F23AAA74614
:102DCC0001454101828023A0A194014582804111DB
:102DDC00114681451385819306C622C426C223AAB7
:102DEC00019223AE019223A0019497E0FF1FE7808C
:102DFC00C09313060002814517F5FF1F13054542CA
:102E0C0097E0FF1FE7806092EFB05037C14717F48F
:102E1C00FF1F1304E4408545130500123CA0938466
:102E2C00C194EF20315D88C025C130209947814580
:102E3C003306F6021306060C97E0FF1FE780E08EC0
:102E4C009C403820938441949387070C9CC0B347D3
:102E5C00F72023A4F194EFF01FA6552E1C309840B8
:102E6C00173601001306468BB3C6E72090C2938633
:102E7C002700850793F7F70FB3C7E72014B01707A0
:102E8C0000001307E7A398C3B240224492444101C7
:102E9C00828097F6FF1F9386A6382A87BC22883239
:102EAC00637BF5001306150083A7419490B2B347DA
:102EBC00F52098C382801305F00F82801C41F1C766
:102ECC00370700F07D8FB706002089476310D70CB9
:102EDC005A21411122C406C62A845DC319469305A2
:102EEC00F00F5D05EF20711205478D47630AE50869
:102EFC001C4491C75854994741C7185851C31306DD
:102F0C004003814517F5FF1F1305853397E0FF1F1D
:102F1C00E780A08113064003A28517F5FF1F130558
:102F2C00253297D0FF1FE780807D97F7FF1F93878F
:102F3C002731DA2701E713070010DAA7F82719E37E
:102F4C000547F8A79A2B19E36D479AABF83719E3A5
:102F5C000D47F8B7B82B19E30547B8ABB83B19E3E5
:102F6C00F837B8BBD82B19E33D47D8AB583801E735
:102F7C0013074006D8BBFD572382F1A6893D814734
:102F8C00B24022443E854101828089473E85828041
:102F9C0079714ECE97F9FF1F9389C92D83A709002C
:102FAC0006D622D426D24AD052CC8297130900647A
:102FBC00B335250303D68900814617FAFF1F130A80
:102FCC002A2632C633052503EFF0003C83240A0180
:102FDC002A8401456386840232463305944063EFAC
:102FEC00840003A549008146B335A9023305A90223
:102FFC00EFF08039B30795403385870023288A008A
:10300C00B250225492540259F249624A456182806C
:10301C00011122CC0A852E84414697250100938507
:10302C0025D406CEEFD03FFA18083324E4200357FA
:10303C0004FFF240624497F7FF1F83D747243745BC
:10304C000F00BA97130505243355F50205618280EC
:10305C0097F7FF1F83D7A72251471D45637CF702C3
:10306C00794719456378F7021307200315456373F5
:10307C00F7021307B0041145637EF70013074006EF
:10308C000D456379F7001307600909456374F70070
:10309C0013B5B70F8280411122C426C22E84AA8494
:1030AC0006C6058C97D0FF1FE7800061B327A402EA
:1030BC00B2402244338597001375F50F92444101B9
:1030CC008280411122C426C22E84AA8406C6058C95
:1030DC0097D0FF1FE780405EB327A402B240224482
:1030EC003385970033450508924441018280411194
:1030FC0022C426C22E84AA8406C6058C97D0FF1F34
:10310C00E780805B3335A402B2402244269592447A
:10311C0041018280AA8517F5FF1F1305A5151841DB
:10312C0097E7FF1F93876785630DF70041115146A1
:10313C0006C697D0FF1FE780805CB2400145410175
:10314C00828005458280411106C622C426C259C11F
:10315C001C41AA850545B5CBDC41A5CB9E25B5C741
:10316C00BE25A5C7514617F5FF1F1305A51097D00F
:10317C00FF1FE780C05897F7FF1F2383071097F4B2
:10318C00FF1F9384240F884017F4FF1F1304440B74
:10319C001D397C2899EF8A249307807037460F00DD
:1031AC003305F5021306062481468145EFF0C01D58
:1031BC0068A87828AD4763E4E700B1477CA81705F9
:1031CC000000130525DDDD360145B2402244924452
:1031DC004101828097F7FF1F23AE070497F7FF1F6B
:1031EC009387470917D7FF1F1307277998C337878A
:1031FC003200FD56130727A1D4C398C797F7FF1FBA
:10320C0023800708B7C7004023A4D7268DBF011120
:10321C0022CC17F4FF1F1304A402084406CE26CABE
:10322C004AC801E90545F2406244D244424905616D
:10323C0082805C54E5DB185875D770008545829701
:10324C001844B247E300F7FE4A249305E00417F94B
:10325C00FF1F1309E9FCEF20F119232CA90079D1E8
:10326C0052249305F00F814497D0FF1FE780E04B69
:10327C007C240326890163C1F402328597E0FF1F89
:10328C00E780A0B7014597F7FF1F23A707FA97F729
:10329C00FF1F23A507FA41BF4E241844B38795029C
:1032AC00898185043385E7001C5808C28297C9B709
:1032BC0001114EC697F9FF1F938989F883A78900DE
:1032CC0022CC4AC852C406CE26CA56C25AC02A8A32
:1032DC002E843289638F071C03A7C902630E071063
:1032EC001307F01F636CA71097F4FF1F938444F32C
:1032FC0083AA840163970A0803D5C9009565938551
:10330C0015E0EF20310F88CC2A867DC583D5C90006
:10331C0083A7C90203A589008981829783A78900A5
:10332C0083AA8401DCCC89476313FA08C14763156F
:10333C00F40C83D7C9001147938707FCB3C7E70286
:10334C00B3C75721B4231307A0056393E60A9A2346
:10335C006310470B938547004A85228697D0FF1F41
:10336C00E780E0399C4C5685639D57110145F2402E
:10337C006244D2444249B249224A924A024B056104
:10338C008280D84CE381E7FA03D5C9009565938513
:10339C0025E0EF203106AA8A25C183D5C9002A86EB
:1033AC0083A7C90203A5890089818297ADBF8D4788
:1033BC00631CFA00C1476311F40483D7C9009387D7
:1033CC0047FDF19BD697BDBF91476318FA00631573
:1033DC00440383D7C900A117EDB793070010631DF1
:1033EC00FA00A14763EA870083D7C900C117D1BF90
:1033FC009C4C5685639A570B294595BF1D6763777F
:10340C00E508130705E099463347D70283D6C90070
:10341C0017FBFF1F130BCBE03307D702B30AF700E0
:10342C008327CB016395570183248B018DE003D552
:10343C00C9009305E004EF20E17BAA8455DD83D518
:10344C00C90083A7C9022A8689815685829791452E
:10345C001307A00593F5C50FB387B400B42363908D
:10346C00E6049623639B460391052286A6954A851E
:10347C0097D0FF1FE780A02883278B01E38897EE66
:10348C00268597E0FF1FE7804097CDB5A166F9161A
:10349C00E3E4A6F63307E54095BFAC3365BF83275D
:1034AC008B01E38B97F4268597E0FF1FE780E09470
:1034BC00A1B797F5FF1F83A525D89DDD91479306EE
:1034CC00A00593F7C70F3387F5003023E316D6F228
:1034DC001223631B460191072286BE954A8597D01D
:1034EC00FF1FE780C02159B53C33E1BF97F7FF1FA1
:1034FC00938707D5984721C7985B31C385466310DE
:10350C00D504411122C417F4FF1F130464D1104CCD
:10351C0006C615C2CE27484C89810297084C97E005
:10352C00FF1FE780808D97F7FF1F23A707D097F722
:10353C00FF1F23A507D0B240224441018280828024
:10354C00011122CC17F4FF1F130484CF4EC683291C
:10355C00840026CA4AC852C406CE56C22A89AE84F2
:10356C00328A6385091A1C5899EB2945F24062444A
:10357C00D2444249B249224A924A056182805C5443
:10358C00EDD79307F01F63E0A70C97F9FF1F938902
:10359C0029C983A78901A9C7084483A7C901639ACC
:1035AC00A70489476311F906C147E390F4FC5E2434
:1035BC001147938707FCB3C7E70203A78901B3C779
:1035CC00E7201307A005B8A3239027012686D285F0
:1035DC001385470097D0FF1FE7806012014579B72C
:1035EC004A249305E004EF20E16023ACA9004DF5DB
:1035FC00ADBF4E245C5403A68901898182971C447B
:10360C0023AEF90079BF8D47631DF900C147E39ED6
:10361C00F4F45A24130747FD83A78901719BBA97C9
:10362C004DB791476317F900E39124F55A242117FC
:10363C00E5B793070010E31AF9F2A147E3E797F215
:10364C005A244117D1BF9D676372F506930705E0B5
:10365C001947B3C7E7025A2497FAFF1F938A4ABC4B
:10366C00B387E702BE9983A78A01A1CB83A7CA01BE
:10367C00639E370503A58A0191471308A00593059E
:10368C00F00F13F7C70FB306E500B022631D060554
:10369C0083D80600B03263962805B307F64063C1A1
:1036AC00970411072686D2853A952DB7216779178D
:1036BC00E36DA7EAB307F54079BF4A249305E0040C
:1036CC00EF20415323ACAA0055F145B54E245C5470
:1036DC0003A68A0189814E85829723AE3A0159BF90
:1036EC008EA2B28779BF5224B38597009105130639
:1036FC0006FCE36CB6E613863400719A1106B29799
:10370C002381060123902601BCB261BF97F9FF1FEC
:10371C00938909B183A789019DCB03A589019147A1
:10372C001308A0059305F00F13F7C70FB306E500B8
:10373C00B022631C060383D80600B03263972801BD
:10374C00B307F640E3DF97F48EA2B287F1BF7C2477
:10375C004A249305E0043305F50233450508EF20B0
:10376C00614923ACA90055F909B552246C24B385E1
:10377C00C502338697001106E3E9C5DEADBF0145EE
:10378C008280011106CE2EC6EF40703719C5B245A6
:10379C00F2402A2105616F80C031F2404945056134
:1037AC008280A38801962388019623A6019623A4E0
:1037BC00019623AA019423A8019497F7FF1F9387DE
:1037CC00A7AC3707B40098C33707A0001307070A44
:1037DC00D8C337C70700130707B898C74167410715
:1037EC00D8C737077F0098CB370781FFD8CB7D57D9
:1037FC009AAF8280011152C42A8A214522CC26CA52
:10380C004AC84EC606CE2E84B2893689BA84EFE0F9
:10381C00FFF105C9930700FD1CA19947A3004501C1
:10382C003CA12303250164B123123501AA8522850D
:10383C006244F240D2444249B249224A05616FE0E7
:10384C009FFEF2406244D2444249B249224A056189
:10385C00828023A6A196828023A4A1968280011146
:10386C0022CC26CA4AC806CE4EC62A89AE8401444A
:10387C00B309890063699400F2406244D24442491E
:10388C00B2490561828097D0FF1FE780E0E2B34721
:10389C000508A1832380F9009307140093F7F70F11
:1038AC00850963F89700CA97090488A31374F40F69
:1038BC00C1B73E84C1B7411122C417F4FF1F1304D2
:1038CC00249E0A28C16706C6FD17630AF50003C6C5
:1038DC00019C93858195EF40B005FD571EA8B24021
:1038EC0022444101828023900500B1CE8147130E02
:1038FC00000C63FAC7043387F600034807001387EC
:10390C0017003347070863000804B308E800634C4A
:10391C001603B388E60083C8080063860802138385
:10392C0028FC1373F30F63706E021303F8FF2390DC
:10393C0065006396A80005073385E6008280C29770
:10394C00B3C707087DB701458280011122CC26CA76
:10395C004AC84EC606CE97F4FF1F938464942E89F2
:10396C0090C4CCC088C02A8441469305F00F4A8588
:10397C00EF10B169854963173503C840C145C5359A
:10398C0041469305F00F2285EF103168054963130A
:10399C00250362448840F240D2444249B249C145B1
:1039AC00056175BD414681454A85EF101166E319E5
:1039BC0035FDE1B7414681452285EF101165E30ADB
:1039CC0025FDF2406244D2444249B24905618280ED
:1039DC00411122C426C22E84AA847146814517F552
:1039EC00FF1F1305E58B06C64AC097D0FF1FE78063
:1039FC00C0D317F9FF1F1309A98A2382819CA3073F
:103A0C009900EF80800C854719C1814749452306F1
:103A1C00F900B240224492440249410182809DC186
:103A2C001DC185476317F500DC3193E707FCDCB15A
:103A3C0021A089476304F50005458280DC3193F7AA
:103A4C00F703F5B7014582808DC10DC1DC31130739
:103A5C00000C054593F7070C638AE7001307000475
:103A6C0009456395E7000D4582800145828041112F
:103A7C0022C4005D06C626C21DC8AA84085009C50A
:103A8C0097D0FF1FE7806037485009C597D0FF1FBC
:103A9C00E780A036085409C597D0FF1FE780E035B2
:103AAC00228597D0FF1FE780403523AC0402B2403B
:103ABC00224492444101828009ED97E7FF1F83C79E
:103ACC00077F17E5FF1F1305E57E81CB1385019654
:103ADC00828017E5FF1F1305E57D828017E5FF1F28
:103AEC000345E57C828017E5FF1F0325657B8280FB
:103AFC0017E5FF1F0325057B828097E7FF1F83A730
:103B0C00A77A8843828017E7FF1F1307677914474A
:103B1C009C4285079CC268379307F00F6305F5003C
:103B2C0091656F1071628280011122CC06CE2E84B9
:103B3C0032C6EF40100B9147B245631CF50083A7CA
:103B4C00819681CB9C4391C722856244F2400561EA
:103B5C008287F2406244054505618280797122D4E6
:103B6C002A844A214ECE06D626D24AD0EF40A068EF
:103B7C009389019729E583C409009307F00F639992
:103B8C00F40083C511972685ED3E19E12388019633
:103B9C004A20EF4010059147631CF50097E7FF1F83
:103BAC009387077056209A2B6394E6007D579AAB47
:103BBC00B250225492540259F249456182805825E0
:103BCC0004212A893AC665354A85EF40B02E4A2031
:103BDC00EF40A07C83C70900324799C3E38397FA6F
:103BEC009307F00F5220E385F4FA74202820A68561
:103BFC00113179BF411126C206C622C44AC097E4CE
:103C0C00FF1F9384E469F8349307F00F6303F70400
:103C1C002A892945EFE09FB12A8405CD930700FD41
:103C2C001CA1A147A30025013CA1FC24938501966E
:103C3C001105A30FF5FE194697D0FF1FE78020ACA6
:103C4C00A2852244E834B2409244024941016FE01B
:103C5C009FBDB24022449244024941018280797155
:103C6C005AC82A8B2E854ECE52CC56CA06D622D492
:103C7C0026D24AD05EC62E8AB28AB689EF40A057A9
:103C8C0065C5045D2A89EDC09C501305400391E382
:103C9C0061459C5489C79307450133C50708638662
:103CAC0009009307C50133C50708DC5089C7930782
:103CBC00750133C50708EFE07FA72A8455C5614617
:103CCC00814597D0FF1FE78040A697EBFF1F83CB62
:103CDC00AB5C63940B00834B0900930700FD1CA0A5
:103CEC00A947A30064013CA0230354018C50231268
:103CFC0044011305840191C908C47146130A440395
:103D0C0097D0FF1FE780A09F52858C5491C948C45F
:103D1C005146130A450197D0FF1FE780409E5285FC
:103D2C00638C090008C87146CE85130AC50197D06B
:103D3C00FF1FE780C09C5285CC5099C548C85D4692
:103D4C0097D0FF1FE780A09BA2855E85EFE0BFADFB
:103D5C002254B2509254F249624AD24A424BB24B6C
:103D6C004A850259456121B3B250225492540259EA
:103D7C00F249624AD24A424BB24B456182800111F0
:103D8C004EC6AA892E8526CA06CE22CC4AC8AE8437
:103D9C00EF40604631C517E9FF1F0349E94F631433
:103DAC000900034905001945EFE05F982A840DC905
:103DBC008145194697D0FF1FE7802097930700FD98
:103DCC001CA0B947A30034013CA046A0A2856244C4
:103DDC00F240D244B2494A85424905616FE0BFA422
:103DEC00F2406244D2444249B24905618280797101
:103DFC0062C42A8C2E8526D24ECE52CC56CA5AC8B4
:103E0C005EC606D622D44AD0AE84B28B368BBA8A22
:103E1C003E8AC289EF40203E25C52A894145EFE004
:103E2C00FF902A8431CD4146814597D0FF1FE78012
:103E3C00C08F17E5FF1F0345254619E1034509000F
:103E4C00930700FD1CA0BD47A30084013CA02304E4
:103E5C007401A304640123055401A305440146A085
:103E6C0023263401A2852254B25092540259F249AD
:103E7C00624AD24A424BB24B224C45616FE0BF9A28
:103E8C00B250225492540259F249624AD24A424BDD
:103E9C00B24B224C45618280411126C206C622C417
:103EAC004AC097E4FF1F9384A43FF8349307F00FA4
:103EBC006306F7042A893945EFE05F872A841DCD14
:103ECC00930700FD1CA1A30025012301050097E524
:103EDC00FF1F9385253E0D05194697D0FF1FE780E0
:103EEC000082BE28A2853EA4DC345CA42244E834C3
:103EFC00B2409244024941016FE0FF92B240224429
:103F0C009244024941018280011156C2AA8A31456C
:103F1C0026CA4AC84EC652C406CE22CC5AC0AE845B
:103F2C00328AB6893A89EFE07F803DC12A842685A2
:103F3C00EF40602C29C903CB519C639B0A0083A7DB
:103F4C0081A39C4791C7CA864E86D28526858297C7
:103F5C00930700FD1CA09D47A30054013CA046A064
:103F6C00231344012314340123152401A285624434
:103F7C00F240D2444249B249224A924A5A85024BF3
:103F8C0005616FE05F8A17EBFF1F034B5B32C9B70C
:103F9C00F2406244D2444249B249224A924A024B0C
:103FAC0005618280411126C2AA84214522C406C61D
:103FBC002E84EFE0AFF715C5930700FD1CA1C54794
:103FCC003CA13C30AA853CB15E205EA17C207CA14A
:103FDC007C307CB12244B2402685924441016FE092
:103FEC009F84B2402244924441018280797162C420
:103FFC002A8C594526D24AD04ECE52CC56CA5AC8D3
:10400C005EC666C26AC006D622D4035D0103834C29
:10401C0041032E89B28BB6843A8BBE8A428AC689FA
:10402C00EFE0CFF035C5930700FD1CA19547A30029
:10403C0085013CA1A30175012A8419461105B9C05B
:10404C00A68597C0FF1FE780806B23065401230AC7
:10405C0094012315640123174401231834012319F7
:10406C00A401A2852254B2509254F249624AD24A17
:10407C00424BB24B224C924C024D4A85025945613F
:10408C006FE06FFA814597C0FF1FE780006A75BF2C
:10409C00B250225492540259F249624AD24A424BCB
:1040AC00B24B224C924C024D45618280411122C48C
:1040BC0006C617E4FF1F1304A41E7C248DC7AA8513
:1040CC0019461385019697C0FF1FE780406368244B
:1040DC0093850196EFF0BF942244B240138501966C
:1040EC0041016F709022B24022440145410182800F
:1040FC00797122D406D626D24AD04ECE52CC09445F
:10410C0059C12A890A212E8A5144EF40C00EAA8433
:10411C003DC91C5D4544A5EB91659385457113051F
:10412C00C002EF10312D88DCAA894D4429CD13062D
:10413C00C002814597C0FF1FE780205F83570900AD
:10414C009386490036852391F90071469305490001
:10415C0036C697C0FF1FE780805A89472380F90035
:10416C00B2460356090083C5019C0145EF40B0607F
:10417C002A8463060A00D2852685EF40807901C423
:10418C002685EFF0DF8EB2502285225492540259CC
:10419C00F249624A4561828031CA411122C426C269
:1041AC004AC006C62E89B284EF40E0042A845145E9
:1041BC0005C8485409C597D0FF1FE78000C4F145D6
:1041CC002685EFE04FF6AA8748D44D4591CB582071
:1041DC009367470063040900936767005CA001457F
:1041EC00B2402244924402494101828009458280B6
:1041FC00AD4763EAA70097E7FF1F9387E7083325CE
:10420C00F5200A21828041657D158280011122CC26
:10421C002A842E8526CA06CEAE84EF30D07D0DCDF5
:10422C00B7470F009387F723094563E2870281455F
:10423C000A85414697C0FF1FE780204FA685608006
:10424C000A8541804081A3010100EF40703FF2409C
:10425C006244D244056182804945D5BF2381A19C2B
:10426C0082806F401049797152CC2A8A328526D2CD
:10427C004AD04ECE56CA5AC85EC662C406D622D49E
:10428C002E8CB28A368BBA8B3E89C289C684EF30AB
:10429C00907605C92A8463100A1893774B00034360
:1042AC00450085CF13632301639A0B14631809121D
:1042BC00639B090885E81C5C1373B3FF230264003D
:1042CC00C5E7B250225492540259F249624AD24A7A
:1042DC00424BB24B224C456182801373D3FF136364
:1042EC000301D9B713634300230264009C48414681
:1042FC00A6851CD41305840197C0FF1FE7802040BE
:10430C0063190C1063860B0A485409C597D0FF1F1C
:10431C00E780A0AEF1455E85EFE0EFE048D4005CAD
:10432C004DD01C5081EB9165938535717145EF1023
:10433C00710C08D008500DC17146DE8597C0FF1F67
:10434C00E780E03B11A81363430023026400D9FC0F
:10435C00005C630C0C0235D4639A0902B1EC29A001
:10436C00005C25D0639409022254B2509254F24955
:10437C00B24B224CCA865A860259424BD68552857C
:10438C00D24A624A45616FF09F8D05DC5C5081EB2F
:10439C009165938525715D45EF10D10548D0485046
:1043AC0055DD5D46CE8597C0FF1FE78040357DB754
:1043BC00005C01D8E39C09FC1C5481EB916593854E
:1043CC0015715145EF10110308D4085451DD5146B5
:1043DC00A68597C0FF1FE780803279B7136343002F
:1043EC0023026400E39404F0E30C0CF6485415E942
:1043FC00F1454A85EFE02FD348D431A8136343002D
:10440C0023026400E39404EEE3000CF0E31009FED5
:10441C0039B7E31D09FC005CE30504EAE3930BF0F8
:10442C0025BF97D0FF1FE780409DD9B7011126CA41
:10443C0052C406CE22CC4AC84EC62A8AAE84EF306D
:10444C00905B25C12A893945EFE04FAE2A8431C9EA
:10445C0097E9FF1F83C949E4639409008349090064
:10446C009307000D1EA0AD473CA0930569001305F2
:10447C003400194697C0FF1FE780602893F714009B
:10448C005CA493D4144844B423154401A28562441B
:10449C00F240D2444249224A4E85B24905616FE04E
:1044AC008FB8F2406244D2444249B249224A056173
:1044BC00828003A5019501CD411106C697D0FF1F3F
:1044CC00E780A093B24023A80194410182808280AE
:1044DC00411122C406C626C24AC02E84EF30B05108
:1044EC0039C900D517E9FF1F034909DBAA846314F6
:1044FC000900034905004145EFE04FA32A8405CD8F
:10450C009307000D1EA1A5473CA1DC3093856400E8
:10451C001105A30FF5FE194697C0FF1FE780201E5B
:10452C009C54A285B2405CC4224492444A85024900
:10453C0041016FE04FAFB240224492440249410125
:10454C008280938781958EA3B2A3BE8503C6019CFE
:10455C00D6A3FAA36F30D03D011122CC26CA06CEC9
:10456C00AA842E84EF3030490DC954251147AA87EF
:10457C004945639FE6009C5F91C3E02B9756000072
:10458C009386A6EA0A86894526854080EF40602FEF
:10459C00F2406244D244056182805145D5BF21C6A8
:1045AC00411122C426C24AC006C62E89B284EF30FD
:1045BC0090442A84514515C0630609005C2093E79A
:1045CC0027005CA0130584014146A68597C0FF1FF8
:1045DC00E780E0129C4801451CD4B240224492442E
:1045EC0002494101828009458280011122CC26CAF0
:1045FC0006CE2A84AE84EF30104019C96C00228597
:10460C004486EF40A02DF2406244D2440561828082
:10461C005145D5BF6F3070532D47AA876360A702F1
:10462C0041677D170945638CE50017E7FF1F1307EA
:10463C00A7C5B3A7E72001458EA3828009458280D8
:10464C00011122CC3E8606CE26CA4AC8914709449F
:10465C006392F50232C6B6843A89EFF06FB73246F0
:10466C002A8409E9CA852685EFF02FAEEF00D040E9
:10467C00EF00D020F24022856244D24442490561C9
:10468C008280411106C622C42A84EFF08F91EF007C
:10469C009021EF90F079814517E5FF1F130545C078
:1046AC00714697C0FF1FE7804008930700F017E79B
:1046BC00FF1F231EF7BE7D579387019CB8A380A3D1
:1046CC0022852244B240954541016F30C01B1D71BB
:1046DC00A6CA86CEA2CCCAC8CEC6D2C4D6C2DAC0AE
:1046EC005EDE62DC66DA6AD86ED6AE84939755606D
:1046FC0063DA07341389019C03450900C169930AE5
:10470C00200AEFE0CF882A84130BF00F930B1009CB
:10471C00154CB94C17EDFF1F130D8DB8FD1915E095
:10472C001395F468F6406644D6444649B649264A81
:10473C00964A064BF25B625CD25C425DB25D2561CF
:10474C0082801C20639A5701034AFD002A2022868E
:10475C00CE85EFF06FBDF1A8034A2900639A770963
:10476C001C30639E87012285EFF04FBF2285EFD06E
:10477C00DFF603450900EFE08F812A844DB7639B78
:10478C0097115E2005672507639AE7040C4497EDA3
:10479C00FF1F938DEDB0882115E51946850517E5AA
:1047AC00FF1F130525B197C0FF1FE78040F503C716
:1047BC00CD008547631EF70289472386FD00EF7005
:1047CC00C0326DB703C7CD0085476313F70297E777
:1047DC00FF1F238D07ACEFF02FEC49BF0967930641
:1047EC0057006384D70A63ECF60009076385E70476
:1047FC00E30E6AF7A2855285EFE0EF829DBF290791
:10480C006372F70279771307A7FCBA977147B3C79E
:10481C000708E36FF7FC370700181307F770B35757
:10482C00F748F9D783A7C196B1D39C43A1D322856E
:10483C0082970DFD75BF832D8400E38B0DFA03C7A2
:10484C000D0097E7FF1F9387A7A519EB03C72D0052
:10485C0083C61D002207558FBAAB03C73D00D8B7DE
:10486C00D4270947E396E6F803C70D0001CB97E779
:10487C00FF1F238D07A203C50D00B1BFCC37AA2B98
:10488C000D47D8A7EF30C002FDB71C448823EFF0CA
:10489C006FB6E9BD3D476393E7045A208967938659
:1048AC00D700E305D7EC93869701E301D7ECCD074E
:1048BC00E310F7F4C16717E7FF1F0357679FFD1756
:1048CC00E306F7EA83A78196E38207EA9C43E38F2A
:1048DC0007E80965A2854D058297A1BF1307E00380
:1048EC00E398E7F03C2005476399E70A83A7C19654
:1048FC0097EDFF1F83CDBD9B91C7DC4381C78145DD
:10490C00014582976830130A8400D285EFF0CF936B
:10491C005C2868B0835804010358E4005A202A86A6
:10492C0028303EC23E28D286EE853EC09147EFF03D
:10493C00EFEB3C3095E3DD47835804010358E4006A
:10494C0074304E203EC23E28528705463EC06E85CE
:10495C009147EF30D03D28B083A7019581C7114511
:10496C00EFF03FB5138A019703450A00E30005E019
:10497C0083C51197EFE0FFE0E30A05DE34309307BF
:10498C0010036389F600522083450A0011473685CF
:10499C00EFE05FE623880196D1BB31476386E708D9
:1049AC006361F7040D47638EE7041947E392E7E46C
:1049BC006C0813051031EF90D04B9305E1011305F2
:1049CC002031EF90104B7220BC874A2063E6C70061
:1049DC001624B88663FBE60293050002EF702022D2
:1049EC0071B349476385E7044D47E393E7E083A739
:1049FC00C196E38F07DEDC43E38C07DEA285094515
:104A0C0081A022868D454A20A9B36373E6007AA063
:104A1C0063F3D7001EA45A24362412246E200148B6
:104A2C008147EF70201B99B32286B145E9BF83A75C
:104A3C00C196E38F07DADC43E38C07DA8145054541
:104A4C0082977DB313F52500E30E05CC83A7C196A1
:104A5C0091C7DC4381C781450545829713C5240066
:104A6C00D1B11D71A6CA938441959840A2CC86CE33
:104A7C00CAC8CEC6054435CF283397E7FF1F83C776
:104A8C000783B337F000930547003EDEEFE03FF9B4
:104A9C0098402ADC09452C232EDAEFF06FF52AD842
:104AAC000D45EFF0EFF403A904002AD62545034782
:104ABC00A9008349B9003AD4EFF08FF3AA842945B1
:104ACC00EFF00FF36258F2572257B2564256D255B6
:104ADC001375F50F2ACC22C402CA02C802C64EC0F6
:104AEC009308490005459394446026C2EF70A017C3
:104AFC002A84F64022856644D6444649B649256147
:104B0C00828003A5419501CD411106C697C0FF1FB8
:104B1C00E780A02EB24023AA0194410182808280BA
:104B2C00011122CC06CE26CA8D472E846313F504C0
:104B3C00B831E947CA2197D4FF1F93846476631573
:104B4C00F7009E286382A704EF30E06A72201624D7
:104B5C003A2401C572A516A93AA94E202830EFF0C7
:104B6C00AFBA5A209E286314F700FD579EA805453E
:104B7C0025A88967CD07631CF500BC2131476385E7
:104B8C00E7004547E395E7FEEFE0FFD2CDB7B1472D
:104B9C006317F50003C5519CEFF0CFC0C9BFC167C7
:104BAC00FD176308F5000145F2406244D2440561EB
:104BBC008280D831C947E318F7FECC212A20300077
:104BCC0023140100EF30A0555DB7411122C44AC037
:104BDC0006C626C213891198834709001307E00FF4
:104BEC002E846380E7041307F00F6383E7021145FB
:104BFC00EFD0DFB3AA8509CD930700FD1CA189472F
:104C0C003CA1854700B13CB103450900EFD0BFC1C1
:104C1C00F9572300F900B240224492440249410161
:104C2C008280AA841145EFD07FB0AA856DD59307F9
:104C3C0000FD1CA1894700B13CA124B12244B24023
:104C4C009244024903C5019841016FD0DFBD0111A7
:104C5C0026CA938441959C4006CE22CC4AC8B5EB1B
:104C6C002E8991652380A1982A849385757131458D
:104C7C00EF005178AA8788C04D45B1C780A3A380A7
:104C8C000700138527002946CA8597C0FF1FE780B8
:104C9C0000A794409147B82263E2E702CD4711CFB9
:104CAC000546F547630BC7000946C9476307C700AC
:104CBC000D46C1476303C700D547BCA25D3301C590
:104CCC002AC681353245F2406244D24442490561DC
:104CDC0082804545CDBF011126CA938441959C40E5
:104CEC0022CC06CE4AC8494495CF9C230D44639BE5
:104CFC00A7021389019C034509008945EFD09FFA4F
:104D0C00034509009145EFD0FFF99C4001478146CE
:104D1C0080B31306F100854785450145DC87EF60BC
:104D2C00B07D2A84F24022856244D2444249056116
:104D3C00828041114AC006C61389419522C426C2FD
:104D4C00054783270900631AE500C1C72244B24016
:104D5C009244024988234101BDBFA5CF8947631EF8
:104D6C00F5042D45AE84EFD07F9C2A843DC193077A
:104D7C0000FD1CA1E547A30005003CA1BC301505B6
:104D8C001946230FF5FEDC2093855400A30FF5FE86
:104D9C0097C0FF1FE780A09603C5519C9307F00FA7
:104DAC006315F500832709008823A2852244B240AD
:104DBC009244024941016FD01FA7894503C5019C4C
:104DCC00EFD05FEE2244B2409244024941016FF0B1
:104DDC005FD3B24022449244024941018280FD4794
:104DEC0063FCA700094582800945F2406244D24425
:104DFC004249B24905618280011122CC06CE26CAF5
:104E0C004AC84EC62A8421CDAE8991652105938569
:104E1C00657133450508EF00F15DAA8471D51389DE
:104E2C00C1970325090009C597C0FF1FE780E0FC67
:104E3C001385840088C0228681452320990097C061
:104E4C00FF1FE780808E832709002286CE8588434A
:104E5C0097C0FF1FE780A08A83270900C2A383A7FE
:104E6C00419585CB83C7419C918B95C783A7C197EF
:104E7C0091CF9843D6236244F240D2444249B2497E
:104E8C0005468D45054505616F60106301478146F8
:104E9C00DDB7014599BF494589BFFD4763FCA700B4
:104EAC00094582800945F2406244D2444249B249E4
:104EBC0005618280011122CC06CE26CA4AC84EC694
:104ECC002A8421CDAE899165210593855571334591
:104EDC000508EF003152AA8471D5138981970325F7
:104EEC00090009C597C0FF1FE78020F113858400D6
:104EFC0088C0228681452320990097C0FF1FE78038
:104F0C00C082832709002286CE85884397B0FF1F75
:104F1C00E780E07E83270900C2A383A7419585CB58
:104F2C0083C7419C918B95C783A7819791CF984359
:104F3C00D6236244F240D2444249B24905468D45DB
:104F4C00054505616F60505901478146DDB7014544
:104F5C0099BF494589BF83A7C19789CFD2238C4379
:104F6C00411106C697B0FF1FE7806079B24001453A
:104F7C00410182800945828083A7C19795C303A70D
:104F8C008197894719CF52230C43411106C697B01C
:104F9C00FF1FE780C076B24081473E854101828089
:104FAC0089473E85828079714AD006D622D426D292
:104FBC004ECE17D9FF1F1309A92E89478349E90043
:104FCC0063FAA7000945B250225492540259F2498F
:104FDC00456182800347C9008D472A844145E3140B
:104FEC00F7FE9307F4FF93F7F70F0547637DF70080
:104FFC00914503C5019C97D7FF1F238A072AEFD041
:10500C007FCA0145C9B7AE849DE199452800EFE000
:10501C001F85914503C5019C23078900EFD09FC8CC
:10502C002800EFF0AF8871DD2307390169BF1946FD
:10503C008145280097B0FF1FE780206F19462C0090
:10504C00268597B0FF1FE78040722DFD194693050A
:10505C00F00F280097B0FF1FE780206D19462C0039
:10506C00268597B0FF1FE780407029FD1946A6855D
:10507C00280097B0FF1FE780806861BF83C7419C01
:10508C00918B99CF41111385419706C6EFE0CFFC68
:10509C00B240FD5717D7FF1F231CF7204101828018
:1050AC0001456FE06FFBFD572380F198F957A38002
:1050BC00F19823AE019623AC019697D7FF1F9387E7
:1050CC00E71F170700001307470798C317070000CF
:1050DC00130767C6D8C3170700001307C79898C7EC
:1050EC0097070000938707A423AAF19682804111A9
:1050FC0026C2938441959C4006C622C485CB2A8443
:10510C000D45EFD0AFE2AA8519C9930700FD1CA18C
:10511C008D4700B13CA19C408823EFD0CFF019C43F
:10512C002244B240924441016FF0BF9DB2402244F0
:10513C0092444101828056210111096706CE22CC8E
:10514C0026CA13066703AA87639DC6001C45014542
:10515C008C23EFF09FA70545F2406244D2440561D1
:10516C008280130677036396C6001C4505458C2385
:10517C00CDB713068703639BC6061C459384119811
:10518C001307E00F80239C206389E7021307F00FBD
:10519C006382E7021145EFD06FD9AA8501CD930741
:1051AC0000FD1CA1894700B13CA1A301050088208A
:1051BC00EFD06FE7F9579CA079BF83A741950145C4
:1051CC00C1DF15E0054723170100588698B39306F5
:1051DC00E1001307D100700085450545A3060100C9
:1051EC00EF6090318DBF22851937B5B71307970340
:1051FC000145E393E6F613844195184031DF9C4753
:10520C001833842385476304F7020D45EFD00FD282
:10521C00AA8519C9930700FD1CA1914704B13CA1B3
:10522C001C408823EFD02FE0EFF0BF8D2DB783A764
:10523C00C19789CB9443D2239305E1000545EFE058
:10524C008FEA05E10145EFE0BFFA2A8611C68945D0
:10525C0003C5019CEFD0BF851C400947268598B338
:10526C0061B71C21858BF9DF0545EFE07FF89307CB
:10527C0000643306F502D9BF411122C403C4419C1A
:10528C0006C6118809CC17D5FF1F13052503EFE0BF
:10529C004FDC4D44B24022852244410182800145BD
:1052AC00EFE02FDBC5BF7547AA876365B7021147CF
:1052BC0001456378B702ED1593F5F50F614763610E
:1052CC00B70297060100938666C9B3C5D5209841ED
:1052DC003697028793F5F50713072005638AE500D7
:1052EC0001458280C84782808843828088478280BB
:1052FC00C84382809307F00F630DF506011126CA8F
:10530C00AA841305000222CC4AC84EC652C456C207
:10531C0006CE2E8AB28AB6893A89EFD02FC12A845A
:10532C004D450DC8930700FB1CA0A300540123118D
:10533C00440123023401130584006146630509020C
:10534C00CA8597B0FF1FE780803BA2852685EFD0EA
:10535C008FCD0145F2406244D2444249B249224ABF
:10536C00924A05618280814597B0FF1FE780E03B40
:10537C00E9BF09458280011122CC06CE2A844C86D5
:10538C00D086EF20506709C978009306E0070146E4
:10539C00A28503C5519CB93FF240624405618280ED
:1053AC00930700643306F6026FD07F8415C1411158
:1053BC0022C406C62A8408219307D00F63E6A700EF
:1053CC00EFD03F97FD571CA0B24022444101828090
:1053DC0082801A219307000B6310F7025C21494766
:1053EC00639AE700183985476398E7002A218545B9
:1053FC006F2040496D47CDBF8280011122CC26CA57
:10540C004AC806CE2A84AE84328936C6EF20B05EF6
:10541C00324701CDA2856244F240CA8626864249B3
:10542C00D24403C5519C0561F1B5F2406244D244AB
:10543C00424905450561828023A2A1988280011111
:10544C0022CC26CA06CE2A84AE84EF20D05AA6855A
:10545C002285EF90007211ED22856486EF20B05901
:10546C0009C978009306F0070146A28503C5519C33
:10547C005135F2406244D24405618280797122D464
:10548C004AD0AE8706D6BA8526D24ECE7547328420
:10549C0036896364F7042147636CF700154763880A
:1054AC00E7021947638BE708C167FD1785441DA008
:1054BC0037061400DD1713060620B317F0287D8E6F
:1054CC0059EA19677D8F35E793F71710F1DFC1673C
:1054DC00FD1789446316F40221A813F7F707930606
:1054EC002005E313D7FC41677D17631CE6048D444C
:1054FC002EC6EF90C06BB24533049540334404087C
:10550C003385840033450508EF20003CAA87B3C9D6
:10551C00040831C563040900231089002254B250D9
:10552C0092540259B3053041F2493E8545616F9062
:10553C00004BC167FD17954471BFC167FD179D44B2
:10554C0051BF1307200D8D44E39CE7FA1304C600EA
:10555C003344040875B7C167FD178D44A5BFB2501D
:10556C00225492540259F2494561828079714ECE8F
:10557C00AE89C16526D20147AA8489461386C18AA1
:10558C00FD15054522D406D64AD0EF00B04E054491
:10559C0021C92A891307300281461146F545268513
:1055AC00F13D2AC655440DCD0357A900CE860146C0
:1055BC00788411477885054718A1B2472C002685B9
:1055CC00A38007003247FD573CA332473CB3EF00A2
:1055DC0030402A8411C5324597C0FF1FE780E08117
:1055EC00B2502285225492540259F249456182806C
:1055FC00411106C6EFF03FCB19C5B240410117B3BC
:10560C00FF1F6700837FB24041018280011106CEEB
:10561C002AC6EF9020413245914523A4019823A23C
:10562C000198A380A19CEF200026F24005616F1029
:10563C0050559397556063D50714797103C5119C28
:10564C0022D426D206D64AD0AE84EFD04F942A84E8
:10565C0059C918219307000A6314F70885474C08A9
:10566C00DC85EF90804811CD9C8599C7084409C50D
:10567C0097B0FF1FE78060782A208545EF208020B7
:10568C0085A08347610191CF71476366F7064D474B
:10569C00637BF7069386C7FE130730143357D7483E
:1056AC003DC303A7419801C7034751012DCF9C85EA
:1056BC0099C7084409C597B0FF1FE780007452478B
:1056CC00B7070001938707F07D8FB7071200938708
:1056DC0007106307F70003476101ED47E30EF7F886
:1056EC002285EFC09FFFB250225402591395F468E3
:1056FC00925445618280138717FE1377F70F930638
:10570C000002E3F0E6FA858B95CB83A78198A9DF9D
:10571C002A201306B1004C0882979C852A89B1EB8C
:10572C00E30F09F891BF5C8699472308F1002A2002
:10573C006C0023170100EF90005995BF83A7419887
:10574C009DC72A201306B1004C0882972DD18347A0
:10575C005101E39B07F02308A100834761012A2034
:10576C006C005C8623170100EF90E055F5BD1945E0
:10577C00F9BF084455D597B0FF1FE78000684DB7B7
:10578C00014582800145828003C7719C814763E497
:10579C00E700014582809221938645006314A600A0
:1057AC002E8582808507B685DDB71DC5411122C4C3
:1057BC0006C638219307D00F2A8463EBE7000E212D
:1057CC0028310147F9465D46EFF0DFB2F9573EA0AC
:1057DC00B240224441018280828003C7719C814780
:1057EC00FD5663C3E700828016A1230105008507DF
:1057FC001105C5BF01458280938551839307000233
:10580C0085469CA1FD57238AF182A389F1822389C5
:10581C00F1822398D1822398019823A6019823A280
:10582C00019A23A0019A138681839387418D5CC2D0
:10583C002384019A97D7FF1F938707A9094718A2BA
:10584C0098A398AB2380E7022388E7021387018C87
:10585C0094A7D0C794AFD8DB1385018D0D47138661
:10586C00418C9386C18A238CE702C8C32395070019
:10587C00D0CB239D0700CCCFD4D323840702239510
:10588C00070223A60702239D070203A74199D8DF2D
:10589C0097D7FF1F938747A7170700001307E70A3F
:1058AC0023A00700D8C323A407008280411106C699
:1058BC00E13D09C52821B240410182800145E5BF87
:1058CC00411122C426C24AC006C6AA842E8932843B
:1058DC00653DAA8709E94165CA857D157535AA8795
:1058EC00454581C786A3A0A30145B24022449244FA
:1058FC0002494101828015EF09483547639C060334
:10590C00011106CE22CC182210322206598E32C634
:10591C00B377F64095E3CC452A842EC4413F3246FA
:10592C000147630DC50022856244A245F240056122
:10593C0041BF2D473A85828013070008F24062442C
:10594C003A850561828083C8050009486390080385
:10595C00DC4103C807009C33A207B3E707010D68BD
:10596C001308289063940701894771B70545828015
:10597C0001114EC606CE22CC26CA4AC89389318361
:10598C0003C709009307F00F630DF7022A89294515
:10599C00AE843284EFC09FD9AA8505C59307100B3E
:1059AC001EA12302050002A562442311250166A154
:1059BC00F24003C50900D2444249B24905616FC0A7
:1059CC009FE6F2406244D2444249B249056182806A
:1059DC00411126C2AE8483A5419922C406C62A84ED
:1059EC00F135098909C922852244B240A685924421
:1059FC0041016FF0BFB7B2402244924405454101CA
:105A0C008280411122C426C24AC006C6AA8413044D
:105A1C004500130945061E209DC3084409C597B0CF
:105A2C00FF1FE780803D22853146814597B0FF1FDF
:105A3C00E780A0CF3104231A04FEE31E24FDB240FC
:105A4C002244FD579EA0024992444101828083C6A4
:105A5C00719C83A7C19901476394E600014582803C
:105A6C008E23138647066394A5003E858280050726
:105A7C001377F70FB287CDB7AA8703A5419A01C94F
:105A8C005A216314F700084582800841CDBF8280FB
:105A9C00411106C6D53709C50845B240410182807F
:105AAC000145E5BF797122D41384450026D24AD032
:105ABC0052CC5AC82E8A06D64ECE56CA5EC62289FB
:105ACC002287014B814481468147A145122355C64B
